:020000041000EA
:40000000004002080B0100100D0000006D01001000000000000000000000000000000000000000000000000000000000690100100000000000000000690100106901001061
:4000400069010010690100106901001069010010690100106901001069010010690100106901001069010010690100106901001069010010690100106901001069010010E0
:4000800069010010690100106901001069010010690100106901001069010010690100106901001069010010690100106901001069010010690100106901001069010010A0
:4000C00010B5064C2378002B07D1054B002B02D0044800E000BF0123237010BD2406000800000000C4150010044B10B5002B03D00349044800E000BF10BDC0460000000058
:4001000028060008C41500107047FFF7FDFF72B60F4C104DAC4209DA21686268A368043B02DBC858D050FAE70C34F3E70A490B4A0020521A02DD043A8850FCDC08480949EE
:400140000860BFF34F8F00F0F1F800F099F9FEE7C8150010E015001024060008340800080000000808ED00E0FEE7FEE700B504207146084202D0EFF3098001E0EFF30880D6
:40018000043000F05DFEFEE710B5002000F078FC10BD7047E02370B5544C9B00E2580F23D02113409A0089001219505807210840032860D0042861D0424250414C4A4042B0
:4001C00010404C4A8018002B67D1B223B1220321DB00D200E558A358A6581B0F360F0B400E4204D0A258120F0A40012A01D1EA0701D4032B11D1B0233F4ADB00E558A158EC
:40020000E658C904C90C00F0ABFFAD03AD0B6843F101C90F013100F0A3FFE0239B00E3589B069B0FD840354B1860354B1C691969240A090E013100F093FF324BE1B2186067
:40024000013100F08DFF304B040018602F4B30491860304BC01800F083FFFA212E4B890018702E4BE01800F07BFF2D4B18602D4BC003186070BD2C4A1068A4E7C021890076
:4002800052581F210A40112A01D0132A02D18020000298E7FA20C00195E7012BBDD1C823C0220321DB00D200E558A358A6581B0F360F0B400E4204D0A258120F0A40012A7A
:4002C00001D1EA0701D4032BA7D1C022D200A358A158A5587F221F261340090A3140584300F03EFF290C314095E7C0460000264000DC0BFF00366E0184050000C800000824
:4003000000002140CC000008C0000008D400000840420F003F420F00DC000008E7030000D8000008D0000008C400000810B5244800F0C2F8B022E0213020224CD200A35838
:4003400089005B005B08A35063588343635080235B04A3501C4B1D4AE250A02204339201E250FF221A4BE25000F0E8FEC02201215200A3588B43A350FFF70BFFFFF70AFFBD
:40038000B0235B055A78002A02D05B78212B03D10022104BDA605A600F4A8021042000F0DFFB0E4800F09CF90D4B1B6851331B78002B02D00B4800F00FFA00F02DF910BDF7
:4003C0000C1300100000264084050000010002008C050000E0002340400600085006000830080008D8120010024BD86F032318407047C0460400214010B500F056F807499B
:40040000074ACB6F1A40074B1343CB67102306490A681A42FCD000F04CF810BD04002140FCFF00000100FA058800214070B50F4C060000F03AF8E36F0500DB439B0701D106
:40044000FFF7DAFFB0230A4A9B00D650E36F094A09491A40094B1343E36710230A681A42FCD0280000F025F870BDC0460400214000002140FCFF0000880021400300FA059F
:4004800010B562B60348FFF7D1FF002000F0DCFDFBE7C046000008100230800803D001300238FCD1C046C0467047EFF3108072B6704780F310887047014B18607047C04649
:4004C000300800081F4B984232D00ED91E4B984234D01BD91D4B984226D01D4B984225D01C4B98421ED01C481BE0402822D007D9802821D080235B009842F4D1114810E09E
:4005000000280DD01028EED114480AE0A0231B06984205D0124B9842E5D1A020C00300E0002070470F48FCE70F48FAE70F48F8E70448F6E70E48F4E70E48F2E7A420C00307
:40054000EFE7C04606005200010000F0040000F0050000F0030000F0FF00520001005000090000A0010052000200520003005200020050000500520070B5124B1A68312332
:40058000D35C002B16D00F4B1D682C00B423EB582A6A944663441B68002B11DB0A4B1868FFF790FF6B6801229A6063689B68002BFBD170BDC421FF31044800F031FCE2E7A4
:4005C0000348F6E730080008D0070008C41300100200500010B50D4B1860002805D002230370FD33437000234380094B1B6850229A5C002A03D051229B5C002B00D110BD19
:400600004F3A0449002000F0A1F9F8E7E0070008300800085901000810B50248FFF7DAFF10BDC046E407000870B505000C000B4B1A68B423D3581B181B68002B0BDA0B0C39
:4006400004D12404240C6C60002070BD0449054800F0E6FBF5E70448F7E7C04630080008D5020000C413001001008A0070B505000C000368002B0CDAC2600B0C04D124044C
:40068000240CAC60002070BD0349044800F0C8FBF5E70348F7E7C046BB020000C413001001008A0070B505000C1E0BD0094B1A68B423D3585B191B68002B08DAEB6823604B
:4006C000002070BD9921044800F0AAFBEEE70348F7E7C046300800082C14001001008A00034B1B68002B00D07047014B1860FBE7E8070008F0B5C64600B506008846170082
:400700001D00304B1B68002B3FD02E4B1C682C2070432418FF231E002E4026602A0A134063602D0CA560284B1A683123D35C9E4230D2254B1B68B0229A5A7243196A8C4653
:4007400062442261656832229B5C9D4228D21E4B1B681E6A80356D0176196661A5682B0C24D12B0C28D12D042B0C1D43B560E761434623620023A361069B002B02D00022EF
:400780009B5EA38104BC9046F0BDB5210F4800F047FBBAE7C421FF310D4800F041FBC8E7E021FF310A4800F03BFBD0E7FF214900074800F035FBD4E70649054800F030FBEA
:4007C000D1E7C046E80700083008000894140010C4130010FF010000F0B58FB0041E45D06368032B47D8E36A002B49D0236B002B4BD007AA1300210061C961C321C921C3CC
:4008000002AD290023001433C1CBC1C141CB41C10821535E0CAE33801E4B1B6836215B5EDBB20799C9B25B18B370089B0D930B9B0A980096A26AE16AFFF75CFF2B69E8682C
:40084000002200920021FFF755FF216B300000F07BFA0022B35E002B06DB1F2213401E3A9A4013000C4A13600FB0F0BD52210B4800F0D6FAB4E75421084800F0D1FAB2E7B1
:400880005821064800F0CCFAB0E75921034800F0C7FAAEE73008000800E100E094140010F8B506000F0015001C00002A2DD0214B1B68002B2ED01F4B19682C233000584329
:4008C00008187B43C918012633004A6893401B04426896400269002A26D08F69002F25D11268002A24DA2A681204120C13432B600369DD6001238B614C620469330C0ED1D8
:400900003204120CA2600020F8BDFD210A4800F087FACCE7FE21084800F082FACBE70749074800F07DFAEBE70648EDE70648EBE70548E9E7E807000894140010BB020000C8
:40094000C413001004028A0007028A00F8B507000E001500104B1B68002B0FD00E4B1C682C2078432418236A002B0DD0E369AB4210D9236AAD005E510020F8BDAF21490000
:40098000064800F04DFAE9E7B1214900034800F047FAEBE70248F0E7E8070008941400100A028A0070B582B0040000230193002813D02369002B16D06369002B19D0236AEC
:4009C000002B1CD06269D5682B0C1ED12D042D0C41D163691B6802B070BDD221FF31264800F01EFAE5E7E9214900234800F018FAE2E7D421FF31204800F012FADFE7EA21C0
:400A000049001D4800F00CFADCE71B041360136820691A4B1A68B423D3581B181B68002BD4DA01A9FFF73EFE00280ED101980268160CFF231340E2699A4207D99B00226A96
:400A4000D358002B02D0984700E0002631002069FFF7EAFDBAE763691D601B68636A002B05D09847002363620023A361B1E7A36A002BF9D09847F7E794140010300800085C
:400A800010B50400084B1B68002B07D0064B18682C236343C018FFF785FF10BDB221FF31024800F0BDF9F1E7E80700089414001070B505000C00244B1A683123D35C8342C7
:400AC00039D9002939D00B68DB0638D13123D35C984225D21C4B1A68136AB021525A55435D191A4E35602368DA080021606800F0C3FB00212800FFF797FD3568002C15D08E
:400B0000220000212800FFF7B1FD002819D10F4B18680021FFF788FD00280DD00C480BE0C421FF310B4800F07BF9D3E70A49094800F076F9E4E7094870BD0848FCE7074886
:400B4000FAE70348F8E7C04630080008F407000801018A00C41300109303000003018A0010B50400002A0BD0002A22D0002922D0124B19605A6019002000FFF799FF10BD61
:400B80000029F1D10E4B1A683123D35C98420AD20B4B1A68136AB021525A54431C19094B1C600020EBE7C431FF31074800F038F9EEE70648E3E70548E1E7C046EC0700083E
:400BC00030080008F4070008C413001003018A00F0B583B00D00194B1B68DE68336883422AD947091F2318400124844000290CD000230193114B18680368002B09DB104C87
:400C0000002D15D0200003B0F0BDFFF74EFC0190F0E77268BB00D3181A68144206D0A2431A6000240021FFF7FFFCE9E7054CF9E70198FFF73EFCE5E7034CE3E7F407000805
:400C4000030188000201880004018A000A4B1B68DB681A6882420DD941091F2210401E3A8240586889000B581A4201D1034802E0034800E003487047F407000800018800D2
:400C80000101880004018A00B0B505000C001A4B1B6828229A5C012A13D03A229A5ED2B28A4224D007200540134A1268126880200006284380239B019C466444A400A050AC
:400CC000B0BD87080632390091430A1EF8D103200540ED00FF32AA4019682031BF00C9190B68AC405C4014405C400C60E8E77621024800F095F8D5E730080008FC1400103F
:400D000070B504000D000C4B9A680C4B9A4204D01034A4000A4BE05870BD002905D01034064BA400E058E550F6E73821FF31054800F076F8F3E7C04600ED00E00000000811
:400D400000000010FC140010F0B5CE46474680B583B0061E019155D04368032B2AD80023F05E00282BDA284C0022B35E7168002B2ADB9A08254FC0329200D05984460320E1
:400D80000340DB00FC30814605009D406046A843050089014846084098402843D0511C4B9A681C4B9A4227D0200003B00CBC90469946F0BD3221184800F032F8CFE7B1789A
:400DC000FFF762FF0024CFE79BB20F221A40083A9208063292000E4884466244556803273B40DB00FF2007009F40BD4389010140994029435160D2E70023F05E0199FFF7C1
:400E00007FFFD1E7004CCFE70100560000E100E000ED00E000000008FC14001001BEFEE770B50D00044C18220100200000F02CFAA5610020FFF7F2FFE8050008FEE70000EF
:400E400010B50A4B0268DA6142681A6282685A62C2689A620269DA6242691A6382695A63C2699A63FFF7EAFF10BDC046E805000830B585B004000D00022803D9042801D04D
:400E8000032816D16B1EDBB2012B03D9042D01D0082D13D1A400264BE458042D2CD0012D2CD0022D2DD1234B1C68002C2CD024692AE021492148FFF7B3FFE3E720491F484C
:400EC000FFF7AEFFE6E7A3682B420BD1E3681A6802925B6801930393290002A823689847144B1C606469002C04D0164B9842EAD1012DE8D105B030BD0020F4E70020F2E788
:400F00001C006369002BFBD1002000E02469002CF0D0A3682B42F9D1E3681A6802925B6801930393290002A823689847EEE7C046FC070008F8070008B2090000601500105F
:400F4000B3090000FF00420010B5041E25D0154B1A68D168F222D2018A5822601B68F022D201D9688A5862600F4AD9688A58A2600E4AD9688A58E2600D4AD9688A582261AD
:400F80000C4AD9688A5862610B4AD9688A58A261DA680A4BD358E36110BD09490948FFF73FFFD4E73008000804780000087800000C780000107800001478000018780000B1
:400FC000A10A00006015001010B5041E24D0154B1B68F022D201D96860688850124AD968A0688850114AD968E0688850104AD968206988500F4AD968606988500E4AD96834
:40100000A06988500D4AD968E0698850DA682168F223DB01D15010BD09490A48FFF700FFD5E7C0463008000804780000087800000C780000107800001478000018780000AD
:40104000C90A00006015001070B50600012836D8344B5B68002B38D001210120FFF708FF041E59D1FFF721FA05002E4B5B68002B03D004210120FFF7FBFE2B4B1B684322D2
:401080009A5C002A04D09A68E023D358DB061ED4B0235B059B899BB2002B1CD0B0235B059B899BB280225200934214D01F4A136904210B431361012E28D030BF0EE0A62196
:4010C00089001B48FFF7ACFEC2E70024CAE71948FFF73AFFDCE7300000F0F6F8124B1B6843229A5C002A04D09A68E023D358DB060ED42800FFF7DDF90A4B5B68002B03D04F
:4011000008210120FFF7B4FE200070BD20BFE5E70848FFF759FFECE702210120FFF7A8FE054CF1E7FC0700083008000800ED00E06015001010080008FF0042000749C0221B
:4011400052008B589B009B088020C00503438B50885880231B0603438B50704700002640002243088B4274D303098B425FD3030A8B4244D3030B8B4228D3030C8B420DD385
:40118000FF22090212BA030C8B4202D31212090265D0030B8B4219D300E0090AC30B8B4201D3CB03C01A5241830B8B4201D38B03C01A5241430B8B4201D34B03C01A5241EA
:4011C000030B8B4201D30B03C01A5241C30A8B4201D3CB02C01A5241830A8B4201D38B02C01A5241430A8B4201D34B02C01A5241030A8B4201D30B02C01A5241CDD2C309BA
:401200008B4201D3CB01C01A524183098B4201D38B01C01A524143098B4201D34B01C01A524103098B4201D30B01C01A5241C3088B4201D3CB00C01A524183088B4201D312
:401240008B00C01A524143088B4201D34B00C01A5241411A00D20146524110467047FFE701B5002000F006F802BDC0460029F7D076E770477047C04603001218934200D1BB
:40128000704719700133F9E730B50500002A00D130BD0C78013A6B1C2C700131002C05D19A189A42F4D01C700133FAE71D00EDE7F8B5C046F8BC08BC9E467047F8B5C04695
:4012C000F8BC08BC9E46704701B40248844601BC604700BF3903000803000000010000000100000000000000050360000400000001000000000000000100000006046000CE
:4013000008000000B0070008890100100000214000002540000001400000344000002440000031400000324000001F4100002340000011400101010101010101011010103D
:40134000800019005500F0000501053B04101C01010000000FC000000004000001010101011D3A57789600082000101208000000001F00000010000F002000023F06080E76
:4013800000080009000A000B24282C3034000000100000009000000088000000080000008000000004F0000000F00000400200002005A000D00100018001A001200000007C
:4013C00010000000433A2F55736572732F766D65642F4D6F647573546F6F6C626F785F312E302F6C69627261726965732F70736F633673772D312E302F636F6D706F6E656C
:401400006E74732F70736F633670646C2F647269766572732F696E636C7564652F63795F6970635F6472762E68000000433A2F55736572732F766D65642F4D6F64757354B1
:401440006F6F6C626F785F312E302F6C69627261726965732F70736F633673772D312E302F636F6D706F6E656E74732F70736F633670646C2F647269766572732F736F75BC
:401480007263652F63795F6970635F6472762E6300000000433A2F55736572732F766D65642F4D6F647573546F6F6C626F785F312E302F6C69627261726965732F70736FFE
:4014C000633673772D312E302F636F6D706F6E656E74732F70736F633670646C2F647269766572732F736F757263652F63795F6970635F706970652E63000000433A2F55AB
:40150000736572732F766D65642F4D6F647573546F6F6C626F785F312E302F6C69627261726965732F70736F633673772D312E302F636F6D706F6E656E74732F70736F6302
:401540003670646C2F647269766572732F736F757263652F63795F737973696E742E6300433A2F55736572732F766D65642F4D6F647573546F6F6C626F785F312E302F6C22
:4015800069627261726965732F70736F633673772D312E302F636F6D706F6E656E74732F70736F633670646C2F647269766572732F736F757263652F63795F737973706DB7
:4015C0002E630000000000000000001000000008C0000000E8150010C000000828050000240600081002000000093D000048E80100127A0000093D000000D00700093D00D6
:40160000A00F000004000000E9000010C10000100004400B27D0144B1A68136AB021515ACA00521A9B181B68002BF4DA0F4B3E221A600F4B0F4A1A600F4BA322D20006212F
:4016400099500E4A98509B58074B1A68136AAA31515ACA00521A9B1800225A60064A074BD358002BFADA70473008000804012640080126401E1F0000000026401C05000051
:4016800010B54378FF2B00D010BD00F011FA04000F4B1A683123D35C042B13D90C4B1A68136AB021525A92009B18DB685A681368AF390B4313601368DB07FCD4200000F0EC
:4016C0001FFAE1E7C421FF31024800F001FAE5E730080008C4130010F0B5CE4600B582B004000191544B1A683123D35C002B1ED0514B1B681E6AB4229D58AD19643A9B5C0C
:40170000002B76D000F0CCF98146032815D000F0CFF90700494A4A4BD358002B4BDB494C4B46032B5ED0380000F0EAF978E0C421FF31454800F0CCF9DAE73F4B1A683123EC
:40174000D35C062B20D93C4B1968B023CA5A53009B185A000B6A9C466244B423CB589B181B68002B63DB002000F0AAF9374B98425FD0374B1A6800230021012000F0B0F9DB
:40178000002807D1002708E0C421FF312E4800F09FF9D8E72B4C43E00137002000F090F92A4B984202D02B4B9F42F5D9294B9F42ADD9244C34E0284A0121300000F098F9F3
:4017C000002801D01F4CABE70198FFF721FF002C06D02B68002BFCDB00F052F904009FE71E4C9DE70121002000F052F90028F9D199E700F05DF90700174A0121300000F01B
:4018000077F9002808D1002C0FD02B68002BFCDB00F036F9040000E00A4C380000F070F9200002B004BC9146F0BD0C4CF5E7054CF6E7044CF4E7C04630080008000026405E
:401840001C05000005005200C413001001018800E0070008EF490200D007000801005000F0B5D6464F464646C0B57C4B1A6853689A46B0235B055B78002B04D0B0235B05B3
:401880005B78212B60D1B023D15ACB005B1A116A8C46634419680029F5DAD96802252943D960B023D15ACB005B1A116A8C466344D968C90737D5DE683604360C84271168EB
:4018C000D559AC4661440968090A0904FF252D0429408825AC461468A1465459A046C1444D462D682D0A2D0629433143D9601168D359C9180B685A4D2B4090221201134369
:401900000B60564E31680B68644609595B18196829400A431A6032681368D1595918096812599B181B684D4B1B68B0215D5AEA00521B1D6AAC466244002555601A6A595A70
:40194000CB005B1AD3185B68464A136904210B431361012840D030BF404B1A68B023D15ACB005B1A116A8C46634419680029F3DAB02149054978002930D0B02149054978BF
:4019800021292BD086235B005246D358002B55D135480768354BA321C9005E58344A1568344C0460062058503E211160324A063199502E4A304BD358002BFADA86235B00E1
:4019C0002E4A5146CA50284B1F60284AA323DB00D650274B1D6031E020BFBDE7D968C90720D511688420125889180A681C480240DB681B0C1B061B0C13430B60174B1A6873
:401A00008823D15813689C4661440B680340106AB024145BE200121B8218D268120E120213430B600D4B1A68136AB021515ACA00521A9B18DA6802218A43DA60074B1A6889
:401A4000136AB021515ACA00521A9B1800225A601CBC90469946A246F0BDC04630080008FF00FFFF00ED00E00801264000002640040126401E1F00001C050000AAAAAAAA30
:401A800001B40248844601BC604700BF7905001001B40248844601BC604700BFD10B001001B40248844601BC604700BFE903001001B40248844601BC604700BFAB04001041
:401AC00001B40248844601BC604700BF4D0C001001B40248844601BC604700BF210E001001B40248844601BC604700BFA108001001B40248844601BC604700BF6D06001052
:401B000001B40248844601BC604700BFB3040010000000000000000000000000000000000000000000000000000000000000000000000000000000000000000000000000F2
:401B40000000000000000000000000000000000000000000000000000000000000000000000000000000000000000000000000000000000000000000000000000000000065
:401B80000000000000000000000000000000000000000000000000000000000000000000000000000000000000000000000000000000000000000000000000000000000025
:401BC00000000000000000000000000000000000000000000000000000000000000000000000000000000000000000000000000000000000000000000000000000000000E5
:0200000490303A
:02000000EE40D0
:0200000490501A
:0C00000000000000000000000008EE40BE
:00000001FF