:100000003DB8F396000000000004030000F1020078
:1000100000000000000100000000000000000000DF
:1000200000000000000000000000000000000000D0
:1000300000000000000000000000000000000000C0
:1000400000000000000000000000000000000000B0
:1000500000000000000000000000000000000000A0
:1004000000D00208A3C807100D000000D107061095
:1004100000000000000000000000000000000000DC
:1004200000000000000000000000000059A80710B4
:100430000000000000000000DDA80710E9A8071078
:10044000FDC80710FDC80710FDC80710FDC807103C
:10045000FDC80710FDC80710FDC80710FDC807102C
:10046000FDC80710FDC80710FDC80710FDC807101C
:10047000FDC80710FDC80710FDC80710FDC807100C
:10048000FDC80710FDC80710FDC80710FDC80710FC
:10049000FDC80710FDC80710FDC80710FDC80710EC
:1004A000FDC80710FDC80710FDC80710FDC80710DC
:1004B000FDC80710FDC80710FDC80710FDC80710CC
:1004C00010B5064C2378002B07D1054B002B02D02A
:1004D000044800E000BF0123237010BD001602088D
:1004E000000000003CDF0810084B10B5002B03D0C3
:1004F0000749084800E000BF07480368002B00D107
:1005000010BD064B002BFBD09847F9E70000000018
:10051000041602083CDF08108C11020800000000DD
:10052000164B002B00D1144B9D46402292029A1A82
:10053000924600218B460F461348144A121A20F0A7
:1005400023FA0F4B002B00D098470E4B002B00D006
:1005500098470020002104000D000D48002802D01B
:100560000C4819F043FC1FF00DFE2000290019F083
:10057000E7FF19F0C1FDC0460000080000D00208E6
:1005800000000000A1A40710001602080CB4020825
:10059000ED9D071000000000F0B591B03022002161
:1005A00004A820F0F1F980211020090600F080FE57
:1005B00010220300104204D14E494F48213219F055
:1005C0003BFB04A9102000F0AFFE0028EBD1059BF7
:1005D0000293002B06D0069B5A1C03D03B224549B0
:1005E0004648ECE7049B022B26D0032B01D0012BBD
:1005F0007BD10C9B0293002B1AD10D9B0293002BF5
:1006000016D10E9B0293002B12D10F9B0293002B4D
:100610000ED1089B0293002B0AD1099B0293002B59
:1006200006D10A9B0293002B02D10B9B002B57D0C3
:100630006D223049324814E0089B0293099B0393D2
:10064000039A029B94460A9A63449B180B9A9B1840
:100650000292162B02D10C9B142B04D04522254963
:10066000284819F0E9FA1E201FF0B8FD041E03D136
:100670004B2220492448F4E71E22002120F084F96F
:100680002700002504ABAE009E1933693A0029000B
:10069000059800F0C7FF3369984205D000905322B7
:1006A00014491A4819F0C8FA01353F18032DE9D149
:1006B0002100174820F03EFC051E03D05B220D49A7
:1006C0001448CEE7144E059F300020F07FFC320026
:1006D000431C2900380000F0CFFF20001FF088FDE8
:1006E0000021059801F020F85DE7732201490B48CD
:1006F00065E7C0467068081080680810AA6808108E
:100700008C690810E468081024690810456908100D
:10071000506808106A69081066680810D6690810E1
:1007200070B5051E04D16E220D490E4819F084FAE9
:100730000D4C200002F060FC2000243004F018FA78
:100740002000483004F012FB20006C3004F0CAFF97
:100750002000903000F00AF82C60052070BDC046E3
:10076000FA6908100A6A0810C400020810B5041ECD
:1007700004D154220E490F4819F05EFA0E481BF0BE
:10078000FBF8E06100280ED00C4B0D4A9C60E36042
:1007900000210C481BF054FF6060002807D1632241
:1007A00003490948E8E7592201490848E4E710BD30
:1007B000266A08103D6A0810EC6A081078010208E1
:1007C00098010208990506109F6A0810586A0810D7
:1007D0002C4B05E02C4B03E02C4B01E02C4BFFE7AE
:1007E000EFF308802B4972460A4201D0EFF30980EB
:1007F0009C46294B196802680A60043142680A6005
:10080000043182680A600431C2680A600431F0C1B0
:1008100047460F6004314F460F60043157460F6062
:1008200004315F460F60043102690A600831426991
:100830000A60043182690A600431C2690A600431C5
:1008400003462033154E324200D0043375460D4E18
:10085000354200D148330C46103C2360EFF3098247
:100860000A600431EFF308820A60043172460A60BC
:100870000431EFF314820A606046074900F05EF825
:10088000FEE7000010000000200000003000000023
:100890004000000004000000286B08100002000067
:1008A00030B5002585B01A4CAB002900E258194834
:1008B000013519F027F80D2DF5D1A36C16480293D8
:1008C000636C0193236C0093E36BA26B616B19F073
:1008D00019F8124B1248196819F014F8E36C1B0749
:1008E00012D5104819F00EF8236D0F48DB0700D41D
:1008F0000E4819F007F8E36C0D485B0700D40D486B
:1009000019F000F805B030BD0B4818F0FBFFEFE719
:1009100054A20208BC6B0810CA6B081000ED00E07E
:10092000196C0810276C0810366C0810436C0810FE
:10093000666C0810726C0810566C081013B5040031
:10094000154818F0DFFF302C17D0402C1AD0202C7F
:100950001DD1124818F0D6FF114C124818F0D2FFE2
:10096000FFF79EFF104818F0CDFF00230F4A0093B9
:10097000D26B0F49200019F087F90E4818F0C2FF1A
:100980000D4CEAE70D4818F0BDFF0D4CE5E70D48AA
:1009900018F0B8FF0C4CE0E72C6B0810556B0810F2
:1009A0003E01FF80826B08108D6B081054A2020874
:1009B000AC6B0810646B08103F01FF806D6B081072
:1009C0004001FF80786B08103D01FF80F0B587B0D3
:1009D00005000E000392002804D12C221E491F4856
:1009E00018F0FEFE002903D12D221B491C48F7E711
:1009F00000F084FB00280FD0036800930121280039
:100A000018F0EFFF071EF9D000246B889C4206D334
:100A1000582211491348E3E701235B42EDE7002325
:100A2000059323043B430193230102936B68220146
:100A3000981805A9019A18F0C1FF002801D10134C6
:100A4000E3E76B68029A01989B18009ADE605A608F
:100A5000039A9A6007B0F0BDB66C0810FE6C0810DF
:100A6000AB6E0810186D081037B5051E04D1612251
:100A70001C491D4818F0B4FE002903D1622219490F
:100A80001A48F7E742880B0C934205D300921849A5
:100A90006822184819F0D0F81C0143681B59994284
:100AA00005D00B006C221249134819F0C5F800F06C
:100AB00025FB00280DD002686B681B1959688A4213
:100AC0000AD099688A4207D0762209490B4819F062
:100AD000B3F801225242EFE700225A609A601A608E
:100AE00037BDC046B66C0810FE6C08101C6D0810AF
:100AF0007E6C0810386D0810866D0810C26D0810E5
:100B000037B5051E04D181221D491E4818F068FE24
:100B1000002904D184221C491C4819F08DF8428810
:100B20000B0C934205D3009217498A22184819F0FA
:100B300083F81C0143681B59994205D00B008E2293
:100B40001149144819F078F800F0D8FA00280CD0B0
:100B500002686B681C1963689A4209D0A3689A42BC
:100B600006D0982208490C48D7E701225242F0E704
:100B7000E068002803D19D2201490848C6E73EBD30
:100B8000B66C0810FE6C08109A6C0810FE6D081008
:100B9000386D0810866D08103B6E0810896E0810BD
:100BA000F0B5002106000D4B5D681B680C33A942AF
:100BB00001D1002010E000225F68BA4202D1013169
:100BC0002433F4E71868540100190468A64201D0E0
:100BD0000132F2E70028F2D0F0BDC046EC01020875
:100BE00070B50D000121836804004942D8691AF0EC
:100BF000D9FE5722002820D1E369002B0DD1A56131
:100C0000A368E561616858681BF044FD002806DAB6
:100C100066220C490C4818F0E3FD1D61F0E763689B
:100C2000034203D1672207490848F4E7A368D8695B
:100C30001AF0CEFE002803D06B2202490448EAE7EE
:100C400070BDC0466B710810C0710810DC710810CF
:100C5000AE710810F0B5050085B00E1E04D17022EB
:100C60004349444818F0BCFDFFF79AFF041E05D124
:100C70002B0074224049414818F0DEFF0369002B25
:100C80000ED13268C1688A4210D90293E3687A2291
:100C900001932368384900933948336818F0CCFF32
:100CA000012B03D13268C1688A42EED100F026FAE6
:100CB000071E07D1237D002B1FD12368382231491D
:100CC0003148D9E74269002A0BD0002381698B4261
:100CD0000CD13B684622009323682A492B4818F020
:100CE000ABFF03683D2227492948C5E79800105803
:100CF0002568A84201D00133E9E73A000C21300011
:100D000000F01EFA002804D181221B49214818F066
:100D100093FF214B002198691AF0AAF9051E10D102
:100D20001E4BB0687360002F07D01AF0BBFF00287D
:100D300005D08A220E491A4894E700F059FE05B002
:100D4000F0BDA36801001A681648FFF73FFE0223B2
:100D500070606B75013B2B7500232F606C60EE603B
:100D6000AB602B61AB7529002000FFF739FFE6E788
:100D70006B710810FE6F0810E56E081011700810F6
:100D80002F700810C56E08108C700810FB700810CA
:100D9000C47008103B710810EC01020801000080CB
:100DA000AE710810F4010208F0B510248DB004AD46
:100DB0000F0022000021060028001FF0E5FD0021A1
:100DC00008AA0120089109910A950B9401970291B4
:100DD0001AF02CFF0390002804D1B7220E490F48C7
:100DE00018F02AFF01A93000FFF734FF0121039812
:100DF00049421AF031FFBD22002805D103981AF0AC
:100E000087FF002804D0C0220549064818F0E8FCF6
:100E100002980DB0F0BDC046F76E0810C66F0810FE
:100E20006B710810AE71081070B50C1E04D1C92288
:100E30001F49204818F0D4FC01001F48FFF760FE4E
:100E4000051E03D1CB221A491C48F3E7026818217A
:100E5000200000F075F9002804D1CE221849194865
:100E600018F0EAFEAB7D012B11D180231B06236114
:100E70002B686069002B02D100F0BAFD70BD1AF03A
:100E800011FF0028FAD0D82209490F48D2E72800DC
:100E900004221530032100F009F902232B75EC60C0
:100EA0000FCC00F0E9F829006868FFF799FEE5E744
:100EB0006B710810FE6F0810F401020873760810B9
:100EC000036F0810356F0810AE710810F0B51024CC
:100ED00091B00F00160000212200050002A8019326
:100EE0001FF052FD002102AB0893019B06AA0C9350
:100EF000169B01200691079109940A970B960D9372
:100F00000E911AF093FE0F90002805D1832210490C
:100F10005200104818F090FE0AA92800FFF784FF3D
:100F200001210F9849421AF097FE002805D0862229
:100F300052000949094818F053FC0F981AF0E8FECE
:100F4000002802D01022FF32F3E70E9811B0F0BD56
:100F5000126F0810C66F08106B710810AE71081080
:100F600070B50D1E05D18C2214491548520018F099
:100F700037FC01001348FFF7C3FD041E04D11C22F7
:100F80000E49FF321048F2E702680821280000F0FD
:100F9000D7F8002805D18F220C4952000C4818F0D0
:100FA0004BFE20000321153000F098F80323E56084
:100FB000237521006068FFF713FE70BD6B71081088
:100FC000FE6F0810F4010208737608101B6F0810FA
:100FD000986F081070B504008AB0002832D0102530
:100FE00002AE2A00002130001FF0CEFC002106AA2C
:100FF0000120069107910896099500941AF016FEB3
:101000000190002805D1A1220F4952000F4818F085
:1010100013FE69462000FFF7A3FF01210198494212
:101020001AF01AFE002805D0A422520008490948E7
:1010300018F0D6FB01981AF06BFE002802D04C2263
:10104000FF32F3E70AB070BD2B6F0810626F081013
:101050006B710810AE71081010B5FFF7A1FD041EEA
:1010600001D1002010BD00F049F8002802D1237DF5
:10107000002BF6D0E068F5E71FB5002801D1002964
:1010800006D1002A01D1002B02D1CC18042C08D99A
:10109000029301920091030026220249024818F0AF
:1010A000CBFD1FBDF6710810FA72081030B50F2481
:1010B00085B06C440D002170210018F06BFC0028F5
:1010C00006D123782F2200950249034818F0B4FD79
:1010D00005B030BD057208102F72081007B50378EF
:1010E000DBB2994205D0009138220249024818F03B
:1010F000A3FD07BD1A7208102F72081070B51BF0FF
:10110000B5FA002808D000220A4B5C681B68A2428E
:1011100007D10021080070BD5E220749074818F07A
:101120005FFB190024331D00203D2D68A842F1D03B
:101130000132ECE7EC0102089B7208107B72081088
:1011400010B5031E1ED0012300291BD009184C1E08
:101150000023A04216D89A4216D1144A904211D9BF
:10116000134B984203D8134A012391420AD9F02322
:10117000114A1B06C0180023904203D80F4A8A4226
:101180005B41DBB2180010BD094A9042FAD90C4B02
:10119000984203D80B4A01239142F3D90A4B0B4AD8
:1011A000C01800239042EDD8094AE8E7FFFFFF0787
:1011B000FFFF010800000208FFFF05000000061005
:1011C000FFCF020800D0020800FCF9EFFFFF030088
:1011D00000040A1010B51BF0A3FD0E4A18210A20C6
:1011E00019F030FF0C4CA061002803D10B490C48CA
:1011F00018F022FD0B4A28210A2019F023FFE06194
:10120000002802D105490848F2E72000FFF788FAD4
:10121000606010BDD4010208EC0102084E73081092
:101220005B730810BC0102088773081010B5024BED
:10123000186800F0FDFCFAE70C020208F7B50C0094
:101240000100184817000193FFF75AFC06000068D8
:1012500005211530FFF742FF032C05D9342212492E
:10126000FF32124818F0E8FC731DDB7F00259C421A
:1012700015D2E4003619B568019B9D4200D91D00C6
:10128000002D0CD0002F04D02A00716838001FF008
:10129000E9FA73685B197360B3685B1BB36028007D
:1012A000FEBDC046FC01020828740810CA78081068
:1012B00073B506000D00FFF721FF002804D1D322EB
:1012C0001449154818F08CFA082483681C43731CD1
:1012D00009D03300A34307D000943300DB220F4929
:1012E0000F4818F0A9FC2600EA17022130001BF075
:1012F0002BFA0440A04209D080231B069D4201D056
:10130000831C05D0E72203490648DBE7831C00D194
:10131000002076BD5A7708109D77081017740810C2
:10132000BB770810F5770810F0B593B0040003916F
:10133000FFF7E4FE061E04D1EF22A449A44818F0EA
:101340004FFA020030210398FFF7FAFE002804D17B
:10135000F222A049A04818F06FFC30220021039827
:101360001FF012FBB268002C04D0651E254001D18D
:10137000224206D100922300FE229649974818F097
:101380005BFC1BF0D1F920420AD02B00326993425A
:101390000BD1842223008F499148520018F04CFC55
:1013A00004228C49FF328F48D5E7F1685D014D1961
:1013B00069688C4201D00133E9E7002DE9D00121B1
:1013C000AB684942D8691AF0EDFA002803D0B3227D
:1013D0007E498548B3E7AC69002C03D1B922834923
:1013E0008348B8E72369AB612061002B10D1EB6122
:1013F00068681BF083F9002803DAC52273497D4829
:101400009DE76B68034203D1C62270497A4896E78C
:10141000AB68D8691AF0DCFACB220028D8D12000BA
:10142000237D1530022B09D0032B21D00221012B63
:101430001FD09222674952007048AFE7052204216D
:10144000FFF734FE2822002108A81FF09DFA002291
:10145000237D0692022B00D080E022681821E068EC
:10146000FFF76EFE002807D15B226549654872E7E9
:101470001900FFF733FEE5E7E3685F681D689A68C7
:10148000DB683900280004930592FFF7F5FDFBB2F5
:101490000693002F2AD1049B002B5FD0049B226867
:1014A000D9000598FFF74CFE00284DD0FF0012AB85
:1014B000DF193D000027059E243D73689C46002BE4
:1014C00046D02B00320003CA03C3039ABB00D318D3
:1014D000624661461A6228682268FFF731FE0028DA
:1014E00036D13B0094224649474857E7F900226825
:1014F0002800FFF725FE0026002807D16B2240496F
:10150000424828E701360835B742C4D06B689C468C
:10151000002BF7D0280008AAF300D31807931A1D50
:101520000AC80AC263460398B20082181361079B77
:10153000226861465868FFF703FE0028E2D13300B5
:101540007C222F49324829E783222D49314802E77E
:10155000049B013708360835BB42AED101252E4B1E
:101560006D422900D86919F083FD011E03D19D2227
:1015700023492A48EFE60D2306AA9B186A46127EE5
:101580000894DA77020008ABC1CBC1C2C1CBC1C29B
:10159000C1CBC1C21B68224813600022FFF716FAB4
:1015A000237D039A13601300A2685860DA602368F1
:1015B000002B04D1039B9D60002013B0F0BD1B687D
:1015C0000493049A039B9A60F6E7C0465A77081082
:1015D0009D77081020740810527408106E7408105B
:1015E000D6740810BA740810AE710810F973081098
:1015F00025750810C0710810DC71081045750810B9
:10160000E573081077750810FF7508109C750810B1
:10161000BB750810DF750810EC010208247608106D
:10162000FC010208F8B5140006000F001D00FFF7CA
:1016300065FD021E05D14F32FF320B490B4818F0F1
:10164000CFF829002000FFF77BFD002805D15222AA
:101650000749FF32074818F0EFFA2B003900300035
:101660002200FFF7EBFDF8BD5A7708109D770810B0
:10167000357408104D760810F7B507000C001600F9
:101680001D1E41D0FFF73AFD021E05D164221F49FD
:10169000FF321F4818F0A4F829003000FFF750FD72
:1016A000002805D1B3221B491B48520018F0C4FA88
:1016B00039001A48FFF724FA0700006805211530A1
:1016C000FFF70CFD7B1DD97F0C19032C04D9702268
:1016D0001049FF321248E9E7E4003C19A3689D4233
:1016E00007D9BA22009352002B000A490D4818F07E
:1016F000A3FA2A00310060681FF0B4F863685B1930
:101700006360A3685D1BA560F7BDC0465A770810EB
:101710009D7708103E7408104D760810FC010208F1
:10172000707808108B780810F7B507000D000100DD
:101730005248FFF7E5F904680600002C05D1C122E4
:101740004F495048520018F04BF8E368002B04D181
:1017500084224B49FF324C48F5E739004748FFF7F0
:1017600083F92822002130001FF00EF9474F310085
:10177000F86919F09DFC8E22061E00D07CE0200046
:10178000236815300193237D022B37D0032B4ED0D5
:10179000012B67D13E4B002D08D09D4206D0CB22B5
:1017A0002B003C493C48520018F046FAE668B26803
:1017B00000929D421AD10221FFF790FC71683748D0
:1017C000FFF752F91822002120001FF0DDF8210058
:1017D000B86919F06DFCAA2200284DD17560019BF3
:1017E0000098002B43D100F003F9F7BD032202213A
:1017F000FFF75CFC0023E3602375F0E7284BEB1850
:101800007E2B05D8B8222B00FF3222492548CBE792
:1018100003220521FFF74AFC80231B069D4201D1CC
:101820000123A375E3681D615B690093E2E7E56846
:1018300019006A6800920122FFF738FC29681748EE
:10184000FFF712F93100182220001FF09DF8210047
:10185000B86919F02DFC0028C1D0EC2252000849CB
:10186000114870E7F0220B49520010489CE71AF02B
:1018700019FA0028B9D0EE22FF32F0E7FC01020885
:101880005A7708106C7608108A760810EC01020866
:101890000100008048740810B1760810F4010208B5
:1018A000FFFFFF7FEC760810AE7108102477081058
:1018B00010B50C0001000348FFF722F903689C6093
:1018C00010BDC046FC0102080C4B10B51B685869DE
:1018D0001AF0E8F9002802D04422C31C09D1084BB1
:1018E0001B6818691AF0DEF9002806D0C31C04D062
:1018F00047220449044817F073FF10BD1002020884
:101900000C0202086E790810CC79081010B51BF093
:101910007DFA10BD10B51BF079FA10BDF0B5264B5D
:1019200095B0264C264D3C22002105A80293039435
:1019300004951FF029F8234B3C2205A920000593AC
:101940001EF090FF3C2205A928001EF08BFF0C2200
:1019500002A91D481EF086FF1C481AF00DF8061E4D
:1019600004D19F221A491B4817F03AFF1A4A002156
:1019700001201AF05BF9071E03D1A222144917486F
:10198000F2E7174A002101201AF050F901900028CF
:1019900003D1A5220E491348E6E713483B00320065
:1019A0002900006800F072F8104B019A21001868B5
:1019B00000F0AAF815B0F0BD779A333D0CD00208BC
:1019C00048D002080C4A286300D002080C7908109D
:1019D0006E7908102C790810F478081040790810F6
:1019E0001C79081057790810100202080C0202082E
:1019F0001FB504000C22002101A81EF0C5FF002124
:101A0000034822000B000068029400F0B1F81FBDEB
:101A10001002020830B585B0019001380C00029127
:101A200015000392032824D822F01AFE02070B0F98
:101A30001000FFF70FF905B030BD1000FFF7F4F903
:101A4000F9E71000FFF78CFAF5E7002208212000E3
:101A5000FFF776FB002804D16C220849084818F0EB
:101A6000EBF82800FFF7F8FA20606068FFF7C0FF86
:101A7000E1E775220349044817F0B2FEE478081044
:101A8000777508106E7908100479081070B5002871
:101A900004D124221449154817F0A2FE002903D1CD
:101AA000252211491248F7E7124C0D68A54203D0D0
:101AB00026220D491048EFE7002A03D127320A49B0
:101AC0000E48E9E7002B03D1282207490C48E3E739
:101AD0000C4C026104600C1D44600C3104348460C1
:101AE000C160436170BDC046187A0810627A081060
:101AF000707A08100C4A2863877A08103279081027
:101B000040790810FFD948A210B5002804D1372227
:101B10001049114817F064FE002903D138220D49FD
:101B20000E48F7E70E4B0C689C4203D03922094956
:101B30000C48EFE7002A03D13A3206490A48E9E7A0
:101B40000A4B026103600B1D43600C310433836058
:101B5000C16010BD187A0810627A0810707A0810F7
:101B60000C4A2863877A08105D79081042658BA6B5
:101B7000F0B585B001AD041E01916A60AB6004D17F
:101B800047222549254817F02BFE254B02689A422B
:101B900003D0482220492348F5E701210069494242
:101BA00019F000FF4B22002825D1FA2703267F00D9
:101BB000A26861681368086801338C463340834229
:101BC0001CD00C2310684343E068C31883CD83C343
:101BD000136801333340136063461B681268013396
:101BE0003340934201D1FFF791FE206919F0F0FED6
:101BF00000280FD05D2208490B48C4E7390060690E
:101C00001AF02AF8022302309843D1D05022024918
:101C10000648B8E705B0F0BD187A0810627A0810D7
:101C2000FFD948A2DE7A0810AE710810077B0810B1
:101C3000F0B5050085B0002804D163221D491E4877
:101C400017F0CEFD1D4B02689A4203D06422194959
:101C50001B48F5E7FA210069490019F0FDFF02234E
:101C6000023098431DD0682212491648E8E70C213B
:101C70001368E8684B4301ACC3182000C2CBC2C054
:101C80000321136801330B40136063461B6812681D
:101C900002330B40934201D1FFF73CFE07CCFFF724
:101CA000B9FEAB686A689C4610681B689842DED132
:101CB00005B0F0BD187A0810627A081042658BA64C
:101CC000B57A0810077B0810F0B5214B85B01B686A
:101CD00003900E0001920020012B08D01D4D1E4ADA
:101CE0006B7829781B020B43934202D0012005B088
:101CF000F0BD019A032AF9D933800423E978AA7840
:101D00000902114302912C1D7380F718029BEB18F6
:101D10009C4216D22388039A1B0B93420ED16288F1
:101D2000738801999B189942E0D3380021001EF076
:101D300099FD63887288FF189B1873806388002B55
:101D400004D10122024B00201A60D0E7E418DDE73D
:101D5000F01C0208787B081016200000F0B51E2544
:101D600089B0059300230F9F6D4404920E9E2B8033
:101D700006243F2F1BD92A001121012001F00EFC5F
:101D80000534002813D1109B28880433029301974F
:101D90000096059B049A094901F096FB002809D09A
:101DA000288801F02FFC0A3C288801F02BFC200039
:101DB00009B0F0BD109B04001E60F5E70900071094
:101DC000F0B50F26A7B01F002D9B182201932E9B64
:101DD000002100932F9B08A802932C9D1EF0D4FD98
:101DE000602200210EA81EF0CFFD04ABF6183300D0
:101DF00008AA60210EA800F06FF8041E02D0072088
:101E000027B0F0BD0A990029F9D00C9B0393002B51
:101E1000F5D033780B9A3B60019B9A42EFD82800AB
:101E20001EF020FD0D9A029B9A42E8D80C9900986A
:101E30000B9E1EF017FD309A0D9B60C20099319ADF
:101E400020000AC2DCE7000070B5051D04000E008A
:101E50000422002128001EF097FD094B9E4207D066
:101E60000849280001F0CCFA002803D1206070BD99
:101E70000549F6E78630431E98410330F7E7C04630
:101E8000C0E6FEFF020000010900000113B503686F
:101E9000040000910192002B05D1002903D00430E9
:101EA00001F0CEFA206013BD37B51C000368009125
:101EB0000192002B0DD1231D04300D0001F0DAFA40
:101EC000002803D10300256018003EBD05238A3099
:101ED000FAD00423F8E70000F0B589B0009300239E
:101EE000160004AA971C02903A00112101200793C2
:101EF0003B8001F053FB0123002822D1388806AA39
:101F000005A901F007FC002801D0388816E0059BE0
:101F10004B4A1900039211404A4A9142F5D14A4A6C
:101F2000069C1340494A93420ED1E4081034200025
:101F30001EF054F905003888002D12D101F062FB23
:101F40000123180009B0F0BD414A934204D1032394
:101F5000E4085C434A34EAE70734E40864000134E7
:101F6000E5E707AB2200290001F00AFC002803D0B6
:101F700028001EF03DF9C8E70598039B314A03404D
:101F800093424FD180B2173807284BD822F068FB14
:101F90000442444A4A4A46480123009A1370079B68
:101FA000581E400824F0F2FB1DF008FD22F0A0FDB1
:101FB000079B0400581E400824F0E8FB1DF0FEFCBF
:101FC00000900191002C33D000236F1CEA18527846
:101FD0000299CA5401339C42F8D10B19B160F460E4
:101FE00002930098019922F083FD002824D0002359
:101FF0003C19E25C0299CA5401338342F9D1316140
:10200000736128001EF0F4F804AB588801F0FAFA66
:10201000002396E70223C0E70323BEE70423BCE7BF
:102020000523BAE728001EF0E3F804AB588885E7DB
:10203000B460F4602F00D4E730617061E1E7C0461E
:102040000000FFEF00000360FFFFFFEF00000160F2
:1020500000000260024B1B68036000207047C0460E
:10206000F41E020803207047F0B589B002AB0124CA
:102070009D1D0023070001910C702A0011212000F2
:102080002B800693079301F089FA00284BD128880A
:1020900005AA04A901F03EFB002840D1049B264A72
:1020A00026491A408A423AD1254A059C1340254ABE
:1020B000934227D1E408103420001EF08FF8061E4A
:1020C0002DD0288806AB2200310001F059FB0028F2
:1020D0002FD11D4907A801F093F9002829D1069AAC
:1020E000310007A801F0ACF901993B000131202231
:1020F00007A801F0BFF90400601E844130001EF003
:1021000077F80DE0114A934204D10323E4085C43BD
:102110004A34D1E70734E40864000134CCE70124F1
:10212000288801F06FFA20003B6801333B6009B05A
:10213000F0BD0124E2E7C0460000FFEF00000360AD
:10214000FFFFFFEF000001600900000100000260D6
:10215000032070470B0010B50268034918001EF0F9
:1021600081FB002010BDC046577B081010B502F05F
:1021700059FDC02203009201904209D00AD8802262
:102180005201904204D080229201934200D0002359
:10219000180010BDA0220300D2019042F8D0C02246
:1021A000D2019042F4D08022D201EEE70C230360EA
:1021B000004870474A7B08100D23036000487047B1
:1021C0003C7B08104842484180007047F0B50E251E
:1021D0008BB0039302ABED180290002301200F0097
:1021E000160011212A0028800893099301F0A4F910
:1021F000041E3FD1364A374908A801F02BFA288837
:1022000008A901F029FA041E34D1334A330C1B0407
:10221000934259D1029B002B2FD0202F25D1288803
:102220003B00029A310001F045FA041E1FD12888B4
:1022300006AA07A901F06EFA041E18D1C022802157
:10224000079BD2051A40C9058A421FD1069BDE1D95
:10225000F6082888119B109A039901F091FA041E40
:1022600005D1119B1B689E4201D2872464422888B5
:1022700001F0C8F920000BB0F0BD802228882300AF
:1022800000945200310001F081FACEE7134A14495C
:102290001A408A4203D1069BDE081036D9E711495D
:1022A0008A4205D10326069BDB085E434A36D0E707
:1022B0000D4A060013400D4A9342CAD1069BDE1D0B
:1022C000F60876000136C4E787246442D2E7C046A8
:1022D00009000710010C000000000370FFFFFFEF72
:1022E00000000160000002600000FFEF00000360DA
:1022F000F7B51600020005001F00089B98320C007D
:102300001160566006CB00F06FFF2800E10FA0308F
:10231000009533003A0000F027FB041E04D0033C74
:1023200060424441E01CFEBD0221280000F0AAFFEB
:102330002800052100F0A6FF2000F4E77047D0B583
:1023400016001F000400CB170A0000F062FF3200E5
:102350003B00200000F05DFFD0BD73B5050016689E
:102360005468CB170A0000F054FF32002800230005
:10237000022100F062FF73BD73B505001668546852
:10238000CB170A0000F045FF32002800230003218C
:1023900000F053FF73BD7FB5060000220D0005213C
:1023A00000F091FF6A460221300000F08CFF3000FF
:1023B0000099A030019A00F0E5FB002805D0033811
:1023C00043425841033004B070BD02AC21003000DC
:1023D00000F0C6FF03000128F5D00220002BF2D147
:1023E00006CC06C51800EEE7242802D003D8202822
:1023F00005D1002004E03028FBD04028F9D004208B
:10240000704710B51EF02EFA10BD0000F0B51D4C3F
:1024100087B003921D0022881B4B019002919A42C3
:102420002CD163882968E31800930434002907D06D
:1024300005AC20000422FFF7E4FF64882B681C1918
:102440003F27009B9C4201D3002013E005AE0422ED
:1024500021003000FFF7D5FF338801989A113A40E8
:102460007188824208D101201F40029B1F70039B8C
:102470002C60198007B0F0BD6418E2E701204042EB
:10248000F8E7C046F41C0208162000000023F7B548
:1024900006000F00150013606B46DC1D3A002B0090
:1024A00021000020FFF7B2FF012802D12378B342B8
:1024B000F2D1FEBD37B51400022907D004290ED091
:1024C000012912D10378236000203EBD6B469D1D7B
:1024D0000A0001002800FFF794FF2B88F3E70A00A9
:1024E00001002000FFF78DFFEEE701204042ECE7FE
:1024F00037B513000400092927D8080022F0B0F8E6
:102500001012142325252525050B02212000FFF795
:1025100024FF00203EBD06212000FFF72DFFF8E735
:102520000421F9E70521F1E701AA03CBFFF7C2FF78
:1025300005000520002DEDD1019A2B00032120007C
:10254000FFF7FDFEE5E70121E6E70520E2E70000F1
:10255000F0B54368CFB0060007920024242B03D1C6
:1025600003681C6A2023436007220723009122404E
:102570005B4221001CA8FFF7BBFE002806D0022406
:10258000012800D0033420004FB0F0BD3200BF4915
:102590001CA8FFF7E2FE8023DB051C4000D02BE1E6
:1025A0000822210011A80FAE1EF0EEF910AA31008A
:1025B00020001094FFF76AFF012800D026E1109B4D
:1025C000043311933388043B11AAB1491CA8129318
:1025D000FFF7C3FE11A8FFF7E9FD13AE1390002823
:1025E00006D0119B3200AB491CA87360FFF7C4FEF4
:1025F00011A8FFF7E1FD1390002806D0119B3200CF
:10260000A5491CA87360FFF7B7FE2123310010A86D
:102610001093FFF729FD0324071EB4D1109B11AAC4
:102620009E491CA812931196FFF797FE12233900BA
:10263000082211A80F931EF0A7F910970EAF10AA49
:1026400039000120FFF722FF012800D0EAE0109BAB
:10265000043311933B88043B11AA91491CA812939F
:10266000FFF78AFE202313AE10AF3100380010931D
:10267000FFF770FD0324002800D084E7109B11AA07
:1026800088491CA812931196FFF767FE3000FFF7E8
:10269000E1FC041E00D076E7139B139A82491CA824
:1026A000DB17FFF74CFE3200390002201394FFF7CE
:1026B000EDFE012800D0BFE03988139B0439181DB6
:1026C00011AAFFF7F7FE002800D0DBE006AB9A8DD9
:1026D000C023DB019A4200D9D4E0002373491CA82F
:1026E000FFF72DFE012300250393002312220C93F4
:1026F0006B4606A952180F211B7B06A804930918E4
:102700000CAB0498FFF782FE431C00D1BCE001280B
:1027100065D10135012D0CD11CA8FFF70FFE012357
:10272000634A5B42059000F074FD0421059800F0B7
:10273000A9FD0C9B0DAE1900042230000E93FFF78B
:1027400060FE3F2273880BAC238033880AAF1340AE
:102750001CA83B70FFF7F2FD05210690002600F053
:1027600091FD3978CB087BD0002E29D10E9B0FAE7E
:102770001900042230001093FFF743FE16237288DD
:1027800006A95B181A803F2233881CA813402E3AF2
:1027900052181370FFF7D2FD112306AA9B1819785F
:1027A000CB084DD1162206A95218112106A80918E6
:1027B00010AB0498FFF72AFE01300128ECD801265F
:1027C00022000EAB39000498FFF720FE0200431CE4
:1027D00005D00028C5D10521069800F074FD039BA3
:1027E00001330393072B00D07FE7002D43D0002255
:1027F0000421059800F067FD07991CA8FFF7CBFDA1
:102800000024A04200D1BEE60234B9E613AE310086
:102810002020FFF727FC0324002800D0B3E6119600
:102820002023D1E631000FA8FFF792FC002800D04A
:10283000A9E611960F9B0FE7FFF798FC020047E708
:10284000109B06AA0433139316239B181B8813AA04
:10285000043B1CA81493FFF74BFE0028A2D0AEE760
:102860000E9B11AA0433119323881CA8043B1293D6
:10287000FFF73EFEA4E7012200230E491CA8FFF744
:102880005EFDB9E705247EE603247CE600DBFEFF5F
:1028900004DBFEFFFEDAFEFF08DBFEFFFFDAFEFFD1
:1028A00003DBFEFF05DBFEFF07DBFEFF06DBFEFFB3
:1028B00002DBFEFF01DBFEFF802210B59200024921
:1028C0000120FFF701FA10BDF41C020870B513686F
:1028D00086B0456806680293536828001400009685
:1028E00001950393FFF780FD002818D101222900EC
:1028F0003000FFF767FC002811D1022203990298EB
:10290000FFF760FC00280AD104AA02A96846FFF775
:102910001FFE002803D1049B2360059B636006B063
:1029200070BD0000002110B5036886B01B681468F4
:102930000091029152680B49019303910420032AEC
:102940000DD91800FFF750FD002808D104AA02A9EC
:102950006846FFF7FDFD002801D1059B236006B006
:1029600010BDC046FFFFFF7FF0B5834C0500A544B6
:1029700010001F000E00079200F064F97F4B012445
:10298000984266D0079BEF61AB612B19DE778A9B7B
:102990006B62002E62D0202123A80FAA0D900E9109
:1029A00000F0CAF9041E54D1002312228A9800F0C4
:1029B00064FC04218A9800F065FC102229003EA8DE
:1029C0001C921B9500F010FC05213EA800F05AFC5B
:1029D000012200233EA800F01CFC079B079ADB178E
:1029E0003EA800F016FC2BAE05213EA8220000F008
:1029F0006AFC31003EA800F0B3FC002800D0B7E02C
:102A00002B9B2C9A2B616A61002B22D02B00320069
:102A1000103303CB03C2022173682B9A8A9800F00B
:102A20000CFC0F9E109D05218A9800F02BFC0422BF
:102A300000238A9800F0EDFB320002218A982B00D7
:102A40003E963F9500F0F9FB002205218A9800F0A0
:102A50003AFC200085239B009D44F0BD23A90D91E5
:102A600020212BAB1BAA09930B924B2320220E9102
:102A700017A905910FA90A930C9204911196129629
:102A80000DAA02A911CA11C16A460BAB03CB03C23E
:102A900008AB310032003800FFF792F9041ED8D19C
:102AA0000A9A09993EA800F09FFB05213EA800F074
:102AB000E9FB012200233EA800F0ABFB0222002329
:102AC0003EA800F0A6FB089E01225242D317F7173A
:102AD0003EA800F09EFB32003B003EA800F099FBB0
:102AE0000F9E109F02225242D3173EA800F091FB86
:102AF0003B00320002213EA81396149700F09DFB84
:102B0000179E189F03225242D3173EA800F081FB64
:102B10003B00320002213EA81596169700F08DFB6F
:102B2000220005213EA800F0CEFB19A93EA800F026
:102B300017FC0234002800D08BE7199B104917932B
:102B40001A9B3EA8189323AB199320231A93FFF7DF
:102B50007BF9041E00D07CE71799189A3EA8FFF76E
:102B600095F90FAB19991A9A3EA8FFF79DF919E745
:102B70002200230046E7C046ECFDFFFFFFFFFF7F7A
:102B8000C0E6FEFFF0B5ABB007921AAA0C92402542
:102B90002022040006910CAE12A90F9275600E91CE
:102BA00006AB02A8944684CB84C023006846103349
:102BB00084CB84C008AB6246A06900F04DF8049055
:102BC00000282AD1631CDB7F002B2BD0099E089B99
:102BD000370005933200AE4200D92A001AABB81B69
:102BE000181805991DF03EFEAD1BBB193F2F17D9D4
:102BF0001AAB0A9340230B93656A08220AA910A80E
:102C00001DF030FE109A02212800119B00F015FBE8
:102C100000220421606A00F056FB04982BB0F0BD3E
:102C20001F00D7E70AAB02936B4606CE06C3089A8D
:102C3000099BE169A069FFF791F80028DCD00490B6
:102C4000EBE70000C31D01D0014870470148FCE7D5
:102C5000FFFFFF7FC0E6FEFFF0B5354C0700A5443F
:102C60000091019213A921221CA81D0000F0BCFABA
:102C700004211CA800F006FB2E4C8EAE20001EF096
:102C8000A5F922000024030003211CA800F0D5FAB6
:102C90000FAB06CE06C31CA80F9A8F9B022100F033
:102CA000CCFA2200230002211CA800F0C6FA220060
:102CB000230002211CA800F0C0FA230022000221F8
:102CC0001CA800F0BAFA220004211CA800F0FBFAAC
:102CD00005A91CA800F044FB03001420A3421ED148
:102CE0003800FFF7AFFF010042A8FFF7ADF8A042A0
:102CF00015D106998A1E914215D20790089007991E
:102D0000089A42A8FFF7C2F89099726842A8FFF7A4
:102D1000BDF82B000099019A42A8FFF7C5F8892356
:102D20009B009D44F0BD059B08920793E7E7C046D2
:102D3000DCFDFFFF447C081070B5202492B00AAE81
:102D40000290039115000E49220030001DF08AFD0B
:102D50006A460994089608AB03CB03C204AC039AF5
:102D600002992000002300F07BF9230006CB06C562
:102D7000236807205A4253415B42184012B070BD8D
:102D8000247C0810F0B597B0802170200906FEF76A
:102D90008FFA1023070018424BD0302200210AA8D6
:102DA0001DF0F2FD0AA91020FEF7BEFA041E40D164
:102DB0000A9B022B05D0032B01D0012B62D10024EA
:102DC00033E00E9901201CF08FFE051E1AD00E9BD9
:102DD000020021000B98FEF725FC0E9B03939842FE
:102DE00007D028001DF004FA43227D497D4816F0E3
:102DF00023FF129901201CF077FE061E04D1280043
:102E00001DF0F6F9052410E00E9B06950793129B22
:102E1000089003930993FFF74FFD041E20D028006C
:102E20001DF0E6F930001DF0E3F921000B98FEF7E4
:102E30007BFC2024274257D0302200210AA81DF015
:102E4000A3FD0AA92000FEF76FFA011E4CD10A9BD0
:102E5000022B1CD0032B01D0012B5ED100243FE0BC
:102E6000614B0C9A06A81A60012308AA1900FFF703
:102E70002DFD041ED3D10100099B089A0B98FEF783
:102E8000FBFBCCE763225649584816F0D5FE04AC4C
:102E90000E9B22000B98FEF7C5FB0E9B03939842F6
:102EA00002D080225249A1E705AB0893129B0694F9
:102EB000079003930993FFF7FFFC041E10D14A4BC0
:102EC0000C9A06A81A60012308AA1900FFF72AFD28
:102ED000041E05D10100099B089A0B98FEF7CCFB54
:102EE00021000B98FEF720FC4024274200D14BE73D
:102EF000302200210AA81DF047FD0AA92000FEF794
:102F000013FA011E00D03FE70A9B022B08D0032BC7
:102F100001D0012B61D100255AE095223449B3E755
:102F20000E9B06909125042B1CD108AA0B98FEF746
:102F300079FB0E9B0393984202D0B8222D4955E7A6
:102F4000129901201CF0D0FD061E0AD00F9900290D
:102F50001CD001201CF0C8FD041E05D130001DF05E
:102F600047F98D256D4233E00F9B020001210B983C
:102F7000FEF758FB0F9B0393984208D030001DF0DA
:102F800037F920001DF034F9CD22D7E70C00129B51
:102F900006AF0393009301973300089A0F9920001E
:102FA000FFF714F9051E05D10100069B32000B98AE
:102FB000FEF762FB0B9804233A000121FEF75CFB4D
:102FC00030001DF015F9002C02D020001DF010F982
:102FD00029000B98FEF7A8FBD6E6E622054953E741
:102FE0004F7C0810947C0810F41E0208B47C081072
:102FF000647C08107E7C081010B5041E04D1762273
:103000000F49104816F018FE0F4818F0B5FCE061A3
:10301000002810D00D4B0E4A9C629C649C60E360BB
:1030200000210C4819F00CFB6060002807D18522B4
:1030300003490948E6E77B2201490848E2E710BD59
:10304000D77C08103D6A0810887D08101402020819
:1030500074020208852D0610447D0810047D0810B6
:10306000F7B5050000911C00934203D8099ED21ABF
:10307000B24204D200232B606B602800FEBD009F8B
:103080003200F8180899A4191DF0ECFB2F606C6051
:10309000F3E7000082B00192054A6B46828100226C
:1030A00000918260827306CB06C002B07047C046B2
:1030B0000F0B000073B5009101921E00837B04008A
:1030C000002B05D1124B82899A4202D00123A373AF
:1030D00073BD826843689A42F8D8019D9B1AAB423F
:1030E000F4D3B242F2D3921B06D00168002903D078
:1030F000891948191DF0F8FB2068002804D08019B0
:103100002A0000991DF0F0FBA3685D19A560DFE7B8
:103110000F0B00008B7B10B5002B03D00023036046
:10312000436010BD054A8C89944202D001228A7303
:10313000F5E78B6843600B680360F2E70F0B000054
:10314000F0B515258BB0119E04AB02900391109C35
:10315000ED18002E19D1172C17D8E3B22900002A38
:1031600007D033002700374312D1002A10DC173371
:10317000DBB2039A013952019B180B706A1A129B39
:103180000298FFF797FF0BB0F0BD00232900E9E795
:10319000084FFF5CC81B01900198814203D10133A5
:1031A000D21BDBB2DEE7013930060C70240A04437F
:1031B000360AF1E7B47D08101FB5846800920193C8
:1031C00002940022FFF7BCFF1FBD00008388054A60
:1031D0000321D21A012A02DD002101338380080075
:1031E0007047C046FEFF000013B504000091019235
:1031F000002198221DF0C8FB019A00992000FFF7DA
:1032000049FF22002300143294331A600423A3766A
:1032100013BD10B5017C040000290DD1002B02DA8A
:10322000D243DB4301312000FFF7C6FF2300943374
:103230001868FFF7CBFF207410BD30B585B0009241
:103240000193037C04006D46002B14D1092902D0A0
:10325000019AFFF7B1FF2A0002AB03CA03C32000A3
:10326000A36802996A68FFF725FF23009433186862
:10327000FFF7ACFF207405B030BD10B50621FFF795
:103280009BFF10BDF8B505009435040028680E00BA
:10329000FFF79CFF2074002805D1A7683B00663328
:1032A00002D907232374F8BD22002B688C32022137
:1032B000934206D01A00010008322A6098819F606C
:1032C0009E732174EFE7F0B5037C89B004000D0014
:1032D0001700002B08D10600020094363368143220
:1032E000934203D10423237409B0F0BD9A798A4232
:1032F00001D01023F7E71A68049282680592022928
:1033000024D11300049A981A049B0090029300237E
:10331000290001931A002000FFF712FF002F11D09F
:10332000210006A8FFF7F6FE049B059A06999A1A53
:10333000A368D218079B9A420FD89B1A002900D085
:1033400089180AC73368083B3360CDE7033998888A
:1033500089B221F099F980B2D6E700231900F0E78D
:1033600073B5057C0E00002D0FD1030094331A684D
:10337000803B9A420BD1837B002B0AD16C46010023
:103380006846FFF7C7FE0CCC0CC6280076BD0A25A0
:10339000FBE70125F9E70000F0B5102591B008AC76
:1033A00007000391049205932A0016AB0021200028
:1033B0001E781DF0E9FA039B01210C93049B0F4832
:1033C0000D93059B27800E9304232673069407957F
:1033D0000F93FDF7E9FC041E0DDD0223012200938B
:1033E00006A90CABFDF772FD05002000FDF7F2FD0C
:1033F000280011B0F0BD91256D42F9E7060F0000DD
:1034000030B50E22002487B002AB5C801A700493A2
:10341000082305000391094801210593FDF7C4FC29
:103420002860A04207DD00942300012204A9FDF7D3
:103430004DFD07B030BD91204042FAE7020F000079
:1034400030B500230F2589B002AC63802570049449
:10345000082400680393059406910792984206DDBC
:103460000093022204A9FDF731FD09B030BD892087
:103470004042FAE770B5002510268EB00400039292
:10348000100004AA5580167006920822079203AA1B
:10349000089204220B902068059509920A910C93DA
:1034A0000D92A8420DDD023A00920AAB06A9FDF783
:1034B0000DFD06002068FDF78DFD256030000EB083
:1034C00070BD89267642F9E7F0B5102591B004ACBD
:1034D00007000E00029200212A00200003931DF035
:1034E00053FA24232370029B01210A93039B114862
:1034F0000B93169B67800C93179B66600D93189B2C
:1035000008940E93042309950F93FDF74DFC041EB8
:103510000CDD02220CAB009208A9FDF7D7FC0500D8
:103520002000FDF757FD280011B0F0BD91256D4238
:10353000F9E7C046030F0000F0B5102615008FB064
:1035400006AC070003913200002120001DF01CFA98
:103550002B88049523800225042303AA01210E4809
:10356000676023730A940B960C920D930595FDF7F3
:103570001BFC041E0DDD01232A0000930AA904ABE5
:10358000FDF7A4FC05002000FDF724FD28000FB086
:10359000F0BD91256D42F9E7060F0000F0B5102649
:1035A00015008FB006AC0700039132000021200007
:1035B0001DF0EAF92B88049523800523237303ABC0
:1035C0000C930225042301210D4867600A940B9691
:1035D0000D930595FDF7E8FB041E0DDD01232A0080
:1035E00000930AA904ABFDF771FC05002000FDF76C
:1035F000F1FC28000FB0F0BD91256D42F9E7C046FF
:10360000060F000070B5102588B004AC06002A0033
:10361000002120001DF0B8F9062301210C48268066
:10362000237302940395FDF7BFFB041E0CDD0023FA
:103630000122009302A9FDF749FC05002000FDF7D7
:10364000C9FC280008B070BD91256D42F9E7C0465D
:10365000060F000006C07047F0B510268BB002AD13
:103660000C0007003200002128001DF08DF90B230B
:1036700008942B73631E9C410121E4000C480994BB
:103680002F8006950796FDF78FFB041E0CDD0023A7
:103690000222009306A9FDF719FC05002000FDF7A2
:1036A00099FC28000BB0F0BD91256D42F9E7C046AA
:1036B000060F0000F0B510250E008DB004AC070019
:1036C000029200212A00200003931DF05DF9A660FC
:1036D0000226029B01210A93039B0D482780267333
:1036E000089409950B93FDF75FFB041E0CDD002386
:1036F0003200009308A9FDF7E9FB05002000FDF763
:1037000069FC28000DB0F0BD91256D42F9E7C04677
:10371000060F0000F0B510278FB006AE0D001400A4
:1037200003903A00002130001DF02EF96B469B8972
:103730000A95338008230C9433736B1E9D41631EDE
:103740009C41AD00A40001210C480D9404960597FE
:103750000B95FDF729FB041E0DDD022301220093CA
:1037600004A90AABFDF7B2FB05002000FDF732FC0F
:1037700028000FB0F0BD91256D42F9E7060F00005B
:1037800013B50A240094FFF707FE16BDF0B5102606
:103790008FB004AC07000291039200213200200098
:1037A0001D001DF0F1F8029B2780A36029232373DD
:1037B00003AB0A93042308940B930996149B002DE2
:1037C00004D1002B04D08724644214E0002BFAD0EB
:1037D000149B01210A480C950D93FDF7E5FA051E8F
:1037E0000CDD00230322009308A9FDF76FFB040002
:1037F0002800FDF7EFFB20000FB0F0BD9124E3E7B8
:10380000060F0000802210B55200002101481DF073
:10381000BBF810BD583F0208802210B552000021AD
:1038200001481DF0B1F810BD583F0208002370B5E3
:10383000094ADC00A55A002D06D115196E68002E24
:1038400002D16960A05270BD0133202BF1D13B221F
:103850000249034816F0F0F9583F0208B87D0810F5
:103860000E7E0810002210B5084BD100CC5A8442BD
:1038700004D10022CA525B185A6010BD0132202ABE
:10388000F3D128320249034816F0D6F9583F02080E
:10389000E27D0810467E081030B580240023084AD7
:1038A00064009D5A854203D1D5186D688D4204D0BD
:1038B0000833A342F5D1002030BD0120FCE7C0460B
:1038C000583F0208084B5A68904204D01A690121F7
:1038D000904201D0704700210C224A4300219950A8
:1038E0009B1859601972F5E75840020870B598B0F6
:1038F000302200210CA81DF047F880200CA980017F
:10390000FDF712FD051E48D10C9B022B11D0032B95
:1039100000D1E9E0012B00D0F0E0FC2118004900C3
:103920001CF0E2F8011E41D00D98FDF7C1FF2C00FC
:103930002FE009AC01000C2220001DF025F8109B9F
:103940000C2B00D0CCE0220029000D98FDF76AFE78
:10395000109B0593984204D06B4A6C496C4816F052
:103960006BF920782A38052800D9BBE020F078FED2
:10397000031731535796002308A90F98089304F0B2
:1039800049FF041E05D10100042308AA0D98FDF784
:1039900073FE21000D98FDF7C7FE18B070BD149E90
:1039A000012031001CF0A0F8051E01D18D243DE05E
:1039B000010032000F9804F037FF041E05D101000A
:1039C00033002A000D98FDF757FE28001CF010FC6C
:1039D000DFE760880E99FFF75FFF002825D0119B75
:1039E00007AA01210D98FDF71DFE042801D0494AC0
:1039F000B3E7129B08AA02210D98FDF713FE0428D5
:103A000001D0454AA9E760880F9B089A079905F0FD
:103A10007FF80400BDE70F9804F0B2FEF9E7608874
:103A20000E99FFF739FF002802D188246442B0E7DD
:103A3000119901201CF058F8051EB7D0119B020007
:103A400001210D98FDF7EEFD119B0593984201D0E1
:103A5000324A82E7129901201CF046F8061E03D173
:103A600028001CF0C5FBA1E7129B020002210D9863
:103A7000FDF7D8FD129B0593984201D0284A6CE7C8
:103A8000A36861880393119B0290009301960593AC
:103A900062682B000F9805F068F8BAE760880E9905
:103AA000FFF7FAFE0028C0D0119901201CF01CF885
:103AB000051E00D17AE70200119B01210D98FDF748
:103AC000B1FD119A03000592904201D0154A44E7D6
:103AD000626861880F9800922A0005F080F898E7E4
:103AE0009124A3E78624A1E70F9804F049FE0F98DC
:103AF000041E00D14DE71CF07BFB18E70A4A03497E
:103B00000A4816F099F8C046FB050000627F0810CD
:103B1000947C08102C0600003206000051060000BC
:103B20005E0600007E0600009B060000B47C0810C4
:103B3000F0B5A3B08021C5480906FDF7B9FB1022F6
:103B40000890104228D00021203216A81CF01CFF3B
:103B500016A91020FDF7E8FB00281DD1169B022BAB
:103B600005D0032B01D0012B3CD1002410E005F03F
:103B7000A3F9041E0CD1B64A136801331360012B5C
:103B800006D101001822B3481CF0FEFEFFF73AFEF2
:103B900021001798FDF7C8FD2024089B234200D17F
:103BA0007DE03022002116A81CF0EEFE16A92000B0
:103BB000FDF7BAFB051E72D1169B022B17D0032B03
:103BC00000D135E1012B00D03CE1B42118004900BF
:103BD0001BF08AFF011E00D146E11798FDF768FE31
:103BE0002C0058E092229C499C4816F025F80DAC18
:103BF0000100082220001CF0C7FE1A9B082B00D0F1
:103C000010E1220029001798FDF70CFD1A9B09937B
:103C1000984204D0E1229249924800F0B1FE207807
:103C20001538052800D9FFE020F024FD0600160015
:103C30002200A200CD00F80060881899FFF72CFE42
:103C4000002802D18824644225E0618862681998BE
:103C500003F07CFF04001EE060881899FFF71CFE4B
:103C60000028EFD061886268199803F074FFF1E7CB
:103C7000C8231B9D5B0029009D4200D9190001202B
:103C80001BF032FF071E00D1D0E0002D56D12C00D2
:103C900038001CF0ADFA21001798FDF745FD4024CF
:103CA000089B234222D03022002116A81CF06CFE73
:103CB000200016A9FDF738FB041E17D1169B022B16
:103CC00000D1D3E0032B00D1FBE1012B00D003E2B4
:103CD000E02118001BF008FF011E00D1FFE117983A
:103CE000FDF7E6FD21001798FDF71EFD8024089BD7
:103CF0006400234200D15CE23022002116A81CF0AF
:103D000043FE200016A9FDF70FFB041E00D050E271
:103D1000169B022B00D1E4E1032B00D1DDE2012B45
:103D200000D0E4E24C2118001BF0DEFE011E00D1A1
:103D3000E0E21798FDF7BCFD260036E2C8232E000E
:103D40005B009D4200D91E0033003A000121179804
:103D5000FDF768FC864202D0892252005BE7320000
:103D60003900199803F0FCFE041E91D1AD1B8CE7BD
:103D700000241B9B0AAA012117980A94FDF752FC04
:103D80001B9B0993984201D09522E6E70A990120EE
:103D90000B941BF0A9FE051E48D001000BAB0A9A3C
:103DA000199803F00DFF041E0BD101000B9B2A0094
:103DB0001798FDF761FC04230BAA01211798FDF762
:103DC0005BFC280065E700230BAA0B9301211B9BDA
:103DD0001798FDF727FC1B9B0993984203D11C9968
:103DE0000B9B994201D0A322B7E701201BF07CFE78
:103DF000051E1BD01C9B020002211798FDF712FC28
:103E00001C9B0993984202D05222FF3203E70B9A7F
:103E10002900199803F003FF0400D2E7199803F072
:103E20006FFD17E791240EE786240CE78D240AE73F
:103E3000199803F065FD1998041E00D12BE71CF0BA
:103E4000D7F9CDE674220649FF32CDE6F07F0000B7
:103E50007040020858400208807E0810B47C0810A8
:103E6000B47E0810947C0810BC4C14E70DAD010022
:103E7000082228001CF088FD1A9B082B00D01AE1AC
:103E80002A0021001798FDF7CDFB1A9B0993984251
:103E900003D0CD225200B249BEE628780E3806285B
:103EA00000D90AE120F0DCFB040A37689499DE00AF
:103EB0006968199803F034F8040013E7C8231B9DC0
:103EC0005B0029009D4200D9190001201BF00CFE67
:103ED000071E00D1F3E0002D04D12C0038001CF0A7
:103EE00087F9FFE6C8232E005B009D4200D91E0023
:103EF00033003A0001211798FDF794FB864201D068
:103F0000DB22C7E732003900199803F04DF8041E90
:103F1000E4D1AD1BDFE700241B9B0AAA01211798FF
:103F20000A94FDF77FFB1B9B0993984201D0E7227F
:103F3000B0E70A9901200B941BF0D6FD051E00D1B5
:103F4000BDE001000BAB0A9A199803F037F8041E84
:103F50000BD101000B9B2A001798FDF78DFB042362
:103F60000BAA01211798FDF787FB28001CF040F9E8
:103F70001998FFF7A7FCB5E600230BAA0B930121C4
:103F80001B9B1798FDF74EFB1B9B0993984203D18F
:103F90001C990B9B994202D0EC22FF327BE7012057
:103FA0001BF0A2FD051E00D189E01C9B020002212E
:103FB0001798FDF737FB1C9B0993984201D0FB2211
:103FC00068E70B9A2900199803F04CFC0400CCE731
:103FD000199802F057FF0400CAE70023189A1D0041
:103FE0009446604A199F110010000B93022B08D1D0
:103FF0000023012519000B93022B1CD18924644254
:1040000070E60E68B44512D14E68B7420FD1002D4C
:1040100000D00B930C214B43D218137A0133137247
:1040200004230BAA00211798FDF726FB5AE601335B
:104030000C310125DAE71668002E0FD15668002EE4
:104040000CD1002900D00B930C2253436246C2507E
:10405000C018037A476001330372E1E701330C3281
:104060002900C9E71B9B0BAA01211798FDF7DAFA73
:104070001B9B0993984202D0852292000BE70B9B71
:10408000189A012BBAD80C255D43364FEB599A424A
:10409000B4D17E1970680028B0D0199903F002FCE1
:1040A000337A0400013BDBB23372002B00D019E6F7
:1040B000EB51736016E69124A1E786249FE78D24D7
:1040C0009DE7199802F0DEFE1998002800D109E654
:1040D000FFF7F8FB199802E7234A214984E51F4CB2
:1040E00000E60BAD0100082228001CF04DFC1A9BD5
:1040F0009126082B1DD12A0021001798FDF792FA6E
:104100001A9B0993984202D0184A194984E52878E5
:104110001B38062800D9DEE020F0A2FA04142C6730
:104120007DBAD90068881899FFF7B6FB002802D13C
:104130008826764239E069886A68199804F024F97B
:10414000060032E068881899FFF7A6FB0028EFD038
:1041500069886A68199804F01CF9F1E70100008089
:10416000C67E081058400208330200009303000086
:10417000057F081000211E9C10220DA80A911CF03A
:1041800003FC0AAB22000DA9199804F029F9061EB8
:104190000BD101000A9B0DAA1798FDF76DFA0423B5
:1041A0000AAA01211798FDF767FA31001798FDF761
:1041B000BBFA8024089B234200D1DCE0302200219E
:1041C00016A81CF0E1FB16A92000FDF7ADF8051EAE
:1041D00000D0D0E0169B022B00D18DE0032B02D043
:1041E000012B00D08FE10024C1E01B9C1022002194
:1041F0000DA81CF0C9FB23000DAA01211798FDF79B
:1042000011FA844201D0C24A7FE722000DA9199811
:1042100004F0C4F894E700231B9E012031001E9F88
:104220000D931BF061FC041E12D00200330001212B
:104230001798FDF7F7F9864201D0B64A65E73900CD
:1042400001201BF051FC051E04D120001BF0D0FF03
:104250008D266EE70DAB019332000300009721001D
:10426000199804F0EBF8061E0BD101000D9B2A00F3
:104270001798FDF701FA04230DAA01211798FDF7FD
:10428000FBF920001BF0B4FF28001BF0B1FF8CE706
:1042900000231E9D012029000D931BF025FC041E08
:1042A000D6D001000DAB2A00199804F0FBF8061EC9
:1042B0000BD101000D9B22001798FDF7DDF90423B7
:1042C0000DAA01211798FDF7D7F92000DDE719980D
:1042D00003F086FF34E786262BE7199803F080FF6A
:1042E0001998061E00D160E71BF082FF24E58A4A78
:1042F0008A4979E48A4E58E71A9B91240993102B36
:1043000000D089E00DAC0100102220001CF03CFB25
:104310001023220029001798FDF784F91A9B0993AE
:10432000984202D0952292004EE060881899FFF7DB
:10433000B3FA002800D1E2E020782438032800D91D
:10434000DFE020F08DF90262989800231E99012089
:104350000B931BF0C9FB051E5DD01B9901201BF0C0
:10436000C3FB041E24D128001BF042FF8D3C21001A
:104370001798FDF7D9F98024089BA400234200D1A7
:1043800048E13022002116A81CF0FEFA16A92000F0
:10439000FCF7CAFF051E00D03CE1169B022B00D1A2
:1043A000C8E0032B02D0012B00D057E100242DE1FF
:1043B00002001B9B01211798FDF734F91B9A03009B
:1043C0000992904203D0574A5749FFF725FC1E9A9D
:1043D0000DA90BAE48880992019202962200009521
:1043E0000E9903F053FC041E05D101000B9B2A001B
:1043F0001798FDF741F90423320001211798FDF7C2
:104400003BF928001BF0F4FEB1E71B9901201BF0DB
:104410006BFB061E02D18D246442A8E71B9B0200A1
:1044200001211798FDF7FEF81B9B0993984201D0D4
:10443000A52278E71C9901201BF056FB051EEAD047
:1044400002001C9B02211798FDF7ECF81C9A030050
:104450000992904201D0A82265E71B9A60880192D8
:104460000096099261682A0003F016FD04003000EE
:104470001BF0BEFEC5E700231B9901200B931BF028
:1044800033FB051EC7D01B9B020001211798FDF7C7
:10449000C9F81B9B0993984201D0244A94E7A3686A
:1044A0001E990120EF181BF01FFB061E03D12800E8
:1044B0001BF09EFEAFE71E9B0BAA2178608804923A
:1044C00003930296E36800970193A3682A002629C4
:1044D00011D1616803F09CFD041E05D101000B9B06
:1044E00032001798FDF7C8F804230BAA012117988A
:1044F000FDF7C2F8BBE7616803F004FEECE788242F
:104500008AE7862488E70A4A0749FFF76DFBC04619
:10451000C6030000DD03000022040000057F081030
:104520000100008073020000D97E0810BE02000066
:10453000F50200001A9E9124242E3DD10DAC0100FD
:10454000320020001CF020FA3300220029001798C6
:10455000FDF768F81A9B0993984203D0BA4ABB4901
:10456000FFF75AFB60881899FFF796F9002871D079
:104570002378223B012B6FD81B9901200B951BF050
:10458000B3FA051E17D01B9B020001211798FDF7F7
:1045900049F81B9B0993984202D0CC229200DEE797
:1045A000E3681E990120EF181BF09EFA061E05D144
:1045B00028001BF01DFE8D24644227E00BAA217801
:1045C0002389608806921E9A0496059222690297B2
:1045D0000392E2680095019212AA222936D16168FD
:1045E00003F0DEFF041E0BD101000B9B3200179875
:1045F000FDF742F804230BAA01211798FDF73CF8B8
:1046000028001BF0F5FD30001BF0F2FD210017988B
:10461000FDF78AF88024089BE400234200D195E04E
:104620003022002116A81CF0AFF9200016A9FCF7D3
:104630007BFE041E00D089E0169B022B12D0032BB8
:1046400002D0012B00D0CDE100247BE0616804F0B2
:1046500019F8C7E78824AFE78624ADE77C4A7B4991
:10466000FFF7C2FA1A9B0993102B00D0B4E10DADED
:104670000100102228001CF087F910232A002100D5
:104680001798FCF7CFFF1A9B0993984203D0714A01
:104690007149FFF7C1FA287B189E0238272800D9F4
:1046A0009CE11FF0E7FF7C004E015B0176018E016B
:1046B0009F00AE00DF0005013900700028009B015B
:1046C0009B019B019B019B019B019B019B019B010A
:1046D0009B019B019B019B019B019B019B019B01FA
:1046E0009B019B019B019B019B019B019B019B01EA
:1046F0009B019B011B01288831001E9FFFF7CCF80E
:10470000002853D028880BA903F03EFF041E19D1BE
:104710003B000BAA210092E0288831001B9CFFF788
:10472000BBF8002842D023000BAA01211798FCF700
:1047300079FF844201D0494AAAE728880BA903F0EF
:10474000FDFE040021001798FCF7EEFF8024089B73
:104750002401234200D162E10021302216A81CF07E
:1047600013F916A92000FCF7DFFD002800D056E160
:10477000169B022B00D139E1032B02D0012B00D074
:104780008AE1002447E1288831001E9FFFF784F862
:1047900000280BD028880BA903F0E6FEB6E728888E
:1047A00031001B9CFFF778F8002802D1882464426E
:1047B000C8E7210001201BF097F9061E00D10FE188
:1047C0000200230001211798FCF72CFF844201D03E
:1047D000234A5DE7288823003200A96802F0C2FA64
:1047E000040061E028883100FFF756F80028DDD08A
:1047F000288802F0E3FA041EA4D12888FFF732F8D3
:10480000A0E728883100FFF747F80028CED0288895
:104810000BAA0AA902F0E9FA1E9B04000993032BD4
:1048200005D904230AAA00211798FCF725FF1F9B2E
:104830000993032B00D885E7042301210BAA1798BD
:10484000FCF71AFF7EE7C04616030000F27E081050
:104850006A030000470400001D7F08106E0400007A
:1048600099040000288831001E9CFFF715F80028E5
:104870009CD0210001201BF037F9061E00D1AFE0CB
:1048800028880BAB2200310002F0D0FA041E05D1BB
:1048900001000B9B32001798FCF7EEFE04230BAAD5
:1048A00001211798FCF7E8FE30001BF0A1FC49E756
:1048B000288831001E9CFEF7EFFF002800D175E725
:1048C000210001201BF010F9061E00D188E0288885
:1048D0000BAB2200310002F0BEFAD7E72888310086
:1048E0001B9F1C9CFEF7D8FF002800D15EE73B0011
:1048F0000BAA01211798FCF795FE874202D0A2224D
:10490000D200C5E68A4BAA6800269A4211D1B44269
:104910000FD0210001201BF0E7F8061E60D0020036
:10492000230002211798FCF77DFE844201D0814AC2
:10493000AEE62888009433000B9AA96804F0BCF90D
:104940004EE7280004F0A4FB041E00D0FAE62888F5
:104950003100FEF76BFF02232A00DBE61B9B0BAA4C
:10496000012117980C96FCF75DFE1B9B099398425A
:1049700001D0A722C4E7042804D06F4A6F497048C9
:1049800015F05AF92B000B990C9A686804F0ABFBF0
:10499000DAE71B9B0BAA012117980C96FCF742FE45
:1049A0001B9B0993984201D0664A71E6042801D006
:1049B000654AE3E72B000B990C9A686804F06EFBDC
:1049C000C2E728883100FEF767FF002800D1EDE636
:1049D000288804F0B6FB0EE79124E8E68624E6E694
:1049E0008D24E4E6594A5549FFF7FEF81E9E012042
:1049F00031001BF079F8051E52D0310004F018F98F
:104A0000041E05D1010033002A001798FCF734FE7C
:104A100028001BF0EDFB21001798FCF785FE802491
:104A2000089B6401234215D00021302216A81BF0F8
:104A3000ABFF16A92000FCF777FC00280AD1169BD3
:104A4000022B30D0032B01D0012B3ED1002117982F
:104A5000FCF76AFE089B9B0401D5FEF747FF802404
:104A6000089BE401234201D1FFF764F830220021C2
:104A700016A81BF089FF16A92000FCF755FC061E9E
:104A800001D0FFF757F8169B022B22D0032B01D041
:104A9000012B43D100243BE02D4A2E49FFF7A4F817
:104AA0008D246442B7E72C4A1368002B01DD013BDB
:104AB000136011680029C9D1182228481BF064FF2F
:104AC000FEF7AAFE04F0DCF9C0E7BA222449FFF79A
:104AD0008BF880231A9CDB009C4223D82100012004
:104AE0001BF002F8051E20D00200230031001798A9
:104AF000FCF798FD844203D01A4A1B49FFF78CF853
:104B00002100280004F0ACF8040028001BF070FB22
:104B100021001798FCF708FEFFF70CF8134A12491A
:104B2000FFF762F887246442F2E78D24FBE7C04672
:104B3000000001701D0500003C0500001D7F0810ED
:104B4000827F08104D05000051050000750500002A
:104B5000D2050000507F081070400208584002083B
:104B60009A7E08109D0500003A7F0810A9050000F4
:104B700010B5041E04D1D3221249134815F05CF875
:104B8000124816F0F9FE0B21E061114A002803D10A
:104B9000D8220C490F48F1E74B01D31A6933FF3390
:104BA00001391C600029F7D1E2600B480B4A17F06D
:104BB00047FD6060002803D1E22202490848DDE792
:104BC00010BDC046BB7F08103D6A08106080081009
:104BD00098020208DC7F0810313B0610F803020837
:104BE0001C80081080235B010360002070470000D8
:104BF000802310B55B01984202D100F0F9FB10BD93
:104C00000048FCE7E8030080BFF34F8F034A044BE2
:104C1000DA60BFF34F8FC046FDE7C0460400FA05D7
:104C200000ED00E0882030B5012187B04002FCF79C
:104C3000BBF8002405002000A54215DD03AB04935A
:104C400004230593033B0093220004AB21002800BA
:104C50000394FCF73BF980231B06984200D1039490
:104C60002800FCF7B7F9039807B030BD10B5FFF77F
:104C7000CBFF10BD036907B5042B02D080200006CE
:104C80000EBD01AA00214068FCF7CCFC0428F5D138
:104C90000198FFF7ADFFF3E773B5066A0500042E30
:104CA0000CD101A8FFF79EFF041E05D101003300BF
:104CB00001AA6868FCF7E0FC200076BD8024240689
:104CC000FAE70000036810B50400022B05D0032B9F
:104CD00001D0012B07D1002101E088470100606865
:104CE000FCF722FD10BD4A220149024814F0A4FF3E
:104CF0008C800810D669081070B58CB03022002165
:104D0000684680261BF040FE1025360631007020D4
:104D1000FCF7CEFA0400284209D069462800FCF7C7
:104D200003FB0028F2D10E496846FFF7CBFF202095
:104D3000044208D06946FCF7F7FA0028E6D1094991
:104D40006846FFF7BFFF40200442DFD06946FCF70A
:104D5000EBFA0028DAD104496846FFF7B3FFD5E73C
:104D6000994C0610754C06106D4C061010B5041EBB
:104D700004D170220F49104814F05EFF0F4816F05E
:104D8000FBFDE061002810D00D4B0E4A9C629C6434
:104D90009C60E36000210C4817F052FC6060002822
:104DA00007D17F2203490948E6E7752201490848EF
:104DB000E2E710BD9C8008103D6A081030810810A1
:104DC0001C0402087C040208F94C0610EE8008104E
:104DD000B0800810184B984223D010DC174B984233
:104DE00023D004DC164B984221D0842312E0154BCB
:104DF000984218D0144B9842F7D18E230AE0134BF7
:104E0000984209DC124B984213DA124BC0189223D5
:104E10000128EAD85B4202E000239842E5D118005D
:104E200070478523F6E78C23F4E79823F2E787237E
:104E3000F0E79523EEE7C0461201FF800201FF80F4
:104E40000101FF800701FF800B01FF804601FF8009
:104E50004501FF80E5FE007F0021F8B5069E8842EF
:104E600028D1A1221749184814F0BAFC210067463E
:104E70003740EF5D4C1CE4B24754B609F6D13F27EA
:104E800002312336C9B2065516003E40AE5D920986
:104E900046549E06324316004C1C9B09E4B21E4346
:104EA0000CD10231C9B20655132909D9B7220549D7
:104EB0000648D9E73F24064DA446D8E72100E3E79A
:104EC000F8BDC04698810810E4810810F9810810E7
:104ED00058810810F0B589B003930023150006939C
:104EE000026807930193059305AB00939769082324
:104EF00006AA04000E00B84700280FD1059B010048
:104F00001848082B0FD1069A2B689A4204D80CD166
:104F1000079A6B689A4208D9134804E0134B0121A1
:104F20009842F0D0124814F087FE9A4215D22A0017
:104F300006A92000039B984700280CD10022236873
:104F400000925F692A00082331002000B84700283A
:104F500005D00848E7E70848E5E70029EED109B0A1
:104F6000F0BDC046238208106F8208100701FF8041
:104F700047820810BB8208109E820810F0B51D0001
:104F8000012389B00F00109904001600994319D12C
:104F900013002B4319D0132203A81BF0F5FC2B00A0
:104FA000320003A80097FFF757FF109A236800927A
:104FB0005D690F9A0E9B03A92000A847FFF70AFF1F
:104FC00009B0F0BD86204042FAE78720FBE7F0B544
:104FD0001D0013008BB004000F0016002B4335D0CA
:104FE0000021132205A81BF0CFFC32002B0005A8DE
:104FF0000097FFF731FF236803AADB6905A92000AA
:10500000984700281ED1039A109B9A421ED31199EB
:105010005B1899421AD89A4202D28A20404213E081
:10502000109A2368019202AA009202909D69129A36
:10503000119B05A92000A847002803D1119B029AC3
:105040009342EAD8FFF7C6FE0BB0F0BD8720E5E734
:10505000F0B51E0013008DB0050003911700129CDF
:1050600033431FD00021132207A81BF08DFC039BA4
:105070003A00009307A83300FFF7EEFE2B6805AA5D
:10508000DB6907A928009847002807D10123069A61
:1050900060601A4200D06360059B2360FFF79AFEB0
:1050A0000DB0F0BD87204042FAE7F0B51D001300B7
:1050B00089B004000F0016002B4313D000211322E7
:1050C00003A81BF061FC32002B0003A80097FFF738
:1050D000C3FE236803A91B6A20009847FFF77AFEE6
:1050E00009B0F0BD87204042FAE710B503681B699C
:1050F0009847FFF76FFE10BD0020704770B50B4C4E
:105100002378BFF35B8F0A4DDB070CD4200014F02B
:1051100077FE002807D0200014F096FE054A0649C5
:10512000280014F061FE280070BDC04638850208D2
:1051300040850208C0000208DD78071037B5FFF788
:10514000DDFF0A4912F0D0FB6946094B6A46186038
:10515000084B30CB30C1002802D1074814F06CFD59
:10516000064B0749FFF7B6FE37BDC046E882081078
:1051700090850208E082081005830810F950061097
:1051800026830810F0B50C4C1F00236885B005007D
:105190001600002B01D1FFF7D1FF0C9B32000293C8
:1051A0000B9B290001930A9B009320683B00FFF7AB
:1051B000E5FE05B0F0BDC04690850208F0B50C4C88
:1051C0001F00236885B005001600002B01D1FFF7F2
:1051D000B5FF0C9B320002930B9B290001930A9BA5
:1051E000009320683B00FFF7F2FE05B0F0BDC0461B
:1051F00090850208F7B5094C1F00236805001600CA
:10520000002B01D1FFF79AFF089B32000093290081
:105210003B002068FFF71CFFFEBDC04690850208DA
:10522000F8B5084C1F00236805001600002B01D1BB
:10523000FFF784FF32003B0029002068FFF735FFAD
:10524000F8BDC0469085020810B5FFF757FF064924
:1052500012F04AFB054B1860002802D1044814F0F4
:10526000EBFCFFF742FF10BDE882081090850208B2
:105270000583081030B58BB002900391002B01D14B
:10528000002A22D102A90491069308210EAB0893AB
:10529000042305910F48073907920993FBF784FD12
:1052A000051E15DD00230322009304A9FBF70EFE63
:1052B000802304001B06984201D1922464422800F6
:1052C000FBF788FE20000BB030BD87246442F9E76D
:1052D0009224FBE7011A010030B58DB00392109AB9
:1052E00004900591002A01D1002B24D104A9089132
:1052F0000821099103A90A918D20042140020B91F4
:10530000033906920793FBF74FFD051E16DD0123B7
:105310000222009308A906ABFBF7D8FD8023040006
:105320001B06984201D1922464422800FBF752FEEA
:1053300020000DB030BD87246442F9E79224FBE7DA
:10534000F0B58BB002900391161E24D00023049375
:10535000059302AB0693082304AC01211048079380
:1053600008940993FBF720FD071E17DD012208AB07
:10537000009206A9FBF7AAFD0CCC0CC68023050001
:105380001B06984201D192256D423800FBF722FEA0
:1053900028000BB0F0BD87256D42F9E79225FBE7A9
:1053A000021A010030B587B002AB049308230290C3
:1053B000039101210D480593FBF7F6FC051E12DD54
:1053C00000230122009304A9FBF780FD8023040041
:1053D0001B06984201D1922464422800FBF7FAFD93
:1053E000200007B030BD92246442F9E7031A01009F
:1053F00037B501210C48FBF7D7FC051E11DD002154
:105400000B0000910A00FBF761FD802304001B06DE
:10541000984201D1922464422800FBF7DBFD200072
:105420003EBD92246442FAE7041A010010B5FFF76A
:105430000BFF10BD0023002213B5009201930369F6
:105440000400082B02D08020000616BD6A46002109
:105450004068FCF7E7F80828F5D1009A019BA0689E
:10546000FFF7DEFEF1E770B586B004AE0400082257
:10547000002130001BF088FA0023002202920393DF
:105480002369082B04D080252D06280006B070BDA6
:10549000236A082BF7D102AA00216068FCF7C2F842
:1054A0000828F0D1029A039B0096A068FFF7A2FE9D
:1054B000051EEAD10100236A32006068FCF7DCF8BF
:1054C000E3E700230022002170B588B0069207931D
:1054D000036904000591082B04D080252D062800BF
:1054E00008B070BD4569042DF7D106AA4068FCF7E5
:1054F00099F80828F1D12B0005AA01216068FCF772
:1055000091F80428E9D1206A1AF068FE061E1AD024
:10551000236A02900193059BA0680093069A079B5B
:10552000FFF74CFE051E05D10100236A32006068BA
:10553000FCF7A2F8226A002130001BF025FA3000A7
:105540001AF056FECBE792256D42C8E700230022F1
:10555000F0B5002689B006920793036904004769F5
:105560000596082B04D080242406200009B0F0BD45
:105570008569042DF7D106AA31004068FCF752F87E
:105580000828F0D12B0005AA02216068FCF74AF830
:105590000428E8D138001AF021FE051E0BD06369FB
:1055A000020001216068FCF73DF86369984205D06C
:1055B00028001AF01DFE92246442D6E7059B01954F
:1055C00002930097069A079BA068FFF7DBFD3A005D
:1055D0000400310028001BF0D7F928001AF008FE5B
:1055E000C3E70000036810B50400022B05D0032BAD
:1055F00001D0012B07D1002101E08847010060683C
:10560000FCF792F810BDA0220149024814F014FBE7
:1056100036830810D669081070B58CB0302200218E
:1056200068468025F8261BF0AFF92D067600290084
:105630003000FBF73DFE040012F03CF8031E04D0DE
:10564000B3222149214814F0F7FA2020044208D05F
:105650006946FBF769FE0028E9D11D496846FFF756
:10566000C1FF1020044208D06946FBF75DFE002808
:10567000DDD118496846FFF7B5FF4020044208D045
:105680006946FBF751FE0028D1D113496846FFF760
:10569000A9FF8020044208D06946FBF745FE002898
:1056A000C5D10E496846FFF79DFF802040000442A7
:1056B000BDD06946FBF738FE0028B8D108496846D6
:1056C000FFF790FFB3E7C0464683081050830810E9
:1056D0004D550610C3540610675406103554061075
:1056E0002D54061010B5041E04D18422114912480D
:1056F00014F0A2FA114816F03FF9E061002814D026
:105700000F4B00211A00883214609C629C649C66D6
:105710009C60E3600B4A0C4816F092FF6060002822
:1057200007D1932203490948E2E789220149084841
:10573000DEE710BD818308103D6A08100084081060
:10574000A00402084005020819560610C383081079
:105750008A83081000207047002070470120002134
:105760007047C16980697047004870478E8408108F
:10577000F0B5431C87B00593DB7F0500002B00D1FB
:1057800043622E0024360121300014F037F9002343
:105790000490019301280AD12F1D380000F0ECF984
:1057A0000190002806D00499300014F040F90198C7
:1057B00007B0F0BD29696A69AB69EC695B185441AF
:1057C00038000293039400F0A1F90400380000F0BF
:1057D00099F9039B2418002B02D1029BA34206D9FE
:1057E0000121300014F023F9194B0193DFE76B69B5
:1057F000380002932C6900F085F9019B029A9342CC
:1058000001D1A042ECD82C696B691C4304D138004B
:1058100000F078F96C612861AC69EB691C4312D126
:10582000380000F073F90600380000F06BF927002B
:105830003200230006002869696992197B41121A17
:105840008B41AA61EB610123059AD377AFE7C0468C
:105850005FF0FFFF421C0300002010B5D27F8242A0
:1058600002D0181D00F046F9002110BD10B5431CF0
:10587000DB7F002B03D0043000F04CF910BD012079
:105880004042FBE770B5451C0400E87F002801D1C9
:10589000606270BD20000121243014F0C8F80300BC
:1058A00000208342F5D1E877201D00F083F9F0E76E
:1058B00010B50400044B08330360FFF7E3FF201D1D
:1058C00000F017F9200010BD9884081010B50400EE
:1058D000FFF7EEFF200014F037FC200010BD421C43
:1058E0000300002010B5D27F824203D0181D196931
:1058F00000F004F9002110BD411C0300002010B588
:10590000C97F814204D01969181D891800F0F6F882
:10591000002110BDF7B51F00431CDB7F04000D0004
:105920001600002B33D003689B6A984702000B00D7
:10593000300039001FF092F81A4328D12368200064
:105940009B6A984702000B00089809991FF086F897
:105950001A431CD1089A099B92197B41009201932A
:10596000236820009B6B9847019B8B420FD802D184
:10597000009B83420BD82269636992197B41110015
:10598000201D0A00089B290000F04CF9FEBD0148CB
:10599000FCE7C0465FF0FFFFD3B51F00431CDB7F71
:1059A00004001600002B39D00368196B3B008847B0
:1059B00002000B00300039001FF050F81A432DD1BF
:1059C000069A079B92197B410092019300980199D6
:1059D00001225242D31712184B4121682000096B53
:1059E000884702000B00009801991FF037F81A430E
:1059F00014D1236820009B6B9847019B8B420DD8E4
:105A000002D1009B834209D822696369B6185F41BD
:105A1000201D069A310000F089F9D6BD0048FCE748
:105A20005FF0FFFFF7B51F00431CDB7F04000D0094
:105A30001600002B33D003685B6A984702000B0006
:105A4000300039001FF00AF81A4328D123682000DB
:105A50005B6A984702000B00089809991EF0FEFF48
:105A60001A431CD1089A099B92197B410092019319
:105A7000236820009B6B9847019B8B420FD802D173
:105A8000009B83420BD82269636992197B41110004
:105A9000201D0A00089B290000F0A8F8FEBD01485F
:105AA000FCE7C0465FF0FFFF0E4B73B50833040000
:105AB00008C015000E0000F01BF80023621C2661D0
:105AC0006361A561E361D3776362721C01D09D427B
:105AD00006D10093002304491A00044814F0D4F8B6
:105AE000200076BD988408101E8408100101FF80F4
:105AF0007047704710B517F061FA10BD10B517F078
:105B000051FA10BD10B517F05CFA10BD10B517F0C2
:105B10005BFA10BD10B517F05AFA10BDF8B50600C3
:105B2000046805000835002C16D1104F386800288D
:105B300003D00121494215F035FF3468002C06D10D
:105B4000002D02D0280014F0A1FB35602C0038682D
:105B5000002801D015F03CFFAC4204D06C2204496F
:105B6000044813F03DFE2000F8BDC046F8A202082C
:105B7000E0840810FA84081070B505000C4E30005F
:105B8000FFF7CCFF14F08AFB280017F0F5F90400AA
:105B9000280017F013FA14F0C5FA68603000FFF718
:105BA000BDFF14F093FB601E8441604270BDC0468F
:105BB000F88D020870B506000B4D2800FFF7AEFF08
:105BC00014F06CFB300017F0D9F9441EA041444298
:105BD0007068002801D014F0BBFA2800FFF79EFF80
:105BE00014F074FB200070BDF88D0208F7B50F00AB
:105BF000160005000A4C01932000FFF78FFF14F0F8
:105C00004DFB3A003100019B280013F0EBFA050030
:105C10002000FFF783FF14F059FB2800FEBDC046AB
:105C2000F88D0208F0B587B002910092019306004A
:105C300017F0C4F90500300017F0C6F903903000E2
:105C400017F0BFF92900070000981EF0A3FD0C1EF5
:105C500002D1029B002B02D10124644261E0009A30
:105C6000019B9B18039AD2199342F5D82E48FFF74F
:105C700055FF14F013FB019B002B4DD0002C4BD192
:105C80000099300017F08EF90400010000981EF012
:105C900081FD019B601A984200D918000322029BE3
:105CA000134201D185422ED92F00854200D9070029
:105CB0003A00029970681AF0D5FDAF4205D27368B8
:105CC000EA1BD819FF211AF05FFE7368039505934C
:105CD00010230493039B059A0099300017F058F99C
:105CE000041E06D0049B013B0493002BF2D1012437
:105CF0006442019BDB1B0193009BDB190093029B19
:105D0000DB190293B7E729001EF0BEFC6843029B33
:105D1000039007000593DBE70348FFF7FFFE14F04D
:105D2000D5FA200007B0F0BDF88D0208F7B50D00D8
:105D30001700060017F048F90400300017F041F989
:105D40002018EC19A04202D201204042FEBDA04220
:105D50001FD81948FFF7E2FE14F0A0FA0024002F24
:105D600022D0002C20D1102301932900300017F0FD
:105D700007F9041E06D0019B013B0193002BF4D1CF
:105D8000012464422900300017F00CF93F1A2D1845
:105D9000E5E72100300017F005F9010020001EF0B2
:105DA000F9FC0029D0D1D4E70348FFF7B7FE14F07F
:105DB0008DFA2000CAE7C046F88D0208704710B57A
:105DC000040014F0C1F9200010BD000010B5037DDF
:105DD000002B04D10248FFF7A1FE14F077FA10BDA2
:105DE000288E020816204042704710B503681B69D0
:105DF000984710BD10B503689B69984710BD10B552
:105E000003689B6A984710BD0020814200D1193871
:105E100070470120704716204042704716204042CC
:105E20007047704710B503689B68984710BD000025
:105E300010B50400084B0022083323600023A26041
:105E4000E36000230800A16123616361034913F04B
:105E50000BFC200010BDC04634890810255E0610DA
:105E600007B5010000900831806913F03EFC07BDC2
:105E7000010010B50831806913F060FC10BD00000E
