:020000041000EA
:1000000000000108CBC501100D00000081010010A7
:1000100000000000000000000000000000000000E0
:1000200000000000000000000000000009A3011013
:1000300000000000000000008DA3011099A3011032
:1000400025C6011025C6011025C6011025C60110C0
:1000500025C6011025C6011025C6011025C60110B0
:1000600025C6011025C6011025C6011025C60110A0
:1000700025C6011025C6011025C6011025C6011090
:1000800025C6011025C6011025C6011025C6011080
:1000900025C6011025C6011025C6011025C6011070
:1000A00025C6011025C6011025C6011025C6011060
:1000B00025C6011025C6011025C6011025C6011050
:1000C00010B5064C2378002B07D1054B002B02D02E
:1000D000044800E000BF0123237010BDA8150008EC
:1000E00000000000A4F70210044B10B5002B03D051
:1000F0000349044800E000BF10BDC04600000000F6
:10010000AC150008A4F70210164B002B00D1144BBD
:100110009D46402292029A1A924600218B460F4633
:100120001348144A121A21F0A1F80F4B002B00D0EB
:1001300098470E4B002B00D0984700200021040068
:100140000D000D48002802D00C4819F0ABFB20F040
:1001500095FC2000290019F04BFF19F02BFDC0463B
:10016000000008000000010800000000519F01107D
:10017000A815000854B30008A5980110000000005D
:100180002C4B05E02C4B03E02C4B01E02C4BFFE704
:10019000EFF308802B4972460A4201D0EFF3098041
:1001A0009C46294B196802680A60043142680A605B
:1001B000043182680A600431C2680A600431F0C107
:1001C00047460F6004314F460F60043157460F60B9
:1001D00004315F460F60043102690A6008314269E8
:1001E0000A60043182690A600431C2690A6004311C
:1001F00003462033154E324200D0043375460D4E6F
:10020000354200D148330C46103C2360EFF309829D
:100210000A600431EFF308820A60043172460A6012
:100220000431EFF314820A606046074900F05EF87B
:10023000FEE7000010000000200000003000000079
:1002400040000000040000000077021000020000DF
:1002500030B5002585B01A4CAB002900E25819488A
:10026000013519F0ABF80D2DF5D1A36C16480293AA
:10027000636C0193236C0093E36BA26B616B19F0C9
:100280009DF8124B1248196819F098F8E36C1B0797
:1002900012D5104819F092F8236D0F48DB0700D4EF
:1002A0000E4819F08BF8E36C0D485B0700D40D483D
:1002B00019F084F805B030BD0B4819F07FF8EFE76E
:1002C0009CA1000894770210A277021000ED00E0D4
:1002D000F1770210FF7702100E7802101B780210DF
:1002E0003E7802104A7802102E78021013B50400EE
:1002F000154819F063F8302C17D0402C1AD0202C58
:100300001DD1124819F05AF8114C124819F056F83C
:10031000FFF79EFF104819F051F800230F4A009391
:10032000D26B0F49200019F00BFA0E4819F046F86D
:100330000D4CEAE70D4819F041F80D4CE5E70D4882
:1003400019F03CF80C4CE0E7047702102D7702100E
:100350003E01FF805A770210657702109CA10008C9
:10036000847702103C7702103F01FF80457702102E
:100370004001FF80507702103D01FF80F0B587B04B
:1003800005000E000392002804D12C221E491F48AC
:1003900018F08CFF002903D12D221B491C48F7E7D8
:1003A00000F0A8FB00280FD003680193012128006A
:1003B00019F073F8071EF9D000246B88A34206D801
:1003C000582211491348E3E701235B42EDE700237C
:1003D000059323043B430093230102936B6822019E
:1003E000981805A9009A19F045F8002801D10134A0
:1003F000E3E76B68029A00989B18019ADE605A60E6
:10040000039A9A6007B0F0BD8E780210027902104C
:10041000AF7A02101C79021037B5051E04D1612293
:100420001C491D4818F042FF002903D162221949D6
:100430001A48F7E742880B0C9A4205D800921849EF
:100440006822184819F054F91C0143681B598B4263
:1004500005D00B006C221249134819F049F900F03D
:1004600049FB00280DD002686B681B19596891423E
:100470000AD09968914207D0762209490B4819F0B1
:1004800037F901225242EFE700225A609A601A605F
:1004900037BDC0468E780210027902102079021012
:1004A000567802103C7902108A790210C67902103F
:1004B00037B5051E04D181221D491E4818F0F6FEED
:1004C000002904D184221C491C4819F011F94288E2
:1004D0000B0C9A4205D8009217498A22184819F045
:1004E00007F91C0143681B598B4205D00B008E2273
:1004F0001149144819F0FCF800F0FCFA00280CD05F
:1005000002686B681C196368934209D0A368934220
:1005100006D0982208490C48D7E701225242F0E75A
:10052000E068002803D19D2201490848C6E73EBD86
:100530008E7802100279021072780210027A02108C
:100540003C7902108A7902103F7A02108D7A0210EB
:1005500070B5041E04D1662209490A4819F0C8F88A
:10056000094D280002F044FA084804F01DF8084834
:1005700004F018F9074804F0C9FD2560042070BD97
:10058000C97A0210D97A0210C4000008E8000008F5
:100590000C01000830010008F0B5002106000D4BE9
:1005A0005D681B680C338D4201D1002010E00022F1
:1005B0005F68BA4202D101312433F4E7186854016C
:1005C00000190468A64201D00132F2E70028F2D0F7
:1005D000F0BDC0468401000870B50D00012183689C
:1005E00004004942D8691AF033FF5722002820D16D
:1005F000E369002B0DD1A561A368E56161685868C6
:100600001BF0A2FD002806DA66220C490C4818F0FF
:100610004DFE1D61F0E76368034203D1672207497D
:100620000848F4E7A368D8691AF028FF002803D027
:100630006B2202490448EAE770BDC0469B7D021068
:100640001C7E0210387E02100A7E0210F0B50500F2
:1006500085B00E1E04D170224249434818F026FE90
:10066000FFF79AFF041E05D12B0074223F49404832
:1006700019F03EF80369002B0ED13268C1688A4236
:1006800010D90293E3687A220193236837490093D3
:100690003848336819F02CF8012B03D13268C1684F
:1006A0008A42EED100F026FA071E07D1237D002BE7
:1006B0001ED12368382230493048D9E741690029E2
:1006C0000BD000228069236882420BD13A682A4904
:1006D00000922B48462219F00BF803683D22264968
:1006E0002848C5E795004D599D4201D00132EBE7FE
:1006F0003A000C21300000F01FFA002804D18122BA
:100700001A49214818F0F4FF204B002198691AF08B
:1007100007FA051E10D11E4BB0687360002F07D07A
:100720001BF016F8002805D08A220E49194895E7D3
:1007300000F05CFE05B0F0BDA36801001A68164821
:10074000FFF71CFE0023154A706029002F606C60C3
:10075000EE60AB602B61AA82AB752000FFF73CFF17
:10076000E8E7C0469B7D02102E7C0210157B02102C
:10077000417C02105F7C0210F57A0210BC7C0210F2
:100780002B7D0210F47C02106B7D021084010008A6
:10079000010000800A7E02108C01000801020000A6
:1007A000F0B510248DB004AD0F002200002106002A
:1007B000280020F05BFD002108AA01200891099182
:1007C0000A950B94019702911AF086FF0390002876
:1007D00004D1B7220E490F4818F08AFF01A9300052
:1007E000FFF734FF0121039849421AF08BFFBD2225
:1007F000002805D103981AF0DFFF002804D0C0229A
:100800000549064818F052FD02980DB0F0BDC046EB
:10081000277B0210F67B02109B7D02100A7E0210DD
:1008200070B50D1E04D1C9221F49204818F03EFDA5
:1008300001001F48FFF73CFE041E03D1CB221A49DA
:100840001C48F3E702681821280000F075F9002819
:1008500004D1CE221849194818F04AFFA37D012B74
:1008600011D180231B062B6123686869002B02D1FC
:1008700000F0BCFD70BD1AF06BFF0028FAD0D82242
:1008800009490F48D2E7200004221530032100F067
:1008900009F902232375E5600FCD00F0E9F8210086
:1008A0006068FFF799FEE5E79B7D02102E7C021041
:1008B0008C010008FB820210337B0210657B021062
:1008C0000A7E0210F0B5102491B00F00160000212E
:1008D0002200050002A8019320F0C8FC002102AB11
:1008E0000893019B06AA0C93169B01200691079181
:1008F00009940A970B960D930E911AF0EDFE0F9046
:10090000002805D1832210495200104818F0F0FE4B
:100910000AA92800FFF784FF01210F9849421AF025
:10092000F1FE002805D0862252000949094818F036
:10093000BDFC0F981AF040FF002802D01022FF32B1
:10094000F3E70E9811B0F0BD427B0210F67B021067
:100950009B7D02100A7E021070B50D1E05D18C22FF
:1009600014491548520018F0A1FC01001348FFF784
:100970009FFD041E04D11C220E49FF321048F2E7ED
:1009800002680821280000F0D7F8002805D18F223E
:100990000C4952000C4818F0ABFE20000321153022
:1009A00000F098F80323E560237521006068FFF7E5
:1009B00013FE70BD9B7D02102E7C02108C0100087E
:1009C000FB8202104B7B0210C87B021070B5040042
:1009D0008AB0002832D0102502AE2A000021300053
:1009E00020F044FC002106AA0120069107910896F8
:1009F000099500941AF070FE0190002805D1A122FB
:100A00000F4952000F4818F073FE69462000FFF7A7
:100A1000A3FF0121019849421AF074FE002805D075
:100A2000A42252000849094818F040FC01981AF025
:100A3000C3FE002802D04C22FF32F3E70AB070BD9B
:100A40005B7B0210927B02109B7D02100A7E0210DB
:100A500010B5FFF7A1FD041E01D1002010BD00F06C
:100A600049F8002802D1237D002BF6D0E068F5E795
:100A70001FB5002801D1002906D1002A01D1002B81
:100A800002D1CC18042C08D90293019200910300E2
:100A900026220249024818F02BFE1FBD527E02108A
:100AA000827F021030B50F2485B06C440D00217098
:100AB000210018F0CBFC002806D123782F220095C6
:100AC0000249034818F014FE05B030BD617E0210E3
:100AD0008B7E021007B50378DBB2994205D00091F6
:100AE00038220249024818F003FE07BD767E021044
:100AF0008B7E021070B51BF013FB002808D000227B
:100B00000A4B5C681B68944207D10021080070BD45
:100B10005E220749074818F0C9FB190024331D005D
:100B2000203D2D688542F1D00132ECE784010008B8
:100B3000F77E0210D77E021010B5031E1DD00123D0
:100B400000291AD041184C1E0023A04215D89A4201
:100B500015D1144A904210D9134B984203D8134A26
:100B60000123914209D9124B124AC0180023904226
:100B700003D8114A8A425B41DBB2180010BDF8234A
:100B80000E4A1B06C318934203D80D4A0123914213
:100B9000F3D9F0230B4A1B06C01800239042ECD86F
:100BA000094AE7E7FFFF0008FF740408007504081E
:100BB0000000F8EFFF7F070000800F10FFFF00002C
:100BC00000000108FFFF07000000081010B51BF02F
:100BD000C9FB0E4A18210A2019F08CFF0C4CA061A9
:100BE000002803D10B490C4818F082FD0B4A28213C
:100BF0000A2019F07FFFE061002802D1054908486A
:100C0000F2E72000FFF7A4FC606010BD6C01000853
:100C100084010008D67F0210E37F0210540100080F
:100C20000F80021010B5024B186800F001FDFAE7C2
:100C3000A4010008F7B50C00010018481700019343
:100C4000FFF736FC0600006805211530FFF742FF6C
:100C5000032C05D934221249FF32124818F048FDFE
:100C6000731DDB7F0025A34215D9E4003619B56852
:100C7000019B9D4200D91D00002D0CD0002F04D0F7
:100C80002A007168380020F05FFA73685B1973609E
:100C9000B3685B1BB3602800FEBDC046940100082A
:100CA000B08002107E85021073B505000E00FFF7BC
:100CB00021FF002804D1D3221649174818F0F6FA6C
:100CC0000824806804436B1C09D02B00A34307D081
:100CD00000942B00DB221149114818F009FD250072
:100CE000F217022128001BF089FA030020001840A7
:100CF00098420AD080221206964202D00020023387
:100D000006D0E72203490748D8E7831C00D100201A
:100D100076BDC046E2830210518402109F8002100B
:100D20006F840210A9840210F0B593B004000391FF
:100D3000FFF7E0FE061E04D1EF22A349A34818F0F6
:100D4000B5FA020030210398FFF7F6FE002804D11F
:100D5000F2229F499F4818F0CBFC302200210398D3
:100D600020F084FAB268002C04D0651E254001D121
:100D7000224206D100922300FE229549964818F09F
:100D8000B7FC1BF02BFA20420AD02B0032699342A9
:100D90000BD1842223008E499048520018F0A8FC01
:100DA00004228B49FF328E48D5E7F1685D014D1969
:100DB00069688C4201D00133E9E7002DE9D00121B7
:100DC000AB684942D8691AF043FB002803D0B3222C
:100DD0007D498448B3E7AC69002C03D1B92282492C
:100DE0008248B8E72369AB612061002B10D1EB6129
:100DF00068681BF0DDF9002803DAC52272497C48D7
:100E00009DE76B68034203D1C6226F49794896E794
:100E1000AB68D8691AF032FBCB220028D8D1200069
:100E2000237D1530022B09D0032B21D00221012B69
:100E30001FD09222664952006F48AFE70522042175
:100E4000FFF730FE2822002108A820F00FFA002228
:100E5000237D0792022B00D080E022681821E068F1
:100E6000FFF76AFE002807D15B226449644872E7F5
:100E70001900FFF72FFEE5E7E3685F681D689A68D1
:100E8000DB683900280004930592FFF7F1FDFBB2FF
:100E90000793002F2AD1049B002B5FD0049B22686C
:100EA000D9000598FFF748FE00284DD0FF0012AB8F
:100EB000DF193D000027059E243D73689C46002BEA
:100EC00046D02B00320003CA03C3039ABB00D318D9
:100ED000624661461A6228682268FFF72DFE0028E4
:100EE00036D13B0094224549464857E7F90022682D
:100EF0002800FFF721FE0026002807D16B223F497A
:100F0000414828E701360835B742C4D06B689C4693
:100F1000002BF7D0280008AAF300D31806931A1D57
:100F20000AC80AC263460398B20082181361069B7E
:100F3000226861465868FFF7FFFD0028E2D13300C0
:100F40007C222E49314829E783222C49304802E788
:100F5000049B013708360835BB42AED101252D4B25
:100F60006D422900D86919F0DBFD011E03D19D22D5
:100F700022492948EFE60D2306AA9B18079A0894F0
:100F8000DA77020008ABC1CBC1C2C1CBC1C2C1CBB1
:100F9000C1C21B68214813600022FFF7EFF9237DCF
:100FA000039A13601300A2685860DA602368002B6C
:100FB00004D1039B9D60002013B0F0BD1B68049317
:100FC000049A039B9A60F6E7E283021051840210B0
:100FD000A8800210DA800210F68002105E810210F2
:100FE000428102100A7E021081800210AD8102103F
:100FF0001C7E0210387E0210CD8102106D8002101E
:10100000FF810210878202102482021043820210A4
:101010006782021084010008AC820210940100086B
:10102000F8B5140006000F001D00FFF763FD021E57
:1010300005D14F32FF320B490B4818F037F9290020
:101040002000FFF779FD002805D152220749FF3221
:10105000074818F04DFB2B00390030002200FFF745
:10106000E9FDF8BDE283021051840210BD80021038
:10107000D5820210F7B507000C0016001D1E41D0E6
:10108000FFF738FD021E05D164221F49FF321F48B9
:1010900018F00CF929003000FFF74EFD002805D1AB
:1010A000B3221B491B48520018F022FB39001A4892
:1010B000FFF7FEF90700006805211530FFF70AFD6C
:1010C0007B1DD97F0C19032C04D970221049FF32E3
:1010D0001248E9E7E4003C19A368AB4207D2BA2200
:1010E000009352002B000A490D4818F001FB2A001A
:1010F0003100606820F028F863685B196360A368BA
:101100005D1BA560F7BDC046E2830210518402104A
:10111000C6800210D58202109401000824850210B6
:101120003F850210F7B507000D0001005248FFF798
:10113000BFF904680600002C05D1C1224F49504870
:10114000520018F0B3F8E368002B04D184224B4915
:10115000FF324C48F5E739004748FFF75DF9282290
:101160000021300020F082F8474F3100F86919F073
:10117000F7FC8E22061E00D07CE02000236815308C
:101180000193237D022B37D0032B4ED0012B67D147
:101190003E4B002D08D09D4206D0CB222B003C496F
:1011A0003C48520018F0A4FAE668B26800929D42EA
:1011B0001AD10221FFF78EFC71683748FFF72CF92E
:1011C00018220021200020F051F82100B86919F000
:1011D000C7FCAA2200284DD17560019B0098002B06
:1011E00043D100F003F9F7BD03220221FFF75AFCB7
:1011F0000023E3602375F0E7284BEB187E2B05D81E
:10120000B8222B00FF3222492548CBE703220521D3
:10121000FFF748FC80231B069D4201D10123A375E3
:10122000E3681D615B690093E2E7E56819006A689D
:1012300000920122FFF736FC29681748FFF7ECF807
:1012400031001822200020F011F82100B86919F0AF
:1012500087FC0028C1D0EC2252000849114870E7F1
:10126000F0220B49520010489CE71AF071FA00284E
:10127000B9D0EE22FF32F0E794010008E2830210B9
:10128000F482021012830210840100080100008021
:10129000D0800210398302108C010008FFFFFF7F0D
:1012A000748302100A7E0210AC83021010B50C0089
:1012B00001000348FFF7FCF803689C6010BDC046BE
:1012C000940100080C4B10B51B6858691AF040FADD
:1012D000002802D04422C31C09D1084B1B6818699E
:1012E0001AF036FA002806D0C31C04D0472204495D
:1012F000044817F0DBFF10BDA8010008A401000896
:1013000022860210AC86021010B51BF04BF910BDFE
:1013100010B51BF047F910BDF0B5264B95B0264C23
:10132000264D3822002106A80293039404951FF04D
:101330009DFF234B3C2205A9200005931FF004FFCD
:101340003C2205A928001FF0FFFE0C2202A91D481F
:101350001FF0FAFE1C481AF065F8061E04D19F2201
:101360001A491B4817F0A2FF1A4A002101201AF05F
:10137000B3F9071E03D1A22214491748F2E7174A0E
:10138000002101201AF0A8F90190002803D1A5221C
:101390000E491348E6E713483B0032002900006875
:1013A00000F072F8104B019A2100186800F0AAF8BA
:1013B00015B0F0BD779A333D0C75040848750408E4
:1013C0000C4A286300750408C085021022860210AA
:1013D000E0850210A8850210F4850210D085021065
:1013E0000B860210A8010008A40100081FB5040024
:1013F0000C22002101A81FF039FF00210348220020
:101400000B000068029400F0B1F81FBDA8010008AD
:1014100030B585B0019001380C000291150003929F
:10142000032824D824F07EF802070B0F1000FFF7E2
:101430000DF905B030BD1000FFF7F2F9F9E7100023
:10144000FFF78AFAF5E7002208212000FFF774FB76
:10145000002804D16C220849084818F049F92800EE
:10146000FFF7F6FA20606068FFF7C0FFE1E775223A
:101470000349044817F01AFF98850210FF810210F3
:1014800022860210B885021070B5002804D12422EB
:101490001449154817F00AFF002903D125221149E4
:1014A0001248F7E7124C0D68A54203D026220D49D9
:1014B0001048EFE7002A03D127320A490E48E9E72E
:1014C000002B03D1282207490C48E3E70C4C0261AA
:1014D00004600C1D44600C3104348460C1604361BD
:1014E00070BDC046F88602106E8702107C8702101D
:1014F0000C4A286393870210E6850210F4850210D7
:10150000FFD948A210B5002804D13722104911484C
:1015100017F0CCFE002903D138220D490E48F7E719
:101520000E4B0C689C4203D0392209490C48EFE766
:10153000002A03D13A3206490A48E9E70A4B026118
:1015400003600B1D43600C3104338360C16010BD28
:10155000F88602106E8702107C8702100C4A2863FE
:10156000938702101186021042658BA6F0B585B0F4
:1015700001AD041E01916A60AB6004D14722264987
:10158000264817F093FE264B02689A4203D0482261
:1015900021492448F5E701210069494219F058FF23
:1015A000002826D1FA2703267F00A2686168136805
:1015B000086801338C46334083421ED00C231068E8
:1015C0004343E068C31883CD83C3136801333340BA
:1015D000136063461B68126801333340934201D1A4
:1015E000FFF792FE206919F049FF002811D05D2213
:1015F00000E04B2208490C48C3E7390060691AF043
:1016000081F8022302309843CFD050220249074884
:10161000B7E705B0F0BDC046F88602106E8702102D
:10162000FFD948A2EA8702100A7E0210138802102E
:10163000F0B5050085B0002804D163221D491E487D
:1016400017F034FE1D4B02689A4203D064221949F8
:101650001B48F5E7FA21006949001AF053F8022304
:10166000023098431DD0682212491648E8E70C2141
:101670001368E8684B4301ACC3182000C2CBC2C05A
:101680000321136801330B40136063461B68126823
:1016900002330B40934201D1FFF73AFE07CCFFF72C
:1016A000B7FEAB686A689C4610681B689842DED13A
:1016B00005B0F0BDF88602106E87021042658BA659
:1016C000C187021013880210F0B5214B85B01B684A
:1016D00003900E0001920020012B08D01D4D1E4AE0
:1016E0006B7829781B020B43934202D0012005B08E
:1016F000F0BD019A032AF9D933800423E978AA7846
:101700000902114302912C1D7380F718029BEB18FC
:101710009C4216D22388039A1B0B93420ED16288F7
:10172000738801999B188B42E0D8380021001FF084
:101730000BFD63887288FF189B1873806388002BE9
:1017400004D10122024B00201A60D0E7E418DDE743
:10175000341A00088488021016200000F0B51E25F7
:1017600089B0059300230F9F6D4404920E9E2B8039
:1017700006243F2F1BD92A001121012001F016FC5D
:101780000534002813D1109B288804330293019755
:101790000096059B049A094901F09CFB002809D09A
:1017A000288801F037FC0A3C288801F033FC20002F
:1017B00009B0F0BD109B04001E60F5E7090007109A
:1017C000F0B50F26A7B01F002D9B182201932E9B6A
:1017D000002100932F9B08A802932C9D1FF046FD2B
:1017E000602200210EA81FF041FD04ABF618330063
:1017F00008AA60210EA800F06FF8041E02D007208E
:1018000027B0F0BD0A990029F9D00C9B0393002B57
:10181000F5D033780B9A3B60019B9A42EFD82800B1
:101820001FF092FC0D9A029B9A42E8D80C990098FE
:101830000B9E1FF089FC309A0D9B60C20099319A73
:1018400020000AC2DCE7000070B50C00061D002174
:101850000500042230001FF009FD0A4B3000E41897
:1018600061426141072349421940074BC91801F001
:10187000CDFA002801D1286070BD8630431E984102
:101880000330F9E7401901000200000113B50368B5
:10189000040000910192002B05D1002903D00430EF
:1018A00001F0D4FA206013BD37B51C000368009125
:1018B0000192002B0DD1231D04300D0001F0E0FA40
:1018C000002803D10300256018003EBD05238A309F
:1018D000FAD00423F8E70000F0B589B002930023A2
:1018E000160004AA971C01903A00112101200793C9
:1018F0003B8001F05BFB0123002822D1388806AA37
:1019000005A901F00FFC002801D0388816E0059BDE
:10191000484A190003921140474A9142F5D1474A7B
:10192000069C1340464A93420ED1E408103420002E
:101930001FF0D0F805003888002D12D101F06AFBA5
:101940000123180009B0F0BD3E4A934204D103239D
:10195000E4085C434A34EAE70734E40864000134ED
:10196000E5E707AB2200290001F012FC002803D0B4
:1019700028001FF0B9F8C8E70598039B2E4A0340DA
:1019800093424BD180B21738072847D823F0CAFDBD
:10199000043E4046464642440123029A1370079B88
:1019A000581E400825F052FE1EF074FC24F002F888
:1019B000079B0400581E400825F048FE1EF06AFCF4
:1019C00023F0F8FF002C2FD000236A1CE918497877
:1019D000019FF9540133A342F8D13B19B760F46079
:1019E0000193002824D000231419E25C0199CA5401
:1019F00001339842F9D13161706128001FF074F809
:101A000004AB588801F006FB00239AE70223C4E7E1
:101A10000323C2E70423C0E70523BEE728001FF025
:101A200063F804AB588889E7B460F4602A00D8E70B
:101A30003061E1E70000FFEF00000360FFFFFFEF10
:101A40000000016000000260024B1B680360002080
:101A50007047C046381C000803207047F0B589B0B5
:101A600002AB01249D1D0023070001910C702A0088
:101A7000112120002B800693079301F097FA00288C
:101A80004BD1288805AA04A901F04CFB002840D1BD
:101A9000049B264A26491A408A423AD1254A059C87
:101AA0001340254A934227D1E408103420001FF048
:101AB00011F8061E2DD0288806AB2200310001F057
:101AC00067FB00282FD11D4907A801F09FF90028C6
:101AD00029D1069A310007A801F0B8F901993B0015
:101AE0000131202207A801F0CBF90400601E8441D7
:101AF00030001EF0F9FF0DE0114A934204D1032398
:101B0000E4085C434A34D1E70734E4086400013454
:101B1000CCE70124288801F07DFA20003B680133DE
:101B20003B6009B0F0BD0124E2E7C0460000FFEFD2
:101B300000000360FFFFFFEF0000016009000001EB
:101B400000000260032070470B0010B502680349D3
:101B500018001FF0F9FA002010BDC046638802107B
:101B600010B502F07BFDC02203009201904209D023
:101B70000AD880225201904204D0802292019342DE
:101B800000D00023180010BDA022D2019042F9D04D
:101B9000C022D2019042F5D08022D201EFE70000AE
:101BA0000C23036000487047568802100D23036021
:101BB00000487047488802104842484180007047FA
:101BC000F0B50E258BB0039302ABED180290002305
:101BD00001200F00160011212A0028800893099384
:101BE00001F0B0F9041E3FD1354A364908A801F08A
:101BF00039FA288808A901F037FA041E34D1324A8C
:101C0000330C1B04934258D1029B2888002B2ED002
:101C1000202F24D13B00029A310001F053FA041E18
:101C20001FD1288806AA07A901F07CFA041E18D142
:101C3000C0228021079BD2051A40C9058A421ED1C5
:101C4000069BDE1DF6082888119B109A039901F067
:101C50009FFA041E05D1119B1B68B34201D987244A
:101C60006442288801F0D6F920000BB0F0BD802234
:101C7000009423005200310001F090FACFE7134A9C
:101C800013491A408A4203D1069BDE081036DAE770
:101C900010498A4205D10326069BDB085E434A367B
:101CA000D1E70D4A060013400C4A9342CBD1069B64
:101CB000DE1DF60876000136C5E787246442D3E7C7
:101CC00009000710010C000000000370FFFFFFEF88
:101CD00000000160000002600000FFEF00000360F0
:101CE000F7B51600020005001F00089B98320C0093
:101CF0001160566006CB00F07BFF2800E10FA0309A
:101D0000009533003A0000F025FB041E04D0033C8C
:101D100060424441E01CFEBD0221280000F0B6FFF5
:101D20002800052100F0B2FF2000F4E77047D0B58D
:101D300016001F000400CB170A0000F06EFF3200EF
:101D40003B00200000F069FFD0BD73B505001668A8
:101D50005468CB170A0000F060FF3200280023000F
:101D6000022100F06EFF73BD73B50500166854685C
:101D7000CB170A0000F051FF320028002300032196
:101D800000F05FFF73BD7FB5060000220D00052146
:101D900000F09DFF6A460221300000F098FF3000FD
:101DA0000099A030019A00F0E1FB002805D003382B
:101DB00043425841033004B070BD02AC21003000F2
:101DC00000F0D2FF03000128F5D00220002BF2D151
:101DD00006CC06C51800EEE7242808D003D8202832
:101DE00005D004207047302801D04028F9D10020C8
:101DF000F8E710B51FF0A8F910BD0000F0B51D0000
:101E00001C4B87B00291039219881B4A01909142A2
:101E10002CD15A882968D3180093184C002907D070
:101E200005AC20000422FFF7E4FF64882B681C192E
:101E30003F27009B9C4201D3002013E005AE042203
:101E400021003000FFF7D5FF338801989A113A40FE
:101E50007188824208D101201F40029B1F70039BA2
:101E60002C60198007B0F0BD6418E2E70120404201
:101E7000F8E7C046381A0008162000003C1A00088F
:101E80000023F7B506000F00150013606B46DC1D3C
:101E90003A002B0021000020FFF7B0FF012802D1FB
:101EA0002378B342F2D1FEBD37B51400022907D022
:101EB00004290ED0012912D10378236000203EBDF1
:101EC0006B469D1D0A0001002800FFF792FF2B883A
:101ED000F3E70A0001002000FFF78BFFEEE7012087
:101EE0004042ECE737B513000400092927D8080061
:101EF00023F018FB1012142325252525050B02219C
:101F00002000FFF722FF00203EBD06212000FFF742
:101F10002BFFF8E70421F9E70521F1E701AA03CB3C
:101F2000FFF7C2FF05000520002DEDD1019A2B001F
:101F300003212000FFF7FBFEE5E70121E6E705208E
:101F4000E2E70000F0B54368CFB006000792002436
:101F5000242B03D103681C6A202343600722072334
:101F6000009122405B4221001CA8FFF7B9FE002827
:101F700006D00224012800D0052420004FB0F0BD77
:101F80003200BD491CA8FFF7E0FE8023DB051C40A2
:101F900000D02BE10822210011A80FAE1FF066F936
:101FA00010AA310020001094FFF76AFF012800D02A
:101FB00025E1109B043311933388043B11AAAF49E8
:101FC0001CA81293FFF7C1FE11A8FFF7E9FD13AE9D
:101FD0001390002806D0119B3200A9491CA87360F9
:101FE000FFF7C2FE11A8FFF7E1FD1390002806D00D
:101FF000119B3200A3491CA87360FFF7B5FE212393
:10200000310010A81093FFF729FD0324071EB4D157
:10201000109B11AA9C491CA812931196FFF795FEDC
:1020200012233900082211A80F931FF01FF91097EF
:102030000EAF10AA39000120FFF722FF012800D0BF
:10204000E9E0109B043311933B88043B11AA8F49AC
:102050001CA81293FFF788FE202313AE10AF3100A7
:1020600038001093FFF770FD0324002800D084E7A8
:10207000109B11AA86491CA812931196FFF765FEC2
:102080003000FFF7E1FC041E00D076E7139B139AA3
:1020900080491CA8DB17FFF74AFE320039000220F6
:1020A0001394FFF7EDFE012800D0BEE03988139BA2
:1020B0000439181D11AAFFF7F7FE002800D05BE7CE
:1020C000119B9AB2C023DB019A4200D954E7002346
:1020D00071491CA8FFF72BFE012300250393002361
:1020E00012220C936B4606A952180F211B7B06A8DF
:1020F000049309180CAB0498FFF780FE431C00D131
:1021000084E0012865D10135012D0CD11CA8FFF711
:102110000DFE0123614A5B42059000F07EFD042123
:10212000059800F0B3FD0C9B0DAE190004223000A1
:102130000E93FFF75EFE3F2273880BAC238033883B
:102140000AAF13401CA83B70FFF7F0FD0521069075
:10215000002600F09BFD3978CB087AD0002E29D1DB
:102160000E9B0FAE1900042230001093FFF741FEC2
:102170001623728806A95B181A803F2233881CA890
:1021800013402E3A52181370FFF7D0FD112306AA00
:102190009B181978CB084CD1162206A95218112188
:1021A00006A8091810AB0498FFF728FE0130012893
:1021B000ECD8012622000EAB39000498FFF71EFE72
:1021C0000200431C05D00028C5D10521069800F067
:1021D0007EFD039B01330393072B00D07FE7002D87
:1021E00042D000220421059800F071FD07991CA837
:1021F000FFF7C9FD0024A04200D0BAE6BDE613AC4B
:1022000021002020FFF728FC002801D00324B4E699
:1022100011942023D2E631000FA8FFF793FC002889
:1022200000D0AAE611960F9B10E7FFF799FC020079
:1022300048E7109B06AA0433139316239B181B88A8
:1022400013AA043B1CA81493FFF74CFE0028A3D04C
:10225000AFE70E9B11AA0433119323881CA8043BFB
:102260001293FFF73FFEA5E7012200230C491CA8AB
:10227000FFF75DFDBAE7C04600DBFEFF04DBFEFFB3
:10228000FEDAFEFF08DBFEFFFFDAFEFF03DBFEFFE8
:1022900005DBFEFF07DBFEFF06DBFEFF02DBFEFFCA
:1022A00001DBFEFF802210B5920002490120FFF7FA
:1022B0000BFA10BD381A000870B5136886B045686F
:1022C0000668029353682800140000960195039352
:1022D000FFF782FD002818D1012229003000FFF706
:1022E0006BFC002811D1022203990298FFF764FCCD
:1022F00000280AD104AA02A96846FFF723FE002895
:1023000003D1049B2360059B636006B070BD000091
:10231000002110B5036886B01B6814680091029113
:1023200052680B49019303910420032A0DD9180028
:10233000FFF752FD002808D104AA02A96846FFF75A
:1023400001FE002801D1059B236006B010BDC046E8
:10235000FFFFFF7FF0B5824C0500A54410001F0071
:102360000E00079200F066F97E4B0124984266D079
:10237000079BEF61AB612B19DE778A9B6B62002EA6
:1023800062D0202123A80FAA0D900E9100F0D0F961
:10239000041E54D1002312228A9800F072FC0421FA
:1023A0008A9800F073FC102229003EA81C921B950D
:1023B00000F01EFC05213EA800F068FC012200236D
:1023C0003EA800F02AFC079B079ADB173EA800F006
:1023D00024FC2BAE05213EA8220000F078FC310041
:1023E0003EA800F0C1FC002800D0B6E02B9B2C9A40
:1023F0002B616A61002B22D02B003200103303CBFB
:1024000003C2022173682B9A8A9800F01AFC0F9E6F
:10241000109D05218A9800F039FC042200238A9837
:1024200000F0FBFB320002218A982B003E963F957C
:1024300000F007FC002205218A9800F048FC2000EB
:1024400085239B009D44F0BD20212BAB09934B239A
:102450000C910E9117A923A805911BAA0FA90A9305
:102460000B920D900491119612960DAA02A911CA11
:1024700011C16A460BAB03CB03C208AB310032007B
:102480003800FFF79DF9041ED9D10A9A09993EA890
:1024900000F0AEFB05213EA800F0F8FB012200236E
:1024A0003EA800F0BAFB022200233EA800F0B5FBD4
:1024B000089E01225242D317F7173EA800F0ADFB49
:1024C00032003B003EA800F0A8FB0F9E109F0222A6
:1024D0005242D3173EA800F0A0FB3B00320002217D
:1024E0003EA81396149700F0ACFB179E189F03228A
:1024F0005242D3173EA800F090FB3B00320002216D
:102500003EA81596169700F09CFB220005213EA8D8
:1025100000F0DDFB19A93EA800F026FC02340028DB
:1025200000D08CE7199B104917931A9B3EA818936B
:1025300023AB199320231A93FFF786F9041E00D0CA
:102540007DE71799189A3EA8FFF7A0F90FAB1999E4
:102550001A9A3EA8FFF7A8F91AE72200230047E7D6
:10256000ECFDFFFFFFFFFF7FC0E6FEFFF0B5ADB063
:102570000992402204000EAD08916A6014A9203A25
:102580001CAE11920E96109108AB02A8944684CB13
:1025900084C023006846103384CB84C00AAB6246F3
:1025A000A06900F055F8059000282ED1631CDB7F50
:1025B000002B2FD040270A9B0B9D0693731B04957D
:1025C00007933A00AF4200D92A00079B04997F1B6A
:1025D000581806991EF0B8FD049B049A5B193F2A0F
:1025E00016D940230C960D93656A08220CA912A8EF
:1025F0001EF0AAFD129A02212800139B00F021FB75
:1026000000220421606A00F062FB05982DB0F0BD45
:102610000493D6E70CAB02936B4606CD06C30A9A29
:102620000B9BE169A069FFF799F80028DCD00590C1
:10263000EBE70000073043425841034B404218404B
:10264000024BC0187047C046C1E6FE7FFFFFFF7F08
:10265000F0B5354C0700A5440091019213A9212241
:102660001CA81D0000F0C4FA04211CA800F00EFBF9
:102670002E4C8EAE20001FF035F9220000240300FE
:1026800003211CA800F0DDFA0FAB06CE06C31CA880
:102690000F9A8F9B022100F0D4FA2200230002211E
:1026A0001CA800F0CEFA2200230002211CA800F092
:1026B000C8FA2300220002211CA800F0C2FA22005E
:1026C00004211CA800F003FB05A91CA800F04CFB8A
:1026D00003001420A3421ED13800FFF7ABFF010016
:1026E00042A8FFF7B1F8A04215D106998A1E91427F
:1026F00015D2079008900799089A42A8FFF7C6F8E4
:102700009099726842A8FFF7C1F82B000099019ACE
:1027100042A8FFF7C9F889239B009D44F0BD059BA3
:1027200008920793E7E7C046DCFDFFFF50890210DF
:1027300070B5202492B00AAE0290039115000E49A4
:10274000220030001EF000FD6A460994089608AB8E
:1027500003CB03C204AC039A02992000002300F0CB
:102760007BF9230006CB06C5236807205A42534154
:102770005B42184012B070BD30890210F0B597B0BE
:10278000802170200906FEF78FFA102307001842F7
:102790004BD0302200210AA81EF068FD0AA91020A3
:1027A000FEF7C2FA041E40D10A9B022B05D0032B70
:1027B00001D0012B62D1002433E00E9901201DF0DD
:1027C000FDFD051E1AD00E9B020021000B98FEF79E
:1027D00027FC0E9B0393984207D028001EF084F933
:1027E00043227D497D4816F083FF129901201DF098
:1027F000E5FD061E04D128001EF076F9052410E040
:102800000E9B06950793129B089003930993FFF77D
:1028100049FD041E20D028001EF066F930001EF08D
:1028200063F921000B98FEF77DFC2024274257D046
:10283000302200210AA81EF019FD0AA92000FEF787
:1028400073FA011E4CD10A9B022B1CD0032B01D022
:10285000012B5ED100243FE0614B0C9A06A81A6060
:10286000012308AA1900FFF727FD041ED3D1010098
:10287000099B089A0B98FEF7FDFBCCE763225649AB
:10288000584816F035FF04AC0E9B22000B98FEF75B
:10289000C7FB0E9B0393984202D080225249A1E7C6
:1028A00005AB0893129B0694079003930993FFF7D7
:1028B000F9FC041E10D14A4B0C9A06A81A60012399
:1028C00008AA1900FFF724FD041E05D10100099B89
:1028D000089A0B98FEF7CEFB21000B98FEF722FC1E
:1028E0004024274200D14BE7302200210AA81EF0E5
:1028F000BDFC0AA92000FEF717FA011E00D03FE731
:102900000A9B022B08D0032B01D0012B61D100259B
:102910005AE095223449B3E70E9B06909125042B8B
:102920001CD108AA0B98FEF77BFB0E9B03939842E1
:1029300002D0B8222D4955E7129901201DF03EFD25
:10294000061E0AD00F9900291CD001201DF036FD6B
:10295000041E05D130001EF0C7F88D256D4233E00E
:102960000F9B020001210B98FEF75AFB0F9B03936C
:10297000984208D030001EF0B7F820001EF0B4F8DE
:10298000CD22D7E70C00129B06AF0393009301976B
:102990003300089A0F992000FFF712F9051E05D1A0
:1029A0000100069B32000B98FEF764FB0B98042392
:1029B0003A000121FEF75EFB30001EF095F8002C76
:1029C00002D020001EF090F829000B98FEF7AAFB19
:1029D000D6E6E622054953E75B890210A08902107A
:1029E000381C0008C0890210708902108A89021000
:1029F00010B5041E04D176220F49104816F078FE57
:102A00000F4818F00FFDE061002810D00D4B0E4A62
:102A10009C629C649C60E36000210C4819F06AFB96
:102A20006060002807D1852203490948E6E77B2238
:102A300001490848E2E710BDE3890210108A02103C
:102A4000B08A0210AC0100080C0200087D270010BB
:102A50006B8A02102B8A0210F7B5050000911C004A
:102A6000934203D8099ED21AB24204D200232B60AB
:102A70006B602800FEBD009F3200F8180899A41969
:102A80001EF062FB2F606C60F3E7000082B06B46C3
:102A90005A60054A0091828100228260827306CBCF
:102AA00006C002B07047C0460F0B000073B500911E
:102AB00001921E00837B0400002B05D1124B8289FA
:102AC0009A4202D00123A37373BD826843689A427D
:102AD000F8D8019D9B1AAB42F4D3B242F2D3921BB9
:102AE00006D00168002903D0891948191EF070FB2F
:102AF0002068002804D080192A0000991EF068FB85
:102B0000A3685D19A560DFE70F0B00008B7B10B594
:102B1000002B03D000230360436010BD054A8C895D
:102B2000944202D001228A73F5E78B6843600B68F8
:102B30000360F2E70F0B0000F0B515248BB0119D78
:102B400004AB0290039100921098E418002D30D14C
:102B500017282ED8002A2FD12100C0B2039B01399B
:102B60005B01C0180870621A129B0298FFF79EFF63
:102B70000BB0F0BD114EF75CFE438E1901960E00AE
:102B8000019A013E96420ED1009A0133D21BC91B15
:102B90000092DBB206002E43ECD1009A002AE9DC59
:102BA0001733D8B2DAE72A063070000A10432D0A2C
:102BB000E6E700232100EDE72B00FBE7DC8A0210AB
:102BC0001FB584680092019302940022FFF7B4FFBE
:102BD0001FBD00008388054A0321D21A012A02DDA5
:102BE00000210133838008007047C046FEFF0000CB
:102BF00013B5040000910192002198221EF036FBCB
:102C0000019A00992000FFF741FF220023001432AF
:102C100094331A600423A37613BD10B5017C04001D
:102C200000290DD1002B02DAD243DB430131200011
:102C3000FFF7C6FF230094331868FFF7CBFF20741B
:102C400010BD30B585B06D4600926B60037C04000A
:102C5000002B14D1092902D0019AFFF7B1FF2A00F5
:102C600002AB03CA03C32000A36802996A68FFF796
:102C70001DFF230094331868FFF7ACFF207405B0E4
:102C800030BD10B50621FFF79BFF10BDF8B505005C
:102C90009435040028680E00FFF79CFF207400287C
:102CA00005D1A7683B00663302D907232374F8BD1A
:102CB00022002B688C320221934206D01A000100B8
:102CC00008322A6098819F609E732174EFE7F0B507
:102CD000037C89B004000D001700002B08D106000A
:102CE0000200943633681432934203D104232374D0
:102CF00009B0F0BD9A798A4201D01023F7E71A682B
:102D0000049282680592022924D11300049A981A29
:102D1000049B009002930023290001931A002000D5
:102D2000FFF70AFF002F11D0210006A8FFF7EEFEE3
:102D3000059A049B06999B1AA2689B18079A9342CE
:102D40000FD8D21A002900D0C91806C73368083B2B
:102D50003360CDE70339988889B222F0F7FB80B25F
:102D6000D6E700221100F0E773B5057C0E00002DB8
:102D70000FD1030094331A68803B9A420BD1837BB6
:102D8000002B0AD16C4601002000FFF7BFFE0CCCDF
:102D90000CC6280076BD0A25FBE70125F9E70000EF
:102DA000F0B5070012208FB0039314AB1E7802AB6E
:102DB0000D00029200210E22C0181EF057FA1023B7
:102DC0000593029B06AC0B93039B01210C930423F8
:102DD0000D482780267304940A950D93FDF7E0FCB7
:102DE000041E0DDD02230122009304A90AABFDF7A6
:102DF00069FD05002000FDF7E9FD28000FB0F0BDDA
:102E000091256D42F9E7C046060F000030B50E224D
:102E1000002487B002AB5C801A700493082305007D
:102E20000391094801210593FDF7BAFC2860A042EF
:102E300007DD00942300012204A9FDF743FD07B03C
:102E400030BD91204042FAE7020F000030B5002368
:102E50000F2589B002AC63802570049408240068B3
:102E60000393059406910792984206DD009302228F
:102E700004A9FDF727FD09B030BD89204042FAE7DB
:102E800070B5002510268EB004000392100004AA2D
:102E90005580167006920822079203AA089204220F
:102EA0000B902068059509920A910C930D92A84207
:102EB0000DDD023A00920AAB06A9FDF703FD0600FC
:102EC0002068FDF783FD256030000EB070BD8926B7
:102ED0007642F9E7F0B5102591B004AC07000E007A
:102EE000029200212A00200003931EF0BFF9242340
:102EF0002370029B01210A93039B11480B93169B9D
:102F000067800C93179B66600D93189B08940E9333
:102F1000042309950F93FDF743FC041E0CDD0222E8
:102F20000CAB009208A9FDF7CDFC05002000FDF7D1
:102F30004DFD280011B0F0BD91256D42F9E7C04666
:102F4000030F000070B506001A2015008EB0039123
:102F50000E22002168441EF089F92B8806AC10224D
:102F600023800495042302250B92012103AA0E4815
:102F7000666023730A940C920D930595FDF710FC7F
:102F8000041E0DDD01232A0000930AA904ABFDF7FE
:102F900099FC05002000FDF719FD28000EB070BD5A
:102FA00091256D42F9E7C046060F000070B5060096
:102FB0001A2015008EB003910E22002168441EF0E5
:102FC00055F92B8806AC2380052323730B330B9311
:102FD00003AB0C9304950423022501210C48666081
:102FE0000A940D930595FDF7DBFB041E0DDD01230F
:102FF0002A0000930AA904ABFDF764FC0500200039
:10300000FDF7E4FC28000EB070BD91256D42F9E794
:10301000060F000030B50500122089B00E220021F5
:1030200068441EF023F9062304AC237301210A33FC
:103030000B48258002940393FDF7B2FB041E0CDDC0
:1030400000230122009302A9FDF73CFC05002000AB
:10305000FDF7BCFC280009B030BD91256D42F9E7B1
:10306000060F000006C0704770B506000A208AB03F
:103070000C000E22002168441EF0F8F80B2302AD6C
:103080002B73053307930894631E9C410121E400D0
:103090000B4809942E800695FDF782FB041E0CDD7B
:1030A00000230222009306A9FDF70CFC0500200076
:1030B000FDF78CFC28000AB070BD91256D42F9E740
:1030C000060F0000F0B507000A200E008DB0039334
:1030D00002AB150000210E22C0181EF0C7F8102305
:1030E00004ACA66002260993039B01210C482780AB
:1030F000267308940A950B93FDF752FB041E0CDD12
:1031000000233200009308A9FDF7DCFB0500200036
:10311000FDF75CFC28000DB0F0BD91256D42F9E78C
:10312000060F0000F0B5070012208DB00D0014004E
:1031300000210E2268441EF099F8082304AE337370
:10314000DB18039308950A946B1E9D41631E9C41F6
:10315000AD00A40001210D480B943780029609951B
:10316000FDF71EFB041E0DDD02230122009302A9C0
:1031700008ABFDF7A7FB05002000FDF727FC2800A2
:103180000DB0F0BD91256D42F9E7C046060F000075
:1031900013B50A240094FFF703FE16BDF0B507002F
:1031A00012208FB00E00039200210E2268441D00F1
:1031B0001EF05CF8292304AC2373193B099303AB7D
:1031C0000A93042327800B93A6600894149B002D78
:1031D00004D1002B04D08724644214E0002BFAD0E1
:1031E000149B01210A480C950D93FDF7D9FA051E91
:1031F0000CDD00230322009308A9FDF763FB040004
:103200002800FDF7E3FB20000FB0F0BD9124E3E7B9
:10321000060F0000802210B55200002101481EF068
:1032200025F810BDA03C0008802210B552000021F6
:1032300001481EF01BF810BDA03C0008002370B52B
:10324000094CDD002A191688002E05D15668002E7B
:1032500002D12853516070BD0133202BF1D13B22A4
:103260000249034816F044FAA03C0008E08A021024
:10327000368B0210002370B5084ADC00A1180D88B7
:10328000854203D10023A3524B6070BD0133202B34
:10329000F3D148220249034816F02AFAA03C00085C
:1032A0000A8B02106E8B021070B580240023084D2B
:1032B00064005A191688864202D152688A4204D0A4
:1032C0000833A342F5D1002070BD0120FCE7C046C1
:1032D000A03C0008084B5A68904204D01A690121AA
:1032E000904201D0704700210C224A43002199509E
:1032F0009B1859601972F5E7A03D0008F0B599B028
:10330000302200210CA81DF0B1FF80200CA9800103
:10331000FDF70AFD041E16D10C9B022B15D0032BC2
:1033200000D1EBE0012B00D0F0E0FC2118004900B7
:103330001DF044F8011E40D00D98FDF7B7FF2100A5
:103340000D98FDF7EFFE19B0F0BD09AD01000C229C
:1033500028001DF08BFF109B0C2B00D0CAE02A0028
:1033600021000D98FDF75CFE109B0593834204D06D
:10337000694A6A496A4816F0BBF928782A3805284C
:1033800000D9B9E022F0CEF803122C4E529500235A
:1033900008A90F98089304F00FFF041ECFD1010075
:1033A000042308AA0D98FDF765FEC8E7149E0120C6
:1033B00031001DF003F8051E01D18D243DE0010010
:1033C00032000F9804F002FF041E05D10100330003
:1033D0002A000D98FDF74EFE28001DF085FBAEE794
:1033E00068880E99FFF760FF002825D0119B07AA77
:1033F00001210D98FDF714FE042801D0494AB8E7D1
:10340000129B08AA02210D98FDF70AFE042801D09C
:10341000454AAEE768880F9B089A079905F046F879
:1034200004008CE70F9804F07DFEF9E768880E9998
:10343000FFF73AFF002802D1882464427FE7119900
:1034400001201CF0BBFF061EB7D0119B020001211A
:103450000D98FDF7E5FD119B0593834201D0334A9A
:1034600087E7129901201CF0A9FF071E03D1300045
:103470001DF03AFBA1E7129B020002210D98FDF717
:10348000CFFD129B834201D0294A72E76988AA685E
:103490000293119B03920093019705936A6833008E
:1034A0000F9805F030F8040038001DF01DFB3000C7
:1034B00093E768880E99FFF7F7FE0028BCD01199B2
:1034C00001201CF07BFF061E00D176E7119B020055
:1034D00001210D98FDF7A4FD119B834201D0154AEF
:1034E00047E76A6869880F980092320005F045F84E
:1034F0000400DCE79124A0E786249EE70F9804F0FF
:1035000011FE0F98002800D067E718E70A4A034920
:103510000A4816F0EDF8C046FC0500008A8C02103F
:10352000A08902102D06000033060000520600009C
:103530005F060000810600009E060000C0890210A0
:10354000F0B5A5B08021C3480906FDF7ADFB1022F8
:103550000990104229D00021203218A81DF086FEC3
:1035600018A91020FDF7E0FB00281ED1189B022BA4
:1035700006D0032B02D0012B00D0AAE0002410E0DB
:1035800005F064F9041E0CD1B34A136801331360CB
:10359000012B06D101001822B0481DF067FEFFF78D
:1035A00039FE21001998FDF7BDFD2024099B234217
:1035B00023D03022002118A81DF058FE200018A9A1
:1035C000FDF7B2FB041E18D1189B022B00D185E039
:1035D000032B00D15DE1012B00D062E1B421180082
:1035E00049001CF0EBFE011E00D15EE11998FDF7C9
:1035F0005DFE21001998FDF795FD4024099B2342AB
:1036000022D03022002118A81DF030FE200018A979
:10361000FDF78AFB041E17D1189B022B00D146E14F
:10362000032B00D161E2012B00D069E2E0211800F8
:103630001CF0C4FE011E00D165E21998FDF736FEAC
:1036400021001998FDF76EFD8024099B6400234238
:1036500022D03022002118A81DF008FE18A9200051
:10366000FDF762FB061E17D1189B022B00D14CE21E
:10367000032B00D12CE3012B00D030E34C211800A8
:103680001CF09CFE011E00D12CE31998FDF70EFEE4
:1036900031001998FDF746FD8024099B234200D193
:1036A0008EE33022002118A81DF0E0FD18A92000AB
:1036B000FDF73AFB051E00D082E3189B022B00D1D8
:1036C00012E3032B03D0012B01D000F020FC0027D4
:1036D00072E392226249634816F00AF80FAD0100C6
:1036E000082228001DF0C2FD1C9B082B00D0CAE058
:1036F0002A0021001998FDF793FC1C9B0A9398421D
:1037000004D0E1225849594800F053FE2878153872
:10371000052800D9B9E021F005FF03131F4D78B249
:1037200068881A99FFF7C0FD002802D188246442F6
:103730005FE769886A681B9803F0F8FE040058E7A1
:1037400068881A99FFF7B0FD0028EFD069886A6889
:103750001B9803F0F0FEF1E7C8231D9D5B002900D4
:103760009D4200D9190001201CF028FE071E00D13F
:103770008DE0002D04D12C0038001DF0B5F938E79C
:10378000C8232E005B009D4200D91E0033003A0082
:1037900001211998FDF744FC864202D0892252008B
:1037A000B0E7320039001B9803F0CAFE041EE3D1D3
:1037B000AD1BDEE700241D9B0CAA012119980C9477
:1037C000FDF72EFC1D9B0A93984201D09522E6E757
:1037D0000C9901200D941CF0F1FD051E57D001003D
:1037E0000DAB0C9A1B9803F0DBFE041E0BD10100FD
:1037F0000D9B2A001998FDF73DFC04230DAA012119
:103800001998FDF737FC2800B7E700230DAA0D93A0
:1038100001211D9B1998FDF703FC1D9B0A939842FB
:1038200003D11E990D9B994201D0A322B7E7012035
:103830001CF0C4FD051E2AD01E9B0200022119980F
:10384000FDF7EEFB1E9B0A93984211D05222FF32E5
:1038500058E7C046F07F0000B83D0008A03D0008D2
:10386000A88B0210C0890210DC8B0210A089021004
:103870000D9A29001B9803F0C2FE0400C3E71B98B1
:1038800003F032FD5AE7912451E786244FE78D2457
:103890004DE71B9803F028FD1B98002800D06CE72B
:1038A000A7E67422B749FF3215E7B74CA1E60FAD82
:1038B0000100082228001DF0D9FC1C9B082B00D019
:1038C0000DE12A0021001998FDF7AAFB1C9B0A9321
:1038D000984203D0CD225200AC4914E728780E3824
:1038E000062800D9FDE021F01DFE040A37689398F0
:1038F000CE0069681B9803F00FF80400A0E6C82307
:103900001D9D5B0029009D4200D9190001201CF07B
:1039100055FD071E00D1E6E0002D04D12C00380033
:103920001DF0E2F88CE6C8232E005B009D4200D912
:103930001E0033003A0001211998FDF771FB864201
:1039400001D0DB22C7E7320039001B9803F028F8CA
:10395000041EE4D1AD1BDFE700241D9B0CAA01214E
:1039600019980C94FDF75CFB1D9B0A93984201D0BB
:10397000E722B0E70C9901200D941CF01FFD051EF5
:1039800000D1B0E001000DAB0C9A1B9803F012F8C7
:10399000041E0BD101000D9B2A001998FDF76AFB4C
:1039A00004230DAA01211998FDF764FB28001DF0DE
:1039B0009BF81B98FFF78EFC42E600230DAA0D939F
:1039C00001211D9B1998FDF72BFB1D9B0A93984223
:1039D00003D11E990D9B994202D0EC22FF327BE766
:1039E00001201CF0EBFC051E7DD01E9B0200022175
:1039F0001998FDF715FB1E9B0A93984201D0FB22F4
:103A000069E70D9A29001B9803F020FC0400CDE71C
:103A10001B9802F033FF0400CBE700255C4B1A989B
:103A20001A680D951B99904202D15E68B14214D07C
:103A3000DD68A84213D11E69B14210D101220D9256
:103A40000C214A439B181A7A002101321A721998E4
:103A500004230DAAFDF70EFBF2E52A00F0E700268D
:103A60000D96B24202D15E68002E06D0002D33D1F1
:103A70001A69002A30D101320D920C256A43985000
:103A80009B185960DFE71D9B0DAA01211998FDF7CE
:103A9000C7FA1D9B0A93984202D0852292001BE729
:103AA0000D9B1A9A012B17D80C255D43384FEB5903
:103AB0009A4211D17E19706800280DD01B9903F02D
:103AC000E5FB337A0400013BDBB23372002B00D0FC
:103AD000B6E5EB517360B3E589246442B0E5912407
:103AE000FBE78624F9E78D24F7E71B9802F0C6FE72
:103AF0001B98002800D1A3E5FFF7ECFB1B980FE70C
:103B0000244A2249E7E5204C9AE50DAC0100082241
:103B100020001DF0ABFB1C9B082B00D0D4E0220042
:103B200031001998FDF77CFA1C9B0A93984202D049
:103B3000194A1A49E7E520781B38062800D9C5E05C
:103B400021F0F0FC04142E4B629FBE0060881A998D
:103B5000FFF7AAFB002802D18826764298E5618803
:103B600062681B9804F0E4F8060091E560881A99F1
:103B7000FFF79AFB0028EFD0618862681B9804F079
:103B8000DCF8F1E7DC8B021001000080EE8B021004
:103B9000A03D000833020000950300002D8C0210A8
:103BA0000021209C10220FA80C911DF05FFB0CAB94
:103BB00022000FA91B9804F0E7F8061E00D067E565
:103BC0000C9B0FAA01001998FDF754FA04230CAAC4
:103BD00001211998FDF74EFA5AE51D9C102200218B
:103BE0000FA81DF043FB23000FAA01211998FDF730
:103BF00017FA844202D0F22292009AE722000FA91B
:103C00001B9804F09FF8AFE700231D9E01203100B0
:103C1000209F0F931CF0D2FB041E12D00200330031
:103C200001211998FDF7FCF9864201D0C74A80E7C7
:103C3000390001201CF0C2FB051E04D120001CF03D
:103C400053FF8D2689E70FAB0193320003000097E5
:103C500021001B9804F0C4F8061E0BD101000F9B35
:103C60002A001998FDF706FA04230FAA01211998D2
:103C7000FDF700FA20001CF037FF28001CF034FF8D
:103C800006E50023209D012029000F931CF096FBE0
:103C9000041ED6D001000FAB2A001B9804F0D4F804
:103CA000061E0BD101000F9B22001998FDF7E2F9C7
:103CB00004230FAA01211998FDF7DCF92000DDE7A4
:103CC0001B9803F061FF4FE7912646E7862644E7FD
:103CD0001B9803F059FF1B980028CFD1D8E49C4AC9
:103CE0009C49F8E49C4ED3E41C9B91270A93102B2B
:103CF00000D008E1199E0FAC0100102220001DF039
:103D0000B5FA1023220029003000FDF789F91C9B29
:103D10000A93984202D0952292002BE060881A996B
:103D2000FFF7C2FA002800D1ECE0207824380328FD
:103D300000D9EAE021F0F6FB02619999002320996D
:103D400001200D931CF03AFB041E71D01D99012037
:103D50001CF034FB05002000002D67D01D9B2A00BD
:103D600001211998FDF75CF91D9A03000A9290420F
:103D700002D07A4A7A49C6E40FA90DAA488802926D
:103D8000209A00940A92019210992A0003F06EFC86
:103D9000071E05D101000D9B22001998FDF76AF955
:103DA00004230DAA01211998FDF764F928001CF0DD
:103DB0009BFE20001CF098FE39001998FDF7B2F91F
:103DC0008024099BA400234200D133E1302200214A
:103DD00018A81DF04BFA18A92000FCF7A5FF051E36
:103DE00000D027E1189B022B00D194E0032B02D0D6
:103DF000012B00D048E1002418E11D9901201CF09E
:103E0000DDFA051E14D01D9B020001211998FDF753
:103E100007F91D9B0A93984201D0524AAAE71E99BE
:103E200001201CF0CBFA061E04D128001CF05CFE19
:103E30008D2768E002001E9B02211998FDF7F0F81B
:103E40001E9A03000A92904201D0474A92E71D9AB7
:103E50006088019200953200616803F003FD07005D
:103E600028001CF041FE3000A4E700231D9901202A
:103E70000D931CF0A3FA051EDAD01D9B0200012150
:103E80001998FDF7CDF81D9B0A93984201D0B022F6
:103E900042E7A3682099EB1801200A931CF08EFAE0
:103EA000061EC2D0A36860886168E26824780B931C
:103EB000A4466346209F0DAC04940397029601929A
:103EC000262B18D10A9B2A0000930B9B03F080FD40
:103ED000071E05D101000D9B32001998FDF7CAF8A5
:103EE0000423220001211998FDF7C4F830001CF0CA
:103EF000FBFD28005EE70A9B2A0000930B9B03F062
:103F0000DBFDE5E788277F4256E78627FBE7174A70
:103F10001349FFF7E0FB1C9E9124242E56D1199FD4
:103F20000FAC0100320020001DF0A0F93300220088
:103F300029003800FDF774F81C9B0A93984219D0A9
:103F4000C62292000A49FFF7DEFBC046DF030000ED
:103F5000240400002D8C0210010000807302000078
:103F6000018C021095020000A2020000F70200007E
:103F70001A8C021060881A99FFF796F9002800D170
:103F80007EE02378223B012B00D97BE01D990120A4
:103F90000D951CF013FA051E17D01D9B0200012180
:103FA0001998FDF73DF81D9B0A93984201D0B54A38
:103FB000C8E7E3682099EB1801200A931CF0FEF98A
:103FC000061E05D128001CF08FFD8D2464422DE0D3
:103FD000E268238960886168944622692478209F7A
:103FE0000B9323000DAC0694059704960392222BA5
:103FF0003CD10A9B00950293634614AA01930B9B44
:1040000003F0A0FF041E0BD101000D9B3200199894
:10401000FDF730F804230DAA01211998FDF72AF8BD
:1040200028001CF061FD30001CF05EFD2100199895
:10403000FDF778F88024099BE400234200D19EE03C
:104040003022002118A81DF011F9200018A9FCF752
:104050006BFE041E00D092E0189B022B19D0032B9C
:1040600002D0012B00D0D6E1002484E00A9B009509
:104070000293634614AA01930B9B03F0D5FFC1E79B
:104080008824A3E78624A1E7DB227F499200FFF77B
:1040900022FB1C9B0A93102B00D0B6E1199E0FAD9A
:1040A0000100102228001DF0E1F810232A00210051
:1040B0003000FCF7B5FF1C9B0A93984203D0734A6B
:1040C0007349FFF720FB287B1A9E0238272800D966
:1040D0009DE121F031FA7D004F015C0177018F01F4
:1040E000A000AF00E10007013900710028009C0129
:1040F0009C019C019C019C019C019C019C019C01D8
:104100009C019C019C019C019C019C019C019C01C7
:104110009C019C019C019C019C019C019C019C01B7
:104120009C019C011D0128883100209FFFF7BCF8ED
:10413000002854D028880DA903F0F8FE041E1AD1D7
:104140003B000DAA210096E0288831001D9CFFF756
:10415000ABF8002843D023000DAA01211998FCF7E1
:104160005FFF844202D08E22D200A9E728880DA9E1
:1041700003F0B6FE040021001998FCF7D3FF802459
:10418000099B2401234200D162E10021302218A8BA
:104190001DF06CF818A92000FCF7C6FD002800D01F
:1041A00056E1189B022B00D139E1032B02D0012BE1
:1041B00000D08AE1002447E128883100209FFFF7E2
:1041C00073F800280BD028880DA903F09FFEB5E7EF
:1041D000288831001D9CFFF767F8002802D1882449
:1041E0006442C8E7210001201CF0E8F8061E00D157
:1041F0000FE10200230001211998FCF711FF84420E
:1042000001D0244A5CE7288823003200A96802F024
:10421000A5FA040062E028883100FFF745F800287D
:10422000DDD0288802F0C6FA041EA4D12888FFF742
:1042300021F8A0E70023288831000C930D93FFF7A5
:1042400033F800281BD028880DAA0CA902F0C9FA5F
:104250000400209B0A93032B05D904230CAA0021F8
:104260001998FCF707FF219B0A93032B00D882E7DC
:10427000042301210DAA1998FCF7FCFE7BE7882492
:104280006442E6E7320300001A8C02104904000081
:10429000458C02109B04000028883100209CFFF709
:1042A00003F800289BD0210001201CF087F8061E8F
:1042B00000D1AEE028880DAB2200310002F0B2FA46
:1042C000041E05D101000D9B32001998FCF7D2FEA7
:1042D00004230DAA01211998FCF7CCFE30001CF034
:1042E00003FC48E728883100209CFEF7DDFF00280A
:1042F00000D174E7210001201CF060F8061E00D1F7
:1043000087E028880DAB2200310002F0A0FAD7E741
:10431000288831001D9F1E9CFEF7C6FF002800D193
:104320005DE73B000DAA01211998FCF779FE874251
:1043300001D08B4AC4E68B4BAA6800269A4211D161
:10434000B4420FD0210001201CF038F8061E60D0C6
:104350000200230002211998FCF762FE844201D07A
:10436000814AADE62888009433000D9AA96804F0CC
:104370006FF94EE7280004F057FB041E00D0FAE660
:1043800028883100FEF75AFF02232A00DAE61D9B37
:104390000DAA012119980E96FCF742FE1D9B0A9367
:1043A000984201D0714A8BE6042804D0704A7149C2
:1043B000714815F09DF92B000D990E9A686804F06C
:1043C0005EFBDAE71D9B0DAA012119980E96FCF7FA
:1043D00027FE1D9B0A93984201D0684A70E6042884
:1043E00001D0674AE3E72B000D990E9A686804F044
:1043F00021FBC2E728883100FEF756FF002800D1D4
:10440000EDE6288804F068FB0EE79124E8E68624B0
:10441000E6E68D24E4E65B4A5649FFF75CF9209E08
:10442000012031001BF0CAFF051E52D0310004F0FC
:10443000CDF8041E05D1010033002A001998FCF7BD
:1044400019FE28001CF050FB21001998FCF76AFEA9
:104450008024099B6401234215D00021302218A832
:104460001CF004FF18A92000FCF75EFC00280AD10C
:10447000189B022B30D0032B01D0012B3ED1002101
:104480001998FCF74FFE099B9B0401D5FEF736FFF8
:104490008024099BE401234201D1FFF753F8302225
:1044A000002118A81CF0E2FE18A92000FCF73CFC33
:1044B000061E01D0FFF746F8189B022B22D0032BD3
:1044C00001D0012B43D100243BE02F4A2F49FFF7B5
:1044D00002F98D246442B7E72D4A1368002B01DDF1
:1044E000013B136011680029C9D1182229481CF02A
:1044F000BDFEFEF799FE04F08DF9C0E7BA22264909
:10450000FFF7E9F880231C9CDB009C4223D82100A4
:1045100001201BF053FF051E20D0020023003100B4
:104520001998FCF77DFD844203D01C4A1C49FFF713
:10453000EAF82100280004F05FF8040028001CF0CD
:10454000D3FA21001998FCF7EDFDFEF7FBFF154AA1
:104550001349FFF7C0F887246442F2E78D24FBE794
:1045600011050000000001701E0500003905000063
:104570003D050000458C0210AA8C02104E0500007B
:104580005205000076050000D3050000788C02106B
:10459000B83D0008A03D0008C28B02109E05000037
:1045A000628C0210AA05000010B5041E04D1D322AB
:1045B0001249134815F09CF8124816F033FF0B21EE
:1045C000E061114A002803D1D8220C490F48F1E7D5
:1045D0004B01D31A6933FF3301391C600029F7D12D
:1045E000E2600B480B4A17F085FD6060002803D19C
:1045F000E22202490848DDE710BDC046E38C021004
:10460000108A0210888D021030020008048D0210FA
:104610004135001090030008448D021080235B0197
:104620000360002070470000802310B55B019842B2
:1046300002D100F0F1FB10BD0048FCE7E803008068
:10464000BFF34F8F034B044ADA60BFF34F8FC0466E
:10465000FDE7C04600ED00E00400FA05882030B513
:10466000012187B04002FCF79BF8002405002000E0
:10467000A54215DD03AB049304230593033B00938C
:10468000220004AB210028000394FCF71BF98023CF
:104690001B06984200D103942800FCF797F9039871
:1046A00007B030BD10B5FFF7CBFF10BD036907B5EC
:1046B000042B02D0802000060EBD01AA0021406814
:1046C000FCF7AEFC0428F5D10198FFF7ADFFF3E746
:1046D00073B5066A0500042E0CD101A8FFF79EFFF2
:1046E000041E05D10100330001AA6868FCF7C2FC72
:1046F000200076BD80242406FAE70000036810B588
:104700000400022B05D0032B01D0012B07D100217F
:1047100001E0884701006068FCF704FD10BD4A22F3
:104720000149024814F0E4FFB48D0210C48D021058
:1047300070B58CB030220021684680261CF096FDB2
:104740001025360631007020FCF7AEFA040028422E
:1047500009D069462800FCF7E7FA0028F2D10E4993
:104760006846FFF7CBFF2020044208D06946FCF7DB
:10477000DBFA0028E6D109496846FFF7BFFF402071
:104780000442DFD06946FCF7CFFA0028DAD10449A9
:104790006846FFF7B3FFD5E7D1460010AD460010DD
:1047A000A546001010B5041E04D170220F49104810
:1047B00014F09EFF0F4816F035FEE061002810D07F
:1047C0000D4B0E4A9C629C649C60E36000210C4887
:1047D00017F090FC6060002807D17F220349094848
:1047E000E6E7752201490848E2E710BDE88D0210AE
:1047F000108A02107C8E0210B40300081404000812
:10480000314700103A8E0210FC8D0210184B98426E
:1048100023D010DC174B984223D004DC164B98426F
:1048200021D0842312E0154B984218D0144B9842A3
:10483000F7D18E230AE0134B984209DC124B9842C1
:1048400013DA124BC01892230128EAD85B4202E027
:1048500000239842E5D1180070478523F6E78C23A2
:10486000F4E79823F2E78723F0E79523EEE7C046C5
:104870001201FF800201FF800101FF800701FF801C
:104880000B01FF804601FF804501FF80E5FE007FB0
:10489000F8B53F240021A446069E154D67463740D3
:1048A000EF5D4C1CE4B24754B6091BD13F270231DF
:1048B0002336C9B2065516003E40AE5D92094654F5
:1048C0009E06324316004C1C9B09E4B21E430BD1DA
:1048D0000231C9B20655132908D9B722054906483D
:1048E00014F0E4FC2100D9E72100E4E7F8BDC0465C
:1048F000A48E0210E48E02105C8F0210F0B589B015
:104900000393002315000693026807930193059310
:1049100005AB00939769082306AA04000E00B84768
:1049200000280FD1059B01001848082B0FD1069ACB
:104930002B689A4204D80CD1079A6B689A4208D91E
:10494000134804E0134B01219842F0D0124814F0B0
:10495000CFFE9A4215D22A0006A92000039B984751
:1049600000280CD10022236800925F692A000823E6
:1049700031002000B847002805D00848E7E708487C
:10498000E5E70029EED109B0F0BDC046868F0210E0
:10499000D28F02100701FF80AA8F02101E90021012
:1049A00001900210F0B51D00012389B00F0010998D
:1049B00004001600994319D113002B4319D0132278
:1049C00003A81CF053FC2B00320003A80097FFF74C
:1049D0005FFF109A236800925D690F9A0E9B03A9EE
:1049E0002000A847FFF712FF09B0F0BD8620404223
:1049F000FAE78720FBE7F0B51D0013008BB0040039
:104A00000F0016002B4335D00021132205A81CF0FF
:104A10002DFC32002B0005A80097FFF739FF236813
:104A200003AADB6905A92000984700281ED1039A34
:104A3000109B9A421ED311995B188B421AD39A424B
:104A400002D28A20404213E0109A2368019202AAFF
:104A5000009202909D69129A119B05A92000A84717
:104A6000002803D1029B119A9342EAD3FFF7CEFEAE
:104A70000BB0F0BD8720E5E7F0B51E0013008DB048
:104A8000050003911700129C33431FD0002113220D
:104A900007A81CF0EBFB039B3A00009307A8330028
:104AA000FFF7F6FE2B6805AADB6907A928009847DF
:104AB000002807D10123069A60601A4200D0636083
:104AC000059B2360FFF7A2FE0DB0F0BD872040429A
:104AD000FAE7F0B51D00130089B004000F001600BE
:104AE0002B4313D00021132203A81CF0BFFB32007C
:104AF0002B0003A80097FFF7CBFE236803A91B6ACE
:104B000020009847FFF782FE09B0F0BD87204042A1
:104B1000FAE710B503681B699847FFF777FE10BDE9
:104B20000020704770B50B4C2378BFF35B8F0A4DA4
:104B3000DB070CD4200014F0BFFE002807D02000B3
:104B400014F0DEFE054A0649280014F0A9FE2800EC
:104B500070BDC0468082000888820008C00000083E
:104B6000F573011037B5FFF7DDFF0A4912F048FC75
:104B70006A461100084B1860084B30CB30C1002842
:104B800002D1074814F0B4FD064B0749FFF7B6FE03
:104B900037BDC0464C900210D882000844900210E5
:104BA00069900210214B00108A900210F0B50C4C55
:104BB0001F00236885B005001600002B01D1FFF708
:104BC000D1FF0C9B320002930B9B290001930A9B9F
:104BD000009320683B00FFF7E5FE05B0F0BDC0463E
:104BE000D8820008F0B50C4C1F00236885B0050082
:104BF0001600002B01D1FFF7B5FF0C9B320002938A
:104C00000B9B290001930A9B009320683B00FFF750
:104C1000F2FE05B0F0BDC046D8820008F7B5094CD9
:104C20001F00236805001600002B01D1FFF79AFF33
:104C3000089B3200009329003B002068FFF71CFF0F
:104C4000FEBDC046D8820008F8B5084C1F00236896
:104C500005001600002B01D1FFF784FF32003B0056
:104C600029002068FFF735FFF8BDC046D88200084C
:104C700010B5FFF757FF064912F0C2FB054B18604D
:104C8000002802D1044814F033FDFFF742FF10BDA5
:104C90004C900210D88200086990021030B58BB099
:104CA00002900391002B01D1002A22D102A9049184
:104CB000069308210EAB0893042305910F4807398A
:104CC00007920993FBF76CFD051E15DD00230322F7
:104CD000009304A9FBF7F6FD802304001B0698420D
:104CE00001D1922464422800FBF770FE20000BB033
:104CF00030BD87246442F9E79224FBE7011A0100E2
:104D000030B58DB00392109A04900591002A01D11C
:104D1000002B24D104A908910821099103A90A9123
:104D20008D20042140020B91033906920793FBF773
:104D300037FD051E16DD01230222009308A906ABEC
:104D4000FBF7C0FD802304001B06984201D192248A
:104D500064422800FBF73AFE20000DB030BD8724E6
:104D60006442F9E79224FBE7F0B58BB0029003911F
:104D7000161E24D000230493059302AB0693082348
:104D800004AC01211048079308940993FBF708FD30
:104D9000071E17DD012208AB009206A9FBF792FD62
:104DA0000CCC0CC6802305001B06984201D192252D
:104DB0006D423800FBF70AFE28000BB0F0BD8725D6
:104DC0006D42F9E79225FBE7021A010030B587B082
:104DD00002AB049308230290039101210D4805932F
:104DE000FBF7DEFC051E12DD00230122009304A95F
:104DF000FBF768FD802304001B06984201D1922432
:104E000064422800FBF7E2FD200007B030BD922489
:104E10006442F9E7031A010037B501210C48FBF79A
:104E2000BFFC051E11DD00210B0000910A00FBF7FD
:104E300049FD802304001B06984201D1922464425C
:104E40002800FBF7C3FD20003EBD92246442FAE730
:104E5000041A010010B5FFF70BFF10BD002300225C
:104E600013B50092019303690400082B02D080203F
:104E7000000616BD6A4600214068FCF7D1F80828F4
:104E8000F5D1009A019BA068FFF7DEFEF1E770B54F
:104E900086B004AE04000822002130001CF0E6F9C0
:104EA00000230022029203932369082B04D080255B
:104EB0002D06280006B070BD236A082BF7D102AA80
:104EC00000216068FCF7ACF80828F0D1029A039B37
:104ED0000096A068FFF7A2FE051EEAD10100236A32
:104EE00032006068FCF7C6F8E3E7002300220021E7
:104EF00070B588B006920793036904000591082BEA
:104F000004D080252D06280008B070BD4569042D09
:104F1000F7D106AA4068FCF783F80828F1D12B00E6
:104F200005AA01216068FCF77BF80428E9D1206A12
:104F30001BF0D0FD061E1AD0236A02900193059B38
:104F4000A0680093069A079BFFF74CFE051E05D14B
:104F50000100236A32006068FCF78CF8226A0021A5
:104F600030001CF083F930001BF0BEFDCBE792252A
:104F70006D42C8E700230022F0B5002689B00692F2
:104F800007930369040047690596082B04D0802421
:104F90002406200009B0F0BD8569042DF7D106AACA
:104FA00031004068FCF73CF80828F0D12B0005AA36
:104FB00002216068FCF734F80428E8D138001BF0BF
:104FC00089FD051E0BD06369020001216068FCF7B2
:104FD00027F86369984205D028001BF085FD9224CC
:104FE0006442D6E7059B019502930097069A079BBA
:104FF000A068FFF7DBFD3A000400310028001CF038
:1050000035F928001BF070FDC3E70000036810B5F8
:105010000400022B05D0032B01D0012B07D1002166
:1050200001E0884701006068FCF77CF810BDA02211
:105030000149024814F05CFB9A900210C48D0210E2
:1050400070B58CB03022002168468025F8261CF00F
:105050000DF92D06760029003000FBF725FE04002F
:1050600012F0B4F8031E04D0B3222149214814F0F1
:105070003FFB2020044208D06946FBF755FE00287C
:10508000E9D11D496846FFF7C1FF1020044208D04E
:105090006946FBF749FE0028DDD118496846FFF74D
:1050A000B5FF4020044208D06946FBF73DFE0028CA
:1050B000D1D113496846FFF7A9FF8020044208D0E8
:1050C0006946FBF731FE0028C5D10E496846FFF757
:1050D0009DFF802040000442BDD06946FBF724FEBE
:1050E0000028B8D108496846FFF790FFB3E7C046EB
:1050F000AA900210B4900210754F0010EB4E0010F1
:105100008F4E00105D4E0010554E001010B5041E5D
:1051100004D184221149124814F0EAFA114816F019
:1051200081F9E061002814D00F4B00211A00883269
:1051300014609C629C649C669C60E3600B4A0C4813
:1051400016F0D8FF6060002807D193220349094870
:10515000E2E7892201490848DEE710BDE590021028
:10516000108A02106491021038040008D804000864
:105170004150001027910210EE900210002070475D
:1051800000207047012000217047C1698069704785
:1051900000487047F2910210F0B5431C87B00593A8
:1051A000DB7F0500002B00D143622E002436012155
:1051B000300014F07FF900230490019301280AD1F4
:1051C0002F1D380000F0EAF90190002806D004995C
:1051D000300014F088F9019807B0F0BD29696A69B8
:1051E000AB69EC695B18544138000293039400F0FA
:1051F000A1F90400380000F099F9039B2418002B52
:1052000002D1029BA34206D90121300014F06BF9B0
:10521000194B0193DFE76B69380002932C6900F0AA
:1052200085F9019B029A934201D1A042ECD82C69E6
:105230006B691C4304D1380000F078F96C61286177
:10524000AC69EB691C4312D1380000F073F9060019
:10525000380000F06BF927003200230006002869AF
:10526000696992197B41121A8B41AA61EB61012392
:10527000059AD377AFE7C0465FF0FFFF421C0300FB
:10528000002010B5D27F824202D0181D00F046F9EE
:10529000002110BD10B5431CDB7F002B03D0043070
:1052A00000F04CF910BD01204042FBE770B5451CF1
:1052B0000400E87F002801D1606270BD2000012158
:1052C000243014F010F9030000208342F5D1E87770
:1052D000201D00F081F9F0E710B50400044B0833FD
:1052E0000360FFF7E3FF201D00F017F9200010BD59
:1052F000FC91021010B50400FFF7EEFF200014F03F
:1053000081FC200010BD421C0300002010B5D27F9C
:10531000824203D0181D196900F004F9002110BD64
:10532000411C0300002010B5C97F814204D01969D7
:10533000181D891800F0F6F8002110BDF7B51F0000
:10534000431CDB7F04000D001600002B01D11B481D
:10535000FEBD03689B6A984702000B0030003900CD
:1053600020F0DEFA1A43F2D1236820009B6A9847A6
:1053700002000B000898099920F0D2FA1A43E6D1EE
:10538000089A099B92197B4100920193236820009F
:105390009B6B9847019B8B42D9D802D1009B8342DB
:1053A000D5D82269636992197B411100201D0A003A
:1053B000089B290000F048F9CAE7C0465FF0FFFFEC
:1053C000D3B51F00431CDB7F04001600002B01D166
:1053D0001D48D6BD0368196B3B00884702000B00CF
:1053E0003000390020F09CFA1A43F1D1069A079B4D
:1053F00092197B4100920193009801990122524237
:10540000D31712184B4121682000096B884702000E
:105410000B000098019920F083FA1A43D8D1236831
:1054200020009B6B9847019B8B42D1D802D1009BF7
:105430008342CDD822696369B6185F41201D069A60
:10544000310000F087F9C4E75FF0FFFFF7B51F00F8
:10545000431CDB7F04000D001600002B01D11B480C
:10546000FEBD03685B6A984702000B0030003900FC
:1054700020F056FA1A43F2D1236820005B6A98475D
:1054800002000B000898099920F04AFA1A43E6D165
:10549000089A099B92197B4100920193236820008E
:1054A0009B6B9847019B8B42D9D802D1009B8342CA
:1054B000D5D82269636992197B411100201D0A0029
:1054C000089B290000F0A4F8CAE7C0465FF0FFFF80
:1054D0000E4B73B50833040008C015000E0000F031
:1054E0001BF80023621C26616361A561E361D37729
:1054F0006362721C01D09D4206D1009300230449CF
:105500001A00044814F01CF9200076BDFC9102102A
:10551000829102100101FF807047704710B517F0AB
:105520009BFC10BD10B517F087FC10BD10B517F02F
:1055300095FC10BD10B517F094FC10BD10B517F018
:1055400093FC10BDF8B50600056804000834002D72
:1055500015D10F4F3868002803D00121494215F0BA
:1055600077FF3568002D05D1251E02D0200014F0EC
:10557000E5FB34603868002801D015F07FFFAC42AD
:1055800004D06C220349044813F090FE2000F8BDBB
:1055900040A20008449202108A92021070B50500E1
:1055A0000C4E3000FFF7CEFF14F0D0FB280017F0B0
:1055B00003FC0400280017F04FFC14F011FB686096
:1055C0003000FFF7BFFF14F0D9FB601E844160423A
:1055D00070BDC046408B000870B506000B4D28001A
:1055E000FFF7B0FF14F0B2FB300017F0E7FB441EEA
:1055F000A04144427068002801D014F007FB280045
:10560000FFF7A0FF14F0BAFB200070BD408B00082C
:10561000F7B50F00160005000A4C01932000FFF7B4
:1056200091FF14F093FB3A003100019B280013F026
:105630004BFB05002000FFF785FF14F09FFB2800BF
:10564000FEBDC046408B0008F0B587B001910092C6
:105650000293050017F000FC0700280017F001FC7A
:105660000600280017F0FAFB3900039000981FF09D
:10567000F3FF0C1E69D1019B002B66D0029A009BA0
:105680009B18039AB618B3425FD83148FFF75AFF08
:1056900014F05CFB029B002B4FD0002C4BD10099E7
:1056A000280017F0C9FB0400010000981FF0D4FF88
:1056B000029B601A984200D918000322019B1342F2
:1056C00001D1B8422ED20600B84200D93E003200C5
:1056D000019968681BF038FDBE4205D26B68BA1BA1
:1056E0009819FF211BF0C2FD6B68049705931023E6
:1056F0000393049B059A0099280017F069FB041E88
:1057000006D0039B013B0393002BF2D1012464429A
:10571000029B9B1B0293009B9B190093019B9B196F
:105720000193B7E739001FF011FF7843019B049004
:1057300006000593DBE7012464420548FFF702FFFA
:1057400014F01CFB200007B0F0BD01246442F9E70F
:10575000408B0008F7B50D001700060017F081FB1D
:105760000400300017F07AFB2018EC19A04203D295
:10577000012464422000FEBDA0421FD81948FFF753
:10578000E1FE14F0E3FA0024002F24D0002C20D1F5
:10579000102301932900300017F012FB041E06D0DD
:1057A000019B013B0193002BF4D1012464422900A9
:1057B000300017F041FB3F1A2D18E5E721003000BB
:1057C00017F03AFB010020001FF046FF0029D5D05A
:1057D000CEE7012464420348FFF7B4FE14F0CEFA8A
:1057E000C8E7C046408B0008704710B5040014F0AD
:1057F00009FA200010BD000010B5037D002B04D174
:105800000248FFF79FFE14F0B9FA10BD708B000834
:1058100016204042704710B503681B69984710BDB9
:1058200010B503689B69984710BD10B503689B6A63
:10583000984710BD0020814200D1193870470120DF
:10584000704716204042704716204042704770470C
:1058500010B503689B68984710BD000010B50400A0
:10586000084B0022083323600023A260E36000237A
:105870000800A16123616361034913F05BFC200010
:1058800010BDC046C49602105158001007B5010063
:1058900000900831806913F08EFC07BD010010B53F
:1058A0000831806913F0B0FC10BD000010B5040091
:1058B000034B08330360FFF7F1FF200010BDC04623
:1058C000C496021010B5036801221B690021984795
:1058D00010BD002210B5036811001B69984710BD68
:1058E000030000B57F3304DAFF234042DB01184098
:1058F000404203006C3300D1FDE103006C3300DD56
:10590000B5E0924B984234D05EDC914B984241D046
:1059100031DC904B98422CD016DC8F4B984241D012
:105920000BDC8E4B984200D1DEE097238C4A5B4221
:10593000904200D1CCE1842312E08A4B984200D1FE
:10594000D1E1894A9623F2E7884B984200D1CBE017
:1059500008DC874B98421DD0864B9842EBD18623BA
:105960005B42B5E1844B984200D1BEE1834B984243
:10597000E1D18D23F4E7824B9842FAD014DC814BBD
:10598000984200D1B7E107DC7F4B9842E7D07F4BCC
:105990009842D0D18723E3E77D4B9842DFD07D4BFF
:1059A0009842C8D19523DBE77B4B984200D19BE01E
:1059B00004DC7A4B9842EDD0794BF1E7794B984271
:1059C00000D191E0784BC8E7784B984200D18CE148
:1059D00024DC774B984200D186E010DC754B98426E
:1059E00000D186E105DC744B984200D183E1734B12
:1059F000D6E7734B984200D17BE1724BC8E7724BFC
:105A00009842B6D005DC714B984200D16FE1704BE3
:105A1000BEE7704B9842BDD06F4BB9E76F4B9842D1
:105A2000B8D011DC6E4B984299D004DC6D4B984293
:105A3000B0D06D4BACE76D4B984203D06C4B9842A5
:105A400000D078E785238BE76A4B984200D186E740
:105A500005DC694B984200D181E7684B7DE7684BD4
:105A6000984241D003007A333ED0664B98E703005A
:105A7000273339D00300273300DDC5E00300383376
:105A800000D16CE70300383330DC0300603300D111
:105A900080E70300603316DC0300663300D179E74A
:105AA0000300663307DC03006A3300D161E7683026
:105AB00000D16FE73FE70300643300D16AE762304B
:105AC00000D167E737E703003C3307DC03003D33D1
:105AD00002DA403000D02EE7942341E703003A3346
