:02000004100DDD
:4000000000C002082B1B0D100D000000991B0D1000000000000000000000000000000000000000000000000000000000951B0D100000000000000000951B0D10951B0D104E
:40004000951B0D10951B0D10951B0D10951B0D10951B0D10951B0D10951B0D10951B0D10951B0D10951B0D10951B0D10951B0D10951B0D10951B0D10951B0D10951B0D10B0
:40008000951B0D10951B0D10951B0D10951B0D10951B0D10951B0D10951B0D10951B0D10951B0D10951B0D10951B0D10951B0D10951B0D10951B0D10951B0D10951B0D1070
:4000C00010B5064C2378002B07D1054B002B02D0044800E000BF0123237010BDACA802080000000044BE0D10044B10B5002B03D00349044800E000BF10BDC04600000000F6
:40010000B0A8020844BE0D10F0B50F000400002685B0BE4201D100203EE0A0221F4BD2009A582378032A04D0092B02D801361034EFE71B4A0933DB00D3185A68002AF5D018
:400140009B6801AD2B71637829006B71A378A068AB71E3780192EB7123792B7263796B72E3886B8104F08AF9002815D1237B2900AB71637BA068EB71E3896B8104F018F979
:40018000002809D1A06804F00BFA002804D1A06804F0ECF90028C9D005B0F0BD00002140D0AE020870B506000024104AA3019B180F491A68A3015B181B68002A04DA0134A1
:4001C000102CF2D1002070BD002BF8DB094B3100E518AD01280004F0EBF80028F3D1280004F0C4F90028EAD0EDE7C04604202440242024408090000173B50E000400002565
:40020000B54201D1002076BD6A462378694613706378E0685370A3789370E378D370A388938004F095FC0028EDD16A46A37969461370E379E0685370237A937063899380D6
:4002400004F01EFC0028DED1E06804F003FD0028D9D1E06804F0E4FC10340028D3D10135CEE773B50E0004000025B54201D1002076BD6A462378694613706378E068537096
:40028000A3789370E378D370A388938004F044FB0028EDD16A46A37969461370E379E0685370237A93706389938004F0CDFA0028DED1E06804F0BEFB0028D9D1E06804F092
:4002C00093FB10340028D3D10135CEE7F0B50F000400002685B0BE4202D1002005B0F0BD236801AD0193237929002B71637960696B71A379AB71E379EB71237A2B72637A57
:400300006B7263896B8104F0CFF90028E6D1237B2900AB71637B6069EB71A37B2B72238A6B8104F057F90028D8D1606904F066FA0028D3D1606904F03BFA18340028CDD131
:400340000136C8E710B50B210D48FFF7DDFE002814D10C48FFF726FF00280FD10A210A48FFF74AFF002809D104210848FFF779FF002803D101210648FFF7A8FF10BDC0467F
:4003800054A90D1050A80D105CA80D10FCA80D103CA90D1010B501210148FFF7B5FE10BD04AA0D100021124B124A10B5D8601C68002C06DB914202D10120404210BD013109
:4003C000F5E79142F8D00121996000211C69002C03DA9142F0D00131F8E79142ECD0A0220368120600209342E8D01800E6E7C04600002340983A00001FB500230193D823F1
:4004000000049B05C018029001AB02A80C000393FFF7C8FF002801D1019B236004B010BD13B5084BC47A586801A9C0B2FFF7E4FF002803D1019B9C42804116BD01204042A4
:40044000FBE7C046D0AE02081FB5064B0004C018029001AB02A801910393FFF7A3FF05B000BDC0460001003610B5034BC17A5868C0B2FFF7E9FF10BDD0AE02080022124B82
:40048000124910B5D8601C68002C05DB8A4201D1012010BD0132F6E78A42F9D001229A6000220B491C69002C03DA8A42F0D00132F8E78A42ECD0A0220368120600209342A2
:4004C000E7D01800E5E7C04600002340983A00000094357710B5D42488B005930A9BA40506930B9B0094029002AC68460194039104920793FFF7C2FF08B010BD00B5064BAF
:4005000089B00093029002AB6846019303910492FFF7B4FF09B000BD000B003510B5074C88B00094029002AC68460194039104920593FFF7A3FF08B010BDC046000E003556
:4005400000B5064B89B00093029002AB6846019303910492FFF792FF09B000BD000C003510B588B005930A9B074C06930B9B0094029002AC68460194039104920793FFF723
:400580007DFF08B010BDC046000D003500B5054B89B00093029002AB68460193FFF76EFF09B000BD000A003500B5054B89B00093029002AB68460193FFF760FF09B000BD6B
:4005C0000005003500B5064B89B00093029002AB6846019303910492FFF750FF09B000BD000400351FB5054B02900093684602AB01930391FFF742FF05B000BD0010003596
:400600007FB5064B0390019301A803AB029304910592FFF733FF07B000BDC0460011003510B5074C86B00094029002AC68460194039104920593FFF721FF06B010BDC04648
:400640000012003510B5074C86B00094029002AC68460194039104920593FFF70FFF06B010BDC046000900357FB5054B0390019301A803AB0293FFF701FF07B000BDC0463A
:40068000000600357FB5064B0390019301A803AB029304910592FFF7F1FE07B000BDC046000700357FB5054B0390019301A803AB02930491FFF7E2FE07B000BD00080035ED
:4006C0007FB5064B0390019301A803AB029304910592FFF7D3FE07B000BDC0460002003510B5074C86B00094029002AC68460194039104920593FFF7C1FE06B010BDC04659
:400700000001003510B58CB006930E9B0A4C07930F9B01940893109B03900993119B03AC0A93129B01A80294049105920B93FFF7A5FE0CB010BDC04600030035F0B58DB0AC
:400740001D0012AB1B780E0003930023170004A905AA0493059300F0E8F8041E29D1184B3200009305993B00049801F0CDF8002822DD022007AA06A9FF300694079400F067
:400780003BFD6524002818D12900069800F086FB041E0ED108A9300000F0DFF8041E08D1039A29000B9800F0F7F80400089801F041F820000DB0F0BD14246442F9E7C04627
:4007C000005F2D000023F0B587B00391170004A905AA0493059300F0A8F8041E2CD1059800F03CF8040005F0F7FC051E2FD0194B0200009305992300049801F085F80028CE
:4008000020DD280001F070F8061E1ED00100124800F05CF8002812D0006900280FD022000097039B2900FFF789FF0400300001F001F8280005F0DAFC200007B0F0BD012457
:400840006442F3E714246442F3E70524FBE764246442F1E7005F2D0014AA0D10032358438008984304307047F8B5C3680D000860062B21D18468124F002C01D12000F8BD29
:40088000266A002E06D031000E4806F04FFB002802D16C602468EFE731000B4806F046FB002801D1AC60F5E73100380006F03EFB0028EFD1EC60EDE702204042DFE7C04607
:4008C000F2AA0D10E3AA0D10E9AA0D10F0B507000D00002491B001AE002D02D1280011B0F0BD296A002904D0380006F01FFB0028F4D0AB68002B06D00E2C12D8A2009551FE
:4009000001341D00E8E72B68002BFAD1002C0AD0013CA3009B591B68002BF2D1002CF7D1EFE70025DAE72500D8E7F8B50E002E21170006F0EDFA041E0CD0451C2E2128005A
:4009400006F0E6FA002805D0001B0138386000203560F8BD16204042FBE770B5050000200C0000F04DFF280000F0BEFF002803D02100FFF779FF70BD05204042FBE70023EA
:4009800004220133002901D1904203D952001D2BF7D1023318007047F0B589B005900C000100BD480792FFF791FF002800D13DE1002385680693029504930193029B002BE0
:4009C00000D089E0EB68062B00D031E12E00B34F31003800FFF77AFF079A037E9A4200D0DDE03100AE48FFF771FF8369237029003800FFF76BFF2278037E9A4200D19BE1B4
:400A00002D68002DF3D12900A648FFF75FFF002806D02300FF331B7A012B01D1836963602900A148FFF752FF002808D02300FF339B79012B03D1C3685A1E934163702900FB
:400A40009A48FFF743FF002808D02300FF33DB79012B03D1C3685A1E9341A37029009448FFF734FF002806D02300FF33DB79012B01D18369E37029008E48FFF727FF0028D4
:400A800008D02300FF33DB7C012B03D1C3685A1E9341A37729008848FFF718FF002800D1A6E0C368052B00D0A2E08268230020000D331030FF33FF30002A00D198E01978DD
:400AC000012903D119009669F4390E700133834200D18DE01268EFE702997848FFF7F6FE002802D08768002F03D1029B1B68029364E739007248FFF7E9FE00284DD00369FC
:400B000070491800039306F011FA002845D06E49039806F00BFA00283FD000266B4AB3009958039806F002FA0190002806D00136172EF3D105235B420193183E390064481D
:400B4000FFF7C4FE002801D08369069339006148FFF7BCFE002804D0C1698069FFF70FFF0490731C19D0049B002B16DD20237200A218FF33D35C012B05D133000933DB00B5
:400B80000699E318596090235B00D35C012B04D10936F600049BA619B3603F68A3E73668002E00D013E722E74749380006F0BEF9002800D0F3E031004548FFF787FE00288D
:400BC00006D02300FF33DB7A012B01D18369236131004048FFF77AFE002800D1DFE02300FF33DB7A012B00D0D9E083696361D6E029003948FFF76AFE002817D0C368052BF1
:400C000014D182682300200010331330FF33FF30002A0BD01978012903D119009569F4390D700133984201D01268F1E70023019305992A48FFF74AFE002853D00025032796
:400C40008668002E4ED031002248FFF73FFE00280BD063191A001532FF321278012A04D13A006A439B1882695A6231001C48FFF72DFE00280BD063191A001432FF32127840
:400C8000012A04D13A006A439B1882691A6202350A2D27D03668D4E7C9AA0D1066AA0D1041AA0D1048AA0D10F7AA0D1052AA0D105AAA0D1069AA0D1070AA0D101DAA0D105E
:400CC000FFAA0D1027AA0D102CAA0D10C0A0020834AA0D103CAA0D107AAA0D1087AA0D1091AA0D1005992F48FFF7F0FD051E20D001002D48FFF7EAFD00280AD02300FF3349
:400D0000DB7F012B05D1C3685A1E934122004932137029002548FFF7D9FD002809D02300FF339B7F012B04D1C36848345A1E93412370019809B0F0BD29001D48FFF7C6FD21
:400D4000002800D15FE68668002E00D15BE631001848FFF7BBFD002821D007691649380006F0E4F8002800D01EE731001348FFF7ADFD002806D02300FF335B7A012B01D187
:400D80008369A36031000E48FFF7A0FD002806D02300FF339B7A012B01D18369E3603668D2E7C04697AA0D10A3AA0D10AFAA0D101DAA0D10FFAA0D1027AA0D1034AA0D1067
:400DC0003CAA0D1070B504000D0086B00021142201A805F03FFA29002000FFF777FD0400002C18D021001C48FFF770FD0028F7D00569002D0AD0194E2900300006F096F8FB
:400E000000280BD1310001A806F09AF8210001A8FFF75CFD0400200006B070BD104E2900300006F083F80028ECD029000D4806F07DF80028E6D00C4E2900300006F076F842
:400E40000028DFD02900094806F070F80028DDD121000748C1E7C046FFAA0D1027AB0D1010AB0D1017AB0D101FAB0D1004AB0D100AAB0D1010B5FFF729FD0124002809D0D7
:400E80008168002906D00448FFF720FD002801D0C468E4B2200010BDC1AA0D10F0B5050085B000200C0000F0ABFC280000F01CFD0190002800D179E10100BE48FFF706FD04
:400EC000051E00D133E1BC4F01003800FFF77AFF290006003800FFF7CDFF002E00D102E1B36923702300FF3358710023B34F290038000093FFF766FF290006003800FFF78E
:400F0000B9FF002E00D1F1E0F3685A1E934163702300FF339871AA4F29003800FFF752FF290006003800FFF7A5FF002E00D1E1E0F3685A1E9341A3702300FF33D871A14FA7
:400F400029003800FFF73EFF290006003800FFF791FF002E00D1D1E0B36963602300FF331872994F29003800FFF72CFF290006003800FFF77FFF002E00D1C3E02200B3695D
:400F8000FF32DBB22376507363769073A376D0738E4F29003800FFF715FF290006003800FFF768FF002E00D1B0E02200B369FF32DBB2E37610742377507463779074844E5D
:400FC00029003000FFF7FEFE290007003000FFF751FF002F00D19DE0FB685A1E9341A3772300FF33D87401997A48FFF76FFC0600002F00D19BE02300774A784FFC33010000
:40100000DA603800FFF7DEFE310005003800FFF731FF0390002D00D180E0AB690293704F31003800FFF7CEFE310005003800FFF721FF002D00D176E0AD69220023002032CF
:40104000611D4C33FF32FF31029E5D601E606E46367B08331670507002328B42F4D101996048FFF733FC061E00D16DE05E4F01003800FFF7A7FE310005003800FFF7FAFE05
:401080000390002D57D0AB690293554F31003800FFF798FE310005003800FFF7EBFE002D4ED0AD6922002300210014322033FF324831029E5D601E606E46367B0833507075
:4010C000167002329942F4D101994848FFF7FEFB051E3DD101235B420093019800F0AAFB009805B0F0BD01235B42FFE601235B42009310E701235B42009320E701235B42C3
:4011000000932EE701235B42009341E701235B42009354E701235B42009364E701235B42029500937BE701235B42009385E701235B42009393E701235B4202950093A4E70C
:4011400001235B420093ADE701235B420093BBE7274F01003800FFF735FE290006003800FFF788FE002E1DD0F3685A1E93412200483213702300FF3398771E4F29003800C3
:40118000FFF720FE290006003800FFF773FE002EA0D0F3685A1E93412200FF3449321370E0779AE701235B420093E6E705235B42009395E7C9AA0D1066AA0D10F7AA0D106D
:4011C00052AA0D1048AA0D1070AA0D107AAA0D1069AA0D101DAA0D100101010134AA0D103CAA0D1087AA0D1091AA0D1097AA0D10AFAA0D10A3AA0D107FB5DC239B050093EF
:401200006C46002302AD0195029015486B60C460144C0668002E07DBA34203D10120404204B070BD0133F4E7A342F7D00123836000230669002E03DAA342EFD00133F8E785
:40124000A342EBD0A02300981B06984201D00098E6E7029B002013606B680B60E0E7C04600002340983A0000F0B517008A22434C9200A544079008910EA80021BFB209934C
:4012800004F0E8FF0CAA0BA93800FFF719FA00260500B0422CD1C02280210B9BD2051A40C9058A4237D10C9BDC1DE40820000D9404F092FF0925061E1AD001000DAB2200A9
:4012C0003800FFF70DFA051E12D16B46198C102304930293079B079A30330193284B40320392009332000D9B0EA8FFF70BFA0500300004F07BFF002D05D1202209990EA8EC
:40130000FFF760F905000EA8FFF74EF9280099239B009D44F0BD1B4A934207D10C9B5C0809230134E4085C433B34BFE7164A934203D10C9BDC082934B8E7144A934205D1A2
:4013400003240C9BDB085C435A34AFE7104A934205D103240C9BDB085C434A34A6E70D4A1B0C1B0493429ED00B4A040093429DD10C9BDC1DE4081234640097E79CFDFFFFD2
:401380000901202200000170000001600000027000000260000003700000036010B5017804000A00303AD3B2092B1FD811000A0161780B00303BD8B2092824D89918A27812
:4013C00009011300303BD8B209282AD85A18E378120118003038C1B28018092905D91900413905292BD8373B981810BD0B00413B052B01D83739DAE70B00613B0020052BC2
:40140000F3D85739D3E70B00413B052B02D837398918D4E70B00613B0020052BE5D85739F6E71300413B052B02D8373A5218CEE71300613B0020052BD7D8573AF6E71900BB
:40144000613900200529D0D8573BCDE7F7B50B7807004E1C222B0FD00026554B19603000FEBD02331A780130222A08D0002A06D05C2AF6D00133F5E733000020F2E74D4B64
:401480001B6898470190041E07D1019EE7E7721C5C2B13D02370013416003378222B01D0002BF4D1002323703378223B5A425341F618019B3B610423FB60D0E773786E2B52
:4014C00017D007D8611C622B0CD0662B0FD0237001340AE0742B0ED0752B0ED0722BF6D10D23F4E7082323700C000132D4E70C23F9E70A23EBE70923E9E7B01CFFF74EFFE3
:401500002D4B2E49C3180500721D8B42EDD90028EBD02B4BC3188B4227D8B3795C2BE4D1F379752BE1D130000830FFF737FF3200214B2249C3180B328B42D6D8214BAD0249
:401540001D4080238005800D05435B02ED181E4BE11C9D4223D803234C1E3F2080212840494201432170AD0910E07F2809D8012301341648611EC05C013B05430D70E4189A
:40158000B3E7134B9842E2D8022302343F20802128404942013C01432170AD09E9E73F20802328405B420343E370AD090423D3E7C8A8020820A102080024FFFFFF03000019
:4015C0000028FFFF00FC0F00FFFF000064AC0D10FF070000002803D00378013B1F2B00D970470130F6E70000064B10B51B6828209847041E03D02822002104F02BFE200092
:4016000010BDC04620A10208F0B5050087B00E1E01D1002413E004227549300005F09FFC002803D10223EB60341D08E005227149300005F094FC002804D1E860741D200041
:4016400007B0F0BD04226C49300005F088FC002806D101230122EB600023AA61EB61E3E73378222B05D131002800FFF7EFFE0400E5E71A00303AD2B22D2B01D0092A1AD87D
:40168000340000E0013423781A00303A092AF9D92D2BF7D0A71B3A003100684604F0D1FD00236A466846D35504F028FD0323A861E961EB60C3E75B2B37D1563BEB60701CDB
:4016C000FFF788FF037804005D2B01D10134B6E7FFF78AFF061EA8609BD02000FFF77AFF01003000FFF790FFFFF774FF0400002C00D18EE723782C2B04D05D2BE6D03F4BFA
:401700001C6086E7FFF770FF051E00D181E730604660601CFFF75EFF01002800FFF774FFFFF758FF2E000400E1E77B2B5DD1753BEB60701CFFF74EFF037804007D2BC5D0C7
:40174000FFF752FF061EA86000D162E72000FFF741FF01003000FFF779FEFFF73BFF002800D156E7002433693461336203783A2B02D0224B186062E70130FFF72BFF010066
:401780003000FFF741FFFFF725FF0400002C00D13FE723782C2B02D07D2B97D0AFE7FFF723FF051E00D134E730604660601CFFF711FF01002800FFF749FEFFF70BFF0028AC
:4017C00000D126E700242B692C612B6203783A2BCFD10130FFF7FEFE01002800FFF714FFFFF7F8FE2E000400D0E7044B1E6010E76BAC0D1070AC0D1076AC0D10C8A80208A5
:401800000849094A002803D1084B0B60084B07E00368002B00D1054B0B604368002BF5D01360704720A102081CA10208D9610D10ED610D10F8B5802604007600002C00D10B
:40184000F8BDE3682768334204D1A068002801D0FFF7F0FFE3680B4D334204D12069002801D02B6898478022E3689200134204D1206A002801D02B68984720002B68984798
:401880003C00DBE71CA10208F7B505000E000192FFF7AAFE0023134F04003B6098420CD02800FFF797FE01002000FFF7ADFE051E05D12000FFF7BEFF00242000FEBD019BBD
:4018C000002B0AD0FFF786FE03780500002B04D02000FFF7AFFF3D60EEE7002EEDD03560EBE7C046C8A80208002210B51100FFF7CBFF10BD0300093B0122042B02D9203891
:401900004242424110007047F0B50025170006002C0089B003930E9B02901B0CDBB204930E9B00911B0ADBB205930E9BDBB20793731C069333780193002B08D0009B002BED
:4019400022DB029A731C9B1A009A9A421CDA0E9BDBB2002B00D1B4E0019A9A4200D0AEE0009B002B06DB029A731C9B1A009A934200DDA4E0B31C7678032D00D9A1E02800BD
:4019800004F0E8F88989637B0198FFF7B3FF002839D1079B019A9342D9D04F4E1100300005F0B6FA031E08D1049B019A93420BD0059B93426FD133003F33032D23D8280021
:4019C00004F0C8F80510233533003E33F5E7002F06D0039A94425ED23F4A9B1A9B003B55012510E0621C002F0BD003998A4252D239493C195B1A2178181101431B0121700C
:401A0000BB5414000225069E92E7621C002F0BD003998A423FD230493C195B1A2178981001439B012170BB5414000325EBE7002F08D0039A94422ED227493A195B1A1178F1
:401A40000B43137001340025DDE71D00002E22D0009B002B22DB029B009AEB1A9A421DDA019BB34217D1009B002B04DD029B009AEB1A93420FDC2E786B1C029A9D1A002E9E
:401A800004D0009B002B11DBAB420FDA002F18D03B5D002B15D00124644219E03000FFF729FF0028DCD02E780135CFE73000FFF721FF0028EFD0029B5E5D0135DFE7002DE5
:401AC000E9D1039B9C42E6D2002F01D000233B55200009B0F0BDC0467BAC0D1070B508000D0014000E1E05D0731B9C4203DCE043C017204070BD307801F000FC0136F3E7AE
:401B000070B500240D001600A1420AD1200070BD01F000FCC0B2285501340A28F6D00D28F4D0B442F4DBF1E77047FFF7FDFF72B6124C134DAC4209DA21686268A368043B92
:401B400002DBC858D050FAE70C34F3E70D4B0E4CA34208DA19685A680020043A01DB8850FBE70833F4E7094809490860BFF34F8F00F0E4F801F0C6FAFEE7000050BE0D105F
:401B800068BE0D1068BE0D1078BE0D1000A0020808ED00E0FEE7FEE700B504207146084202D0EFF3098001E0EFF30880043003F005FDFEE770470000E02370B5504C9B007D
:401BC000E2580F23D021072013409A00121989005158014066D0042958D04A48002B66D1B223B1220321DB00D200E558A358A6581B0F360F0B400E4204D0A258120F0A4065
:401C0000012A01D1EA0701D4032B11D1B0233E4ADB00E558A158E658C904C90C03F0A4FFAD03AD0B6843F101C90F013103F09CFFE0239B00E3589B069B0FD840334B186020
:401C4000334B1C691969240A090E013103F08CFF304BE1B21860013103F086FF2E4B040018602E4B2E4918602E4BC01803F07CFFFA212D4B890018702C4BE01803F074FF25
:401C80002B4B18602B4BC003186070BDC021890052581F210A40112A01D0132A04D1802000029BE7244899E7FA20C00196E7012BBED1C823C0220321DB00D200E558A358A3
:401CC000A6581B0F360F0B400E4204D0A258120F0A40012A01D1EA0701D4032BA8D1C022D200A358A158A5587F221F261340090A3140584303F038FF290C314096E7C046E9
:401D00000000264000366E018405000028A10208000021402CA1020824A1020834A1020840420F003F420F003CA10208E703000038A1020830A1020800127A0010B51B48F2
:401D400001F0E6FCB022E0213020194CD200A35889005B005B08A35063588343635080235B04A350134B144AE250A02204339201E250FF22114BE25003F0DAFEC0220121AE
:401D80005200A3588B43A350FFF714FFFFF714FFB0235B055A78002A02D05B78212B03D10022074BDA605A6010BDC0461CB60D100000264084050000010002008C05000062
:401DC000E0002340024BD86F032318407047C0460400214010B501F094FC0749074ACB6F1A40074B1343CB67102306490A681A42FCD001F08AFC10BD04002140FCFF000057
:401E00000100FA058800214070B583050600002B04D0E8211048FF3103F0A2FB0F4C01F070FCE36F0500DB439B0701D1FFF7D2FFB0230B4A9B00D650E36F0A4A0A491A4042
:401E40000A4B1343E36710230A681A42FCD0280001F05BFC70BDC046BAAC0D100400214000002140FCFF0000880021400300FA0570B54B68056801229D4216D38A689B18F9
:401E800000229D4211D20C694B699C420FD20C236343CE680134F3180E685A701E705A8042685D609A6001220C61100070BD0C235B428B61F9E7000010B502006F2809D066
:401EC000074B084918686F23C06804F01DF91620404210BD80235B050B600020F9E7C0467CA102084EAD0D1010B50F4B02001879904215D0187E904214D018002C3004781E
:401F00000120404294420AD1033014224243101D1818086000209B181A6901321A6110BD0020F2E70120F0E740A1020810B5021E0BD0011F0C4B0868984207D00B491378B6
:401F400008680B49C06804F0DFF810BD0B69002B07D1064B12781B680649D86804F0D4F8F3E7013B0B61F0E7EFBE0DD07CA102080AAD0D102AAD0D1010B5140040681A004C
:401F80000818210000F090F810BD10B5140040681A000818210000F01DF910BD10B540680818110000F020F910BD10B5007800F095F910BD01307047431E022B15D8022863
:401FC00008D003280BD00A4B98680860DB68002013607047064BD86908601B6AF7E7F0231B030B6080235B01F1E701204042F0E740A1020830B589B00C00150002A903AAED
:402000000190FFF7D9FF002811D1236805900693084B079001AA18680749049500F00EF80798002801D1059B236009B030BD01204042FAE7CCAE0208711E0D10F0B50024AB
:40204000260043688BB002911B6906A905A8039298470194069BB34201D80BB0F0BD059BF700DF197B68019D0893019B3A68EB1A9A4202D801360195ECE7079409950399E8
:4020800007A8029B98470028E7D0089B0135E418EBE70000024B036001230B607047C0468CAD0D10002070470B00802110B549054118180004F0C5F8002010BDF0B5264C61
:4020C000F023A5440024039020001B06CB1801935B0A5B0204AF0292FD1A029AA24201D900280CD01D4B984234D01D4B984231D0431E9841400085239B009D44F0BD802281
:40210000010092009E18019A9A421DD8029AA2421AD9039A125DEA54002906D18021490559180978511A4A1E914101340133B342E9D1002904D00B4B3900F01801F0EAFB25
:40214000094BED183300C8E7802252059A181278EA54EBE70120CEE7ECFDFFFF020052000600520000FEFF0F00FEFFFF00207047F8B5124C0023A1421CD91E00104C8D1872
:40218000AC425E410F4CA14215D91F000E4CAC425F413C000D4FB94202D90D4FAF425B41344323430124002B02D0FFF787FF04002000F8BD1E0000242300F1E7FFFFFF0F6B
:4021C00000001010FFFFFF1300800014FF070016000A00160B00802110B5490541181800FFF7C6FF10BD00008023F0B5364C5B05A544C4186518EB05E605DB0DF60D029360
:402200006B0A039333005A1E9341640AE4186B0A1B1B640227000193019B002B11D1002E2CD02A4B3200E418210004A804F009F8200001F023FB002815D0254B254AA921C1
:4022400007E0380001F01AFB002805D09621204B204A214803F034FF80239B00FF18019B013B0193D8E73200210004A8FFF780FF002803D0164B174AAD21EAE7029B002B09
:402280001CD08024A400E41A2200290004A803F0D8FF039B580201F0F1FA002803D00C4B0C4ABA21D5E72200290004A8FFF760FF002803D0064B074ABE21CAE700208523D7
:4022C0009B009D44F0BDC046ECFDFFFF00FEFFFFACAD0D1077AD0D10B4AD0D100420704710B510220949040003F09CFF0123002808D0230010332268013205D104349C42AE
:40230000F9D10323180010BD0223FBE7ACAE0D1030B50D00816891B0103910236A460400FFF72AFE002802D0012011B030BD6846FFF7D6FF28702378032B09D1A168012336
:40234000AA1C18392000FFF717FE431E9841ECE7A1686A1C203901232000FFF70DFE0028ECD0E1E737B50D00C0B201A9FFF7BCFD0124002807D129000198FFF7C9FF0400C8
:402380000198FFF7D3FD20003EBD0000F7B501206946FFF7E7FF002801D0FF20FEBD01AC21000220FFF7DEFF0028F6D12078A678234C6B46220019789D785F781232237872
:4023C000002B01D08B422FD16378002B01D083422AD1A378002B01D0AB4225D1E378002B01D0B34220D12379002B1BD1154B164A1B68D8686379022B06D0144A032B03D0D2
:40240000134A042B00D0134A134903F07DFE6079831E022BC2D9BC21104B114AFF31114803F04EFEBB42E1D006349442C7D1054B0D481B68D96803F0C1FE0120AEE7C0464F
:40244000BCAE0D107CA10208D3AE0D10CEAE0D10EAAE0D10D8AE0D10F1AE0D1007AF0D1019AE0D104FAE0D1087AF0D10F0B597B01CAB1B7804931378302B12D19378022B61
:402480000FD10023D7780693D4196379B91D2479C9180391022C04D1FC1855780434A54226D0102017B0F0BD0599671B8C46A4449444614609792037F1550134A542F3D18B
:4024C00000240399C91A52189C420BD16B461C8A4023020001930096203B0B492000FDF7F9FFDFE7E11A155D403175540134EBE7202B00DD20233D00202F00DD2025791B53
:40250000002406AE0591D9E709000610002803D1044B1B7E1800704700230128FAD1014BDB7EF7E7D0AE0208F0B5F7B00500029111A8594917000493FEF754F800284CD106
:402540007C9B002B3FD100242B89EA689B180393039BA34214D9039B049E1B1B9E4200D91E0033003A0021000298FFF705FD002833D13200390011A8FEF742F800282ED014
:4025800008AB202209A911A8FEF74AF8002824D17E9B002B04D0202209A9180003F051FEEB682C8907ADE4182A00042321000298FFF7E2FC002810D1384B2A889A4210D06F
:4025C0000120404209E07D9B002BBCDD1A007C9911A8FEF715F80028B5D077B0F0BDA419B6E76B8801251B1905930434039004906D42059B9C4205D3049B002BE0D0039850
:402600000138EAE708AF04233A0021000298FFF7B3FC0028E1D13B787E88102B17D1202ECED1211D330011AA0298FFF7A5FC0028D3D1320011A909A803F0F4FD0028BFD113
:402640000123049308AB5B880433E418D1E7012B04D17F98FFF75AFF0500F3E7222BF1D13300483BB82BABD8211D330011AA0298FFF782FC0028A3D1EDB27B8811AA0095E5
:40268000202109A80125FFF7F1FE6D420028D9D101230393D6E7C0460900000107690000F7B50700002401262000FFF783FC01A9C0B2FFF719FC3500011E0AD12C236343C7
:4026C0000B4A0198D2182023FFF756FC0500681E85410198FFF72AFC002D04D0012C00D13D002800FEBD012CFBD03400DCE7C046CCA8020873B50C00C0B201A91500FFF784
:40270000F3FB0126002807D12A0021000198FFF745FC0600701E86410198FFF707FC300076BD000030B52C244443254B87B01C1923680500013301D101202FE02369DB064E
:40274000FAD4FFF737FC05A9C0B2FFF7CDFB03000120002B23D11B4BA27A1B789A42EBD12000FDF75DFE0028E6D1174B22689A4217D1802302900190009003955B00134AF0
:4027800005992000FFF7D0FE00280AD10598FFF7CDFB2000FDF768FE431E9841404207B030BD002D04D0059800218268FFF7F6FB074B2A001B680749D86803F0A5FCBBE70A
:4027C000CCA80208D0AE02083DB8F3963CAD02087CA10208B0B10D100023F0B5AC4CAD4AAD4FA544012013603B60FFF79BFFAB4B0400DB7801200393FFF788FE002C45D1A0
:40280000A74BC2B2DB6C03995E6880235B05F518A44BF618300013ABFEF726FD041E35D105A8FDF721FF80219F4A890005A8FDF729FF05A90B20FDF735FF041E26D1102364
:4028400013AA9A490B20FDF7FDFE0123041E3B601CD1954A0B211BA8FDF750FE041E15D1102217A91BA8FDF76BFE041E0ED1202204AB019300922DAB31001BA8FDF770FE60
:40288000049B0400202B10D001246442824B1B68002B05D00B20FDF779FE002800D004002000D3239B009D44F0BD0028EED1020004AB2DA91BA8FDF731FE041EE6D107AE7C
:4028C00033002DAA13CA13C3794F126831A91A603800102203F0B5FC05A90C20FDF7E2FE041ED3D11023320070490C20FDF7AAFE0122684B041E1A60C8D16E496DA8FDF752
:4029000071FE041EC2D18023674ADB000C211BA8EE18FDF7F3FD041EB8D1102239001BA8FDF70EFE041EB1D1802704AB7F00019300972DAB3A0031001BA8FDF711FE049B45
:402940000400BB42A0D10028A0D12D9B309E319A591C00D198E7D20600D595E7504AD26C9268B24200D28FE7534A934200D08BE73A002DA96DA8FDF743FE041E00D085E783
:402980008023DB00F618330AF6B20393731E9E41039BFF3F9B190393A0238026DB00ED187600039BBB421FD9002C00D06EE7802204AB019300962DAB520029001BA8FDF752
:4029C000CFFD049B0400B3420BD1002805D132002DA96DA8FDF714FE04000135FF350137DFE701246442F8E7002C00D04EE704AE330020220BA96DA8FDF712FE041E00D049
:402A000044E780225200019600922DAB29001BA8FDF7A6FD041E00D038E7020033002DA91BA8FDF77BFD2D9B244A9BB20400934200D029E7002800D028E72E9AD3B2102BDD
:402A400000D021E7120C202A00D01DE72FA90BA803F0E8FB041E00D018E7379BDBB2012B00D011E70120FFF751FD409BDAB2222A00D009E71B0C482B00D005E7C0B200906D
:402A800041AA20210BA8FFF7F1FC0400FEE6C046B4FCFFFF8CAE020888AE0208D0AE0208CCA802082000001000016004010000402CAD0208090000013DB8F396076900007D
:402AC0000023F0B51D4C0700A5446946022000930193FFF709FA00280ED001260098002801D0FFF723FA0198002801D0FFF71EFA3000134B9D44F0BD01A90120FFF7F4F989
:402B00000600041EE9D10098A742E7D980233D1BDB009D4200D91D002B0002AA2100FFF72BFA0028D9D12B0002AA21000198FFF72CFA0028D1D16419E5E7C046F4FBFFFF2F
:402B40000C040000F0B500242700654E9BB033686448D96803F032FB33686348D96803F02DFB624DAB6A0393039BBB4257D133682200D8685E4903F0C7FA5E4B9B78002BB1
:402B800000D193E0002305A9022005930693FFF7ABF9002820D106A90130FFF7A5F900281AD1554A0C2108A8FDF7A8FC002813D11022524908A8FDF7C3FC041E0CD106001E
:402BC000AB6B0133FF330293059B5B680393029BB34262D9002C39D00598002801D0FFF7A5F90698002801D0FFF7A0F9444B1B68002B02D00C20FDF7C9FC102200213F48AB
:402C000003F028FB394C0021236D02209A68FFF771FD00284ED03B4B3B4A3C490FE00C237B436A6A2100D3189B6801201A000293FFF760FD002805D0324B334A3449354817
:402C400003F03EFA029B0137E4188DE7029B9D1B8023DB009D4200D91D00039B2E4F99192E4B0095C91807AB01932A003B0008A8FDF776FC079B0400AB420BD10028A6D1B1
:402C80002B003A0031000698FFF77FF90028A3D176199CE70124644299E7002C9CD107AB22001D4908A8FDF739FC95E72000FFF707FFA7E70C23626D216D013A5343CB1867
:402CC0005A6849680220511A9A68FFF713FD002803D00C4B0C4A1249B1E71BB0F0BDC0467CA10208CBAF0D10F0AF0D10CCA802085CB00D10D0AE0208000160042CAD0208C2
:402D00008CAE0208ACAD0D109FAF0D102A0900000B09000006B00D102CA90208000400102F09000073B5164E164CF368626A5B0A01A901200193FFF75DF9012500281AD1CB
:402D4000019B226DA362F36801A95B0A02300193FFF750F9051E10D1019B206A6365FFF724F90600A06DFFF720F9331C864200D2031C5C342370280076BD0125FBE7C046F9
:402D800040A10208CCA80208F0B50C266C4F89B0FB6800905C0A7443200003F01DFA0190200003F019FA674C019B0290206563620020FFF7FFF82100C0B22031FFF794F850
:402DC000002814D10130FFF7F5F82100C0B24C31FFF78AF800280AD1210003305831FFF783F8002809D0584B584A594902E0564B564A5849584803F063F9FFF793FF051E93
:402E000019D0564BFA681B68520A5549D86803F07BF9019803F0EAF9029803F0E7F9A06DFFF784F8E06CFFF781F8206AFFF77EF8280009B0F0BDFFF733FC051EE9D1FB6883
:402E4000A06A5B0A984202D8626D9A4219D9434B44481B68D96803F0B1F90020FFF762FC05006842684100F015F9002D5DD1236A00995A780A715B680C600393039A8A6033
:402E8000C7E7904228D108234643626A216D08369E4226D1344E7378002BDED00C22002105A803F0D7F9FFF771FA831E0500022B2BD82A4B1B68D968B378002B1ED02B484A
:402EC00003F07CF9FFF788FC002830D00020FFF7E7FB051E9DD1C0E7204B25481B68D968B9E71800D558CB580C309D4204D01B4B20481B68D968AEE70300C9E71E4803F0D2
:402F00005DF90120FFF70EFCDEE7012DA5D0002D01DD052DDADD114B18481B68D96803F04DF9174B094A174964E7032571E7FFF709FE0028E9D0044B134A14495AE7C046F7
:402F400040A10208CCA80208ACAD0D10C3AF0D10260A0000220A000006B00D107CA102088AB00D10CFB00D10D0AE020879B10D1001B10D1040B10D108BB10D10A1B10D1026
:402F8000B2AD0D10780A0000AFAF0D10F709000010B5002001F0F6F810BD0000802310B50C4C04202360230021000833636001F001F9094800F016FF084B1B6851331B7830
:402FC000002B02D0064800F089FF2000183000F033FC10BD00C002083CC0020820B0020834B20D10AC23064A9B0010B5D050054B9860036883F3088843689847FEE7C04640
:403000000000214000ED00E0174B70B51B680400002B23DA154A164B1648DA64164B1B68D96803F0CBF872B6B023144A144D9B001448EA50C36F144A14491A40144B13430E
:40304000C36710230A681A42FCD0012002F062FAB0239B00EC5007F0E3FB62B62000FEF7D3FE30BFFDE7C0460001264021433412000023401FB20D107CA1020800400016B5
:403080000000214004002140FCFF0000880021400300FA0510B5002817D10C4C0C482368D96803F08BF80B4B1B68002B08DA0A4A0A4B0B48DA642368D96803F07FF872B623
:4030C0000848FEF7A1FE07F0BBFB10BD7CA10208D7B10D100001264021433412000023401FB20D100040001610B50448044A0021121A03F0AFF8FDF74DF910BD0000020897
:4031000000A00208F0B589B0FFF748FF62B600F00DF902F00DFDC0220124614952008B58604DA3438B5028005F4A604901F0C0FD80232A681B065E4E13432B605D4AB460A6
:403140005D4B5E4C1A6023685D48D96803F036F823685C4FD968380003F030F823685A48D96803F02BF823683800D96803F026F823685348D96803F021F823685348D968B4
:4031800003F01CF8802002AA03A94000FEF734F80195021E4E4D05D129000398FDF712FB021E04D023684B49D86802F0ADFFF021AA68494B090652189A60EA68DA602A6989
:4031C0005218DA616A691A62FDF7BCF8021E04D023684249D86802F097FF23684048D96805AF02F0EBFF3800FFF7CEFD002805D023683C48D96802F0E1FFFEE70123736089
:4032000023683948D96802F0D9FF387904A9FEF753FE00281BD1822101308900019B019A5B585258DB05D20B0240DB0DD318002BF4D1049BBE68F618059B1B89F618FFF7F1
:4032400053FF002809D0294B294AFC2102E0F121264B274A274802F033FF2878042819D802F078FC0707030310000221002001F053F83000FFF7B6FE23681F48D96802F0C9
:403280009DFFFEE706210E2001F046F83000FFF7BBFEF1E723681348D96802F08FFFFEE7000026400000664094AE020828B40D10800032401CB40D10CCAE02087CA10208EB
:4032C0007CB20D1086B20D10C7B20D10F0B20D10D0AE02080CB30D1040A1020837B30D1070B30D1094B30D10BAB30D10ACAD0D1068B20D10E1B30D10F2B30D1010B504006C
:403300002100034801F0C0FC0028F9D010BDC04600006640C221044A89005358DB05FCD0D0239B00D05870470000664010B500F009F800F035F800F043F800F0E3F800F02D
:403340002DF810BD80218022124BC9001B68D205986810B542501A00743212880E4C121810680440D4208001204310601C001A00723470322478127898687333A2401C789F
:403380000323A34013438022120613434350435810BDC04620B00208FF00FFFF70470000054B1B681A003F321278052A03D900219A68024BD150704720B00208140C0000DA
:4033C00010B5104A0321104800F0F4FA0F4C104A0021104800F0EEFA0F4A01210F4800F0E9FA0F4A0421200000F0E4FA0D4A0621200000F0DFFA0C4A0721200000F0DAFA74
:4034000010BDC04668B40D1000003240000332409CB40D1080003240D0B40D108002324004B50D1038B50D106CB50D1010B50A4B1B683E331B7883420BD9E0220F24074BB6
:403440008000C01892008358A34319438150002010BD0348FCE7C04620B002080000264001004A0010B50A4B1B683E331B7883420CD9E0223024074B8000C0189200835810
:403480000901A34319438150002010BD0248FCE720B002080000264001004A00054B06491B681A000832D26F1B689B181A680A401A60704720B00208FF00FFFF074B1B68B4
:4034C000190008311A68CB6F8021D218136849041B021B0A0B4313607047C04620B00208054B06491B681A00883212681B689B181A680A401A60704720B00208FF00FFFF57
:40350000FEE70000F8B59621002002F06FF802F045F8002801D102F031F8012002F09CFA674B68495A6C0A40E82189010A435A645A6C120AD2B23A2A04D15A6C624802407A
:403540001143596400210800FFF78CFFFFF7C8FFFFF7B4FFFFF7A2FF5C4D5D4C2B685D4F3D331B78002B0ED0C0268023F600A2599B053A401343A351012001F0E5FFA35926
:403580005B005B08A3510021012001F071FD2B683E331B78002B03D14F49504801F0E0FFE0239B00E6580F231E400AD1300001F08DFD1223FF33984203D101213000FFF7D3
:4035C00035FFB122D200A35800213B408027BF051F43A750083AA35808005B005B08A3503F4A0326A3585B005B08A35001F040FD00210800FFF71AFFA022D200A358B34358
:40360000A350FFF76DFFFFF759FFFFF747FF0021012001F02DFD01210020FFF707FF0021080001F025FD0021022001F021FD0021300001F01DFD0021042001F019FD294869
:4036400001F06AFD002802D00420FFF759FF264801F02AFE002802D00420FFF751FF00210800FFF7E3FE00210800FFF7FBFE0021012001F0FDFC00210220FFF7D7FE012127
:403680000220FFF7EFFE2B683E331B78022B06D9E22280239200A1581B060B43A3508022124B1206E15800200A430121E250E2580A43E250633101F099FFFEF77DFAF8BDC6
:4036C00000002740FF00FFFFFFC5FFDF20B0020800002640FFFFFFCF6E060000A0B50D108C05000008B60D10400D03000C0500000230800803D001300238FCD1C046C04634
:403700007047EFF3108072B6704780F310887047014B18607047C04620B00208C00543425841C0B2704700001F4B984232D00ED91E4B984234D01BD91D4B984226D01D4B50
:40374000984225D01C4B98421ED01C481BE0402822D007D9802821D080235B009842F4D1114810E000280DD01028EED114480AE0A0231B06984205D0124B9842E5D1A020B1
:40378000C00300E0002070470F48FCE70F48FAE70F48F8E70448F6E70E48F4E70E48F2E7A420C003EFE7C04606005200010000F0040000F0050000F0030000F0FF00520085
:4037C00001005000090000A0010052000200520003005200020050000500520070B5124B1A683123D35C002B16D00F4B1D682C00B423EB582A6A944663441B68002B11DBBE
:403800000A4B1868FFF790FF6B6801229A6063689B68002BFBD170BDE6214900044801F09FFEE2E70348F6E720B002083CAE0208D4B60D100200500010B50D4B18600028AD
:4038400005D002230370FD33437000234380094B1B6850229A5C002A03D051229B5C002B00D110BD4F3A0449002000F0F1FBF8E74CAE020820B00208D5A3020810B50400C9
:40388000FFF74CFF002834D0FEF796F91A4B1B4A1A605C6000229A60DA60194B1B6854329A5C002A05D180200021400006F0C0FF20E01A6884215B58D3181A68120E1968C0
:4038C000090AFF230B400133013253430D4C5C430D4B1868FA21890002F046F90100200002F042F9094BC1188020400006F0A0FF00E0074810BDC0463CAE02080001001CA3
:4039000020B0020860F5900028A10208980800000600520070B504000D00FFF7FFFE002836D0002D36D0FEF747F91B4B1B4A1A6000225A609C60DD60194B1B6852329A5C83
:40394000002A05D180200021400006F071FF20E01A6884215B58D3181A68120E1968090AFF230B400133013253430E4C5C430E4B1868FA21890002F0F7F80100200002F011
:40398000F3F80A4BC1188020400006F051FF00E0074870BD0648FCE73CAE02080001000520B00208C0EA210128A102084826000006005200F8B5CE46474680B581460D00AB
:4039C0001400002800D191E1002A00D190E1072900D902E12368012B00D903E10F2362689A4300D003E1237A1F22934300D003E1E368032B00D904E12369012B00D905E1D9
:403A00006369012B00D906E1A369012B00D907E1E369032B00D908E1236A012B00D909E1636A012B00D90AE1A36A012B00D90BE1E36A032B00D90CE1236B072B00D90DE19A
:403A40002768072D00D90EE1012F00D911E1002F00D113E10123AB404A4693606768072D00D910E10F233A009A4300D010E1A800A04B1A687D23D15C49440A686E3B1E00BB
:403A80008640B2433B40834013430B60277A072D00D902E11F233A009A4300D002E1954B1A6893694946CB1ADB0952691B01D318032D00D8FBE02A1F5968D2001F20904069
:403AC00081431F20074097400F435F60E768082D00D9F7E0032F00D9F9E06800854B1A687C23D15C49440A68793B1E008640B2433B40834013430B602769082D00D9EBE002
:403B0000012F03D97C497D4801F02AFD4B469A6901231900A9408A433B40AB4013434A4693616769072D00D9DBE0012F03D97449724801F015FD6F487E230268D15C494476
:403B40000A687D3B1E00AE40B446B2431F40AF4017430F606A001021884690440D390A004646B240664632437F270668F75D4F443E689643A2691A40AA403243E6693140DF
:403B80004646B1400A433A60016880228A5C4A4416001268FF218A43206A0340606A4700022038400343A06A8700042038400343E06AC700182038400343206B4001014060
:403BC0000B43AD00FE2189000D40AB401343336000200CBC90469946F8BD4E21494801F0BFFCF7E64F21474801F0BAFCF6E65021444801F0B5FCF6E65121424801F0B0FC90
:403C0000F6E652213F4801F0ABFCF5E653213D4801F0A6FCF4E654213A4801F0A1FCF3E65521384801F09CFCF2E65621354801F097FCF1E65721334801F092FCF0E6582110
:403C4000304801F08DFCEFE659212E4801F088FCEEE65A212B4801F083FCEDE65B21294801F07EFCECE6CC218900244801F078FCEAE62549214801F073FCE8E60123AB40BE
:403C80004A465360EAE621491C4801F069FCE9E61F491A4801F064FCE9E61E49174801F05FFCF7E61C49154801F05AFCF7E61A68E8001F2181408A431F210F408740174357
:403CC0001F6003E715490D4801F04AFC02E714490A4801F045FC00E71249084801F040FC0EE71149054801F03BFC1EE70F4870E70E486EE720B0020873060000A0B70D10FF
:403D00000D0400003CB70D1031030000CD030000CE0300009102000092020000F1060000F2060000720600000C04000001005A0070B505000C000B4B1A68B423D3581B1851
:403D40001B68002B0BDA0B0C04D12404240C6C60002070BD0449054801F002FCF5E70448F7E7C04620B00208DE020000D4B60D1001008A0070B505000C000368002B0DDA1F
:403D8000C2600B0C04D12404240CAC60002070BDB1218900024801F0E3FBF4E70148F6E7D4B60D1001008A0070B505000C1E0BD0094B1A68B423D3585B191B68002B08DA92
:403DC000EB682360002070BDA221044801F0C8FBEEE70348F7E7C04620B0020804B80D1001008A00034B1B68002B00D07047014B1860FBE750AE0208F0B5C64600B50600FE
:403E0000884617001D00304B1B68002B3FD02E4B1C682C2070432418FF231E002E4026602A0A134063602D0CA560284B1A683123D35C9E4230D2254B1B68B0229A5A72438C
:403E4000196A8C4662442261656832229B5C9D4228D21E4B1B681E6A80356D0176196661A5682B0C24D12B0C27D12D042B0C1D43B560E761434623620023A361069B002B58
:403E800002D000229B5EA38104BC9046F0BDBE210F4801F065FBBAE7E62149000D4801F05FFBC8E7F42149000A4801F059FBD0E70949084801F054FBD5E782218900054824
:403EC00001F04EFBD1E7C04650AE020820B002086CB80D10D4B60D1007020000F0B58FB0041E43D06368032B45D8E36A002B47D0236B002B49D007AA1300210061C961C334
:403F000021C921C302AD290023001433C1CBC1C141CB41C10821535E0CAE33801D4B1B68DB8E079989B25B187380089B0D930B9B0A980096A26AE16AFFF75EFF2B69E868CA
:403F4000002200920021FFF757FF216B300001F077FA0022B35E002B06DB1F2213401E3A9A4013000C4A13600FB0F0BD5B210B4801F0F6FAB6E75D21084801F0F1FAB4E723
:403F80006121064801F0ECFAB2E76221034801F0E7FAB0E720B0020800E100E06CB80D10F8B506000F0015001C00002A2DD0234B1B68002B2FD0214B19682C233000584372
:403FC00008187B43C918012633004A6893401B04426896400269002A29D08F69002F28D11268002A27DA2A681204120C13432B600369DD6001238B614C620469330C10D196
:404000003204120CA2600020F8BD832149000C4801F0A6FACBE70821FF31094801F0A0FAC9E7B1218900074801F09AFAE8E70648EAE70648E8E70548E6E7C04650AE02088A
:404040006CB80D10D4B60D1004028A0007028A00F8B507000E001500104B1B68002B0FD00E4B1C682C2078432418236A002B0DD0E369AB4210D9236AAD005E510020F8BDE1
:404080006821FF31064801F06BFAE9E76C21FF31034801F065FAEBE70248F0E750AE02086CB80D100A028A0070B582B0040000230193002813D02369002B16D06369002BF8
:4040C00019D0236A002B1CD06269D5682B0C1ED12D042D0C41D163691B6802B070BDED214900264801F03CFAE5E7DC21FF31234801F036FAE2E7EE214900204801F030FA46
:40410000DFE7DE21FF311D4801F02AFADCE71B041360136820691A4B1A68B423D3581B181B68002BD4DA01A9FFF73EFE00280ED101980268160CFF231340E2699A4207D9BB
:404140009B00226AD358002B02D0984700E0002631002069FFF7ECFDBAE763691D601B68636A002B05D09847002363620023A361B1E7A36A002BF9D09847F7E76CB80D10B3
:4041800020B0020810B50400084B1B68002B07D0064B18682C236343C018FFF785FF10BDDD214900024801F0DBF9F1E750AE02086CB80D1070B505000C00244B1A683123AD
:4041C000D35C83423AD900293AD00B68DB0639D13123D35C984225D21C4B1A68136AB021525A55435D191A4E35602368DA080021606802F02FF800212800FFF799FD356804
:40420000002C15D0220000212800FFF7B3FD00281AD10F4B18680021FFF78AFD00280ED00C480CE0E62149000B4801F099F9D3E7E7218900084801F093F9E3E7074870BD07
:404240000648FCE70548FAE70248F8E720B0020854AE020801018A00D4B60D1003018A00F0B583B00D00194B1B68DE68336883422AD947091F2318400124844000290CD0C2
:4042800000230193114B18680368002B09DB104C002D15D0200003B0F0BDFFF732FA0190F0E77268BB00D3181A68144206D0A2431A6000240021FFF73BFDE9E7054CF9E778
:4042C0000198FFF722FAE5E7034CE3E754AE0208030188000201880004018A000A4B1B68DB681A6882420DD941091F2210401E3A8240586889000B581A4201D1034802E039
:40430000034800E00348704754AE0208000188000101880004018A0070B504000D00144B1B689B6CC340DB0716D50F2D19D80F231A002A402904F020000301400C48006893
:404340000A431034A402016962500269A2581340AB420BD1002070BDA721064801F000F9E3E7A821034801F0FBF8E0E70248F2E720B00208D4B80D100300C20010B504005F
:40438000094B1B689B6CC340DB0708D5064B1B681B691034A402E3580F20184010BDC721024801F0DDF8F1E720B00208D4B80D1070B505000C00002837D06389DB0B3AD1F7
:4043C000A379012B01D0032B3BD1E379012B01D0032B3CD162897F23110099430B1E3ED1A17907330B40E079C000382101400B43217A012041408901402001400B4352027A
:4044000019490A401343627A92078021C9050A401343164A1A409A4223D16B626A6A13490A409A4219D100201CE07A21FF31104801F096F8C1E7BD2149000D4801F090F804
:40444000BEE77C21FF310A4801F08AF8BDE7BE214900074801F084F8BCE7064802E0064800E0054870BDC04600FEFF00DBFEFFE0D4B80D100300C2000100C20070B50500EC
:404480000C00002843D06389DB0B46D1A379072B49D8E379072B4CD82379073BDBB2182B4DD862897F23110099430B1E4FD16179FF33206898430143A07907230340E6797D
:4044C000F600382030400343207A01267040800140263040034352021F480240134322791206F820400502401343627A92078020C005024013436B6029602A688A4228D192
:404500006A6816490A409A421FD1002022E0C221FF31134801F024F8B5E7E1214900104801F01EF8B2E7C421FF310D4801F018F8AFE7E22149000A4801F012F8ACE7C621A4
:40454000FF31074801F00CF8ABE7064802E0064800E0044870BDC04600FEFF00FFFEFFFFD4B80D100300C2000100C20010B5041E09D0626A80231B0613436362636A002BCC
:4045800007DA002010BDFF214900034800F0E8FFEFE70248F6E7C046D4B80D100300C20010B5041E09D0626880231B06134363606368002B06DA002010BD0349034800F080
:4045C000CFFFF0E70248F7E74E020000D4B80D100300C20070B505000C0000283AD0A379012B01D0032B3AD1E379012B01D0032B3BD1244B1A682F23D35C012B3CD162894D
:404600007E33110099430B1E38D1A17907330B40E079C000382101400B43217A012041408901402001400B43520217490A401343627A92078021C9050A401343134A1A40C5
:404640009A421DD16B626A6A10490A409A4211D1002012E00E490F4800F082FFBFE7A521C9000C4800F07CFFBEE70B49094800F077FFBEE7094800E0094870BD0948FCE711
:404680000848FAE720B0020800FEFF00DBFEFFE027050000D4B80D10290500000300C2000200C2000100C20070B505000C0000284AD0A379032B4CD8E379032B4ED82379B9
:4046C000073BDBB2182B4ED82F4B1A682F23D35C012B50D162897E33110099430B1E4CD16179FF33206898430143A07907230340E679F600382030400343207A01267040DC
:404700008001402630400343520220480240134322791206F820400502401343627A92078020C00502401343194A1A409A4226D16B6029602A688A4223D16A6814490A40BF
:404740009A4216D1002017E01249134800F008FFAFE71249104800F003FFADE710490E4800F0FEFEABE7AF21C9000B4800F0F8FEAAE70C4800E00C4870BD0C48FCE70B4814
:40478000FAE70848F8E7C04620B0020800FEFF00DBFEFFFF75050000D4B80D1076050000770500000300C2000200C2000100C20010B5041E0FD00C4B1A682F23D35C012B83
:4047C00010D1626A80231B0613436362636A002B06DA002007E00549054800F0C1FEEAE7044800E0044810BD20B00208BD050000D4B80D100300C2000200C20010B5041E39
:404800000FD00C4B1A682F23D35C012B10D1626880231B06134363606368002B06DA002007E00549054800F09BFEEAE7044800E0044810BD20B0020816060000D4B80D10D5
:404840000300C2000200C20070B505000C00002836D02378032B38D86378032B3AD8244B1A682F23D35C012B3BD1A2887E33110099430B1E37D1217807330B406078C000FE
:40488000382101400B43A178012041408901402001400B43520217490A401343E27892078021C9050A401343134A1A409A421CD16B626A6A10490A409A4210D1002011E0F4
:4048C0000E490F4800F04CFEC3E70E490C4800F047FEC1E70C490A4800F042FEBFE70B4800E00B4870BD0B48FCE70A48FAE7C04620B0020800FEFF00DBFEFFE05608000012
:40490000D4B80D1057080000580800000300C2000200C2000100C20070B505000C00002836D02378032B38D86378032B3AD8244B1A682F23D35C012B3BD1A2887E331100D5
:4049400099430B1E37D1217807330B406078C000382101400B43A178012041408901402001400B43520217490A401343E27892078021C9050A401343134A1A409A421CD182
:404980006B606A6810490A409A4210D1002011E00E490F4800F0E4FDC3E70E490C4800F0DFFDC1E70C490A4800F0DAFDBFE70B4800E00B4870BD0B48FCE70A48FAE7C0466B
:4049C00020B0020800FEFF00DBFEFFE0A7080000D4B80D10A8080000A90800000300C2000200C2000100C20010B5041E0FD00C4B1A682F23D35C012B10D1626A80231B0666
:404A000013436362636A002B06DA002007E00549054800F0A5FDEAE7044800E0044810BD20B00208EB080000D4B80D100300C2000200C20010B5041E0FD00C4B1A682F2349
:404A4000D35C012B10D1626880231B06134363606368002B06DA002007E00549054800F07FFDEAE7044800E0044810BD20B0020844090000D4B80D100300C2000200C20000
:404A800070B505000C00002836D02378032B38D86378032B3AD8244B1A682F23D35C012B3BD1A2887E33110099430B1E37D1217807330B406078C000382101400B43A17844
:404AC000012041408901402001400B43520217490A401343E27892078021C9050A401343134A1A409A421CD16B626A6A10490A409A4210D1002011E00E490F4800F030FDE8
:404B0000C3E70E490C4800F02BFDC1E70C490A4800F026FDBFE70B4800E00B4870BD0B48FCE70A48FAE7C04620B0020800FEFF00DBFEFFE0A8090000D4B80D10A909000043
:404B4000AA0900000300C2000200C2000100C20070B505000C00002836D02378032B38D86378032B3AD8244B1A682F23D35C012B3BD1A2887E33110099430B1E37D12178A2
:404B800007330B406078C000382101400B43A178012041408901402001400B43520217490A401343E27892078021C9050A401343134A1A409A421CD16B606A6810490A40A6
:404BC0009A4210D1002011E00E490F4800F0C8FCC3E70E490C4800F0C3FCC1E70C490A4800F0BEFCBFE70B4800E00B4870BD0B48FCE70A48FAE7C04620B0020800FEFF00E9
:404C0000DBFEFFE0F9090000D4B80D10FA090000FB0900000300C2000200C2000100C200094B1A682F23D35C012B0BD1426A80231B0613434362436A002B01DA002002E03F
:404C4000024800E00248704720B002080300C2000200C200094B1A682F23D35C012B0BD1426880231B06134343604368002B01DA002002E0024800E00248704720B0020828
:404C80000300C2000200C20003681B050CD5802282239B00C358DB05DB0D934206D090239B00C150012070474022F1E70020FAE7F8B505000C001600002800D1CFE1002977
:404CC00000D1CEE10B78022B21D8637B023BDBB2062B21D8A37B002B03D0022B01D0032B1FD12123E35C012B20D82823E35C012B21D82378012B23D9A37F002B00D1B7E0B3
:404D00006368013B062B00D9B4E000231EE04821C44800F025FCD8E74921C24800F020FCD8E74A21BF4800F01BFCDAE74B21BD4800F016FCD9E74C21BA4800F011FCD8E791
:404D40006268083A082393429B415B42002B00D092E0A368053B042B00D992E06369FF2B00D993E0A369FF2B00D994E0A37C002B0AD02378002B03D1A368092B00D18FE07A
:404D80005321A84800F0ECFBA74B626B1A4200D08BE0A64BE26B1A4200D08BE02378022B00D18CE06368591E237F002B00D18CE080235B02A268082A00D988E0802212010A
:404DC00013430F220A4013438022920413432B60236B2A6812057CD5802293427BD2A36B2A6812057CD5802293427BD2636A2A6812057CD5802293427BD223781B06C02232
:404E0000920413402B64637F002B77D04023A27C002A75D08022D2001343227C002A71D0802252001343627C002A6DD0802292001343E26A013A1204F02109030A40134370
:404E4000617B013907220A401343A17B090130220A401343AB64237B002B57D080225200E37B002B57D12378022B51D0002154E000236BE7012369E74E216A4800F070FBF4
:404E800067E74F21674800F06BFB67E75021654800F066FB66E75121624800F061FB65E7A37B002B00D16FE76AE755215D4800F057FB6EE756215B4800F052FB6EE7A37F30
:404EC000002B00D06EE700216EE7002372E7002276E7402281E76B21524800F041FB7EE7402281E76C214F4800F03AFB7EE7402281E76D214B4800F033FB7EE7002386E7FA
:404F0000002289E700228DE7002291E70022A7E78021890001E0802189001143A3685A1E0F231A400A43C02080002A50FF2261690A40A1690904FF273F0439400A43C421E0
:404F400089006A50E26A29580B4003339A4201D3102A03D98321334800F002FBE37F002B04D02378012B59D0002100E00021627B013A072313400B43A17B090130220A40B6
:404F800013436B64237B002B5CD080214900A3685A1E0F2313400B432278012A54D00022134380229200AB50FF23226B1340C1229200AB502023E35C002B48D080239B048E
:404FC0002122A25C012A44D0002213432822A25C012A41D000221343FF22616A11400B432B65A36B1A4081239B00EA50104B626B1340104AAB50E36B0F4A13400F4AAB50A3
:40500000002E30D0002373603360B360F3603362F36233630A4B73630020F8BD80214900A5E7C04638B90D1092F4FFFF8CF8FFFF6D0B0000C80F000073070000880F0000E3
:40504000EFCDAB000021A2E780225202A8E70023B6E780225204B8E780225202BBE70348DBE70248D9E70020D7E7C0460160AA00134B1A683C23D35C83421DD9042904D972
:405080004B1EFF3B9BB2132B18D8FF2907D807231940D03080000B4BC150002070471F231940084A0300C0339B009950D0308000042383500020F1E70348EFE70248EDE772
:4050C00020B002080000264001004A0010B504000E4B1A683C23D35C834209D92300D0339B000B4A985807231840042806D010BDA3214900074800F033FAEFE7C034A4000E
:40510000A3581B300340E1301843F0E720B0020800002640A0B90D1070B5041E00D16AE04F4AB023DB00D358002B00DA95E04D4B22689A4200D963E023689B039B0BE2795B
:40514000002A62D08022520413434549B022D2008B50A288444B9A4259D82289434B9A425BD8A388DB04DB0C2289120440490A4013433B493F4A8B50A37A0F2B52D8E37AC9
:405180000F2B55D8A289384B9A4256D8A27A0F231340E17A0901FF220A401343A289120235490A401343A27B1207C02189050A4013432B49B122D2008B50A379042B41D80F
:4051C000228A2A4B9A4242D825482C4943582C4A1340A2791202E025ED002A40134343504358284A1340228A1204214C224013434350002070BD2449244800F0B1F98FE7CE
:405200002349224800F0ACF996E700229CE7942189001E4800F0A4F99FE71E491B4800F09FF99EE796218900184800F099F9A6E71949164800F094F9A4E71849134800F030
:405240008FF9A3E71649114800F08AF9B8E7992189000E4800F084F9B6E71248CAE7C04600002640FFFF0300FF1F0000FF0100000000FF018405000000FF1F008C050000E1
:40528000FFF8FFFFFFFF00FE3F020000A0B90D104902000051020000590200005A0200006302000003004A0070B505003149324A885880231B0603438B502C0003E001202A
:4052C00000F042F9013C2B4AB223DB00D3585B0701D4002CF3D12748B121C9004358274A1A4080239B0513434350002D01D0002C0CD02049B022D200885880231B06034336
:405300008B5003E0012000F01FF9013C194AB223DB00D358DB0701D4002CF3D1002D01D0002C0DD01349B122D2008858C0239B0503438B50002D19D0002C19D0002016E097
:405340000C4BB120C0001A580C491140802292050A431A50B021C9005A58520052085A5005495A58520052085A50E3E7002070BD0348FCE7000026408C050000FFFFFFCF3D
:4053800002004A00B0B505000C00194B1B6828229A5C012A11D05B8F8B4224D007200540134A1268126880200006284380239B019C466444A400A050B0BD870806323900B5
:4053C00091430A1EF8D103200540ED00FF32AA4019682031BF00C9190B68AC405C4014405C400C60E8E77F21024800F0B9F8D5E720B0020804BA0D1070B504000D000C4B56
:405400009A680C4B9A4204D01034A4000A4BE05870BD002905D01034064BA400E058E550F6E7A0214900054800F09AF8F3E7C04600ED00E000A0020800000D1004BA0D1018
:40544000F0B5CE46474680B583B0061E019155D04368032B2AD80023F05E00282BDA284C0022B35E7168002B2ADB9A08254FC0329200D059844603200340DB00FC308146B9
:4054800005009D406046A843050089014846084098402843D0511C4B9A681C4B9A4227D0200003B00CBC90469946F0BD3B21184800F056F8CFE77188FFF764FF0024CFE734
:4054C0009BB20F221A40083A9208063292000E4884466244556803273B40DB00FF2007009F40BD4389010140994029435160D2E70023F05E0199FFF77FFFD1E7004CCFE773
:405500000100560000E100E000ED00E000A0020804BA0D1010B5040006E0084B1868FEF7E7F8074B9C46644480231B029C42F4D8044B18686043FEF7DBF810BD30A1020883
:405540000080FFFF38A1020810B5034B1B785843FEF7CEF810BDC0463CA1020801BEFEE770B50D00044C18220100200001F008FDA5610020FFF7F2FF70A80208054B80227C
:4055800012069A649B6C002B01DB002070470248FCE7C0460000274003004600054B8022120198585B68FF221A4202D08023DB021843704700002640FEE7000010B50A4B0F
:4055C0000268DA6142681A6282685A62C2689A620269DA6242691A6382695A63C2699A63FFF7EAFF10BDC04670A80208F0B5C64600B5002833D019238B429B415B42314C11
:4056000022681668A827D25BB61832680325AA432B401A43326026683268F65B92191768294E3740176027683A689046AA229446BF5A3A0042441768AF433B431360226815
:4056400013686446125B9B181A6832401A60002807D010291FD9212929D801221CE06423CAE7184B1B6855229A5C8A4221D256229A5C8A421FD257229A5C8A421DD25822C4
:405680009A5C8A421BD259229B5C8B4201D2052202E0553A00E000220A4B1B6859680B680F20834313430B6004BC9046F0BD0222F2E70022F0E70122EEE70222ECE7032280
:4056C000EAE7C04620B00208FFFCFFFF30B5B0235B059B899BB2002B22D0B0235B059B899BB28022520093421AD0B0204005174BC358174A1340174C21680A689825495900
:40570000521811680B43C02189000B431360226813689C2152589B180F4A82581A6014E00C4B1A6811689820125889180A680F24A243963802430A601B681A689C215B58BC
:40574000D2181368A3430343136030BD48180000FFFCFFFF20B002084418000070B5B0235B059B899BB2002B22D0B0235B059B899BB28022520093421AD0B0246405C1204E
:4057800040012358154A1340154D29680A6898268959521811680B43C02189000B4313602A6813689C2152589B1822581A6014E00B4B1A6811689820125889180A680F2452
:4057C000A243953802430A601B681A689C215B58D2181368A3430343136070BDFFFCFFFF20B00208B0235B059B899BB2002B1AD0B0235B059B899BB280225200934212D0C7
:40580000B02252050F4BD3580F4A13400F4A11680A6898200958521811680B43C02189000B4313600CE0094B1A681368982152589B181A6806491140C022D2010A431A6064
:405840007047C04618180000FFFCFFFF20B00208FF8FFFFF70B5B0235B059B899BB2002B21D0B0235B059B899BB280225200934219D0B024640513482358134A1340134D7E
:4058800029680A6898268959521811680B43C02189000B4313602A6813689C2152589B1822581A600CE0094B1A681368982152589B181A68064911408022D2010A431A601D
:4058C00070BDC0464C180000FFFCFFFF20B00208FF8FFFFF10B5B0235B059B899BB2002B09D0B0235B059B899BB280225200934201D0012010BD0020FEF740FDB0235B0594
:405900005B78002B05D0B0235B055B78DBB2222B03D8002803D10130ECE70120EAE70020E8E70000F8B5070001281ED8B0235B055B78002B1ED0B0235B055B78DBB29DB224
:40594000B0235B059B899BB2002B15D0B0235B059E89B6B20020FEF711FD002820D180235B009E420BD0314C1BE031493148FFF7F7FDDBE72123E2E780267600EAE7222D5C
:405980003ED82D4B1B6858682C4943582C4A13403A0680246404224013434350002400E0224C80235B009E422CD080235B009E4224D0214B1A683123D35C002B25D01E4B8E
:4059C0001B681D6A80235B009E4224D0002F28D01C4A01212800FEF7CDF900280ED1164B1A68B423D3585B191B68002BF7DBEB681B0E1B06A0221206934214D02000F8BD54
:405A00000A4CCEE7222DD4D8CFE7E62149000E48FFF7A6FDD3E7002F01D00C4AD9E70C4AD7E70C4AD5E70024E8E7C046040042007F0A000068BA0D1020B0020818F000008C
:405A4000FFFFFFFE0300000CD4B60D1001010030010000300100000CF8B5040001281AD8FFF738FF002850D0FDF74BFE0600002C19D1274A274B0021D150B0225205E82312
:405A8000DB00D75CFFB20120FFF74CFF051E07D0002D2BD11EE020492048FFF761FDDFE7FFF714FEF4E7B0235B051D4A98581849184A88501B4A9F5CFFB21B4A8B581F2019
:405AC0008343143803438B500838FFF73DFDFFF7C1FE00250E48144943581F2293433A4013434350002C06D1FFF77CFE3000FDF70CFE2800F8BD0720FFF726FDFFF72EFE81
:405B00000020FFF70FFF0500F0E7084DF1E7C04600002640307F00005308000068BA0D1010180000410700001CFF0000030042000749C02252008B589B009B088020C005A9
:405B400003438B50885880231B0603438B5070470000264002B4714649084900095C49008E4402BC7047C046002243088B4274D303098B425FD3030A8B4244D3030B8B42C8
:405B800028D3030C8B420DD3FF22090212BA030C8B4202D31212090265D0030B8B4219D300E0090AC30B8B4201D3CB03C01A5241830B8B4201D38B03C01A5241430B8B4278
:405BC00001D34B03C01A5241030B8B4201D30B03C01A5241C30A8B4201D3CB02C01A5241830A8B4201D38B02C01A5241430A8B4201D34B02C01A5241030A8B4201D30B02B9
:405C0000C01A5241CDD2C3098B4201D3CB01C01A524183098B4201D38B01C01A524143098B4201D34B01C01A524103098B4201D30B01C01A5241C3088B4201D3CB00C01AAF
:405C4000524183088B4201D38B00C01A524143088B4201D34B00C01A5241411A00D20146524110467047FFE701B5002000F0F0F802BDC0460029F7D076E7704703460B43C1
:405C80007FD4002243088B4274D303098B425FD3030A8B4244D3030B8B4228D3030C8B420DD3FF22090212BA030C8B4202D31212090265D0030B8B4219D300E0090AC30BED
:405CC0008B4201D3CB03C01A5241830B8B4201D38B03C01A5241430B8B4201D34B03C01A5241030B8B4201D30B03C01A5241C30A8B4201D3CB02C01A5241830A8B4201D3F4
:405D00008B02C01A5241430A8B4201D34B02C01A5241030A8B4201D30B02C01A5241CDD2C3098B4201D3CB01C01A524183098B4201D38B01C01A524143098B4201D34B01F5
:405D4000C01A524103098B4201D30B01C01A5241C3088B4201D3CB00C01A524183088B4201D38B00C01A524143088B4201D34B00C01A5241411A00D2014652411046704710
:405D80005DE0CA0F00D04942031000D34042534000229C4603098B422DD3030A8B4212D3FC22890112BA030A8B420CD3890192118B4208D3890192118B4204D389013AD074
:405DC000921100E08909C3098B4201D3CB01C01A524183098B4201D38B01C01A524143098B4201D34B01C01A524103098B4201D30B01C01A5241C3088B4201D3CB00C01AE5
:405E0000524183088B4201D38B00C01A5241D9D243088B4201D34B00C01A5241411A00D20146634652415B10104601D34042002B00D54942704763465B1000D3404201B534
:405E4000002000F005F802BD0029F8D016E770477047C046002B11D1002A0FD1002900D1002802D00021C943081C07B4024802A14018029003BDC046D9FFFFFF03B4684605
:405E800001B5029800F030F8019B9E4602B00CBC7047C046F0B5CE46474615042D0C2E0080B50704140C3F0C9946030C7E435D43674363437F19340CE4199C46A54203D939
:405EC00080235B029846C4444B4643435143250C36046544360C2404A4195B19591820000CBC90469946F0BDF0B54F464646D646C0B5040082B00D00914698468B422FD884
:405F00002CD04146484600F0B1F829000600200000F0ACF8331A9C46203B9A4600D576E04B46524693401F004B46624693401E00AF4228D825D05346A41BBD41002B00DAB9
:405F40007BE000220023009201930123524693400193012362469340009318E08242D0D900220023009201930A9B002B01D01C605D600098019902B01CBC90469946A24603
:405F8000F0BDA342D7D900220023009201936346002BE9D0FB079846414672080A437B0866460EE0AB4201D1A2420CD8A41A9D41012024196D410021013E24184D41002ED5
:405FC00006D0AB42EED9013E24196D41002EF8D100980199534600196941002B23DB2B005246D3402A006446E2401C0053461500002B2DDB26005746BE40330026006746AF
:40600000BE403200801A994100900191ACE7624620239B1A4A46DA406146130042468A4017001F4380E7624620239B1A2A0066469A402300F3401343D4E76246202300210E
:406040009B1A0022009101920122DA40019280E72023624626009B1ADE402F00B0466646B74046463B003343C8E7C04610B5002903D100F007F8203002E0081C00F002F85F
:4060800010BDC0461C2101231B04984201D3000C10391B0A984201D3000A08391B09984201D30009043902A2105C40187047C0460403020201010101000000000000000020
:4060C00030B51C00094B05001B6885B0D868084B002A01D1074B1A000292019300912B002200054900F010F801F0F6F87CA10208CCBA0D1007BB0D10D9BA0D1010B50A221E
:40610000002100F0FDFF10BD0EB403B5010003AB044804CB0068019300F074F902B008BC03B018477CA1020870B505000E001400002804D08369002B01D102F033F81C4B84
:406140009C420FD16C68A3891B0702D52369002B21D12100280001F049F800281BD00120404270BD134B9C4201D1AC68EBE7124B9C42E8D1EC68E6E7A3680136013BA360D7
:40618000002B04DAA26993420ADB0A2908D023685A1C2260197031780029EDD10800E0E72200280000F0C0FF431CF4D1D7E7C04688BC0D10A8BC0D1068BC0D1010B5034B84
:4061C0000A0001001868FFF7AFFF10BD7CA10208EC3000687047000010B5034B0100186800F08AF810BDC0467CA1020810B5034B0100186800F036F810BDC0467CA1020895
:4062000082B0002900D101A9101E06D0002B06D013780B601078431E984102B0704702204042FAE730B50024A24201D1002005E0035D651C0C5DA34201D0181B30BD2C00CD
:40624000F2E7002310B59A4200D110BDCC5CC4540133F8E703001218934200D1704719700133F9E770B50500002910D00C1F2368002B00DAE418280002F0ABF81D4A1368E0
:40628000002B05D163601460280002F0A3F870BDA34209D9216860188342F3D118685B6841182160EEE713005A68002A01D0A242F9D919685818A0420BD120680918581833
:4062C00019608242E0D110685268411819605A60DAE7A04202D90C232B60D5E721686018824203D1106852684118216062605C60CAE7C04678AE0208032370B5CD1C9D43E0
:40630000083506000C2D1ED20C25A9421DD8300002F05FF8254A14682100002919D1244C2368002B03D1300000F0E0FD20602900300000F0DBFD431C2BD10C233000336063
:4063400002F048F803E0002DDFDA0C233360002070BD0B685B1B19D40B2B03D90B60CC18256003E04B688C420DD11360300002F031F8200007220B30231D9043C31AE7D02C
:406380005A42E250E4E763600C00EFE70C004968C3E70323C41C9C43A042E1D0211A300000F0A4FD431CDBD1C7E7C04678AE02087CAE0208936810B5013B9360002B04DAA9
:4063C0009469A34207DB0A2905D01368581C10601970080010BD00F0A7FE0100F9E7F8B506000F001400D518AC4201D1002007E021783A003000FFF7DDFF0134431CF3D1E7
:40640000F8BD0000F0B59FB002900F0016000593002805D083690493002B01D101F0C2FE7B4B9F425BD1029B5F68BB891B0762D53B69002B5FD0002306AC6361203363769F
:406440001033A37635002B78002B01D0252B5CD1AB1B04930CD0320039000298FFF7BFFF431C00D1C4E06269049B9446634463612B78002B00D1BBE0012200235242626024
:4064800002A9543252186E1C2360E360A3601370A365317805225F4801F090FF751C002835D12268D30604D5532302A95B1820211970130704D5532302A95B182B211970B7
:4064C00033782A2B2CD0350000210A20E3682A786E1C303A092A64D900292ED026E04E4B9F4202D1029B9F689FE74C4B9F429CD1029BDF6899E73900029800F077FE002882
:4065000099D0012040421FB0F0BD01359BE7414B2268C01A01238340134323602E00B8E7059B191D1B680591002B01DB099304E05B42E3600223134323602B782E2B0AD173
:406540006B782A2B35D1059B02351A1D1B680592002B2BDB0793324E29780322300001F02DFF002806D04023801B83402268013513432360297806222A486E1C217601F0B2
:406580001DFF00283AD0284B002B25D10722059B07339343083305936369039A9B18636150E7434301219B18350090E701235B42D0E700230A201A000135636029786E1C2C
:4065C0003039092903D9002BC5D00792C3E74243012352183500F1E705AB00933A00134B2100029800F0C0F80390039B0133D3D1BB895B0600D584E70B9884E705AB009384
:406600003A000A4B2100029800F068FBECE7C04688BC0D1016BB0D10A8BC0D1068BC0D101CBB0D1020BB0D1069670D10DF630D10F0B58BB014001D1E129953DA80242406C6
:406640001B191D0014002D230B702023149E03229E43462E07D03300453B59424B411099013ACB18109309AB049308AB0393139B00920293109B220001932B0000F0BAFEC3
:406680000700472E02D1119BDB0724D5109BFB180793462E14D13B78302B0CD1002200232000290002F0A4FA002804D10123109A9B1A139A1360139B079A1B68D318079353
:4066C000002200232000290002F092FA302200280DD0079B09933800099B159ADB1B13600BB0F0BD0023AFE7591C09911A70099B07998B42F8D3EEE7F0B5831C85B001938D
:4067000006000C0002702B23002901DA2D234C427370092C22DD02ABDD1D20000A21FFF793FB6F1E3031397020000A21FFF7A6FA040009280BDC023D3034019B2C7002AAFD
:4067400007321800AA4204D8801B05B0F0BD3D00E3E72A7801351A700133F0E73023E418B370301DF470EFE7F0B595B00C000A920B931A9D099001F0A9FD036818000C935D
:4067800000F0E6FB0023129323680E900D930D99277E2B680722C90545D59B1893431A0008322A601A685B68A264E3640122E56CA66C6B005B080F935242AC4B30000F9936
:4067C00003F024FF002830D10122A84B524230000F9902F01DFA002827D1002200233000290002F00BFA002803D023002D2243331A709F4D472F00D89E4D032300260D9A95
:40680000236101339A4322600B9B13AA009321000A9B099800F0F4F9431C00D093E00120404215B0F0BD0733B8E732002B003000290003F0EBFE002804D08F4D472FDCD8E3
:406840008E4DDAE780230D996268DB000B43511C43D10732626012AA0021059211AA0392232223600691019308A9636852180292009332002B0004970998FFF7D9FE202357
:406880003A0005009A43472A07D1119BDA1C02DB6268934245DD023FFFB21199652F25D8200001393A0050301191FFF725FF129A060013182361012A02DC2268D20701D593
:4068C00001332361232308AA9B181B78002B9BD023002D2243331A7096E7672F00D176E1472FB8D1002AB6D10122B3E7662F19D1636800290CDD2161002B02D12268D207B3
:4069000002D501335B182361119B0026A365D9E7002B03D101222168114200D09A1C2261F2E76727119B129A934205DB22682361D207E9D50133E6E70121002B01DC49180F
:40694000C91A5218EBE72268530508D423692A000A9909980B9DA847431C29D15FE7652F00D8E0E0A06CE16C0022002302F040F9002834D00123424A0A9909980B9DA8475E
:40698000431C00D14BE7119B129A934202DB2368DB070DD50B9D0E9B0C9A0A990998A8470025431C00D13AE7129B013BAB420ADC23689B0700D508E1139BE068984200DB2A
:4069C0002FE718002DE7220001231A320A9909980B9EB047431C00D121E70135E4E7119B002B2DDC0123264A0A9909980B9EB047431C00D113E7119B002B05D1129B002B9F
:406A000002D12368DB07D3D50B9E0E9B0C9A0A990998B0470026431C00D100E7119B5B42B34201DC129B92E7220001231A320A9909980B9FB847431C00D1F0E60136EDE72D
:406A4000A36D129F9F4200DD1F00002F08DD3B002A000A9909980B9EB047431C00D1DEE600230D93FB43DB170F9318E0FFFFEF7F2BBB0D1027BB0D1033BB0D102FBB0D101A
:406A8000B2AD0D10220001231A320A9909980B9EB047431C00D1C2E60D9B01330D930F9BA66D0D9A3B40F31A9342EBDC119B129AAD19934210DB2368DB070DD4129F119B7F
:406AC000BE1BFF1AB74200DD3700002F0DDCFE43F31700250C931CE00E9B0C9A0A9909980B9FB847431CE9D199E63B002A000A9909980B9DA847431CE9D190E6220001238B
:406B00001A320A9909980B9EB047431C00D186E60135119A129B0C999B1A3A000A409B1AAB42EBDC44E7129B012B02DC01231A4232D001232A000A9909980B9FB847431CB6
:406B400000D16CE60E9B0C9A0A9909980B9F0135B847431C00D162E6A06CE16C129B00225F1E002302F044F83B00002814D000250AE0220001231A320A9909980B9FB8473D
:406B8000431C00D14BE60135129B013BAB42F0DC220033005032DBE62A000A9909980B9DA847431CF4D13AE62200012319320A9909980B9EB047431C00D130E60135E3687F
:406BC000139A9B1AAB42EFDCF6E60025F7E7002A00D189E60021069112A9059111A90391232108A809182360019300922B000497029132000998FFF71BFD050045E6C046AD
:406C0000F7B5150001938A680B6900900C00934200DA130022002B6043321278002A01D001332B6023689B0602D52B6802332B60062723681F4027D0230043331B785A1ECD
:406C400093412268920630D42200019943320098089EB047431C25D0062320682A68E16803400025042B03D18D1AEB43DB171D40A3682269934201DD9B1AED180027BD421C
:406C800020D1002010E00137E3682A689B1ABB42D2DD22000123193201990098089EB047431CF0D101204042FEBD3020E1184331087021005A1C45310978A2184332023358
:406CC0001170C1E7220001231A3201990098089EB047431CE6D00137D1E70000F0B589B004920A0043320593039002920A7E0C000E9B6E2A00D186E01FD8632A33D008D8E0
:406D0000002A00D18CE0582A4DD0250042352A7030E0642A01D0692AF7D1196825680A1D280629D508681A60002803DA2D23029A404213706B4E0A274FE0732A74D008D832
:406D40006F2A1FD0702AE0D1202209680A43226003E0752A16D0782AD7D12200782145321170614E22E025001A684235111D196013682B70012365E008681A606906D3D563
:406D800000B2D1E719682568081D186008682E0605D5544E08276F2A1BD00A2719E06D06F7D580B2F5E745314E4E0A7018682268011D00681960150621D5D30702D52023DA
:406DC0001A4322601027002803D1202322689A4322602300002243331A706368A360002B58DB0422216891432160002854D1029D002B5AD02500337842352B7055E055062D
:406E0000DBD580B2D9E71A680D68101D4969186013682E0601D5196002E06D06FBD519800023029D23614FE01A68111D1960156800216268280001F0C1FA002801D0401B78
:406E40006060636823610023029A13703CE023692A0004990398059DA847431C3ED023689B0715D4079BE068984239DA180037E022000123193204990398059EB047431CDB
:406E80002CD00135E368079A9B1AAB42F0DCE9E70025F7E70028ADD0029D3900FEF7EAFE735C013D2B700028F7D1082F09D12368DB0706D563682269934202DC3023013D8E
:406EC0002B70029B5B1B2361059B07AA00932100049B0398FFF794FE431CB8D10120404209B0F0BD37BB0D1048BB0D10002370B5064C05000800236003F076FC431C03D1B7
:406F00002368002B00D02B6070BDC04624B00208C9B20378002B04D08B4200D170470130F7E74B42594149420840F7E702780B78002A03D0013001319A42F7D0D01A70475D
:406F400003000A7801311A700133002AF9D170470023C25C0133002AFBD1581E7047002330B59A420AD0013AC45CCD5CAC4204D1934202D00133002CF6D1631B180030BD03
:406F800030B50500002A00D130BD0C78013A6B1C2C700131002C05D19A189A42F4D01C700133FAE71D00EDE7F0B51F000E008DB00B900291039212983478FFF709F90822BB
:406FC00000194378751C134053D12D2C53D17478B51C01330193002F00D18AE0102F0AD1302C08D120222B789343582B00D07AE010276C780235019B002B41D1013B049394
:407000003E4B05933A00FB17049805990893FEF721FF002309900E00002000210A922200303A092A31D81400A7423DDD5A1C1DD0B14236D802D1099B984232D8099B83424B
:4070400006D18E4204D101230A9A5B42A2420DDB0B00020008993800FEF71CFFE31706940793069B079CC018614101232C780135D5E72E009FE72B2CACD1B51C7478A9E7F2
:407080000023049380231B06BBE72200413A192A01D8373CC8E72200613A192A04D8573CC2E701235B42E1E75A1C09D10B9A23331360039B04980599002B0ED10DB0F0BD2A
:4070C000019A002A04D006000F0000217042B941039A002AF2D0002B01D06B1E0293039B029A1A60EAE73024002F00D083E7082781E7302C00D175E70A277CE7FFFFFF7F00
:4071000037B51300064A05001068046A002C00D1044C0A0000942900FFF746FF03B030BD7CA10208E0A10208F8B505000E001400002804D08369002B01D101F033F8224B32
:407140009C422DD16C68A369A360A3891B0731D52369002B2ED023682269F7B2981A6369F6B2834205DC2100280000F0ADFF002826D1A3680130013BA36023685A1C2260BA
:407180001F706369834204D0A389DB071AD50A2E18D12100280000F097FF002812D00FE00A4B9C4201D1AC68CDE7094B9C42CAD1EC68C8E72100280000F018F80028CAD04D
:4071C000012676423000F8BD88BC0D10A8BC0D1068BC0D100B1E04D0FF2A04D98A2303608B3B180070470A700123FAE7364B70B51D6806000C00002D05D0AB69002B02D130
:40720000280000F0CFFF314B9C420FD16C680C23E25E93B219072DD4D90611D409230120336037331343A381404270BD284B9C4201D1AC68EBE7274B9C42E8D1EC68E6E71B
