:02000004100DDD
:4000000000D002084B1B0D100D000000B91B0D1000000000000000000000000000000000000000000000000000000000B51B0D100000000000000000B51B0D10B51B0D109E
:40004000B51B0D10B51B0D10B51B0D10B51B0D10B51B0D10B51B0D10B51B0D10B51B0D10B51B0D10B51B0D10B51B0D10B51B0D10B51B0D10B51B0D10B51B0D10B51B0D10B0
:40008000B51B0D10B51B0D10B51B0D10B51B0D10B51B0D10B51B0D10B51B0D10B51B0D10B51B0D10B51B0D10B51B0D10B51B0D10B51B0D10B51B0D10B51B0D10B51B0D1070
:4000C00010B5064C2378002B07D1054B002B02D0044800E000BF0123237010BDD40702080000000054BB0D10084B10B5002B03D00749084800E000BF07480368002B00D173
:4001000010BD064B002BFBD09847F9E700000000D807020854BB0D105003020800000000F0B50F000400002685B0BE4201D100203FE0A022204BD2009B58032B05D02378C6
:40014000092B02D801361034EFE723781B4A0933DB00D3185A68002AF4D09B6801AD2B71637829006B71A378A068AB71E3780192EB7123792B7263796B72E3886B8104F07B
:4001800007F9002815D1237B2900AB71637BA068EB71E3896B8104F09DF8002809D1A06804F07CF9002804D1A06804F05FF90028C8D005B0F0BDC04600002140F80D0208CF
:4001C00070B506000024104AA3019B180F491A68A3015B181B68002A04DA0134102CF2D1002070BD002BF8DB094B3100E518AD01280004F06FF80028F3D1280004F036F91A
:400200000028EAD0EDE7C04604202440242024408090000173B50E0004000025B54201D1002076BD6A462378694613706378E0685370A3789370E378D370A388938004F0F5
:40024000CFFB0028EDD16A46A37969461370E379E0685370237A93706389938004F060FB0028DED1E06804F035FC0028D9D1E06804F016FC10340028D3D10135CEE773B5F4
:400280000E0004000025B54201D1002076BD6A462378694613706378E0685370A3789370E378D370A388938004F092FA0028EDD16A46A37969461370E379E0685370237A26
:4002C00093706389938004F023FA0028DED1E06804F002FB0028D9D1E06804F0D9FA10340028D3D10135CEE7F0B50F000400002685B0BE4202D1002005B0F0BD236801AD5E
:400300000193237929002B71637960696B71A379AB71E379EB71237A2B72637A6B7263896B8104F035F90028E6D1237B2900AB71637B6069EB71A37B2B72238A6B8104F05C
:40034000C5F80028D8D1606904F0BEF90028D3D1606904F095F918340028CDD10136C8E710B50B210D48FFF7DBFE002814D10C48FFF726FF00280FD10A210A48FFF74AFF17
:40038000002809D104210848FFF779FF002803D101210648FFF7A8FF10BDC0467CA60D1078A50D1084A50D1024A60D1064A60D100021124B124A10B5D8601C68002C06DB47
:4003C000914202D10120404210BD0131F5E79142F8D00121996000211C69002C03DA9142F0D00131F8E79142ECD0A0220368120600209342E8D01800E6E7C0460000234001
:40040000983A00001FB500230193D82300049B05C018029001AB02A80C000393FFF7C8FF002801D1019B236004B010BD13B5084BC47A586801A9C0B2FFF7E4FF002803D1FD
:40044000019B9C42804116BD01204042FBE7C046F80D02081FB5064B0004C018029001AB02A801910393FFF7A3FF05B000BDC0460001003610B5034BC17A5868C0B2FFF706
:40048000E9FF10BDF80D02080022124B124910B5D8601C68002C05DB8A4201D1012010BD0132F6E78A42F9D001229A6000220B491C69002C03DA8A42F0D00132F8E78A4255
:4004C000ECD0A0220368120600209342E7D01800E5E7C04600002340983A00000094357710B5D42488B005930A9BA40506930B9B0094029002AC68460194039104920793FB
:40050000FFF7C2FF08B010BD00B5064B89B00093029002AB6846019303910492FFF7B4FF09B000BD000B003510B5074C88B00094029002AC68460194039104920593FFF784
:40054000A3FF08B010BDC046000E003500B5064B89B00093029002AB6846019303910492FFF792FF09B000BD000C003510B588B005930A9B074C06930B9B0094029002ACB0
:4005800068460194039104920793FFF77DFF08B010BDC046000D003500B5054B89B00093029002AB68460193FFF76EFF09B000BD000A003500B5054B89B00093029002AB7B
:4005C00068460193FFF760FF09B000BD0005003500B5064B89B00093029002AB6846019303910492FFF750FF09B000BD000400351FB5054B02900093684602AB0193039177
:40060000FFF742FF05B000BD001000357FB5064B0390019301A803AB029304910592FFF733FF07B000BDC0460011003510B5074C86B00094029002AC684601940391049291
:400640000593FFF721FF06B010BDC0460012003510B5074C86B00094029002AC68460194039104920593FFF70FFF06B010BDC046000900357FB5054B0390019301A803AB08
:400680000293FFF701FF07B000BDC046000600357FB5064B0390019301A803AB029304910592FFF7F1FE07B000BDC046000700357FB5054B0390019301A803AB029304916F
:4006C000FFF7E2FE07B000BD000800357FB5064B0390019301A803AB029304910592FFF7D3FE07B000BDC0460002003510B5074C86B00094029002AC6846019403910492A8
:400700000593FFF7C1FE06B010BDC0460001003510B58CB006930E9B0A4C07930F9B01940893109B03900993119B03AC0A93129B01A80294049105920B93FFF7A5FE0CB0C3
:4007400010BDC04600030035F0B58DB01D0012AB1B780E0003930023170004A905AA0493059300F0E8F8041E29D1184B3200009305993B00049801F0D5F8002822DD022026
:4007800007AA06A9FF300694079400F041FD6524002818D12900069800F08CFB041E0ED108A9300000F0DFF8041E08D1039A29000B9800F0F9F80400089801F047F820008D
:4007C0000DB0F0BD14246442F9E7C046005F2D000023F0B587B00391170004A905AA0493059300F0A8F8041E2CD1059800F03CF8040005F06BFA051E2FD0194B0200009321
:4008000005992300049801F08DF8002820DD280001F076F8061E1ED00100124800F05CF8002812D0006900280FD022000097039B2900FFF789FF0400300001F007F82800C4
:4008400005F04EFA200007B0F0BD01246442F3E714246442F3E70524FBE764246442F1E7005F2D002CA70D10032358438008984304307047F8B5C3680D000860062B21D14E
:400880008468124F002C01D12000F8BD266A002E06D031000E4806F0DBF8002802D16C602468EFE731000B4806F0D2F8002801D1AC60F5E73100380006F0CAF80028EFD1DC
:4008C000EC60EDE702204042DFE7C0460AA80D10FBA70D1001A80D10F0B507000D00002491B001AE002D02D1280011B0F0BD296A002904D0380006F0ABF80028F4D0AB6851
:40090000002B06D00E2C12D8A200955101341D00E8E72B68002BFAD1002C0AD0013CA3009B591B68002BF2D1002CF7D1EFE70025DAE72500D8E7F8B50E002E21170006F06A
:4009400079F8041E0CD0451C2E21280006F072F8002805D0001B0138386000203560F8BD16204042FBE770B5050000200C0000F053FF280000F0C4FF002803D02100FFF75E
:4009800079FF70BD05204042FBE7002304220133002901D1904204D952001D2BF7D11F2070471800FCE70000F0B589B005900F000100BF480792FFF78FFF002812D10023BA
:4009C00001930599BB48FFF787FF002800D043E10599B948FFF780FF041E00D090E1019809B0F0BD002384680693029404930193029B002B00D08DE0E368062BE1D12500F3
:400A0000AE4E29003000FFF767FF079A037E9A4200D0DFE02900AA48FFF75EFF83693B7021003000FFF758FF3A78037E9A4200D18AE12468002CF3D12100A248FFF74CFFC2
:400A4000002806D03B00FF331B78012B01D183697B6021009C48FFF73FFF002808D03B00FD331B78012B03D1C3685A1E93417B7021009648FFF730FF002808D03B00FE338A
:400A80001B78012B03D1C3685A1E9341BB7021008F48FFF721FF002806D03B00FE331B78012B01D18369FB7021008A48FFF714FF002808D03B00FF33DB7A012B03D1C368B8
:400AC0005A1E9341BB7721008348FFF705FF002800D0A8E021008148FFF7FEFE002800D16DE7C368052B00D069E73B00390082681B331E31002A00D161E71800EC30007884
:400B0000012801D1107E18700133994200D156E71268EFE702997248FFF7DEFE002802D08668002E03D1029B1B68029360E731006C48FFF7D1FE00284AD003696A49180007
:400B4000039305F085FF002842D06849039805F07FFF00283CD00025654AAB009958039805F076FF0190002806D00135162DF3D105235B420193173D31005E48FFF7ACFED4
:400B8000002801D08369069331005B48FFF7A4FE002804D0C1698069FFF7F7FE04906B1C16D0049B002B13DD6B00FB18FF331A7E012A05D12A000932D2000699BA185160F4
:400BC0005B7E012B04D10935ED00049B7D19AB603668A6E72D68002D00D011E720E74349300005F035FF002800D0E0E029004148FFF772FE002806D03B00FF33DB78012B55
:400C000001D183693B6129003B48FFF765FE002800D1CCE03B00FF33DB78012B00D0C6E083697B61C3E0C368052B00D052E73B003900826818331B31002A00D14AE7180046
:400C4000EC300078012801D1107E18700133994200D13FE71268EFE73B003D003E0016330C35FF338468FF3520360293002C00D1AEE621002048FFF72FFE002804D06B78E0
:400C8000012B01D18369736021001C48FFF724FE002804D02B78012B01D183693360029B023508369D4200D192E62468DEE7C046E1A70D109FA70D10A9A70D107EA70D1076
:400CC00059A70D1060A70D100FA80D106AA70D1072A70D1081A70D1088A70D1092A70D1035A70D1017A80D103FA70D1044A70D10C00002084CA70D1054A70D10B5A70D1049
:400D000001002C48FFF7E8FD00280AD03B00FF33DB7D012B05D1C3685A1E93413A004932137021002448FFF7D7FD002800D156E63B00FF339B7D012B00D050E6C3684837FE
:400D40005A1E93413B704AE621001C48FFF7C4FD002800D170E68568002D00D16CE629001748FFF7B9FD002821D006691549300005F06EFE002800D031E729001248FFF750
:400D8000ABFD002806D03B00FF335B78012B01D18369BB6029000D48FFF79EFD002806D03B00FF339B78012B01D18369FB602D68D2E7C046BBA70D10C7A70D1035A70D101F
:400DC00017A80D103FA70D104CA70D1054A70D10F0B50D00040087B01422002101A804F0B3FF29002000FFF777FD00260500002D18D029001D48FFF76FFD0028F7D004691A
:400E0000002C0AD01A4F2100380005F021FE00280BD1390001A805F025FE290001A8FFF75BFD0600300007B0F0BD124F2100380005F00EFE0028ECD021000F4805F008FE0C
:400E40000028E6D00D4F2100380005F001FE0028DFD021000A4805F0FBFD0028DDD129000848FFF739FD0500C1E7C04617A80D103FA80D1028A80D102FA80D1037A80D10C9
:400E80001CA80D1022A80D1010B5FFF725FD012300280AD08168002907D00548FFF71CFD0123002801D0C368DBB2180010BDC046D9A70D10F0B5050085B000200C0000F0CA
:400EC000ABFC280000F01CFD0190002800D17AE10100BF48FFF700FD051E49D101235B4200930199BB48FFF7F7FC061E00D137E1B94F01003800FFF76BFF31000500380007
:400F0000FFF7C2FF0390002D00D120E1AB690293B24F31003800FFF75BFF310005003800FFF7B2FF002D00D116E1AD692200230021000C322033FF324831029E5D601E6069
:400F40006E46367B08335070167002329942F4D10199A348FFF7C0FC051E00D004E101235B420093019800F071FC009805B0F0BD9C4F01003800FFF72BFF290006003800B9
:400F8000FFF782FF002E00D1BDE0B36923702300FC3318700023944F290038000093FFF717FF290006003800FFF76EFF002E00D1ACE0F3685A1E934163702300FD331870E5
:400FC0008A4F29003800FFF703FF290006003800FFF75AFF002E00D19CE0F3685A1E9341A3702300FE331870814F29003800FFF7EFFE290006003800FFF746FF002E00D143
:401000008CE0B36963602300FF331870794F29003800FFF7DDFE290006003800FFF734FF002E7FD02200B369FF32DBB22376507163769071A376D0716F4F29003800FFF7E2
:40104000C7FE290006003800FFF71EFF002E6DD02200B369FF32DBB2E37610722377507263779072654E29003000FFF7B1FE290007003000FFF708FF002F5BD0FB685A1E74
:401080009341A3772300FF33D87201995C48FFF723FC0600002F00D120E723000122594FFF3301005A709A70DA701A713800FFF78FFE310005003800FFF7E6FE0390002DB6
:4010C0003CD0AB690293454F31003800FFF780FE310005003800FFF7D7FE002D33D0AD6922002300210018324C33FF32FC31029E5D601E606E46367B0833167050700232C9
:401100008B42F4D1EDE601235B4244E701235B42009355E701235B42009365E701235B42009373E701235B42009385E701235B42009397E701235B420093A6E701235B424C
:4011400002950093BFE701235B420093C8E701235B4202950093DBE601235B420093E5E601235B420093F3E6274F01003800FFF72FFE290006003800FFF786FE002E1ED0D5
:40118000F3685A1E93412200483213702300FF3398751E4F29003800FFF71AFE290006003800FFF771FE002E00D1D8E6F3685A1E93412200FF3449321370E075D2E6012377
:4011C0005B420093E5E705235B420093CDE6C046E1A70D109FA70D10B5A70D1054A70D10A9A70D107EA70D100FA80D106AA70D1060A70D1088A70D1092A70D1081A70D108D
:4012000035A70D104CA70D10C7A70D10BBA70D107FB5DC239B0500936C46002302AD0195029015486B60C460144C0668002E07DBA34203D10120404204B070BD0133F4E713
:40124000A342F7D00123836000230669002E03DAA342EFD00133F8E7A342EBD0A02300981B06984201D00098E6E7029B002013606B680B60E0E7C04600002340983A0000CB
:40128000F0B517008A22434C9200A544079008910EA80021BFB2099304F056FD0CAA0BA93800FFF713FA00260500B0422CD1C02280210B9BD2051A40C9058A4237D10C9BFF
:4012C000DC1DE40820000D9404F000FD0925061E1AD001000DAB22003800FFF707FA051E12D16B46198C102304930293079B079A30330193284B40320392009332000D9B35
:401300000EA8FFF705FA0500300004F0E9FC002D05D1202209990EA8FFF75AF905000EA8FFF748F9280099239B009D44F0BD1B4A934207D10C9B5C0809230134E4085C4306
:401340003B34BFE7164A934203D10C9BDC082934B8E7144A934205D103240C9BDB085C435A34AFE7104A934205D103240C9BDB085C434A34A6E70D4A1B0C1B0493429ED00B
:401380000B4A040093429DD10C9BDC1DE4081234640097E79CFDFFFF0901202200000170000001600000027000000260000003700000036010B5017804000A00303AD3B243
:4013C000092B1FD811000A0161780B00303BD8B2092824D89918A27809011300303BD8B209282AD85A18E378120118003038C1B28018092905D91900413905292BD8373BDF
:40140000981810BD0B00413B052B01D83739DAE70B00613B0020052BF3D85739D3E70B00413B052B02D837398918D4E70B00613B0020052BE5D85739F6E71300413B052B25
:4014400002D8373A5218CEE71300613B0020052BD7D8573AF6E71900613900200529D0D8573BCDE7F7B50B7807004E1C222B0DD13200002013780130222B0CD0002B0AD0F0
:401480005C3B59424B41D3185A1CF3E70026504B19603000FEBD4F4B1B6898470190041E00D085E0019EF4E773786E2B17D007D8611C622B0CD0662B0FD0237001340AE05E
:4014C000742B0ED0752B0ED0722BF6D10D23F4E7082323700C00561C6AE00C23F9E70A23EBE70923E9E7B01CFFF764FF3A4B3B49C3180500721D8B42EDD90028EBD0384B5C
:40150000C3188B4227D8B3795C2BE4D1F379752BE1D130000830FFF74DFF32002E4B2F49C3180B328B42D6D82E4BAD021D4080238005800D05435B02ED182B4B9D4224D849
:401540000323E4183F20802128404942013C01432170AD0906E07F280DD9244B9842ECD80223E4183F20802128404942013C01432170AD0901E00123E4181D48611EC05C31
:40158000013B05430D70E418A5E73F208021284049420143E1700423AD090334D2E7002B09D0721C5C2B00D17EE71600237001343378222BF3D1002323703378223B5A420A
:4015C0005341F618019B3B610423FB6061E7C046F00702081C0102080024FFFFFF0300000028FFFF00FC0F00FFFF0000FF0700007FA90D10002803D00378013B1F2B00D9A6
:4016000070470130F6E70000064B10B51B6828209847041E03D02822002104F095FB200010BDC0461C010208F0B5050087B00C1E01D1002013E004227349200005F021FA25
:40164000002803D10223EB60201D08E005226F49200005F016FA002803D1E860601D07B0F0BD04226A49200005F00BFA002806D101230122EB600023AA61EB61E4E723784C
:40168000222B04D121002800FFF7ECFEE7E72D2B03D01A00303A092A1BD8260033781A00303A092A13D92D2B11D0371B3A002100684604F040FB00236A466846D35504F068
:4016C00097FA0323A861E961EB603000C7E70136E4E75B2B37D1563BEB60601CFFF78AFF037804005D2B01D1601CB8E7FFF78CFF061EA8609DD02000FFF77CFF0100300080
:40170000FFF792FFFFF776FF0400002C00D190E723782C2B04D05D2BE6D03E4B1C6088E7FFF772FF051E00D183E730604660601CFFF760FF01002800FFF776FFFFF75AFF18
:401740002E000400E1E77B2BE7D1753BEB60601CFFF750FF037804007D2BC5D0FFF754FF061EA86000D164E72000FFF743FF01003000FFF777FEFFF73DFF002800D158E7AA
:40178000002433693461336203783A2B02D0214B18604EE70130FFF72DFF01003000FFF743FFFFF727FF0400002C00D141E723782C2B02D07D2B97D0AFE7FFF725FF051ECD
:4017C00000D136E730604660601CFFF713FF01002800FFF747FEFFF70DFF002800D128E700242B692C612B6203783A2BCFD10130FFF700FF01002800FFF716FFFFF7FAFE39
:401800002E000400D0E7C04686A90D108BA90D1091A90D10F00702080849094A002803D1084B0B60084B07E00368002B00D1054B0B604368002BF5D0136070471C0102081E
:4018400018010208CD5C0D10E15C0D10F8B5802604007600002C00D1F8BDE3682768334204D1A068002801D0FFF7F0FFE3680B4D334204D12069002801D02B689847802299
:40188000E3689200134204D1206A002801D02B68984720002B6898473C00DBE718010208F7B505000E000192FFF7AEFE0023134F04003B6098420CD02800FFF79BFE0100F3
:4018C0002000FFF7B1FE051E05D12000FFF7BEFF00242000FEBD019B002B0AD0FFF78AFE03780500002B04D02000FFF7AFFF3D60EEE7002EEDD03560EBE7C046F00702082B
:40190000002210B51100FFF7CBFF10BD0200093A0123042A03D9203843425841C3B2180070470000F0B5002516002C0089B002930E9B01901B0CDBB205930E9B00911B0A36
:40194000DBB2069308AB1B7E03900793039B01330493039B1F78002F08D0009B002B24DB019A049B9B1A009A9A421EDA08AB1B7E0593002B00D1A8E0BB4200D0B8E0009B99
:40198000002B06DB019A049B9B1A009A9A4200DAAEE0039B049A02331778032D00D994E0280003F03DFF747461843800FFF7AEFF002836D1079B9F42D8D039004E4805F0B4
:4019C00039F8031E07D1059B9F420BD0069B9F425DD1494B3F33032D23D8280003F020FF05102436444B3E33F5E7002E06D0029A94424CD2404A9B1A9B003355012510E0EF
:401A0000002E0CD00299621C914240D93A4932195B1A1178181101431B011170537002250134049B039391E7002E0CD00299621C91422CD9304932195B1A1178981001434C
:401A40009B011170537001340325EAE7002E08D0029AA2421BD9284932195B1A11780B43137001340025DCE71D00002F0FD0009B002B04DB019B009AEB1A9A4204DB380038
:401A8000FFF744FF002805D1059B9F4205D00124644221E02F780135E7E7009B002B04DD019B009AEB1A9A42F1DB2F786B1C019A9D1A002F04D0009B002B10DBAB420EDA8F
:401AC000002E02D0335D002BE1D1029BA342DED9002E01D000233355200009B0F0BD3800FFF714FF0028D2D0019B5F5D0135E0E7002DEAD0CBE7C04696A90D1070B5080088
:401B00000D0014000E1E04D170BD307801F004FC0136731B9C42F8DCE043C0172040F3E770B500240D001600A1420AD1200070BD01F0FEFBC0B2285501340A28F6D00D2860
:401B4000F4D0B442F4DBF1E77047FFF7FDFF72B6124C134DAC4209DA21686268A368043B02DBC858D050FAE70C34F3E70D4B0E4CA34208DA19685A680020043A01DB885021
:401B8000FBE70833F4E7094809490860BFF34F8F00F0E4F801F0CCFAFEE7000060BB0D1078BB0D1078BB0D1088BB0D100000020808ED00E0FEE7FEE700B50420714608426F
:401BC00002D0EFF3098001E0EFF30880043003F0C1FBFEE770470000F8B5E023504C9B00E2580F23D021072013409A00121989005158014066D0042958D04A48002B66D169
:401C0000B223B1220321DB00D200E558A358A6581B0F360F0B400E4204D0A258120F0A40012A01D1EA0701D4032B11D1B0233E4ADB00E558A158E658C904C90C03F0FAFDA9
:401C4000AD03AD0B6843F101C90F013103F0F2FDE0239B00E3589B069B0FD840334B1860334B1C691969240A090E013103F0E2FD304BE1B21860013103F0DCFD2E4B040072
:401C800018602E4B2E4918602E4BC01803F0D2FDFA212D4B890018702C4BE01803F0CAFD2B4B18602B4BC0031860F8BDC021890052581F210A40112A01D0132A04D18020B4
:401CC00000029BE7244899E7FA20C00196E7012BBED1C823C0210327DB00C900E658635865582D0F3D4204D06258120F3A40012A01D1F20703D49B009B0F032BA8D1C02292
:401D0000D200A358A158A5587F221F261340090A3140584303F08EFD290C314096E7C0460000264000366E0184050000240102080000214028010208200102083001020824
:401D400040420F003F420F0038010208E7030000340102082C01020800127A0010B51B4801F0DEFCB022E0213020194CD200A35889005B005B08A3506358834363508023BA
:401D80005B04A350134A144BE250A02204339201E250FF22114BE25003F030FDC02201215200A3588B43A350FFF714FFFFF714FFB0235B055A78002A02D05B78212B03D13E
:401DC0000022074BDA605A6010BDC04634B30D100000264001000200840500008C050000E0002340024BD86F032318407047C0460400214010B501F08CFC0749074ACB6F91
:401E00001A40074B1343CB67102306490A681A42FCD001F082FC10BD04002140FCFF00000100FA058800214070B583050600002B04D0E8211048FF3103F060FA0F4C01F0F1
:401E400068FCE36F0500DB439B0701D1FFF7D2FFB0230B4A9B00D650E36F0A4A0A491A400A4B1343E36710230A681A42FCD0280001F053FC70BDC046D5A90D1004002140B5
:401E800000002140FCFF0000880021400300FA0570B54B68056801229D420BD38A689B1800229D4206D20C694B699C4204D30C235B428B61100070BD0C236343CE68013425
:401EC000F3180E785A701E705A8042685D609A600C610122EEE7000010B502006F2809D0074B084918686F23C06803F087FE1620404210BD80235B050B600020F9E7C046D4
:401F00007801020869AA0D100F4B1A7982420AD01A7E824213D01A002C321278824210D0012040427047002014224243101D18189B181A69086001321A610020F2E7012086
:401F4000F2E70220F0E7C0463C01020810B5021E0BD0011F0C4B0868984207D00B49137808680B49C06803F049FE10BD0B69002B07D1064B12781B680649D86803F03EFE85
:401F8000F3E7013B0B61F0E7EFBE0DD07801020825AA0D1045AA0D1010B5140040681A000818210000F090F810BD10B5140040681A000818210000F023F910BD10B5406880
:401FC0000818110000F026F910BD10B5007800F09BF910BD01307047431E022B15D8022808D003280BD00A4B98680860DB68002013607047064BD86908601B6AF7E7F02321
:402000001B030B6080235B01F1E701204042F0E73C01020830B589B00C00150002A903AA0190FFF7D9FF002811D1236805900693084B079001AA18680749049500F00EF8D2
:402040000798002801D1059B236009B030BD01204042FAE7F40D0208911E0D10F0B50024260043688BB002911B6906A905A8039298470194069B9E4201D30BB0F0BD059BF5
:40208000F700DF197B68019D0893019B3A68EB1A934202D301360195ECE707940995039907A8029B98470028E7D0089B0135E418EBE70000024B036001230B607047C04606
:4020C000A4AA0D10002070470B00802110B549054118180003F02FFE002010BD00207047F0B53C4C0023A54400923B4A0390914200D86AE01C00009A38488A1890425C416B
:402100002000374CA14261D91D00364C94425D412C00354DA94202D9344D95425B4104431C4350D00025F02328001B06CB1801935B0A5B0204AEF61A009A954213D32C4B54
:40214000984205D02B4B984202D0441EA0414400200085239B009D44F0BD802252059A181278F25421E00028E9D18022010092009F18019A9A42F0D8009AAA42EDD9039AA4
:40218000525D02926A46127AF25401229446002909D18022520599180978029A521A511E8A41D2B29446614601350133BB42E0D1002904D0104B04A9F81801F0C3FB0F4BB2
:4021C000F6183B00B8E70124C2E7180000242300A5E7C046ECFDFFFFFFFFFF0F00001010FFFFFF1300800014FF070016000A0016020052000600520000FEFF0F00FEFFFF91
:402200000B00802110B5490541181800FFF768FF10BD00008023F0B5364C5B05A544C4186518EB05E605DB0DF60D02936B0A039333005A1E9341640AE4186B0A1B1B640278
:4022400027000193019B002B11D1002E2CD02A4B3200E418210004A803F06DFD200001F033FB002815D0254B254AA92107E0380001F02AFB002805D09621204B204A2148E7
:4022800003F098FC80239B00FF18019B013B0193D8E73200210004A8FFF722FF002803D0164B174AAD21EAE7029B002B1CD08024A400E41A2200290004A803F03CFD039BEA
:4022C000580201F001FB002803D00C4B0C4ABA21D5E72200290004A8FFF702FF002803D0064B074ABE21CAE7002085239B009D44F0BDC046ECFDFFFF00FEFFFFC4AA0D10D8
:4023000092AA0D10CCAA0D100420704710B510220949040003F000FD0123002808D0230010332268013205D104349C42F9D10323180010BD0223FBE7C4AB0D1030B50D000C
:40234000816891B0103910236A460400FFF724FE002802D0012011B030BD6846FFF7D6FF28702378032B09D1A1680123AA1C18392000FFF711FE431E9841ECE7A1686A1C69
:40238000203901232000FFF707FE0028ECD0E1E737B50D00C0B201A9FFF7B6FD0124002807D129000198FFF7C9FF04000198FFF7CDFD20003EBD0000F7B501206946FFF78C
:4023C000E7FF002801D0FF20FEBD01AC21000220FFF7DEFF0028F6D12078A678234C6B46220019789D785F7812322378002B01D08B422FD16378002B01D083422AD1A378A3
:40240000002B01D0AB4225D1E378002B01D0B34220D12379002B1BD1154B164A1B68D8686379022B06D0144A032B03D0134A042B00D0134A134903F0E1FB6079831E022B81
:40244000C2D9BC21104B114AFF31114803F0B2FBBB42E1D006349442C7D1054B0D481B68D96803F025FC0120AEE7C046D4AB0D1078010208EBAB0D10E6AB0D1002AC0D102B
:40248000F0AB0D1009AC0D101FAC0D1031AB0D1067AB0D109FAC0D10F0B597B01CAB1B7804931378302B42D19378022B3FD10023D7780693D4196379B91D2479C918039140
:4024C000022C34D1FC1855780434A5422FD1202B00DD20233D00202F00DD2025791B002406AE059109E00599671B8C46A4449444614609792037F1550134A542F3D1002429
:402500000399C91A52189C420BD16B461C8A4023020001930096203B06492000FDF7E0FF06E0E11A155D403175540134EBE7102017B0F0BD09000610002803D1044B1B7E3A
:402540001800704700230128FAD1014BDB7EF7E7F80D0208F0B5F7B00500039111A8584917000593FEF744F800284CD17C9B002B3FD100242B89EA689B180493049BA34235
:4025800014D9049B059E1B1B9E4200D91E0033003A0021000398FFF7FFFC002833D13200390011A8FEF732F800282ED008AB202209A911A8FEF73AF8002824D17E9B002B48
:4025C00004D0202209A9180003F0B5FBEB682C8907ADE4182A00042321000398FFF7DCFC002810D1374B2A889A4210D00120404209E07D9B002BBCDD1A007C9911A8FEF787
:4026000005F80028B5D077B0F0BDA419B6E76B88012507001B190593043404906D42059B9C4204D3049B002BE0D0781EEBE708AE0423320021000398FFF7AEFC0028E2D1DE
:402640003378102B18D17688202ECFD1211D330011AA0398FFF7A0FC0028D4D1320011A909A803F059FB0028C0D10123049308AB5B880433E418D2E7012B04D17F98FFF791
:402680005BFF0500F3E7222BF1D173881A00483AB82AABD8211D11AA0398FFF77DFC0028A4D1EDB2738811AA0095202109A80125FFF7F2FE6D420028D9D10127D7E7C046E1
:4026C0000900000107690000F7B5060000242C272000FFF77FFC01A9C0B2FFF715FC0125011E0AD13B0063430B4A0198D2182023FFF752FC0500681E85410198FFF726FC21
:40270000002D04D0012C00D135002800FEBD0134022CFAD0DCE7C046F407020873B50C00C0B201A91500FFF7EFFB0126002807D12A0021000198FFF741FC0600701E8641A9
:402740000198FFF703FC300076BD000030B52C244443254B87B01C1923680500013303D10120404207B030BD2369DB06F8D4FFF731FC05A9C0B2FFF7C7FB03000120002B6E
:40278000F0D11A4BA27A1B789A42E9D12000FDF74DFE0028E4D1164B22689A420ED0002D04D0059800218268FFF708FC114B2A001B681149D86803F021FAD1E7802302908C
:4027C0000190009003955B000C4A05992000FFF7C1FE0028E3D10598FFF7B8FB2000FDF749FE431E9841BCE7F4070208F80D02083DB8F39678010208C8AE0D10640C020880
:402800000023F0B5B24CB34AB34FA544012013603B60FFF79BFFB14B0400DB7801200393FFF78AFE002C45D1AD4BC2B2DB6C03995E6880235B05F518AA4BF618300015AB49
:40284000FEF71EFD041E35D107A8FDF713FF8021A54A890007A8FDF71BFF07A90B20FDF727FF041E26D1102315AAA0490B20FDF7EFFE0123041E3B601CD19B4A0B211DA8FC
:40288000FDF742FE041E15D1102219A91DA8FDF75DFE041E0ED1202204AB019300922FAB31001DA8FDF762FE049B0400202B10D001246442884B1B68002B05D00B20FDF78A
:4028C0006BFE002800D004002000D5239B009D44F0BD0028EED1020004AB2FA91DA8FDF723FE041EE6D109AE33002FAA13CA13C37F4F126833A91A603800102203F01BFA89
:4029000007A90C20FDF7D4FE041ED3D11023320076490C20FDF79CFE01226E4B041E1A60C8D174496FA8FDF763FE041EC2D180236D4ADB000C211DA8EE18FDF7E5FD041E3D
:40294000B8D1102239001DA8FDF700FE041EB1D1802704AB7F00019300972FAB3A0031001DA8FDF703FE049B0400BB42A0D10028A0D12F9B329E339A591C00D198E7D2065B
:4029800000D595E7564AD26C9268964200D98FE7594A934200D08BE780222FA952006FA8FDF734FE041E00D084E78023DB00F618330AF6B20393731E9E41039B01279B19B6
:4029C0000393A0238026DB00ED187600039BBB421FD9002C00D06DE7802204AB019300962FAB520029001DA8FDF7C0FD049B0400B3420BD1002805D132002FA96FA8FDF7D2
:402A000005FE04000135FF350137DFE701246442F8E7002C00D04DE704AE330020220DA96FA8FDF703FE041E00D043E780225200019600922FAB29001DA8FDF797FD041EB9
:402A400000D037E7020033002FA91DA8FDF76CFDB42102AB5B18294A1B880400934200D026E7002800D025E7B822309B069302AB9B181B78102B00D01AE702AB5A8A202A5C
:402A800000D015E731A90DA803F046F9041E00D010E7DC2202AB9B181B78012B00D007E70120FFF749FD429B069342AB1B78222B00D0FDE602AB5B8A482B00D0F8E6C0B24D
:402AC000009043AA20210DA8FFF7E6FC0400F1E6ACFCFFFFB40D0208B00D0208F80D0208F4070208200000100001600401000040540C0208090000013DB8F396076900002C
:402B00000023F0B51D4C0700A5446946022000930193FFF7F9F900280ED001260098002801D0FFF713FA0198002801D0FFF70EFA3000134B9D44F0BD01A90120FFF7E4F989
:402B40000600041EE9D1A742E8D980233D1BDB009D4200D91D002B0002AA21000098FFF71BFA0028D9D12B0002AA21000198FFF71CFA0028D1D16419E5E7C046F4FBFFFF0E
:402B80000C040000F0B500242700654E9BB033686448D96803F08CF833686348D96803F087F8624DAB6A0393039BBB4257D133682200D8685E4903F021F85E4B9B78002B6B
:402BC00000D193E0002305A9022005930693FFF79BF9002820D106A90130FFF795F900281AD1554A0C2108A8FDF78EFC002813D11022524908A8FDF7A9FC041E0CD1060032
:402C0000AB6B0133FF330293059B5B680393029BB34262D9002C39D00598002801D0FFF795F90698002801D0FFF790F9444B1B68002B02D00C20FDF7AFFC102200213F48A4
:402C400003F082F8394C0021236D02209A68FFF765FD00284ED03B4B3B4A3C490FE00C237B436A6A2100D3189B6801201A000293FFF754FD002805D0324B334A3449354898
:402C800002F098FF029B0137E4188DE7029B9D1B8023DB009D4200D91D00039B2E4F99192E4B0095C91807AB01932A003B0008A8FDF75CFC079B0400AB420BD10028A6D12D
:402CC0002B003A0031000698FFF76FF90028A3D176199CE70124644299E7002C9CD107AB22001D4908A8FDF71FFC95E72000FFF707FFA7E70C23626D216D013A5343CB1851
:402D00005A6849680220511A9A68FFF707FD002803D00C4B0C4A1249B1E71BB0F0BDC04678010208E3AC0D1008AD0D10F407020874AD0D10F80D020800016004540C02085C
:402D4000B40D0208C4AA0D10B7AC0D102A0900000B0900001EAD0D1054080208000400102F09000073B5164E164CF368626A5B0A01A901200193FFF74DF9012500281AD14E
:402D8000019B226DA362F36801A95B0A02300193FFF740F9051E10D1019B206A6365FFF714F90600A06DFFF710F9331C864200D2031C5C342370280076BD0125FBE7C046E9
:402DC0003C010208F4070208F0B50C266D4F89B0FB6800905C0A7443200002F077FF0190200002F073FF684C019B0290206563620020FFF7EFF82100C0B22031FFF784F88F
:402E0000002809D10130FFF7E5F82100C0B24C31FFF77AF8002805D05C4B5D4A5D495E4802F0C8FE210003205831FFF76DF8002803D0564B564A5949F1E7FFF793FF051E3C
:402E400019D0574BFA681B68520A5649D86802F0D5FE019802F044FF029802F041FFA06DFFF774F8E06CFFF771F8206AFFF76EF8280009B0F0BDFFF727FC051EE9D1FB6861
:402E8000A06A5B0A984202D8626D9A4219D9444B45481B68D96802F00BFF0020FFF756FC05006842684100F019F9002D61D1236A00995A780A715B680C600393039A8A6096
:402EC000C7E790422CD108234643626A216D08369E422AD1354E7378002BDED00C22002105A802F031FFFFF767FA871E0500022F0CD82B4BB2781B68D968002A22D02C48BF
:402F000002F0D6FEFFF77CFC002834D1022F20D8FFF738FE00281CD01C4B264A26497EE71F4B26481B68D968B5E71800D558CB580C309D4204D01A4B21481B68D968AAE76A
:402F40000300C5E71F4802F0B3FE0120FFF7FEFBDAE7012DA1D0002D01DD052D0BDD104B19481B68D96802F0A3FE184B084A184955E703256DE70020FFF7A6FB051E8CD0EC
:402F800067E7C0463C010208F4070208C4AA0D10DBAC0D10220A00001EAD0D10260A000078010208A2AD0D10E7AD0D10F80D020891AE0D10C7AC0D10F709000019AE0D107F
:402FC00058AE0D10A3AE0D10B9AE0D10CAAA0D10780A000010B5002001F078F810BD0000802310B50D4C04202360230021000833636001F09BF82000183000F0D1FE084BEE
:403000001B6851331B78002B02D0064800F034FF0548783000F036FC10BDC04600D002083C0F02084CAF0D1000D10208AC23064A9B0010B5D050054B9860036883F3088824
:4030400043689847FEE7C0460000214000ED00E0174B70B51B680400002B23DA154A164B1648DA64164B1B68D96802F021FE72B6B023144A144D9B001448EA50C36F144A6A
:4030800014491A40144B1343C36710230A681A42FCD0012002F00EF9B0239B00EC5007F053FA62B62000FEF7BFFE30BFFDE7C04600012640214334120000234037AF0D106B
:4030C00078010208004000160000214004002140FCFF0000880021400300FA0510B5002817D10C4C0C482368D96802F0E1FD0B4B1B68002B08DA0A4A0A4B0B48DA64236883
:40310000D96802F0D5FD72B60848FEF78DFE07F02BFA10BD78010208EFAE0D1000012640214334120000234037AF0D1000400016F0B589B0FFF754FF62B600F005F902F080
:403140005DFBC02201245D4952008B585C4DA3438B5028005B4A5C4901F0F0FC80232A681B065A4E13432B60594AB460594B5A4C1A6023685948D96802F09AFD2368584FDA
:40318000D968380002F094FD23685648D96802F08FFD23683800D96802F08AFD23684F48D96802F085FD23684F48D96802F080FD802002AA03A94000FEF72AF80195021E00
:4031C0004A4D05D129000398FDF702FB021E04D023684749D86802F011FDF021AA68454B090652189A60EA68DA602A695218DA616A691A62FDF7B4F8021E04D023683E497F
:40320000D86802F0FBFC23683C48D96805AF02F04FFD3800FFF7D8FD002805D023683848D96802F045FDFEE70123736023683548D96802F03DFD387904A9FEF74DFE00288C
:4032400005D0314B314AF121314802F0B3FC822101208900019B5A585B58D205DB0B0340D20D9B18002BF5D1049BBE682878F618059B1B89F618042819D802F0D1FA0707D8
:40328000030310000221002000F0DCFF3000FFF7CDFE23681F48D96802F00AFDFEE706210E2000F0CFFF3000FFF7D2FEF1E723681348D96802F0FCFCFEE7C04600002640A5
:4032C00000006640BC0D020840B10D108000324034B10D10F40D02087801020894AF0D109EAF0D10DFAF0D1008B00D10F80D020824B00D103C0102084FB00D1088B00D10C3
:40330000ACB00D10D2B00D10C4AA0D1080AF0D10F9B00D100AB10D1010B504002100034801F0F2FB0028F9D010BDC04600006640C221044A89005358DB05FCD0D0239B00E4
:40334000D05870470000664010B500F009F800F035F800F043F800F0C9F800F02DF810BD80218022124BC9001B68D205986810B542501A00743212880E4C12181068044083
:40338000D4208001204310601C001A00723470322478127898687333A2401C780323A34013438022120613434350435810BDC0463C0F0208FF00FFFF70470000054B1B68B9
:4033C0001A003F321278052A03D900219A68024BD15070473C0F0208140C000010B5104A0321104800F02AFB0F4C104A0021104800F024FB0F4A01210F4800F01FFB0F4ACE
:403400000421200000F01AFB0D4A0621200000F015FB0C4A0721200000F010FB10BDC04680B10D100000324000033240B4B10D1080003240E8B10D10800232401CB20D10FA
:4034400050B20D1084B20D1010B50B4B1B683E331B7883420DD90F290BD8E0220F24074B8000C01892008358A34319438150002010BD0348FCE7C0463C0F02080000264037
:4034800001004A00054B06491B681A000832D26F1B689B181A680A401A6070473C0F0208FF00FFFF074B1B68190008311A68CB6F8021D218136849041B021B0A0B4313604C
:4034C0007047C0463C0F0208054B06491B681A00883212681B689B181A680A401A6070473C0F0208FF00FFFFFEE70000F8B59621002001F047FF01F01DFF002801D101F02D
:403500000BFF012002F012F9704B71495A6C0A40E82189010A435A645A6C120AD2B23A2A04D15A6C6B480240114359646A4D6B4C2B683E331B78002B05D0E02230219200EB
:40354000A3588B43A350FFF7BFFFFFF7ABFFFFF799FF2B68624F3D331B78002B0ED0C0268023F600A2599B053A401343A351012001F0BAFEA3595B005B08A35100210120C5
:4035800001F074FC2B683E331B78002B03D15549554801F0B3FEE0239B00E6580F231E400AD1300001F08AFC1223FF33984203D101213000FFF748FFB122D200A3580021E4
:4035C0003B408027BF051F43A750083AA35808005B005B08A350454A0326A3585B005B08A35001F043FC00210800FFF72DFFA022D200A358B343A350FFF766FFFFF752FF9D
:40360000FFF740FF0021012001F030FC01210020FFF71AFF0021080001F028FC0021022001F024FC0021300001F020FC0021042001F01CFC2E4801F067FC002802D004207F
:40364000FFF752FF2B4801F013FD002802D00420FFF74AFF00210800FFF7F6FE2B683E331B78002B05D0E02230219200A3588B43A3500021012001F0F9FB00210220FFF787
:40368000E3FE2B683E331B78022B0DD9E22330219B00E2588A43110010220A43E2508022E15812060A43E2508022134B1206E15800200A430121E250E2580A43E2506331F4
:4036C00001F060FEFEF788FAF8BDC04600002740FF00FFFFFFC5FFDF3C0F020800002640FFFFFFCF6E060000B8B20D108C05000020B30D10400D03000C05000000000000DF
:403700000230800803D001300238FCD1C046C0467047EFF3108072B6704780F310887047014B18607047C0463C0F0208044B1B681A0008321B68D26F9B181868000E704736
:403740003C0F0208054B1B681A0008321B68D26F9B181868000AC0B27047C0463C0F02081E4A0300904210D010D840282FD005D8002830D0102828D0194806E0802828D0C0
:403780008021100049008B42F6D17047154A904215D009D8A022120690421CD0124AA0209342E9D1C003F0E7104A904209D0104A904208D00F4A9042DED10F48E5E7A42026
:4037C000F0E70E48E1E70E48DFE70E48DDE70E48DBE70E48D9E70020D7E7C04606005200FF005200010000F0090000A0040000F0050000F0030000F00100520002005200C6
:403800000300520001005000020050000500520070B50A4D04002B6831331B78834204D8E6210748490001F069FD2B681A00B03210884443186A201870BDC0463C0F0208A8
:40384000ECB30D1010B50020FFF7E2FF0A4B1C682300B4331B68C0180368002B0ADB074B1868FFF77DFF012263689A609A68002AFCD110BD0248FCE73C0F0208640D020828
:40388000020050000D4B10B51860002805D002230370FD33437000234380094B1B681A0050321278002A08D051331B78002B04D002220449002000F07BFB10BD740D02085F
:4038C0003C0F0208C903020870B5C4050500E40D28D1FEF781F9144B144A1A605D609C60DC60134B1B6854331978002915D0FFF71DFF0400FFF726FFFA21013401306043C9
:403900000C4B0D4C89004443186801F093FF0100200001F08FFF094BC1188020400006F01BFE70BD0648FCE7640D02080001001C3C0F02082401020860F590009808000009
:403940000600520070B5C40506000D00E40D2AD1002928D0FEF740F9144B154A1A605C609E60DD60134B1B6852331978002915D0FFF7DCFE0400FFF7E5FEFA210134013051
:4039800060430D4B0D4C89004443186801F052FF0100200001F04EFF094BC1188020400006F0DAFD70BD0748FCE7C046640D0208000100053C0F020824010208C0EA210172
:4039C000482600000600520070B506000C001500072903D91549164801F090FC1F232A009A4303D01349124801F088FC124B1B689A695B69B01AC0090001C0181F23032CA5
:403A000009D81900E400A1401D40A54002688A431543056070BD1900043CE400A1401D40A54042688A4315434560F3E791020000B4B40D10920200003C0F0208F0B585B0DB
:403A400001900D001400002800D139E1002A00D136E1072903D94E219A4801F04FFC2368012B03D94F21974801F048FC0F2362689A4303D05021934801F040FC1F22237ABC
:403A8000934303D051218F4801F038FCE368032B03D952218B4801F031FC2369012B03D95321884801F02AFC6369012B03D95421844801F023FCA369012B03D955218148CF
:403AC00001F01CFCE369032B03D956217D4801F015FC236A012B03D957217A4801F00EFC636A012B03D95821764801F007FCA36A012B03D95921734801F000FCE36A032BAD
:403B000003D95A216F4801F0F9FB236B072B03D95B216C4801F0F2FB2668072D04D9CC216948890001F0EAFB012E08D96749664801F0E4FB0123AB40019A936005E0002E5E
:403B4000F8D10123AB40019A53606668072D03D95F495D4801F0D2FB0F2332009A4303D05C49594801F0CAFB0F215B4FAB0003933B6808007D331A78019B0E40D2181368CF
:403B8000A9009C46AB00984063468E4083431E431660227A29000198FFF716FFE668082D03D94E49484801F0A9FB032E03D94C49454801F0A3FB032108006B0002933B68D2
:403BC0006F00B8400E40BE407C331A78019B9A18136883431E4316602669082D03D94149394801F08BFB012E03D93F49364801F085FB01221100A9401640CF43AE40019BB8
:403C000002919B693B401E43019B9E616669072D03D936492C4801F071FB012E03D93449294801F06BFB01202B4B06401968AE400B0084467E331B78019AD3181A68174033
:403C400037431F600B0062467F331878019B6E001818A36910361340AB40E56902321540B540B2402B43029D07682A4397433B4303600220042580310A78019B9A18636A91
:403C800011685B000340A06A8000284003436046256A284018250343E06AC00028400343206BFF24400120400343FE20039D80000540AB400020A1430B43136005B0F0BDB3
:403CC0000C48FBE752B40D10B4B40D1031030000CD030000CE0300003C0F0208F1060000F206000072060000730600000C0400000D04000001005A000B4B70B51B6805005D
:403D0000B4331B680C00C3181B68002B09DA0B0C03D00649064801F0F1FA0020A4B26C6070BD0448FCE7C0463C0F0208DE020000ECB30D1001008A00036870B505000C007D
:403D4000002B01DB064870BDC2600B0C04D0B1210448890001F0D2FAA4B2AC600020F2E701008A00ECB30D1070B505000C1E03D1A221084801F0C2FA074B1B68B4331B6887
:403D8000EB181B68002B03DA0020EB68236070BD0248FCE717B50D103C0F020801008A00024B1A68002A00D118607047780D0208F7B52C4D1F002B68040000910192002BAA
:403DC00003D1BE21284801F099FA2C23FF225C432B683D001C193B0A3F0CA760234F134063603B681540256031331B789D4204D3E6211F48490001F081FA3B681A00B032FD
:403E0000128855431A6A3233AD1825611B7865689D4204D3F4211648490001F06FFA3B6880351B6A6D01A668ED186561330C09D00F4F1049380001F061FA82213800890015
:403E400001F05CFA33041A0C1343AB60019BE361009B23620023A361089B002B01D01B88A381F7BD780D02087CB50D103C0F0208ECB30D1007020000F0B5040085B00028FF
:403E800003D15B21214801F039FA6368032B03D95D211E4801F032FAE36A002B03D161211A4801F02BFA236B002B03D16221174801F024FA238902AD2B80154B22681B6818
:403EC000E16ADB8EE0689B186B806368A26A039300952369266A676AFFF76AFF00213B000A0000913000FFF763FF216B280001F085F90022AB5E002B06DB1F2213401E3A15
:403F00009A401300034A136005B0F0BD7CB50D103C0F020800E100E0F7B504000F00151E019304D183211D48490001F0E7F91C4E3368002B04D108211848FF3101F0DEF90A
:403F40002C235C43326814192669002E09D05F43D719BB69002B02D13368002B03DB11481AE0114818E001226368140011009C407B6899402B8809040B432B60019BF560C5
:403F80007B62BA61230C04D0B1210848890001F0B5F90020A4B2B460FEBDC0467CB50D10780D020807028A0004028A00ECB30D10F8B5114F04003B680E001500002B04D1DE
:403FC00068210E48FF3101F099F92C2060433C682418236A002B04D16C210848FF3101F08DF9E369AB4204D90020236AAD00EE50F8BD0348FCE7C046780D02087CB50D10DB
:404000000A028A00002373B504000193984204D1ED212C48490001F071F92369002B04D1DC212848FF3101F069F96369002B04D1EE212448490001F061F9236A002B04D14E
:40404000DE212048FF3101F059F96269D5682B0C22D01B04136013681B4B20691B68B4331B68C3181B68002B16DA01A9FFF77CFE0026B0420CD10198E26903681E0C0378D0
:40408000934205D2226A9B009B58002B00D0984731002069FFF730FEADB2002D09D063691D6000251B68636AAB4205D098476562A56163691B6873BDA36A002BF8D0984793
:4040C000F6E7C0467CB50D103C0F020870B5084C05002368002B04D1DD210648490001F00DF92C20454320684019FFF78BFF70BD780D02087CB50D1070B50A4D04002B6853
:4041000031331B78834204D8E6210748490001F0F5F82B681A00B03210884443186A201870BDC0463C0F0208ECB30D10F8B5164B0D001B6831331B78834223D9002921D04E
:404140001F240B681C401DD1FFF7D6FF07002B680E4EDA0830602100686801F0F5FD21003800FFF7C9FD21002A003068FFF7E4FD011E04D13068FFF7BFFD031E00D0044BEB
:404180001800F8BD034BFBE73C0F02087C0D020801018A0003018A00F7B5184F04003B680191DE683368834219D90025A94202D1FFF7AFFA050038680368002B11DB104C17
:4041C000019B002B02D12800FFF7A7FA2000FEBD9A43226000240021FFF78EFDF0E7094CF4E71F2201232240934064097268A400141922681A42EBD1034CECE77C0D020856
:404200000301880004018A00020188000A4B1B68DB681A6882420DD959681F23420918401E3B8340920050581840431E9841034BC01870470248FCE77C0D020800018800DD
:4042400004018A0070B5144E040033680D009B6CC340DB0703D4A721104801F04FF80F2D03D9A8210D4801F049F8F0222B041203134029000F2211400B433168A4020969A6
:40428000002064188021C9016350635813409D4200D0034870BDC0463C0F0208E2B50D100300C20070B5094D04002B689B6CC340DB0703D4C721064801F020F82B68103450
:4042C0001B69A402E0580F23184070BD3C0F0208E2B50D1070B505000C00002804D17A212648FF3101F00AF86389DB0B04D0BD212248490001F002F80222A3799343012BD9
:4043000004D07C211D48FF3100F0F8FF0222E3799343012B04D0BE211848490000F0EEFF62897F231000984323D13821E3795202DB000B4012490A4007211343A2790A40B2
:4043400080211343627AC90592070A4013430122217A4A40402192010A401A43130009490B409A4205D16A626B6A0B409A4202D170BD0548FCE70548FAE7C046E2B50D103E
:4043800000FEFF00DBFEFFE00100C2000300C20070B505000C00002804D1C2212E48FF3100F0ACFF6389DB0B04D0E1212A48490000F0A4FFA379072B04D9C4212648FF31C5
:4043C00000F09CFFE379072B04D9E2212248490000F094FF2379073B182B04D9C6211E48FF3100F08BFF61897F23080098432ED13826226880339A43637949021A43E379D3
:40440000DB003340154E314007260B43A1793140F8260B43217976050906314080260B43617AF605890731400B430121247A6140402489012140194369602A602B689A426C
:4044400007D16B68064A1340994202D170BD0548FCE70548FAE7C046E2B50D1000FEFF00FFFEFFFF0100C2000300C20010B5041E04D1FF210748490000F040FF8023626A69
:404480001B0613436362636A0020002B00DB024810BDC046E2B50D100300C20010B5041E03D10749074800F029FF802362681B061343636063680020002B00DB024810BD16
:4044C0004E020000E2B50D100300C20070B505000C00002803D12549254800F00FFF0222A3799343012B04D0A5212148C90000F005FF0222E3799343012B03D01D491C48C7
:4045000000F0FCFE1C4B1B682F331978012927D162897F231000984324D13826E3795202DB003340154E324007261343A279324080261343627AF605920732401343227A14
:404540004A4092013F310A401A4313000C490B409A4207D16A626B6A0B409A4204D170BD0848FCE70848FAE70848F8E727050000E2B50D10290500003C0F020800FEFF00E3
:40458000DBFEFFE00200C2000100C2000300C20070B505000C00002803D12F492F4800F0ADFEA379032B03D92D492C4800F0A6FEE379032B03D92B49284800F09FFE237924
:4045C000073B182B04D9AF212448C90000F096FE254B1B682F331A78012A37D161897F230800984334D13826E3794902DB0033401E4E314007260B43A1793140F8260B43A0
:40460000217976050906314080260B43617AF605890731400B43217A4A40402192010A4013431A0012490A40934211D1FF22266864799643320022436B602A602C68A242D4
:4046400008D16A680A40934204D170BD0948FCE70948FAE70948F8E775050000E2B50D1076050000770500003C0F020800FEFF00DBFEFFFF0200C2000100C2000300C2003E
:4046800010B5041E03D10B490B4800F037FE0B4B1B682F331B78012B0AD18023626A1B0613436362636A0020002B02DB044800E0044810BDBD050000E2B50D103C0F0208EE
:4046C0000300C2000200C20010B5041E03D10B490B4800F013FE0B4B1B682F331B78012B0AD1802362681B061343636063680020002B02DB044800E0044810BD16060000FE
:40470000E2B50D103C0F02080300C2000200C20070B505000C00002803D12349234800F0EDFD2378032B03D92149204800F0E6FD6378032B03D91F491C4800F0DFFD1E4BD4
:404740001B682F331978012927D1A2887F231000984324D1382663785202DB003340174E3240072613432278324080261343E278F605920732401343A2784A4092013F315B
:404780000A401A4313000E490B409A4207D16A626B6A0B409A4204D170BD0A48FCE70A48FAE70A48F8E7C04656080000E2B50D1057080000580800003C0F020800FEFF005D
:4047C000DBFEFFE00200C2000100C2000300C20070B505000C00002803D12349234800F08DFD2378032B03D92149204800F086FD6378032B03D91F491C4800F07FFD1E4BC2
:404800001B682F331978012927D1A2887F231000984324D1382663785202DB003340174E3240072613432278324080261343E278F605920732401343A2784A4092013F319A
:404840000A401A4313000E490B409A4207D16A606B680B409A4204D170BD0A48FCE70A48FAE70A48F8E7C046A7080000E2B50D10A8080000A90800003C0F020800FEFF00AD
:40488000DBFEFFE00200C2000100C2000300C20010B5041E03D10B490B4800F02FFD0B4B1B682F331B78012B0AD18023626A1B0613436362636A0020002B02DB044800E0D5
:4048C000044810BDEB080000E2B50D103C0F02080300C2000200C20010B5041E03D10B490B4800F00BFD0B4B1B682F331B78012B0AD1802362681B06134363606368002059
:40490000002B02DB044800E0044810BD44090000E2B50D103C0F02080300C2000200C20070B505000C00002803D12349234800F0E5FC2378032B03D92149204800F0DEFC30
:404940006378032B03D91F491C4800F0D7FC1E4B1B682F331978012927D1A2887F231000984324D1382663785202DB003340174E3240072613432278324080261343E2787F
:40498000F605920732401343A2784A4092013F310A401A4313000E490B409A4207D16A626B6A0B409A4204D170BD0A48FCE70A48FAE70A48F8E7C046A8090000E2B50D1016
:4049C000A9090000AA0900003C0F020800FEFF00DBFEFFE00200C2000100C2000300C20070B505000C00002803D12349234800F085FC2378032B03D92149204800F07EFCA1
:404A00006378032B03D91F491C4800F077FC1E4B1B682F331978012927D1A2887F231000984324D1382663785202DB003340174E3240072613432278324080261343E2781E
:404A4000F605920732401343A2784A4092013F310A401A4313000E490B409A4207D16A606B680B409A4204D170BD0A48FCE70A48FAE70A48F8E7C046F9090000E2B50D1008
:404A8000FA090000FB0900003C0F020800FEFF00DBFEFFE00200C2000100C2000300C200094B1B682F331B78012B0AD18023426A1B0613434362436A0020002B02DB03483B
:404AC00000E003487047C0463C0F02080300C2000200C200094B1B682F331B78012B0AD1802342681B061343436043680020002B02DB034800E003487047C0463C0F02085B
:404B00000300C2000200C200036810B5020080241B0500D4403C82239B00D3580020DB05DB0DA34203D090239B00D150013010BD036880201B0500D440387047F0B5050056
:404B400085B00C001600002800D17BE1002900D178E10B78022B03D94821BB4800F0CEFB637B023B062B03D94921B74800F0C6FBA37B002B06D0023B012B03D94A21B2487A
:404B800000F0BCFBA31CDB7F012B03D94B21AE4800F0B4FB230028331B78012B03D94C21A94800F0ABFB2378012B00D93BE108236268083A93429B415B42002B03D04E2171
:404BC000A14800F09BFBA368053B042B03D94F219D4800F093FB6369FF2B03D950219A4800F08CFBA369FF2B03D95121964800F085FBA37C002B0CD02378002B05D1A368E2
:404C0000092B02D1A37B002B03D053218E4800F075FB8E4B626B1A4203D055218A4800F06DFB8B4BE26B1A4203D05621864800F065FB2378022B03D10022A37F934201D0C5
:404C400063685A1E237F0021581E834118040823A768BB42494107331A4080239B0413430343C9020B432B602800276BFFF760FF874203D36B21744800F040FB2800A76BA6
:404C8000FFF756FF874203D36C216F4800F036FB2800676AFFF74CFF874203D36D216A4800F02CFBC022217892040B0613402B64607FE76A431E984183010093A37C0720AA
:404CC0005A1E9341227C9B020193531E9A411302627C0293531E9A415302F02203937B1E12031B041340627B013A02401343A27B2930120102401A43009B1A43019B1A4393
:404D0000029B1A43039B1A43AA64207B431E9841E37B0002002B00D091E002394A424A415302A268511E0F2211400143C020194380002950FF21A36909041B040B40217D73
:404D40000B43C42189006B502B581A400332974201D3102F03D983213B4800F0CFFA0021E27F23788A4203D05A1E50425041010207203027627B013B013A0240A07B000178
:404D8000384002430A436A64227B0F20511E8A411102A268013A02400A4358425841030413438022FF219200AB50236B05320B40FF32AB50631CDB7F5F1EBB415F06A31C9D
:404DC000DB7F013B5A425A4113060093230028331B78013B58425841636A02040B4000983B43034313432B65A36B626B194081239B00E950174B30001340174AAB50E36B1F
:404E0000164A1340164AAB5000239E4209D01800144A7360B3603360F36033623363F362726305B0F0BDA37F002B05D063685A1E062393429B415B4201221340BDE68023F7
:404E40009B006EE70848ECE744B60D1092F4FFFF8CF8FFFF6D0B0000C80F000073070000880F0000EFCDAB000160AA00104B1B683C331B78834219D9042910D94B1EFF3BE0
:404E8000132B13D81F2319400A4B8000C018C02304229B00C1504033C250002070470723D0301940034B8000C150F6E70248F5E73C0F02080000264001004A0010B50F4BE6
:404EC00004001B683C331B78834204D8A3210C48490000F013FA0B4BA400E418D0239B00E05807231840042807D1C0239B00E0581F23034080204000184310BD3C0F020850
:404F0000AAB60D1000002640F7B5041E03D14649464800F0F3F9B023454DDB00EB58002B00DA7FE0434B22689A4203D942493F4800F0E4F9E2792368511E8A419B03120687
:404F40009B0B1343B022D200AB50A3883B4FBB4204D994213548890000F0D0F92389384EB34203D93749314800F0C8F92389A28835491B04D204D20C0B401343334AAB50A6
:404F8000A37A01910F2B04D996212848890000F0B5F9E37A0F2B03D92D49244800F0AEF9A389BB4203D92B49204800F0A7F9FF22E37A29491B011340A28912020A400F2168
:404FC0001343A27A0A40C0211343A27B890512070A401343B122D200AB50A379042B03D91E49124800F08AF9238AB34204D999210E48890000F082F9E020A379184AC0009E
:405000001B02A9580340174801400B43AB50238A01981B04A95803401348014000200B43AB50FEBD1148FCE73F020000AAB60D1000002640FFFF030049020000FF1F0000F3
:40504000FF010000510200000000FF0184050000590200005A02000000FF1F00630200008C050000FFF8FFFFFFFF00FE03004A00F7B58022B22607000500304B304C12060A
:40508000E158F6000A43E25000930422A359134201D1002D35D1B1208023C000225829499B050A40134323500191002F01D0002D06D0B0228023D200A1581B060B43A35029
:4050C0000126B223DB00E358334224D1002D1DD1002F24D0B121C9006258019B1A4080239B051343B0226350D200A3585B005B08A350009B009AE3585B005B08A350124894
:4051000017E0012000F0F0F8013DBEE7300000F0EBF8013DD5E7002F01D0002DDAD0B122C0230020D200A1589B050B43A350874200D1FEBD002DE2D0FBE7C0468C05000099
:4051400000002640FFFFFFCF02004A0070B5194E050033680C001A0028321278012A15D182080721100088430FD103202840C00084401B68920020339B182200FF248440CA
:4051800019684A4014404C401C6070BD5B8F8B4203D17F21084800F0B1F8336807201A68802328401B06184380239B01E418A400A050EAE73C0F02080EB70D100B4B70B52A
:4051C0009B680B4D10300E000400AB420AD1002904D1A0210748490000F090F8A40028592E5170BD044B8400E058FAE700ED00E0000002080EB70D1000000D10F7B5061E08
:4052000001914AD04368032B03D93B21244800F075F80023F05E002828DB7188FFF796FF00240023F05E73689B01002820DBC0270326FF251B49820892005218BF00D15992
:405240000640F6008C46B540290065468D43FF211940B1402943D151134B9A68134B9A4202D10199FFF7AAFF2000FEBD104CD8E70F22032781B20A40083A0B4D394092086E
:40528000B9409200FC3752193D003B408D408B40D669AE433343D361DEE7054CE4E7C0460EB70D1000E100E000ED00E0000002080100560070B5802504002D02AC4205D81B
:4052C000064B18686043FEF71BFA70BD044B1868FEF716FA034BE418F0E7C046340102082C0102080080FFFF10B5034B1B785843FEF706FA10BDC0463801020870B50D0096
:40530000044C01001822200001F0CCFBA56101BEFEE7C0469807020880220020034B12069A649B6C834200DA0148704700002740030046008022054B120198585B68DBB2F0
:40534000002B02D08023DB021843704700002640FEE7000002680A4B10B5DA6142681A6282685A62C2689A620269DA6242691A6382695A63C2699A63FFF7EAFF10BDC04651
:4053800098070208F0B51922002800D14B322A4B8A4292411B6852421C00A83424881D68671903253E68AE4316433E601E68A4192768224E374027601C00AA3424881E68F8
:4053C000A7193E68AE4332433A601A681B4EA21814682640166000280ED00020102904D9213088428041404201300F225B681968914308431860F0BD1A00553212789142C8
:40540000F3D91A005632127801209142EDD91A005732127800189142E7D91A005832127828009142E1D91A00593210788842804140420430D9E7C0463C0F0208FFFCFFFF7D
:40544000B0235B055A782120002A01D05878C0B27047B0235B059A89002A02D0988980B2704780204000FBE770B5FFF7F2FF8022184B5200904215D119680F240B0098332F
:4054800018680B68FE3A18180368A3431343036008009C300B6801685B181968A1430A431A6070BD1A68B0201300C02598331968136840055918084BAD00C3580C682B4347
:4054C00023430B6011009C3113680A689B18034A8258E5E73C0F0208481800004418000070B5FFF7B6FF8022184B5200904215D119680F240B00983318680B68FD3A181896
:405500000368A3431343036008009C300B6801685B181968A1430A431A6070BD1A68B0241300C120C0269833196813686405400159182358B6000D6833432B430B601100CD
:405540009C3113680A689B182258E5E73C0F020810B5FFF77EFF8022104B52001B6890420CD11A00983212681B680D499B181A681140C022D2010A431A6010BD1900983182
:405580001A680B68B021C020D218064B4905CB588000116803430B431360EEE73C0F0208FF8FFFFF1818000070B5FFF752FF8022144B520090420DD11B6813491A00983281
:4055C00012681B689B181A6811408022D2010A431A6070BD1A68B0241300C026983319680A481368640559182358B6000D6833432B430B6011009C3113680A689B18225890
:40560000E6E7C0463C0F0208FF8FFFFF4C18000010B50020FEF746FE0400FFF711FF03000120222B02D860424441E0B210BD000010B5074C236831331B78002B04D1E621B8
:4056400004484900FFF75AFE2368186A10BDC0463C0F0208ECB30D10F8B50400012803D928492948FFF74AFEFFF7EAFE85B2FFF7F0FE070000208026FEF714FE7600002815
:4056800011D1B74211D1222D0FD880251F4B204A1B686D04596824068B582C401D4D2B401C438C50F8BDB74225D0FFF7C1FF0500B7420AD1002C0CD1174A01212800FEF765
:4056C0003BFB002809D01548ECE7002C03D1144AF3E7144AF1E7144AEFE70C4B1B68B4331B68EB181A68002AFCDBEB6800201B0EA02BE8D1D6E7222DE5D9FFF799FF05005A
:40570000D8E7C0467F0A000072B70D103C0F020818F00000FFFFFFFE01000030040042000100000C010100300300000CF7B50700012803D929492A48FFF7E0FDFFF789FECC
:4057400080235B0098421CD0FDF7E3FFB0230190244D254A5B05002F1AD0244903205958A950234A23499C5C1F226B58E4B293431A000B2313436B50FFF7B6FDFFF714FF4C
:4057800012E0FFF745FF0028DED11B4E3000FEBDAF50E8220120D2009C5CFFF75DFFE4B2061E17D1FFF760FE1F21124A0C40AB588B431C43AC50002F09D00720FFF794FD8C
:4057C000FFF78EFE0020FFF747FF060002E0FFF7BFFE3E000198FDF7A0FFD7E75308000072B70D1000002640307F000010180000410700001CFF000003004200C022802000
:40580000064952008B58C0059B009B0803438B50802388581B0603438B5070470000264002B4714649084900095C49008E4402BC7047C046002243088B4274D303098B4282
:405840005FD3030A8B4244D3030B8B4228D3030C8B420DD3FF22090212BA030C8B4202D31212090265D0030B8B4219D300E0090AC30B8B4201D3CB03C01A5241830B8B42A7
:4058800001D38B03C01A5241430B8B4201D34B03C01A5241030B8B4201D30B03C01A5241C30A8B4201D3CB02C01A5241830A8B4201D38B02C01A5241430A8B4201D34B023A
:4058C000C01A5241030A8B4201D30B02C01A5241CDD2C3098B4201D3CB01C01A524183098B4201D38B01C01A524143098B4201D34B01C01A524103098B4201D30B01C01A6F
:405900005241C3088B4201D3CB00C01A524183088B4201D38B00C01A524143088B4201D34B00C01A5241411A00D20146524110467047FFE701B5002000F006F802BDC046E5
:405940000029F7D076E770477047C046002B11D1002A0FD1002900D1002802D00021C943081C07B4024802A14018029003BDC046D9FFFFFF03B4684601B5029800F030F80F
:40598000019B9E4602B00CBC7047C046F0B5CE46474615042D0C2E0080B50704140C3F0C9946030C7E435D43674363437F19340CE4199C46A54203D980235B029846C444C0
:4059C0004B46514343433604360C250C24046544A4195918491920000CBC90469946F0BDF0B557464E464546DE46E0B5040083B00D00924699468B422FD82CD0494650469A
:405A000000F0AEF829000600200000F0A9F8331A9846203B9B4600D574E053465A4693401F005346424693401E00AF4229D826D05B46A41BBD41002B00DA79E0002200233A
:405A40000092019301235A4693400193012342469340009319E08242D0D900220023009201930C9B002B01D01C605D600098019903B03CBC90469946A246AB46F0BDA34219
:405A8000D6D900220023009201934346002BE8D0FB0772081A4346467B080EE0AB4201D1A2420CD8A41A9D41012024196D410021013E24184D41002E06D0AB42EED9013E3A
:405AC00024196D41002EF8D15B460098019900196941002B22DB2B005A46D3402A004446E2401C005B461500002B2CDB26009E40330026004746BE403200801A9941009030
:405B00000191AEE7424620239B1A5246DA40414613004A468A4017001F4382E7424620239B1A2A0046469A402300F3401343D5E74246202300219B1A0022009101920122B4
:405B4000DA40019282E74246202326009B1ADE402F00B446974066463B003343C9E7C04610B5002903D100F007F8203002E0081C00F002F810BDC0461C2101231B0498421A
:405B800001D3000C10391B0A984201D3000A08391B09984201D30009043902A2105C40187047C0460403020201010101000000000000000030B51C00094B05001B6885B040
:405BC000D868084B002A01D1074B1A000292019300912B002200054900F010F801F018F978010208D5B70D1010B80D10E2B70D1010B50A22002101F01FF810BD0EB403B534
:405C0000010003AB044804CB0068019300F074F902B008BC03B018477801020870B505000E001400002804D08369002B01D102F05BF81C4B9C420FD16C68A3891B0702D5A2
:405C40002369002B21D12100280001F06BF800281BD00120404270BD134B9C4201D1AC68EBE7124B9C42E8D1EC68E6E7A3680136013BA360002B04DAA26993420ADB0A2970
:405C800008D023685A1C2260197031780029EDD10800E0E72200280000F0E2FF431CF4D1D7E7C04694B90D10B4B90D1074B90D1010B5034B0A0001001868FFF7AFFF10BD51
:405CC00078010208EC3000687047000010B5034B0100186800F08AF810BDC0467801020810B5034B0100186800F036F810BDC0467801020882B0002900D101A9101E06D0A8
:405D0000002B06D013780B601078431E984102B0704702204042FAE730B50024A24201D1002005E0035D651C0C5DA34201D0181B30BD2C00F2E7002310B59A4200D110BD71
:405D4000CC5CC4540133F8E703008218934200D1704719700133F9E770B50500002910D00C1F2368002B00DAE418280002F0D5F81D4A1368002B05D163601460280002F034
:405D8000CDF870BDA34209D9216860188342F3D118685B6841182160EEE713005A68002A01D0A242F9D919685818A0420BD120680918581819608242E0D1106852684118E7
:405DC00019605A60DAE7A04202D90C232B60D5E721686018824203D1106852684118216062605C60CAE7C046A00D0208032370B5CD1C9D43083506000C2D1ED20C25A9424F
:405E00001DD8300002F089F8254A14682100002919D1244C2368002B03D1300000F0F8FD20602900300000F0F3FD431C2CD10C233000336002F072F803E0002DDFDA0C2341
:405E40003360002070BD0B685B1B1AD40B2B03D90B60CC18256003E08C420ED163681360300002F05BF8200007220B30231D9043C31AE7D05A42E250E4E74B6863600C00FC
:405E8000EEE70C004968C2E70323C41C9C43A042E0D0211A300000F0BBFD431CDAD1C6E7A00D0208A40D0208936810B5013B9360002B05DA9469A34208DBCBB20A2B05D0AF
:405EC0001368581C10601970C8B210BD00F0C8FEFBE7F8B506000F001400D518AC4201D1002007E021783A003000FFF7DDFF0134431CF3D1F8BD0000F0B59FB006000F0066
:405F000014000593002804D08369002B01D101F0EBFE7F4B9F425CD17768BB891B0762D53B69002B5FD0002306AD6B6120336B761033AB760294029C2378002B5DD1029BA5
:405F4000E31A04930DD0049B029A39003000FFF7C0FF431C00D1CCE06A69049B944663446B612378002B00D1C3E00122002352426A6002A95432521801342B60EB60AB602D
:405F80001370AB6521780522624801F0BBFF631C9C46002835D12968CB0604D5532302AA20309B1818700B0704D553232B2002AA9B18187023782A2B2CD000200A21099B54
:405FC0002278303A092A00D86BE000282AD0099328E0514B9F4201D1B7689EE74F4B9F429BD1F76899E73900300000F09BFE002899D0012040421FB0F0BD252B9FD0013432
:406000009AE7444B2968C01A012383400B432B606446B7E7059B181D1B680590002B3ADB0993644623782E2B0BD16378621C2A2B3FD1059B02341A1D1B680592002B35DB7A
:40604000079321780322364801F05CFF002807D0334B2A68C01A4023834013432B6001342178631C06222F480293297601F04AFF002844D02C4B002B2FD12968059B07227C
:40608000C90528D59B189343083305936B69039A9B186B614FE75B42EB6002230B432B60BFE74B4301349B18012089E701235B42C6E7002314000A201A006B60217830394A
:4060C000092903D9002BBCD00792BAE74243013452180123F2E70733D5E705AB00933A00124B2900300000F0BFF80390039B0133CCD1BB895B0600D57BE70B987BE705AB1D
:4061000000933A00094B2900300000F067FBECE794B90D1022B80D10B4B90D1074B90D1028B80D102CB80D1069620D10D35E0D10F0B58BB014001D1E129953DA8024240682
:406140001B191D0014002D230B702023149E03229E43462E07D03300453B59424B411099013ACB18109309AB049308AB0393139B00920293109B220001932B0000F0D4FEAE
:406180000700472E02D1119BDB0724D5109BFB180793462E14D13B78302B0CD1002200232000290002F0AEFB002804D10123109A9B1A139A1360139B079A1B68D31807934D
:4061C000002200232000290002F09CFB302200280DD0079B09933800099B159ADB1B13600BB0F0BD0023AFE7591C09911A70099B07999942F8D8EEE7F0B52B2385B0070052
:406200000C000270861C002901DA2D234C427B70092C23DD02ABDD1D6B1E20000A21019302F05CFB6B1E3031197020000A2102F06FFA040009280ADC023D30342C7002ABC4
:4062400007333000AB4204D8C01B05B0F0BD019DE2E72B78013533700136F0E73023E4183370B01C7470EFE7F0B595B00C000A920B931A9D099001F0CDFD036818000D93E7
:4062800000F0F8FB0023129323680E900C930C99277E2B680722C90547D59B1893431A0008322A601A685B68A264E3640122E56CA66C6B005B080F935242A74B30000F992E
:4062C00004F028F8002800D006E20122A24B524230000F9902F026FB002800D0FCE1002200233000290002F013FB002803D023002D2243331A70994D472F00D8984D0323FC
:4063000000260C9A236101339A4322600B9B13AA009321000A9B099800F0F2F9431C00D09CE00120404215B0F0BD0733B6E780236268DB00511C45D1073262600C9A00211E
:40634000134312AA059211AA0392232223600691019308A9636852180292009332002B0004970998FFF7E4FE20233A0005009A43472A07D1119BDA1C02DB626893425BDDB5
:40638000023FFFB21199652F3BD8200001393A0050301191FFF730FF129A060083182361012A02DC2268D20701D501332361232308AA9B181B78002BA8D023002D2243332B
:4063C0001A70A3E7672F01D0472FB7D1002A16D00C9908A80B430021069112A9059111A90391232109182360019300922B000497029132000998FFF79BFE0500BAE7012288
:406400009BE7662F19D1636800290CDD2161002B02D12268D20702D501335B182361119B0026A365C3E7002B03D101222168114200D09A1C2261F2E76727119B129883428C
:4064400005DB22682361D207E9D50133E6E70122002B01DC9218D21A1218EBE72268530508D423692A000A9909980B9DA847431C29D156E7652F00D8DCE0A06CE16C002251
:40648000002302F03FFA002835D00123354A0A9909980B9DA847431C00D142E7119B129A934202DB2368DB070DD50B9D0E9B0D9A0A990998A8470025431C00D131E7129BEC
:4064C000013B9D420BDB236800259B0700D5FDE0139BE068984200DB25E7180023E7220001231A320A9909980B9EB047431C00D117E70135E3E7119B002B35DC0123194AAB
:406500000A9909980B9EB047431C00D109E7119B002B05D1129B002B02D12368DB07D2D50B9E0E9B0D9A0A990998B0470026431C00D1F6E6119B5B429E4201DB129B91E75B
:40654000220001231A320A9909980B9FB847431C00D1E6E60136EDE7FFFFEF7F37B80D1033B80D10CAAA0D10A36D129E9E4200DD1E00002E35DC00230C93F343DB170F931E
:406580000F9BA76D0C9A3340FB1A9A4232DB119B129A93423CDB2368DB0739D4129E119AF31BB61A9E4200DD1E00002E39DCF7430025FB170C93119A129B0C999B1A3200FD
:4065C0000A409B1A9D4200DB7DE7220001231A320A9909980B9FB847431C00D1A1E60135E9E733002A000A9909980B9FB847431CC1D196E6220001231A320A9909980B9F0B
:40660000B847431C00D18CE60C9B01330C93B7E70E9B0D9A0A9909980B9EB047431CBDD17FE6EA1933000A9909980B9DA847431CBDD176E6129B012B02DC01231A4238D082
:4066400001232A000A9909980B9FB847431C00D167E60E9B0D9A0A9909980B9FB847431C00D15EE6A06CE16C0022002302F04AF9002808D00025129B013B9D420DDB2200E7
:4066800033005032EFE6129B6A1C013B0A9909980B9DA847431CF2D143E6220001231A320A9909980B9FB847431C00D139E60135E1E72A00EAE72200012319320A9909981F
:4066C0000B9EB047431C00D12BE60135E368139A9B1A9D42EFDBFBE632002B003000290003F018FE002800D121E6034D472F00D905E6024D03E6C0463FB80D103BB80D10A1
:40670000F7B5150001938A680B6900900C00934200DA130022002B6043321278002A01D001332B6023689B0602D52B6802332B60062723681F4027D0230043331B785A1ED2
:4067400093412268920630D42200019943320098089EB047431C25D0062320682A68E16803400025042B03D18D1AEB43DB171D40A3682269934201DD9B1AED180027BD4221
:4067800020D1002010E00137E3682A689B1A9F42D2DA22000123193201990098089EB047431CF0D101204042FEBD3020E1184331087021005A1C45310978A218433202337C
:4067C0001170C1E7220001231A3201990098089EB047431CE6D00137D1E70000F0B58BB006920A0043320793059004920A7E0C00109B6E2A00D18FE017D8632A2CD008D8DF
:40680000002A00D199E0582A54D026004236327029E0642A01D0692AF7D121681A68080623D5111D1960156825E0732A00D188E008D86F2A29D0702AE7D1202209680A4367
:40684000226003E0752A20D0782ADED122007821453211706C4A30E00E001A684236111D196013683370012379E04906D9D5111D19600023D55E002D03DA2D23049A6D426F
:406880001370624B0A2703932FE020681968050603D5081D18600D6805E04006F9D50D68081D1860ADB2594B082703936F2A18D00A2716E045310A70544A03921A6821682B
:4068C000101D18601568080622D5CB0702D52023194321601027002D03D1202322689A4322602300002243331A706368A360002B5CDB0422216891432160002D58D1049ED3
:40690000002B64D02600039B42361B7833705EE04806DAD5ADB2D8E709681A68080605D5111D1960136862691A6006E04906F7D5111D19601368A28A1A800023049E2361B9
:4069400054E01A68111D1960166800216268300001F0D8FA002801D0801B6060636823610023049A137041E02369320006990598079DA847431C43D0236800259B070FD422
:40698000099BE06898423DDA18003BE022000123193206990598079EB047431C30D00135E368099A9B1A9D42F0DBE9E7002DA9D0049E28003900FEF7C3FF039B013E5B5CB8
:4069C000280033703900FEF735FF051EF1D1082F09D12368DB0706D563682269934202DC3023013E3370049B9B1B2361079B09AA00932100069B0598FFF782FE431CB3D175
:406A0000012040420BB0F0BD54B80D1043B80D10002370B5064C05000800236003F078FD431C03D12368002B00D02B6070BDC046400F0208C9B20378002B04D0994200D107
:406A400070470130F7E74B42594149420840F7E702780B78002A03D0013001319A42F7D0D01A7047031C0A7801311A700133002AF9D170470023C25C0133002AFBD1581EBA
:406A80007047002330B59A420AD0013AC45CCD5CAC4204D19A4202D00133002CF6D1631B180030BD70B50400002A00D170BD0D78561E631C25700131002D05D1A4189C4295
:406AC000F4D01D700133FAE71C003200ECE70000F0B51F000E008DB00B900891039212983478FFF7EFF8082200194378751C13400CD12D2C0CD101332C780293B51C002FA2
:406B00000CD0102F15D1302C0AD012E02E00E6E702932B2CF3D12C78B51CF0E7302C4ED120222B789343582B00D07CE010276C780235029B002B44D0002380260193360689
:406B4000FB173A00019831000493FEF7FFFE049B0A9201983A003100FEF7F8FE002309900591002000212200303A092A2ED81400A7423ADD5A1C1FD0059B994232D802D123
:406B8000099B98422ED8099B834207D1059B8B4204D101230A9A5B42A2420DDB0B00020004993800FEF7F2FEE31706940793069B079CC018614101232C780135D3E70A2701
:406BC000B7E701235B4201931A4EB9E72200413A192A01D8373CCBE72200613A192A04D8573CC5E701235B42E6E75A1C09D10B9A23331360039B01983100002B0FD10DB025
:406C0000F0BD029A002A04D006000F0000217042B941039A002AF2D0089A002B00D06A1E039B1A60EBE73024002F00D081E708377FE7C046FFFFFF7F37B51300064A05005D
:406C40001068046A002C00D1044C0A0000942900FFF73EFF03B030BD78010208DC010208F8B505000E001400002804D08369002B01D101F039F8224B9C422DD16C68A369D9
:406C8000A360A3891B0731D52369002B2ED023682269F7B2981A6369F6B2984205DB2100280000F0B3FF002826D1A3680130013BA36023685A1C22601F706369984204D018
:406CC000A389DB071AD50A2E18D12100280000F09DFF002812D00FE00A4B9C4201D1AC68CDE7094B9C42CAD1EC68C8E72100280000F018F80028CAD0012676423000F8BD3C
:406D000094B90D10B4B90D1074B90D100B1E04D0FF2A04D98A2303608B3B180070470A700123FAE7364B70B51D6806000C00002D05D0AB69002B02D1280000F0D5FF314B35
:406D40009C420FD16C680C23E25E93B219072DD4D90611D409230120336037331343A381404270BD284B9C4201D1AC68EBE7274B9C42E8D1EC68E6E75B0713D5616B002903
:406D800008D023004433994202D03000FEF7E4FF002363632422A3899343A38100236360236923600823A2891343A3812369002B0BD1A0218022A389890092000B40934235
:406DC00003D02100300001F059F80123A289134011D00023A36063695B42A361002023698342BED10C23E25E1306BAD540231343A3810138B5E7920700D46369A360EDE73E
:406E00007801020894B90D10B4B90D1074B90D1010B5062001F09EFB012003F087FBF0B503690C6989B00700059100269C426DDC0B00013C1433A50003935B190493030005
:406E4000143302935D19049B28681B68591C0193FEF7F0FC0190B0422DD0039B02989C460696624608CA9446019A99B251431B0C534389190A0C9B18079302881E0C069B09
:406E800089B2D2180368521A190C6B469B8BCB1A11145B18191492B21B041A43049B069104C06345DDD22B68002B04D1029B043DAB422ED33C610599380001F042FA0028F8
:406EC00023DB0025019B029801330399019308C9028855199AB2AA1A05681B0C2D0CEB1A15145B191D1492B21B04134308C0049B8B42ECD2029AA300D3181A68002A04D106
:406F0000029A043B9A4209D33C61019E300009B0F0BD2B68002BCDD1013CC7E71A68002AF2D1013CECE70000F0B516001F00446A9DB00490259D06960797002C08D110208C
:406F4000FEF7C4FE049B5862446084600460C460049B5B6A196800290BD05A68012393404A608B60049801F012F80022049B5B6A1A60079B002B1FDA01232B607B005B08D0
:406F80000793079CB74B220019931A409A4216D1B54B249A1360069B002B03D1240301D100F091FDB14B269A0A93B14B002A01D000F08FFD00F08FFD00232B60E1E7069EFD
:406FC000079F002200233000390001F09BFC051E0ED00123249A1360A64B269A0A93002A01D100F078FDA44A26990A6000F073FD1AAB01931BAB009332003B00049801F08D
:407000001DFA630005905B0D00D17FE03A039B4C120B144321009A4A300018959E180022984B02F061FE984A984B02F0DDFB984A984B01F095FC040030000D0003F0BEF962
:40704000954A964B02F0D0FB02000B002000290001F086FC04000D0003F07CF90022039000232000290001F053FC00280ED0039803F0A4F90B0002002900200001F042FC3A
:40708000030058425841039B1B1A039301231693039B162B0FD88249DB00C91808684968069A079B01F048FC00284BD0039B013B0393002316931A9B9E1B00230B9333009E
:4070C000013B0C9304D501239B1B0B9300230C93039B002B38DB039A0C9B944663440C9300230F920893229B0125092B00D991E0052B02DD0025043B2293229B981E0328DC
:4071000000D991E0FEF78CFB828429761A9B1B9A9E18644BF218202A0FDD634B0698F318D84040239B1A9C40204303F089F901235E4C013E0919189371E7202306989B1AD2
:407140009840F2E71690B6E70B9B039A9B1A0B935342089300230F93C5E701230E93239B002B65DD1F000D93049A546A0022626004321100143199425FD96168049800F001
:40718000CEFE049B20605B6A1B680A930E2F00D905E1002D00D102E1069B079C14931594039B002B00DC85E01A000F213C4B0A40D2009B185C681B6810931194039B022491
:4071C0001D11EB060AD53A4B0D401A6A5B6A1498159901F0D5FE069007910134344E002D30D1109A119B0698079901F0C9FE069007917AE00123239A0E939446039B6344D0
:407200005F1C0D933B1EAFDC0123ADE70023A5E70023F0E700230E952293013B00220D931F00133323929FE701230E93023BF5E701230D931F001A00F4E7616852000131D2
