:02000004100DDD
:1000000000C00208DF4E0D100D0000004D4F0D1016
:1000100000000000000000000000000000000000E0
:10002000000000000000000000000000494F0D101B
:100030000000000000000000494F0D10494F0D1056
:10004000494F0D10494F0D10494F0D10494F0D10DC
:10005000494F0D10494F0D10494F0D10494F0D10CC
:10006000494F0D10494F0D10494F0D10494F0D10BC
:10007000494F0D10494F0D10494F0D10494F0D10AC
:10008000494F0D10494F0D10494F0D10494F0D109C
:10009000494F0D10494F0D10494F0D10494F0D108C
:1000A000494F0D10494F0D10494F0D10494F0D107C
:1000B000494F0D10494F0D10494F0D10494F0D106C
:1000C00010B5064C2378002B07D1054B002B02D02E
:1000D000044800E000BF0123237010BDECA7020814
:1000E000000000009CDF0D10044B10B5002B03D066
:1000F0000349044800E000BF10BDC04600000000F6
:10010000F0A702089CDF0D100021124B124A10B517
:10011000D8601C68002C06DB914202D101204042CD
:1001200010BD0131F5E79142F8D00121996000211D
:100130001C69002C03DA9142F0D00131F8E79142BA
:10014000ECD0A0220368120600209342E8D01800E9
:10015000E6E7C04600002340983A00001FB50023A0
:100160000193D82300049B05C018029001AB02A89C
:100170000C000393FFF7C8FF002801D1019B236007
:1001800004B010BD13B5084BC47A986801A9C0B279
:10019000FFF7E4FF002803D1019B9C42804116BD7C
:1001A00001204042FBE7C04648AE02081FB5064B9F
:1001B0000004C018029001AB02A801910393FFF75D
:1001C000A3FF05B000BDC0460001003610B5034BCB
:1001D000C17A9868C0B2FFF7E9FF10BD48AE0208C7
:1001E000F0B50F000400002685B0BE4201D100200A
:1001F0003EE0A0221F4BD2009A582378032A04D055
:10020000092B02D801361034EFE71B4A0A33DB0012
:1002100099580029F6D0D3185B6801AD2B7163782B
:1002200001916B71A3782900AB71E378A068EB7141
:1002300023792B7263796B72E3886B8102F0D8FBB0
:10024000002815D1237B2900AB71637BA068EB717B
:10025000E3896B8102F072FB002809D1A06802F0EB
:100260004DFC002804D1A06802F030FC0028C9D061
:1002700005B0F0BD0000214048AE020870B5060090
:100280000024104AA3019B180F491A68A3015B18A8
:100290001B68002A04DA0134102CF2D1002070BD52
:1002A000002BF8DB094B3100E518AD01280002F006
:1002B00045FB0028F3D1280002F008FC0028EAD012
:1002C000EDE7C04604202440242024408090000113
:1002D00073B50E0004000025B54201D1002076BDA3
:1002E0006A462378694613706378E0685370A37890
:1002F0009370E378D370A388938002F093FE002874
:10030000EDD16A46A37969461370E379E0685370CA
:10031000237A93706389938002F028FE0028DED14F
:10032000E06802F0F5FE0028D9D1E06802F0D6FEC0
:1003300010340028D3D10135CEE773B50E00040088
:100340000025B54201D1002076BD6A462378694672
:1003500013706378E0685370A3789370E378D37078
:10036000A388938002F05EFD0028EDD16A46A37950
:1003700069461370E379E0685370237A9370638958
:10038000938002F0F3FC0028DED1E06802F0CAFDA1
:100390000028D9D1E06802F0A1FD10340028D3D1A3
:1003A0000135CEE7F0B50F000400002685B0BE424F
:1003B00002D1002005B0F0BD236801AD019323797F
:1003C00029002B71637960696B71A379AB71E37953
:1003D000EB71237A2B72637A6B7263896B8102F003
:1003E00005FC0028E6D1237B2900AB71637B6069A3
:1003F000EB71A37B2B72238A6B8102F097FB0028A1
:10040000D8D1606902F08EFC0028D3D1606902F077
:1004100065FC18340028CDD10136C8E730B5174B3C
:1004200085B001930D2301AD2B71437804006B71EE
:1004300083782900AB71C378EB7103792B72437910
:100440006B72C38880686B8102F0D2FA002813D1E6
:10045000237B2900AB71637BA068EB71E3896B811F
:1004600002F06CFA002807D1A06802F047FB0028D0
:1004700002D1A06802F02AFB05B030BD00C002081E
:10048000B02310B55B055B78124C232B1BD00B21DE
:100490002000FFF7A5FE00281AD10F48FFF7EEFE57
:1004A000002815D10A210D48FFF712FF00280FD1AF
:1004B00004210B48FFF741FF002809D10121094819
:1004C000FFF770FF04E02000FFF7A8FF0028DED050
:1004D00010BDC046DCC60D10D8C50D10E4C50D100A
:1004E00084C60D10C4C60D1010B501210148FFF7D8
:1004F00077FE10BD8CC70D100022124B124910B5AB
:10050000D8601C68002C05DB8A4201D1012010BD97
:100510000132F6E78A42F9D001229A6000220B49A3
:100520001C69002C03DA8A42F0D00132F8E78A42D3
:10053000ECD0A0220368120600209342E7D01800F6
:10054000E5E7C04600002340983A00000094357764
:1005500010B5D42488B005930A9BA40506930B9B81
:100560000094029002AC68460194039104920793B0
:10057000FFF7C2FF08B010BD00B5064B89B000936D
:10058000029002AB6846019303910492FFF7B4FF17
:1005900009B000BD000B003510B5074C88B00094C1
:1005A000029002AC68460194039104920593FFF710
:1005B000A3FF08B010BDC046000E003500B5064BC5
:1005C00089B00093029002AB6846019303910492B4
:1005D000FFF792FF09B000BD000C003510B588B0E0
:1005E00005930A9B074C06930B9B0094029002AC68
:1005F00068460194039104920793FFF77DFF08B0CA
:1006000010BDC046000D003500B5054B89B0009304
:10061000029002AB68460193FFF76EFF09B000BD80
:10062000000A003500B5054B89B00093029002AB7B
:1006300068460193FFF760FF09B000BD0005003573
:1006400000B5064B89B00093029002AB6846019357
:1006500003910492FFF750FF09B000BD000400357C
:100660001FB5054B02900093684602AB01930391BE
:10067000FFF742FF05B000BD001000357FB5064B07
:100680000390019301A803AB029304910592FFF735
:1006900033FF07B000BDC0460011003510B5074C50
:1006A00086B00094029002AC6846019403910492D3
:1006B0000593FFF721FF06B010BDC04600120035BC
:1006C00010B5074C86B00094029002AC68460194C5
:1006D000039104920593FFF70FFF06B010BDC046CB
:1006E000000900357FB5054B0390019301A803ABCA
:1006F0000293FFF701FF07B000BDC04600060035BA
:100700007FB5064B0390019301A803AB02930491BC
:100710000592FFF7F1FE07B000BDC04600070035A7
:100720007FB5054B0390019301A803AB029304919D
:10073000FFF7E2FE07B000BD000800357FB5064BAD
:100740000390019301A803AB029304910592FFF774
:10075000D3FE07B000BDC0460002003510B5074CFF
:1007600086B00094029002AC684601940391049212
:100770000593FFF7C1FE06B010BDC046000100356D
:1007800010B58CB006930E9B0A4C07930F9B0194F7
:100790000893109B03900993119B03AC0A93129B3F
:1007A00001A80294049105920B93FFF7A5FE0CB0EB
:1007B00010BDC04600030035F0B58DB01D0012AB72
:1007C00040CB02921B780F000393002305AA04A9D3
:1007D0000493059300F03DF9041E3BD1204B3A00F1
:1007E00000930599029B049807F008F8002834DD6F
:1007F000022007AA06A9FF300694079401F0AEF97B
:10080000002803D12900069800F0F4FF812007AAF0
:1008100006A9400001F0A2F9652400281ED131008C
:10082000069800F077FD041E14D108A9380000F0E6
:1008300028F9041E0ED131000B9800F063FB041E52
:1008400008D1039A29000B9800F03AF9040008989F
:1008500006F06AFF20000DB0F0BD14246442F9E7F1
:10086000005F2D00F0B51F00002387B002910392B6
:1008700004A905AA0493059300F0EBF8041E2ED1F9
:10088000059800F07FF8040007F0C6FB051E31D084
:100890001A4B0200009305992300049806F0AEFF5E
:1008A000002822DD280006F099FF061E20D0010056
:1008B000134800F09FF8002814D00069002811D0D8
:1008C000039B220000930197029B2900FFF774FF0E
:1008D0000400300006F028FF280007F0A7FB2000E6
:1008E00007B0F0BD01246442F3E714246442F3E747
:1008F0000524FBE764246442F1E7C046005F2D0055
:100900009CC70D1010B5010004000B4808F02EFA2A
:10091000002398420DD02100084808F027FA01234F
:10092000002806D02100064808F020FA434243413F
:100930005B00180010BDC046A3C80D10ACC80D1058
:10094000B8C80D1010B5010004000B4808F00EFAED
:10095000002398420DD02100084808F007FA01232F
:10096000002806D02100064808F000FA434243411F
:100970005B00180010BDC046BDC80D10C6C80D10E4
:10098000CEC80D10032358438008984304307047A5
:10099000F8B5C3680D000860062B21D18468124F9A
:1009A000002C01D12000F8BD266A002E06D03100AF
:1009B0000E4808F0DBF9002802D16C602468EFE7EC
:1009C00031000B4808F0D2F9002801D1AC60F5E7FE
:1009D0003100380008F0CAF90028EFD1EC60EDE7EB
:1009E00002204042DFE7C046E5C80D10D6C80D1012
:1009F000DCC80D10F0B507000D00002491B001AE69
:100A0000002D02D1280011B0F0BD296A002904D0C0
:100A1000380008F0ABF90028F4D0AB68002B06D002
:100A20000E2C12D8A200955101341D00E8E72B6866
:100A3000002BFAD1002C0AD0013CA3009B591B6863
:100A4000002BF2D1002CF7D1EFE70025DAE72500E3
:100A5000D8E7F8B50E002E21170008F079F9041E2A
:100A60000CD0451C2E21280008F072F9002805D072
:100A7000001B0138386000203560F8BD1620404268
:100A8000FBE770B5050000200C0006F033FE2800DF
:100A900006F0A4FE002803D02100FFF779FF70BD07
:100AA00005204042FBE7002304220133002901D145
:100AB000904203D952001D2BF7D102331800704722
:100AC000F0B589B005900C000100C24807920027DC
:100AD000FFF790FFB84200D145E18568069702957F
:100AE0000497029B002B00D08AE0EB68062B00D015
:100AF00039E12E00B84F31003800FFF77BFF079A2D
:100B0000037E9A4200D0DEE03100B448FFF772FF66
:100B10008369237029003800FFF76CFF2278037E79
:100B20009A4200D1A8E12D68002DF3D12900AC48EC
:100B3000FFF760FF002806D02300FF335B7B012B0B
:100B400001D18369A3602900A648FFF753FF00285D
:100B500008D02300FF339B7A012B03D1C3685A1EB0
:100B6000934163702900A048FFF744FF002808D094
:100B70002300FF331B7B012B03D1C3685A1E934113
:100B8000E37029009948FFF735FF002806D02300BD
:100B9000FF331B7B012B01D183692371290094480A
:100BA000FFF728FF002809D02300FF331B7E012B0D
:100BB00004D1C3685A1E9341E21CD37729008D48A3
:100BC000FFF718FF002800D1A6E0C368052B00D06E
:100BD000A2E082682300200012331530FF33FF307B
:100BE000002A00D198E01978012903D119009669EB
:100BF000F5390E700133984200D18DE01268EFE7AD
:100C000002997D48FFF7F6FE002804D0836801931F
:100C1000019B002B03D1029B1B68029361E70199A2
:100C20007648FFF7E7FE00284AD0036974491800A8
:100C3000039308F09BF8002842D07249039808F00B
:100C400095F800283CD000266F4AB30099580398C5
:100C500008F08CF8071E05D00136172EF4D10527B1
:100C6000183E7F4201996948FFF7C4FE002801D071
:100C70008369069301996648FFF7BCFE002804D0FB
:100C8000C1698069FFF70FFF0490731C18D0049BA3
:100C9000002B15DD92227300E31852009A5C012AA2
:100CA00004D1320006990A32D20011512622FF32B5
:100CB0009B5C012B04D10A36F600049BA6197360D5
:100CC000019B1B68A3E73668002E00D012E721E7DE
:100CD0004C49380008F04AF8002800D0FFE0310005
:100CE0004A48FFF787FE002806D02300FF331B7C0D
:100CF000012B01D18369636131004548FFF77AFE1A
:100D0000002800D1EBE02300FF331B7C012B00D037
:100D1000E5E08369A361E2E029003E48FFF76AFE4F
:100D2000002817D0C368052B14D182682300200047
:100D300015331830FF33FF30002A0BD01978012902
:100D400003D119009669F5390E700133984201D02C
:100D50001268F1E729003048FFF74CFE002835D033
:100D600000278369A37005992C48FFF743FE0028EC
:100D700058D000258668002E54D031002448FFF753
:100D800039FE00280BD063191A001A32FF3212788C
:100D9000012A04D102326A439B1882699A623100A7
:100DA0001F48FFF727FE00280BD063191A001932DD
:100DB000FF321278012A04D102326A439B188269F9
:100DC0005A6202350A2D2DD03668D4E7A07007008C
:100DD000C9E7C046A3C80D100CC80D10C1C70D103F
:100DE000C8C70D10EAC80D10D2C70D10DAC70D1014
:100DF000E9C70D10F0C70D10A5C70D10F2C80D10F2
:100E0000AFC70D10B4C70D10C0A0020842C90D1025
:100E1000BCC70D10FAC70D1007C80D100FC80D1074
:100E200019C80D1005992F48FFF7E4FD051E20D0C5
:100E300001002D48FFF7DEFD00280AD02423FF33F0
:100E4000E35C012B05D1C3685A1E934122004D3249
:100E5000137029002548FFF7CDFD002809D0912304
:100E60005B00E35C012B04D1C3684C345A1E9341F0
:100E70002370380009B0F0BD29001D48FFF7BAFD06
:100E8000002800D152E68668002E00D14EE63100DF
:100E90001848FFF7AFFD002821D007691649380030
:100EA00007F064FF002800D012E731001348FFF775
:100EB000A1FD002806D02300FF339B7B012B01D12D
:100EC0008369E36031000E48FFF794FD002806D0E7
:100ED0002300FF33DB7B012B01D18369236136685B
:100EE000D2E7C0461FC80D102BC80D1037C80D1013
:100EF000A5C70D10F2C80D10AFC70D1042C90D10D7
:100F0000BCC70D10F8B507000C000100BA48FFF788
:100F100071FDBA4E051E2AD001003000FFF76AFDB0
:100F2000002808D0230068331B78012B03D1006907
:100F3000FFF708FD20702900B148FFF75BFD00288E
:100F400008D0230069331B78012B03D10069FFF718
:100F5000D9FC60702900AB48FFF74CFD002806D093
:100F600023006A331B78012B01D18369A3703900F8
:100F7000A548FFF73FFD051E2AD001003000FFF70E
:100F800039FD002808D023006B331B78012B03D1D7
:100F90000069FFF7D7FCE07029009948FFF72AFDA8
:100FA000002808D023006C331B78012B03D1006983
:100FB000FFF7A8FC207129009248FFF71BFD0028CD
:100FC00006D023006D331B78012B01D18369637137
:100FD00039008E48FFF70EFD051E00D184E00100A8
:100FE0003000FFF707FD002808D023006E331B7880
:100FF000012B03D10069FFF7A5FCA07129008048EF
:10100000FFF7F8FC002808D023006F331B78012B72
:1010100003D10069FFF776FCE07129007948FFF7FA
:10102000E9FC002806D0230070331B78012B01D186
:101030008369237229007648FFF7DCFC002808D07A
:10104000230071331B78012B03D1C3685A1E9341CF
:10105000637229006F48FFF7CDFC002808D02300F9
:1010600072331B78012B03D1C3685A1E9341A372BC
:1010700029006948FFF7BEFC002808D0230073331D
:101080001B78012B03D1C3685A1E9341E3722900D8
:101090006248FFF7AFFC002808D0230074331B78A8
:1010A000012B03D1C3685A1E9341237329005C4866
:1010B000FFF7A0FC002808D0230075331B78012B14
:1010C00003D1C3685A1E9341637329005548FFF743
:1010D00091FC002808D0230076331B78012B03D124
:1010E000C3685A1E9341A37339004F48FFF782FC2F
:1010F000050001003000FFF77DFC002808D0230028
:1011000077331B78012B03D10069FFF71BFC207498
:1011100029003C48FFF76EFC002808D023008C33E0
:101120001B78012B03D12300826964331A702900D4
:101130003E48FFF75FFC00282AD000268768002F72
:1011400026D039003A48FFF755FC00280AD0A319E9
:101150001A0078321278012A04D1023272439B18A5
:1011600082695A6139003348FFF744FC00280AD0ED
:10117000A3191A0079321278012A04D1023272437B
:101180009B1882699A6102360A2E01D03F68D6E721
:1011900029002948FFF72EFC00282BD00025032723
:1011A0008668002E26D031002148FFF723FC002856
:1011B0000AD063191A0082321278012A04D13A0047
:1011C0006A439B188269DA6331001A48FFF712FC00
:1011D00000280AD063191A0083321278012A04D138
:1011E0003A006A439B1882691A6402350A2D01D0BD
:1011F0003668D6E70020F8BD49C80D104DC80D105F
:1012000058C80D1060C80D1064C80D1067C80D10C7
:101210006EC80D1076C80D1095C80D1053C90D106D
:101220005DC90D1064C90D107BC80D107FC80D106D
:1012300019C80D10BCC70D108DC80D1070B5040075
:101240000D0086B00021142201A806F023FF29001A
:101250002000FFF7CFFB0400002C18D021001C4811
:10126000FFF7C8FB0028F7D00569002D0AD0194EFA
:101270002900300007F07AFD00280BD1310001A8C9
:1012800007F07EFD210001A8FFF7B4FB0400200059
:1012900006B070BD104E2900300007F067FD002831
:1012A000ECD029000D4807F061FD0028E6D00C4E77
:1012B0002900300007F05AFD0028DFD02900094836
:1012C00007F054FD0028DDD121000748C1E7C046E2
:1012D000F2C80D101AC90D1003C90D100AC90D105E
:1012E00012C90D10F7C80D10FDC80D1010B5FFF78D
:1012F00081FB0124002809D08168002906D0044818
:10130000FFF778FB002801D0C468E4B2200010BDCC
:101310009BC80D10F0B5050085B000200C0006F04C
:10132000E9F9280006F05AFA0190002800D14BE2B2
:101330000100A148FFF75EFB051E00D0B4E00123C9
:101340005B42009301999D48FFF754FB051E00D0B6
:10135000EEE001235B42009301999948FFF74AFBB5
:10136000051E00D03EE101235B42009301999548A0
:10137000FFF740FB071E00D122E2934E0100300030
:10138000FFF75CFF390005003000FFF7AFFF0600F4
:10139000002D00D1F6E12869FFF7D4FA2300773356
:1013A00020741E70894E39003000FFF747FF390066
:1013B00005003000FFF79AFF002D00D1E6E1230081
:1013C000AA6964331A702833187039008048FFF70F
:1013D00011FB051E00D1E6E101007E48FFF72EFF5C
:1013E000290006007B48FFF781FF0390002E00D103
:1013F000D0E1B369029329007748FFF71FFF290066
:1014000006007548FFF772FF002E00D1C7E1B669EC
:10141000230022002100143378323C31029D5E60AB
:101420001D606D462D7B0833507015700232994255
:10143000F4D139006948FFF7DDFA061E00D1BFE19B
:10144000644F01003800FFF7F9FE31000500380055
:10145000FFF74CFF0390002D00D1A8E1AB69029388
:101460005D4F31003800FFF7E9FE3100050038001C
:10147000FFF73CFF002D00D19EE1AD692300220063
:101480003C338232643402995D6019606946097B9D
:101490000833507011700232A342F4D1019806F063
:1014A00043F9009805B0F0BD474F01003800FFF741
:1014B000C5FE290006003800FFF718FF0700002EC0
:1014C0002FD03069FFF73EFA2300683320701F7079
:1014D0000023434F290038000093FFF7AFFE290097
:1014E00006003800FFF702FF0700002E1CD030690D
:1014F000FFF708FA2300693360701F70334F29002B
:101500003800FFF79BFE290006003800FFF7EEFECB
:10151000002E00D113E7B369A37023006A3318705B
:1015200010E701235B42D4E701235B420093E5E728
:10153000254F01003800FFF781FE29000600380022
:10154000FFF7D4FE0700002E2DD03069FFF7FAF91F
:1015500023006B33E0701F70214F29003800FFF724
:101560006DFE290006003800FFF7C0FE0700002EC0
:101570001DD03069FFF7C6F923006C3320711F704E
:10158000124F29003800FFF759FE290006003800E5
:10159000FFF7ACFE002E00D1DBE6B36963712300D8
:1015A0006D331870D8E601235B420093D4E7012322
:1015B0005B420093E4E7C04649C80D1064C80D10B3
:1015C00067C80D107BC80D104DC80D1060C80D10F8
:1015D0007FC80D1019C80D10BCC70D108DC80D1097
:1015E00058C80D107A4F01003800FFF727FE290078
:1015F00006003800FFF77AFE0700002E00D1A1E0B8
:101600003069FFF79FF923006E33A0711F70714F8F
:1016100029003800FFF712FE290006003800FFF706
:1016200065FE0700002E00D190E03069FFF76AF9EF
:1016300023006F33E0711F70674F29003800FFF7F8
:10164000FDFD290006003800FFF750FE002E00D1F6
:1016500080E0B36923722300703318705F4F290054
:101660003800FFF7EBFD290006003800FFF73EFECB
:10167000002E73D0F3685A1E9341637223007133B6
:101680001870574F29003800FFF7D8FD29000600D1
:101690003800FFF72BFE002E64D0F3685A1E9341EA
:1016A000A3722300723318704E4F29003800FFF7E1
:1016B000C5FD290006003800FFF718FE002E55D0A2
:1016C000F3685A1E9341E372230073331870464F38
:1016D00029003800FFF7B2FD290006003800FFF7A7
:1016E00005FE002E46D0F3685A1E93412373230053
:1016F000743318703D4F29003800FFF79FFD290013
:1017000006003800FFF7F2FD002E37D0F3685A1EAE
:1017100093416373230075331870354F29003800E7
:10172000FFF78CFD290006003800FFF7DFFD002ED3
:1017300000D118E6F3685A1E9341A3732300763351
:10174000187013E601235B42009360E701235B42BC
:10175000009371E701235B4200937FE701235B4223
:1017600000938EE701235B4200939DE701235B42D8
:101770000093ACE701235B420093BBE701235B428C
:101780000093CAE701235B4200930BE601235B420F
:1017900000931AE601235B42029600932BE6012395
:1017A0005B42009334E601235B42009341E6012350
:1017B0005B420295009353E601235B4200935DE692
:1017C00001235B42009369E605235B42009368E6D0
:1017D0004DC80D1058C80D1060C80D106EC80D1002
:1017E00076C80D1095C80D1053C90D105DC90D10A8
:1017F00064C90D10F0B5050085B000200C0005F09F
:1018000079FF280005F0EAFF0190002800D181E16E
:101810000100C248FFF7EEF8051E00D13AE1C04FC3
:1018200001003800FFF70AFD290006003800FFF725
:101830005DFD002E00D109E1B36923702300FF3361
:1018400058720023B74F290038000093FFF7F6FCC9
:10185000290006003800FFF749FD002E00D1F8E00E
:10186000F3685A1E934163702300FF339872AE4FA2
:1018700029003800FFF7E2FC290006003800FFF7D6
:1018800035FD002E00D1E8E0F3685A1E9341E37065
:101890002300FF331873A54F29003800FFF7CEFC53
:1018A000290006003800FFF721FD002E00D1D8E006
:1018B000B369A3602300FF3358739D4F290038009C
:1018C000FFF7BCFC290006003800FFF70FFD002ED3
:1018D00000D1CAE02200B369FF32DBB223779074F3
:1018E0006377D074A3771075924F29003800FFF703
:1018F000A5FC290006003800FFF7F8FC002E00D1F7
:10190000B7E02200B369FF32DBB2611CE3775075A8
:10191000CB77A11C9075CB77D075874E290030000E
:10192000FFF78CFC290007003000FFF7DFFC002FD9
:1019300000D1A2E0FB685A1E9341E21CD37723003A
:10194000FF33187601997D48FFF754F80600002F01
:1019500000D19FE023000122794FFF3301009A73E9
:10196000DA731A745A743800FFF768FC3100050006
:101970003800FFF7BBFC0390002D00D181E0AB697C
:101980000293704F31003800FFF758FC310005001A
:101990003800FFF7ABFC002D00D177E0AD692200E5
:1019A00021002300253209315033FF32FF31029EDE
:1019B0005D601E606E46367B0833167050700232D2
:1019C0008B42F4D101996048FFF714F8061E00D14C
:1019D0006DE05E4F01003800FFF730FC310005007C
:1019E0003800FFF783FC0390002D57D0AB690293BA
:1019F000544F31003800FFF721FC3100050038005A
:101A0000FFF774FC002D4ED0AD69220023002100A9
:101A100019322433FF324C31029E5D601E606E46E7
:101A2000367B08335070167002329942F4D1019916
:101A30004748FEF7DFFF051E3DD101235B420093BF
:101A4000019805F071FE009805B0F0BD01235B42DE
:101A5000F8E601235B42009309E701235B42009310
:101A600019E701235B42009327E701235B420093C0
:101A70003AE701235B4200934FE701235B42009367
:101A800060E701235B42029500937AE701235B4202
:101A9000009384E701235B42009393E701235B42B9
:101AA00002950093A4E701235B420093ADE7012375
:101AB0005B420093BBE7274F01003800FFF7BEFBF6
:101AC000290006003800FFF711FC002E1ED0F36835
:101AD0005A1E934122004C32137091235B00E05454
:101AE0001D4F29003800FFF7A9FB29000600380028
:101AF000FFF7FCFB002EA0D0F3685A1E9341220092
:101B00004D3213702423FF33E05499E701235B42E5
:101B10000093E5E705235B42009394E7A3C80D100B
:101B20000CC80D10EAC80D10D2C70D10C8C70D1093
:101B3000F0C70D10FAC70D10E9C70D10A5C70D109D
:101B400042C90D10BCC70D100FC80D1019C80D10DB
:101B50001FC80D1037C80D102BC80D107FB5DC2322
:101B60009B0500936C46002302AD01950290154839
:101B70006B60C460144C0668002E07DBA34203D1DF
:101B80000120404204B070BD0133F4E7A342F7D016
:101B90000123836000230669002E03DAA342EFD0FD
:101BA0000133F8E7A342EBD0A02300981B0698422C
:101BB00001D00098E6E7029B002013606B680B6081
:101BC000E0E7C04600002340983A0000F0B5170057
:101BD0008A22434C9200A544079008910EA8002148
:101BE000BFB2099306F056FA0CAA0BA93800FEF70B
:101BF000A5FD00260500B0422CD1C02280210B9B00
:101C0000D2051A40C9058A4237D10C9BDC1DE40875
:101C100020000D9406F000FA0925061E1AD00100D6
:101C20000DAB22003800FEF799FD051E12D16B4660
:101C3000198C102304930293079B079A3033019366
:101C4000284B40320392009332000D9B0EA8FEF702
:101C500097FD0500300006F0E9F9002D05D120229E
:101C600009990EA8FEF7ECFC05000EA8FEF7DAFCB9
:101C7000280099239B009D44F0BD1B4A934207D145
:101C80000C9B5C0809230134E4085C433B34BFE748
:101C9000164A934203D10C9BDC082934B8E7144A56
:101CA000934205D103240C9BDB085C435A34AFE715
:101CB000104A934205D103240C9BDB085C434A3451
:101CC000A6E70D4A1B0C1B0493429ED00B4A04004E
:101CD00093429DD10C9BDC1DE4081234640097E70D
:101CE0009CFDFFFF0901202200000170000001603F
:101CF000000002700000026000000370000003603A
:101D000070B508000D0014000E1E05D0731B9C4218
:101D100003DCE043C017204070BD307803F016FDAF
:101D20000136F3E770B500240D001600A1420AD178
:101D3000200070BD03F016FDC0B2285501340A28FA
:101D4000F6D00D28F4D0B442F4DBF1E70000000037
:101D50000230800803D001300238FCD1C046C046B2
:101D60007047EFF3108072B6704780F310887047A9
:101D7000014B18607047C046E0AD0208044B1B6879
:101D80001A0008321B68D26F9B181868000E704743
:101D9000E0AD0208054B1B681A0008321B68D26FC1
:101DA0009B181868000AC0B27047C046E0AD020830
:101DB0001D4B98420FD010D840282FD005D80028AE
:101DC00030D0102828D019481EE0802828D0802341
:101DD0005B009842F7D1144816E0154B984214D096
:101DE00008D8A0231B0698421CD0124B9842EAD177
:101DF000A0200BE0104B98420AD0104B984209D01B
:101E00000F4B9842DFD10F487047A420C003FBE777
:101E10000D48F9E70D48F7E70D48F5E70D48F3E7FA
:101E20000D48F1E70020EFE706005200FF005200E6
:101E3000010000F0090000A0040000F0050000F01F
:101E4000030000F0010052000200520003005200A3
:101E500001005000020050000500520070B50A4D0C
:101E600004002B6831331B78834204D8E6210748ED
:101E7000490002F035FC2B681A00B0321088444348
:101E8000186A201870BDC046E0AD02085CCB0D108A
:101E900010B50020FFF7E2FF0A4B1C682300B433A3
:101EA0001B68C0180368002B0ADB074B1868FFF794
:101EB0007FFF012263689A609A68002AFCD110BDF6
:101EC0000248FCE7E0AD020808A802080200500042
:101ED0000D4B10B51860002804D0FE235B42038030
:101EE00000234380094B1B681A0050321278002AE5
:101EF00008D051331B78002B04D002220449002063
:101F000000F086FB10BDC04618A80208E0AD02082C
:101F1000C1A3020870B5C4050500E40D28D103F083
:101F200025F8144B144A1A605D609C60DC60134B0A
:101F30001B6854331978002915D0FFF71FFF0400E0
:101F4000FFF728FFFA210134013060430C4B0D4CA0
:101F500089004443186805F045FD0100200005F0A4
:101F600041FD094BC118802040000AF015FB70BDEF
:101F70000648FCE708A802080001001CE0AD0208C2
:101F800020A1020860F590009808000006005200A9
:101F900070B5C40506000D00E40D2AD1002928D033
:101FA00002F0E4FF144B154A1A605C609E60DD602D
:101FB000134B1B6852331978002915D0FFF7DEFE4A
:101FC0000400FFF7E7FEFA210134013060430D4BB6
:101FD0000D4C89004443186805F004FD0100200001
:101FE00005F000FD094BC118802040000AF0D4FA2A
:101FF00070BD0748FCE7C04608A8020800010005BC
:10200000E0AD020820A10208C0EA21014826000034
:102010000600520070B506000C001500072903D910
:102020001449154802F05CFB1F232A009A4303D091
:102030001249114802F054FB114B1B689A695B6905
:10204000B01AC0090001C0181F231D40032C07D877
:10205000E400A340A54002689A431543056070BDA3
:10206000043CE400A340A54042689A431543456000
:10207000F5E7C04691020000E6CB0D109202000089
:10208000E0AD0208F0B585B000900D001400002806
:1020900000D138E1002A00D135E1072903D94E21CA
:1020A0009A4802F01DFB2368012B03D94F21974862
:1020B00002F016FB0F2362689A4303D05021934825
:1020C00002F00EFB1F22237A934303D051218F4845
:1020D00002F006FBE368032B03D952218B4802F080
:1020E000FFFA2369012B03D95321884802F0F8FA3B
:1020F0006369012B03D95421844802F0F1FAA369E2
:10210000012B03D95521814802F0EAFAE369032B38
:1021100003D956217D4802F0E3FA236A012B03D943
:1021200057217A4802F0DCFA636A012B03D958215F
:10213000764802F0D5FAA36A012B03D959217348D6
:1021400002F0CEFAE36A032B03D95A216F4802F05A
:10215000C7FA236B072B03D95B216C4802F0C0FA46
:102160002668072D04D9CC216948890002F0B8FA05
:102170000122AA400192012E07D96649644802F063
:10218000AFFA009B019A9A6004E0002EF9D1009BFF
:10219000019A5A606668072D03D95F495C4802F0CE
:1021A0009FFA0F2332009A4303D05C49584802F04B
:1021B00097FA0F215A4FAB0002933B6808007D331A
:1021C0001A78009B0E40D2181368A9009C46AB00F9
:1021D000984063468E4083431E431660227A29004E
:1021E0000098FFF717FFE668082D03D94D494848C6
:1021F00002F076FA032E03D94B49454802F070FAF3
:10220000032108006B0003933B686F00B8400E4049
:10221000BE407C331A78009B9A18136883431E4390
:1022200016602669082D03D94049394802F058FA4A
:10223000012E03D93E49364802F052FA019A009B1A
:10224000D74301221640AE409B693B401E43009B92
:102250009E616669072D03D936492D4802F040FA80
:10226000012E03D934492A4802F03AFA01202C4BB6
:1022700006401968AE400B0084467E331B78009AF6
:10228000D3181A68174037431F600B0062467F332C
:102290001878009B6E001818A36910361340AB40E5
:1022A000E56902321540B540B2402B43019D0768F5
:1022B0002A4397433B4303600220042580310A7878
:1022C000009B9A18636A11685B000340A06A800053
:1022D000284003436046256A284018250343E06AE6
:1022E000C00028400343206BFF24400120400343EB
:1022F000FE20029D80000540AB400020A1430B431F
:10230000136005B0F0BD0D48FBE7C046A3CB0D1030
:10231000E6CB0D1031030000CD030000CE0300001A
:10232000E0AD0208F1060000F206000072060000AF
:10233000730600000C0400000D04000001005A00A8
:102340000B4B70B51B680500B4331B680C00C31839
:102350001B68002B09DA0B0C03D00649064802F073
:10236000BFF90020A4B26C6070BD0448FCE7C04611
:10237000E0AD0208DE0200005CCB0D1001008A0017
:10238000036870B505000C00002B0BDAC2600B0C63
:1023900004D0B1210448890002F0A2F90020A4B2BF
:1023A000AC6070BD0148FCE75CCB0D1001008A00F9
:1023B00070B505000C1E03D1A221084802F090F967
:1023C000074B1B68B4331B68EB181B68002B03DA40
:1023D0000020EB68236070BD0248FCE72ACC0D109A
:1023E000E0AD020801008A00024B1A68002A00D101
:1023F000186070471CA80208F0B5314D1F002B680B
:1024000085B0040002910392002B03D1BE212D4818
:1024100002F066F92C23FF225C432B683D001C1957
:102420003B0A3F0CA760284F134063603B68154090
:10243000256031331B789D4204D3E62123484900AF
:1024400002F04EF93B681A00B032128855431A6AFE
:102450003233AD1825611B7865689D4204D3F421A1
:102460001A48490002F03CF93B681E6A2B00803391
:102470005B01F3186361A36801931B0C09D0134F30
:102480001349380002F02CF982213800890002F04B
:1024900027F9019B6D011B041A0C13430D4A751992
:1024A000AD182B60039BE361029B23620023A361B1
:1024B0000A9B002B01D01B88A38105B0F0BDC0464C
:1024C0001CA8020870CC0D10E0AD02085CCB0D100A
:1024D0000702000008100000F0B5040085B00028D5
:1024E00003D15B21214802F0FBF86368032B03D979
:1024F0005D211E4802F0F4F8E36A002B03D161214C
:102500001A4802F0EDF8236B002B03D16221174823
:1025100002F0E6F8A36802AD2B80154B22681B6819
:10252000E16ADB8EE0689B18AB706368A26A039374
:1025300000952369266A676AFFF75EFF00213B006A
:102540000A0000913000FFF757FF216B280002F0CE
:102550004FF80022AB5E002B06DB1F2213401E3A11
:102560009A401300034A136005B0F0BD70CC0D1003
:10257000E0AD020800E100E0F7B504000F00151E11
:10258000019304D183211D48490002F0A9F81C4E93
:102590003368002B04D108211848FF3102F0A0F85D
:1025A0002C235C4332685F4314192669D719002E27
:1025B00020D0BB69002B1FD13368002B1CDA01220D
:1025C0006368140011009C407B6899402B680904E3
:1025D0009BB20B432B60019BF5607B62BA61230CBD
:1025E00004D0B1210748890002F07AF80020A4B293
:1025F000B460FEBD0448FCE70448FAE770CC0D1057
:102600001CA802085CCB0D1004028A0007028A0095
:10261000F8B5114F04003B680E001500002B04D1E3
:1026200068210E48FF3102F05BF82C2060433C68C3
:102630002418236A002B04D16C210848FF3102F0D2
:102640004FF8E369AB4204D90020236AAD00EE5095
:10265000F8BD0348FCE7C0461CA8020870CC0D106A
:102660000A028A00002373B504000193984204D142
:10267000ED212C48490002F033F82369002B04D1E6
:10268000DC212848FF3102F02BF86369002B04D1CC
:10269000EE212448490002F023F8236A002B04D1DC
:1026A000DE212048FF3102F01BF86269D5682B0C4F
:1026B00022D01B04136013681B4B20691B68B433C2
:1026C0001B68C3181B68002B16DA01A9FFF770FE00
:1026D0000026B0420CD10198E26903681E0CDBB2FF
:1026E0009A4205D9226A9B009B58002B00D098473C
:1026F00031002069FFF724FEADB2002D09D06369D7
:102700001D6000251B68636AAB4205D0984765626F
:10271000A56163691B6873BDA36A002BF8D0984755
:10272000F6E7C04670CC0D10E0AD020870B5084C5D
:1027300005002368002B04D1DD210648490001F083
:10274000CFFF2C20454320684019FFF78BFF70BD59
:102750001CA8020870CC0D1070B50A4D04002B683F
:1027600031331B78834204D8E6210748490001F041
:10277000B7FF2B681A00B03210884443186A20183B
:1027800070BDC046E0AD02085CCB0D10F8B5174B2C
:102790000D001B6831331B78834225D9002923D0D3
:1027A0001F240B681C401FD1FFF7D6FF07002B68C2
:1027B0000F4EDA0821003060686805F06BFC2100DC
:1027C0003800FFF7BDFD21002A003068FFF7D8FD73
:1027D000041E07D101003068FFF7B2FD030020009E
:1027E000002B00D00348F8BD0348FCE7E0AD020829
:1027F00020A8020801018A0003018A00F7B5184FDA
:1028000004003B680191DE683368834226D90025C5
:10281000A94202D1FFF7A5FA050038680368002B2A
:102820001ADA1F2201232240934064097268A4002F
:102830001419226813420DD09A432260002400210B
:10284000FFF77EFD019B002B02D12800FFF78DFAD8
:102850002000FEBD034CF2E7034CF3E7034CF7E71F
:1028600020A80208020188000301880004018A00F0
:102870000A4B1B68DB681A6882420DD959681F230E
:10288000420918401E3B8340920050581840431E96
:102890009841034BC01870470248FCE720A8020883
:1028A0000001880004018A0070B5154E04003368E9
:1028B0000D009B6CC340DB0703D4A721114801F036
:1028C0000FFF0F2D03D9A8210E4801F009FFF022B8
:1028D0002B041203290013400F2211400B433168CF
:1028E000A402096964188021C9016350605810402E
:1028F000401B431E9841044B4042184070BDC046E7
:10290000E0AD0208B7CC0D100300C20070B5094D50
:1029100004002B689B6CC340DB0703D4C721064827
:1029200001F0DEFE2B6810341B69A402E0580F236F
:10293000184070BDE0AD0208B7CC0D1070B50400B2
:102940000D00002804D17A212448FF3101F0C8FE8F
:102950006B89DB0B04D0BD212048490001F0C0FE8B
:102960000222AB799343012B04D07C211B48FF3119
:1029700001F0B6FE0222EB799343012B04D0BE2175
:102980001648490001F0ACFE6A897F231100994383
:1029900022D10721AB7952020B4013436A7A3131BD
:1029A00092071343EA79D2000A4013430122297A9D
:1029B0004A40920113431A0009490A409A420BD136
:1029C0006262606A0840801A43425841054B4042A7
:1029D0001840054BC01870BD0448FCE7B7CC0D107B
:1029E000DBFEFFE0FDFF3DFF0300C2000100C2006F
:1029F00070B504000D00002804D1C2212E48FF311B
:102A000001F06EFE6B89DB0B04D0E1212A484900FE
:102A100001F066FEAB79072B04D9C4212648FF31AB
:102A200001F05EFEEB79072B04D9E2212248490030
:102A300001F056FE2B79073B182B04D9C6211E48FE
:102A4000FF3101F04DFE6B897F22190091430A1E70
:102A50002ED12968FF3291430A006979A8790A4387
:102A600007215B02084018436B7A31319B071843FA
:102A7000EB79DB000B4018430123297A4B40F82106
:102A80009B0118432B7949051B060B4003436360E8
:102A90002260216891420DD16068084A1040C01A36
:102AA00043425841064B40421840064BC01870BD87
:102AB0000548FCE70348FAE7B7CC0D10FFFEFFFF1F
:102AC000FDFF3DFF0300C2000100C20010B5041E5F
:102AD00004D1FF210748490001F002FE8023626A09
:102AE0001B0613436362606A034BC00F0138184032
:102AF00010BDC046B7CC0D100300C20010B5041EB7
:102B000003D10749074801F0EBFD802362681B06EB
:102B1000134363606068044BC00F0138184010BD58
:102B20004E020000B7CC0D100300C20070B50400C7
:102B30000D00002803D12449244801F0D1FD0222D0
:102B4000AB799343012B04D0A5212048C90001F0A3
:102B5000C7FD0222EB799343012B03D01C491B488C
:102B600001F0BEFD1B4B1B682F331A78012A26D1BA
:102B700069897F230800984323D10720AB79490254
:102B800003400B43697A313089070B43E979C90067
:102B900001400B43297A4A40920113431A000E491F
:102BA0000A409A420DD16262606A0840801A43422C
:102BB00058410A4B40421840094BC01870BD0948A3
:102BC000FCE70948FAE7C04627050000B7CC0D101E
:102BD00029050000E0AD0208DBFEFFE0FDFF3DFF40
:102BE0000300C2000200C2000100C20070B505006F
:102BF0000C00002803D12F492F4801F071FDA37963
:102C0000032B03D92D492C4801F06AFDE379032BEE
:102C100003D92B49284801F063FD2379073B182B82
:102C200004D9AF212448C90001F05AFD254B1B6887
:102C30002F331A78012A36D161897F2308009843FF
:102C400033D10720A379490203400B43617A313025
:102C500089070B43E179C90001400B43217A4A40BF
:102C6000F821920113432279490512060A401343C1
:102C70001A0015490A409A4217D1FF232068984349
:102C8000030060796A6003432B60286898420ED184
:102C900068680840801A434258410C4B4042184033
:102CA0000B4BC01870BD0B48FCE70B48FAE708480F
:102CB000F8E7C04675050000B7CC0D10760500009A
:102CC00077050000E0AD0208DBFEFFFFFDFF3DFFE2
:102CD0000300C2000200C2000100C20010B5041EC1
:102CE00003D10B490B4801F0FBFC0B4B1B682F3346
:102CF0001B78012B0AD18023626A1B06134363628F
:102D0000606A064BC00F0138184010BD0448FCE74C
:102D1000BD050000B7CC0D10E0AD02080300C200F5
:102D20000200C20010B5041E03D10B490B4801F08C
:102D3000D7FC0B4B1B682F331B78012B0AD1802348
:102D400062681B06134363606068064BC00F01385E
:102D5000184010BD0448FCE716060000B7CC0D1063
:102D6000E0AD02080300C2000200C20070B504001A
:102D70000D00002803D12149214801F0B1FC2B7836
:102D8000032B03D91F491E4801F0AAFC6B78032BC3
:102D900003D91D491A4801F0A3FC1C4B1B682F33B3
:102DA0001A78012A26D1A9887F230800984323D1C5
:102DB00007202B78490203400B43E978313089071B
:102DC0000B436978C90001400B43A9784A4092013E
:102DD00013431A000E490A409A420DD16262606A9A
:102DE0000840801A434258410A4B404218400A4B5F
:102DF000C01870BD0948FCE70948FAE7560800000A
:102E0000B7CC0D105708000058080000E0AD0208CC
:102E1000DBFEFFE0FDFF3DFF0300C2000200C20039
:102E20000100C20070B504000D00002803D1214943
:102E3000214801F055FC2B78032B03D91F491E486C
:102E400001F04EFC6B78032B03D91D491A4801F0A1
:102E500047FC1C4B1B682F331A78012A26D1A988FE
:102E60007F230800984323D107202B784902034091
:102E70000B43E978313089070B436978C900014079
:102E80000B43A9784A40920113431A000E490A40A5
:102E90009A420DD1626060680840801A43425841EE
:102EA0000A4B404218400A4BC01870BD0948FCE765
:102EB0000948FAE7A7080000B7CC0D10A8080000E1
:102EC000A9080000E0AD0208DBFEFFE0FDFF3DFFCA
:102ED0000300C2000200C2000100C20010B5041EBF
:102EE00003D10B490B4801F0FBFB0B4B1B682F3345
:102EF0001B78012B0AD18023626A1B06134363628D
:102F0000606A064BC00F0138184010BD0448FCE74A
:102F1000EB080000B7CC0D10E0AD02080300C200C2
:102F20000200C20010B5041E03D10B490B4801F08A
:102F3000D7FB0B4B1B682F331B78012B0AD1802347
:102F400062681B06134363606068064BC00F01385C
:102F5000184010BD0448FCE744090000B7CC0D1030
:102F6000E0AD02080300C2000200C20070B5040018
:102F70000D00002803D12149214801F0B1FB2B7835
:102F8000032B03D91F491E4801F0AAFB6B78032BC2
:102F900003D91D491A4801F0A3FB1C4B1B682F33B2
:102FA0001A78012A26D1A9887F230800984323D1C3
:102FB00007202B78490203400B43E9783130890719
:102FC0000B436978C90001400B43A9784A4092013C
:102FD00013431A000E490A409A420DD16262606A98
:102FE0000840801A434258410A4B404218400A4B5D
:102FF000C01870BD0948FCE70948FAE7A8090000B5
:10300000B7CC0D10A9090000AA090000E0AD020824
:10301000DBFEFFE0FDFF3DFF0300C2000200C20037
:103020000100C20070B504000D00002803D1214941
:10303000214801F055FB2B78032B03D91F491E486B
:1030400001F04EFB6B78032B03D91D491A4801F0A0
:1030500047FB1C4B1B682F331A78012A26D1A988FD
:103060007F230800984323D107202B78490203408F
:103070000B43E978313089070B436978C900014077
:103080000B43A9784A40920113431A000E490A40A3
:103090009A420DD1626060680840801A43425841EC
:1030A0000A4B404218400A4BC01870BD0948FCE763
:1030B0000948FAE7F9090000B7CC0D10FA09000039
:1030C000FB090000E0AD0208DBFEFFE0FDFF3DFF75
:1030D0000300C2000200C2000100C200094B1B68CD
:1030E0002F331B78012B0AD18023426A1B0613431E
:1030F0004362406A044BC00F0138184070470348D0
:10310000FCE7C046E0AD02080300C2000200C200B6
:10311000094B1B682F331B78012B0AD1802342688F
:103120001B06134343604068044BC00F013818402E
:1031300070470348FCE7C046E0AD02080300C20048
:103140000200C200036810B5020080241B0500D4F1
:10315000403C82239B00D3580020DB05DB0DA342BB
:1031600003D090239B00D150013010BD0368802014
:103170001B0500D440387047F0B5050085B00C0041
:103180001600002800D177E1002900D174E10B7806
:10319000022B03D94821B94801F0A2FA637B023B14
:1031A000062B03D94921B54801F09AFAA37B002BDD
:1031B00006D0023B012B03D94A21B04801F090FA16
:1031C000A31CDB7F012B03D94B21AC4801F088FA0B
:1031D000230028331B78012B03D94C21A74801F089
:1031E0007FFA2378012B00D93AE108236268083A74
:1031F00093429B415B42002B03D04E219F4801F03C
:103200006FFAA368053B042B03D94F219B4801F0BB
:1032100067FA6369FF2B03D95021984801F060FADF
:10322000A369FF2B03D95121944801F059FAA37CDB
:10323000002B0CD02378002B05D1A368092B02D1D9
:10324000A37B002B03D053218C4801F049FA8C4B0F
:10325000626B1A4203D05521884801F041FA894B2C
:10326000E26B1A4203D05621844801F039FA2378E0
:10327000022B03D10022A37F934201D063685A1E20
:10328000237F0021581E834118040823A768BB42EE
:10329000494107331A4080239B0413430343C90267
:1032A0000B432B602800276BFFF760FF874203D397
:1032B0006B21724801F014FA2800A76BFFF756FF44
:1032C000874203D36C216D4801F00AFA2800676A2F
:1032D000FFF74CFF874203D36D21684801F000FAE5
:1032E000C022217892040B0613402B64607FE76AAA
:1032F000431E984183010093A37C07205A1E9341EB
:10330000227C9B020193531E9A411302627C02931A
:10331000531E9A415302F02203937B1E12031B0497
:103320001340627B013A02401343A27B2930120111
:1033300002401A43009B1A43019B1A43029B1A4303
:10334000039B1A43AA64207B431E9841E37B00023F
:10335000002B00D08DE002394B4259414B02A2684C
:10336000511E0F2211400143C020194380002950F3
:10337000FF21A36909041B040B406169C9B20B4317
:10338000C42189006B502B581A400332974201D355
:10339000102F03D98321394801F0A2F90021E37FDE
:1033A00022788B4203D0531E59424B411902072009
:1033B0003027637B013A013B0340A07B000138408A
:1033C00003430B436B64237B0F20591E8B4119026F
:1033D000A368013B03400B4351424A41120413438B
:1033E0008022FF219200AB50236B05320B40FF324D
:1033F000AB50631CDB7F5F1EBB415F06A31CDB7F02
:10340000013B584243411806230028331B78013BF7
:103410005A4253411A04636A0B403B43034313432C
:103420002B65A36B626B194081239B00E950164BFF
:1034300030001340154AAB50E36B154A1340154A50
:10344000AB5000239E4209D01800134A7360B3604A
:103450003360F36033623363F362726305B0F0BDCF
:103460000023A27F9A4200D1C5E663685A1E062354
:10347000BEE680239B0072E70848EFE7FACC0D1008
:1034800092F4FFFF8CF8FFFF6D0B0000C80F0000E7
:1034900073070000880F0000EFCDAB000160AA00A9
:1034A000036810B50400002B07D0012001F00EF9CD
:1034B0002368013B2360002B01D0002010BD014890
:1034C000FCE7C0460200B200030A08704B70030C10
:1034D000000E8B70C870704770B504000D00002896
:1034E00041D000293FD0002B3DD05A62F922032160
:1034F000D20083588B4383502B68DBB2012B03D956
:1035000057311A4801F0ECF8AB68DBB2032B03D952
:103510005B21164801F0E4F86B68072B03D95C21A6
:10352000124801F0DDF8EB68DBB2012B03D95D2115
:103530000E4801F0D5F8C022E021AB6892011B03D0
:1035400013406A68C90212040A4013430122296821
:1035500000200A4080211343EA68490412060A4009
:103560001343236070BD0248FCE7C04641CD0D10F7
:103570000400B20010B50400012907D9A0210748B2
:1035800001F0AEF801232268134304E00029F9D1C9
:10359000012203689343236010BDC04641CD0D1046
:1035A00070B54E1EF3B204001500012B07D9042993
:1035B00025D0082927D0E521154801F091F8032DE1
:1035C00003D9E621124801F08BF8072E14D83000F9
:1035D00004F0FEF9041312171212121B80231B01B0
:1035E000E418002C08D0C0222D0492022368154054
:1035F000084A13401D43256070BD8823EFE7032A66
:10360000DFD89023EBE7032ADBD89823E7E7C0460F
:1036100041CD0D10FFFFFCFFF0B5160089B00593FA
:103620000EAB04CB01901B780291049310AB1D7874
:10363000331FDBB20392129CFA2B04D83E213B4885
:10364000FF3101F04DF8049B043BDBB2FA2B04D8A8
:103650009F213648490001F043F86B1E012B08D921
:10366000FB222B1F134204D040213048FF3101F0D0
:1036700037F8119B2D02DF07039B3604002B46D041
:10368000059B002B04D1A0212848490001F028F80F
:10369000049BFF2B04D142212448FF3101F020F884
:1036A000F0231B011D40636A0793C0239B021E4049
:1036B000029B2B4333433E0C00270024C0221F43B0
:1036C000019B20001F650727049B92021B041340E7
:1036D0001D43039B9C4202D2154B984201D109B075
:1036E000F0BD019B5B6C3B40032B0CD8059B039901
:1036F0001B5D01342B4332008C4200D20022134365
:10370000019AE4B2136507A8FFF7CAFEE1E7F023C8
:103710001B011D40636A3F0C0793C0239B021E40A0
:10372000029B2B4333433E00C7E7C04641CD0D10FB
:103730000200B200F7B50193043BDBB205000F00B5
:103740001600099CFA2B04D8D5211648490000F030
:10375000C7FF002E21D007226B6C1340032B1ED80D
:103760008023C021721EDB0292B21A43019B8902A0
:103770001B040B4013432B65381E0DD0089B27609C
:10378000F922A660E36102230020A361D200A958B8
:10379000013B0B436660AB50FEBD0348FCE70348AA
:1037A000FAE7C04641CD0D100400B2000100B2009E
:1037B000F7B50193043BDBB205000F001600099C2E
:1037C000FA2B04D89C211648890000F089FF002EAE
:1037D00022D007226B6C1340032B1FD88023C021FB
:1037E000721E92031B03920B1A43019B89021B0456
:1037F0000B4013432B65381E0DD0089BE760F92260
:103800006661236204230020A361D200A958023B11
:103810000B432661AB50FEBD0248FCE70248FAE7C5
:1038200041CD0D100400B2000100B200F0B51F0040
:10383000043BDBB28FB006000D001400FA2B03D856
:103840005B495C4800F04CFF002C00D1ABE0072244
:10385000736C1340032B00D9A7E0631E9B039A0BE4
:1038600080231B031343C0223F04920217401F43CF
:103870003765281E0ED0149B00205B6A07950393C2
:10388000042309940C900A930A9B042B02D14A4BFF
:10389000984201D10FB0F0BD099B079C0093330003
:1038A000C43301931D680F231D40009B9D4200D926
:1038B0001D00002D17D1009B07940993002B0CD1FC
:1038C000F92202210320D200B3588B43B3500A904F
:1038D0000C9B002B01D00C9B9847009B03A80993DD
:1038E000FFF7DEFDD0E7082D0AD13700D83738685A
:1038F0002100FFF7E9FD3868211DFFF7E5FD05E030
:10390000012D09D13300D0331B682370009B64194B
:103910005B1B0093019BC5E7022D06D13300D43316
:103920001B6823701B0A6370F0E7032D0AD1330074
:10393000D4331B6823701B0A63703300D0331B68B9
:10394000A370E3E73700D83738682100042DD4D0BE
:10395000052D06D1FFF7B8FD3300D0331B68237166
:10396000D4E7062D08D1FFF7AFFD3300D4331B6831
:1039700023711B0A6371C9E7072D0CD1FFF7A4FD62
:103980003300D4331B6823711B0A63713300D033B7
:103990001B68A371BAE7FFF797FD3868211DFFF791
:1039A00093FD0825B2E7054874E7054872E7C0466D
:1039B000CD02000041CD0D100200B2000400B200A3
:1039C0000100B20000290CD00722436C1340032BE6
:1039D00009D8C023013989B21B03194301650020AE
:1039E00070470248FCE70248FAE7C0460400B2000C
:1039F0000100B20000230B604B608B600B61CB6059
:103A00004B618B61802302681B0613430360704780
:103A100030B58B6987B0DB680C001500002B0FD028
:103A200019681A79012303932378C9B20293FF23FB
:103A30000193002304950093FFF7EEFD07B030BD1E
:103A40000048FBE78000B20070B5160000220400B9
:103A5000080086B00A9D039204951900037800922D
:103A60000293FF23200001931300FFF7D5FD0028E8
:103A700006D103000095012231002000FFF7D6FE99
:103A800006B070BD30B50F24012385B08D696C443C
:103A90002370AB6A002B0BD01B680092DBB22200B4
:103AA000FFF7D2FF002803D12378AA6B13402370BD
:103AB0002078431E9841C0B205B030BDF0B587B044
:103AC00017000C9A05000C001E00FFF7A1FF00284C
:103AD00012D1A3690122DB6B022B00D013000392E9
:103AE00022780C99029200220491009301923B00EB
:103AF00031002800FFF790FD07B0F0BD0023F0B5BE
:103B00008F6989B00D00F96A07AC06000292238024
:103B100099425FD03A6B9A425CD0BB6A002B59D075
:103B20001B68096812680593029BC9B2039104924D
:103B3000009322000B002900FFF786FF00282FD1F9
:103B40006B46FF6B1B7C0493402F1ED0802F29D027
:103B5000022F41D16B46029A1B7D29000092300052
:103B60002200FFF771FF00281AD10D22029B04A941
:103B700000935218039B29003000FFF765FF0028CF
:103B80000ED163781F43677002E023781F432770CC
:103B90002200029B0093049B29003000FFF78EFF58
:103BA00009B0F0BD0D22029B04A900935218039B9B
:103BB00029003000FFF748FF0028F1D18023627808
:103BC0005B4213430D226370029B04A900935218B9
:103BD000049BE1E70148E3E70148E1E78000B20028
:103BE0000300B200F0B51F008B6989B01C6A0500A4
:103BF000002C47D0002A47D0586A0E9EB04243D3CB
:103C00004869C6B24869002800D10E782168207939
:103C1000C9B207911099029604910021039161792C
:103C200001911B6807990093130002002800FFF719
:103C3000F3FC002824D1A1684B1C12D12169002972
:103C400004D02800FFF7BEFE002819D1109A237D6A
:103C500001920F9A3900009228000E9AFFF76AFD30
:103C60000EE0109B227B0493FF23039001930090AE
:103C70000300C9B202962800FFF7CEFC0028DDD071
:103C800009B0F0BD0148FBE70148F9E78000B20048
:103C90000400B200F0B5CDB006000C1E06920893E9
:103CA00003D1C449C44800F01BFD00230BAF656B72
:103CB0003B80BB70089A06993000FFF771FC002D1D
:103CC00003D1BE4A10004DB0F0BD2B682A79D9B29D
:103CD000529B3000049300230393069B02936B795D
:103CE0000193032300933B00FFF796FC021EE9D1EA
:103CF00029693000FFF766FE021EE3D152992B7D41
:103D00000CAD01910090FF3229003000FFF750FD0B
:103D1000021ED7D1529B5E6AA94B5299886903282B
:103D200012D09A42CED0002E0CD00120013E00F0DD
:103D3000CDFC3200531E9A41A24B52421A40A04B76
:103D4000D218E9E73200E8E7002ABBD12B78532BE1
:103D5000B7D16B78462BB4D1AB78442BB1D1EB788B
:103D6000502BAED12B79052BABD96B79012BA8D178
:103D7000297BA3686D18AD7806956D080540012D67
:103D800000D8B1E0022D00D1ADE00F251F278E082D
:103D90000936B6004CA880190138FF380068BC46C7
:103DA000054001356D00079505093D40079F013528
:103DB0006F4309970327400A3840834D4000405B1A
:103DC000099D45430DA8256485596646280E304057
:103DD000079E013070436E0F37407C4E7F00BE5B04
:103DE00040277043606460462E0A06401038284021
:103DF000AD0400D4383F01304000013646437E43D5
:103E00000CA8A6640E1D87197D7807902802FD78FE
:103E10002D0605430798865D3543BE783604354345
:103E200064D40135ED080798656047183D002835D2
:103E30002E78012528003609B0403E7F6062B540EB
:103E40000698A5610CAD800655D502260898B043AA
:103E5000012850D0082084467F7A8C441F600027B8
:103E600060461F71079F5E713F5C7F095BD1033E17
:103E70009E6060461F262D5C35401D6102251D7524
:103E80000623E56804262B6000232B71256907981B
:103E90002E602B71E5695C362E602B714118487FCE
:103EA0006569022728602B716B710125266A012044
:103EB0006D42337137607371B560336133750526B8
:103EC000A063A06A3A310660266B037133710878EB
:103ED0004006400F052800D9F4E6E16A03F078FDBA
:103EE00065787E847878042020604EE78026033D44
:103EF0003606354397E70698400618D502260898F7
:103F0000B043012813D00A2084466E18F67A8C44F8
:103F10001E60002660461E715E712F5C7F09B742ED
:103F200001D1013EA4E7FF271E739F60A1E7102780
:103F30000698074017D06E18F67B01201E600F0010
:103F4000002658711E710E37EE5D760907D1013ECD
:103F50009E60ED5D1F2635401D6101258FE7FF2620
:103F600018739E60F5E701260698304014D00C20A7
:103F700084468C4460466E18767B1F711E605F71AC
:103F80002E5C760904D1013E9E6060462D5CE1E71F
:103F9000FF261F739E60F8E703251D60043D18711E
:103FA00058719D60186118756AE7E56335600D60AA
:103FB00088E6C046F903000094CD0D100500B2005C
:103FC0000200B200FEFF4DFF84CD0D108CCD0D1010
:103FD0000123E763336034330B6073E64023E3630C
:103FE0003F3B33600433F7E78023E363423B3360B6
:103FF0000133F1E7F0B589B002900792002800D1B3
:104000001EE1002900D11BE14B680593002B00D174
:1040100016E1002A00D113E10B680693002B00D1B2
:104020000EE10023C02603930493B602039B059A76
:104030009B00D458002C4DD023785A1E012A09D950
:104040000422043B9343DBB2002B03D06E217D4856
:1040500000F046FB237A032B03D96F21794800F047
:104060003FFBA369002B03D17021764800F038FB99
:10407000A3691B68013B032B03D97121714800F030
:104080002FFB2278501E072800D9D7E003F0A0FCB0
:104090000432D635D6D6D6388021029B09015D1868
:1040A000237A2968684F18043040394001430420BE
:1040B00029606168014226D0079902980091A169A0
:1040C000FFF7E8FD00281ED00823039A9340049AC6
:1040D0001A430492039B01330393039A069B934272
:1040E000A4D10020049B002B02D0B220000418436E
:1040F00009B0F0BD029B8821D0E7029B9021CDE75B
:10410000029B9821CAE763689B07E3D52169E068B1
:1041100003F0EEFC002903D08C214A4800F0E0FABD
:1041200023694A4A934202D95A1E134203D08D2171
:10413000444800F0D5FAFF218C466746E168A06943
:10414000B9438268036AA96021694942B943E960B9
:1041500001680320013901406069471EB84100022F
:1041600001432962002A2DD010680021471C08D085
:104170006746074080201179000609043140074353
:1041800039432964517990680904314069640021F8
:10419000471C07D08027117BC0B209043F0631407D
:1041A000384301430020A9641169814205D01F30C2
:1041B00001390140802000060843E864127D1204A2
:1041C00032402A65002B2CD019680022481C07D0E9
:1041D00080201A79C9B212040006324001430A4312
:1041E0002A665A799968120432406A660022481C8D
:1041F00007D080201A7BC9B2120400063240014366
:104200000A430021AA661A698A4205D01F31013A81
:104210000A40802109061143E9661B7D1B043340D7
:104220002B6702216268FF3111408022237A120637
:104230001B0433400A4313432B604BE7044851E708
:10424000034855E794CD0D10FFFFFCFFFFFF000072
:104250000400B200104B1B683C331B78834219D911
:10426000042910D94B1EFF3B132B13D81F231940D1
:104270000A4B8000C018C02304229B00C150403369
:10428000C250002070470723D0301940034B8000F4
:10429000C150F6E70248F5E7E0AD0208000026400D
:1042A00001004A0010B50F4B04001B683C331B781B
:1042B000834204D8A3210C48490000F011FA0B4BAB
:1042C000A400E418D0239B00E058072318400428DA
:1042D00007D1C0239B00E0581F23034080204000EB
:1042E000184310BDE0AD0208DFCD0D1000002640E0
:1042F000F7B5041E03D14649464800F0F1F9B02352
:10430000454DDB00EB58002B00DA7FE0434B226881
:104310009A4203D942493F4800F0E2F9E279236822
:10432000511E8A419B0312069B0B1343B022D200FD
:10433000AB50A3883B4FBB4204D994213548890038
:1043400000F0CEF92389384EB34203D937493148BA
:1043500000F0C6F92389A28835491B04D204D20C87
:104360000B401343334AAB50A37A01910F2B04D96E
:1043700096212848890000F0B3F9E37A0F2B03D97E
:104380002D49244800F0ACF9A389BB4203D92B493D
:10439000204800F0A5F9FF22E37A29491B011340C8
:1043A000A28912020A400F211343A27A0A40C021B7
:1043B0001343A27B890512070A401343B122D2009E
:1043C000AB50A379042B03D91E49124800F088F999
:1043D000238AB34204D999210E48890000F080F95C
:1043E000E020A379184AC0001B02A95803401748CF
:1043F00001400B43AB50238A01981B04A95803408A
:104400001348014000200B43AB50FEBD1148FCE7B0
:104410003F020000DFCD0D1000002640FFFF03002B
:1044200049020000FF1F0000FF01000051020000D0
:104430000000FF0184050000590200005A0200003C
:1044400000FF1F00630200008C050000FFF8FFFF63
:10445000FFFF00FE03004A00F7B58022B2260700E6
:104460000500324B324C1206E158F6000A43E25086
:1044700000930422A359134201D1002D35D1B1205C
:104480008023C00022582B499B050A401343235028
:104490000191002F01D0002D06D0B0228023D20040
:1044A000A1581B060B43A3500126B223DB00E3589F
:1044B000334224D1002D1DD1002F24D0B121C900B9
:1044C0006258019B1C481A4080239B051343B0226D
:1044D0006350D200A3585B005B08A350009B009A76
:1044E000E3585B005B08A350FEBD012000F0EEF82E
:1044F000013DBEE7300000F0E9F8013DD5E7002FAF
:1045000001D0002DDAD0B122C0230020D200A15862
:104510009B050B43A3508742E6D0681E8541684245
:10452000064D054B2840C018DEE7C0468C0500004C
:1045300000002640FFFFFFCF02004A00FEFFB5FF4C
:1045400070B51A4E050033680C001A002832127834
:10455000012A15D182080721100088430FD10320BA
:104560002840C00084401B68920020339B18220022
:10457000FF24844019684A4014404C401C6070BDC0
:104580005B8FDBB28B4203D17F21094800F0A8F892
:104590000720802205408020336892011B680006B6
:1045A000A4180543A400E550E9E7C046E0AD0208C1
:1045B00024CE0D100A4B70B59B680A4E10300D00CA
:1045C0008400B34209D1002904D1A0210648490042
:1045D00000F086F83059355170BD044B1859FBE78F
:1045E00000ED00E000A0020824CE0D1000000D1028
:1045F000F8B506000D00002841D04368032B03D90D
:104600003B21204800F06CF80023F05E002828DBF6
:10461000B178FFF795FF0024FF220327944600237B
:10462000F05E716883B21F40FF006646BA408901A0
:104630003140D243B940002815DB134E83089B005C
:104640009B19C026B6009F593A40114399510F4B10
:104650009A680F4B9A4202D12900FFF7ABFF200066
:10466000F8BD0C4CD8E70F263340083B074E9B089B
:104670009B009B19DE6932401143D961E7E7054C85
:10468000EDE7C04624CE0D1000E100E000ED00E0B3
:1046900000A002080100560070B5802504002D021C
:1046A000AC4205D8064B18686043FDF751FB70BD5E
:1046B000044B1868FDF74CFB034BE418F0E7C046C9
:1046C00030A1020828A102080080FFFF10B5034BAB
:1046D0001B785843FDF73CFB10BDC04634A10208CF
:1046E00070B50D00044C01001822200004F068FB96
:1046F000A56101BEFEE7C046B0A702088022054BB7
:1047000012069A64986C044BC043C0171840034BC0
:10471000C018704700002740FDFFB9FF03004600A6
:104720008022054B120198585B68DBB2002B02D047
:104730008023DB021843704700002640FEE700009C
:1047400002680A4B10B5DA6142681A6282685A62DE
:10475000C2689A620269DA6242691A6382695A63BC
:10476000C2699A63FFF7EAFF10BDC046B0A702080E
:10477000F0B51922002800D14B322A4B8A429241CF
:104780001B6852421C00A83424881D686719032541
:104790003E68AE4316433E601E68A4192768224E49
:1047A000374027601C00AA3424881E68A7193E6879
:1047B000AE4332433A601A681B4EA2181468264072
:1047C000166000280ED00020102904D9213088421C
:1047D0008041404201300F225B68196891430843D1
:1047E0001860F0BD1A00553212788A42F3D21A00CE
:1047F0005632127801208A42EDD21A0057321278CE
:1048000000188A42E7D21A005832127828008A42E9
:10481000E1D21A0059321078884280414042043077
:10482000D9E7C046E0AD0208FFFCFFFFB0235B05FF
:104830005A782120002A01D05878C0B27047B0239E
:104840005B059A89002A02D0988980B2704780203F
:104850004000FBE770B5FFF7F2FF8023184A5B00CA
:10486000984215D111680F240B0002229833186862
:104870000B6818180368A3431343036008009C30B7
:104880000B6801685B181968A1430A431A6070BD80
:104890001268B0201100C025983114680968094BCE
:1048A0004005C35861180C68AD002B4323430B60CF
:1048B00011009C3113680A689B18034A8258E5E787
:1048C000E0AD0208481800004418000070B5FFF77A
:1048D000B6FF8023184A5B00984215D111680F2457
:1048E0000B000322983318680B6818180368A34359
:1048F0001343036008009C300B6801685B1819685B
:10490000A1430A431A6070BD1268B0241100C1208F
:10491000C026983115680968640540012358691854
:104920000D68B60033432B430B6011009C311368B4
:104930000A689B182258E5E7E0AD020810B5FFF7BA
:104940007EFF8023114A5B0098420DD11368104905
:104950001A00983212681B689B181A681140C0220E
:10496000D2010A431A6010BDB0211268094B4905F3
:10497000CB581100C0209831096812688000521885
:10498000116803430B431360EDE7C046E0AD020836
:10499000FF8FFFFF1818000070B5FFF750FF80234E
:1049A000144A5B0098420DD1136813491A009832DB
:1049B00012681B689B181A6811408022D2010A43B2
:1049C0001A6070BD1268B0241100C02698311568B5
:1049D0000A4809686405235869180D68B60033430E
:1049E0002B430B6011009C3113680A689B182258F6
:1049F000E6E7C046E0AD0208FF8FFFFF4C1800005D
:104A000010B50020FDF782FF0400FFF70FFF012221
:104A10001300222801D8634263411340180010BDDF
:104A200010B5074C236831331B78002B04D1E621E5
:104A300004484900FFF754FE2368186A10BDC046B9
:104A4000E0AD02085CCB0D1030B5040085B00D0060
:104A5000042803D927492848FFF742FE6B1E012B83
:104A600007D9FB222B1F134203D024492248FFF70A
:104A700037FE234BA400E458042D01D0012D1AD198
:104A800000200FE0A3682B420BD1E36829001A68CD
:104A90005B6802920193039302A823689847194B1D
:104AA0001C606469002C04D0174B9842EAD1012D98
:104AB000E8D105B030BD022D06D1124B1B68181E7F
:104AC000F7D01C6903E01C006369002BFBD10020B8
:104AD000002CEED0A3682B4209D1E36829001A68A4
:104AE0005B6802920193039302A8236898472469A4
:104AF000EEE7C046E509000069CE0D10E6090000AA
:104B000048A8020844A80208FF004200F8B50400C3
:104B1000012803D92A492B48FFF7E2FDFFF786FE5B
:104B200085B2FFF78CFE070000208026FDF7EEFE21
:104B30007600002811D1B74211D1222D0FD880253F
:104B4000214B6D041B6824065968204B2C40CA5821
:104B50001F4D2A401443CC50F8BDB74229D0FFF76F
:104B60005FFF0500B7420FD1621E9441802362426D
:104B70005B001A40174BD21801212800FDF700FCFA
:104B8000002808D01448E7E7621E944102236242DD
:104B90001A40124BEFE70C4B1B68B4331B68EB1841
:104BA0001A68002AFCDBEB6800201B0EA02BE9D161
:104BB000D2E7222DE6D9FFF733FF0500D4E7C04640
:104BC0007F0A000069CE0D10E0AD020818F0000069
:104BD000FFFFFFFE01000030040042000100000C56
:104BE000F7B50700012803D929492A48FFF778FDBE
:104BF000FFF725FE80235B0098421CD0FDF7B1F83B
:104C0000B0230190244D254A5B05002F1AD024497A
:104C100003205958A950234A23499C5C1F226B58F2
:104C2000E4B293431A000B2313436B50FFF74EFD7E
:104C3000FFF7B2FE12E0FFF7E3FE0028DED11B4EC5
:104C40003000FEBDAF50E8220120D2009C5CFFF78F
:104C50005DFFE4B2061E0DD1FFF7FCFD1F21124AD5
:104C60000C40AB588B431C43AC50002F06D1FFF7D0
:104C700065FE3E000198FDF778F8E1E70720FFF7B1
:104C800025FDFFF723FE0020FFF740FF0600F1E7B8
:104C90005308000069CE0D1000002640307F000050
:104CA00010180000410700001CFF00000300420034
:104CB00010B5041E03D111491148FFF711FDF2226E
:104CC000104BD2011B68DB689A582260F022D20197
:104CD0009A5862600C4A9A58A2600C4A9A58E2604C
:104CE0000B4A9A5822610B4A9A5862610A4A9A58AA
:104CF000A2610A4A9B58E36110BDC046D40A000075
:104D000069CE0D10E0AD02080478000008780000BC
:104D10000C7800001078000014780000187800006B
:104D200010B5041E03D110491048FFF7D9FCF0223A
:104D30000F4B61681B68D201DB689950A1680D4A6E
:104D40009950E1680C4A995021690C4A995061695F
:104D50000B4A9950A1690B4A9950E1690A4A995046
:104D60002168E832995010BDFC0A000069CE0D1090
:104D7000E0AD020804780000087800000C7800001C
:104D8000107800001478000018780000F7B50700CC
:104D9000012803D940494148FFF7A2FC404D6B6808
:104DA000002B4AD1FCF7DDFF6B680190002B56D138
:104DB0003C4E33681A0043321278002A07D09B68B1
:104DC000E0331B68DB0602D53748FFF771FFFFF7BA
:104DD00036FD80235B00984246D1380007F0ECFB9B
:104DE000002433681A0043321278002A17D00028B2
:104DF00015D09B68E0331B68DB0610D5FFF716FD66
:104E0000294B212808D032681300B03319880723B2
:104E10004B43126A9B18DB681800FFF781FF01986B
:104E2000FCF7A3FF002C0ED16B68002B03D00821E8
:104E30000120FFF709FE2000FEBD01210800FFF759
:104E400003FE041EAED06B68002B03D002210120AC
:104E5000FFF7FAFD154B9C42EDD0154CEBE7042112
:104E60000120FFF7F1FDA3E7FFF7DAFD3368B43364
:104E70001B68C0180368002B0BDB04230D4A116963
:104E80000B431361012F02D030BF0020A8E720BFE1
:104E9000FBE70020054CA4E7AE02000069CE0D1030
:104EA00048A80208E0AD020824A802080500420054
:104EB000FF00420000ED00E0C022802006495200C1
:104EC0008B58C0059B009B0803438B508023885858
:104ED0001B0603438B507047000026407047FFF7C6
:104EE000FDFF72B6124C134DAC4209DA21686268BC
:104EF000A368043B02DBC858D050FAE70C34F3E750
:104F00000D4B0E4CA34208DA19685A680020043A87
:104F100001DB8850FBE70833F4E7094809490860DA
:104F2000BFF34F8F00F0E4F800F0F8FAFEE700005E
:104F3000A8DF0D10C0DF0D10C0DF0D10D0DF0D1089
:104F400000A0020808ED00E0FEE7FEE700B504203F
:104F50007146084202D0EFF3098001E0EFF30880C8
:104F60000430FFF7EDFBFEE770470000E02370B56B
:104F7000504C9B00E2580F23D021072013409A0089
:104F8000121989005158014066D0042958D04A4866
:104F9000002B66D1B223B1220321DB00D200E558F9
:104FA000A358A6581B0F360F0B400E4204D0A25830
:104FB000120F0A40012A01D1EA0701D4032B11D1B3
:104FC000B0233E4ADB00E558A158E658C904C90C95
:104FD00002F008FDAD03AD0B6843F101C90F0131CB
:104FE00002F000FDE0239B00E3589B069B0FD84096
:104FF000334B1860334B1C691969240A090E0131BF
:1050000002F0F0FC304BE1B21860013102F0EAFC32
:105010002E4B040018602E4B2E4918602E4BC018E2
:1050200002F0E0FCFA212D4B890018702C4BE0189F
:1050300002F0D8FC2B4B18602B4BC003186070BDDE
:10504000C021890052581F210A40112A01D0132A79
:1050500004D1802000029BE7244899E7FA20C00190
:1050600096E7012BBED1C823C0220321DB00D2006A
:10507000E558A358A6581B0F360F0B400E4204D01C
:10508000A258120F0A40012A01D1EA0701D4032BCA
:10509000A8D1C022D200A358A158A5587F221F260C
:1050A0001340090A3140584302F09CFC290C31405E
:1050B00096E7C0460000264000366E0184050000D9
:1050C00020A102080000214024A102081CA102081E
:1050D0002CA1020840420F003F420F0034A10208F9
:1050E000E703000030A1020828A1020800127A009C
:1050F00010B51B48FCF73CFEB022E0213020194CD3
:10510000D200A35889005B005B08A3506358834317
:10511000635080235B04A350134B144AE250A02237
:1051200004339201E250FF22114BE250FFF7C4FE1C
:10513000C02201215200A3588B43A350FFF714FF54
:10514000FFF714FFB0235B055A78002A02D05B7882
:10515000212B03D10022074BDA605A6010BDC046F4
:10516000A4CA0D10000026408405000001000200C2
:105170008C050000E0002340024BD86F0323184049
:105180007047C0460400214010B5FCF7EAFD07490E
:10519000074ACB6F1A40074B1343CB6710230649CE
:1051A0000A681A42FCD0FCF7E0FD10BD0400214063
:1051B000FCFF00000100FA058800214070B583055E
:1051C0000600002B04D0E8211048FF31FFF788FAD1
:1051D0000F4CFCF7C6FDE36F0500DB439B0701D1D5
:1051E000FFF7D2FFB0230B4A9B00D650E36F0A4A69
:1051F0000A491A400A4B1343E36710230A681A420C
:10520000FCD02800FCF7B1FD70BDC046ADCE0D103E
:105210000400214000002140FCFF000088002140E4
:105220000300FA0510B562B600F0A8FAFFF744FED5
:10523000C02201210A48520083580A4C8B438350F4
:10524000094A0A48FCF71EFF094A0A492000FDF7EF
:1052500093FF802322681B061343236010BDC046C2
:10526000000026400000664004CF0D10800232404E
:10527000E4AD02084CD20D1010B50020FDF756FA2F
:1052800010BD0000802310B50C4C032023602300C8
:10529000210008336360FDF779FA0948FDF7A4F8A7
:1052A000084B1B6851331B78002B02D00648FDF7D2
:1052B00013F920001830FCF70BFE10BD00C00208E7
:1052C0003CC00208E0AD0208C4CF0D1010B5044880
:1052D000044A0021121A02F0DDFEFBF705F910BDA9
:1052E0000000020800A002080022E82313B5019282
:1052F000019C9B0523430193019B090419430191E0
:10530000019B000218430123019001990B43019373
:105310000199124BD96012491868002806DB8A42AD
:1053200002D10120404216BD0132F5E78A42F8D091
:1053300001229A6000221869002803DA8A42F0D01C
:105340000132F8E78A42ECD0DB6800200193A02309
:10535000019A1B069A42E6D00198E4E70000234038
:10536000983A000010B5084B0024DB78013B012B74
:1053700007D801210800FFF7B7FF04006420FFF7FA
:105380008BF9200010BDC0469CAF0208A02270B56A
:10539000154DD200AA580400032A09D0FFF7E2FFF6
:1053A000021E05D0114B12491B68D86802F0CCFDD3
:1053B000104B1B68002B0CDA0F4A104B1048DA64B4
:1053C0000A4B1B68D96802F019FE72B607F0FCF8A8
:1053D00062B6AC239B00EC500A4B9C60236883F3BD
:1053E000088863689847FEE70000214084A102080E
:1053F00080CF0D10000126402143341200002340CD
:10540000B0CF0D1000ED00E070B50400FFF7AAFF6B
:10541000021E05D01A4B1B491B68D86802F094FD88
:10542000194B1B68002B23DA184A194B1948DA6408
:10543000134B1B68D96802F0E1FD72B6B023164A1F
:10544000164D9B001648EA50C36F164A16491A407B
:10545000164B1343C36710230A681A42FCD001207D
:10546000FFF71AF9B0239B00EC5007F0ADF862B6D5
:105470002000FFF7A3FE0020FFF788FCFBE7C046F3
:1054800084A1020880CF0D10000126402143341270
:1054900000002340B0CF0D10004000160000214056
:1054A00004002140FCFF0000880021400300FA05B1
:1054B00010B5002820D1114C11482368D96802F09A
:1054C0009DFDFFF74FFF021E04D023680D49D868E9
:1054D00002F03AFD0C4B1B68002B08DA0B4A0C4B10
:1054E0000C48DA642368D96802F088FD72B60A486D
:1054F000FFF764FE07F058F810BDC04684A102080B
:1055000038CF0D1080CF0D100001264021433412FA
:1055100000002340B0CF0D1000400016F0B589B058
:10552000FFF7B0FEFFF77EFE704C714A714B724D73
:105530001A6023682800D96802F060FD23686F4E66
:10554000D968300002F05AFD0B2320680193002334
:10555000009301226A49C06802F0F6FC236830001B
:10556000D96802F04BFD23682800D96802F046FD97
:1055700023686448D96802F041FD802002AA03A98B
:105580004000FCF7EBFA051E00D0ABE05E4E0300D6
:105590005E4A31000398FBF765F9051E00D0A1E0D3
:1055A000B278022A05D923685949D86802F0CCFCA0
:1055B000B570F021F268574B090652189A603269AB
:1055C000DA6072695218DA61B2691A62FAF758FF42
:1055D000051E38D1B378002B20D04F4A013B9B00E9
:1055E0004E4E9B58336000F035FC071E06D02368F2
:1055F000050002004A49D86802F0A6FC494A316811
:10560000494800F099FC002F08D123684748D96821
:1056100002F0F4FC01214448FDF7ACFF6842684108
:10562000FFF746FF23684248D96805AD02F0E6FC63
:10563000280001F037FD2368D96800280AD03D48CA
:1056400002F0DCFCFEE72A0023683B49D86802F040
:105650007BFCE3E7394802F0D1FC04A9287900F08B
:105660000BFD43425841FFF723FF822201203449BA
:1056700092008E588B58F605DB0B0340F60D9B19F4
:10568000002BF6D1049BAD68ED18059B1B89ED1826
:10569000FFF71CFE43425841FFF70AFF1A4B1878E8
:1056A000042819D802F094F9070703031000022117
:1056B0000020FDF7F9F82800FFF768FE236821486D
:1056C000D96802F09BFCFEE706210E20FDF7ECF8FE
:1056D0002800FFF799FEF1E723681648D96802F021
:1056E0008DFCFEE723682A001749AFE784A1020872
:1056F00030D20D101CAE020804D00D100ED00D10CB
:105700004FD00D1084D00D1048AE02089CAF020897
:10571000A0D00D1040A1020838A102085CA8020820
:1057200014D10D1020AE0208000042404AD10D10E5
:1057300067D10D108BD10D10DBD00D10B1D10D1034
:1057400000006640D8D10D10F6D10D1010B5040040
:1057500021000348FDF7F6FC0028F9D010BDC04633
:1057600000006640C221044A89005358DB05FCD082
:10577000D0239B00D05870470000664010B500F061
:1057800009F800F035F800F043F800F005F900F0F2
:105790002DF810BD80218022124BC9001B68D20554
:1057A000986810B542501A00743212880E4C1218C4
:1057B00010680440D4208001204310601C001A00AF
:1057C000723470322478127898687333A2401C784F
:1057D0000323A3401343802212061343435043582C
:1057E00010BDC046E0AD0208FF00FFFF704700009B
:1057F000054B1B681A003F321278052A03D9002195
:105800009A68024BD1507047E0AD0208140C0000BA
:1058100010B51D4C1D4A00212000FCF733FC200070
:105820001B4C1C4A0121FCF72DFC1B4A02212000C5
:10583000FCF728FC194A03212000FCF723FC184A36
:1058400004212000FCF71EFC164A05212000FCF76D
:1058500019FC154A06212000FCF714FC2000134C0B
:10586000134A0721FCF70EFC124A04212000FCF722
:1058700009FC114A06212000FCF704FC0F4A07210D
:105880002000FCF7FFFB10BD00003240C4D30D1018
:1058900080053240F8D30D1090D30D1028D30D1091
:1058A000F4D20D10C0D20D108CD20D100003324076
:1058B0005CD30D102CD40D1060D40D1094D40D10A9
:1058C00010B50A4B1B683E331B7883420BD9E0228C
:1058D0000F24074B8000C01892008358A34319433C
:1058E0008150002010BD0348FCE7C046E0AD02082F
:1058F0000000264001004A0010B50A4B1B683E33E9
:105900001B7883420CD9E0223024074B8000C0185A
:10591000920083580901A34319438150002010BD10
:105920000248FCE7E0AD02080000264001004A0002
:10593000054B06491B681A000832D26F1B689B187A
:105940001A680A401A607047E0AD0208FF00FFFFC6
:10595000074B1B68190008311A68CB6F8021D218D9
:10596000136849041B021B0A0B4313607047C046AF
:10597000E0AD0208054B06491B681A008832126820
:105980001B689B181A680A401A607047E0AD02084D
:10599000FF00FFFFFEE70000F8B596210020FEF7AC
:1059A000E7FEFEF7BDFE002801D1FEF7A7FE0120AD
:1059B000FFF716F9644B65495A6C0A40E8218901E2
:1059C0000A435A645A6C120AD2B23A2A04D15A6C67
:1059D0005F4802401143596400210800FFF78CFF23
:1059E000FFF7C8FFFFF7B4FFFFF7A2FF594D5A4C6E
:1059F0002B685A4F3D331B78002B0ED0C0268023D6
:105A0000F600A2599B053A401343A3510120FEF72B
:105A10005DFEA3595B005B08A35100210120FEF746
:105A200019FC2B683E331B78002B03D14C494D48A1
:105A3000FEF756FEE0239B00E6580F231E400AD1D6
:105A40003000FEF72FFC1223FF33984203D10121CF
:105A50003000FFF735FFB122D200A35800213B40B0
:105A60008027BF051F43A750083AA35808005B00D2
:105A70005B08A3503C4AA3585B005B08A350FEF7A9
:105A8000E9FB00210800FFF71BFFFFF773FFFFF79B
:105A90005FFFFFF74DFF00210120FEF7DBFB012137
:105AA0000020FFF70DFF00210800FEF7D3FB0021C7
:105AB0000220FEF7CFFB00210320FEF7CBFB0021E5
:105AC0000420FEF7C7FB2948FEF712FC002802D08D
:105AD0000420FFF75FFF2648FEF7BEFC002802D037
