:02000004100DDD
:1000000000C002088F240D100D000000FD240D100B
:1000100000000000000000000000000000000000E0
:10002000000000000000000000000000F9240D1096
:100030000000000000000000F9240D10F9240D104C
:10004000F9240D10F9240D10F9240D10F9240D10C8
:10005000F9240D10F9240D10F9240D10F9240D10B8
:10006000F9240D10F9240D10F9240D10F9240D10A8
:10007000F9240D10F9240D10F9240D10F9240D1098
:10008000F9240D10F9240D10F9240D10F9240D1088
:10009000F9240D10F9240D10F9240D10F9240D1078
:1000A000F9240D10F9240D10F9240D10F9240D1068
:1000B000F9240D10F9240D10F9240D10F9240D1058
:1000C00010B5064C2378002B07D1054B002B02D02E
:1000D000044800E000BF0123237010BDB4A802084B
:1000E000000000002CEA0D10044B10B5002B03D0CB
:1000F0000349044800E000BF10BDC04600000000F6
:10010000B8A802082CEA0D10F0B50F000400002674
:1001100085B0BE4201D100203EE0A0221F4BD2009C
:100120009A582378032A04D0092B02D801361034B8
:10013000EFE71B4A0A33DB0099580029F6D0D318A1
:100140005B6801AD2B71637801916B71A378290015
:10015000AB71E378A068EB7123792B7263796B72D2
:10016000E3886B8105F022FA002815D1237B290052
:10017000AB71637BA068EB71E3896B8105F0B0F92B
:10018000002809D1A06805F0A3FA002804D1A068CE
:1001900005F084FA0028C9D005B0F0BD0000214068
:1001A00044AF020870B506000024104AA3019B1852
:1001B0000F491A68A3015B181B68002A04DA01348E
:1001C000102CF2D1002070BD002BF8DB094B310060
:1001D000E518AD01280005F083F90028F3D12800C7
:1001E00005F05CFA0028EAD0EDE7C0460420244080
:1001F000242024408090000173B50E0004000025E7
:10020000B54201D1002076BD6A4623786946137055
:100210006378E0685370A3789370E378D370A38811
:10022000938005F02DFD0028EDD16A46A37969463B
:100230001370E379E0685370237A93706389938035
:1002400005F0B6FC0028DED1E06805F09BFD002833
:10025000D9D1E06805F07CFD10340028D3D10135F8
:10026000CEE773B50E0004000025B54201D1002091
:1002700076BD6A462378694613706378E0685370E8
:10028000A3789370E378D370A388938005F0DCFBA8
:100290000028EDD16A46A37969461370E379E068D6
:1002A0005370237A93706389938005F065FB00286F
:1002B000DED1E06805F056FC0028D9D1E06805F0F1
:1002C0002BFC10340028D3D10135CEE7F0B50F0058
:1002D0000400002685B0BE4202D1002005B0F0BD6A
:1002E000236801AD0193237929002B71637960693B
:1002F0006B71A379AB71E379EB71237A2B72637A1B
:100300006B7263896B8105F067FA0028E6D1237B65
:100310002900AB71637B6069EB71A37B2B72238A2D
:100320006B8105F0EFF90028D8D1606905F0FEFA7D
:100330000028D3D1606905F0D3FA18340028CDD154
:100340000136C8E730B5174B85B001930D2301ADD9
:100350002B71437804006B7183782900AB71C378EB
:10036000EB7103792B7243796B72C38880686B8160
:1003700005F01CF9002813D1237B2900AB71637BA6
:10038000A068EB71E3896B8105F0AAF8002807D11A
:10039000A06805F09DF9002802D1A06805F07EF95B
:1003A00005B030BD00C00208B02310B55B055B7816
:1003B000124C232B1BD00B212000FFF7A5FE002899
:1003C0001AD10F48FFF7EEFE002815D10A210D487B
:1003D000FFF712FF00280FD104210B48FFF741FF60
:1003E000002809D101210948FFF770FF04E020002F
:1003F000FFF7A8FF0028DED010BDC046DCCD0D10F1
:10040000D8CC0D10E4CC0D1084CD0D10C4CD0D1042
:1004100010B501210148FFF777FE10BD8CCE0D10FD
:100420000021124B124A10B5D8601C68002C06DB64
:10043000914202D10120404210BD0131F5E79142C5
:10044000F8D00121996000211C69002C03DA914247
:10045000F0D00131F8E79142ECD0A02203681206F7
:1004600000209342E8D01800E6E7C0460000234091
:10047000983A00001FB500230193D82300049B0580
:10048000C018029001AB02A80C000393FFF7C8FF4D
:10049000002801D1019B236004B010BD13B5084BA7
:1004A000C47A986801A9C0B2FFF7E4FF002803D11D
:1004B000019B9C42804116BD01204042FBE7C046A3
:1004C00044AF02081FB5064B0004C018029001ABF0
:1004D00002A801910393FFF7A3FF05B000BDC0463A
:1004E0000001003610B5034BC17A9868C0B2FFF71F
:1004F000E9FF10BD44AF02080022124B124910B5AB
:10050000D8601C68002C05DB8A4201D1012010BD97
:100510000132F6E78A42F9D001229A6000220B49A3
:100520001C69002C03DA8A42F0D00132F8E78A42D3
:10053000ECD0A0220368120600209342E7D01800F6
:10054000E5E7C04600002340983A00000094357764
:1005500010B5D42488B005930A9BA40506930B9B81
:100560000094029002AC68460194039104920793B0
:10057000FFF7C2FF08B010BD00B5064B89B000936D
:10058000029002AB6846019303910492FFF7B4FF17
:1005900009B000BD000B003510B5074C88B00094C1
:1005A000029002AC68460194039104920593FFF710
:1005B000A3FF08B010BDC046000E003500B5064BC5
:1005C00089B00093029002AB6846019303910492B4
:1005D000FFF792FF09B000BD000C003510B588B0E0
:1005E00005930A9B074C06930B9B0094029002AC68
:1005F00068460194039104920793FFF77DFF08B0CA
:1006000010BDC046000D003500B5054B89B0009304
:10061000029002AB68460193FFF76EFF09B000BD80
:10062000000A003500B5054B89B00093029002AB7B
:1006300068460193FFF760FF09B000BD0005003573
:1006400000B5064B89B00093029002AB6846019357
:1006500003910492FFF750FF09B000BD000400357C
:100660001FB5054B02900093684602AB01930391BE
:10067000FFF742FF05B000BD001000357FB5064B07
:100680000390019301A803AB029304910592FFF735
:1006900033FF07B000BDC0460011003510B5074C50
:1006A00086B00094029002AC6846019403910492D3
:1006B0000593FFF721FF06B010BDC04600120035BC
:1006C00010B5074C86B00094029002AC68460194C5
:1006D000039104920593FFF70FFF06B010BDC046CB
:1006E000000900357FB5054B0390019301A803ABCA
:1006F0000293FFF701FF07B000BDC04600060035BA
:100700007FB5064B0390019301A803AB02930491BC
:100710000592FFF7F1FE07B000BDC04600070035A7
:100720007FB5054B0390019301A803AB029304919D
:10073000FFF7E2FE07B000BD000800357FB5064BAD
:100740000390019301A803AB029304910592FFF774
:10075000D3FE07B000BDC0460002003510B5074CFF
:1007600086B00094029002AC684601940391049212
:100770000593FFF7C1FE06B010BDC046000100356D
:1007800010B58CB006930E9B0A4C07930F9B0194F7
:100790000893109B03900993119B03AC0A93129B3F
:1007A00001A80294049105920B93FFF7A5FE0CB0EB
:1007B00010BDC04600030035F0B58DB01D0012AB72
:1007C00040CB02921B780F000393002305AA04A9D3
:1007D0000493059300F03DF9041E3BD1204B3A00F1
:1007E00000930599029B049801F040FD002834DD38
:1007F000022007AA06A9FF300694079401F0AEF97B
:10080000002803D12900069800F0F4FF812007AAF0
:1008100006A9400001F0A2F9652400281ED131008C
:10082000069800F077FD041E14D108A9380000F0E6
:1008300028F9041E0ED131000B9800F063FB041E52
:1008400008D1039A29000B9800F03AF9040008989F
:1008500001F0A2FC20000DB0F0BD14246442F9E7C1
:10086000005F2D00F0B51F00002387B002910392B6
:1008700004A905AA0493059300F0EBF8041E2ED1F9
:10088000059800F07FF8040007F0E0FE051E31D067
:100890001A4B0200009305992300049801F0E6FC2E
:1008A000002822DD280001F0D1FC061E20D0010026
:1008B000134800F09FF8002814D00069002811D0D8
:1008C000039B220000930197029B2900FFF774FF0E
:1008D0000400300001F060FC280007F0C1FE200099
:1008E00007B0F0BD01246442F3E714246442F3E747
:1008F0000524FBE764246442F1E7C046005F2D0055
:100900009CCE0D1010B5010004000B4808F048FD06
:10091000002398420DD02100084808F041FD012332
:10092000002806D02100064808F03AFD4342434122
:100930005B00180010BDC046A3CF0D10ACCF0D104A
:10094000B8CF0D1010B5010004000B4808F028FDC9
:10095000002398420DD02100084808F021FD012312
:10096000002806D02100064808F01AFD4342434102
:100970005B00180010BDC046BDCF0D10C6CF0D10D6
:10098000CECF0D100323584380089843043070479E
:10099000F8B5C3680D000860062B21D18468124F9A
:1009A000002C01D12000F8BD266A002E06D03100AF
:1009B0000E4808F0F5FC002802D16C602468EFE7CF
:1009C00031000B4808F0ECFC002801D1AC60F5E7E1
:1009D0003100380008F0E4FC0028EFD1EC60EDE7CE
:1009E00002204042DFE7C046E5CF0D10D6CF0D1004
:1009F000DCCF0D10F0B507000D00002491B001AE62
:100A0000002D02D1280011B0F0BD296A002904D0C0
:100A1000380008F0C5FC0028F4D0AB68002B06D0E5
:100A20000E2C12D8A200955101341D00E8E72B6866
:100A3000002BFAD1002C0AD0013CA3009B591B6863
:100A4000002BF2D1002CF7D1EFE70025DAE72500E3
:100A5000D8E7F8B50E002E21170008F093FC041E0D
:100A60000CD0451C2E21280008F08CFC002805D055
:100A7000001B0138386000203560F8BD1620404268
:100A8000FBE770B5050000200C0001F06BFB2800AF
:100A900001F0DCFB002803D02100FFF779FF70BDD7
:100AA00005204042FBE7002304220133002901D145
:100AB000904203D952001D2BF7D102331800704722
:100AC000F0B589B005900C000100C24807920027DC
:100AD000FFF790FFB84200D145E18568069702957F
:100AE0000497029B002B00D08AE0EB68062B00D015
:100AF00039E12E00B84F31003800FFF77BFF079A2D
:100B0000037E9A4200D0DEE03100B448FFF772FF66
:100B10008369237029003800FFF76CFF2278037E79
:100B20009A4200D1A8E12D68002DF3D12900AC48EC
:100B3000FFF760FF002806D02300FF335B7B012B0B
:100B400001D18369A3602900A648FFF753FF00285D
:100B500008D02300FF339B7A012B03D1C3685A1EB0
:100B6000934163702900A048FFF744FF002808D094
:100B70002300FF331B7B012B03D1C3685A1E934113
:100B8000E37029009948FFF735FF002806D02300BD
:100B9000FF331B7B012B01D183692371290094480A
:100BA000FFF728FF002809D02300FF331B7E012B0D
:100BB00004D1C3685A1E9341E21CD37729008D48A3
:100BC000FFF718FF002800D1A6E0C368052B00D06E
:100BD000A2E082682300200012331530FF33FF307B
:100BE000002A00D198E01978012903D119009669EB
:100BF000F5390E700133984200D18DE01268EFE7AD
:100C000002997D48FFF7F6FE002804D0836801931F
:100C1000019B002B03D1029B1B68029361E70199A2
:100C20007648FFF7E7FE00284AD0036974491800A8
:100C3000039308F0B5FB002842D07249039808F0EE
:100C4000AFFB00283CD000266F4AB30099580398A8
:100C500008F0A6FB071E05D00136172EF4D1052794
:100C6000183E7F4201996948FFF7C4FE002801D071
:100C70008369069301996648FFF7BCFE002804D0FB
:100C8000C1698069FFF70FFF0490731C18D0049BA3
:100C9000002B15DD92227300E31852009A5C012AA2
:100CA00004D1320006990A32D20011512622FF32B5
:100CB0009B5C012B04D10A36F600049BA6197360D5
:100CC000019B1B68A3E73668002E00D012E721E7DE
:100CD0004C49380008F064FB002800D0FFE03100E8
:100CE0004A48FFF787FE002806D02300FF331B7C0D
:100CF000012B01D18369636131004548FFF77AFE1A
:100D0000002800D1EBE02300FF331B7C012B00D037
:100D1000E5E08369A361E2E029003E48FFF76AFE4F
:100D2000002817D0C368052B14D182682300200047
:100D300015331830FF33FF30002A0BD01978012902
:100D400003D119009669F5390E700133984201D02C
:100D50001268F1E729003048FFF74CFE002835D033
:100D600000278369A37005992C48FFF743FE0028EC
:100D700058D000258668002E54D031002448FFF753
:100D800039FE00280BD063191A001A32FF3212788C
:100D9000012A04D102326A439B1882699A623100A7
:100DA0001F48FFF727FE00280BD063191A001932DD
:100DB000FF321278012A04D102326A439B188269F9
:100DC0005A6202350A2D2DD03668D4E7A07007008C
:100DD000C9E7C046A3CF0D100CCF0D10C1CE0D102A
:100DE000C8CE0D10EACF0D10D2CE0D10DACE0D10F8
:100DF000E9CE0D10F0CE0D10A5CE0D10F2CF0D10D6
:100E0000AFCE0D10B4CE0D10C0A0020842D00D1010
:100E1000BCCE0D10FACE0D1007CF0D100FCF0D1058
:100E200019CF0D1005992F48FFF7E4FD051E20D0BE
:100E300001002D48FFF7DEFD00280AD02423FF33F0
:100E4000E35C012B05D1C3685A1E934122004D3249
:100E5000137029002548FFF7CDFD002809D0912304
:100E60005B00E35C012B04D1C3684C345A1E9341F0
:100E70002370380009B0F0BD29001D48FFF7BAFD06
:100E8000002800D152E68668002E00D14EE63100DF
:100E90001848FFF7AFFD002821D007691649380030
:100EA00008F07EFA002800D012E731001348FFF75F
:100EB000A1FD002806D02300FF339B7B012B01D12D
:100EC0008369E36031000E48FFF794FD002806D0E7
:100ED0002300FF33DB7B012B01D18369236136685B
:100EE000D2E7C0461FCF0D102BCF0D1037CF0D10FE
:100EF000A5CE0D10F2CF0D10AFCE0D1042D00D10BB
:100F0000BCCE0D10F8B507000C000100BA48FFF781
:100F100071FDBA4E051E2AD001003000FFF76AFDB0
:100F2000002808D0230068331B78012B03D1006907
:100F3000FFF708FD20702900B148FFF75BFD00288E
:100F400008D0230069331B78012B03D10069FFF718
:100F5000D9FC60702900AB48FFF74CFD002806D093
:100F600023006A331B78012B01D18369A3703900F8
:100F7000A548FFF73FFD051E2AD001003000FFF70E
:100F800039FD002808D023006B331B78012B03D1D7
:100F90000069FFF7D7FCE07029009948FFF72AFDA8
:100FA000002808D023006C331B78012B03D1006983
:100FB000FFF7A8FC207129009248FFF71BFD0028CD
:100FC00006D023006D331B78012B01D18369637137
:100FD00039008E48FFF70EFD051E00D184E00100A8
:100FE0003000FFF707FD002808D023006E331B7880
:100FF000012B03D10069FFF7A5FCA07129008048EF
:10100000FFF7F8FC002808D023006F331B78012B72
:1010100003D10069FFF776FCE07129007948FFF7FA
:10102000E9FC002806D0230070331B78012B01D186
:101030008369237229007648FFF7DCFC002808D07A
:10104000230071331B78012B03D1C3685A1E9341CF
:10105000637229006F48FFF7CDFC002808D02300F9
:1010600072331B78012B03D1C3685A1E9341A372BC
:1010700029006948FFF7BEFC002808D0230073331D
:101080001B78012B03D1C3685A1E9341E3722900D8
:101090006248FFF7AFFC002808D0230074331B78A8
:1010A000012B03D1C3685A1E9341237329005C4866
:1010B000FFF7A0FC002808D0230075331B78012B14
:1010C00003D1C3685A1E9341637329005548FFF743
:1010D00091FC002808D0230076331B78012B03D124
:1010E000C3685A1E9341A37339004F48FFF782FC2F
:1010F000050001003000FFF77DFC002808D0230028
:1011000077331B78012B03D10069FFF71BFC207498
:1011100029003C48FFF76EFC002808D023008C33E0
:101120001B78012B03D12300826964331A702900D4
:101130003E48FFF75FFC00282AD000268768002F72
:1011400026D039003A48FFF755FC00280AD0A319E9
:101150001A0078321278012A04D1023272439B18A5
:1011600082695A6139003348FFF744FC00280AD0ED
:10117000A3191A0079321278012A04D1023272437B
:101180009B1882699A6102360A2E01D03F68D6E721
:1011900029002948FFF72EFC00282BD00025032723
:1011A0008668002E26D031002148FFF723FC002856
:1011B0000AD063191A0082321278012A04D13A0047
:1011C0006A439B188269DA6331001A48FFF712FC00
:1011D00000280AD063191A0083321278012A04D138
:1011E0003A006A439B1882691A6402350A2D01D0BD
:1011F0003668D6E70020F8BD49CF0D104DCF0D1051
:1012000058CF0D1060CF0D1064CF0D1067CF0D10AB
:101210006ECF0D1076CF0D1095CF0D1053D00D1051
:101220005DD00D1064D00D107BCF0D107FCF0D1051
:1012300019CF0D10BCCE0D108DCF0D1070B5040060
:101240000D0086B00021142201A807F03DFA290004
:101250002000FFF7CFFB0400002C18D021001C4811
:10126000FFF7C8FB0028F7D00569002D0AD0194EFA
:101270002900300008F094F800280BD1310001A8B3
:1012800008F098F8210001A8FFF7B4FB0400200043
:1012900006B070BD104E2900300008F081F800281B
:1012A000ECD029000D4808F07BF80028E6D00C4E61
:1012B0002900300008F074F80028DFD02900094820
:1012C00008F06EF80028DDD121000748C1E7C046CC
:1012D000F2CF0D101AD00D1003D00D100AD00D1042
:1012E00012D00D10F7CF0D10FDCF0D1010B5FFF778
:1012F00081FB0124002809D08168002906D0044818
:10130000FFF778FB002801D0C468E4B2200010BDCC
:101310009BCF0D10F0B5050085B000200C0000F04B
:1013200021FF280000F092FF0190002800D14BE23D
:101330000100A148FFF75EFB051E00D0B4E00123C9
:101340005B42009301999D48FFF754FB051E00D0B6
:10135000EEE001235B42009301999948FFF74AFBB5
:10136000051E00D03EE101235B42009301999548A0
:10137000FFF740FB071E00D122E2934E0100300030
:10138000FFF75CFF390005003000FFF7AFFF0600F4
:10139000002D00D1F6E12869FFF7D4FA2300773356
:1013A00020741E70894E39003000FFF747FF390066
:1013B00005003000FFF79AFF002D00D1E6E1230081
:1013C000AA6964331A702833187039008048FFF70F
:1013D00011FB051E00D1E6E101007E48FFF72EFF5C
:1013E000290006007B48FFF781FF0390002E00D103
:1013F000D0E1B369029329007748FFF71FFF290066
:1014000006007548FFF772FF002E00D1C7E1B669EC
:10141000230022002100143378323C31029D5E60AB
:101420001D606D462D7B0833507015700232994255
:10143000F4D139006948FFF7DDFA061E00D1BFE19B
:10144000644F01003800FFF7F9FE31000500380055
:10145000FFF74CFF0390002D00D1A8E1AB69029388
:101460005D4F31003800FFF7E9FE3100050038001C
:10147000FFF73CFF002D00D19EE1AD692300220063
:101480003C338232643402995D6019606946097B9D
:101490000833507011700232A342F4D1019800F069
:1014A0007BFE009805B0F0BD474F01003800FFF704
:1014B000C5FE290006003800FFF718FF0700002EC0
:1014C0002FD03069FFF73EFA2300683320701F7079
:1014D0000023434F290038000093FFF7AFFE290097
:1014E00006003800FFF702FF0700002E1CD030690D
:1014F000FFF708FA2300693360701F70334F29002B
:101500003800FFF79BFE290006003800FFF7EEFECB
:10151000002E00D113E7B369A37023006A3318705B
:1015200010E701235B42D4E701235B420093E5E728
:10153000254F01003800FFF781FE29000600380022
:10154000FFF7D4FE0700002E2DD03069FFF7FAF91F
:1015500023006B33E0701F70214F29003800FFF724
:101560006DFE290006003800FFF7C0FE0700002EC0
:101570001DD03069FFF7C6F923006C3320711F704E
:10158000124F29003800FFF759FE290006003800E5
:10159000FFF7ACFE002E00D1DBE6B36963712300D8
:1015A0006D331870D8E601235B420093D4E7012322
:1015B0005B420093E4E7C04649CF0D1064CF0D10A5
:1015C00067CF0D107BCF0D104DCF0D1060CF0D10DC
:1015D0007FCF0D1019CF0D10BCCE0D108DCF0D107B
:1015E00058CF0D107A4F01003800FFF727FE290071
:1015F00006003800FFF77AFE0700002E00D1A1E0B8
:101600003069FFF79FF923006E33A0711F70714F8F
:1016100029003800FFF712FE290006003800FFF706
:1016200065FE0700002E00D190E03069FFF76AF9EF
:1016300023006F33E0711F70674F29003800FFF7F8
:10164000FDFD290006003800FFF750FE002E00D1F6
:1016500080E0B36923722300703318705F4F290054
:101660003800FFF7EBFD290006003800FFF73EFECB
:10167000002E73D0F3685A1E9341637223007133B6
:101680001870574F29003800FFF7D8FD29000600D1
:101690003800FFF72BFE002E64D0F3685A1E9341EA
:1016A000A3722300723318704E4F29003800FFF7E1
:1016B000C5FD290006003800FFF718FE002E55D0A2
:1016C000F3685A1E9341E372230073331870464F38
:1016D00029003800FFF7B2FD290006003800FFF7A7
:1016E00005FE002E46D0F3685A1E93412373230053
:1016F000743318703D4F29003800FFF79FFD290013
:1017000006003800FFF7F2FD002E37D0F3685A1EAE
:1017100093416373230075331870354F29003800E7
:10172000FFF78CFD290006003800FFF7DFFD002ED3
:1017300000D118E6F3685A1E9341A3732300763351
:10174000187013E601235B42009360E701235B42BC
:10175000009371E701235B4200937FE701235B4223
:1017600000938EE701235B4200939DE701235B42D8
:101770000093ACE701235B420093BBE701235B428C
:101780000093CAE701235B4200930BE601235B420F
:1017900000931AE601235B42029600932BE6012395
:1017A0005B42009334E601235B42009341E6012350
:1017B0005B420295009353E601235B4200935DE692
:1017C00001235B42009369E605235B42009368E6D0
:1017D0004DCF0D1058CF0D1060CF0D106ECF0D10E6
:1017E00076CF0D1095CF0D1053D00D105DD00D108C
:1017F00064D00D10F0B5050085B000200C0000F09D
:10180000B1FC280000F022FD0190002800D181E108
:101810000100C248FFF7EEF8051E00D13AE1C04FC3
:1018200001003800FFF70AFD290006003800FFF725
:101830005DFD002E00D109E1B36923702300FF3361
:1018400058720023B74F290038000093FFF7F6FCC9
:10185000290006003800FFF749FD002E00D1F8E00E
:10186000F3685A1E934163702300FF339872AE4FA2
:1018700029003800FFF7E2FC290006003800FFF7D6
:1018800035FD002E00D1E8E0F3685A1E9341E37065
:101890002300FF331873A54F29003800FFF7CEFC53
:1018A000290006003800FFF721FD002E00D1D8E006
:1018B000B369A3602300FF3358739D4F290038009C
:1018C000FFF7BCFC290006003800FFF70FFD002ED3
:1018D00000D1CAE02200B369FF32DBB223779074F3
:1018E0006377D074A3771075924F29003800FFF703
:1018F000A5FC290006003800FFF7F8FC002E00D1F7
:10190000B7E02200B369FF32DBB2611CE3775075A8
:10191000CB77A11C9075CB77D075874E290030000E
:10192000FFF78CFC290007003000FFF7DFFC002FD9
:1019300000D1A2E0FB685A1E9341E21CD37723003A
:10194000FF33187601997D48FFF754F80600002F01
:1019500000D19FE023000122794FFF3301009A73E9
:10196000DA731A745A743800FFF768FC3100050006
:101970003800FFF7BBFC0390002D00D181E0AB697C
:101980000293704F31003800FFF758FC310005001A
:101990003800FFF7ABFC002D00D177E0AD692200E5
:1019A00021002300253209315033FF32FF31029EDE
:1019B0005D601E606E46367B0833167050700232D2
:1019C0008B42F4D101996048FFF714F8061E00D14C
:1019D0006DE05E4F01003800FFF730FC310005007C
:1019E0003800FFF783FC0390002D57D0AB690293BA
:1019F000544F31003800FFF721FC3100050038005A
:101A0000FFF774FC002D4ED0AD69220023002100A9
:101A100019322433FF324C31029E5D601E606E46E7
:101A2000367B08335070167002329942F4D1019916
:101A30004748FEF7DFFF051E3DD101235B420093BF
:101A4000019800F0A9FB009805B0F0BD01235B42AE
:101A5000F8E601235B42009309E701235B42009310
:101A600019E701235B42009327E701235B420093C0
:101A70003AE701235B4200934FE701235B42009367
:101A800060E701235B42029500937AE701235B4202
:101A9000009384E701235B42009393E701235B42B9
:101AA00002950093A4E701235B420093ADE7012375
:101AB0005B420093BBE7274F01003800FFF7BEFBF6
:101AC000290006003800FFF711FC002E1ED0F36835
:101AD0005A1E934122004C32137091235B00E05454
:101AE0001D4F29003800FFF7A9FB29000600380028
:101AF000FFF7FCFB002EA0D0F3685A1E9341220092
:101B00004D3213702423FF33E05499E701235B42E5
:101B10000093E5E705235B42009394E7A3CF0D1004
:101B20000CCF0D10EACF0D10D2CE0D10C8CE0D1077
:101B3000F0CE0D10FACE0D10E9CE0D10A5CE0D1081
:101B400042D00D10BCCE0D100FCF0D1019CF0D10BF
:101B50001FCF0D1037CF0D102BCF0D107FB5DC230D
:101B60009B0500936C46002302AD01950290154839
:101B70006B60C460144C0668002E07DBA34203D1DF
:101B80000120404204B070BD0133F4E7A342F7D016
:101B90000123836000230669002E03DAA342EFD0FD
:101BA0000133F8E7A342EBD0A02300981B0698422C
:101BB00001D00098E6E7029B002013606B680B6081
:101BC000E0E7C04600002340983A0000F0B5170057
:101BD0008A22434C9200A544079008910EA8002148
:101BE000BFB2099306F070FD0CAA0BA93800FEF7EE
:101BF000A5FD00260500B0422CD1C02280210B9B00
:101C0000D2051A40C9058A4237D10C9BDC1DE40875
:101C100020000D9406F01AFD0925061E1AD00100B9
:101C20000DAB22003800FEF799FD051E12D16B4660
:101C3000198C102304930293079B079A3033019366
:101C4000284B40320392009332000D9B0EA8FEF702
:101C500097FD0500300006F003FD002D05D1202280
:101C600009990EA8FEF7ECFC05000EA8FEF7DAFCB9
:101C7000280099239B009D44F0BD1B4A934207D145
:101C80000C9B5C0809230134E4085C433B34BFE748
:101C9000164A934203D10C9BDC082934B8E7144A56
:101CA000934205D103240C9BDB085C435A34AFE715
:101CB000104A934205D103240C9BDB085C434A3451
:101CC000A6E70D4A1B0C1B0493429ED00B4A04004E
:101CD00093429DD10C9BDC1DE4081234640097E70D
:101CE0009CFDFFFF0901202200000170000001603F
:101CF000000002700000026000000370000003603A
:101D000010B5017804000A00303AD3B2092B1FD86D
:101D100011000A0161780B00303BD8B2092824D8A1
:101D20009918A27809011300303BD8B209282AD8A3
:101D30005A18E378120118003038C1B28018092906
:101D400005D91900413905292BD8373B981810BD02
:101D50000B00413B052B01D83739DAE70B00613B1B
:101D60000020052BF3D85739D3E70B00413B052B57
:101D700002D837398918D4E70B00613B0020052BC6
:101D8000E5D85739F6E71300413B052B02D8373A1F
:101D90005218CEE71300613B0020052BD7D8573AE5
:101DA000F6E71900613900200529D0D8573BCDE767
:101DB000F7B50B7807004E1C222B0FD00026554B91
:101DC00019603000FEBD02331A780130222A08D093
:101DD000002A06D05C2AF6D00133F5E73300002054
:101DE000F2E74D4B1B6898470190041E07D1019EF6
:101DF000E7E7721C5C2B13D0237001341600337894
:101E0000222B01D0002BF4D1002323703378223B06
:101E10005A425341F618019B3B610423FB60D0E713
:101E200073786E2B17D007D8611C622B0CD0662BF1
:101E30000FD0237001340AE0742B0ED0752B0ED016
:101E4000722BF6D10D23F4E7082323700C00013226
:101E5000D4E70C23F9E70A23EBE70923E9E7B01CF1
:101E6000FFF74EFF2D4B2E49C3180500721D8B4204
:101E7000EDD90028EBD02B4BC3188B4227D8B37970
:101E80005C2BE4D1F379752BE1D130000830FFF7FA
:101E900037FF3200214B2249C3180B328B42D6D870
:101EA000214BAD021D4080238005800D05435B0260
:101EB000ED181E4BE11C9D4223D803234C1E3F20EE
:101EC00080212840494201432170AD0910E07F285C
:101ED00009D8012301341648611EC05C013B05434B
:101EE0000D70E418B3E7134B9842E2D80223023492
:101EF0003F20802128404942013C01432170AD0927
:101F0000E9E73F20802328405B420343E370AD09AB
:101F10000423D3E7D0A8020820A102080024FFFF71
:101F2000FF0300000028FFFF00FC0F00FFFF000080
:101F3000A3D10D10FF070000002803D00378013B58
:101F40001F2B00D970470130F6E70000064B10B593
:101F50001B6828209847041E03D02822002106F081
:101F6000B3FB200010BDC04620A10208F0B505005B
:101F700087B00E1E01D1002413E004227549300001
:101F800007F027FA002803D10223EB60341D08E094
:101F900005227149300007F01CFA002804D1E860DE
:101FA000741D200007B0F0BD04226C49300007F01A
:101FB00010FA002806D101230122EB600023AA6158
:101FC000EB61E3E73378222B05D131002800FFF7DE
:101FD000EFFE0400E5E71A00303AD2B22D2B01D013
:101FE000092A1AD8340000E0013423781A00303A64
:101FF000092AF9D92D2BF7D0A71B3A0031006846E2
:1020000006F059FB00236A466846D35506F0B0FA3D
:102010000323A861E961EB60C3E75B2B37D1563B33
:10202000EB60701CFFF788FF037804005D2B01D183
:102030000134B6E7FFF78AFF061EA8609BD0200098
:10204000FFF77AFF01003000FFF790FFFFF774FF02
:102050000400002C00D18EE723782C2B04D05D2BBC
:10206000E6D03F4B1C6086E7FFF770FF051E00D1EE
:1020700081E730604660601CFFF75EFF01002800CA
:10208000FFF774FFFFF758FF2E000400E1E77B2BFA
:102090005DD1753BEB60701CFFF74EFF03780400C9
:1020A0007D2BC5D0FFF752FF061EA86000D162E766
:1020B0002000FFF741FF01003000FFF779FEFFF736
:1020C0003BFF002800D156E70024336934613362B6
:1020D00003783A2B02D0224B186062E70130FFF7F9
:1020E0002BFF01003000FFF741FFFFF725FF040041
:1020F000002C00D13FE723782C2B02D07D2B97D0EA
:10210000AFE7FFF723FF051E00D134E730604660DC
:10211000601CFFF711FF01002800FFF749FEFFF7E1
:102120000BFF002800D126E700242B692C612B62CD
:1021300003783A2BCFD10130FFF7FEFE01002800D3
:10214000FFF714FFFFF7F8FE2E000400D0E7044B62
:102150001E6010E7AAD10D10AFD10D10B5D10D1032
:10216000D0A802080849094A002803D1084B0B608F
:10217000084B07E00368002B00D1054B0B60436858
:10218000002BF5D01360704720A102081CA10208A3
:102190004D860D1061860D10F8B58026040076007E
:1021A000002C00D1F8BDE3682768334204D1A06851
:1021B000002801D0FFF7F0FFE3680B4D334204D154
:1021C0002069002801D02B6898478022E36892009C
:1021D000134204D1206A002801D02B6898472000C0
:1021E0002B6898473C00DBE71CA10208F7B5050007
:1021F0000E000192FFF7AAFE0023134F04003B607C
:1022000098420CD02800FFF797FE01002000FFF74E
:10221000ADFE051E05D12000FFF7BEFF0024200003
:10222000FEBD019B002B0AD0FFF786FE0378050058
:10223000002B04D02000FFF7AFFF3D60EEE7002E3B
:10224000EDD03560EBE7C046D0A80208002210B5FB
:102250001100FFF7CBFF10BD0300093B0122042B47
:1022600002D920384242424110007047F0B50025A3
:10227000170006002C0089B003930E9B02901B0CE4
:10228000DBB204930E9B00911B0ADBB205930E9BFD
:10229000DBB20793731C069333780193002B08D0AD
:1022A000009B002B22DB029A731C9B1A009A9A4215
:1022B0001CDA0E9BDBB2002B00D1B4E0019A9A42EB
:1022C00000D0AEE0009B002B06DB029A731C9B1A29
:1022D000009A934200DDA4E0B31C7678032D00D968
:1022E000A1E0280005F070FE8989637B0198FFF763
:1022F000B3FF002839D1079B019A9342D9D04F4EA2
:102300001100300007F03EF8031E08D1049B019A2B
:1023100093420BD0059B93426FD133003F33032D83
:1023200023D8280005F050FE0510233533003E3336
:10233000F5E7002F06D0039A94425ED23F4A9B1ADB
:102340009B003B55012510E0621C002F0BD0039928
:102350008A4252D239493C195B1A2178181101433B
:102360001B012170BB5414000225069E92E7621CDB
:10237000002F0BD003998A423FD230493C195B1A97
:102380002178981001439B012170BB541400032550
:10239000EBE7002F08D0039A94422ED227493A192E
:1023A0005B1A11780B43137001340025DDE71D0023
:1023B000002E22D0009B002B22DB029B009AEB1AFE
:1023C0009A421DDA019BB34217D1009B002B04DD1A
:1023D000029B009AEB1A93420FDC2E786B1C029A38
:1023E0009D1A002E04D0009B002B11DBAB420FDAAC
:1023F000002F18D03B5D002B15D00124644219E05A
:102400003000FFF729FF0028DCD02E780135CFE718
:102410003000FFF721FF0028EFD0029B5E5D013501
:10242000DFE7002DE9D1039B9C42E6D2002F01D0CB
:1024300000233B55200009B0F0BDC046BAD10D10B5
:1024400070B508000D0014000E1E05D0731B9C42D1
:1024500003DCE043C017204070BD307801F0B0FFCE
:102460000136F3E770B500240D001600A1420AD131
:10247000200070BD01F0B0FFC0B2285501340A2819
:10248000F6D00D28F4D0B442F4DBF1E77047FFF743
:10249000FDFF72B6124C134DAC4209DA2168626836
:1024A000A368043B02DBC858D050FAE70C34F3E7CA
:1024B0000D4B0E4CA34208DA19685A680020043A02
:1024C00001DB8850FBE70833F4E709480949086055
:1024D000BFF34F8F00F0E4F801F03AFEFEE7000092
:1024E00038EA0D1050EA0D1050EA0D1060EA0D1098
:1024F00000A0020808ED00E0FEE7FEE700B50420BA
:102500007146084202D0EFF3098001E0EFF3088042
:10251000043005F0E9F8FEE770470000E02370B5ED
:10252000504C9B00E2580F23D021072013409A0003
:10253000121989005158014066D0042958D04A48E0
:10254000002B66D1B223B1220321DB00D200E55873
:10255000A358A6581B0F360F0B400E4204D0A258AA
:10256000120F0A40012A01D1EA0701D4032B11D12D
:10257000B0233E4ADB00E558A158E658C904C90C0F
:1025800005F02CFDAD03AD0B6843F101C90F01311E
:1025900005F024FDE0239B00E3589B069B0FD840E9
:1025A000334B1860334B1C691969240A090E013139
:1025B00005F014FD304BE1B21860013105F00EFD5D
:1025C0002E4B040018602E4B2E4918602E4BC0185D
:1025D00005F004FDFA212D4B890018702C4BE018F2
:1025E00005F0FCFC2B4B18602B4BC003186070BD32
:1025F000C021890052581F210A40112A01D0132AF4
:1026000004D1802000029BE7244899E7FA20C0010A
:1026100096E7012BBED1C823C0220321DB00D200E4
:10262000E558A358A6581B0F360F0B400E4204D096
:10263000A258120F0A40012A01D1EA0701D4032B44
:10264000A8D1C022D200A358A158A5587F221F2686
:102650001340090A3140584305F0C0FC290C3140B1
:1026600096E7C0460000264000366E018405000053
:1026700028A10208000021402CA1020824A1020880
:1026800034A1020840420F003F420F003CA1020863
:10269000E703000038A1020830A1020800127A0006
:1026A00010B51B4802F0CCF8B022E0213020194CC4
:1026B000D200A35889005B005B08A3506358834392
:1026C000635080235B04A350134B144AE250A022B2
:1026D00004339201E250FF22114BE25005F062FCFC
:1026E000C02201215200A3588B43A350FFF714FFCF
:1026F000FFF714FFB0235B055A78002A02D05B78FD
:10270000212B03D10022074BDA605A6010BDC0466E
:102710001CE10D10000026408405000001000200AD
:102720008C050000E0002340024BD86F03231840C3
:102730007047C0460400214010B502F07AF80749FE
:10274000074ACB6F1A40074B1343CB671023064948
:102750000A681A42FCD002F070F810BD0400214053
:10276000FCFF00000100FA058800214070B58305D8
:102770000600002B04D0E8211048FF3104F086FF4A
:102780000F4C02F056F8E36F0500DB439B0701D1C5
:10279000FFF7D2FFB0230B4A9B00D650E36F0A4AE3
:1027A0000A491A400A4B1343E36710230A681A4286
:1027B000FCD0280002F041F870BDC046F9D10D10E0
:1027C0000400214000002140FCFF0000880021405F
:1027D0000300FA05437802781B021A438378C07815
:1027E0001B0413430006184370470000F7B5A54BC0
:1027F000A54A9A58D10700D47BE00F22A34FBB68AB
:102800003D680093A24BDC6F0193009B1440073A94
:10281000141B9C4200D91C009E4E002C18D1009B1A
:102820003D60BB60002B0CD1F92201209549D200FC
:102830008B5883438B50B861FB69002B01D0FB6937
:102840009847F8230122DB008E49CA50CB58F7BDC8
:10285000082C16D12800FFF7BDFF3060281DFFF7B8
:10286000B9FF3060009B2D191B1B0093019BDC6F8F
:102870000F231C40073B1C1B009B9C42CDD91C0016
:10288000CBE7012C03D12A78834B1A60EAE7022CAC
:1028900006D12A786B781B021343804A1360E1E764
:1028A000032C07D16B782A781B0213437B4A1360F1
:1028B000AA78E9E72800FFF78DFF042CD1D030601B
:1028C000052C01D12A79DFE7062C02D12A796B7910
:1028D000E1E7072C07D16B792A791B0213436F4A72
:1028E0001360AA79D0E7281DFFF774FF0824306031
:1028F000B8E7910700D4A4E00F22644D68496C69E1
:10290000EB6808688C460240A24200D92200654963
:10291000654E002A16D1EB606C61002C0DD1F922B6
:1029200002215848D20083588B4383500320A8616A
:102930002B6A002B01D02B6A9847F8236C61DB00CF
:10294000022281E7082A19D10868070A18705F7007
:10295000070C000E9F70D8700868070A18715F7125
:10296000070C000E9F71D8719B18A41A62460F20A5
:1029700012680240A242CCD92200CAE7012A03D140
:102980004A4800681870EFE7022A04D130681870CE
:10299000000A5870E8E7032A07D130681870000A67
:1029A0005870424800689870DEE7042A08D1086829
:1029B000070A18705F70070C000E9F70D870D3E77D
:1029C000052A0BD10868070A18705F70070C000E03
:1029D000D87036489F7000681871C5E7062A0CD178
:1029E0000868070A18705F70070C000E9F70D87097
:1029F00030681871000A5871B6E7072A0FD10868C5
:102A0000070A18705F70070C000E9F70D87030684E
:102A10001871000A5871254800689871A4E70A687F
:102A2000100A1A705870100C120E9870DA700A683A
:102A3000100A1A715871100C120EDA71987108226E
:102A400092E704210A4207D00520104A9061F8223B
:102A5000D20099509B58FAE608210A4202D00B4A4C
:102A60000620F3E71020024206D00721074A9161B1
:102A7000F822D2009850EDE72020024200D1E6E68D
:102A8000024AF4E700004240CC070000E0AE020832
:102A9000080042409800424090004240940042406A
:102AA000C4004240D8004240D4004240D0004240DE
:102AB00073B5684602001E4B12CB12C262B61D49A6
:102AC00004F054FD021E05D01B4B1C491B68D8683E
:102AD00005F054FDFA221A4D92002B0019491A48AC
:102AE00003F05EFB041E1ED102000121164803F014
:102AF000C1FB2900144803F047FE0F4E134833680A
:102B0000D96805F095FD2A0011490F4804F06CFAC8
:102B1000041E08D133680F48D96805F089FD2100EB
:102B2000094803F08FFB80220B4B20001A6076BD12
:102B30004CD20D10ED270D1084A10208CBD20D1040
:102B4000E0AE0208E8DA0D10000042400BD30D1091
:102B50000CE10D1028D30D1000E100E00C4B1B68B8
:102B60009B691B68032B08D10023CB7083B21B0A1F
:102B700088704B70000C08707047042BFCD183B236
:102B8000C8701B0A000C48708B70000AF3E7C0463F
:102B900044AE0208F0B50F2787B002ABFF18002340
:102BA00016003B708B690500DA6BDB6A03921B68C9
:102BB0003A00DBB200960C0003F0A4FE021E06D021
:102BC000104B11491B68D86805F0D8FC13E06B4620
:102BD0003A781B7B1A409A420DD03200210028001F
:102BE00003F0F0FE021E08D132002100280003F09D
:102BF000A9FE0028F8D107B0F0BD024B03491B68BD
:102C0000E1E7C04684A1020854D20D1090D20D1005
:102C1000F0B589B004000E00049217221A4D0593F6
:102C2000296802A88B6912189F6ADB6A20001B685A
:102C30000096DBB203F066FE002823D1320029683B
:102C4000200003F043FE00281CD1059B0190009357
:102C50000296049B0E9A2968200003F035FF002895
:102C600010D132002968200003F06CFE0028F8D152
:102C700017223B6802A900965218DBB2296820008F
:102C800003F040FE09B0F0BD44AE020870B54B68D9
:102C9000056801229D4216D38A689B1800229D4236
:102CA00011D20C694B699C420FD20C236343CE684E
:102CB0000134F3180E685A701E705A8042685D60C5
:102CC0009A6001220C61100070BD0C235B428B6185
:102CD000F9E7000010B502006F2809D0074B08493A
:102CE00018686F23C06805F049FC1620404210BDEB
:102CF00080235B050B600020F9E7C04684A1020831
:102D000085D30D1010B50F4B02001879904215D0E5
:102D1000187E904214D018002C30047801204042D4
:102D200094420AD1033014224243101D181808603F
:102D300000209B181A6901321A6110BD0020F2E7C9
:102D40000120F0E740A1020810B5021E0BD0011FC0
:102D50000C4B0868984207D00B49137808680B4958
:102D6000C06805F00BFC10BD0B69002B07D1064BAA
:102D700012781B680649D86805F000FCF3E7013BB0
:102D80000B61F0E7EFBE0DD084A1020841D30D1016
:102D900061D30D1070B515001E00446805480C196C
:102DA000012103F04FFA32002900200000F00AF957
:102DB00070BDC04600004240F0B51500F022144F2F
:102DC00087B003933B684468DB6812060C199B18B4
:102DD000A34216D800210F4803F034FA3B6805AE31
:102DE000D8688023201A5B05C0183100FFF7B6FEB3
:102DF0000096039B2A0008490648FFF709FF07B021
:102E0000F0BD039A2900200000F072F9F7E7C046F0
:102E100044AE020800004240E0AE0208F0B51500E2
:102E2000F022254F44683B681206DB680C199B189A
:102E3000C5B0A3423AD80021204803F003FA80220B
:102E40000021520004A805F03FFC3B680020D9682F
:102E50008023641A5B052E0AE418002E14D0002883
:102E600001D045B0F0BD03AF20003900FFF776FE7A
:102E7000802300975B0004AA114910480134FFF732
:102E8000C7FEFF34013EE8E7EDB2002DE9D000288F
:102E9000E7D103AE31002000FFF760FE00962B0063
:102EA00004AA07490548FFF7B3FEDAE72900200026
:102EB00000F028F9D5E7C04644AE020800004240C1
:102EC000E0AE020810B5007800F096F910BD0130B0
:102ED00070470000431E022B15D8022808D0032893
:102EE0000BD00A4B98680860DB68002013607047BD
:102EF000064BD86908601B6AF7E7F0231B030B60D9
:102F000080235B01F1E701204042F0E740A1020885
:102F100030B589B00C00150002A903AA0190FFF793
:102F2000D9FF002811D1236805900693084B07901C
:102F300001AA18680749049500F00EF807980028C0
:102F400001D1059B236009B030BD01204042FAE762
:102F500040AF02088D2C0D10F0B500242600436808
:102F60008BB002911B6906A905A8039298470194AA
:102F7000069BB34201D80BB0F0BD059BF700DF19EB
:102F80007B68019D0893019B3A68EB1A9A4202D82C
:102F900001360195ECE707940995039907A8029B70
:102FA00098470028E7D0089B0135E418EBE70000BC
:102FB000024B036001230B607047C046C0D30D1065
:102FC000002070470B00802110B5490541181800FA
:102FD00005F071FB002010BDF0B5264CF023A54490
:102FE0000024039020001B06CB1801935B0A5B02B0
:102FF00004AF0292FD1A029AA24201D900280CD015
:103000001D4B984234D01D4B984231D0431E9841FD
:10301000400085239B009D44F0BD8022010092006A
:103020009E18019A9A421DD8029AA2421AD9039A6E
:10303000125DEA54002906D1802149055918097802
:10304000511A4A1E914101340133B342E9D100299A
:1030500004D00B4B3900F01801F0F4FC094BED18CB
:103060003300C8E7802252059A181278EA54EBE739
:103070000120CEE7ECFDFFFF0200520006005200E7
:1030800000FEFF0F00FEFFFF00207047F8B5124C56
:103090000023A1421CD91E00104C8D18AC425E4189
:1030A0000F4CA14215D91F000E4CAC425F413C00B1
:1030B0000D4FB94202D90D4FAF425B413443234318
:1030C0000124002B02D0FFF787FF04002000F8BD89
:1030D0001E0000242300F1E7FFFFFF0F0000101087
:1030E000FFFFFF1300800014FF070016000A001600
:1030F0000B00802110B5490541181800FFF7C6FFE5
:1031000010BD00008023F0B5364C5B05A544C41803
:103110006518EB05E605DB0DF60D02936B0A0393CC
:1031200033005A1E9341640AE4186B0A1B1B6402A5
:1031300027000193019B002B11D1002E2CD02A4B8C
:103140003200E418210004A805F0B5FA200001F0CF
:103150002DFC002815D0254B254AA92107E0380071
:1031600001F024FC002805D09621204B204A21485C
:1031700005F0E0F980239B00FF18019B013B0193C0
:10318000D8E73200210004A8FFF780FF002803D011
:10319000164B174AAD21EAE7029B002B1CD0802476
:1031A000A400E41A2200290004A805F084FA039B75
:1031B000580201F0FBFB002803D00C4B0C4ABA214B
:1031C000D5E72200290004A8FFF760FF002803D0FC
:1031D000064B074ABE21CAE7002085239B009D4479
:1031E000F0BDC046ECFDFFFF00FEFFFFE0D30D1079
:1031F000AED30D10E8D30D100420704710B5102287
:103200000949040005F048FA0123002808D02300EA
:1032100010332268013205D104349C42F9D10323D2
:10322000180010BD0223FBE7E0D40D1030B50D00EF
:10323000816891B0103910236A460400FFF7AAFD97
:10324000002802D0012011B030BD6846FFF7D6FF3C
:1032500028702378032B09D1A1680123AA1C1839EF
:103260002000FFF797FD431E9841ECE7A1686A1C18
:10327000203901232000FFF78DFD0028ECD0E1E785
:1032800037B50D00C0B201A9FFF73CFD01240028AD
:1032900007D129000198FFF7C9FF04000198FFF743
:1032A00053FD20003EBD0000F7B501206946FFF741
:1032B000E7FF002801D0FF20FEBD01AC2100022065
:1032C000FFF7DEFF0028F6D12078A678234C6B4666
:1032D000220019789D785F7812322378002B01D074
:1032E0008B422FD16378002B01D083422AD1A3785F
:1032F000002B01D0AB4225D1E378002B01D0B342A3
:1033000020D12379002B1BD1154B164A1B68D86896
:103310006379022B06D0144A032B03D0134A042BE3
:1033200000D0134A134905F029F96079831E022B56
:10333000C2D9BC21104B114AFF31114805F0FAF8EF
:10334000BB42E1D006349442C7D1054B0D481B68FF
:10335000D96805F06DF90120AEE7C046F0D40D1034
:1033600084A1020807D50D1002D50D101ED50D1031
:103370000CD50D1025D50D103BD50D104DD40D10CD
:1033800083D40D10BBD50D10F0B597B01CAB1B78D6
:1033900004931378302B12D19378022B0FD1002392
:1033A000D7780693D4196379B91D2479C918039184
:1033B000022C04D1FC1855780434A54226D01020E4
:1033C00017B0F0BD0599671B8C46A4449444614630
:1033D00009792037F1550134A542F3D1002403992E
:1033E000C91A52189C420BD16B461C8A402302001A
:1033F00001930096203B0B492000FDF7A9F8DFE779
:10340000E11A155D403175540134EBE7202B00DDE6
:1034100020233D00202F00DD2025791B002406AE4F
:103420000591D9E709000610002803D1044B1B7F42
:103430001800704700230128FAD1014BDB7FF7E722
:1034400044AF0208F0B5F7B00500029111A8594940
:1034500017000493FDF704F900284CD17C9B002B46
:103460003FD100242B89EA689B180393039BA34256
:1034700014D9039B049E1B1B9E4200D91E003300DF
:103480003A0021000298FFF785FC002833D1320072
:10349000390011A8FDF7F2F800282ED008AB202241
:1034A00009A911A8FDF7FAF8002824D17E9B002B6A
:1034B00004D0202209A9180005F0FDF8EB682C893A
:1034C00007ADE4182A00042321000298FFF762FCEC
:1034D000002810D1384B2A889A4210D0012040424F
:1034E00009E07D9B002BBCDD1A007C9911A8FDF73B
:1034F000C5F80028B5D077B0F0BDA419B6E76B8841
:1035000001251B1905930434039004906D42059B1B
:103510009C4205D3049B002BE0D003980138EAE7D6
:1035200008AF04233A0021000298FFF733FC00287B
:10353000E1D13B787E88102B17D1202ECED1211DD2
:10354000330011AA0298FFF725FC0028D3D13200DE
:1035500011A909A805F0A0F80028BFD10123049300
:1035600008AB5B880433E418D1E7012B04D17F98C2
:10357000FFF75AFF0500F3E7222BF1D13300483B58
:10358000B82BABD8211D330011AA0298FFF702FC1B
:103590000028A3D1EDB27B8811AA0095202109A8AB
:1035A0000125FFF7F1FE6D420028D9D101230393D5
:1035B000D6E7C0460900000107690000F7B507001B
:1035C000002401262000FFF782FC01A9C0B2FFF70A
:1035D00099FB3500011E0AD12C2363430B4A019845
:1035E000D2182023FFF7D6FB0500681E85410198FD
:1035F000FFF7AAFB002D04D0012C00D13D002800CC
:10360000FEBD012CFBD03400DCE7C046D4A8020884
:1036100073B50C00C0B201A91500FFF773FB0126BA
:10362000002807D12A0021000198FFF7F7FB0600C8
:10363000701E86410198FFF787FB300076BD0000C1
:1036400030B52C244443254B87B01C192368050052
:10365000013301D101202FE02369DB06FAD4FFF703
:1036600036FC05A9C0B2FFF74DFB03000120002B7B
:1036700023D11B4BA27A1B789A42EBD12000FCF796
:103680000DFF0028E6D1174B22689A4217D18023FC
:1036900002900190009003955B00134A0599200069
:1036A000FFF7D0FE00280AD10598FFF74DFB200058
:1036B000FCF718FF431E9841404207B030BD002D73
:1036C00004D0059800218268FFF7A8FB074B2A0069
:1036D0001B680749D86804F051FFBBE7D4A802086B
:1036E00044AF02083DB8F39644AD020884A1020835
:1036F000E4D70D100023F0B5AC4CAD4AAD4FA54456
:10370000012013603B60FFF79BFFAB4B04001B796C
:1037100001200393FFF788FE002C45D1A74BC2B2CE
:10372000DB6C03995E6880235B05F518A44BF618E3
:10373000300013ABFEF74AFA041E35D105A8FCF79A
:10374000D1FF80219F4A890005A8FCF7D9FF05A970
:103750000B20FCF7E5FF041E26D1102313AA9A497B
:103760000B20FCF7ADFF0123041E3B601CD1954AE2
:103770000B211BA8FCF700FF041E15D1102217A96E
:103780001BA8FCF71BFF041E0ED1202204AB0193E3
:1037900000922DAB31001BA8FCF720FF049B040016
:1037A000202B10D001246442824B1B68002B05D0D3
:1037B0000B20FCF729FF002800D004002000D323B1
:1037C0009B009D44F0BD0028EED1020004AB2DA962
:1037D0001BA8FCF7E1FE041EE6D107AE33002DAABC
:1037E00013CA13C3794F126831A91A603800102226
:1037F00004F061FF05A90C20FCF792FF041ED3D151
:103800001023320070490C20FCF75AFF0122684B4C
:10381000041E1A60C8D16E496DA8FCF721FF041E72
:10382000C2D18023674ADB000C211BA8EE18FCF7ED
:10383000A3FE041EB8D1102239001BA8FCF7BEFE5F
:10384000041EB1D1802704AB7F00019300972DABFC
:103850003A0031001BA8FCF7C1FE049B0400BB42E8
:10386000A0D10028A0D12D9B309E319A591C00D1A7
:1038700098E7D20600D595E7504AD26C9268B242DA
:1038800000D28FE7534A934200D08BE73A002DA92C
:103890006DA8FCF7F3FE041E00D085E78023DB0053
:1038A000F618330AF6B20393731E9E41039BFF3F43
:1038B0009B190393A0238026DB00ED187600039B61
:1038C000BB421FD9002C00D06EE7802204AB0193CD
:1038D00000962DAB520029001BA8FCF77FFE049B2D
:1038E0000400B3420BD1002805D132002DA96DA8E8
:1038F000FCF7C4FE04000135FF350137DFE7012482
:103900006442F8E7002C00D04EE704AE33002022DA
:103910000BA96DA8FCF7C2FE041E00D044E780226C
:103920005200019600922DAB29001BA8FCF756FE11
:10393000041E00D038E7020033002DA91BA8FCF7B5
:103940002BFE2D9B244A9BB20400934200D029E712
:10395000002800D028E72E9AD3B2102B00D021E700
:10396000120C202A00D01DE72FA90BA804F094FE0A
:10397000041E00D018E7379BDBB2012B00D011E703
:103980000120FFF751FD409BDAB2222A00D009E75F
:103990001B0C482B00D005E7C0B2009041AA2021A3
:1039A0000BA8FFF7F1FC0400FEE6C046B4FCFFFFE5
:1039B00038AF020834AF020844AF0208D4A80208A6
:1039C00020000010000160040100004034AD020836
:1039D000090000013DB8F396076900000023F0B527
:1039E0001D4C0700A5446946022000930193FFF790
:1039F00089F900280ED001260098002801D0FFF791
:103A0000A3F90198002801D0FFF79EF93000134B6D
:103A10009D44F0BD01A90120FFF774F90600041EC2
:103A2000E9D10098A742E7D980233D1BDB009D42E6
:103A300000D91D002B0002AA2100FFF7ABF90028D6
:103A4000D9D12B0002AA21000198FFF7B5F900286F
:103A5000D1D16419E5E7C046F4FBFFFF0C04000078
:103A6000F0B500242700654E9BB033686448D968E0
:103A700004F0DEFD33686348D96804F0D9FD624D77
:103A8000AB6A0393039BBB4257D133682200D868CB
:103A90005E4904F073FD5E4BDB78002B00D193E0B0
:103AA000002305A9022005930693FFF72BF90028B0
:103AB00020D106A90130FFF725F900281AD1554A6F
:103AC0000C2108A8FCF758FD002813D110225249F8
:103AD00008A8FCF773FD041E0CD10600AB6B013384
:103AE000FF330293059B5B680393029BB34262D949
:103AF000002C39D00598002801D0FFF725F9069849
:103B0000002801D0FFF720F9444B1B68002B02D09E
:103B10000C20FCF779FD102200213F4804F0D4FD71
:103B2000394C0021236D02209A68FFF771FD0028AF
:103B30004ED03B4B3B4A3C490FE00C237B436A6A27
:103B40002100D3189B6801201A000293FFF760FD43
:103B5000002805D0324B334A3449354804F0EAFC9A
:103B6000029B0137E4188DE7029B9D1B8023DB003D
:103B70009D4200D91D00039B2E4F99192E4B009595
:103B8000C91807AB01932A003B0008A8FCF726FDE3
:103B9000079B0400AB420BD10028A6D12B003A00B2
:103BA00031000698FFF708F90028A3D176199CE7A1
:103BB0000124644299E7002C9CD107AB22001D49E7
:103BC00008A8FCF7E9FC95E72000FFF707FFA7E747
:103BD0000C23626D216D013A5343CB185A68496832
:103BE0000220511A9A68FFF713FD002803D00C4BEE
:103BF0000C4A1249B1E71BB0F0BDC04684A10208CF
:103C0000FFD50D1024D60D10D4A8020890D60D10A3
:103C100044AF02080001600434AD020838AF020866
:103C2000E0D30D10D3D50D102A0900000B090000B8
:103C30003AD60D1034A90208000400102F09000024
:103C400073B5164E164CF368626A5B0A01A901202F
:103C50000193FFF75DF9012500281AD1019B226D20
:103C6000A362F36801A95B0A02300193FFF750F9E0
:103C7000051E10D1019B206A6365FFF723F906003A
:103C8000A06DFFF71FF9331C864200D2031C5C3481
:103C90002370280076BD0125FBE7C04640A102083D
:103CA000D4A80208F0B50C266C4F89B0FB680090D0
:103CB0005C0A7443200004F0C9FC0190200004F069
:103CC000C5FC674C019B0290206563620020FFF7F2
:103CD000FEF82100C0B22031FFF714F8002814D1FB
:103CE0000130FFF7F4F82100C0B24C31FFF70AF8B9
:103CF00000280AD1210003305831FFF703F80028CB
:103D000009D0584B584A594902E0564B564A58492F
:103D1000584804F00FFCFFF793FF051E19D0564BCF
:103D2000FA681B68520A5549D86804F027FC0198C4
:103D300004F096FC029804F093FCA06DFFF704F8E1
:103D4000E06CFFF701F8206AFEF7FEFF280009B0DB
:103D5000F0BDFFF733FC051EE9D1FB68A06A5B0AE2
:103D6000984202D8626D9A4219D9434B44481B6865
:103D7000D96804F05DFC0020FFF762FC0500684292
:103D8000684100F0AFF9002D5DD1236A00995A789F
:103D90000A715B680C600393039A8A60C7E79042DC
:103DA00028D108234643626A216D08369E4226D1F7
:103DB000344E7378002BDED00C22002105A804F0CD
:103DC00083FCFFF771FA831E0500022B2BD82A4BC8
:103DD0001B68D968F378002B1ED02B4804F028FC10
:103DE000FFF788FC002830D00020FFF7E7FB051E16
:103DF0009DD1C0E7204B25481B68D968B9E718005A
:103E0000D558CB580C309D4204D01B4B20481B6822
:103E1000D968AEE70300C9E71E4804F009FC012099
:103E2000FFF70EFCDEE7012DA5D0002D01DD052DED
:103E3000DADD114B18481B68D96804F0F9FB174B01
:103E4000094A174964E7032571E7FFF709FE0028CF
:103E5000E9D0044B134A14495AE7C04640A102086E
:103E6000D4A80208E0D30D10F7D50D10260A0000E3
:103E7000220A00003AD60D1084A10208BED60D1009
:103E800003D70D1044AF0208ADD70D1035D70D1074
:103E900074D70D10BFD70D10D5D70D10E6D30D1068
:103EA000780A0000E3D50D10F709000010B50020D6
:103EB00001F000FA10BD0000802310B50C4C042066
:103EC0002360230021000833636001F00BFA0948E6
:103ED00001F020F8084B1B6851331B78002B02D0EF
:103EE000064801F093F82000183000F03DFD10BDA9
:103EF00000C002083CC0020828B1020894D80D1086
:103F000010B50448044A0021121A04F0DDFBFCF746
:103F10007FFA10BD0000020800A002080022E8237A
:103F200013B50192019C9B0523430193019B090456
:103F300019430191019B000218430123019001994B
:103F40000B4301930199124BD9601249186800285C
:103F500006DB8A4202D10120404216BD0132F5E75C
:103F60008A42F8D001229A6000221869002803DAF8
:103F70008A42F0D00132F8E78A42ECD0DB680020B8
:103F80000193A023019A1B069A42E6D00198E4E728
:103F900000002340983A000010B5084B0024DB785D
:103FA000013B012B07D801210800FFF7B7FF0400F0
:103FB000642003F045FB200010BDC04698B0020805
:103FC000A02270B5154DD200AA580400032A09D0CA
:103FD000FFF7E2FF002805D0114B12481B68D96893
:103FE00004F026FB104B1B68002B0CDA0F4A104B19
:103FF0001048DA640A4B1B68D96804F019FB72B6E2
:1040000008F052FE62B6AC239B00EC500A4B9C6059
:10401000236883F3088863689847FEE7000021401F
:1040200084A1020853D80D10000126402143341208
:104030000000234080D80D1000ED00E070B50400B2
:10404000FFF7AAFF002805D01A4B1B481B68D96848
:1040500004F0EEFA194B1B68002B23DA184A194BAF
:104060001948DA64134B1B68D96804F0E1FA72B698
:10407000B023164A164D9B001648EA50C36F164AE5
:1040800016491A40164B1343C36710230A681A4295
:10409000FCD0012003F0D4FAB0239B00EC5008F0D0
:1040A00003FE62B62000FEF761FB002003F0C2FEB3
:1040B000FBE7C04684A1020853D80D10000126403A
:1040C000214334120000234080D80D100040001618
:1040D0000000214004002140FCFF00008800214036
:1040E0000300FA0510B5002820D1114C11482368AF
:1040F000D96804F09DFAFFF74FFF002804D0236829
:104100000D48D96804F094FA0C4B1B68002B08DAB0
:104110000B4A0C4B0C48DA642368D96804F088FA1F
:1041200072B60A48FEF722FB08F0CEFD10BDC0466D
:1041300084A102080BD80D1053D80D1000012640A1
:10414000214334120000234080D80D100040001697
:10415000F0B58BB0FFF7B0FE62B600F049F903F09E
:1041600021FFC0220126784952008B58774DB34376
:104170008B502800764A774901F032FE80232A6866
:104180001B061343744C2B60744A754B754F76486D
:10419000BE601A602368D96804F04AFA236873483D
:1041A000D96804F045FA06232068019300230093A0
:1041B00032006F49C06804F0E1F923686B48D968A0
:1041C00004F036FA23686848D96804F031FA2368A5
:1041D0006848D96804F02CFA802004AA05A9400098
:1041E000FDF7BCFC02950397634D002807D103003F
:1041F000624A29000598FCF735FB002805D02368A2
:1042000002005F49D86804F0B9F9F021EA685D4B13
:10421000090652189A602A69DA606A695218DA61E6
:10422000AA691A62FCF7C0F8021E04D02368564936
:10423000D86804F0A3F90223EB56002B1FD0534A91
:10424000013B9B00524F9B583B60FEF731FC061E22
:1042500005D0236802004F49D86804F08FF94E4A10
:1042600039684E48FEF796FC002E08D123684C486A
:10427000D96804F0DDF90121484801F0E3FF236823
:104280004848D96807AF04F0D3F93800FFF70AFDB2
:10429000002805D023684448D96804F0C9F9FEE72E
:1042A0000126039B41485E602368D96804F0C0F989
:1042B000387906A9FEF70EFD00281BD1822189005E
:1042C000029B029A5B585258DB05D20B3240DB0D41
:1042D000D318002BF4D1069BBE68F618079B1B89E8
:1042E000F618FFF70DFE00280AD00221304B314AA4
:1042F000FF3102E0F6212E4B2E4A2F4804F01AF926
:104300002878042819D803F05FFE0707030310007C
:104310000221002001F098F83000FFF751FE2368D9
:104320002648D96804F084F9FEE706210E2001F042
:104330008BF83000FFF782FEF1E723681A48D9684E
:1043400004F076F9FEE7C046000026400000664013
:10435000A8AE0208F8DA0D1084A10208DCDA0D100C
:1043600040AF020880003240DCD80D10E6D80D10B6
:1043700027D90D105CD90D1044AF020898B002087F
:1043800078D90D1040A10208A3D90D107CA1020814
:1043900044AE0208DCD90D10E0AE02080000424035
:1043A00012DA0D102FDA0D1053DA0D1079DA0D1024
:1043B000E0D30D10C8D80D10A0DA0D10B1DA0D1031
:1043C00010B504002100034801F0F6FC0028F9D0E4
:1043D00010BDC04600006640C221044A89005358FF
:1043E000DB05FCD0D0239B00D0587047000066400E
:1043F00010B500F009F800F035F800F043F800F0CF
:104400001FF900F02DF810BD80218022124BC90049
:104410001B68D205986810B542501A007432128891
:104420000E4C121810680440D42080012043106004
:104430001C001A0072347032247812789868733332
:10444000A2401C780323A340134380221206134387
:104450004350435810BDC04628B10208FF00FFFF7B
:1044600070470000054B1B681A003F321278052A7E
:1044700003D900219A68024BD150704728B1020835
:10448000140C000010B5254C254A0021200000F036
:1044900029FB244A0121200000F024FB2000224CAB
:1044A000224A032100F01EFB214A0221200000F0D5
:1044B00019FB204A0321200000F014FB1E4A0421AE
:1044C000200000F00FFB1D4A0521200000F00AFB30
:1044D0001B4A0621200000F005FB1A4A0721200094
:1044E00000F000FB184C194A0021194800F0FAFAB4
:1044F000184A0121184800F0F5FA184A0421200052
:1045000000F0F0FA164A0621200000F0EBFA154AF6
:104510000721200000F0E6FA10BDC046000032403E
:10452000A4DC0D10D8DC0D108005324038DB0D10F6
:1045300070DC0D1008DC0D10D4DB0D10A0DB0D10AD
:104540006CDB0D103CDC0D10000332400CDD0D1057
:104550008000324040DD0D108002324074DD0D10CD
:10456000A8DD0D10DCDD0D1010B50A4B1B683E33C5
:104570001B7883420BD9E0220F24074B8000C01820
:1045800092008358A34319438150002010BD034873
:10459000FCE7C04628B102080000264001004A009E
:1045A00010B50A4B1B683E331B7883420CD9E022BE
:1045B0003024074B8000C018920083580901A343A0
:1045C00019438150002010BD0248FCE728B10208C1
:1045D0000000264001004A00054B06491B681A00EE
:1045E0000832D26F1B689B181A680A401A6070471D
:1045F00028B10208FF00FFFF074B1B6819000831B4
:104600001A68CB6F8021D218136849041B021B0A59
:104610000B4313607047C04628B10208054B06499A
:104620001B681A00883212681B689B181A680A40B7
:104630001A60704728B10208FF00FFFFFEE7000084
:10464000F8B59621002003F067F803F03DF8002844
:1046500001D103F029F8012003F000FB644B654908
:104660005A6C0A40E82189010A435A645A6C120ABA
:10467000D2B23A2A04D15A6C5F48024011435964BD
:1046800000210800FFF78CFFFFF7C8FFFFF7B4FF1A
:10469000FFF7A2FF594D5A4C2B685A4F3D331B78F8
:1046A000002B0ED0C0268023F600A2599B053A406D
:1046B0001343A351012002F0DDFFA3595B005B0807
:1046C000A3510021012002F069FD2B683E331B78C5
:1046D000002B03D14C494D4802F0D8FFE0239B004A
:1046E000E6580F231E400AD1300002F085FD122348
:1046F000FF33984203D101213000FFF735FFB1228B
:10470000D200A35800213B408027BF051F43A7507C
:10471000083AA35808005B005B08A3503C4AA35822
:104720005B005B08A35002F039FD00210800FFF791
:104730001BFFFFF773FFFFF75FFFFFF74DFF002140
:10474000012002F02BFD01210020FFF70DFF0021C9
:10475000080002F023FD0021022002F01FFD0021CD
:10476000032002F01BFD0021042002F017FD294860
:1047700002F068FD002802D00420FFF75FFF264802
:1047800002F028FE002802D00420FFF757FF002186
:104790000800FFF7E9FE00210800FFF701FF0021F4
:1047A000012002F0FBFC00210220FFF7DDFE0121C9
:1047B0000220FFF7F5FE2B683E331B78022B06D94B
:1047C000E22280239200A1581B060B43A3508022B3
:1047D000124B1206E15800200A430121E250E25830
:1047E0000A43E250633102F097FFFDF797FEF8BDF0
:1047F00000002740FF00FFFFFFC5FFDF28B10208D0
:1048000000002640FFFFFFCF6E06000010DE0D10F7
:104810008C05000078DE0D10400D03000C05000033
:104820000230800803D001300238FCD1C046C046B7
:104830007047EFF3108072B6704780F310887047AE
:10484000014B18607047C04628B10208C0054342BA
:104850005841C0B2704700001F4B984232D00ED969
:104860001E4B984234D01BD91D4B984226D01D4B6D
:10487000984225D01C4B98421ED01C481BE0402873
:1048800022D007D9802821D080235B009842F4D120
:10489000114810E000280DD01028EED114480AE08D
:1048A000A0231B06984205D0124B9842E5D1A020C8
:1048B000C00300E0002070470F48FCE70F48FAE70C
:1048C0000F48F8E70448F6E70E48F4E70E48F2E729
:1048D000A420C003EFE7C04606005200010000F02C
:1048E000040000F0050000F0030000F0FF0052009B
:1048F00001005000090000A0010052000200520017
:1049000003005200020050000500520070B5124B27
:104910001A683123D35C002B16D00F4B1D682C0076
:10492000B423EB582A6A944663441B68002B11DBBE
:104930000A4B1868FFF790FF6B6801229A60636862
:104940009B68002BFBD170BDE6214900044802F0B2
:104950009DFEE2E70348F6E728B1020848AE0208E8
:10496000D4E10D100200500010B50D4B1860002866
:1049700005D002230370FD33437000234380094BAD
:104980001B6850229A5C002A03D051229B5C002BAA
:1049900000D110BD4F3A0449002000F0F1FBF8E7C8
:1049A00058AE020828B10208DDA3020810B50400C1
:1049B000FFF74CFF002834D0FDF7B0FD1A4B1B4A1F
:1049C0001A605C6000229A60DA60194B1B685432EE
:1049D0009A5C002A05D180200021400008F05CF993
:1049E00020E01A6884215B58D3181A68120E1968DF
:1049F000090AFF230B400133013253430D4C5C4342
:104A00000D4B1868FA21890003F0E8FA0100200034
:104A100003F0E4FA094BC1188020400008F03CF98B
:104A200000E0074810BDC04648AE02080001001C67
:104A300028B1020860F5900028A10208980800003B
:104A40000600520070B504000D00FFF7FFFE0028BD
:104A500036D0002D36D0FDF761FD1B4B1B4A1A6086
:104A600000225A609C60DD60194B1B6852329A5CD0
:104A7000002A05D180200021400008F00DF920E037
:104A80001A6884215B58D3181A68120E1968090A2B
:104A9000FF230B400133013253430E4C5C430E4B5A
:104AA0001868FA21890003F099FA0100200003F048
:104AB00095FA0A4BC1188020400008F0EDF800E09C
:104AC000074870BD0648FCE748AE02080001000533
:104AD00028B10208C0EA210128A1020848260000E6
:104AE00006005200F8B5CE46474680B581460D0017
:104AF0001400002800D191E1002A00D190E107299B
:104B000000D902E12368012B00D903E10F23626879
:104B10009A4300D003E1237A1F22934300D003E19C
:104B2000E368032B00D904E12369012B00D905E1D7
:104B30006369012B00D906E1A369012B00D907E1C4
:104B4000E369032B00D908E1236A012B00D909E1AD
:104B5000636A012B00D90AE1A36A012B00D90BE19A
:104B6000E36A032B00D90CE1236B072B00D90DE17D
:104B70002768072D00D90EE1012F00D911E1002F80
:104B800000D113E10123AB404A4693606768072DCB
:104B900000D910E10F233A009A4300D010E1A80099
:104BA000A04B1A687D23D15C49440A686E3B1E0005
:104BB0008640B2433B40834013430B60277A072D66
:104BC00000D902E11F233A009A4300D002E1954B3D
:104BD0001A6893694946CB1ADB0952691B01D3183D
:104BE000032D00D8FBE02A1F5968D2001F209040F7
:104BF00081431F20074097400F435F60E768082DFF
:104C000000D9F7E0032F00D9F9E06800854B1A6856
:104C10007C23D15C49440A68793B1E008640B2433C
:104C20003B40834013430B602769082D00D9EBE01C
:104C3000012F03D97C497D4802F028FD4B469A6933
:104C400001231900A9408A433B40AB4013434A4625
:104C500093616769072D00D9DBE0012F03D97449FF
:104C6000724802F013FD6F487E230268D15C49440C
:104C70000A687D3B1E00AE40B446B2431F40AF40C1
:104C800017430F606A001021884690440D390A00CE
:104C90004646B240664632437F270668F75D4F447A
:104CA0003E689643A2691A40AA403243E669314001
:104CB0004646B1400A433A60016880228A5C4A4411
:104CC00016001268FF218A43206A0340606A470089
:104CD000022038400343A06A870004203840034381
:104CE000E06AC700182038400343206B40010140B0
:104CF0000B43AD00FE2189000D40AB4013433360F0
:104D000000200CBC90469946F8BD4E21494802F05F
:104D1000BDFCF7E64F21474802F0B8FCF6E650210B
:104D2000444802F0B3FCF6E65121424802F0AEFCE2
:104D3000F6E652213F4802F0A9FCF5E653213D4832
:104D400002F0A4FCF4E654213A4802F09FFCF3E69A
:104D50005521384802F09AFCF2E65621354802F017
:104D600095FCF1E65721334802F090FCF0E658211B
:104D7000304802F08BFCEFE659212E4802F086FC09
:104D8000EEE65A212B4802F081FCEDE65B21294832
:104D900002F07CFCECE6CC218900244802F076FC91
:104DA000EAE62549214802F071FCE8E60123AB4020
:104DB0004A465360EAE621491C4802F067FCE9E6EE
:104DC0001F491A4802F062FCE9E61E49174802F042
:104DD0005DFCF7E61C49154802F058FCF7E61A6836
:104DE000E8001F2181408A431F210F40874017435D
:104DF0001F6003E715490D4802F048FC02E714491B
:104E00000A4802F043FC00E71249084802F03EFC61
:104E10000EE71149054802F039FC1EE70F4870E71C
:104E20000E486EE728B1020873060000A0E20D10DC
:104E30000D0400003CE20D1031030000CD03000022
:104E4000CE0300009102000092020000F106000073
:104E5000F2060000720600000C04000001005A0077
:104E600070B505000C000B4B1A68B423D3581B18FF
:104E70001B68002B0BDA0B0C04D12404240C6C608F
:104E8000002070BD0449054802F000FCF5E7044825
:104E9000F7E7C04628B10208DE020000D4E10D1099
:104EA00001008A0070B505000C000368002B0DDAC4
:104EB000C2600B0C04D12404240CAC60002070BD33
:104EC000B1218900024802F0E1FBF4E70148F6E76E
:104ED000D4E10D1001008A0070B505000C1E0BD046
:104EE000094B1A68B423D3585B191B68002B08DAE6
:104EF000EB682360002070BDA221044802F0C6FBCD
:104F0000EEE70348F7E7C04628B1020804E30D10B6
:104F100001008A00034B1B68002B00D07047014B37
:104F20001860FBE75CAE0208F0B5C64600B50600A7
:104F3000884617001D00304B1B68002B3FD02E4BBE
:104F40001C682C2070432418FF231E002E4026606E
:104F50002A0A134063602D0CA560284B1A68312380
:104F6000D35C9E4230D2254B1B68B0229A5A7243C2
:104F7000196A8C4662442261656832229B5C9D42BC
:104F800028D21E4B1B681E6A80356D01761966613A
:104F9000A5682B0C24D12B0C27D12D042B0C1D43E1
:104FA000B560E761434623620023A361069B002BA3
:104FB00002D000229B5EA38104BC9046F0BDBE21BE
:104FC0000F4802F063FBBAE7E62149000D4802F002
:104FD0005DFBC8E7F42149000A4802F057FBD0E71F
:104FE0000949084802F052FBD5E7822189000548AB
:104FF00002F04CFBD1E7C0465CAE020828B10208C3
:105000006CE30D10D4E10D1007020000F0B58FB075
:10501000041E43D06368032B45D8E36A002B47D0B6
:10502000236B002B49D007AA1300210061C961C37B
:1050300021C921C302AD290023001433C1CBC1C152
:1050400041CB41C10821535E0CAE33801D4B1B6820
:10505000DB8E079989B25B187380089B0D930B9BBD
:105060000A980096A26AE16AFFF75EFF2B69E8687A
:10507000002200920021FFF757FF216B300002F061
:1050800075FA0022B35E002B06DB1F2213401E3A86
:105090009A4013000C4A13600FB0F0BD5B210B481F
:1050A00002F0F4FAB6E75D21084802F0EFFAB4E73F
:1050B0006121064802F0EAFAB2E76221034802F0F1
:1050C000E5FAB0E728B1020800E100E06CE30D105A
:1050D000F8B506000F0015001C00002A2DD0234B48
:1050E0001B68002B2FD0214B19682C23300058430C
:1050F00008187B43C918012633004A6893401B04F3
:10510000426896400269002A29D08F69002F28D171
:105110001268002A27DA2A681204120C13432B6043
:105120000369DD6001238B614C620469330C10D18B
:105130003204120CA2600020F8BD832149000C4803
:1051400002F0A4FACBE70821FF31094802F09EFAE9
:10515000C9E7B1218900074802F098FAE8E7064854
:10516000EAE70648E8E70548E6E7C0465CAE02081D
:105170006CE30D10D4E10D1004028A0007028A00CE
:10518000F8B507000E001500104B1B68002B0FD060
:105190000E4B1C682C2078432418236A002B0DD05A
:1051A000E369AB4210D9236AAD005E510020F8BD1F
:1051B0006821FF31064802F069FAE9E76C21FF3106
:1051C000034802F063FAEBE70248F0E75CAE02083E
:1051D0006CE30D100A028A0070B582B0040000234F
:1051E0000193002813D02369002B16D06369002B8C
:1051F00019D0236A002B1CD06269D5682B0C1ED1F4
:105200002D042D0C41D163691B6802B070BDED21E6
:105210004900264802F03AFAE5E7DC21FF3123484D
:1052200002F034FAE2E7EE214900204802F02EFABB
:10523000DFE7DE21FF311D4802F028FADCE71B041E
:105240001360136820691A4B1A68B423D3581B18CB
:105250001B68002BD4DA01A9FFF73EFE00280ED10F
:1052600001980268160CFF231340E2699A4207D99D
:105270009B00226AD358002B02D0984700E00026FA
:1052800031002069FFF7ECFDBAE763691D601B6818
:10529000636A002B05D09847002363620023A36153
:1052A000B1E7A36A002BF9D09847F7E76CE30D103C
:1052B00028B1020810B50400084B1B68002B07D06A
:1052C000064B18682C236343C018FFF785FF10BDF9
:1052D000DD214900024802F0D9F9F1E75CAE02088D
:1052E0006CE30D1070B505000C00244B1A683123D7
:1052F000D35C83423AD900293AD00B68DB0639D116
:105300003123D35C984225D21C4B1A68136AB02112
:10531000525A55435D191A4E35602368DA08002148
:10532000606803F0D1F900212800FFF799FD356886
:10533000002C15D0220000212800FFF7B3FD002823
:105340001AD10F4B18680021FFF78AFD00280ED0F4
:105350000C480CE0E62149000B4802F097F9D3E72E
:10536000E7218900084802F091F9E3E7074870BD9A
:105370000648FCE70548FAE70248F8E728B10208C2
:1053800060AE020801018A00D4E10D1003018A0019
:10539000F0B583B00D00194B1B68DE68336883429B
:1053A0002AD947091F2318400124844000290CD022
:1053B00000230193114B18680368002B09DB104C84
:1053C000002D15D0200003B0F0BDFFF732FA019098
:1053D000F0E77268BB00D3181A68144206D0A243E3
:1053E0001A6000240021FFF73BFDE9E7054CF9E7CF
:1053F0000198FFF722FAE5E7034CE3E760AE020805
:10540000030188000201880004018A000A4B1B681E
:10541000DB681A6882420DD941091F2210401E3AEA
:105420008240586889000B581A4201D1034802E0B3
:10543000034800E00348704760AE0208000188009E
:105440000101880004018A0070B504000D00144BAE
:105450001B689B6CC340DB0716D50F2D19D80F2393
:105460001A002A402904F020000301400C4800687B
:105470000A431034A402016962500269A258134021
:10548000AB420BD1002070BDA721064802F0FEF808
:10549000E3E7A821034802F0F9F8E0E70248F2E761
:1054A00028B10208D4E30D100300C20010B50400B7
:1054B000094B1B689B6CC340DB0708D5064B1B6878
:1054C0001B691034A402E3580F20184010BDC721F7
:1054D000024802F0DBF8F1E728B10208D4E30D102E
:1054E00070B505000C00002837D06389DB0B3AD17A
:1054F000A379012B01D0032B3BD1E379012B01D000
:10550000032B3CD162897F23110099430B1E3ED1AE
:10551000A17907330B40E079C000382101400B43EB
:10552000217A012041408901402001400B43520271
:1055300019490A401343627A92078021C9050A403B
:105540001343164A1A409A4223D16B626A6A13497E
:105550000A409A4219D100201CE07A21FF311048FC
:1055600002F094F8C1E7BD2149000D4802F08EF821
:10557000BEE77C21FF310A4802F088F8BDE7BE2172
:105580004900074802F082F8BCE7064802E00648F6
:1055900000E0054870BDC04600FEFF00DBFEFFE0F6
:1055A000D4E30D100300C2000100C20070B5050075
:1055B0000C00002843D06389DB0B46D1A379072B6D
:1055C00049D8E379072B4CD82379073BDBB2182B5A
:1055D0004DD862897F23110099430B1E4FD1617909
:1055E000FF33206898430143A07907230340E679FD
:1055F000F600382030400343207A012670408001B5
:1056000040263040034352021F4802401343227990
:105610001206F820400502401343627A9207802068
:10562000C005024013436B6029602A688A4228D172
:105630006A6816490A409A421FD1002022E0C2211E
:10564000FF31134802F022F8B5E7E1214900104884
:1056500002F01CF8B2E7C421FF310D4802F016F841
:10566000AFE7E22149000A4802F010F8ACE7C62192
:10567000FF31074802F00AF8ABE7064802E00648A7
:1056800000E0044870BDC04600FEFF00FFFEFFFFC3
:10569000D4E30D100300C2000100C20010B5041EC7
:1056A00009D0626A80231B0613436362636A002B7E
:1056B00007DA002010BDFF214900034801F0E6FF92
:1056C000EFE70248F6E7C046D4E30D100300C2003E
:1056D00010B5041E09D0626880231B061343636063
:1056E0006368002B06DA002010BD0349034801F06F
:1056F000CDFFF0E70248F7E74E020000D4E30D10BB
:105700000300C20070B505000C0000283AD0A37950
:10571000012B01D0032B3AD1E379012B01D0032BCC
:105720003BD1244B1A682F23D35C012B3CD16289D7
:105730007E33110099430B1E38D1A17907330B40FA
:10574000E079C000382101400B43217A012041401B
:105750008901402001400B43520217490A4013437C
:10576000627A92078021C9050A401343134A1A40FE
:105770009A421DD16B626A6A10490A409A4211D15D
:10578000002012E00E490F4801F080FFBFE7A5217D
:10579000C9000C4801F07AFFBEE70B49094801F047
:1057A00075FFBEE7094800E0094870BD0948FCE7FD
:1057B0000848FAE728B1020800FEFF00DBFEFFE020
:1057C00027050000D4E30D10290500000300C200E6
:1057D0000200C2000100C20070B505000C000028E4
:1057E0004AD0A379032B4CD8E379032B4ED82379E5
:1057F000073BDBB2182B4ED82F4B1A682F23D35CF4
:10580000012B50D162897E33110099430B1E4CD17C
:105810006179FF33206898430143A079072303404F
:10582000E679F600382030400343207A01267040A4
:105830008001402630400343520220480240134377
:1058400022791206F820400502401343627A92073B
:105850008020C00502401343194A1A409A4226D1BB
:105860006B6029602A688A4223D16A6814490A4019
:105870009A4216D1002017E01249134801F006FFA2
:10588000AFE71249104801F001FFADE710490E489B
:1058900001F0FCFEABE7AF21C9000B4801F0F6FEBA
:1058A000AAE70C4800E00C4870BD0C48FCE70B4828
:1058B000FAE70848F8E7C04628B1020800FEFF00F2
:1058C000DBFEFFFF75050000D4E30D107605000038
:1058D000770500000300C2000200C2000100C20000
:1058E00010B5041E0FD00C4B1A682F23D35C012B6C
:1058F00010D1626A80231B0613436362636A002B24
:1059000006DA002007E00549054801F0BFFEEAE796
:10591000044800E0044810BD28B10208BD0500009D
:10592000D4E30D100300C2000200C20010B5041E33
:105930000FD00C4B1A682F23D35C012B10D1626857
:1059400080231B06134363606368002B06DA002084
:1059500007E00549054801F099FEEAE7044800E040
:10596000044810BD28B1020816060000D4E30D104B
:105970000300C2000200C20070B505000C00002840
:1059800036D02378032B38D86378032B3AD8244BAE
:105990001A682F23D35C012B3BD1A2887E331100E0
:1059A00099430B1E37D1217807330B406078C00034
:1059B000382101400B43A17801204140890140205A
:1059C00001400B43520217490A401343E278920701
:1059D0008021C9050A401343134A1A409A421CD138
:1059E0006B626A6A10490A409A4210D1002011E0A5
:1059F0000E490F4801F04AFEC3E70E490C4801F07A
:105A000045FEC1E70C490A4801F040FEBFE70B48DC
:105A100000E00B4870BD0B48FCE70A48FAE7C046B7
:105A200028B1020800FEFF00DBFEFFE05608000080
:105A3000D4E30D1057080000580800000300C2000E
:105A40000200C2000100C20070B505000C00002871
:105A500036D02378032B38D86378032B3AD8244BDD
:105A60001A682F23D35C012B3BD1A2887E3311000F
:105A700099430B1E37D1217807330B406078C00063
:105A8000382101400B43A178012041408901402089
:105A900001400B43520217490A401343E278920730
:105AA0008021C9050A401343134A1A409A421CD167
:105AB0006B606A6810490A409A4210D1002011E0D8
:105AC0000E490F4801F0E2FDC3E70E490C4801F012
:105AD000DDFDC1E70C490A4801F0D8FDBFE70B48DE
