:02000004100DDD
:1000000000C002088F240D100D000000FD240D100B
:1000100000000000000000000000000000000000E0
:10002000000000000000000000000000F9240D1096
:100030000000000000000000F9240D10F9240D104C
:10004000F9240D10F9240D10F9240D10F9240D10C8
:10005000F9240D10F9240D10F9240D10F9240D10B8
:10006000F9240D10F9240D10F9240D10F9240D10A8
:10007000F9240D10F9240D10F9240D10F9240D1098
:10008000F9240D10F9240D10F9240D10F9240D1088
:10009000F9240D10F9240D10F9240D10F9240D1078
:1000A000F9240D10F9240D10F9240D10F9240D1068
:1000B000F9240D10F9240D10F9240D10F9240D1058
:1000C00010B5064C2378002B07D1054B002B02D02E
:1000D000044800E000BF0123237010BDB4A802084B
:1000E000000000005CE90D10044B10B5002B03D09C
:1000F0000349044800E000BF10BDC04600000000F6
:10010000B8A802085CE90D10F0B50F000400002645
:1001100085B0BE4201D100203EE0A0221F4BD2009C
:100120009A582378032A04D0092B02D801361034B8
:10013000EFE71B4A0A33DB0099580029F6D0D318A1
:100140005B6801AD2B71637801916B71A378290015
:10015000AB71E378A068EB7123792B7263796B72D2
:10016000E3886B8105F002FA002815D1237B290072
:10017000AB71637BA068EB71E3896B8105F090F94B
:10018000002809D1A06805F083FA002804D1A068EE
:1001900005F064FA0028C9D005B0F0BD0000214088
:1001A00044AF020870B506000024104AA3019B1852
:1001B0000F491A68A3015B181B68002A04DA01348E
:1001C000102CF2D1002070BD002BF8DB094B310060
:1001D000E518AD01280005F063F90028F3D12800E7
:1001E00005F03CFA0028EAD0EDE7C04604202440A0
:1001F000242024408090000173B50E0004000025E7
:10020000B54201D1002076BD6A4623786946137055
:100210006378E0685370A3789370E378D370A38811
:10022000938005F00DFD0028EDD16A46A37969465B
:100230001370E379E0685370237A93706389938035
:1002400005F096FC0028DED1E06805F07BFD002873
:10025000D9D1E06805F05CFD10340028D3D1013518
:10026000CEE773B50E0004000025B54201D1002091
:1002700076BD6A462378694613706378E0685370E8
:10028000A3789370E378D370A388938005F0BCFBC8
:100290000028EDD16A46A37969461370E379E068D6
:1002A0005370237A93706389938005F045FB00288F
:1002B000DED1E06805F036FC0028D9D1E06805F011
:1002C0000BFC10340028D3D10135CEE7F0B50F0078
:1002D0000400002685B0BE4202D1002005B0F0BD6A
:1002E000236801AD0193237929002B71637960693B
:1002F0006B71A379AB71E379EB71237A2B72637A1B
:100300006B7263896B8105F047FA0028E6D1237B85
:100310002900AB71637B6069EB71A37B2B72238A2D
:100320006B8105F0CFF90028D8D1606905F0DEFABD
:100330000028D3D1606905F0B3FA18340028CDD174
:100340000136C8E730B5174B85B001930D2301ADD9
:100350002B71437804006B7183782900AB71C378EB
:10036000EB7103792B7243796B72C38880686B8160
:1003700005F0FCF8002813D1237B2900AB71637BC7
:10038000A068EB71E3896B8105F08AF8002807D13A
:10039000A06805F07DF9002802D1A06805F05EF99B
:1003A00005B030BD00C00208B02310B55B055B7816
:1003B000124C232B1BD00B212000FFF7A5FE002899
:1003C0001AD10F48FFF7EEFE002815D10A210D487B
:1003D000FFF712FF00280FD104210B48FFF741FF60
:1003E000002809D101210948FFF770FF04E020002F
:1003F000FFF7A8FF0028DED010BDC0469CCD0D1031
:1004000098CC0D10A4CC0D1044CD0D1084CD0D1042
:1004100010B501210148FFF777FE10BD4CCE0D103D
:100420000021124B124A10B5D8601C68002C06DB64
:10043000914202D10120404210BD0131F5E79142C5
:10044000F8D00121996000211C69002C03DA914247
:10045000F0D00131F8E79142ECD0A02203681206F7
:1004600000209342E8D01800E6E7C0460000234091
:10047000983A00001FB500230193D82300049B0580
:10048000C018029001AB02A80C000393FFF7C8FF4D
:10049000002801D1019B236004B010BD13B5084BA7
:1004A000C47A986801A9C0B2FFF7E4FF002803D11D
:1004B000019B9C42804116BD01204042FBE7C046A3
:1004C00044AF02081FB5064B0004C018029001ABF0
:1004D00002A801910393FFF7A3FF05B000BDC0463A
:1004E0000001003610B5034BC17A9868C0B2FFF71F
:1004F000E9FF10BD44AF02080022124B124910B5AB
:10050000D8601C68002C05DB8A4201D1012010BD97
:100510000132F6E78A42F9D001229A6000220B49A3
:100520001C69002C03DA8A42F0D00132F8E78A42D3
:10053000ECD0A0220368120600209342E7D01800F6
:10054000E5E7C04600002340983A00000094357764
:1005500010B5D42488B005930A9BA40506930B9B81
:100560000094029002AC68460194039104920793B0
:10057000FFF7C2FF08B010BD00B5064B89B000936D
:10058000029002AB6846019303910492FFF7B4FF17
:1005900009B000BD000B003510B5074C88B00094C1
:1005A000029002AC68460194039104920593FFF710
:1005B000A3FF08B010BDC046000E003500B5064BC5
:1005C00089B00093029002AB6846019303910492B4
:1005D000FFF792FF09B000BD000C003510B588B0E0
:1005E00005930A9B074C06930B9B0094029002AC68
:1005F00068460194039104920793FFF77DFF08B0CA
:1006000010BDC046000D003500B5054B89B0009304
:10061000029002AB68460193FFF76EFF09B000BD80
:10062000000A003500B5054B89B00093029002AB7B
:1006300068460193FFF760FF09B000BD0005003573
:1006400000B5064B89B00093029002AB6846019357
:1006500003910492FFF750FF09B000BD000400357C
:100660001FB5054B02900093684602AB01930391BE
:10067000FFF742FF05B000BD001000357FB5064B07
:100680000390019301A803AB029304910592FFF735
:1006900033FF07B000BDC0460011003510B5074C50
:1006A00086B00094029002AC6846019403910492D3
:1006B0000593FFF721FF06B010BDC04600120035BC
:1006C00010B5074C86B00094029002AC68460194C5
:1006D000039104920593FFF70FFF06B010BDC046CB
:1006E000000900357FB5054B0390019301A803ABCA
:1006F0000293FFF701FF07B000BDC04600060035BA
:100700007FB5064B0390019301A803AB02930491BC
:100710000592FFF7F1FE07B000BDC04600070035A7
:100720007FB5054B0390019301A803AB029304919D
:10073000FFF7E2FE07B000BD000800357FB5064BAD
:100740000390019301A803AB029304910592FFF774
:10075000D3FE07B000BDC0460002003510B5074CFF
:1007600086B00094029002AC684601940391049212
:100770000593FFF7C1FE06B010BDC046000100356D
:1007800010B58CB006930E9B0A4C07930F9B0194F7
:100790000893109B03900993119B03AC0A93129B3F
:1007A00001A80294049105920B93FFF7A5FE0CB0EB
:1007B00010BDC04600030035F0B58DB01D0012AB72
:1007C00040CB02921B780F000393002305AA04A9D3
:1007D0000493059300F03DF9041E3BD1204B3A00F1
:1007E00000930599029B049801F040FD002834DD38
:1007F000022007AA06A9FF300694079401F0AEF97B
:10080000002803D12900069800F0F4FF812007AAF0
:1008100006A9400001F0A2F9652400281ED131008C
:10082000069800F077FD041E14D108A9380000F0E6
:1008300028F9041E0ED131000B9800F063FB041E52
:1008400008D1039A29000B9800F03AF9040008989F
:1008500001F0A2FC20000DB0F0BD14246442F9E7C1
:10086000005F2D00F0B51F00002387B002910392B6
:1008700004A905AA0493059300F0EBF8041E2ED1F9
:10088000059800F07FF8040007F0C0FE051E31D087
:100890001A4B0200009305992300049801F0E6FC2E
:1008A000002822DD280001F0D1FC061E20D0010026
:1008B000134800F09FF8002814D00069002811D0D8
:1008C000039B220000930197029B2900FFF774FF0E
:1008D0000400300001F060FC280007F0A1FE2000B9
:1008E00007B0F0BD01246442F3E714246442F3E747
:1008F0000524FBE764246442F1E7C046005F2D0055
:100900005CCE0D1010B5010004000B4808F028FD66
:10091000002398420DD02100084808F021FD012352
:10092000002806D02100064808F01AFD4342434142
:100930005B00180010BDC04663CF0D106CCF0D10CA
:1009400078CF0D1010B5010004000B4808F008FD29
:10095000002398420DD02100084808F001FD012332
:10096000002806D02100064808F0FAFC4342434123
:100970005B00180010BDC0467DCF0D1086CF0D1056
:100980008ECF0D10032358438008984304307047DE
:10099000F8B5C3680D000860062B21D18468124F9A
:1009A000002C01D12000F8BD266A002E06D03100AF
:1009B0000E4808F0D5FC002802D16C602468EFE7EF
:1009C00031000B4808F0CCFC002801D1AC60F5E701
:1009D0003100380008F0C4FC0028EFD1EC60EDE7EE
:1009E00002204042DFE7C046A5CF0D1096CF0D1084
:1009F0009CCF0D10F0B507000D00002491B001AEA2
:100A0000002D02D1280011B0F0BD296A002904D0C0
:100A1000380008F0A5FC0028F4D0AB68002B06D005
:100A20000E2C12D8A200955101341D00E8E72B6866
:100A3000002BFAD1002C0AD0013CA3009B591B6863
:100A4000002BF2D1002CF7D1EFE70025DAE72500E3
:100A5000D8E7F8B50E002E21170008F073FC041E2D
:100A60000CD0451C2E21280008F06CFC002805D075
:100A7000001B0138386000203560F8BD1620404268
:100A8000FBE770B5050000200C0001F06BFB2800AF
:100A900001F0DCFB002803D02100FFF779FF70BDD7
:100AA00005204042FBE7002304220133002901D145
:100AB000904203D952001D2BF7D102331800704722
:100AC000F0B589B005900C000100C24807920027DC
:100AD000FFF790FFB84200D145E18568069702957F
:100AE0000497029B002B00D08AE0EB68062B00D015
:100AF00039E12E00B84F31003800FFF77BFF079A2D
:100B0000037E9A4200D0DEE03100B448FFF772FF66
:100B10008369237029003800FFF76CFF2278037E79
:100B20009A4200D1A8E12D68002DF3D12900AC48EC
:100B3000FFF760FF002806D02300FF335B7B012B0B
:100B400001D18369A3602900A648FFF753FF00285D
:100B500008D02300FF339B7A012B03D1C3685A1EB0
:100B6000934163702900A048FFF744FF002808D094
:100B70002300FF331B7B012B03D1C3685A1E934113
:100B8000E37029009948FFF735FF002806D02300BD
:100B9000FF331B7B012B01D183692371290094480A
:100BA000FFF728FF002809D02300FF331B7E012B0D
:100BB00004D1C3685A1E9341E21CD37729008D48A3
:100BC000FFF718FF002800D1A6E0C368052B00D06E
:100BD000A2E082682300200012331530FF33FF307B
:100BE000002A00D198E01978012903D119009669EB
:100BF000F5390E700133984200D18DE01268EFE7AD
:100C000002997D48FFF7F6FE002804D0836801931F
:100C1000019B002B03D1029B1B68029361E70199A2
:100C20007648FFF7E7FE00284AD0036974491800A8
:100C3000039308F095FB002842D07249039808F00E
:100C40008FFB00283CD000266F4AB30099580398C8
:100C500008F086FB071E05D00136172EF4D10527B4
:100C6000183E7F4201996948FFF7C4FE002801D071
:100C70008369069301996648FFF7BCFE002804D0FB
:100C8000C1698069FFF70FFF0490731C18D0049BA3
:100C9000002B15DD92227300E31852009A5C012AA2
:100CA00004D1320006990A32D20011512622FF32B5
:100CB0009B5C012B04D10A36F600049BA6197360D5
:100CC000019B1B68A3E73668002E00D012E721E7DE
:100CD0004C49380008F044FB002800D0FFE0310008
:100CE0004A48FFF787FE002806D02300FF331B7C0D
:100CF000012B01D18369636131004548FFF77AFE1A
:100D0000002800D1EBE02300FF331B7C012B00D037
:100D1000E5E08369A361E2E029003E48FFF76AFE4F
:100D2000002817D0C368052B14D182682300200047
:100D300015331830FF33FF30002A0BD01978012902
:100D400003D119009669F5390E700133984201D02C
:100D50001268F1E729003048FFF74CFE002835D033
:100D600000278369A37005992C48FFF743FE0028EC
:100D700058D000258668002E54D031002448FFF753
:100D800039FE00280BD063191A001A32FF3212788C
:100D9000012A04D102326A439B1882699A623100A7
:100DA0001F48FFF727FE00280BD063191A001932DD
:100DB000FF321278012A04D102326A439B188269F9
:100DC0005A6202350A2D2DD03668D4E7A07007008C
:100DD000C9E7C04663CF0D10CCCE0D1081CE0D10EB
:100DE00088CE0D10AACF0D1092CE0D109ACE0D10F8
:100DF000A9CE0D10B0CE0D1065CE0D10B2CF0D10D6
:100E00006FCE0D1074CE0D10C0A0020802D00D10D0
:100E10007CCE0D10BACE0D10C7CE0D10CFCE0D105A
:100E2000D9CE0D1005992F48FFF7E4FD051E20D0FF
:100E300001002D48FFF7DEFD00280AD02423FF33F0
:100E4000E35C012B05D1C3685A1E934122004D3249
:100E5000137029002548FFF7CDFD002809D0912304
:100E60005B00E35C012B04D1C3684C345A1E9341F0
:100E70002370380009B0F0BD29001D48FFF7BAFD06
:100E8000002800D152E68668002E00D14EE63100DF
:100E90001848FFF7AFFD002821D007691649380030
:100EA00008F05EFA002800D012E731001348FFF77F
:100EB000A1FD002806D02300FF339B7B012B01D12D
:100EC0008369E36031000E48FFF794FD002806D0E7
:100ED0002300FF33DB7B012B01D18369236136685B
:100EE000D2E7C046DFCE0D10EBCE0D10F7CE0D10C1
:100EF00065CE0D10B2CF0D106FCE0D1002D00D10BB
:100F00007CCE0D10F8B507000C000100BA48FFF7C1
:100F100071FDBA4E051E2AD001003000FFF76AFDB0
:100F2000002808D0230068331B78012B03D1006907
:100F3000FFF708FD20702900B148FFF75BFD00288E
:100F400008D0230069331B78012B03D10069FFF718
:100F5000D9FC60702900AB48FFF74CFD002806D093
:100F600023006A331B78012B01D18369A3703900F8
:100F7000A548FFF73FFD051E2AD001003000FFF70E
:100F800039FD002808D023006B331B78012B03D1D7
:100F90000069FFF7D7FCE07029009948FFF72AFDA8
:100FA000002808D023006C331B78012B03D1006983
:100FB000FFF7A8FC207129009248FFF71BFD0028CD
:100FC00006D023006D331B78012B01D18369637137
:100FD00039008E48FFF70EFD051E00D184E00100A8
:100FE0003000FFF707FD002808D023006E331B7880
:100FF000012B03D10069FFF7A5FCA07129008048EF
:10100000FFF7F8FC002808D023006F331B78012B72
:1010100003D10069FFF776FCE07129007948FFF7FA
:10102000E9FC002806D0230070331B78012B01D186
:101030008369237229007648FFF7DCFC002808D07A
:10104000230071331B78012B03D1C3685A1E9341CF
:10105000637229006F48FFF7CDFC002808D02300F9
:1010600072331B78012B03D1C3685A1E9341A372BC
:1010700029006948FFF7BEFC002808D0230073331D
:101080001B78012B03D1C3685A1E9341E3722900D8
:101090006248FFF7AFFC002808D0230074331B78A8
:1010A000012B03D1C3685A1E9341237329005C4866
:1010B000FFF7A0FC002808D0230075331B78012B14
:1010C00003D1C3685A1E9341637329005548FFF743
:1010D00091FC002808D0230076331B78012B03D124
:1010E000C3685A1E9341A37339004F48FFF782FC2F
:1010F000050001003000FFF77DFC002808D0230028
:1011000077331B78012B03D10069FFF71BFC207498
:1011100029003C48FFF76EFC002808D023008C33E0
:101120001B78012B03D12300826964331A702900D4
:101130003E48FFF75FFC00282AD000268768002F72
:1011400026D039003A48FFF755FC00280AD0A319E9
:101150001A0078321278012A04D1023272439B18A5
:1011600082695A6139003348FFF744FC00280AD0ED
:10117000A3191A0079321278012A04D1023272437B
:101180009B1882699A6102360A2E01D03F68D6E721
:1011900029002948FFF72EFC00282BD00025032723
:1011A0008668002E26D031002148FFF723FC002856
:1011B0000AD063191A0082321278012A04D13A0047
:1011C0006A439B188269DA6331001A48FFF712FC00
:1011D00000280AD063191A0083321278012A04D138
:1011E0003A006A439B1882691A6402350A2D01D0BD
:1011F0003668D6E70020F8BD09CF0D100DCF0D10D1
:1012000018CF0D1020CF0D1024CF0D1027CF0D10AB
:101210002ECF0D1036CF0D1055CF0D1013D00D1051
:101220001DD00D1024D00D103BCF0D103FCF0D1051
:10123000D9CE0D107CCE0D104DCF0D1070B5040021
:101240000D0086B00021142201A807F01DFA290024
:101250002000FFF7CFFB0400002C18D021001C4811
:10126000FFF7C8FB0028F7D00569002D0AD0194EFA
:101270002900300008F074F800280BD1310001A8D3
:1012800008F078F8210001A8FFF7B4FB0400200063
:1012900006B070BD104E2900300008F061F800283B
:1012A000ECD029000D4808F05BF80028E6D00C4E81
:1012B0002900300008F054F80028DFD02900094840
:1012C00008F04EF80028DDD121000748C1E7C046EC
:1012D000B2CF0D10DACF0D10C3CF0D10CACF0D1045
:1012E000D2CF0D10B7CF0D10BDCF0D1010B5FFF739
:1012F00081FB0124002809D08168002906D0044818
:10130000FFF778FB002801D0C468E4B2200010BDCC
:101310005BCF0D10F0B5050085B000200C0000F08B
:1013200021FF280000F092FF0190002800D14BE23D
:101330000100A148FFF75EFB051E00D0B4E00123C9
:101340005B42009301999D48FFF754FB051E00D0B6
:10135000EEE001235B42009301999948FFF74AFBB5
:10136000051E00D03EE101235B42009301999548A0
:10137000FFF740FB071E00D122E2934E0100300030
:10138000FFF75CFF390005003000FFF7AFFF0600F4
:10139000002D00D1F6E12869FFF7D4FA2300773356
:1013A00020741E70894E39003000FFF747FF390066
:1013B00005003000FFF79AFF002D00D1E6E1230081
:1013C000AA6964331A702833187039008048FFF70F
:1013D00011FB051E00D1E6E101007E48FFF72EFF5C
:1013E000290006007B48FFF781FF0390002E00D103
:1013F000D0E1B369029329007748FFF71FFF290066
:1014000006007548FFF772FF002E00D1C7E1B669EC
:10141000230022002100143378323C31029D5E60AB
:101420001D606D462D7B0833507015700232994255
:10143000F4D139006948FFF7DDFA061E00D1BFE19B
:10144000644F01003800FFF7F9FE31000500380055
:10145000FFF74CFF0390002D00D1A8E1AB69029388
:101460005D4F31003800FFF7E9FE3100050038001C
:10147000FFF73CFF002D00D19EE1AD692300220063
:101480003C338232643402995D6019606946097B9D
:101490000833507011700232A342F4D1019800F069
:1014A0007BFE009805B0F0BD474F01003800FFF704
:1014B000C5FE290006003800FFF718FF0700002EC0
:1014C0002FD03069FFF73EFA2300683320701F7079
:1014D0000023434F290038000093FFF7AFFE290097
:1014E00006003800FFF702FF0700002E1CD030690D
:1014F000FFF708FA2300693360701F70334F29002B
:101500003800FFF79BFE290006003800FFF7EEFECB
:10151000002E00D113E7B369A37023006A3318705B
:1015200010E701235B42D4E701235B420093E5E728
:10153000254F01003800FFF781FE29000600380022
:10154000FFF7D4FE0700002E2DD03069FFF7FAF91F
:1015500023006B33E0701F70214F29003800FFF724
:101560006DFE290006003800FFF7C0FE0700002EC0
:101570001DD03069FFF7C6F923006C3320711F704E
:10158000124F29003800FFF759FE290006003800E5
:10159000FFF7ACFE002E00D1DBE6B36963712300D8
:1015A0006D331870D8E601235B420093D4E7012322
:1015B0005B420093E4E7C04609CF0D1024CF0D1025
:1015C00027CF0D103BCF0D100DCF0D1020CF0D10DC
:1015D0003FCF0D10D9CE0D107CCE0D104DCF0D107C
:1015E00018CF0D107A4F01003800FFF727FE2900B1
:1015F00006003800FFF77AFE0700002E00D1A1E0B8
:101600003069FFF79FF923006E33A0711F70714F8F
:1016100029003800FFF712FE290006003800FFF706
:1016200065FE0700002E00D190E03069FFF76AF9EF
:1016300023006F33E0711F70674F29003800FFF7F8
:10164000FDFD290006003800FFF750FE002E00D1F6
:1016500080E0B36923722300703318705F4F290054
:101660003800FFF7EBFD290006003800FFF73EFECB
:10167000002E73D0F3685A1E9341637223007133B6
:101680001870574F29003800FFF7D8FD29000600D1
:101690003800FFF72BFE002E64D0F3685A1E9341EA
:1016A000A3722300723318704E4F29003800FFF7E1
:1016B000C5FD290006003800FFF718FE002E55D0A2
:1016C000F3685A1E9341E372230073331870464F38
:1016D00029003800FFF7B2FD290006003800FFF7A7
:1016E00005FE002E46D0F3685A1E93412373230053
:1016F000743318703D4F29003800FFF79FFD290013
:1017000006003800FFF7F2FD002E37D0F3685A1EAE
:1017100093416373230075331870354F29003800E7
:10172000FFF78CFD290006003800FFF7DFFD002ED3
:1017300000D118E6F3685A1E9341A3732300763351
:10174000187013E601235B42009360E701235B42BC
:10175000009371E701235B4200937FE701235B4223
:1017600000938EE701235B4200939DE701235B42D8
:101770000093ACE701235B420093BBE701235B428C
:101780000093CAE701235B4200930BE601235B420F
:1017900000931AE601235B42029600932BE6012395
:1017A0005B42009334E601235B42009341E6012350
:1017B0005B420295009353E601235B4200935DE692
:1017C00001235B42009369E605235B42009368E6D0
:1017D0000DCF0D1018CF0D1020CF0D102ECF0D10E6
:1017E00036CF0D1055CF0D1013D00D101DD00D108C
:1017F00024D00D10F0B5050085B000200C0000F0DD
:10180000B1FC280000F022FD0190002800D181E108
:101810000100C248FFF7EEF8051E00D13AE1C04FC3
:1018200001003800FFF70AFD290006003800FFF725
:101830005DFD002E00D109E1B36923702300FF3361
:1018400058720023B74F290038000093FFF7F6FCC9
:10185000290006003800FFF749FD002E00D1F8E00E
:10186000F3685A1E934163702300FF339872AE4FA2
:1018700029003800FFF7E2FC290006003800FFF7D6
:1018800035FD002E00D1E8E0F3685A1E9341E37065
:101890002300FF331873A54F29003800FFF7CEFC53
:1018A000290006003800FFF721FD002E00D1D8E006
:1018B000B369A3602300FF3358739D4F290038009C
:1018C000FFF7BCFC290006003800FFF70FFD002ED3
:1018D00000D1CAE02200B369FF32DBB223779074F3
:1018E0006377D074A3771075924F29003800FFF703
:1018F000A5FC290006003800FFF7F8FC002E00D1F7
:10190000B7E02200B369FF32DBB2611CE3775075A8
:10191000CB77A11C9075CB77D075874E290030000E
:10192000FFF78CFC290007003000FFF7DFFC002FD9
:1019300000D1A2E0FB685A1E9341E21CD37723003A
:10194000FF33187601997D48FFF754F80600002F01
:1019500000D19FE023000122794FFF3301009A73E9
:10196000DA731A745A743800FFF768FC3100050006
:101970003800FFF7BBFC0390002D00D181E0AB697C
:101980000293704F31003800FFF758FC310005001A
:101990003800FFF7ABFC002D00D177E0AD692200E5
:1019A00021002300253209315033FF32FF31029EDE
:1019B0005D601E606E46367B0833167050700232D2
:1019C0008B42F4D101996048FFF714F8061E00D14C
:1019D0006DE05E4F01003800FFF730FC310005007C
:1019E0003800FFF783FC0390002D57D0AB690293BA
:1019F000544F31003800FFF721FC3100050038005A
:101A0000FFF774FC002D4ED0AD69220023002100A9
:101A100019322433FF324C31029E5D601E606E46E7
:101A2000367B08335070167002329942F4D1019916
:101A30004748FEF7DFFF051E3DD101235B420093BF
:101A4000019800F0A9FB009805B0F0BD01235B42AE
:101A5000F8E601235B42009309E701235B42009310
:101A600019E701235B42009327E701235B420093C0
:101A70003AE701235B4200934FE701235B42009367
:101A800060E701235B42029500937AE701235B4202
:101A9000009384E701235B42009393E701235B42B9
:101AA00002950093A4E701235B420093ADE7012375
:101AB0005B420093BBE7274F01003800FFF7BEFBF6
:101AC000290006003800FFF711FC002E1ED0F36835
:101AD0005A1E934122004C32137091235B00E05454
:101AE0001D4F29003800FFF7A9FB29000600380028
:101AF000FFF7FCFB002EA0D0F3685A1E9341220092
:101B00004D3213702423FF33E05499E701235B42E5
:101B10000093E5E705235B42009394E763CF0D1044
:101B2000CCCE0D10AACF0D1092CE0D1088CE0D1078
:101B3000B0CE0D10BACE0D10A9CE0D1065CE0D1081
:101B400002D00D107CCE0D10CFCE0D10D9CE0D10C1
:101B5000DFCE0D10F7CE0D10EBCE0D107FB5DC23D0
:101B60009B0500936C46002302AD01950290154839
:101B70006B60C460144C0668002E07DBA34203D1DF
:101B80000120404204B070BD0133F4E7A342F7D016
:101B90000123836000230669002E03DAA342EFD0FD
:101BA0000133F8E7A342EBD0A02300981B0698422C
:101BB00001D00098E6E7029B002013606B680B6081
:101BC000E0E7C04600002340983A0000F0B5170057
:101BD0008A22434C9200A544079008910EA8002148
:101BE000BFB2099306F050FD0CAA0BA93800FEF70E
:101BF000A5FD00260500B0422CD1C02280210B9B00
:101C0000D2051A40C9058A4237D10C9BDC1DE40875
:101C100020000D9406F0FAFC0925061E1AD00100DA
:101C20000DAB22003800FEF799FD051E12D16B4660
:101C3000198C102304930293079B079A3033019366
:101C4000284B40320392009332000D9B0EA8FEF702
:101C500097FD0500300006F0E3FC002D05D12022A1
:101C600009990EA8FEF7ECFC05000EA8FEF7DAFCB9
:101C7000280099239B009D44F0BD1B4A934207D145
:101C80000C9B5C0809230134E4085C433B34BFE748
:101C9000164A934203D10C9BDC082934B8E7144A56
:101CA000934205D103240C9BDB085C435A34AFE715
:101CB000104A934205D103240C9BDB085C434A3451
:101CC000A6E70D4A1B0C1B0493429ED00B4A04004E
:101CD00093429DD10C9BDC1DE4081234640097E70D
:101CE0009CFDFFFF0901202200000170000001603F
:101CF000000002700000026000000370000003603A
:101D000010B5017804000A00303AD3B2092B1FD86D
:101D100011000A0161780B00303BD8B2092824D8A1
:101D20009918A27809011300303BD8B209282AD8A3
:101D30005A18E378120118003038C1B28018092906
:101D400005D91900413905292BD8373B981810BD02
:101D50000B00413B052B01D83739DAE70B00613B1B
:101D60000020052BF3D85739D3E70B00413B052B57
:101D700002D837398918D4E70B00613B0020052BC6
:101D8000E5D85739F6E71300413B052B02D8373A1F
:101D90005218CEE71300613B0020052BD7D8573AE5
:101DA000F6E71900613900200529D0D8573BCDE767
:101DB000F7B50B7807004E1C222B0FD00026554B91
:101DC00019603000FEBD02331A780130222A08D093
:101DD000002A06D05C2AF6D00133F5E73300002054
:101DE000F2E74D4B1B6898470190041E07D1019EF6
:101DF000E7E7721C5C2B13D0237001341600337894
:101E0000222B01D0002BF4D1002323703378223B06
:101E10005A425341F618019B3B610423FB60D0E713
:101E200073786E2B17D007D8611C622B0CD0662BF1
:101E30000FD0237001340AE0742B0ED0752B0ED016
:101E4000722BF6D10D23F4E7082323700C00013226
:101E5000D4E70C23F9E70A23EBE70923E9E7B01CF1
:101E6000FFF74EFF2D4B2E49C3180500721D8B4204
:101E7000EDD90028EBD02B4BC3188B4227D8B37970
:101E80005C2BE4D1F379752BE1D130000830FFF7FA
:101E900037FF3200214B2249C3180B328B42D6D870
:101EA000214BAD021D4080238005800D05435B0260
:101EB000ED181E4BE11C9D4223D803234C1E3F20EE
:101EC00080212840494201432170AD0910E07F285C
:101ED00009D8012301341648611EC05C013B05434B
:101EE0000D70E418B3E7134B9842E2D80223023492
:101EF0003F20802128404942013C01432170AD0927
:101F0000E9E73F20802328405B420343E370AD09AB
:101F10000423D3E7D0A8020820A102080024FFFF71
:101F2000FF0300000028FFFF00FC0F00FFFF000080
:101F300063D10D10FF070000002803D00378013B98
:101F40001F2B00D970470130F6E70000064B10B593
:101F50001B6828209847041E03D02822002106F081
:101F600093FB200010BDC04620A10208F0B505007B
:101F700087B00E1E01D1002413E004227549300001
:101F800007F007FA002803D10223EB60341D08E0B4
:101F900005227149300007F0FCF9002804D1E860FF
:101FA000741D200007B0F0BD04226C49300007F01A
:101FB000F0F9002806D101230122EB600023AA6179
:101FC000EB61E3E73378222B05D131002800FFF7DE
:101FD000EFFE0400E5E71A00303AD2B22D2B01D013
:101FE000092A1AD8340000E0013423781A00303A64
:101FF000092AF9D92D2BF7D0A71B3A0031006846E2
:1020000006F039FB00236A466846D35506F090FA7D
:102010000323A861E961EB60C3E75B2B37D1563B33
:10202000EB60701CFFF788FF037804005D2B01D183
:102030000134B6E7FFF78AFF061EA8609BD0200098
:10204000FFF77AFF01003000FFF790FFFFF774FF02
:102050000400002C00D18EE723782C2B04D05D2BBC
:10206000E6D03F4B1C6086E7FFF770FF051E00D1EE
:1020700081E730604660601CFFF75EFF01002800CA
:10208000FFF774FFFFF758FF2E000400E1E77B2BFA
:102090005DD1753BEB60701CFFF74EFF03780400C9
:1020A0007D2BC5D0FFF752FF061EA86000D162E766
:1020B0002000FFF741FF01003000FFF779FEFFF736
:1020C0003BFF002800D156E70024336934613362B6
:1020D00003783A2B02D0224B186062E70130FFF7F9
:1020E0002BFF01003000FFF741FFFFF725FF040041
:1020F000002C00D13FE723782C2B02D07D2B97D0EA
:10210000AFE7FFF723FF051E00D134E730604660DC
:10211000601CFFF711FF01002800FFF749FEFFF7E1
:102120000BFF002800D126E700242B692C612B62CD
:1021300003783A2BCFD10130FFF7FEFE01002800D3
:10214000FFF714FFFFF7F8FE2E000400D0E7044B62
:102150001E6010E76AD10D106FD10D1075D10D10F2
:10216000D0A802080849094A002803D1084B0B608F
:10217000084B07E00368002B00D1054B0B60436858
:10218000002BF5D01360704720A102081CA10208A3
:102190000D860D1021860D10F8B5802604007600FE
:1021A000002C00D1F8BDE3682768334204D1A06851
:1021B000002801D0FFF7F0FFE3680B4D334204D154
:1021C0002069002801D02B6898478022E36892009C
:1021D000134204D1206A002801D02B6898472000C0
:1021E0002B6898473C00DBE71CA10208F7B5050007
:1021F0000E000192FFF7AAFE0023134F04003B607C
:1022000098420CD02800FFF797FE01002000FFF74E
:10221000ADFE051E05D12000FFF7BEFF0024200003
:10222000FEBD019B002B0AD0FFF786FE0378050058
:10223000002B04D02000FFF7AFFF3D60EEE7002E3B
:10224000EDD03560EBE7C046D0A80208002210B5FB
:102250001100FFF7CBFF10BD0300093B0122042B47
:1022600002D920384242424110007047F0B50025A3
:10227000170006002C0089B003930E9B02901B0CE4
:10228000DBB204930E9B00911B0ADBB205930E9BFD
:10229000DBB20793731C069333780193002B08D0AD
:1022A000009B002B22DB029A731C9B1A009A9A4215
:1022B0001CDA0E9BDBB2002B00D1B4E0019A9A42EB
:1022C00000D0AEE0009B002B06DB029A731C9B1A29
:1022D000009A934200DDA4E0B31C7678032D00D968
:1022E000A1E0280005F050FE8989637B0198FFF783
:1022F000B3FF002839D1079B019A9342D9D04F4EA2
:102300001100300007F01EF8031E08D1049B019A4B
:1023100093420BD0059B93426FD133003F33032D83
:1023200023D8280005F030FE0510233533003E3356
:10233000F5E7002F06D0039A94425ED23F4A9B1ADB
:102340009B003B55012510E0621C002F0BD0039928
:102350008A4252D239493C195B1A2178181101433B
:102360001B012170BB5414000225069E92E7621CDB
:10237000002F0BD003998A423FD230493C195B1A97
:102380002178981001439B012170BB541400032550
:10239000EBE7002F08D0039A94422ED227493A192E
:1023A0005B1A11780B43137001340025DDE71D0023
:1023B000002E22D0009B002B22DB029B009AEB1AFE
:1023C0009A421DDA019BB34217D1009B002B04DD1A
:1023D000029B009AEB1A93420FDC2E786B1C029A38
:1023E0009D1A002E04D0009B002B11DBAB420FDAAC
:1023F000002F18D03B5D002B15D00124644219E05A
:102400003000FFF729FF0028DCD02E780135CFE718
:102410003000FFF721FF0028EFD0029B5E5D013501
:10242000DFE7002DE9D1039B9C42E6D2002F01D0CB
:1024300000233B55200009B0F0BDC0467AD10D10F5
:1024400070B508000D0014000E1E05D0731B9C42D1
:1024500003DCE043C017204070BD307801F098FFE6
:102460000136F3E770B500240D001600A1420AD131
:10247000200070BD01F098FFC0B2285501340A2831
:10248000F6D00D28F4D0B442F4DBF1E77047FFF743
:10249000FDFF72B6124C134DAC4209DA2168626836
:1024A000A368043B02DBC858D050FAE70C34F3E7CA
:1024B0000D4B0E4CA34208DA19685A680020043A02
:1024C00001DB8850FBE70833F4E709480949086055
:1024D000BFF34F8F00F0E4F801F022FEFEE70000AA
:1024E00068E90D1080E90D1080E90D1090E90D10DC
:1024F00000A0020808ED00E0FEE7FEE700B50420BA
:102500007146084202D0EFF3098001E0EFF3088042
:10251000043005F0C9F8FEE770470000E02370B50D
:10252000504C9B00E2580F23D021072013409A0003
:10253000121989005158014066D0042958D04A48E0
:10254000002B66D1B223B1220321DB00D200E55873
:10255000A358A6581B0F360F0B400E4204D0A258AA
:10256000120F0A40012A01D1EA0701D4032B11D12D
:10257000B0233E4ADB00E558A158E658C904C90C0F
:1025800005F00CFDAD03AD0B6843F101C90F01313E
:1025900005F004FDE0239B00E3589B069B0FD84009
:1025A000334B1860334B1C691969240A090E013139
:1025B00005F0F4FC304BE1B21860013105F0EEFC9F
:1025C0002E4B040018602E4B2E4918602E4BC0185D
:1025D00005F0E4FCFA212D4B890018702C4BE01813
:1025E00005F0DCFC2B4B18602B4BC003186070BD52
:1025F000C021890052581F210A40112A01D0132AF4
:1026000004D1802000029BE7244899E7FA20C0010A
:1026100096E7012BBED1C823C0220321DB00D200E4
:10262000E558A358A6581B0F360F0B400E4204D096
:10263000A258120F0A40012A01D1EA0701D4032B44
:10264000A8D1C022D200A358A158A5587F221F2686
:102650001340090A3140584305F0A0FC290C3140D1
:1026600096E7C0460000264000366E018405000053
:1026700028A10208000021402CA1020824A1020880
:1026800034A1020840420F003F420F003CA1020863
:10269000E703000038A1020830A1020800127A0006
:1026A00010B51B4802F0ACF8B022E0213020194CE4
:1026B000D200A35889005B005B08A3506358834392
:1026C000635080235B04A350134B144AE250A022B2
:1026D00004339201E250FF22114BE25005F042FC1C
:1026E000C02201215200A3588B43A350FFF714FFCF
:1026F000FFF714FFB0235B055A78002A02D05B78FD
:10270000212B03D10022074BDA605A6010BDC0466E
:1027100048E00D1000002640840500000100020082
:102720008C050000E0002340024BD86F03231840C3
:102730007047C0460400214010B502F05AF807491E
:10274000074ACB6F1A40074B1343CB671023064948
:102750000A681A42FCD002F050F810BD0400214073
:10276000FCFF00000100FA058800214070B58305D8
:102770000600002B04D0E8211048FF3104F066FF6A
:102780000F4C02F036F8E36F0500DB439B0701D1E5
:10279000FFF7D2FFB0230B4A9B00D650E36F0A4AE3
:1027A0000A491A400A4B1343E36710230A681A4286
:1027B000FCD0280002F021F870BDC046B9D10D1040
:1027C0000400214000002140FCFF0000880021405F
:1027D0000300FA05437802781B021A438378C07815
:1027E0001B0413430006184370470000F7B5A54BC0
:1027F000A54A9A58D10700D47BE00F22A34FBB68AB
:102800003D680093A24BDC6F0193009B1440073A94
:10281000141B9C4200D91C009E4E002C18D1009B1A
:102820003D60BB60002B0CD1F92201209549D200FC
:102830008B5883438B50B861FB69002B01D0FB6937
:102840009847F8230122DB008E49CA50CB58F7BDC8
:10285000082C16D12800FFF7BDFF3060281DFFF7B8
:10286000B9FF3060009B2D191B1B0093019BDC6F8F
:102870000F231C40073B1C1B009B9C42CDD91C0016
:10288000CBE7012C03D12A78834B1A60EAE7022CAC
:1028900006D12A786B781B021343804A1360E1E764
:1028A000032C07D16B782A781B0213437B4A1360F1
:1028B000AA78E9E72800FFF78DFF042CD1D030601B
:1028C000052C01D12A79DFE7062C02D12A796B7910
:1028D000E1E7072C07D16B792A791B0213436F4A72
:1028E0001360AA79D0E7281DFFF774FF0824306031
:1028F000B8E7910700D4A4E00F22644D68496C69E1
:10290000EB6808688C460240A24200D92200654963
:10291000654E002A16D1EB606C61002C0DD1F922B6
:1029200002215848D20083588B4383500320A8616A
:102930002B6A002B01D02B6A9847F8236C61DB00CF
:10294000022281E7082A19D10868070A18705F7007
:10295000070C000E9F70D8700868070A18715F7125
:10296000070C000E9F71D8719B18A41A62460F20A5
:1029700012680240A242CCD92200CAE7012A03D140
:102980004A4800681870EFE7022A04D130681870CE
:10299000000A5870E8E7032A07D130681870000A67
:1029A0005870424800689870DEE7042A08D1086829
:1029B000070A18705F70070C000E9F70D870D3E77D
:1029C000052A0BD10868070A18705F70070C000E03
:1029D000D87036489F7000681871C5E7062A0CD178
:1029E0000868070A18705F70070C000E9F70D87097
:1029F00030681871000A5871B6E7072A0FD10868C5
:102A0000070A18705F70070C000E9F70D87030684E
:102A10001871000A5871254800689871A4E70A687F
:102A2000100A1A705870100C120E9870DA700A683A
:102A3000100A1A715871100C120EDA71987108226E
:102A400092E704210A4207D00520104A9061F8223B
:102A5000D20099509B58FAE608210A4202D00B4A4C
:102A60000620F3E71020024206D00721074A9161B1
:102A7000F822D2009850EDE72020024200D1E6E68D
:102A8000024AF4E700004240CC070000E0AE020832
:102A9000080042409800424090004240940042406A
:102AA000C4004240D8004240D4004240D0004240DE
:102AB00073B5684602001E4B12CB12C262B61D49A6
:102AC00004F034FD021E05D01B4B1C491B68D8685E
:102AD00005F034FDFA221A4D92002B0019491A48CC
:102AE00003F03EFB041E1ED102000121164803F034
:102AF000A1FB2900144803F027FE0F4E134833684A
:102B0000D96805F075FD2A0011490F4804F04CFA08
:102B1000041E08D133680F48D96805F069FD21000B
:102B2000094803F06FFB80220B4B20001A6076BD32
:102B30000CD20D10ED270D1084A102088BD20D10C0
:102B4000E0AE02087CDA0D1000004240CBD20D103E
:102B500038E00D10E8D20D1000E100E00C4B1B68CE
:102B60009B691B68032B08D10023CB7083B21B0A1F
:102B700088704B70000C08707047042BFCD183B236
:102B8000C8701B0A000C48708B70000AF3E7C0463F
:102B900044AE0208F0B50F2787B002ABFF18002340
:102BA00016003B708B690500DA6BDB6A03921B68C9
:102BB0003A00DBB200960C0003F084FE021E06D041
:102BC000104B11491B68D86805F0B8FC13E06B4640
:102BD0003A781B7B1A409A420DD03200210028001F
:102BE00003F0D0FE021E08D132002100280003F0BD
:102BF00089FE0028F8D107B0F0BD024B03491B68DD
:102C0000E1E7C04684A1020814D20D1050D20D1085
:102C1000F0B589B004000E00049217221A4D0593F6
:102C2000296802A88B6912189F6ADB6A20001B685A
:102C30000096DBB203F046FE002823D1320029685B
:102C4000200003F023FE00281CD1059B0190009377
:102C50000296049B0E9A2968200003F015FF0028B5
:102C600010D132002968200003F04CFE0028F8D172
:102C700017223B6802A900965218DBB2296820008F
:102C800003F020FE09B0F0BD44AE020870B54B68F9
:102C9000056801229D4216D38A689B1800229D4236
:102CA00011D20C694B699C420FD20C236343CE684E
:102CB0000134F3180E685A701E705A8042685D60C5
:102CC0009A6001220C61100070BD0C235B428B6185
:102CD000F9E7000010B502006F2809D0074B08493A
:102CE00018686F23C06805F029FC1620404210BD0B
:102CF00080235B050B600020F9E7C04684A1020831
:102D000045D30D1010B50F4B02001879904215D025
:102D1000187E904214D018002C30047801204042D4
:102D200094420AD1033014224243101D181808603F
:102D300000209B181A6901321A6110BD0020F2E7C9
:102D40000120F0E740A1020810B5021E0BD0011FC0
:102D50000C4B0868984207D00B49137808680B4958
:102D6000C06805F0EBFB10BD0B69002B07D1064BCB
:102D700012781B680649D86805F0E0FBF3E7013BD1
:102D80000B61F0E7EFBE0DD084A1020801D30D1056
:102D900021D30D1070B515001E00446805480C19AC
:102DA000012103F02FFA32002900200000F00AF977
:102DB00070BDC04600004240F0B51500F022144F2F
:102DC00087B003933B684468DB6812060C199B18B4
:102DD000A34216D800210F4803F014FA3B6805AE51
:102DE000D8688023201A5B05C0183100FFF7B6FEB3
:102DF0000096039B2A0008490648FFF709FF07B021
:102E0000F0BD039A2900200000F072F9F7E7C046F0
:102E100044AE020800004240E0AE0208F0B51500E2
:102E2000F022254F44683B681206DB680C199B189A
:102E3000C5B0A3423AD80021204803F0E3F980222C
:102E40000021520004A805F01FFC3B680020D9684F
:102E50008023641A5B052E0AE418002E14D0002883
:102E600001D045B0F0BD03AF20003900FFF776FE7A
:102E7000802300975B0004AA114910480134FFF732
:102E8000C7FEFF34013EE8E7EDB2002DE9D000288F
:102E9000E7D103AE31002000FFF760FE00962B0063
:102EA00004AA07490548FFF7B3FEDAE72900200026
:102EB00000F028F9D5E7C04644AE020800004240C1
:102EC000E0AE020810B5007800F096F910BD0130B0
:102ED00070470000431E022B15D8022808D0032893
:102EE0000BD00A4B98680860DB68002013607047BD
:102EF000064BD86908601B6AF7E7F0231B030B60D9
:102F000080235B01F1E701204042F0E740A1020885
:102F100030B589B00C00150002A903AA0190FFF793
:102F2000D9FF002811D1236805900693084B07901C
:102F300001AA18680749049500F00EF807980028C0
:102F400001D1059B236009B030BD01204042FAE762
:102F500040AF02088D2C0D10F0B500242600436808
:102F60008BB002911B6906A905A8039298470194AA
:102F7000069BB34201D80BB0F0BD059BF700DF19EB
:102F80007B68019D0893019B3A68EB1A9A4202D82C
:102F900001360195ECE707940995039907A8029B70
:102FA00098470028E7D0089B0135E418EBE70000BC
:102FB000024B036001230B607047C04680D30D10A5
:102FC000002070470B00802110B5490541181800FA
:102FD00005F051FB002010BDF0B5264CF023A544B0
:102FE0000024039020001B06CB1801935B0A5B02B0
:102FF00004AF0292FD1A029AA24201D900280CD015
:103000001D4B984234D01D4B984231D0431E9841FD
:10301000400085239B009D44F0BD8022010092006A
:103020009E18019A9A421DD8029AA2421AD9039A6E
:10303000125DEA54002906D1802149055918097802
:10304000511A4A1E914101340133B342E9D100299A
:1030500004D00B4B3900F01801F0D4FC094BED18EB
:103060003300C8E7802252059A181278EA54EBE739
:103070000120CEE7ECFDFFFF0200520006005200E7
:1030800000FEFF0F00FEFFFF00207047F8B5124C56
:103090000023A1421CD91E00104C8D18AC425E4189
:1030A0000F4CA14215D91F000E4CAC425F413C00B1
:1030B0000D4FB94202D90D4FAF425B413443234318
:1030C0000124002B02D0FFF787FF04002000F8BD89
:1030D0001E0000242300F1E7FFFFFF0F0000101087
:1030E000FFFFFF1300800014FF070016000A001600
:1030F0000B00802110B5490541181800FFF7C6FFE5
:1031000010BD00008023F0B5364C5B05A544C41803
:103110006518EB05E605DB0DF60D02936B0A0393CC
:1031200033005A1E9341640AE4186B0A1B1B6402A5
:1031300027000193019B002B11D1002E2CD02A4B8C
:103140003200E418210004A805F095FA200001F0EF
:103150000DFC002815D0254B254AA92107E0380091
:1031600001F004FC002805D09621204B204A21487C
:1031700005F0C0F980239B00FF18019B013B0193E0
:10318000D8E73200210004A8FFF780FF002803D011
:10319000164B174AAD21EAE7029B002B1CD0802476
:1031A000A400E41A2200290004A805F064FA039B95
:1031B000580201F0DBFB002803D00C4B0C4ABA216B
:1031C000D5E72200290004A8FFF760FF002803D0FC
:1031D000064B074ABE21CAE7002085239B009D4479
:1031E000F0BDC046ECFDFFFF00FEFFFFA0D30D10B9
:1031F0006ED30D10A8D30D100420704710B5102207
:103200000949040005F028FA0123002808D023000A
:1032100010332268013205D104349C42F9D10323D2
:10322000180010BD0223FBE7A0D40D1030B50D002F
:10323000816891B0103910236A460400FFF7AAFD97
:10324000002802D0012011B030BD6846FFF7D6FF3C
:1032500028702378032B09D1A1680123AA1C1839EF
:103260002000FFF797FD431E9841ECE7A1686A1C18
:10327000203901232000FFF78DFD0028ECD0E1E785
:1032800037B50D00C0B201A9FFF73CFD01240028AD
:1032900007D129000198FFF7C9FF04000198FFF743
:1032A00053FD20003EBD0000F7B501206946FFF741
:1032B000E7FF002801D0FF20FEBD01AC2100022065
:1032C000FFF7DEFF0028F6D12078A678234C6B4666
:1032D000220019789D785F7812322378002B01D074
:1032E0008B422FD16378002B01D083422AD1A3785F
:1032F000002B01D0AB4225D1E378002B01D0B342A3
:1033000020D12379002B1BD1154B164A1B68D86896
:103310006379022B06D0144A032B03D0134A042BE3
:1033200000D0134A134905F009F96079831E022B76
:10333000C2D9BC21104B114AFF31114805F0DAF80F
:10334000BB42E1D006349442C7D1054B0D481B68FF
:10335000D96805F04DF90120AEE7C046B0D40D1094
:1033600084A10208C7D40D10C2D40D10DED40D10F4
:10337000CCD40D10E5D40D10FBD40D100DD40D10D0
:1033800043D40D107BD50D10F0B597B01CAB1B7856
:1033900004931378302B12D19378022B0FD1002392
:1033A000D7780693D4196379B91D2479C918039184
:1033B000022C04D1FC1855780434A54226D01020E4
:1033C00017B0F0BD0599671B8C46A4449444614630
:1033D00009792037F1550134A542F3D1002403992E
:1033E000C91A52189C420BD16B461C8A402302001A
:1033F00001930096203B0B492000FDF7A9F8DFE779
:10340000E11A155D403175540134EBE7202B00DDE6
:1034100020233D00202F00DD2025791B002406AE4F
:103420000591D9E709000610002803D1044B1B7F42
:103430001800704700230128FAD1014BDB7FF7E722
:1034400044AF0208F0B5F7B00500029111A8594940
:1034500017000493FDF704F900284CD17C9B002B46
:103460003FD100242B89EA689B180393039BA34256
:1034700014D9039B049E1B1B9E4200D91E003300DF
:103480003A0021000298FFF785FC002833D1320072
:10349000390011A8FDF7F2F800282ED008AB202241
:1034A00009A911A8FDF7FAF8002824D17E9B002B6A
:1034B00004D0202209A9180005F0DDF8EB682C895A
:1034C00007ADE4182A00042321000298FFF762FCEC
:1034D000002810D1384B2A889A4210D0012040424F
:1034E00009E07D9B002BBCDD1A007C9911A8FDF73B
:1034F000C5F80028B5D077B0F0BDA419B6E76B8841
:1035000001251B1905930434039004906D42059B1B
:103510009C4205D3049B002BE0D003980138EAE7D6
:1035200008AF04233A0021000298FFF733FC00287B
:10353000E1D13B787E88102B17D1202ECED1211DD2
:10354000330011AA0298FFF725FC0028D3D13200DE
:1035500011A909A805F080F80028BFD10123049320
:1035600008AB5B880433E418D1E7012B04D17F98C2
:10357000FFF75AFF0500F3E7222BF1D13300483B58
:10358000B82BABD8211D330011AA0298FFF702FC1B
:103590000028A3D1EDB27B8811AA0095202109A8AB
:1035A0000125FFF7F1FE6D420028D9D101230393D5
:1035B000D6E7C0460900000107690000F7B507001B
:1035C000002401262000FFF782FC01A9C0B2FFF70A
:1035D00099FB3500011E0AD12C2363430B4A019845
:1035E000D2182023FFF7D6FB0500681E85410198FD
:1035F000FFF7AAFB002D04D0012C00D13D002800CC
:10360000FEBD012CFBD03400DCE7C046D4A8020884
:1036100073B50C00C0B201A91500FFF773FB0126BA
:10362000002807D12A0021000198FFF7F7FB0600C8
:10363000701E86410198FFF787FB300076BD0000C1
:1036400030B52C244443254B87B01C192368050052
:10365000013301D101202FE02369DB06FAD4FFF703
:1036600036FC05A9C0B2FFF74DFB03000120002B7B
:1036700023D11B4BA27A1B789A42EBD12000FCF796
:103680000DFF0028E6D1174B22689A4217D18023FC
:1036900002900190009003955B00134A0599200069
:1036A000FFF7D0FE00280AD10598FFF74DFB200058
:1036B000FCF718FF431E9841404207B030BD002D73
:1036C00004D0059800218268FFF7A8FB074B2A0069
:1036D0001B680749D86804F031FFBBE7D4A802088B
:1036E00044AF02083DB8F39644AD020884A1020835
:1036F000A4D70D100023F0B5AC4CAD4AAD4FA54496
:10370000012013603B60FFF79BFFAB4B04001B796C
:1037100001200393FFF788FE002C45D1A74BC2B2CE
:10372000DB6C03995E6880235B05F518A44BF618E3
:10373000300013ABFEF74AFA041E35D105A8FCF79A
:10374000D1FF80219F4A890005A8FCF7D9FF05A970
:103750000B20FCF7E5FF041E26D1102313AA9A497B
:103760000B20FCF7ADFF0123041E3B601CD1954AE2
:103770000B211BA8FCF700FF041E15D1102217A96E
:103780001BA8FCF71BFF041E0ED1202204AB0193E3
:1037900000922DAB31001BA8FCF720FF049B040016
:1037A000202B10D001246442824B1B68002B05D0D3
:1037B0000B20FCF729FF002800D004002000D323B1
:1037C0009B009D44F0BD0028EED1020004AB2DA962
:1037D0001BA8FCF7E1FE041EE6D107AE33002DAABC
:1037E00013CA13C3794F126831A91A603800102226
:1037F00004F041FF05A90C20FCF792FF041ED3D171
:103800001023320070490C20FCF75AFF0122684B4C
:10381000041E1A60C8D16E496DA8FCF721FF041E72
:10382000C2D18023674ADB000C211BA8EE18FCF7ED
:10383000A3FE041EB8D1102239001BA8FCF7BEFE5F
:10384000041EB1D1802704AB7F00019300972DABFC
:103850003A0031001BA8FCF7C1FE049B0400BB42E8
:10386000A0D10028A0D12D9B309E319A591C00D1A7
:1038700098E7D20600D595E7504AD26C9268B242DA
:1038800000D28FE7534A934200D08BE73A002DA92C
:103890006DA8FCF7F3FE041E00D085E78023DB0053
:1038A000F618330AF6B20393731E9E41039BFF3F43
:1038B0009B190393A0238026DB00ED187600039B61
:1038C000BB421FD9002C00D06EE7802204AB0193CD
:1038D00000962DAB520029001BA8FCF77FFE049B2D
:1038E0000400B3420BD1002805D132002DA96DA8E8
:1038F000FCF7C4FE04000135FF350137DFE7012482
:103900006442F8E7002C00D04EE704AE33002022DA
:103910000BA96DA8FCF7C2FE041E00D044E780226C
:103920005200019600922DAB29001BA8FCF756FE11
:10393000041E00D038E7020033002DA91BA8FCF7B5
:103940002BFE2D9B244A9BB20400934200D029E712
:10395000002800D028E72E9AD3B2102B00D021E700
:10396000120C202A00D01DE72FA90BA804F074FE2A
:10397000041E00D018E7379BDBB2012B00D011E703
:103980000120FFF751FD409BDAB2222A00D009E75F
:103990001B0C482B00D005E7C0B2009041AA2021A3
:1039A0000BA8FFF7F1FC0400FEE6C046B4FCFFFFE5
:1039B00038AF020834AF020844AF0208D4A80208A6
:1039C00020000010000160040100004034AD020836
:1039D000090000013DB8F396076900000023F0B527
:1039E0001D4C0700A5446946022000930193FFF790
:1039F00089F900280ED001260098002801D0FFF791
:103A0000A3F90198002801D0FFF79EF93000134B6D
:103A10009D44F0BD01A90120FFF774F90600041EC2
:103A2000E9D10098A742E7D980233D1BDB009D42E6
:103A300000D91D002B0002AA2100FFF7ABF90028D6
:103A4000D9D12B0002AA21000198FFF7B5F900286F
:103A5000D1D16419E5E7C046F4FBFFFF0C04000078
:103A6000F0B500242700654E9BB033686448D968E0
:103A700004F0BEFD33686348D96804F0B9FD624DB7
:103A8000AB6A0393039BBB4257D133682200D868CB
:103A90005E4904F053FD5E4BDB78002B00D193E0D0
:103AA000002305A9022005930693FFF72BF90028B0
:103AB00020D106A90130FFF725F900281AD1554A6F
:103AC0000C2108A8FCF758FD002813D110225249F8
:103AD00008A8FCF773FD041E0CD10600AB6B013384
:103AE000FF330293059B5B680393029BB34262D949
:103AF000002C39D00598002801D0FFF725F9069849
:103B0000002801D0FFF720F9444B1B68002B02D09E
:103B10000C20FCF779FD102200213F4804F0B4FD91
:103B2000394C0021236D02209A68FFF771FD0028AF
:103B30004ED03B4B3B4A3C490FE00C237B436A6A27
:103B40002100D3189B6801201A000293FFF760FD43
:103B5000002805D0324B334A3449354804F0CAFCBA
:103B6000029B0137E4188DE7029B9D1B8023DB003D
:103B70009D4200D91D00039B2E4F99192E4B009595
:103B8000C91807AB01932A003B0008A8FCF726FDE3
:103B9000079B0400AB420BD10028A6D12B003A00B2
:103BA00031000698FFF708F90028A3D176199CE7A1
:103BB0000124644299E7002C9CD107AB22001D49E7
:103BC00008A8FCF7E9FC95E72000FFF707FFA7E747
:103BD0000C23626D216D013A5343CB185A68496832
:103BE0000220511A9A68FFF713FD002803D00C4BEE
:103BF0000C4A1249B1E71BB0F0BDC04684A10208CF
:103C0000BFD50D10E4D50D10D4A8020850D60D1064
:103C100044AF02080001600434AD020838AF020866
:103C2000A0D30D1093D50D102A0900000B09000038
:103C3000FAD50D1034A90208000400102F09000065
:103C400073B5164E164CF368626A5B0A01A901202F
:103C50000193FFF75DF9012500281AD1019B226D20
:103C6000A362F36801A95B0A02300193FFF750F9E0
:103C7000051E10D1019B206A6365FFF723F906003A
:103C8000A06DFFF71FF9331C864200D2031C5C3481
:103C90002370280076BD0125FBE7C04640A102083D
:103CA000D4A80208F0B50C266C4F89B0FB680090D0
:103CB0005C0A7443200004F0A9FC0190200004F089
:103CC000A5FC674C019B0290206563620020FFF712
:103CD000FEF82100C0B22031FFF714F8002814D1FB
:103CE0000130FFF7F4F82100C0B24C31FFF70AF8B9
:103CF00000280AD1210003305831FFF703F80028CB
:103D000009D0584B584A594902E0564B564A58492F
:103D1000584804F0EFFBFFF793FF051E19D0564BF0
:103D2000FA681B68520A5549D86804F007FC0198E4
:103D300004F076FC029804F073FCA06DFFF704F821
:103D4000E06CFFF701F8206AFEF7FEFF280009B0DB
:103D5000F0BDFFF733FC051EE9D1FB68A06A5B0AE2
:103D6000984202D8626D9A4219D9434B44481B6865
:103D7000D96804F03DFC0020FFF762FC05006842B2
:103D8000684100F037F9002D5DD1236A00995A7817
:103D90000A715B680C600393039A8A60C7E79042DC
:103DA00028D108234643626A216D08369E4226D1F7
:103DB000344E7378002BDED00C22002105A804F0CD
:103DC00063FCFFF771FA831E0500022B2BD82A4BE8
:103DD0001B68D968F378002B1ED02B4804F008FC30
:103DE000FFF788FC002830D00020FFF7E7FB051E16
:103DF0009DD1C0E7204B25481B68D968B9E718005A
:103E0000D558CB580C309D4204D01B4B20481B6822
:103E1000D968AEE70300C9E71E4804F0E9FB0120BA
:103E2000FFF70EFCDEE7012DA5D0002D01DD052DED
:103E3000DADD114B18481B68D96804F0D9FB174B21
:103E4000094A174964E7032571E7FFF709FE0028CF
:103E5000E9D0044B134A14495AE7C04640A102086E
:103E6000D4A80208A0D30D10B7D50D10260A000063
:103E7000220A0000FAD50D1084A102087ED60D108A
:103E8000C3D60D1044AF02086DD70D10F5D60D1036
:103E900034D70D107FD70D1095D70D10A6D30D1068
:103EA000780A0000A3D50D10F709000010B5002016
:103EB00001F0E0F910BD0000802310B50C4C042087
:103EC0002360230021000833636001F0EBF9094807
:103ED00001F000F8084B1B6851331B78002B02D00F
:103EE000064801F073F82000183000F01DFD10BDE9
:103EF00000C002083CC0020828B1020828D80D10F2
:103F00000F4B10B51B680400002B0CDA0D4A0E4B4A
:103F10000E48DA640E4B1B68D96804F069FB72B670
:103F200008F0A2FE62B6AC230A4A9B00D4500A4BAA
:103F30009C60236883F3088863689847FEE7C0465F
:103F400000012640214334120000234013D80D10F5
:103F500084A102080000214000ED00E010B50448F3
:103F6000044A0021121A04F08FFBFCF751FA10BD2D
:103F70000000020800A002080022E82313B5019205
:103F8000019C9B0523430193019B09041943019163
:103F9000019B000218430123019001990B430193F7
:103FA0000199124BD96012491868002806DB8A4231
:103FB00002D10120404216BD0132F5E78A42F8D015
:103FC00001229A6000221869002803DA8A42F0D0A0
:103FD0000132F8E78A42ECD0DB6800200193A0238D
:103FE000019A1B069A42E6D00198E4E700002340BC
:103FF000983A000010B5002827D1144C14482368C3
:10400000D96804F0F5FA134BDB78013B012B0AD891
:1040100001210800FFF7B0FF43425841FFF7EAFFD4
:10402000642003F0EDFA0C4B1B68002B08DA0B4AF6
:104030000B4B0C48DA642368D96804F0D9FA72B6DD
:104040000948FEF793FB08F017FE10BD84A1020893
:10405000CBD70D1098B0020800012640214334123E
:104060000000234013D80D100040001670B5204BFF
:104070000400DB78013B012B0AD801210800FFF77F
:104080007BFF43425841FFF7B5FF642003F0B8FAC5
:10409000184B1B68002B23DA174A184B1848DA64B0
:1040A000184B1B68D96804F0A3FA72B6B023164AFD
:1040B000164D9B001648EA50C36F164A16491A401F
:1040C000164B1343C36710230A681A42FCD0012021
:1040D00003F096FAB0239B00EC5008F0C5FD62B6E1
:1040E0002000FEF743FB002003F084FEFBE7C04600
:1040F00098B00208000126402143341200002340FA
:1041000013D80D1084A102080040001600002140C1
:1041100004002140FCFF0000880021400300FA0554
:10412000F0B58BB0FFF7C8FE62B600F049F903F0B6
:1041300019FFC0220126784952008B58774DB343AE
:104140008B502800764A774901F02AFE80232A689E
:104150001B061343744C2B60744A754B754F76489D
:10416000BE601A602368D96804F042FA2368734875
:10417000D96804F03DFA04232068019300230093DA
:1041800032006F49C06804F0D9F923686B48D968D8
:1041900004F02EFA23686848D96804F029FA2368E5
:1041A0006848D96804F024FA802004AA05A94000D0
:1041B000FDF7D4FC02950397634D002807D1030057
:1041C000624A29000598FCF74DFB002805D02368BA
:1041D00002005F49D86804F0B1F9F021EA685D4B4C
:1041E000090652189A602A69DA606A695218DA6117
:1041F000AA691A62FCF7D8F8021E04D0236856494F
:10420000D86804F09BF90223EB56002B1FD0534AC9
:10421000013B9B00524F9B583B60FEF749FC061E3A
:1042200005D0236802004F49D86804F087F94E4A48
:1042300039684E48FEF7AEFC002E08D123684C4882
:10424000D96804F0D5F90121484801F0DBFF236863
:104250004848D96807AF04F0CBF93800FFF722FDD2
:10426000002805D023684448D96804F0C1F9FEE766
:104270000126039B41485E602368D96804F0B8F9C1
:10428000387906A9FEF726FD00281BD18221890076
:10429000029B029A5B585258DB05D20B3240DB0D71
:1042A000D318002BF4D1069BBE68F618079B1B8918
:1042B000F618FFF753FE00280AD00221304B314A8E
:1042C000FF3102E0F6212E4B2E4A2F4804F012F95E
:1042D0002878042819D803F057FE070703031000B5
:1042E0000221002001F090F83000FFF709FE23685A
:1042F0002648D96804F07CF9FEE706210E2001F07B
:1043000083F83000FFF7B2FEF1E723681A48D96856
:1043100004F06EF9FEE7C04600002640000066404B
:10432000A8AE02088CDA0D1084A1020870DA0D1014
:1043300040AF02088000324070D80D107AD80D10BE
:10434000BBD80D10F0D80D1044AF020898B0020889
:104350000CD90D1040A1020837D90D107CA102081C
:1043600044AE020870D90D10E0AE020800004240D1
:10437000A6D90D10C3D90D10E7D90D100DDA0D1007
:10438000A0D30D105CD80D1034DA0D1045DA0D10E5
:1043900010B504002100034801F0EEFC0028F9D01C
:1043A00010BDC04600006640C221044A890053582F
:1043B000DB05FCD0D0239B00D0587047000066403E
:1043C00010B500F009F800F035F800F043F800F0FF
:1043D0000FF900F02DF810BD80218022124BC9008A
:1043E0001B68D205986810B542501A0074321288C2
:1043F0000E4C121810680440D42080012043106035
:104400001C001A0072347032247812789868733362
:10441000A2401C780323A3401343802212061343B7
:104420004350435810BDC04628B10208FF00FFFFAB
:1044300070470000054B1B681A003F321278052AAE
:1044400003D900219A68024BD150704728B1020865
:10445000140C000010B51F4C1F4A03211F4800F028
:1044600021FB1F4A0221200000F01CFB1D4A0321F2
:10447000200000F017FB1C4A0421200000F012FB72
:104480001A4A0521200000F00DFB194A06212000E0
:1044900000F008FB174A0721200000F003FB164C30
:1044A000164A0021164800F0FDFA164A0121164866
:1044B00000F0F8FA154A0421200000F0F3FA144A3B
:1044C0000621200000F0EEFA124A0721200000F039
:1044D000E9FA10BD80053240CCDA0D100000324000
:1044E00004DC0D109CDB0D1068DB0D1034DB0D10AF
:1044F00000DB0D10D0DB0D100003324038DC0D1056
:10450000800032406CDC0D1080023240A0DC0D10C7
:10451000D4DC0D1008DD0D1010B50A4B1B683E33BE
:104520001B7883420BD9E0220F24074B8000C01870
:1045300092008358A34319438150002010BD0348C3
:10454000FCE7C04628B102080000264001004A00EE
:1045500010B50A4B1B683E331B7883420CD9E0220E
:104560003024074B8000C018920083580901A343F0
:1045700019438150002010BD0248FCE728B1020811
:104580000000264001004A00054B06491B681A003E
:104590000832D26F1B689B181A680A401A6070476D
:1045A00028B10208FF00FFFF074B1B681900083104
:1045B0001A68CB6F8021D218136849041B021B0AAA
:1045C0000B4313607047C04628B10208054B0649EB
:1045D0001B681A00883212681B689B181A680A4008
:1045E0001A60704728B10208FF00FFFFFEE70000D5
:1045F000F8B59621002003F06FF803F045F8002885
:1046000001D103F031F8012003F008FB674B684942
:104610005A6C0A40E82189010A435A645A6C120A0A
:10462000D2B23A2A04D15A6C62480240114359640A
:1046300000210800FFF78CFFFFF7C8FFFFF7B4FF6A
:10464000FFF7A2FF5C4D5D4C2B685D4F3D331B783F
:10465000002B0ED0C0268023F600A2599B053A40BD
:104660001343A351012002F0E5FFA3595B005B084F
:10467000A3510021012002F071FD2B683E331B780D
:10468000002B03D14F49504802F0E0FFE0239B008C
:10469000E6580F231E400AD1300002F08DFD122390
:1046A000FF33984203D101213000FFF735FFB122DB
:1046B000D200A35800213B408027BF051F43A750CD
:1046C000083AA35808005B005B08A3503F4A032642
:1046D000A3585B005B08A35002F040FD00210800D6
:1046E000FFF71AFFA022D200A358B343A350FFF74D
:1046F0006DFFFFF759FFFFF747FF0021012002F090
:104700002DFD01210020FFF707FF0021080002F026
:1047100025FD0021022002F021FD0021300002F0E1
:104720001DFD0021042002F019FD294802F06AFD58
:10473000002802D00420FFF759FF264802F02AFE85
:10474000002802D00420FFF751FF00210800FFF7E6
:10475000E3FE00210800FFF7FBFE0021012002F02C
:10476000FDFC00210220FFF7D7FE01210220FFF708
:10477000EFFE2B683E331B78022B06D9E222802302
:104780009200A1581B060B43A3508022124B120625
:10479000E15800200A430121E250E2580A43E25066
:1047A000633102F099FFFDF7B9FEF8BD0000274024
:1047B000FF00FFFFFFC5FFDF28B102080000264011
:1047C000FFFFFFCF6E0600003CDD0D108C050000E2
:1047D000A4DD0D10400D03000C05000000000000DA
:1047E0000230800803D001300238FCD1C046C046F8
:1047F0007047EFF3108072B6704780F310887047EF
:10480000014B18607047C04628B10208C0054342FA
:104810005841C0B2704700001F4B984232D00ED9A9
:104820001E4B984234D01BD91D4B984226D01D4BAD
:10483000984225D01C4B98421ED01C481BE04028B3
:1048400022D007D9802821D080235B009842F4D160
:10485000114810E000280DD01028EED114480AE0CD
:10486000A0231B06984205D0124B9842E5D1A02008
:10487000C00300E0002070470F48FCE70F48FAE74C
:104880000F48F8E70448F6E70E48F4E70E48F2E769
:10489000A420C003EFE7C04606005200010000F06C
:1048A000040000F0050000F0030000F0FF005200DB
:1048B00001005000090000A0010052000200520057
:1048C00003005200020050000500520070B5124B68
:1048D0001A683123D35C002B16D00F4B1D682C00B7
:1048E000B423EB582A6A944663441B68002B11DBFF
:1048F0000A4B1868FFF790FF6B6801229A606368A3
:104900009B68002BFBD170BDE6214900044802F0F2
:104910009DFEE2E70348F6E728B1020848AE020828
:1049200000E10D100200500010B50D4B186000287A
:1049300005D002230370FD33437000234380094BED
:104940001B6850229A5C002A03D051229B5C002BEA
:1049500000D110BD4F3A0449002000F0F1FBF8E708
:1049600058AE020828B10208DDA3020810B5040001
:10497000FFF74CFF002834D0FDF7D0FD1A4B1B4A3F
:104980001A605C6000229A60DA60194B1B6854322E
:104990009A5C002A05D180200021400008F074F9BB
:1049A00020E01A6884215B58D3181A68120E19681F
:1049B000090AFF230B400133013253430D4C5C4382
:1049C0000D4B1868FA21890003F0E8FA0100200075
:1049D00003F0E4FA094BC1188020400008F054F9B4
:1049E00000E0074810BDC04648AE02080001001CA8
:1049F00028B1020860F5900028A10208980800007C
:104A00000600520070B504000D00FFF7FFFE0028FD
:104A100036D0002D36D0FDF781FD1B4B1B4A1A60A6
:104A200000225A609C60DD60194B1B6852329A5C10
:104A3000002A05D180200021400008F025F920E05F
:104A40001A6884215B58D3181A68120E1968090A6B
:104A5000FF230B400133013253430E4C5C430E4B9A
:104A60001868FA21890003F099FA0100200003F088
:104A700095FA0A4BC1188020400008F005F900E0C3
:104A8000074870BD0648FCE748AE02080001000573
:104A900028B10208C0EA210128A102084826000026
:104AA00006005200F8B5CE46474680B581460D0057
:104AB0001400002800D191E1002A00D190E10729DB
:104AC00000D902E12368012B00D903E10F236268BA
:104AD0009A4300D003E1237A1F22934300D003E1DD
:104AE000E368032B00D904E12369012B00D905E118
:104AF0006369012B00D906E1A369012B00D907E105
:104B0000E369032B00D908E1236A012B00D909E1ED
:104B1000636A012B00D90AE1A36A012B00D90BE1DA
:104B2000E36A032B00D90CE1236B072B00D90DE1BD
:104B30002768072D00D90EE1012F00D911E1002FC0
:104B400000D113E10123AB404A4693606768072D0B
:104B500000D910E10F233A009A4300D010E1A800D9
:104B6000A04B1A687D23D15C49440A686E3B1E0045
:104B70008640B2433B40834013430B60277A072DA6
:104B800000D902E11F233A009A4300D002E1954B7D
:104B90001A6893694946CB1ADB0952691B01D3187D
:104BA000032D00D8FBE02A1F5968D2001F20904037
:104BB00081431F20074097400F435F60E768082D3F
:104BC00000D9F7E0032F00D9F9E06800854B1A6897
:104BD0007C23D15C49440A68793B1E008640B2437D
:104BE0003B40834013430B602769082D00D9EBE05D
:104BF000012F03D97C497D4802F028FD4B469A6974
:104C000001231900A9408A433B40AB4013434A4665
:104C100093616769072D00D9DBE0012F03D974493F
:104C2000724802F013FD6F487E230268D15C49444C
:104C30000A687D3B1E00AE40B446B2431F40AF4001
:104C400017430F606A001021884690440D390A000E
:104C50004646B240664632437F270668F75D4F44BA
:104C60003E689643A2691A40AA403243E669314041
:104C70004646B1400A433A60016880228A5C4A4451
:104C800016001268FF218A43206A0340606A4700C9
:104C9000022038400343A06A8700042038400343C1
:104CA000E06AC700182038400343206B40010140F0
:104CB0000B43AD00FE2189000D40AB401343336030
:104CC00000200CBC90469946F8BD4E21494802F0A0
:104CD000BDFCF7E64F21474802F0B8FCF6E650214C
:104CE000444802F0B3FCF6E65121424802F0AEFC23
:104CF000F6E652213F4802F0A9FCF5E653213D4873
:104D000002F0A4FCF4E654213A4802F09FFCF3E6DA
:104D10005521384802F09AFCF2E65621354802F057
:104D200095FCF1E65721334802F090FCF0E658215B
:104D3000304802F08BFCEFE659212E4802F086FC49
:104D4000EEE65A212B4802F081FCEDE65B21294872
:104D500002F07CFCECE6CC218900244802F076FCD1
:104D6000EAE62549214802F071FCE8E60123AB4060
:104D70004A465360EAE621491C4802F067FCE9E62E
:104D80001F491A4802F062FCE9E61E49174802F082
:104D90005DFCF7E61C49154802F058FCF7E61A6876
:104DA000E8001F2181408A431F210F40874017439D
:104DB0001F6003E715490D4802F048FC02E714495B
:104DC0000A4802F043FC00E71249084802F03EFCA2
:104DD0000EE71149054802F039FC1EE70F4870E75D
:104DE0000E486EE728B1020873060000CCE10D10F2
:104DF0000D04000068E10D1031030000CD03000038
:104E0000CE0300009102000092020000F1060000B3
:104E1000F2060000720600000C04000001005A00B7
:104E200070B505000C000B4B1A68B423D3581B183F
:104E30001B68002B0BDA0B0C04D12404240C6C60CF
:104E4000002070BD0449054802F000FCF5E7044865
:104E5000F7E7C04628B10208DE02000000E10D10AD
:104E600001008A0070B505000C000368002B0DDA04
:104E7000C2600B0C04D12404240CAC60002070BD73
:104E8000B1218900024802F0E1FBF4E70148F6E7AE
:104E900000E10D1001008A0070B505000C1E0BD05A
:104EA000094B1A68B423D3585B191B68002B08DA26
:104EB000EB682360002070BDA221044802F0C6FB0D
:104EC000EEE70348F7E7C04628B1020830E20D10CC
:104ED00001008A00034B1B68002B00D07047014B78
:104EE0001860FBE75CAE0208F0B5C64600B50600E8
:104EF000884617001D00304B1B68002B3FD02E4BFF
:104F00001C682C2070432418FF231E002E402660AE
:104F10002A0A134063602D0CA560284B1A683123C0
:104F2000D35C9E4230D2254B1B68B0229A5A724302
:104F3000196A8C4662442261656832229B5C9D42FC
:104F400028D21E4B1B681E6A80356D01761966617A
:104F5000A5682B0C24D12B0C27D12D042B0C1D4321
:104F6000B560E761434623620023A361069B002BE3
:104F700002D000229B5EA38104BC9046F0BDBE21FE
:104F80000F4802F063FBBAE7E62149000D4802F042
:104F90005DFBC8E7F42149000A4802F057FBD0E75F
:104FA0000949084802F052FBD5E7822189000548EB
:104FB00002F04CFBD1E7C0465CAE020828B1020803
:104FC00098E20D1000E10D1007020000F0B58FB05F
:104FD000041E43D06368032B45D8E36A002B47D0F7
:104FE000236B002B49D007AA1300210061C961C3BC
:104FF00021C921C302AD290023001433C1CBC1C193
:1050000041CB41C10821535E0CAE33801D4B1B6860
:10501000DB8E079989B25B187380089B0D930B9BFD
:105020000A980096A26AE16AFFF75EFF2B69E868BA
:10503000002200920021FFF757FF216B300002F0A1
:1050400075FA0022B35E002B06DB1F2213401E3AC6
:105050009A4013000C4A13600FB0F0BD5B210B485F
:1050600002F0F4FAB6E75D21084802F0EFFAB4E77F
:105070006121064802F0EAFAB2E76221034802F031
:10508000E5FAB0E728B1020800E100E098E20D106F
:10509000F8B506000F0015001C00002A2DD0234B88
:1050A0001B68002B2FD0214B19682C23300058434C
:1050B00008187B43C918012633004A6893401B0433
:1050C000426896400269002A29D08F69002F28D1B2
:1050D0001268002A27DA2A681204120C13432B6084
:1050E0000369DD6001238B614C620469330C10D1CC
:1050F0003204120CA2600020F8BD832149000C4844
:1051000002F0A4FACBE70821FF31094802F09EFA29
:10511000C9E7B1218900074802F098FAE8E7064894
:10512000EAE70648E8E70548E6E7C0465CAE02085D
:1051300098E20D1000E10D1004028A0007028A00B7
:10514000F8B507000E001500104B1B68002B0FD0A0
:105150000E4B1C682C2078432418236A002B0DD09A
:10516000E369AB4210D9236AAD005E510020F8BD5F
:105170006821FF31064802F069FAE9E76C21FF3146
:10518000034802F063FAEBE70248F0E75CAE02087E
:1051900098E20D100A028A0070B582B00400002364
:1051A0000193002813D02369002B16D06369002BCC
:1051B00019D0236A002B1CD06269D5682B0C1ED134
:1051C0002D042D0C41D163691B6802B070BDED2127
:1051D0004900264802F03AFAE5E7DC21FF3123488E
:1051E00002F034FAE2E7EE214900204802F02EFAFC
:1051F000DFE7DE21FF311D4802F028FADCE71B045F
:105200001360136820691A4B1A68B423D3581B180B
:105210001B68002BD4DA01A9FFF73EFE00280ED14F
:1052200001980268160CFF231340E2699A4207D9DD
:105230009B00226AD358002B02D0984700E000263A
:1052400031002069FFF7ECFDBAE763691D601B6858
:10525000636A002B05D09847002363620023A36193
:10526000B1E7A36A002BF9D09847F7E798E20D1051
:1052700028B1020810B50400084B1B68002B07D0AA
:10528000064B18682C236343C018FFF785FF10BD39
:10529000DD214900024802F0D9F9F1E75CAE0208CD
:1052A00098E20D1070B505000C00244B1A683123EC
:1052B000D35C83423AD900293AD00B68DB0639D156
:1052C0003123D35C984225D21C4B1A68136AB02153
:1052D000525A55435D191A4E35602368DA08002189
:1052E000606803F0D1F900212800FFF799FD3568C7
:1052F000002C15D0220000212800FFF7B3FD002864
:105300001AD10F4B18680021FFF78AFD00280ED034
:105310000C480CE0E62149000B4802F097F9D3E76E
:10532000E7218900084802F091F9E3E7074870BDDA
:105330000648FCE70548FAE70248F8E728B1020802
:1053400060AE020801018A0000E10D1003018A002D
:10535000F0B583B00D00194B1B68DE6833688342DB
:105360002AD947091F2318400124844000290CD062
:1053700000230193114B18680368002B09DB104CC4
:10538000002D15D0200003B0F0BDFFF732FA0190D8
:10539000F0E77268BB00D3181A68144206D0A24323
:1053A0001A6000240021FFF73BFDE9E7054CF9E70F
:1053B0000198FFF722FAE5E7034CE3E760AE020845
:1053C000030188000201880004018A000A4B1B685F
:1053D000DB681A6882420DD941091F2210401E3A2B
:1053E0008240586889000B581A4201D1034802E0F4
:1053F000034800E00348704760AE020800018800DF
:105400000101880004018A0070B504000D00144BEE
:105410001B689B6CC340DB0716D50F2D19D80F23D3
:105420001A002A402904F020000301400C480068BB
:105430000A431034A402016962500269A258134061
:10544000AB420BD1002070BDA721064802F0FEF848
:10545000E3E7A821034802F0F9F8E0E70248F2E7A1
:1054600028B1020800E30D100300C20010B50400CB
:10547000094B1B689B6CC340DB0708D5064B1B68B8
:105480001B691034A402E3580F20184010BDC72137
:10549000024802F0DBF8F1E728B1020800E30D1042
:1054A00070B505000C00002837D06389DB0B3AD1BA
:1054B000A379012B01D0032B3BD1E379012B01D040
:1054C000032B3CD162897F23110099430B1E3ED1EF
:1054D000A17907330B40E079C000382101400B432C
:1054E000217A012041408901402001400B435202B2
:1054F00019490A401343627A92078021C9050A407C
:105500001343164A1A409A4223D16B626A6A1349BE
:105510000A409A4219D100201CE07A21FF3110483C
:1055200002F094F8C1E7BD2149000D4802F08EF861
:10553000BEE77C21FF310A4802F088F8BDE7BE21B2
:105540004900074802F082F8BCE7064802E0064836
:1055500000E0054870BDC04600FEFF00DBFEFFE036
:1055600000E30D100300C2000100C20070B5050089
:105570000C00002843D06389DB0B46D1A379072BAD
:1055800049D8E379072B4CD82379073BDBB2182B9A
:105590004DD862897F23110099430B1E4FD1617949
:1055A000FF33206898430143A07907230340E6793D
:1055B000F600382030400343207A012670408001F5
:1055C00040263040034352021F48024013432279D1
:1055D0001206F820400502401343627A92078020A9
:1055E000C005024013436B6029602A688A4228D1B3
:1055F0006A6816490A409A421FD1002022E0C2215F
:10560000FF31134802F022F8B5E7E12149001048C4
:1056100002F01CF8B2E7C421FF310D4802F016F881
:10562000AFE7E22149000A4802F010F8ACE7C621D2
:10563000FF31074802F00AF8ABE7064802E00648E7
:1056400000E0044870BDC04600FEFF00FFFEFFFF03
:1056500000E30D100300C2000100C20010B5041EDB
:1056600009D0626A80231B0613436362636A002BBE
:1056700007DA002010BDFF214900034801F0E6FFD2
:10568000EFE70248F6E7C04600E30D100300C20052
:1056900010B5041E09D0626880231B0613436360A3
:1056A0006368002B06DA002010BD0349034801F0AF
:1056B000CDFFF0E70248F7E74E02000000E30D10CF
:1056C0000300C20070B505000C0000283AD0A37991
:1056D000012B01D0032B3AD1E379012B01D0032B0D
:1056E0003BD1244B1A682F23D35C012B3CD1628918
:1056F0007E33110099430B1E38D1A17907330B403B
:10570000E079C000382101400B43217A012041405B
:105710008901402001400B43520217490A401343BC
:10572000627A92078021C9050A401343134A1A403E
:105730009A421DD16B626A6A10490A409A4211D19D
:10574000002012E00E490F4801F080FFBFE7A521BD
:10575000C9000C4801F07AFFBEE70B49094801F087
:1057600075FFBEE7094800E0094870BD0948FCE73D
:105770000848FAE728B1020800FEFF00DBFEFFE060
:105780002705000000E30D10290500000300C200FA
:105790000200C2000100C20070B505000C00002824
:1057A0004AD0A379032B4CD8E379032B4ED8237925
:1057B000073BDBB2182B4ED82F4B1A682F23D35C34
:1057C000012B50D162897E33110099430B1E4CD1BD
:1057D0006179FF33206898430143A0790723034090
:1057E000E679F600382030400343207A01267040E5
:1057F00080014026304003435202204802401343B8
:1058000022791206F820400502401343627A92077B
:105810008020C00502401343194A1A409A4226D1FB
:105820006B6029602A688A4223D16A6814490A4059
:105830009A4216D1002017E01249134801F006FFE2
:10584000AFE71249104801F001FFADE710490E48DB
:1058500001F0FCFEABE7AF21C9000B4801F0F6FEFA
:10586000AAE70C4800E00C4870BD0C48FCE70B4868
:10587000FAE70848F8E7C04628B1020800FEFF0032
:10588000DBFEFFFF7505000000E30D10760500004C
:10589000770500000300C2000200C2000100C20040
:1058A00010B5041E0FD00C4B1A682F23D35C012BAC
:1058B00010D1626A80231B0613436362636A002B64
:1058C00006DA002007E00549054801F0BFFEEAE7D7
:1058D000044800E0044810BD28B10208BD050000DE
:1058E00000E30D100300C2000200C20010B5041E48
:1058F0000FD00C4B1A682F23D35C012B10D1626898
:1059000080231B06134363606368002B06DA0020C4
:1059100007E00549054801F099FEEAE7044800E080
:10592000044810BD28B102081606000000E30D105F
:105930000300C2000200C20070B505000C00002880
:1059400036D02378032B38D86378032B3AD8244BEE
:105950001A682F23D35C012B3BD1A2887E33110020
:1059600099430B1E37D1217807330B406078C00074
:10597000382101400B43A17801204140890140209A
:1059800001400B43520217490A401343E278920741
:105990008021C9050A401343134A1A409A421CD178
:1059A0006B626A6A10490A409A4210D1002011E0E5
:1059B0000E490F4801F04AFEC3E70E490C4801F0BA
:1059C00045FEC1E70C490A4801F040FEBFE70B481D
:1059D00000E00B4870BD0B48FCE70A48FAE7C046F8
:1059E00028B1020800FEFF00DBFEFFE056080000C1
:1059F00000E30D1057080000580800000300C20023
:105A00000200C2000100C20070B505000C000028B1
:105A100036D02378032B38D86378032B3AD8244B1D
:105A20001A682F23D35C012B3BD1A2887E3311004F
:105A300099430B1E37D1217807330B406078C000A3
:105A4000382101400B43A1780120414089014020C9
:105A500001400B43520217490A401343E278920770
:105A60008021C9050A401343134A1A409A421CD1A7
:105A70006B606A6810490A409A4210D1002011E018
:105A80000E490F4801F0E2FDC3E70E490C4801F052
:105A9000DDFDC1E70C490A4801F0D8FDBFE70B481E
:105AA00000E00B4870BD0B48FCE70A48FAE7C04627
:105AB00028B1020800FEFF00DBFEFFE0A70800009F
:105AC00000E30D10A8080000A90800000300C200B0
:105AD0000200C2000100C20010B5041E0FD00C4B22
