:020000041000EA
:10000000000001083FA401100D000000B90300101A
:1000100000000000000000000000000000000000E0
:10002000000000000000000000000000B583011087
:100030000000000000000000398401104584011018
:1000400099A4011099A4011099A4011099A4011078
:1000500099A4011099A4011099A4011099A4011068
:1000600099A4011099A4011099A4011099A4011058
:1000700099A4011099A4011099A4011099A4011048
:1000800099A4011099A4011099A4011099A4011038
:1000900099A4011099A4011099A4011099A4011028
:1000A00099A4011099A4011099A4011099A4011018
:1000B00099A4011099A4011099A4011099A4011008
:1000C00010B5064C2378002B07D1054B002B02D02E
:1000D000044800E000BF0123237010BD181700087A
:1000E000000000006CB90210044B10B5002B03D0C7
:1000F0000349044800E000BF10BDC04600000000F6
:100100001C1700086CB90210164B002B00D1144BC1
:100110009D46402292029A1A924600218B460F4633
:100120001348144A121A1EF043F80F4B002B00D04C
:1001300098470E4B002B00D0984700200021040068
:100140000D000D48002802D00C4817F0F1FB1DF0FF
:1001500037FC2000290017F0A3FF17F071FDC046FF
:1001600000000800000001080000000009800110E4
:10017000181700083C9100083179011000000000B8
:1001800010B5041E04D154220E490F4817F0EAFAA4
:100190000E4819F0BBF9206200280ED00C4B0D4A16
:1001A0009C60236100210C481AF018F86060002858
:1001B00007D1632203490948E8E759220149084861
:1001C000E4E710BD084602101E460210CC4602109D
:1001D000C4000008E4000008E50100107F4602109A
:1001E00039460210F0B591B02C22002105A81DF06F
:1001F000DFFF8020000600F099FE1022030010426D
:1002000004D150495048223217F0ACFAFA2040008D
:1002100018F02AF9102005A900F090FE0698002891
:1002200008D001F043F90300421C03D03B224549AA
:100230004648E9E7059B022B26D0032B01D0012B72
:100240007BD10C9B0293002B1AD10D9B0293002BA8
:1002500016D10E9B0293002B12D10F9B0293002B01
:100260000ED1089B0293002B0AD1099B0293002B0D
:1002700006D10A9B0293002B02D10B9B002B57D077
:100280006D223049324814E0089B0293099B039386
:10029000039A029B94460A9A63449B180B9A9B18F4
:1002A0000292162B02D10C9B142B04D04522254917
:1002B000284817F057FA1E201DF0AEFB041E03D18C
:1002C0004B2220492448F4E71E2200211DF070FF34
:1002D0002700002505ABAE009E19F3683A002900FF
:1002E000069800F09DFFF368834205D000905322EA
:1002F00014491A4817F036FA0135FF18032DE9D1D1
:10030000210017481EF044FA051E03D05B220D4958
:100310001448CEE7144E069F30001EF085FA3200D6
:10032000431C2900380000F0A5FF20001DF07EFBD3
:100330000021069800F0F6FF5BE7732201490B48A5
:1003400062E7C046244702102F47021058470210A8
:100350003748021091470210D1470210F2470210AD
:1003600004470210154802101A4702108148021073
:1003700070B5041E04D1652209490A4817F0F2F944
:10038000094D2800FFF7FCFE084801F0BBFA0848B9
:1003900002F09AFB074802F0C9FE2560042070BDF8
:1003A000A4480210B44802100801000830010008F7
:1003B00058010008800100082C4B05E02C4B03E09D
:1003C0002C4B01E02C4BFFE7EFF308802B497246E2
:1003D0000A4201D0EFF309809C46294B1968026854
:1003E0000A60043142680A60043182680A6004319C
:1003F000C2680A600431F0C147460F6004314F46BD
:100400000F60043157460F6004315F460F600431BE
:1004100002690A60083142690A60043182690A602F
:100420000431C2690A60043103462033154E32425A
:1004300000D0043375460D4E354200D148330C468A
:10044000103C2360EFF309820A600431EFF3088265
:100450000A60043172460A600431EFF314820A60C4
:100460006046074900F05EF8FEE70000100000005B
:1004700020000000300000004000000004000000E8
:10048000D04802100002000030B5002585B01A4C9B
:10049000AB002900E2581948013516F0C9FF0D2DAF
:1004A000F5D1A36C16480293636C0193236C0093FF
:1004B000E36BA26B616B16F0BBFF124B124819681D
:1004C00016F0B6FFE36C1B0712D5104816F0B0FF0C
:1004D000236D0F48DB0700D40E4816F0A9FFE36C2C
:1004E0000D485B0700D40D4816F0A2FF05B030BDE3
:1004F0000B4816F09DFFEFE7807F0008644902106B
:100500007249021000ED00E0C1490210CF4902100B
:10051000DE490210EB4902100E4A02101A4A02107C
:10052000FE49021013B50400154816F081FF302C67
:1005300017D0402C1AD0202C1DD1124816F078FF6D
:10054000114C124816F074FFFFF79EFF104816F08A
:100550006FFF00230F4A0093D26B0F49200017F062
:1005600029F90E4816F064FF0D4CEAE70D4816F025
:100570005FFF0D4CE5E70D4816F05AFF0C4CE0E725
:10058000D4480210FD4802103E01FF802A490210A3
:1005900035490210807F0008544902100C490210AE
:1005A0003F01FF80154902104001FF8020490210E1
:1005B0003D01FF80F0B587B005000E0003920028D2
:1005C00004D12C221E491F4816F0ACFE002903D18D
:1005D0002D221B491C48F7E700F084FB00280FD0B0
:1005E000036801930121280016F091FF071EF9D03E
:1005F00000246B88A34206D8582211491348E3E728
:1006000001235B42EDE70023059323043B43009362
:10061000230102936B682201981805A9009A16F02D
:1006200063FF002801D10134E3E76B68029A009868
:100630009B18019ADE605A60039A9A6007B0F0BD79
:100640005E4A0210A64A0210504C0210C04A021024
:1006500037B5051E04D161221C491D4816F062FE03
:10066000002903D1622219491A48F7E742880B0C86
:100670009A4205D8009218496822184817F072F873
:100680001C0143681B598B4205D00B006C22124998
:10069000134817F067F800F025FB00280DD002681A
:1006A0006B681B19596891420AD09968914207D02A
:1006B000762209490B4817F055F801225242EFE71C
:1006C00000225A609A601A6037BDC0465E4A021026
:1006D000A64A0210C44A0210264A0210E04A02103A
:1006E0002C4B0210674B021037B5051E04D1812236
:1006F0001D491E4816F016FE002904D184221C490B
:100700001C4817F02FF842880B0C9A4205D800922B
:1007100017498A22184817F025F81C0143681B590D
:100720008B4205D00B008E221149144817F01AF89D
:1007300000F0D8FA00280CD002686B681C196368B6
:10074000934209D0A368934206D0982208490C48E6
:10075000D7E701225242F0E7E068002803D19D224A
:1007600001490848C6E73EBD5E4A0210A64A02108B
:10077000424A0210A34B0210E04A02102C4B021016
:10078000E04B02102E4C0210F0B5002106000D4B7C
:100790005D681B6810338D4201D1002010E00022FB
:1007A0005F68BA4202D101312833F4E71868540176
:1007B00000190468A64201D00132F2E70028F2D005
:1007C000F0BDC046D801000870B50D000121836856
:1007D00004004942186A18F0AFFE5722002820D1C1
:1007E000E369002B0DD1A561A368E56161685868D4
:1007F00019F01EFD002806DA66220C490C4816F096
:1008000091FD1D61F0E76368034203D16722074948
:100810000848F4E7A368186A18F0A4FE002803D07B
:100820006B2202490448EAE770BDC046074F021038
:100830005C4F0210784F02104A4F0210F0B50500CD
:1008400085B00E1E04D170224249434816F06AFD5D
:10085000FFF79AFF041E05D12B0074223F49404840
:1008600016F080FF0369002B0ED13268C1688A42FE
:1008700010D90293E3687A220193236837490093E1
:100880003848336816F06EFF012B03D13268C16817
:100890008A42EED100F026FA071E07D1237D002BF5
:1008A0001ED12368382230493048D9E781690029B0
:1008B0000BD00022C069236882420BD13A682A49D2
:1008C00000922B48462216F04DFF03683D22264930
:1008D0002848C5E795004D599D4201D00132EBE70C
:1008E0003A000C21300000F01FFA002804D18122C8
:1008F0001A49214816F036FF204B0021986918F05C
:1009000083F9051E10D11E4BB0687360002F07D00D
:1009100018F092FF002805D08A220E49194895E761
:1009200000F082FE05B0F0BDA36801001A68164809
:10093000FFF740FE0023154A706029002F606C60AD
:10094000EE60AB602B61AA82AB752000FFF73CFF25
:10095000E8E7C046074F0210A34D02108A4C021070
:10096000B64D0210D34D02106A4C02102C4E0210EC
:10097000994E0210634E0210D74E0210D8010008A3
:10098000010000804A4F0210E0010008010200004F
:10099000F0B510248DB004AD0F0022000021060038
:1009A00028001DF005FC002108AA012008910991EA
:1009B0000A950B940197029118F002FF039000280A
:1009C00004D1B7220E490F4816F0CCFE01A9300021
:1009D000FFF734FF01210398494218F007FFBD22B9
:1009E000002805D1039818F05BFF002804D0C0222E
:1009F0000549064816F096FC02980DB0F0BDC046B9
:100A00009C4C02106B4D0210074F02104A4F02100F
:100A100070B50D1E04D1C9221F49204816F082FC72
:100A200001001F48FFF760FE041E03D1CB221A49C4
:100A30001C48F3E702681821280000F075F9002827
:100A400004D1CE221849194816F08CFEA37D012B43
:100A500011D180231B062B6123686869002B02D10A
:100A600000F0E2FD70BD18F0E7FE0028FAD0D822B1
:100A700009490F48D2E7200004221530032100F075
:100A800009F902232375E5600FCD00F0E9F8210094
:100A90006068FFF799FEE5E7074F0210A34D0210CB
:100AA000E0010008E8530210A84C0210DA4C0210D2
:100AB0004A4F0210F0B5102491B00F00160000212B
:100AC0002200050002A801931DF072FB002102AB79
:100AD0000893019B06AA0C93169B0120069107918F
:100AE00009940A970B960D930E9118F069FE0F90DA
:100AF000002805D1832210495200104816F032FE1A
:100B00000AA92800FFF784FF01210F98494218F035
:100B10006DFE002805D0862252000949094816F0CA
:100B200001FC0F9818F0BCFE002802D01022FF3202
:100B3000F3E70E9811B0F0BDB74C02106B4D0210E8
:100B4000074F02104A4F021070B50D1E05D18C22BE
:100B500014491548520016F0E5FB01001348FFF751
:100B6000C3FD041E04D11C220E49FF321048F2E7D7
:100B700002680821280000F0D7F8002805D18F224C
:100B80000C4952000C4816F0EDFD200003211530F1
:100B900000F098F80323E560237521006068FFF7F3
:100BA00013FE70BD074F0210A34D0210E0010008B4
:100BB000E8530210C04C02103D4D021070B5040005
:100BC0008AB0002832D0102502AE2A000021300061
:100BD0001DF0EEFA002106AA012006910791089661
:100BE0000995009418F0ECFD0190002805D1A12290
:100BF0000F4952000F4816F0B5FD69462000FFF777
:100C0000A3FF01210198494218F0F0FD002805D00A
:100C1000A42252000849094816F084FB019818F0F4
:100C20003FFE002802D04C22FF32F3E70AB070BD2D
:100C3000D04C0210074D0210074F02104A4F02100D
:100C400010B5FFF7A1FD041E01D1002010BD00F07A
:100C500049F8002802D1237D002BF6D0E068F5E7A3
:100C60001FB5002801D1002906D1002A01D1002B8F
:100C700002D1CC18042C08D90293019200910300F0
:100C800026220249024816F06DFD1FBD924F021048
:100C90009250021030B50F2485B06C440D002170C5
:100CA000210016F00DFC002806D123782F22009594
:100CB0000249034816F056FD05B030BDA14F0210A1
:100CC000CB4F021007B50378DBB2994205D00091F3
:100CD00038220249024816F045FD07BDB64F021002
:100CE000CB4F021070B519F08FFA002808D00022FF
:100CF0000A4B5C681B68944207D10021080070BD54
:100D00005E220749074816F00DFB190028331D0025
:100D1000243D2D688542F1D00132ECE7D80100086E
:100D2000335002101350021010B5031E1DD00123C2
:100D300000291AD041184C1E0023A04215D89A420F
:100D400015D1144A904210D9134B984203D8134A34
:100D50000123914209D9124B124AC0180023904234
:100D600003D8114A8A425B41DBB2180010BDF82358
:100D70000E4A1B06C318934203D80D4A0123914221
:100D8000F3D9F0230B4A1B06C01800239042ECD87D
:100D9000094AE7E7FFFF0008FF7604080077040828
:100DA0000000F8EFFF7F070000800F10FFFF00003A
:100DB00000000108FFFF07000000081010B519F03F
:100DC00015FD0E4A18210A2017F008FF0C4CA061EF
:100DD000002803D10B490C4816F0C4FC0B4A28210B
:100DE0000A2017F0FBFEE061002802D105490848FF
:100DF000F2E72000FFF7BCFA606010BDC0010008F8
:100E0000D8010008E4500210F1500210A8010008B7
:100E10001D51021010B5024B186800F027FDFAE7CB
:100E2000F8010008F7B507000D001600FFF75AFF9C
:100E3000002804D1CE221B491B4816F073FA082360
:100E4000C268846813431C43002F0AD12A001A4049
:100E5000AA4207D00093DB222B001449144816F055
:100E600081FC2500802332001B069E4201D1012215
:100E700052420221280019F035FA030020001840E0
:100E800098420AD080221206964202D000200233F5
:100E900006D0E72203490748CFE7831C00D1002092
:100EA000FEBDC046085502104B550210AD51021050
:100EB00069550210A4550210F7B50C00010018483E
:100EC00017000193FFF710FC06000068052115309C
:100ED000FFF7F8FE032C05D99E2212495200124852
:100EE00016F040FC731DDB7F0025A34215D9E400FA
:100EF0003619B568019B9D4200D91D00002D0CD00C
:100F0000002F04D02A00716838001DF0BFF8736804
:100F10005B197360B3685B1BB3602800FEBDC046FD
:100F2000E8010008BE5102107756021010B5020009
:100F300000210120FFF776FF10BD0000F0B593B04F
:100F400005000391FFF7CEFE061E04D1F9229E494B
:100F50009E4816F0E7F902002C210398FFF7E4FE03
:100F6000002804D1FC229A499A4816F0FBFB2C2257
:100F7000002103981DF01CF9B268002D04D06C1EEE
:100F80002C4001D12A4207D1009284222B0052002A
:100F90008F49914816F0E6FB19F094F928420AD0DF
:100FA0002300726993420BD189222B0088498B4818
:100FB000520016F0D7FB0E228549FF328848D4E74D
:100FC00031695C010C1961688D4201D00133E9E798
:100FD000002CE9D00121A3684942186A18F0ACFA44
:100FE000002803D0AD2278497E48B2E7A569002DDC
:100FF00003D1B3227C497D48B7E72B69A3612861FF
:10100000002B10D1E361606819F046F9002803DA7B
:10101000BF226D4976489CE76368034203D1C02232
:101020006949744895E7A368186A18F09BFAC522C5
:101030000028D8D128002B7D1530022B09D0032B96
:1010400021D00221012B1FD09722614952006A480A
:10105000AFE705220421FFF71DFE2822002108A882
:101060001DF0A6F800222B7D0692022B00D080E016
:101070002A681821E868FFF757FE002807D15B228D
:101080005E495F4871E71900FFF71CFEE5E7EB6872
:101090005F681C689A68DB68390020000493059239
:1010A000FFF7DEFDFBB20693002F2AD1049B002B35
:1010B0005FD0049B2A68D9000598FFF735FE002809
:1010C0004DD0FF0012ABDF193C000027059E243CE9
:1010D00073689C46002B46D02300320003CA03C32A
:1010E000039ABB00D31862466146DA6120682A6819
:1010F000FFF71AFE002836D13B0094223F494148B1
:1011000057E7F9002A682000FFF70EFE00260028A6
:1011100007D16B2239493C4827E701360834B742EA
:10112000C4D063689C46002BF7D0200008AAF300C7
:10113000D31807931A1D0AC80AC263460398B2005F
:101140008218D360079B2A6861465868FFF7ECFD58
:101150000028E2D133007C2228492C4829E7832249
:1011600026492B4801E7049B013708360834BB4267
:10117000AED10121274B4942D86917F045FD011E28
:1011800003D19D221D492448EFE60D2306AA9B1892
:10119000069A0895DA77020008AB51CB51C251CBC1
:1011A00051C251CB51C21B681C4813600022FFF78B
:1011B00001FA2B7D039A1360AB6804931300049A21
:1011C00058609A6013B0F0BD085502104B550210DC
:1011D000B6510210E8510210045202106A52021075
:1011E0004E5202104A4F02108F510210B852021094
:1011F0005C4F0210784F0210D85202107B5102103F
:10120000085302108F5302102D5302104C5302103A
:101210006F530210D8010008B3530210E801000810
:10122000F8B5140006000F001D00FFF75BFD021E5D
:1012300005D158220B49FF320B4816F073F82900EC
:101240002000FFF771FD002805D1AD2207495200AB
:10125000074816F087FA2B00390030002200FFF70C
:101260002BFEF8BD085502104B550210CB51021051
:10127000FF530210F7B507000C0016001D1E41D0E9
:10128000FFF730FD021E05D16D32FF321E491F48A7
:1012900016F048F829003000FFF746FD002805D178
:1012A00070221B491B48FF3216F05CFA39001A48BD
:1012B000FFF71AFA0700006805211530FFF702FD55
:1012C0007B1DD97F0C19032C04D9BC221049520074
:1012D0001248E9E7E4003C19A368AB4207D27E223A
:1012E0000093FF322B000A490D4816F03BFA2A0002
:1012F000310060681CF0CAFE63685B196360A36814
:101300005D1BA560F7BDC046085502104B55021085
:10131000D4510210FF530210E80100081F560210BA
:101320003A560210F7B507000D0001005248FFF7CA
:10133000DBF904680600002C05D18C224F49504887
:10134000FF3215F0EFFFE368002B04D1C6224B49B2
:1013500052004C48F5E739004748FFF779F9282251
:10136000002130001CF024FF474F3100F86917F0CE
:101370006BFCCB22061E00D07CE0200023681530D9
:101380000193237D022B37D0032B4ED0012B67D145
:101390003E4B002D08D09D4206D0A0222B003C4998
:1013A0003C48FF3216F0DEF9E668B26800929D42D2
:1013B0001AD10221FFF786FC71683748FFF748F918
:1013C0001822002120001CF0F3FE2100B86917F05C
:1013D0003BFCD92200284DD17560019B0098002B61
:1013E00043D100F021F9F7BD03220221FFF752FC9F
:1013F0000023E3602375F0E7284BEB187E2B05D81C
:10140000E0222B00520022492548CBE70322052188
:10141000FFF740FC80231B069D4201D10123A375E9
:10142000E3681D615B690093E2E7E56819006A689B
:1014300000920122FFF72EFC29681748FFF708F9F0
:101440003100182220001CF0B3FE2100B86917F00B
:10145000FBFB0028C1D0E222FF320849114870E7A7
:10146000EA220B49FF3210489CE718F0E5F9002802
:10147000B9D0FB225200F0E7E8010008085502103D
:101480001E5402103C540210D801000801000080D4
:10149000DE51021063540210E0010008FFFFFF7FDD
:1014A0009D5402104A4F0210D4540210010010B58E
:1014B0000948FFF719F90368002B04D1074A0849C6
:1014C000084815F02FFF1B68002B01D0186810BDCD
:1014D00001204042FBE7C046E80100081E02000070
:1014E00008550210DC53021010B50C00010003482F
:1014F000FFF7FAF803689C6010BDC046E8010008D9
:101500000C4B10B51B68586918F096F9002802D0EA
:101510004422C31C09D1084B1B68186918F08CF9C8
:10152000002806D0C31C04D047220449044815F003
:10153000F9FE10BDFC010008F80100081A5702105E
:101540007857021010B519F0C7F910BD10B519F091
:10155000C3F910BDF0B5264B95B0264C264D382268
:10156000002106A80293039404951CF021FE234B4E
:101570003C2205A9200005931CF088FD3C2205A90A
:1015800028001CF083FD0C2202A91D481CF07EFDE2
:101590001C4817F0BBFF061E04D19F221A491B48A6
:1015A00015F0C0FE1A4A0021012018F009F9071EA3
:1015B00003D1A22214491748F2E7174A002101205B
:1015C00018F0FEF80190002803D1A5220E49134817
:1015D000E6E713483B0032002900006800F072F88B
:1015E000104B019A2100186800F0AAF815B0F0BD60
:1015F000779A333D0C770408487704080C4A28632F
:1016000000770408B85602101A570210D856021074
:10161000A0560210EC560210C856021003570210D2
:10162000FC010008F80100081FB504000C2200218D
:1016300001A81CF0BDFD0021034822000B0000683A
:10164000029400F0B1F81FBDFC01000830B585B070
:10165000019001380C00029115000392032824D850
:1016600020F002FF02070B0F1000FFF7E7F805B0AC
:1016700030BD1000FFF7CCF9F9E71000FFF764FA6E
:10168000F5E7002208212000FFF74EFB002804D1D7
:101690006C220849084816F065F82800FFF7D0FAD0
:1016A00020606068FFF7C0FFE1E775220349044846
:1016B00015F038FE91560210085302101A57021006
:1016C000B056021070B5002804D1242214491548E0
:1016D00015F028FE002903D1252211491248F7E709
:1016E000124C0D68A54203D026220D491048EFE7A1
:1016F000002A03D127320A490E48E9E7002B03D11B
:10170000282207490C48E3E70C4C026104600C1DD9
:1017100044600C3104348460C160436170BDC046D4
:10172000C45702100E5802101C5802100C4A2863AD
:1017300033580210DE560210EC560210FFD948A2B0
:1017400010B5002804D137221049114815F0EAFDE0
:10175000002903D138220D490E48F7E70E4B0C68DB
:101760009C4203D0392209490C48EFE7002A03D1F3
:101770003A3206490A48E9E70A4B026103600B1D49
:1017800043600C3104338360C16010BDC457021044
:101790000E5802101C5802100C4A286333580210CD
:1017A0000957021042658BA6F0B585B001AD041E45
:1017B00001916A60AB6004D147222649264815F0A2
:1017C000B1FD264B02689A4203D0482221492448A1
:1017D000F5E701210069494217F0AEFE002826D145
:1017E000FA2703267F00A26861681368086801333E
:1017F0008C46334083421ED00C2310684343E0687C
:10180000C31883CD83C31368013333401360634629
:101810001B68126801333340934201D1FFF792FEF7
:10182000206917F09FFE002811D05D2200E04B22B6
:1018300008490C48C3E73900606917F0D7FF022355
:1018400002309843CFD0502202490748B7E705B08D
:10185000F0BDC046C45702100E580210FFD948A26E
:101860008A5802104A4F0210B3580210F0B5050012
:1018700085B0002804D163221D491E4815F052FD91
:101880001D4B02689A4203D0642219491B48F5E7B0
:10189000FA210069490017F0A9FF0223023098439A
:1018A0001DD0682212491648E8E70C211368E86841
:1018B0004B4301ACC3182000C2CBC2C00321136844
:1018C00001330B40136063461B68126802330B4000
:1018D000934201D1FFF73AFE07CCFFF7B7FEAB68A2
:1018E0006A689C4610681B689842DED105B0F0BD5E
:1018F000C45702100E58021042658BA661580210A0
:10190000B358021010B5041E04D1D4221249134852
:1019100015F028FF124817F0F9FD0B212062114A3B
:10192000002803D1D9220C490F48F1E74B01D31A03
:101930006933FF3301391C600029F7D122610B485C
:101940000B4A18F04BFC6060002803D1E3220249E7
:101950000848DDE710BDC046E85802101E460210D8
:101960008C5902100002000808590210AD1B00102B
:101970006003000848590210084B5A68904204D08E
:101980001A690121904201D0704700210C224A437C
:10199000002199509B1859601972F5E7685E00089C
:1019A00070B596B02C2200210BA81CF001FC802001
:1019B0000BA98001FFF7C2FA0B9E022E17D0032E4F
:1019C00000D1CFE0012E00D0D5E0FC21300049004D
:1019D0001BF096FC0924011E03D00C98FFF784FD30
:1019E000002421000C98FFF79DFC16B070BD08ADD7
:1019F0000C22002128001CF0DBFB0E9B0B240C2B7F
:101A0000EFD12A0000210C98FFF70AFC0E9B0593EA
:101A1000834204D05B4A5C495C4815F0A3FE2878F9
:101A20002A38052800D99BE020F01EFD03122C481F
:101A30004C81002307A90D98079304F075FC041E40
:101A4000CFD10100042307AA0C98FFF713FCC8E7C5
:101A5000129E012031001BF053FC051E01D1092408
:101A6000BFE7010032000D9804F062FC041E05D1AE
:101A7000010033002A000C98FFF7FCFB28001BF044
:101A8000D5FFAEE70F9B06AA01210C98FFF7C8FB14
:101A9000042801D03E4ABEE7109B07AA02210C98F9
:101AA000FFF7BEFB042801D03A4AB4E768880D9BD3
:101AB000079A069904F0A8FD040092E70D9804F037
:101AC000EBFBF9E70F9901201BF01AFC041EC6D0AE
:101AD0000F9B020001210C98FFF7A2FB0F9B0593BF
:101AE000834201D02C4A96E7109901201BF008FC94
:101AF000061E03D120001BF099FFB0E7109B0200E7
:101B000002210C98FFF78CFB109B834201D0234AE3
:101B100081E76988AA6802930F9B0392009301965C
:101B200005936A6823000D9804F098FDC4E70F99A7
:101B300001201BF0E5FB041E91D00F9B0200012148
:101B40000C98FFF76DFB0F9B834201D0144A62E7AC
:101B50006A6869880D980092220004F0B7FDABE72F
:101B600034003EE700240D9804F096FB0D98A04247
:101B700000D084E735E733000A4A03490A4815F0E4
:101B8000F1FDC046490500009A5A0210BA5A0210E7
:101B9000740500007A050000910500009E05000014
:101BA000B7050000D405000081480210F0B5A5B0CB
:101BB00080200006FFF7BAF910220990104224D0C5
:101BC0001C32002119A81CF0F3FA19A91020FFF704
:101BD000B5F9199B022B05D0032B01D0012B5ED147
:101BE00000240EE004F054FF041E0AD1C24A136818
:101BF00001331360012B04D101001822BF481CF0EF
:101C0000D7FA21001A98FFF78DFB2024099B234265
:101C100021D02C22002119A81CF0CAFA19A92000F1
:101C2000FFF78CF9199E022E3ED0032E00D1E5E07D
:101C3000012E00D0EAE0B421300049001BF060FB27
:101C4000011E00D1E7E01A98FFF74EFC00242100A6
:101C50001A98FFF767FB4024099B234200D10AE151
:101C60002C22002119A81CF0A3FA19A92000FFF7C3
:101C700065F9199D022D00D1CFE0032D00D137E287
:101C8000012D00D040E2E02128001BF039FB011EAD
:101C900000D13EE21A98FFF727FC0024E7E08322F8
:101CA0009749984815F05EFD10AD082200212800E4
:101CB0001CF07EFA1C9B0B24082BC8D12A000021A3
:101CC0001A98FFF7ADFA1C9B0A93984204D0CD22D4
:101CD0008D498E4815F046FD28781538052800D91D
:101CE00088E020F0C1FB030A1029588369886A68DC
:101CF0001B9803F009FD0400A9E769886A681B982E
:101D000003F007FDF7E71D9901201BF0F9FA051E06
:101D100072D002001D9B01211A98FFF781FA1D9BCA
:101D200002000A93984201D0EA22D1E729001B98C9
:101D300003F0F4FC04002AE000241D9B0DAA0121FD
:101D40001A980D94FFF76CFA1D9B0A93984201D0E4
:101D5000FA22BDE70D9901200E941BF0D1FA092457
:101D6000051E00D173E701000EAB0D9A1B9803F01E
:101D700003FD041E0BD101000E9B2A001A98FFF7E9
:101D800079FA04230EAA01211A98FFF773FA2800A2
:101D90001BF04CFE5BE700230EAA0E9301211D9B56
:101DA0001A98FFF73DFA1D9B0A93984203D11E999A
:101DB0000E9B994202D08B22520089E701201BF032
:101DC0009FFA051E18D01E9B020002211A98FFF7E9
:101DD00027FA1E9B0A93984202D02222FF3277E70D
:101DE0000E9A29001B9803F0F0FCA3E71B9803F060
:101DF0006BFB80E734002AE7092428E700241B98BE
:101E000003F062FB1B98A042C2D120E744223300BA
:101E1000FF323D4945E73E4C19E710AE082200214C
:101E200030001CF0C5F91C9B0B24082B1FD132007D
:101E300000211A98FFF7F4F91C9B0A93984203D0EB
:101E4000B4225200334944E730780E38062800D9CE
:101E50004AE120F013FB070061007F00B100DC00C5
:101E6000E1001B0171681B9802F0CEFE0400210006
:101E70001A98FFF757FA8024099B6400234221D067
:101E80002C22002119A81CF093F919A92000FFF7B2
:101E900055F8199D022D00D13DE1032D00D101E23D
:101EA000012D00D006E24C2128001BF029FA011E6A
:101EB00000D103E21A98FFF717FB002631001A98A9
:101EC000FFF730FA8024099B234200D16FE22C22D5
:101ED000002119A81CF06CF919A92000FFF72EF8B1
:101EE000199D022D00D1EBE1032D02D0012D00D070
:101EF000F8E2002457E2C046805E0008685E0008F1
:101F0000B859021081480210EC590210BA5A021056
:101F100001000080FE5902101D9901201BF0F0F90C
:101F2000051E00D1E2E002001D9B01211A98FFF777
:101F300077F91D9B02000A93984202D07E22FF325D
:101F400080E729001B9802F09FFE040028001BF088
:101F50006DFD8CE700241D9B0DAA01211A980D949C
:101F6000FFF75EF91D9B0A93984201D0C62268E7ED
:101F70000D9901200E941BF0C3F90924051E00D110
:101F800075E701000EAB0D9A1B9802F087FE041E48
:101F90000BD101000E9B2A001A98FFF76BF904235E
:101FA0000EAA01211A98FFF765F928001BF03EFDE3
:101FB0001B98FFF7E1FC5AE700230EAA0E930121BC
:101FC0001D9B1A98FFF72CF91D9B0A93984203D189
:101FD0001E990E9B994201D0AA22B0E701201BF066
:101FE0008FF9051E00D181E01E9B020002211A9884
:101FF000FFF716F91E9B0A93984201D0DA2220E7D8
:102000000E9A29001B9803F015FA0400CDE71B98DF
:1020100002F0ACFD0400CBE700241A980E94FFF701
:1020200045FAC84B1B991A680E94904202D15D681C
:10203000A94207D0DD68A84211D11C69A1420ED186
:1020400001240E940C2254431B191A7A00210132E8
:102050001A721A9804230EAAFFF70CF91DE6002441
:102060000E94A24202D15C68002C09D00724002DF6
:1020700000D0FCE61A69002A00D0F8E601320E9280
:102080000C24624398509B185960DEE71D9B0EAAF2
:1020900001211A98FFF7C4F81D9B0A93984201D0BA
:1020A000D8224CE70E9D1A98FFF700FA0724012D5D
:1020B00000D9DCE60C235D43A24FEB59984200D0D7
:1020C000D5E67E197068002800D1D0E61B9903F090
:1020D000CFF9337A0400013BDBB23372002B00D01E
:1020E000C5E6EB517360C2E62C00C0E60924BEE6EB
:1020F00000241B9802F03AFD1B98A04200D1B6E6DE
:10210000FFF73AFC1B9822E7FD222B0052008E4974
:10211000C7E58E4CABE60EAC0822002120001CF077
:1021200047F81C9B0B26082B00D0C7E62200002195
:102130001A98FFF775F81C9B0A93984203D0D22295
:1021400092008349C5E520781B38062800D9A7E00E
:1021500020F08AF9040B112E4481A2006188626884
:102160001B9803F0B9FE0600A8E6618862681B9818
:1021700003F0B7FEF7E70021209C102210A80D9174
:102180001CF016F80DAB220010A91B9803F0CCFE32
:10219000061E00D092E60D9B10AA01001A98FFF7C8
:1021A00069F804230DAA01211A98FFF763F885E660
:1021B0001D9C1022002110A81BF0FAFF230010AA7A
:1021C00001211A98FFF72CF8844201D0614AB8E740
:1021D000220010A91B9803F089FEC4E700231D9E6E
:1021E00001203100209F10931BF08AF8041E12D0AA
:1021F0000200330001211A98FFF712F8864201D03D
:10220000554A9EE7390001201BF07AF8051E04D1DB
:1022100020001BF00BFC092650E610AB01933200A6
:102220000300009721001B9803F0A6FE061E0BD1A9
:102230000100109B2A001A98FFF71CF8042310AA2B
:1022400001211A98FFF716F820001BF0EFFB280079
:102250001BF0ECFB32E60023209D012029001093A7
:102260001BF04EF80926041E00D127E6010010AB32
:102270002A001B9803F0AEFE061E0BD10100109B36
:1022800022001A98FEF7F6FF042310AA01211A98DB
:10229000FEF7F0FF2000DBE71B9803F04FFD62E73D
:1022A0002E000BE600261B9803F048FD1B98B04259
:1022B000CED103E62B00294A2549F2E4234EFDE561
:1022C0001C9B0B240A93102B6DD11A9E10AC10226C
:1022D000002120001BF06CFF1023220000213000A1
:1022E000FEF79EFF1C9B0A93984202D01C4A1D4990
:1022F000EFE420782438032800D9F1E020F0B4F886
:102300000271A5A50023209901200E931AF0F8FF71
:10231000051E6CD01D9901201AF0F2FF041E03D196
:1023200028001BF083FB62E002001D9B01211A982C
:10233000FEF776FF1D9A03000A92904216D00A4AD1
:10234000D5E7C046685E0008FE5902100100008013
:102350003D5A02106F03000086030000CB0300000B
:1023600019020000115A021032020000209A10A92E
:102370000EAE48880A9201920296220000951199A9
:1023800003F054FA041E05D101000E9B2A001A988E
:10239000FEF770FF0423320001211A98FEF76AFF4E
:1023A00028001BF043FB21001A98FEF7BBFF802496
:1023B000099BA400234200D10CE12C22002119A882
:1023C0001BF0F6FE19A92000FEF7B8FD199E022E9B
:1023D00000D18DE0032E02D0012E00D01DE100259A
:1023E000F4E01D9901201AF08BFF061E01D109248B
:1023F000D9E71D9B020001211A98FEF711FF1D9BD2
:102400000A93984201D0BD4A71E71E9901201AF043
:1024100077FF051EEBD002001E9B02211A98FEF7E3
:10242000FFFE1E9A03000A92904201D0B44A5EE772
:102430001D9A60880192009661682A0003F0F4FA00
:10244000040030001BF0F2FAAAE700231D990120D6
:102450000E931AF055FF051EC9D01D9B02000121E5
:102460001A98FEF7DDFE1D9B0A93984201D0A54AFB
:102470003DE7A3682099EB1801200A931AF040FF6A
:10248000061E00D14CE7209F60886168A368E2685F
:102490002478BC460EAF0497262C17D164460192CF
:1024A0000A9A0394009202962A0003F073FB041E1A
:1024B00005D101000E9B32001A98FEF7DBFE0423C3
:1024C0003A0001211A98FEF7D5FEBAE76446019258
:1024D0000A9A0394009202962A0003F0C9FBE6E7E9
:1024E0002C0060E7AD222B0092008749FFF7D9FB53
:1024F0001C9F0B25242F69D11A9D10AC3A00002196
:1025000020001BF055FE3B00220000212800FEF7B2
:1025100087FE1C9B0A93984203D07C4A7C49FFF7B4
:10252000D8FB23783500223B012B4FD800231D997F
:1025300001200E931AF0E4FE061E17D01D9B020028
:1025400001211A98FEF76CFE1D9B0A93984201D058
:10255000704AE3E7E3682099F31801200A931AF020
:10256000CFFE071E04D130001BF060FA09252DE0D4
:10257000E268238960886168944622692478209DF6
:102580000B9323000EAC0694059504970392222B1F
:1025900039D10A9B00960293634615AA01930B9BBF
:1025A00003F090FD051E0BD101000E9B3A001A9816
:1025B000FEF760FE04230EAA01211A98FEF75AFEC8
:1025C00030001BF033FA38001BF030FA29001A985B
:1025D000FEF7A8FE8024099BE400234200D1E0E03E
:1025E0002C22002119A81BF0E3FD19A92000FEF7F9
:1025F000A5FC199B022B15D0032B02D0012B00D078
:102600008AE10024C9E00A9B00960293634615AA5A
:1026100001930B9B03F0C4FDC4E733003E4A3C49E1
:10262000FFF73FFB1C9B0B240A93102B00D0B4E058
:102630001A9C10AD1022002128001BF0B9FD1023B8
:102640002A0000212000FEF7EBFD1C9B0A93984214
:1026500003D0324A3249FFF73CFB287B0238272857
:1026600000D955E11FF00AFF600011011A013C0179
:1026700050017A007E00B700D700330044002800E4
:1026800054015401540154015401540154015401A2
:102690005401540154015401540154015401540192
:1026A0005401540154015401540154015401540182
:1026B000540154015401E60028880EA9209E03F01D
:1026C000F6FC041E69D133000EAA210062E01D9CB5
:1026D0000EAA230001211A98FEF7A2FD844201D020
:1026E000104AB7E728880EA903F0BCFC040054E0A8
:1026F00028880EA9209E03F0CBFCE2E753020000DD
:102700005F0200007D020000115A0210D302000097
:102710002A5A0210E702000021030000ED03000026
:10272000555A0210060400001D9C012021001AF0D9
:10273000E7FD061E00D1EDE00200230001211A98FA
:10274000FEF76EFD844201D0C04A83E7288823004B
:102750003200A96802F07EF9040058E0288802F0EF
:10276000A4F9C3E728880EAA0DA902F0B4F9041E43
:1027700013D1209B0A93032B05D9010004230DAA32
:102780001A98FEF777FD219B0A93032B05D90423A2
:1027900001210EAA1A98FEF76DFD21001A98FEF786
:1027A000C1FD8024099B2401234200D1D3E02C22C7
:1027B000002119A81BF0FCFC19A92000FEF7BEFBA4
:1027C000199B022B00D1ACE0032B02D0012B00D0CF
:1027D000F8E00024BBE0209F012039001AF090FDB2
:1027E0000924061ED9D028880EAB3A00310002F029
:1027F00092F9041E05D101000E9B32001A98FEF7D3
:1028000039FD04230EAA01211A98FEF733FD30008A
:102810001BF00CF9C1E7209F012039001AF070FD70
:102820000924061EB9D028880EAB3A00310002F008
:1028300087F9DEE71D9E0EAA330001211A981E9C1F
:10284000FEF7EEFC864201D0814A03E7814B129AE3
:1028500000269A4211D1B4420FD0210001201AF073
:102860004FFD061E56D00200230002211A98FEF7E3
:10287000D7FC844201D0784AECE6288800943300E3
:102880000E9AA96804F002F866E7280004F0EAF955
:10289000041E00D081E702232A0016E700230DAAB8
:1028A0000D930E9301211D9B1A98FEF7B9FC1D9BF9
:1028B0000A93984201D0694ACCE61E9B0EAA0221D7
:1028C0001A98FEF7ADFC1E9B0A93984202D0942200
:1028D000D200BFE62A000D99686804F0DDF9D7E759
:1028E00000230EAA0E9301211D9B1A98FEF798FC57
:1028F0001D9B0A93984201D0594AABE62A000E99D3
:10290000686804F0B5F9C3E7288804F0E1F9EDE65A
:10291000022442E7092440E799225249D200FFF7F6
:10292000C0F9209E012031001AF0EAFC0924051E9E
:102930000DD0310003F05EFF041E05D1010033000D
:102940002A001A98FEF796FC28001BF06FF8210069
:102950001A98FEF7E7FC8024099B6401234213D0F8
:102960002C22002119A81BF023FC19A92000FEF736
:10297000E5FA199B022B29D0032B01D0012B35D16D
:1029800000211A98FEF7CEFC099B9B0401D5FFF7A6
:1029900007F88024099BE401234201D1FFF708F9DD
:1029A0002C22002119A81BF003FC19A92000FEF716
:1029B000C5FA199B022B1DD0032B01D0012B3FD14F
:1029C000002537E0284A2949FFF76BF9284A1368A0
:1029D000002B01DD013B136011680029D0D11822C2
:1029E00024481BF0E5FB04F037F8C9E7A822224988
:1029F000FFF757F980231C9CDB0008259C4219D85F
:102A0000210001201AF07CFC061E1DD002002300CC
:102A100000211A98FEF704FC844203D0174A184993
:102A2000FFF757F92100300003F0FAFE05003000EF
:102A30001AF0FCFF29001A98FEF774FCFFF7B8F8AB
:102A4000104A0F49FFF72DF90925F3E72304000089
:102A50007504000000000170820400009C04000066
:102A6000AF040000555A021021050000885A0210D8
:102A7000805E0008685E0008D2590210EE04000073
:102A8000725A0210FA04000080235B0103600020E8
:102A900070470000802310B55B01984202D100F01E
:102AA00027FB10BD0048FCE7E8030080BFF34F8F11
:102AB000034B044ADA60BFF34F8FC046FDE7C046C0
:102AC00000ED00E00400FA0510B5041E04D17122E7
:102AD0000F49104814F046FE0F4816F017FD20620B
:102AE000002810D00D4B0E4A9C629C649C602361B0
:102AF00000210C4817F072FB6060002807D180228B
:102B000003490948E6E7762201490848E2E710BD93
:102B1000DA5A02101E4602106C5B02108403000891
:102B2000E4030008BD2B00102A5B0210EC5A0210CF
:102B300010B5FFF7BBFF10BDC36807B5042B02D06B
:102B4000802000060EBD01AA00214068FEF768FB48
:102B50000428F5D10198FFF79DFFF3E773B5C66927
:102B60000500042E0CD101A8FFF78EFF041E05D12D
:102B70000100330001AA6868FEF77CFB200076BDE7
:102B800080242406FAE70000036810B50400022B35
:102B900005D0032B01D0012B07D1002101E088478C
:102BA00001006068FEF7BEFB10BD512201490248DA
:102BB00014F0D8FD945B021081480210F0B58DB07E
:102BC0002C22002101A880271BF0F2FA40253F06A5
:102BD00010263800FEF7AAF90400304207D001A9F8
:102BE0003000FEF7ABF90C4901A8FFF7CDFF20201C
:102BF000044206D001A9FEF7A1F9084901A8FFF790
:102C0000C3FF2C42E5D001A92800FEF797F904493B
:102C100001A8FFF7B9FFDBE75D2B0010392B00108F
:102C2000312B0010094A032390420DD005DC084ADD
:102C3000DB18904208D0042306E0064A01239042A4
:102C400002D000239842F6D1180070470B01FF8094
:102C50000701FF801201FF80F8B53F240021A44640
:102C6000069E154D67463740EF5D4C1CE4B2475455
:102C7000B6091BD13F2702312336C9B206551600CB
:102C80003E40AE5D920946549E06324316004C1CEF
:102C90009B09E4B21E430BD10231C9B20655132978
:102CA00008D9D6220549064814F03CFB2100D9E793
:102CB0002100E4E7F8BDC0464A5C0210C15B021087
:102CC000215C021070B50C4C2378BFF35B8F0B4D69
:102CD000DB070CD4200014F035FE002807D02000BC
:102CE00014F054FE064A0749280014F01FFE28007D
:102CF000054912F0C1FB70BDE8620008F0620008EF
:102D0000C00000086D540110A45B02100020704741
:102D1000F0B58BB0FFF7D6FF284C2060002802D119
:102D2000274814F01FFD0026264D036806960796D7
:102D30000596DB6908AA29009847B0420CD001200B
:102D400007960690069B012B04D81BD1079B039383
:102D5000002B2FD01C48E4E7089B082B01D01B4810
:102D6000DFE7266805A9326801900091976929007C
:102D700006AA3000B847002802D1059B082BE1D0F5
:102D80001348CEE706A92068FFF7C0FF002801D04E
:102D90001048C6E701230790069300222068290007
:102DA000036800925C6906AA0823A047002803D0A4
:102DB0000948B6E70028F0D10BB0F0BD4063000829
:102DC0008A5C0210AB5C0210F75C0210BB5C021064
:102DD000D75C02101E5D0210335D0210F0B5134D7A
:102DE0001F002B6889B004001600002B01D1FFF7EB
:102DF0008FFF012310990220994314D1132203A8B5
:102E00001BF0D6F9009432003B0003A8FFF724FF23
:102E10002868109A036800925C690F9A0E9B03A9B8
:102E2000A047FFF7FFFE09B0F0BDC04640630008B1
:102E3000F0B51F00204B8BB01B6805001600119CDD
:102E4000002B01D1FFF764FF0021132205A81BF01E
:102E5000AFF932003B0005A80095FFF7FDFE164EC6
:102E600003AA306805A90368DB69984700281CD1CC
:102E7000039A109B08259A421AD31B19013DA342BD
:102E800016D39A4214D3109A0290306805A90368A9
:102E9000019202AA00929E69129A2300B04700286C
:102EA00003D1029BA34200D22800FFF7BBFE05001E
:102EB00028000BB0F0BDC04640630008F0B5154DCA
:102EC0001F002B688DB003901600129C002B01D1BF
:102ED000FFF71EFF0021132207A81BF069F9039BCF
:102EE0003200009307A83B00FFF7B6FE286805AA4A
:102EF000036807A9DB699847002807D10123069AD0
:102F000060601A4200D06360059B2360FFF78AFE71
:102F10000DB0F0BD40630008F0B50F4C1F002368F2
:102F200089B005001600002B01D1FFF7F1FE00214A
:102F3000132203A81BF03CF932003B0003A80095C4
:102F4000FFF78AFE206803A903681B6A9847FFF70A
:102F500069FE09B0F0BDC0464063000810B5064CDC
:102F60002368002B01D1FFF7D3FE206803681B699B
:102F70009847FFF757FE10BD4063000870B58AB050
:102F800002900391002B02D10520002A22D102A930
:102F90000491082104260591069307390EAB0E48CB
:102FA000079208930996FDF7F3FC05003000002D09
:102FB00010DD00230322009304A92800FDF77AFD09
:102FC000802304001B06984200D134002800FDF73E
:102FD000F5FD20000AB070BD011A010070B58CB07B
:102FE0000392109A04900591002A02D10520002B2B
:102FF00024D104A9089108218D200426099103A950
:103000000A91400201210B9606920793FDF7C0FC3E
:1030100005003000002D11DD01230222009308A9D4
:1030200006AB2800FDF746FD802304001B069842EE
:1030300000D134002800FDF7C1FD20000CB070BDA8
:10304000F0B58BB00290039116000520002A24D021
:1030500000230493059302AB0693082304AD0121DA
:103060000F48079308950993FDF792FC0700042089
:10307000002F12DD012208AB009206A93800FDF7EF
:1030800019FD0CCD0CC6802304001B06984200D10C
:1030900004243800FDF792FD20000BB0F0BDC046BF
:1030A000021A010030B587B002AB049308230290E6
:1030B000039101210D480593FDF76AFC05000420EA
:1030C000002D10DD00230122009304A92800FDF744
:1030D000F1FC802304001B06984200D10424280040
:1030E000FDF76CFD200007B030BDC046031A01009B
:1030F00037B501210C48FDF74BFC05000420002DDD
:1031000010DD002128000B0000910A00FDF7D2FC21
:10311000802304001B06984200D104242800FDF7F8
:103120004DFD20003EBDC046041A010010B5041E2E
:1031300004D184221149124814F014FB114816F0EE
:10314000E5F92062002814D00F4B00211A008832C4
:1031500014609C629C649C669C6023610B4A0C48D2
:1031600017F03CF86060002807D193220349094812
:10317000E2E7892201490848DEE710BD535D0210ED
:103180001E460210D45D021008040008A8040008BE
:10319000A1330010955D02105C5D021010B5FFF7C1
:1031A000DDFE10BD0023002213B500920193C36819
:1031B0000400082B02D08020000616BD6A460021BC
:1031C0004068FEF72DF80828F5D16068FEF76EF923
:1031D000009A019BFFF7A0FEEFE770B586B004AE42
:1031E00005000822002130001AF0E2FF002300222F
:1031F00002920393EB68082B03D08020000606B0F0
:1032000070BDEB69082BF8D102AA00216868FEF7AF
:1032100007F80828F1D16868FEF748F9029A039B7D
:103220000096FFF74BFE041E05D10100EB6932004A
:103230006868FEF71FF82000E1E700230022002164
:1032400070B588B006920793C36805000591082BF6
:1032500003D08020000608B070BD0469042CF8D1AA
:1032600006AA4068FDF7DCFF0828F2D1230005AA72
:1032700001216868FDF7D4FF04000428E9D1E8695A
:103280001AF0CAFB06002000002EE4D06868FEF7A2
:103290000DF9EB6902960193059B0093069A079B33
:1032A000FFF7C6FD041E05D10100EB693200686816
:1032B000FDF7E0FFEA69002130001AF079FF3000E5
:1032C0001AF0B4FB2000C6E700230022F0B5002668
:1032D0008BB008920993036904000593C3680796AD
:1032E000082B03D0802000060BB0F0BD4569042DEB
:1032F000F8D108AA31004068FDF792FF0828F1D103
:103300002B0007AA02216068FDF78AFF0700042846
:10331000E8D105981AF080FB05003800002DE3D0B5
:1033200023692A0001216068FDF77AFF236998422A
:1033300004D028001AF07AFB3800D5E76068FEF761
:10334000B5F8079B01950293059B0093089A099B8A
:10335000FFF744FD0400059A310028001AF028FF09
:1033600028001AF063FB2000BEE70000036810B5D8
:103370000400022B05D0032B01D0012B07D1002123
:1033800001E0884701006068FDF7CCFF10BDB9225D
:103390000149024814F0E6F9F25D0210814802107A
:1033A00070B58CB02C22002101A880261AF000FFF5
:1033B000202536063000FDF7B9FD040011F042FF6C
:1033C000031E04D0D1221C491C4814F0CBF92C4216
:1033D00007D001A92800FDF7B1FD194901A8FFF7A1
:1033E000C5FF1020044206D001A9FDF7A7FD15492D
:1033F00001A8FFF7BBFF4020044206D001A9FDF75A
:103400009DFD114901A8FFF7B1FF8020044206D0BD
:1034100001A9FDF793FD0D4901A8FFF7A7FF802043
:1034200040000442C6D001A9FDF788FD084901A863
:10343000FFF79CFFBEE7C046025E02100C5E021062
:10344000C93200103B320010DB310010A5310010F2
:103450009D3100100020704700207047012000219E
:103460007047C1698069704700487047AD5E0210BF
:10347000F0B5431C87B00593DB7F0500002B00D11E
:1034800043622E0024360121300014F04DF8002351
:103490000490019301280AD12F1D380000F0EAF9A9
:1034A0000190002806D00499300014F056F80198D5
:1034B00007B0F0BD29696A69AB69EC695B185441D2
:1034C00038000293039400F0A1F90400380000F0E2
:1034D00099F9039B2418002B02D1029BA34206D921
:1034E0000121300014F039F8194B0193DFE76B69C3
:1034F000380002932C6900F085F9019B029A9342EF
:1035000001D1A042ECD82C696B691C4304D138006E
:1035100000F078F96C612861AC69EB691C4312D149
:10352000380000F073F90600380000F06BF927004E
:103530003200230006002869696992197B41121A3A
:103540008B41AA61EB610123059AD377AFE7C046AF
:103550005FF0FFFF421C0300002010B5D27F8242C3
:1035600002D0181D00F046F9002110BD10B5431C13
:10357000DB7F002B03D0043000F04CF910BD01209C
:103580004042FBE770B5451C0400E87F002801D1EC
:10359000606270BD20000121243013F0DEFF0300C3
:1035A00000208342F5D1E877201D00F081F9F0E793
:1035B00010B50400044B08330360FFF7E3FF201D40
:1035C00000F017F9200010BDB85E021010B504001D
:1035D000FFF7EEFF200014F05BFB200010BD421C43
:1035E0000300002010B5D27F824203D0181D196954
:1035F00000F004F9002110BD411C0300002010B5AB
:10360000C97F814204D01969181D891800F0F6F8A5
:10361000002110BDF7B51F00431CDB7F04000D0027
:103620001600002B01D11B48FEBD03689B6A98471A
:1036300002000B00300039001FF014F91A43F2D1D8
:10364000236820009B6A984702000B00089809999C
:103650001FF008F91A43E6D1089A099B92197B4199
:1036600000920193236820009B6B9847019B8B423B
:10367000D9D802D1009B8342D5D8226963699219B7
:103680007B411100201D0A00089B290000F048F929
:10369000CAE7C0465FF0FFFFD3B51F00431CDB7FC6
:1036A00004001600002B01D11D48D6BD0368196B1C
:1036B0003B00884702000B00300039001FF0D2F8B1
:1036C0001A43F1D1069A079B92197B41009201930C
:1036D0000098019901225242D31712184B412168D8
:1036E0002000096B884702000B00009801991FF029
:1036F000B9F81A43D8D1236820009B6B9847019BE7
:103700008B42D1D802D1009B8342CDD82269636914
:10371000B6185F41201D069A310000F087F9C4E712
:103720005FF0FFFFF7B51F00431CDB7F04000D00B7
:103730001600002B01D11B48FEBD03685B6A984749
:1037400002000B00300039001FF08CF81A43F2D150
:10375000236820005B6A984702000B0008980999CB
:103760001FF080F81A43E6D1089A099B92197B4111
:1037700000920193236820009B6B9847019B8B422A
:10378000D9D802D1009B8342D5D8226963699219A6
:103790007B411100201D0A00089B290000F0A4F8BD
:1037A000CAE7C0465FF0FFFF0E4B73B50833040055
:1037B00008C015000E0000F01BF80023621C2661F3
:1037C0006361A561E361D3776362721C01D09D429E
:1037D00006D10093002304491A00044813F0EAFFBD
:1037E000200076BDB85E02103D5E02100101FF8030
:1037F0007047704710B517F04BF910BD10B517F0B2
:1038000037F910BD10B517F046F910BD10B517F017
:1038100045F910BD10B517F044F910BDF8B5060014
:10382000056804000834002D15D10F4F38680028B2
:1038300003D00121494215F07FFE3568002D05D1E6
:10384000251E02D0200014F0BFFA3460386800282A
:1038500001D015F087FEAC4204D06C220349044825
:1038600013F060FD2000F8BD28800008005F021002
:103870001A5F021070B505000C4E3000FFF7CEFF46
:1038800014F0AAFA280017F0DDF80400280017F059
:10389000FFF814F0EBF968603000FFF7BFFF14F099
:1038A000B3FA601E8441604270BDC046A86B000838
:1038B00070B506000B4D2800FFF7B0FF14F08CFA2E
:1038C000300017F0C1F8441EA0414442706800283F
:1038D00001D014F0E1F92800FFF7A0FF14F094FAEA
:1038E000200070BDA86B0008F7B50F00160005009A
:1038F0000A4C01932000FFF791FF14F06DFA3A0093
:103900003100019B280013F01BFA05002000FFF78F
:1039100085FF14F079FA2800FEBDC046A86B0008A8
:10392000F0B587B0019100920293050017F0B0F84E
:103930000700280017F0B2F80600280017F0ABF8CF
:103940003900039000981EF029FE0C1E69D1019BDE
:10395000002B66D0029A009B9B18039AB618B342BC
:103960005FD83148FFF75AFF14F036FA029B002B5C
:103970004FD0002C4BD10099280017F079F80400A3
:10398000010000981EF00AFE029B601A984200D9BE
:1039900018000322019B134201D1B8422ED2060027
:1039A000B84200D93E003200019968681AF06EFBF7
:1039B000BE4205D26B68BA1B9819FF211AF0F8FBBA
:1039C0006B680497059310230393049B059A009951
:1039D000280017F043F8041E06D0039B013B039315
:1039E000002BF2D101246442029B9B1B0293009B9B
:1039F0009B190093019B9B190193B7E739001EF0B7
:103A000047FD7843019B049006000593DBE7012402
:103A100064420548FFF702FF14F0F6F9200007B0F2
:103A2000F0BD01246442F9E7A86B0008F7B50D006A
:103A30001700060017F032F80400300017F02BF8DA
:103A40002018EC19A04203D2012464422000FEBDDC
:103A5000A0421FD81948FFF7E1FE14F0BDF9002479
:103A6000002F24D0002C20D11023019329003000F6
:103A700016F0ECFF041E06D0019B013B0193002BC6
:103A8000F4D1012464422900300016F0F1FF3F1AFE
:103A90002D18E5E72100300016F0EAFF01002000B4
:103AA0001EF07CFD0029D5D0CEE7012464420348F6
:103AB000FFF7B4FE14F0A8F9C8E7C046A86B0008E9
:103AC000704710B5040014F0E3F8200010BD0000AA
:103AD00010B5037D002B04D10248FFF79FFE14F0C0
:103AE00093F910BDD86B000816204042704710B5FE
:103AF00003681B69984710BD10B503689B69984718
:103B000010BD10B503689B6A984710BD0020814224
:103B100000D11938704701207047704710B503680D
:103B20009B68984710BD000010B50400084B0022A8
:103B3000083323600023A260E36000230800A16132
:103B400023616361034913F031FB200010BDC046BF
:103B5000546302101D3B001007B5010000900831AE
:103B6000806913F064FB07BD010010B5083180695E
:103B700013F086FB10BD000010B50400034B0833A2
:103B80000360FFF7F1FF200010BDC0465463021030
:103B900010B5036801221B690021984710BD00225F
:103BA00010B5036811001B69984710BD70B50B4C28
:103BB0002378BFF35B8F0A4DDB070CD4200013F092
:103BC000C1FE002807D0200013F0E0FE054A064998
:103BD000280013F0ABFE280070BDC046E862000864
:103BE000F0620008C00000086D540110030000B529
:103BF0007F3304DAFF234042DB01184040420200D9
:103C000004236C3200D1ECE103006C3300DDB7E03B
:103C1000934B984235D05FDC924B984242D032DCD5
:103C2000914A0923904200D1DBE116DC8F4B984288
:103C300040D00ADC8E4B984200D1DFE00E238D4A43
:103C4000904200D1CDE10123CBE18B4A0723904282
:103C500000D1C6E1894A0A33F2E7894B984200D184
:103C6000CCE007DC874B98421CD0874B9842EAD1C6
:103C70000223B6E1854B984200D1BDE1844B9842C6
:103C8000E1D10923ADE1834B9842FAD014DC824B99
:103C9000984200D1B4E107DC804B9842E8D0804BD9
:103CA0009842D0D108239CE17E4B9842E0D07E4BD5
:103CB0009842C8D1102394E17C4B984200D19DE0FA
:103CC00004DC7B4B9842EDD07A4BF1E77A4B98427B
:103CD00000D193E0794BC9E7794B984200D18BE151
:103CE00025DC784B984200D188E010DC764B984276
:103CF00000D183E105DC754B984200D180E1744B23
:103D0000D6E7744B984200D178E1734BC8E7734B08
:103D10009842B6D006DC724A1123904200D160E18D
:103D2000704BBDE7704B9842BCD0704BB8E7704BFE
:103D30009842B7D011DC6F4B984299D004DC6E4B9F
:103D40009842AFD06D4BABE76D4B984203D06D4BB3
:103D5000984200D077E7032343E16B4B984200D1B0
:103D600086E705DC694B984200D181E7684B7DE727
:103D7000684B984242D003007A333FD0664B97E7B6
:103D8000030027333AD00300273300DDC6E00300E9
:103D9000383300D16CE70300383331DC0300603383
:103DA00000D17FE70300603317DC0300663300D1E6
:103DB00078E70300663308DC020009236A3200D189
:103DC0000FE1683000D16DE73DE70300643300D1B7
:103DD00068E7623000D165E735E703003C3307DC74
:103DE00003003D3302DA403000D02CE70F23F8E027
:103DF00003003A33FAD0393000D024E70D23F0E045
:103E00000300323300D133E70300323312DC030006
:103E10003533F3D00300353306DC03003733EDD000
:103E2000363000D124E70EE703003433DED03330E0
:103E3000E4D008E703002D33E0D003002D3305DC88
:103E400003003133DAD02F30D8D0FCE60300293319
:103E5000D4D00300293300DD24E72B30CED0F2E6A6
:103E600080BBFFFF00AFFFFF809EFFFF009DFFFFB5
:103E7000009CFFFF809CFFFF809DFFFF009EFFFFD7
:103E800080ADFFFF009FFFFF809FFFFF00AEFFFFA1
:103E900080AEFFFF80B2FFFF00B1FFFF80AFFFFFEA
:103EA00080B0FFFF80B1FFFF00B2FFFF80B4FFFFD3
:103EB00080B3FFFF00B4FFFF80BAFFFF00BBFFFF2E
:103EC00000C2FFFF80BEFFFF00BDFFFF00BCFFFF81
:103ED00080BCFFFF80BDFFFF00BEFFFF80C0FFFF73
:103EE00000BFFFFF80BFFFFF00C1FFFF80C1FFFFDA
:103EF00000C5FFFF80C3FFFF80C2FFFF00C3FFFFBD
:103F000000C4FFFF80C4FFFF80C6FFFF80C5FFFF26
:103F100000C6FFFF80C7FFFF00C7FFFF030012338B
:103F200000D1C7E60300123330DC0300193300D19F
:103F300064E70300193312DC030022330BDC0300B7
:103F4000243300DB94E60300263300D190E62530CD
:103F500000D153E777E6203000D189E673E603000D
:103F6000163300D184E60300163307DC0300183350
:103F700000D17DE6173000D140E764E6030014333A
:103F800000D18FE6133000D138E75CE603000C3334
:103F900000D187E603000C3316DC03000F3300D199
:103FA00088E603000F3307DC0300113300D125E757
:103FB000103000D165E646E603000E3300D171E60D
:103FC0000D3000D16EE63EE6831D00D16AE6831D0A
:103FD00009DC03000A3300D164E60423083000D072
:103FE00031E6180000BD831C06D000239842F8D0AB
:103FF000031D00D027E655E60C23F2E70E23F0E779
:104000000423EEE7F7B5802416006404DBB2384AD7
:1040100023439A18050001911024022A2DD9354A0C
:1040200004349A18012A28D9334A0834934224D0F8
:10403000324A0434934220D0314A103493421CD087
:10404000304A1034934218D02F4A243C934214D063
:104050002E4A0434934210D02D4A043C93420CD093
:104060002C4A0434934208D02B4A1034934204D093
:104070002A4A9B185C425C41A4013100012019F0DE
:104080003FF92860002801D10920FEBD099B0B9A49
:104090006E609F180199320019F0F8FF099B082003
:1040A000BB42F2D8E719BC42EFD83900073819F003
:1040B00027F9A8600028E7D00B9BEF60002B04D005
:1040C00000191A000A9919F0E1FF099B002B07D08B
:1040D0000B9B099AE618AB680899981919F0D6FF56
:1040E0002B0000205133503518702C70CDE7C0469E
:1040F000FFFFFFFEFCFFFFFE0800000109000001BA
:104100000A0000010B0000010C0000010D0000017D
:10411000100000011100000112000001EDFFFFFE80
:10412000002313B50C000B6001A9019302F01EFDE2
:10413000002804D1019B1A68002A01D1236016BD12
:104140000520FCE7F0B5C9B004900F0015000593F9
:104150000826802A28D81620002102AB07ACC018F8
:10416000217062701AF024F82378AE1CA35562788F
:104170006319281DDA7039002A00201819F086FF0B
:10418000519B72000393509B210002934F9B049814
:1041900001934E9B0093059BFFF734FF822106009D
:1041A000490020000CF078FC300049B0F0BD000060
:1041B00070B51500FE22D20504000240C020C004E4
:1041C000824201D1294A1440FA228020D20522409D
:1041D000C00482422BD1264A944217D00CD8254ADB
:1041E000944207D324480222844210D9234805323E
:1041F00084420CD000202CE0214A944213D010D3EA
:10420000204A944211D020480622F1E705221F4897
:104210000918002003291CD808001EF025F9251BC9
:1042200013230322F3E70422F1E70822EFE7184AF9
:10423000944205D0174A002094420AD10622E6E7AC
:104240000122E4E70520002B00D01870290006F0B9
:10425000F7FA70BD0320402DF5D00130802DF2D14A
:104260004035F0E70720EEE70220ECE7FFC0FFFF54
:104270000100C00400016004010160040100800429
:104280000300C0040100000602000006FFFFFFBF9C
:104290000200C0020300C002CC235B00C358084ADE
:1042A00010B5934203D0074A934204D010BD0830A2
:1042B00005F047FFFAE708300AF0C2FFF6E7C0460C
:1042C0000110000602100006F0B51C00002385B0A6
:1042D0000D000B6003A91600039302F047FC0028B1
:1042E00038D1039A1368002B36D0E021C9050B4062
:1042F000C021C9058B4201D101239E43536833403D
:10430000B3422BD1002C24D093689C4221D02600AC
:104310001349144F0E400191BE4204D0124E13496E
:1043200026408E421AD101991940B94204D00E4953
:104330000E4E1940B14211D1FF261F0037400DD05B
:104340008021490439430A4FB94207D15C40B44344
:1043500004D12A6005B0F0BD0620FBE70320F9E791
:1043600000FFFEFF0000021000FFFCFF0000041031
:10437000FF0000011A4B70B5140098421ED004D8FB
:10438000184B984221D002231DE0A223DB0598425E
:1043900003D0A423DB059842F5D1072508230D405F
:1043A00011D10731C9086160012018F0A9FF2B0065
:1043B0002060002807D16560093304E00029ECD1B2
:1043C0000B0051601160180070BD40230A009A4331
:1043D000802AE2D08022082352009142DDD0F2E709
:1043E0000100005001000040C0210368020080204D
:1043F000C90510B51940C005814202D1D069C0007D
:1044000010BD094909481940814203D190690DF056
:104410007BF8F4E7064900200B4006498B42EFD1B8
:104420009369986DECE7C046FFFFFFEF0000016065
:104430000000FFEF00000360F0B587B00193002398
:104440001400019A0D0013600368C0211A000600D1
:104450000C98C9050A40002805D008278A421ED0BA
:10446000380007B0F0BD8021C9058A4217D1F26932
:10447000A24201D90427F3E7002C09D0B169280032
:1044800019F004FEF0690C99221A281819F090FE10
:10449000F3690093009A019B1A600027E0E73F4907
:1044A0001A0C12048A421ED10C9A002A1BD1300029
:1044B000FFF79AFF0730C3080093A342DAD8B06928
:1044C0001A0029007C3004F0FBFAFFF78FFB071E6F
:1044D000C6D1009B0C99E21AE81819F069FE019BFD
:1044E000009A1A60BCE72E4A2E491A408A420AD026
:1044F0002D4A022713402D4A9342B1D104A80BF054
:1045000086FA2B4B03E004A80BF081FA294B0493A5
:10451000B36905930C9B002B07D1E0223368D205C9
:104520001340C022D205934214D12B1904AA2900AA
:1045300003A803930CF002F9061E11DA002C04D034
:1045400022000021280019F033FE3000FFF74EFB57
:10455000070085E72200290004A80CF053F9EBE7D7
:104560004300A3420ED8241A2C190200210028006F
:1045700019F08CFD32000021200019F019FE019B7A
:104580001E608AE7A042FAD2241A020029192800E4
:1045900019F0C0FDA81922000021EEE70000037009
:1045A000FFFFFFEF000001600000FFEF000003606D
:1045B000F89702105898021070B50025036804009F
:1045C000AB4209D0C0228021D2051A40C9058A42D7
:1045D00004D1A06919F02AFA280070BD0B4A0C49D1
:1045E0001A408A4203D180690DF0B8FFF1E7094A09
:1045F0000E251340084A9342EED1806907F0FBFF75
:10460000A06919F013FA0025E6E7C046FFFFFFEFA7
:10461000000001600000FFEF00000360F7B5040038
:1046200000680E00FFF7E0FE6B46216802000700FD
:10463000073309683000FFF7BBFD022560600028E2
:1046400018D0334B334A3340934204D0324A93421A
:104650003CD002250EE0CC23304A5B00E250102211
:104660000433E25423680E3A1B6893432C4A934266
:1046700002D008252800FEBD25000835280005F0D9
:1046800039FD6B462268D97992693B00280005F014
:1046900037FDFFF7ABFA051E35D1FE23C021DB0540
:1046A0003340C90400228B4201D1B204920ECE20C5
:1046B0004000205C904225D300228B4201D1B604F9
:1046C000B20E9E23FF33E2540025D3E7CC23154AD4
:1046D0005B00E25010220433E25423680E3A1B6858
:1046E00093430F4A9342C4D12500083528000AF0AD
:1046F00015FB6B462268D97992693B0028000AF0C5
:1047000014FBCAE708252000FFF7C6FDB2E7C04644
:10471000FFC0FFFF010000060200000601100006B6
:10472000010000400210000610B5FF230C0001003C
:104730000C4A9943914212D103408020400418430F
:10474000094BC01803280AD8084B8000C0580AF04B
:10475000E7FF0121020020000CF0D0FE10BD002078
:10476000F5E7C04600000312F8FFFFFE8463021065
:10477000F7B5FF2306001D4F9E431D4B050000911A
:1047800001920340BB4204D01A4B1B4A03409342A0
:1047900021D1EBB2002B1ED0802252041343174AC2
:1047A0009B18032B17D8164A9B009C5820000AF030
:1047B000B7FF019B1870BE420FD1B54213D0022340
:1047C000002C06D020000AF0A5FF009A0823904292
:1047D00009D01800FEBD0024E8E70A4B9E4202D132
:1047E0000223002CF5D00023F3E7C046000002109E
:1047F00000FFFEFF00FFFCFF00000410F8FFFFFEBB
:104800008463021000000310F7B51E000023123865
:1048100080B2009101921F000C2801D8184A175C41
:104820003360AC21012018F06BFD0925041E1ED059
:1048300007F09DFE3900200009F026FFFFF7D6F9AA
:10484000051E16D127008837019B009A39002000E9
:1048500008F0DEFAFFF7CAF9051E0AD13900200078
:1048600008F00EFBFFF7C2F9051E02D134602800E4
:10487000FEBD200007F0BFFE200019F0D7F8F6E7D4
:1048800075630210C023F0B51700802205688BB055
:10489000DB05060002912B40D205934215D15F4BF8
:1048A00002249F420ED80200F90018322800FFF7B8
:1048B00061FD041E06D1002F04D03A000299B069B0
:1048C00019F0E4FB20000BB0F0BD554A2B0C1B0483
:1048D000934247D10023123DADB203930C2D02D871
:1048E000504A525D0392B361AC21012018F008FDDB
:1048F0000924051EE6D007F03AFE0399280009F0C6
:10490000C3FEFFF773F9041E25D12B007C333A0058
:1049100002991800039304F09CF8FFF767F9041E4E
:1049200019D10399280008F077FBFFF75FF9041EFF
:1049300011D13D4B290001933C4B039A00932B006E
:1049400088312833280008F05FFFFFF74FF9041E75
:1049500001D1B561B6E7280007F04DFE280019F037
:1049600065F8AFE7324A934208D103003A001833A2
:10497000A8B20299FFF748FF0400A3E72D4B2E4A87
:104980002B40022493429DD105A80BF040F8E02370
:10499000DB051D409D4236D100233A000093029969
:1049A00005A80BF023FDFFF721F9041E27D105A868
:1049B0000BF068F801282CD1069D28000CF0A4FD0E
:1049C0008023C0005B01984225D807A803F084FE2D
:1049D000230022000194009407A928000CF0CAFCCF
:1049E000FFF704F9041E05D107A804F00BF84307EC
:1049F00000D0023407A803F077FE002CA9D005A848
:104A00000BF00BF85EE73A00029905A80BF0D0FD19
:104A1000C9E70824F3E70224F1E7C046FFFFFF1FC0
:104A20000000037075630210886E000885B40010E2
:104A300000000360FFFFFFEF0000016070B504009D
:104A4000FFF7BAFD050020220021200019F0B0FB7D
:104A5000280070BDF0B585B00F0003A915001E0039
:104A6000FFF75EFB041E0AD103983200076029009D
:104A7000FFF708FF041E039804D000230360200002
:104A800005B0F0BDC368012BF9D10096021D016885
:104A90002B00006902F0BAF9041EF0D00398FFF76A
:104AA0008BFD0022039B1A60E9E713B501A902F010
:104AB0005DF800280ED1019B0400DA68012A03D1B9
:104AC000186902F059FA04000198FFF7B7FF0028AF
:104AD00000D1200016BD73B50D001400002901D0CF
:104AE00000230B60002C01D00023236001A902F0F9
:104AF0003DF8061E0BD101980368002B09D0002D4C
:104B000000D02B60002C02D0FFF76EFC206030003C
:104B100076BD0626FBE77FB51C0000230D001600BE
:104B20002360012203A9FFF7CFFB002806D10090E4
:104B30002300320029000398FFF77EFC04B070BD0B
:104B40007FB5160000220D001C001A6003A9130097
:104B5000FFF7BAFB002807D1012332000093290098
:104B600023000398FFF768FC04B070BD03680C4A8B
:104B700010B50400934206D80A4A93420AD2002B89
:104B80000BD007200BE0084A9342FAD808300EF009
:104B90000FFE02E008300DF0E4FF0020206010BDA1
:104BA00009000001080000010B00000110B504001D
:104BB0008021E0300BF070FF2000FFF7D7FF10BD21
:104BC000036870B505000E481818032815D82B0087
:104BD00008331DF049FC02020E0E18000EF019FDFC
:104BE000041E02D02800FFF7C1FF2000FEF7FEFFE1
:104BF00070BD18000FF050FCF2E7024CF2E7C0461F
:104C0000F8FFFFFE00AFFFFF002370B503601D4BF0
:104C10000500C8180E00032825D82C0008341DF004
:104C200023FC0210151D20000DF095FF012120002E
:104C30000DF0A4FF041E20D12E602000FEF7D6FF49
:104C40001AE020000DF087FF0021F0E720000EF0B1
:104C5000A9FD012120000EF0B7FDEBE720000EF0CA
:104C6000A1FD0021F6E7FE23DB051E408023022084
:104C70005B049E4200D0063070BD2800FFF776FF2F
:104C8000DBE7C046F8FFFFFE002310B59A4202D0D2
:104C9000FFF796FF0300180010BD0000F7B5802451
:104CA0001F00036864041600DBB2324A23439A18DB
:104CB000050001911024022A2DD92F4A04349A1894
:104CC000012A28D92D4A0834934224D02C4A04348E
:104CD000934220D02B4A103493421CD02A4A1034DD
:104CE000934218D0294A243C934214D0284A0434D1
:104CF000934210D0274A043C93420CD0264A0434F5
:104D0000934208D0254A1034934204D0244A9B1879
:104D10005C425C41A4013E60002E04D0320021219F
:104D2000019819F045FAB4421FD82B681D4A98180B
:104D3000032818D82B00019908331DF095FB0202B7
:104D4000101018000EF06EFCFEF750FF061E0DD17D
:104D50003C602800FFF70AFF06003000FEBD180087
:104D60000FF0A3FBF0E71048EEE704262800FFF75A
:104D7000FDFEF2E7FFFFFFFEFCFFFFFE0800000163
:104D8000090000010A0000010B0000010C000001F5
:104D90000D000001100000011100000112000001CF
:104DA000EDFFFFFEF8FFFFFE00AFFFFFF0B5A5B07F
:104DB00001936B46039280221B79520413434D4AA0
:104DC000029199180600102202292DD94A4904326D
:104DD0005918012928D9494908328B4224D0484919
:104DE00004328B4220D0474910328B421CD04649B6
:104DF00010328B4218D04549243A8B4214D0444992
:104E000004328B4210D04349043A8B420CD04249C1
:104E100004328B4208D0414910328B4204D0404AC0
:104E20009B185A4253419A01019B32495B180A2B45
:104E300049D83C490224CF5C802F41D80224BA4291
:104E40003ED8039804ADB8423FD901993000FFF72E
:104E5000DBFE041E30D1039A02993000FFF714FFE5
:104E6000041E29D103AB802229003000FFF716FF72
:104E7000041E21D100233621039898422DD13A1ADD
:104E80003621281819F094F900236A2003999942D1
:104E900028D13000E0307A1A40185C2119F088F9E6
:104EA00001993000FFF7B0FE041E05D13A00290039
:104EB0003000FFF7E9FE0400039928000BF0ECFD39
:104EC000200025B0F0BD0027B8E70028D7D00200A9
:104ED0000299280019F0DAF8CCE7EA5C4A40EA5473
:104EE0000133CAE71C00EA5CE0344240325501332A
:104EF000CDE7C046FFFFFFFEFCFFFFFE08000001FC
:104F0000090000010A0000010B0000010C00000173
:104F10000D0000011000000111000001120000014D
:104F2000EDFFFFFE94630210F0B5002607681E4BEC
:104F300095B0FB1805000091019203960A2B01D849
:104F40001A4AD65C03AB402204A92800FFF7A6FE4C
:104F5000041E25D139002800FFF756FE041E1BD180
:104F600029003200E0312800FFF78EFE041E13D125
:104F7000039A04A92800FFF787FE041E0CD103AB97
:104F8000402204A92800FFF789FE041E04D1019ADB
:104F900004A9009819F07AF8039904A80BF07CFD95
:104FA000200015B0F0BDC046FFFFFFFE9463021065
:104FB0007FB5037904000D0007201100DA071ED524
:104FC00006221340022B1AD0627903388A4216D87F
:104FD000236812498B4214D120006946083006F03C
:104FE0000DF8061E04D162796946280019F04EF8C2
:104FF000684610210BF050FD3000FEF7F7FD04B0BD
:1050000070BD074907200B40A02189048B42F6D1CF
:10501000200029000830FFF787FFF0E70200C002F8
:105020000000C07F8023F0B55B04CFB21F43454B27
:10503000DBB0FB1806001024022B2DD9424B0434A0
:10504000FB18012B28D9414B08349F4224D0404BF8
:1050500004349F4220D03F4B10349F421CD03E4B23
:1050600010349F4218D03D4B243C9F4214D03C4BFF
:1050700004349F4210D03B4B043C9F420CD03A4B2F
:1050800004349F4208D0394B10349F4204D0384B2F
:10509000FC1863425C41A4013300513300931B7838
:1050A0000725FF2B47D0009A0133137033000021EE
:1050B000B02250331970520002A819F079F8009B01
:1050C0001A78B368012A39D11B190093F3681B1BA6
:1050D00001933B007268316802A8FFF767FE051E66
:1050E00023D1019A009902A8FFF7CEFD051E1CD11D
:1050F0002200B16802A8FFF717FF051E15D13B007B
:105100007268316802A8FFF751FE051E0DD1F268E2
:10511000B16802A8FFF7B8FD051E06D131002200D4
:10512000103102A8FFF700FF050002A8FFF73EFDBF
:10513000002D00D1050028005BB0F0BD0093019464
:10514000C7E7C046FFFFFFFEFCFFFFFE08000001AF
:10515000090000010A0000010B0000010C00000121
:105160000D000001100000011100000112000001FB
:10517000EDFFFFFEF0B589B005919D4917000500D0
:105180000F9A03608B421DD1002A02D0082009B07B
:10519000F0BD119B002BF9D13900012018F0B0F8B7
:1051A000A860002801D10920F1E73E003A000599E6
:1051B00018F06CFFEF60129BB34200D912E16B60F4
:1051C0000020E4E7FF241900A1438C4689498C455F
:1051D00000D0A2E02340802464041C43864BE318E3
:1051E0000793022B28D9854BE318012B00D88CE0BC
:1051F000834B9C4200D18AE0824B9C4200D188E0E4
:10520000814B9C4200D186E0804B9C4212D0804B67
:105210009C427CD07F4B9C427BD07F4B9C4276D083
:105220007E4B9C4275D07E4B9C4274D07D4B0220BD
:105230009C42ACD1402300E01023FF265E432B00AC
:10524000103306930E9923000698FFF7AFFD002850
:105250009DD13A0005990698FFF716FD002896D1D2
:10526000290071314022FF310698FFF75DFE0028CA
:1052700000D08CE7079A1023022A2DD95F4A043305
:10528000A218012A28D95E4A0833944224D05D4AE4
:105290000433944220D05C4A103394421CD05B4AC1
:1052A0001033944218D05A4A243B944214D0594A9D
:1052B0000433944210D0584A043B94420CD0574ACD
:1052C0000433944208D0564A1033944204D0564BCB
:1052D000E41863425C41A301F8225200AB54F2236C
:1052E0000022FF33EA54119BEB60934200D162E746
:1052F0001900012018F004F8A860002800D152E736
:10530000119A109918F0C2FE55E7142395E71C2353
:1053100093E7202391E730238FE744495E0A760222
:1053200002208E4200D032E72340802432486404B9
:1053300023431818102602282DD93048043618188F
:10534000012828D92E480836834224D02D48043617
:10535000834220D02C48103683421CD02B48103674
:10536000834218D02A48243E834214D02948043668
:10537000834210D02848043E83420CD0274804368C
:10538000834208D026481036834204D026481E188F
:1053900070424641B601264C02201C19012C00D94E
:1053A000F5E6FD304643280008308C450ED11199B2
:1053B000019203910E9A1099009202913A00059978
:1053C000FEF720FE002800D1F5E6E0E611990192F3
:1053D00003910E9A1099009202913A000599FEF7F6
:1053E000B1FEEFE7129B013300D0CFE66E60E7E637
:1053F0000100003100010030FFFFFFFEFCFFFFFE57
:1054000008000001090000010A0000010B00000172
:105410000C0000010D00000110000001110000014E
:105420001200000113000001EDFFFFFE000200303A
:10543000F7FFFFFEF0B593B002AC0D00160001AB14
:1054400040222100FFF72AFC002809D1019FB74222
:1054500005D1020003009F4204D1002A00D0102091
:1054600013B0F0BDE95CE65C013371400A43F2E73A
:105470000B6870B505000C000720002B09D12B68C4
:105480000E4A934206D80E4A93420DD2002B00D00A
:10549000022070BD0B4A9342FAD82900200008313F
:1054A00008300EF08CF905E02900200008310830A2
:1054B0000DF05EFB2B6800202360EAE70900000185
:1054C000080000010B0000010021036810B5040072
:1054D0008B420BD00E4A93420AD1083005F0CCF92A
:1054E000E02200212379216013402371080010BDC0
:1054F000084A1340A0229204934203D10830FFF7D8
:1055000055FBEDE7B422520018F052FE0721EDE7FB
:105510000200C0020000C07FF0B51D001E006B1E1F
:105520009D4180236D421B01AD02ED18674B1700B2
:105530001340FA2285B00191082103600400009312
:10554000037910201340F83A93438B43834323712C
:10555000009B18005E4B984229D1601805F086F92F
:10556000002E03D010232279134323713B002A001D
:1055700003A90198FEF7A8FE061E14D10398FEF7B2
:1055800033FF009BBD041A00514BAD0E01909A42AF
:1055900049D103990200096833000098FEF708FE1C
:1055A000011E1FD102262000FFF78EFF17E0A0206A
:1055B000484B80043B40834202D10023A360CFE7E5
:1055C000FE238020DB053B4080040E00834200D197
:1055D0001600B42200215200200018F0E9FD30002E
:1055E00005B0F0BD26004369083663713000039FA3
:1055F00005F044FB002804D1019AB969300005F098
:1056000069FCFEF7F3FA0600002D05D0032DC9D979
:105610006379AB4233D36571002EC4D10123227963
:1056200013432371DBE7A0222A4B92043B409342B1
:1056300047D18022FBB252041343274A9A18022A08
:1056400036D9264A9A18012A30D9254A934201D1DF
:105650001C220DE0234A934201D1202208E0224A75
:10566000934201D1302203E0204A934209D14022E3
:105670006271A2220399D205086890421AD00826C6
:1056800091E71B4A9342E3D01A4A9342E5D01A4A63
:105690009342DDD0194A9342DFD0194A9342E1D0B8
:1056A000184A9342E3D0002363717BE71422DFE7BB
:1056B0001022DDE72000CA6908308969FFF776FB10
:1056C000A1E70226002DA1D16CE7C046FFC0FFFF75
:1056D0000200C0020000C07FFFFFFFFEFCFFFFFED4
:1056E00008000001090000010A0000010B00000190
:1056F0000C0000010D00000110000001110000016C
:10570000120000011300000110B50123FFF704FF90
:1057100010BD10B50023FFF7FFFE10BD70B50400EB
:105720000079C30704D407252000FFF7CDFE12E05F
:1057300006230340022BF6D00823034323710C48B1
:105740002368834209D12000083005F0EDFBFEF705
:105750004DFA051EE8D1280070BD06480340A02080
:1057600080048342DFD120000830FFF78DFAF0E794
:105770000200C0020000C07FF7B51F0005000191C4
:10578000161E3A6003D02121019818F011FD2B79E3
:10579000DB0615D5320001992800FFF709FC041E2D
:1057A0000FD12800FFF790FE041E03D16B793B60F8
:1057B0002000FEBD32002121019818F0F9FCF7E726
:1057C00007242800FFF780FEF2E71023F0B50479E4
:1057D00093B0060001911C4026D14779974204D02E
:1057E00010253000FFF770FE0FE0402202A9FFF7FE
:1057F000DFFB230005009F420ED8002CF0D1002DC6
:10580000EFD13000FFF760FE050002A840210BF049
:1058100043F9280013B0F0BD019A02A9D25CC95C1B
:1058200001334A401443E6E70725DAE7F0B591B0C3
:1058300006920593179A189B0C001A6080220B00A1
:10584000D20009A9FEF740FD051E1BD1099AE021EF
:105850001368C905180008350840884212D1664906
:105860008B425ED10DAF966905993A002000FEF794
:105870007FFF051E06D130000BF046FE179B8342CA
:1058800007D20435179B002B30D01A00212116981F
:105890002AE0FF239C43594B9C422AD12A0029002D
:1058A00030000BF02BFE169B554A0393069B55497F
:1058B0000293059B300001933B78009301230CF089
:1058C0009FFC041E04D130000BF01EFE189B1860D4
:1058D0002000FEF78BF9051ED4D12121189B1868F2
:1058E000179B1A1A169B181818F062FC280011B0A2
:1058F000F0BD454B9C4201D00825C3E73A78300003
:1059000001210BF0FBFD169B00950393069B3C4A7F
:105910000293059B3B490193300001230CF03AFBB5
:10592000CFE73A4902250B4039498B42AAD1394B7E
:105930003949234006358B42A4D196690AA8B36D34
:10594000DD1DED0802F0C8FE0DA802F0C5FE6B00DB
:105950000793179B6A0093424BD337007C37E303CE
:1059600038D5E4B2002C33D080235B041C432B4B8E
:10597000E418032C2CD82A4BA400E05809F0D0FEE0
:10598000059B02900193069B0DAA00930AA93B0078
:10599000300006F030F8041E0DD12A0016990AA82E
:1059A00003F08EF8041E06D1169B2A0059190DA883
:1059B00003F086F804000AA802F096FE0DA802F093
:1059C00093FE002C00D083E7189B079A1A607FE7AC
:1059D0000020D3E70A4B0DAA03930A4B0AA90293AE
:1059E000059B30000193069B00933B0005F0F6FFFA
:1059F000D1E70C4CDFE7C046000001700000021048
:105A0000886E000885B40010000003100000FFEF4E
:105A10000000036000FFFEFF00000610F8FFFFFE1D
:105A20008463021000B1FFFFF0B591B007928022AD
:105A300006930D000B00120109A9FEF745FC041E98
:105A40004CD1099A484913684848194081424AD1C3
:105A50000DAF966906993A002800FEF789FE041EEC
:105A60003CD130000BF050FD179B834235D3FF2310
:105A70009D433F4B9D421AD12200210030000BF084
:105A80003DFD169B3B4A0393079B3B490293069BB4
:105A9000300001933B78009323000CF03DFD374B21
:105AA000102498421AD0FEF7A1F8040016E0344BF7
:105AB0009D4216D13A78300001210BF01FFD169B54
:105AC00000940393079B2B4A0293069B2A49019358
:105AD000300023000CF0A0FCE1E70424200011B00A
