:020000041000EA
:1000000000000108636D03100D0000008101001065
:1000100000000000000000000000000000000000E0
:10002000000000000000000000000000952D0310FB
:100030000000000000000000192E0310252E031000
:10004000BD6D0310BD6D0310BD6D0310BD6D0310BC
:10005000BD6D0310BD6D0310BD6D0310BD6D0310AC
:10006000BD6D0310BD6D0310BD6D0310BD6D03109C
:10007000BD6D0310BD6D0310BD6D0310BD6D03108C
:10008000BD6D0310BD6D0310BD6D0310BD6D03107C
:10009000BD6D0310BD6D0310BD6D0310BD6D03106C
:1000A000BD6D0310BD6D0310BD6D0310BD6D03105C
:1000B000BD6D0310BD6D0310BD6D0310BD6D03104C
:1000C00010B5064C2378002B07D1054B002B02D02E
:1000D000044800E000BF0123237010BD0019000890
:1000E000000000003CEC0410044B10B5002B03D0C2
:1000F0000349044800E000BF10BDC04600000000F6
:10010000041900083CEC0410164B002B00D1144BD2
:100110009D46402292029A1A924600218B460F4633
:100120001348144A121A3FF055FC0F4B002B00D015
:1001300098470E4B002B00D0984700200021040068
:100140000D000D48002802D00C4831F081FF3FF02F
:1001500049F82000290032F0B9FB31F06FFFC046AA
:10016000000008000000010800000000092803103A
:10017000001900084CB500085120031000000000D1
:100180002C4B05E02C4B03E02C4B01E02C4BFFE704
:10019000EFF308802B4972460A4201D0EFF3098041
:1001A0009C46294B196802680A60043142680A605B
:1001B000043182680A600431C2680A600431F0C107
:1001C00047460F6004314F460F60043157460F60B9
:1001D00004315F460F60043102690A6008314269E8
:1001E0000A60043182690A600431C2690A6004311C
:1001F00003462033154E324200D0043375460D4E6F
:10020000354200D148330C46103C2360EFF309829D
:100210000A600431EFF308820A60043172460A6012
:100220000431EFF314820A606046074900F010F8C9
:10023000FEE7000010000000200000003000000079
:100240004000000004000000F05D04100002000007
:1002500000B587B003900291002305931C4B180052
:1002600030F042FF039B302B0AD0402B0FD0202BC5
:1002700014D1184B180030F037FF174B059314E0DA
:10028000164B180030F030FF154B05930DE0154B61
:10029000180030F029FF144B059306E0134B1800AB
:1002A00030F022FF124B0593C046124B180030F07D
:1002B0001BFF00F027F8104B180030F015FF0F4B14
:1002C000DA6B0F49059800230093002331F040F9C1
:1002D000F45D0410205E04103E01FF80305E0410C7
:1002E0003F01FF803C5E04104001FF80485E041027
:1002F0003D01FF80545E0410605E041094A300086A
:10030000805E041070B586B0002305930CE02E4A81
:10031000059B9B00D3181A6805992C4B180030F0E8
:10032000E3FE059B01330593059B0C2BEFDD264B6C
:100330005C6B254B9D6B244BDE6B234B1A6C224B65
:10034000596C214B9B6C224802930191009233001F
:100350002A00210030F0C8FE1E4B1A681E4B110007
:10036000180030F0C1FE184BDB6C0822134012D08D
:100370001A4B180030F0B8FE134B1B6D01221340CE
:1003800004D0174B180030F0AFFE0CE0154B1800EE
:1003900030F0AAFE07E0144B180030F0A5FE114B18
:1003A000180030F0A1FE084BDB6C0422134004D08F
:1003B0000E4B180030F098FE03E00D4B180030F0A3
:1003C00093FEC04606B070BD94A30008905E041072
:1003D000A05E041000ED00E0F05E0410005F041069
:1003E000105F0410205F0410345F0410445F041099
:1003F000505F041082B001900091009B180002B081
:100400007047000000B58FB0039002910192039BEA
:10041000002B05D13849394B2C22180030F0AEFDA5
:10042000029B002B05D13449354B2D22180030F0AA
:10043000A5FD00F04DFE03000B930B9B002B02D09B
:100440000B9B1B6801E001235B420A93039B012184
:10045000180030F045FF03000993099B002BF5D0ED
:1004600000230D9300230C9333E0002304930C9B93
:100470001A04099B13430893039B5A680C9B1B01A6
:10048000D318079304AB0693089B0593059A069926
:10049000079B180030F0FEFE031E17D0089B0D933B
:1004A000039B5A680C9B1B01D318029ADA60039BCA
:1004B0005A680C9B1B01D3180A9A5A60039B5A680E
:1004C0000C9B1B01D318019A9A6008E00C9B013326
:1004D0000C93039B5B881A000C9B9342C5D30D9B26
:1004E000002B05D10449074B5822180030F046FD77
:1004F0000D9B18000FB000BD5C5F0410A45F0410DA
:10050000C05F0410DC5F041000B58BB00390029153
:10051000039B002B05D13949394B6122180030F07B
:100520002DFD029B002B05D13449364B6222180069
:1005300030F024FD029B1B0C0993039B5B881A007F
:10054000099B934209D3099A039B5B882E492F4844
:1005500000931300682230F04DFF039B5A68099BFB
:100560001B01D3181B68029A9A4205D0029B2649A8
:1005700027486C2230F03EFF00F0AAFD03000893EC
:10058000089B002B02D0089B1B6801E001235B4203
:100590000793039B5A68099B1B01D3185B68079A52
:1005A0009A420ED0039B5A68099B1B01D3189B6883
:1005B000079A9A4205D01449164B7622180030F05B
:1005C00019FF039B5A68099B1B01D31800225A602C
:1005D000039B5A68099B1B01D31800229A60039B56
:1005E0005A68099B1B01D318069300230593069BA9
:1005F000059A1A60C0460BB000BDC0465C5F04108F
:10060000A45F0410FC5F0410A861041018600410BB
:1006100064600410A060041000B589B003900291DA
:10062000039B002B05D13649364B8122180030F050
:10063000A5FC029B002B05D13349344B84221800C2
:1006400030F0D8FE029B1B0C0793039B5B881A00BB
:10065000079B934209D3079A039B5B882A492C483E
:10066000009313008A2230F0C5FE039B5A68079B53
:100670001B01D3181B68029A9A4205D0029B22499B
:1006800024488E2230F0B6FE00F022FD03000693CF
:10069000069B002B02D0069B1B6801E001235B42F6
:1006A0000593039B5A68079B1B01D3185B68059A47
:1006B0009A420ED0039B5A68079B1B01D3189B6874
:1006C000059A9A4205D01049134B9822180030F031
:1006D00091FE039B5A68079B1B01D318DB68002B14
:1006E00005D107490D4B9D22180030F047FC039BB4
:1006F0005A68079B1B01D318DB68180009B000BDBE
:100700005C5F0410A45F0410C4610410DC6004107A
:1007100018600410646004101C6104106C61041003
:1007200000B583B00190019B002B05D10E490F4B02
:100730006A22180030F05EFE0D4B180004F03EFAFD
:100740000C4B180005F096FC0B4B180007F09CFEB4
:100750000A4B180008F0CEFC019B054A1A600423DE
:10076000180003B000BDC046FC610410E061041035
:10077000C4000008EC000008140100083C01000857
:1007800084B001900091002303930FE0019B1A694C
:10079000039B5B01D3180293029B1B68009A9A4249
:1007A00001D1029B08E0039B01330393019B5B692A
:1007B000039A9A42EAD30023180004B0704700005D
:1007C00000B585B001900023039316E00F4B196824
:1007D000039A13009B009B18DB00CB18019A1100B1
:1007E0001800FFF7CDFF03000293029B002B01D0FE
:1007F000029B08E0039B01330393044B5B68039A5D
:100800009A42E3D30023180005B000BD940100080C
:1008100000B587B003900291029B002B0DD1039B82
:100820001B7D01225340DBB2002B06D0039B1B68CB
:100830001A491B48382230F0DDFD029B002B2BD0DB
:10084000029B9B69002B06D1029B1B68134915482C
:100850003D2230F0CFFD002305930CE0029B9A6906
:10086000059B9B00D3181A68039B1B689A4212D001
:10087000059B01330593029BDB69059A9A42EDD3F0
:10088000039B1A68029B1B680449074800931300E6
:10089000462230F0AFFDC04607B000BD0865041029
:1008A0000C620410446204107C62041000B583B032
:1008B00001900091009A0199034B1800FFF7A2FDE7
:1008C0000300180003B000BD9C01000800B583B010
:1008D0000190019A044B11001800FFF79DFE0300E0
:1008E000180003B000BDC0469C01000800B585B0EB
:1008F00001900091019B9B681A6A01235B421900D9
:10090000100034F039FB03000393039B002B05D048
:100910002349244B5722180030F030FB019BDB6940
:10092000002B03D1019B009A9A6103E0019BDB69D4
:10093000009A1A61019B009ADA61019B9B685A68D0
:10094000019B5B681900100036F06AF803000293FF
:10095000029B002B05DA1249134B6622180030F077
:100960000DFB019B5B68029A134005D10C490F4BAC
:100970006722180030F002FB019B9B681B6A18007D
:1009800034F024FB03000393039B002B05D00449A0
:10099000044B6B22180030F0F1FAC04605B000BDE0
:1009A000BC6204100063041014630410306304106C
:1009B00030B58BB005900491049B002B05D15649AE
:1009C000564B7022180030F0D9FA059B1800FFF73B
:1009D000F7FE03000993099B002B05D1059B5049A5
:1009E0005048742230F006FD099B1B69002B05D18D
:1009F000049B1A68099BDB689A4209D8099B1B690A
:100A0000012B17D1049B1A68099BDB689A4211D00D
:100A1000049B1D68099B1A68099BD968099B1B697F
:100A20003F4C41480293019100922B007A22210011
:100A300030F0E0FC00F04CFB03000893089A099B9F
:100A400011001800FFF7E4FE089A049B0C2118001F
:100A500000F078FB03001A0001235340DBB2002BA7
:100A600005D02F49314B8122180030F0C3FC304BA8
:100A70009B690021180033F085F903000793079B59
:100A8000002B1BD1049B2B4A5A60089B002B0FD0D4
:100A9000049B9B68180034F0A9FD03000693069B95
:100AA000002B35D01C49244B8A22180030F066FAFE
:100AB000049B9B68180001F02FFB29E0099B9B68B1
:100AC0001A68079B11001800FFF7F0FE0200049B54
:100AD0005A60079B02225A75079B089A1A60079B67
:100AE000099A5A60079B049ADA60079B01221A75DB
:100AF000079B00229A60079B00221A61079B002235
:100B00009A75079A099B11001800FFF7EFFE00E0A5
:100B1000C0460BB030BDC046BC6204104C6304102C
:100B2000F46404106063041080630410DC63041038
:100B300094010008010000800063041000B58FB02C
:100B40000190009109AB180010231A0000213EF01B
:100B500041FF05AB00221A6005AB00225A6005ABCD
:100B600009AA9A6005AB1022DA6002AB009A1A60FB
:100B700002AB00225A6005AB1A000021012034F0BC
:100B8000E1FC020002AB9A6002AB9B68002B05D12E
:100B900019491A4BB722180030F02CFC02AA019B0D
:100BA00011001800FFF704FF02AB9A6801235B42B3
:100BB0001900100034F0F2FC03000D930D9B002B84
:100BC00005D00F490F4BBD22180030F0D7F902AB0A
:100BD0009B68180034F02CFD03000D930D9B002B37
:100BE00005D00749074BC022180030F0C7F902AB07
:100BF0005B6818000FB000BD286504100C64041079
:100C0000BC6204100063041000B585B0019000912F
:100C1000009B002B05D13649364BC922180030F015
:100C2000ADF9019B1800FFF751FE03000393039BEE
:100C3000002B05D12E49304BCB22180030F09EF905
:100C4000039B1A68009B1821180000F07BFA030030
:100C50001A0001235340DBB2002B05D02749284B53
:100C6000CE22180030F0C6FB039B9B7D012B1DD1CB
:100C7000009B802212061A61039B1B68002B05D182
:100C8000009B5B69180001F047FA2EE0009B5B694E
:100C9000180034F0ABFC03000293029B002B24D01D
:100CA0001349184BD822180030F068F9039B15330C
:100CB00004220321180000F0A3F9039B009ADA60D4
:100CC000039B02221A75009B1868009B5968009BC1
:100CD0009A68009BDB6800F067F9039B5B68039AE6
:100CE00011001800FFF702FE00E0C04605B000BD8D
:100CF000BC6204104C630410446404103465041096
:100D00005C6404100063041000B595B00390029178
:100D1000019200930FAB180010231A0000213EF03F
:100D200059FE0BAB00221A600BAB00225A600BABD2
:100D30000FAA9A600BAB1022DA6005AB029A1A6018
:100D400005AB019A5A6005AB009A9A6005AB169AFA
:100D5000DA6005AB00221A610BAB1A0000210120FA
:100D600034F0F0FB020005AB5A6105AB5B69002B68
:100D700006D183235A001B491B4B180030F03AFB65
:100D800005AA039B11001800FFF73EFF05AB5A6947
:100D900001235B421900100034F000FC03001393A0
:100DA000139B002B06D086235A001049104B1800C5
:100DB00030F0E4F805AB5B69180034F039FC03004F
:100DC0001393139B002B07D01023FF331A000749FE
:100DD000074B180030F0D2F805AB1B69180015B0AE
:100DE00000BDC046446504100C640410BC620410CD
:100DF0000063041000B585B001900091009B002BAA
:100E000006D18C235A002049204B180030F0B6F848
:100E1000019B1800FFF75AFD03000393039B002B6F
:100E200007D11C23FF331A001749194B180030F063
:100E3000A5F8039B1A68009B0821180000F082F9AE
:100E400003001A0001235340DBB2002B06D08F238E
:100E50005A001049104B180030F0CCFA039B1533A0
:100E60000321180000F004F9039B009ADA60039B49
:100E700003221A75039B5B68039A11001800FFF7A1
:100E800035FDC04605B000BDBC6204104C630410C3
:100E900044640410506504108C64041000B58FB0D5
:100EA0000190019B002B55D009AB180010231A00AC
:100EB00000213EF08FFD05AB00221A6005AB002239
:100EC0005A6005AB09AA9A6005AB1022DA6003AB41
:100ED000019A1A6005AB1A000021012034F032FBA0
:100EE000020003AB5A6003AB5B68002B06D1A12361
:100EF0005A001A491A4B180030F07CFA03AA019BD9
:100F000011001800FFF776FF03AB5A6801235B421C
:100F10001900100034F042FB03000D930D9B002BD1
:100F200006D0A4235A000F490F4B180030F026F8C2
:100F300003AB5B68180034F07BFB03000D930D9B43
:100F4000002B08D04C23FF331A000649064B18002B
:100F500030F014F8C0460FB000BDC0466065041004
:100F6000BC640410BC6204100063041000B585B0BA
:100F7000019000230393019B1800FFF721FC03005D
:100F80000293029B002B0AD000F0A2F8031E03D1AB
:100F9000029B1B7D002B02D0029BDB680393039B0B
:100FA000180005B000BD000000B589B0079006919B
:100FB00005920493079B002B02D1069B002B0AD1BC
:100FC000059B002B02D1049B002B04D1069A049BA5
:100FD000D318042B0CD9079A07490848049B02939D
:100FE000059B0193069B00931300262230F002FA22
:100FF000C04609B000BDC046886604106C65041088
:1010000000B587B00390080011000B236B44021C4D
:101010001A700A236B440A1C1A7017236B440B22A4
:101020006A4412781A700A236B441A7817216944AB
:10103000039B180030F0FEF803001A000123534010
:10104000DBB2002B0DD017236B441B781A000B2347
:101050006B441B7804490548009313002F2230F09D
:10106000C9F9C04607B000BD98660410C0650410F9
:1010700000B589B003900A000B236B441A70039BE0
:10108000069317236B44069A12781A7017236B4441
:101090001A781F236B441A701F226A440B236B4477
:1010A00012781B789A420CD01F236B441A780B23BA
:1010B0006B441B780449054800931300382230F034
:1010C00099F9C04609B000BDB0660410C0650410AF
:1010D00000B583B035F07AFC03000093009B002B31
:1010E00005D11549154B5E2218002FF047FF00234C
:1010F000019317E0124B1968019A13009B009B188B
:10110000DB00CB185B68009A9A4208D10C4B196837
:10111000019A13009B009B18DB00CB1808E0019B91
:1011200001330193064B5B68019A9A42E2D3002394
:10113000180003B000BDC0460866041068660410BD
:10114000940100088CB0039002910192039B002B44
:1011500001D1002376E0029B002B01D1012371E035
:10116000039A029BD3185A1E039B9A4201D2002372
:1011700068E080231B050B9380235B020A93802386
:101180005B05099380231B030893304B0793304B77
:101190000693304B0593F023DB020493019B002B55
:1011A00027D1039B079A9A420FD8079A069BD21819
:1011B000039B9A4209D9039A029BD2180799069B6E
:1011C000CB189A4201D801233CE0039B059A9A422E
:1011D00037D8059A049BD218039B9A4231D9039AB7
:1011E000029BD2180599049BCB189A4229D8012357
:1011F00028E0039B0B9A9A420FD80B9A0A9BD218AD
:10120000039B9A4209D9039A029BD2180B990A9B15
:10121000CB189A4201D8012314E0039B099A9A4201
:101220000FD8099A089BD218039B9A4209D9039AAE
:10123000029BD2180999089BCB189A4201D8012326
:1012400000E0002318000CB07047C0460000010801
:10125000007503000000081010B536F02FFD174B85
:101260001A0018210A2032F061FD0200144B9A6125
:10127000134B9B69002B05D1124A134B1100180028
:1012800030F0B8F8114B1A0028210A2032F04EFD38
:1012900002000B4BDA610A4BDB69002B05D1094ACE
:1012A0000B4B1100180030F0A5F8054B1800FFF7A4
:1012B00037FA0200024B5A60C04610BD64010008B4
:1012C0009401000858670410F86604107C010008B7
:1012D0002467041010B5034B1B68180001F078F860
:1012E000F9E7C046B801000800B583B0019000914D
:1012F000009A0199034B1800FFF784F803001800C7
:1013000003B000BDA401000800B583B00190019AAC
:10131000044B11001800FFF77FF90300180003B019
:1013200000BDC046A401000800B583B00190019A39
:10133000034B11001800FFF7E7F8C04603B000BDEB
:10134000A401000800B583B00190019A034B11007D
:101350001800FFF7D9F8C04603B000BD9C01000893
:1013600084B0019000910023039311E0019B1A695E
:10137000039B5B01D3185B68009A9A4205D1019BDD
:101380001A69039B5B01D31808E0039B01330393A5
:10139000019B5B69039A9A42E8D30023180004B0CA
:1013A0007047000010B596B00190009103AB180093
:1013B00028231A0000213EF00DFB03AB019A1A60AE
:1013C000019B1B7D022B00D0F6E0019BD868019B9E
:1013D0001B681A001821FFF7B5FE03001A0001234D
:1013E0005340DBB2002B05D08D498E4B5B22180099
:1013F00030F000F8019BDB681393139B1B6812937A
:10140000139B5B681193139B9B681093139BDB6882
:101410000F930F9B109A11991298FFF7C5FD119B1E
:10142000D9B203AB24229954119B002B5DD0119BA0
:10143000D900019B1A68129B1800FFF783FE030076
:101440001A0001235340DBB2002B05D07449764BC0
:101450006B2218002FF0CEFF0023159341E0159B5F
:10146000DB00129AD3185B68002B36D0159BDB008B
:10147000129AD01803AA159BDB000421D3185B181D
:10148000020003CA03C3159BDB00129AD3185A68E3
:101490000099159B02339B00CB1804331A6003AAF2
:1014A000159BDB00D3180433186803AA159BDB00D7
:1014B000D31808331968019B1B681A00FFF742FE16
:1014C00003001A0001235340DBB2002B06D0159B0A
:1014D000534956487C222FF08DFFC046159B01339F
:1014E0001593159A119B9A42B9D30F9B002B63D089
:1014F0000F9BD900019B1A68109B1800FFF722FE72
:1015000003001A0001235340DBB2002B05D04449ED
:10151000474B832218002FF06DFF0023149347E000
:10152000149BDB00109AD3185B68002B3CD0149BF3
:10153000DB00109AD018119A149BD31803AADB0071
:101540000421D3185B18020003CA03C3149BDB00F9
:10155000109AD3185A680099149B06339B00CB1835
:1015600004331A60119A149BD31803AADB00D31812
:1015700004331868119A149BD31803AADB00D318FC
:1015800008331968019B1B681A00FFF7DBFD030095
:101590001A0001235340DBB2002B06D0149B2049D4
:1015A000244894222FF026FFC046149B0133149345
:1015B000149A0F9B9A42B3D31F4BDA6901235B4203
:1015C0001900100032F0DEFB03000E930E9B002B7F
:1015D00005D11349194B9D2218002FF00BFF0E9BCC
:1015E00003AA13CA13C313CA13C313CA13C31268BB
:1015F0001A600E9B00211800FFF776FE03000D9382
:10160000019B1B7D1A00009B1A60019B9A68009B3E
:101610009A60009B0D9A5A60C04616B010BDC04635
:10162000A86D04106867041090670410B067041078
:10163000D4670410F46704109401000818680410BB
:1016400000B587B00190019B9B681A6A01235B4239
:101650001900100033F090FC03000593059B002B4C
:1016600005D02849284BAD2218002FF087FC019B9C
:101670009B690493049B002B05D12449244BB3227E
:1016800018002FF0B7FE049B1A69019B9A61049B16
:1016900000221A61019B9B69002B1DD1019B002236
:1016A000DA61019B5B68180035F0E2F903000393EF
:1016B000039B002B05DA1349164BBF2218002FF0AD
:1016C0005DFC019B5B68039A134005D10D49124BE9
:1016D000C02218002FF052FC019B9B681B6A180067
:1016E00033F074FC03000593059B002B05D00549DE
:1016F000054BC52218002FF041FC049B180007B0D1
:1017000000BDC0464468041088680410BC6D041015
:101710009C680410BC680410D868041000B58BB035
:101720000491039217236B44021C1A70FFF7D0FC3C
:1017300003000993099B002B05D12A492A4BCE228D
:1017400018002FF01BFC099BDB6808221343089349
:10175000099B9B68089A1343079317236B441B78D4
:10176000002B02D0079B04930EE0089B049A1340C1
:10177000049A9A4208D0049A1C491D48089B009379
:101780001300DB222FF036FE039A80231B069A42B9
:1017900001D0039B01E001235B4204981A0002215F
:1017A00035F0A2F903000693069B079A1340069AA8
:1017B0009A420DD0039A80231B069A4202D0069BC0
:1017C000023305D007490B4BE72218002FF0D6FB58
:1017D000069B023301D0069B00E0002318000BB0EB
:1017E00000BDC04644680410F4680410DC6D0410A9
:1017F000146904105069041000B583B00190019B76
:101800001A0000210120FFF789FF0300180003B030
:1018100000BD000010B58AB003900291FFF758FC9C
:1018200003000993099B002B05D15149514BF92223
:1018300018002FF0A3FB099A029B2C211800FFF738
:1018400081FC03001A0001235340DBB2002B05D0BA
:1018500049494A4BFC2218002FF0CCFD029B2C2258
:10186000002118003EF0B6F8039B002B06D0039B26
:10187000013B039A134001D1012200E000222323FF
:101880006B441A701A7801210A401A7023236B44A2
:101890001B7801225340DBB2002B04D1099B9B68CB
:1018A000039A13400AD1099B9B68039C842252002F
:1018B00031493348009323002FF09CFD35F0FCF8AC
:1018C00003000793039B079A134007D10E23FF33AE
:1018D0001A0029492B4B18002FF08CFD039A099B05
:1018E00011001800FFF73CFD03000693069B002B38
:1018F00007D1039C89235A001F49234823002FF056
:1019000079FD069B1800FFF79BFE03000593059BDE
:101910001B7D022B0AD0032B10D0012B15D1059B68
:10192000153302211800FFF7A3FB18E0059B1533C0
:10193000052204211800FFF763FB10E0059B153317
:1019400003211800FFF794FB09E0059B1B7D1C0099
:1019500097235A0008490D4823002FF04BFD029AA7
:10196000059B11001800FFF71DFDC0460AB010BD11
:1019700044680410F4680410E86D0410CC69041085
:10198000E8690410346A0410506A0410A06A041054
:1019900000B587B00390029101920093039B180059
:1019A000FFF7B2FC03000593059B1B681533052167
:1019B0001800FFF75DFB029B032B06D99E235A00FC
:1019C0001C491D4B18002FF015FD059B24229B5C24
:1019D0001A00029B934201D3002327E0029BDB0005
:1019E000059AD31804330493049B5B68009A9A42C7
:1019F00002D9049B5B680093009B002B15D0019BD0
:101A0000002B06D0049B1968009A019B18003DF03A
:101A10004FFF049B1A68009BD218049B1A60049B1A
:101A20005A68009BD21A049B5A60009B180007B0AA
:101A300000BDC046F06D0410D06A041000B587B038
:101A40000390029101920093FFF742FB030005937C
:101A5000059B002B07D15823FF331A001149124B65
:101A600018002FF08BFA059A0099019B1800FFF7D8
:101A700069FB03001A0001235340DBB2002B06D0A0
:101A8000AD235A0009490A4B18002FF0B3FC009B04
:101A9000019A02990398FFF77BFF0300180007B033
:101AA00000BDC04644680410F4680410006E0410C1
:101AB000EC6A041010B58AB0059004910392029369
:101AC000029B002B6BD0FFF703FB03000993099BDC
:101AD000002B06D1B6235A003249334B18002FF0A1
:101AE0004DFA099A0299039B1800FFF72BFB03009C
:101AF0001A0001235340DBB2002B07D07023FF33C1
:101B00001A002A492A4B18002FF074FC059B180074
:101B1000FFF7FAFB03000893089B1B6815330521A8
:101B20001800FFF7A5FA089B24229B5C1A00049B6F
:101B30009B180493049B032B06D9BC235A001B4912
:101B40001C4B18002FF056FC049BDB00089AD3189E
:101B500004330793079B5B68029A9A420AD9079B52
:101B60005B68029C7E22FF321049134800932300D9
:101B70002FF040FC079B1B68029A039918003DF068
:101B800097FE079B1A68029BD218079B1A60079B57
:101B90005A68029BD21A079B5A60C04600E0C046B2
:101BA0000AB010BD44680410F46804100C6E0410F0
:101BB000EC6A04100C6B0410286B041010B58EB086
:101BC00001900091019B1800FFF79EFB03000B930F
:101BD0000B9B1B680D930D9B002B07D18C23FF33B0
:101BE0001A008B498B4B18002FF0C8F90D9BDB684E
:101BF000002B06D1C6235A008549874B18002FF0C9
:101C0000BDF9019B1800FFF78FFB0B9B28220021D9
:101C100018003DF0DFFE814BDB690B9A11001800C4
:101C200032F0D8F803000A930A9B002B06D0CB238E
:101C30005A0077497A4B18002FF0A0F900230C9333
:101C40000D9B1A6827236B4451424A411A700D9B21
:101C50001B7D022B51D0032B00D178E0012B00D04B
:101C6000A3E0009B002B0CD0009B6E4A934208D04F
:101C7000009CA023FF331A006B496C4823002FF00F
:101C8000B9FB0D9BDB680593059B9B680C93009B40
:101C9000644A934229D10D9B153302211800FFF7A6
:101CA000E7F9059B5B681800FFF74CFB0D9B1822BA
:101CB000002118003DF08EFE584B9B690D9A1100D3
:101CC000180032F087F803000493049B002B06D021
:101CD000D9235A004E49524B18002FF04FF9059B5B
:101CE000009A5A6000230D936BE00D9B153303227D
:101CF00002211800FFF784F963E0009A80231B0695
:101D00009A420BD0009B4A4A934207DA009CE02398
:101D10005A004549474823002FF06CFB0D9B1533B3
:101D2000032205211800FFF76BF9009A80231B0698
:101D30009A4202D10D9B01229A750D9BDB68069396
:101D4000069B009A1A61069B5B690C9339E00D9B18
:101D5000DB680893089B5B680C930D9B153301228D
:101D600003211800FFF74CF9089B1B681800FFF7C8
:101D7000E9FA0D9B1822002118003DF02BFE274B9D
:101D80009B690D9A1100180032F024F803000793A4
:101D900000230D93079B002B12D0E223FF331A0080
:101DA0001B491F4B18002FF0E9F80D9B1B7D1C00F1
:101DB000EA23FF331A001C491F4823002FF01AFBA7
:101DC000C0460D9B002B05D00D9B0022DA600D9BB9
:101DD00000221A7527236B441B78002B04D00C9B20
:101DE000180000F099F90FE00C9B180033F0FEFB8F
:101DF00003000393039B002B06D0FB235A000449E6
:101E0000074B18002FF0BAF8C0460EB010BDC04600
:101E100044680410686B0410886B04109401000877
:101E20008868041001000080186E0410B06B041064
:101E300080000080EC6B0410246C041000B585B0A9
:101E40000190019B1800FFF75FFA03000393039BC7
:101E50001B68002B05D10A4A0A490B4B18002FF0CA
:101E60008DF8039B1B681B68002B02D101235B428A
:101E700003E0039B1B681B681B68180005B000BDCE
:101E80001E02000044680410C46C041000B585B044
:101E900001900091019B1800FFF736FA03000393AD
:101EA000039B1B68009A9A60C04605B000BD000005
:101EB00000B583B0154B1B685B69180033F096FBC7
:101EC00003000193019B002B08D0019B033305D035
:101ED0000F49104B442218002FF050F80E4B1B688E
:101EE0001B69180033F082FB03000193019B002B58
:101EF00008D0019B033305D00549064B4722180043
:101F00002FF03CF8C04603B000BDC046B401000845
:101F10003C6E04109C6E0410B801000810B536F039
:101F2000FDF8C04610BD10B536F0F8F8C04610BD3B
:101F300000B587B001AB186059609A6001AB1B68AF
:101F4000022B11D002D8012B05D045E0032B15D070
:101F5000042B1DD040E001AB9A6801AB5B6819000F
:101F60001000FEF725FD3DE001AB9B681A0001ABB8
:101F70005B6819001000FEF747FE33E001AB9B6879
:101F80001A0001AB5B6819001000FEF733FF29E06F
:101F900001AB5B680593059B002208211800FFF741
:101FA000D1F803001A0001235340DBB2002B05D007
:101FB0000E490F4B6C2218002FF01CFA01AB9B68E6
:101FC0001800FEF7D3FF0200059B1A60059B5B68B3
:101FD000180000F0A1F805E00649074B752218002B
:101FE0002EF0CCFFC04607B000BDC046786F04108D
:101FF000D46E04103C6E0410FC6E041000B599B051
:10200000394B17930FAB394A1A60179B0C331A00E0
:102010000FAB5A60179B48331A000FAB9A606B46A0
:1020200018003C231A0000213DF0D4FC6B46304AD6
:102030001A600FAB5B6816930FAB9B6815936946EC
:10204000169B3C2218003DF033FC6946159B3C2250
:1020500018003DF02DFC0FA9179B0C2218003DF035
:1020600027FC244B180032F063FF03001493149BE9
:10207000002B05D12049214B9F2218002EF07EFF16
:102080001F4B1A000021012033F05CFA0300139368
:10209000139B002B05D118491A4BA22218002EF0D1
:1020A0006DFF194B1A000021012033F04BFA030099
:1020B0001293129B002B05D10F49144BA522180037
:1020C0002EF05CFF124B1868139B149A159900F0C0
:1020D0003DF8104B1B68129A1699180000F096F8FC
:1020E000C04619B000BDC04600750408779A333D5C
:1020F0000C4A2863486F04103C6E0410046F0410EF
:10210000586F0410186F0410686F0410306F0410BB
:10211000B4010008B801000800B587B0019003AB16
:1021200018000C231A0000213DF054FC019A03AB67
:102130005A60054B186803AB19685A689B6800F031
:10214000B5F8C04607B000BDB401000800B585B0C1
:102150000390029101920093039B002B05D1234928
:10216000234B242218002EF009FF029B002B05D1DF
:102170001E49204B252218002EF000FF029B1B68F1
:102180001D4A934205D019491C4B262218002EF0F7
:10219000F5FE019B002B05D11449194B272218008D
:1021A0002EF0ECFE009B002B05D11049154B282288
:1021B00018002EF0E3FE039B134A1A60029B1A1DBF
:1021C000039B5A60029B08331A00039B9A60029B90
:1021D0000C331A00039BDA60039B019A1A61039B7C
:1021E000009A5A61C04605B000BDC046886F041011
:1021F000D46F0410E46F04100C4A2863FC6F0410C1
:102200002C7004103C700410FFD948A200B585B0B2
:10221000039002910192039B002B05D11C491D4B99
:10222000372218002EF0AAFE029B002B05D1184978
:10223000194B382218002EF0A1FE029B1B68174A8A
:10224000934205D01249164B392218002EF096FE03
:10225000019B002B05D10E49124B3A2218002EF09B
:102260008DFE039B104A1A60029B1A1D039B5A6045
:10227000029B08331A00039B9A60029B0C331A00DE
:10228000039BDA60039B019A1A61C04605B000BD4A
:10229000886F0410D46F0410E46F04100C4A286394
:1022A000FC6F04105470041042658BA610B586B004
:1022B00003906846016042608360039B002B05D158
:1022C0003D493E4B472218002EF058FE039B1B68E9
:1022D0003B4A934205D038493A4B482218002EF029
:1022E0004DFE039B1A6901235B421900100032F076
:1022F00043FE03000593059B002B1BD02E49324B58
:102300004B2218002EF03AFE039B5A69FA235B0019
:102310001900100033F042F903000593059B002BD0
:1023200008D0059B023305D02349284B50221800C2
:102330002EF024FE039B9B681B68013303221A4086
:10234000039B5B681B689A42DED0039BD968039BA2
:102350009B681A6813005B009B189B00CB186A46A9
:1023600013CA13C3039B9B681B685A1C039B9B687F
:1023700003210A401A60039B5B681B680133032238
:102380001A40039B9B681B689A4201D1FFF7C6FD68
:10239000039B1B69180032F019FE03000593059B8F
:1023A000002B05D00449084B5D2218002EF0E6FDF5
:1023B000C04606B010BDC046886F0410D46F04102C
:1023C000FFD948A26870041094700410A87004101B
:1023D00010B586B00190019B002B05D12D492E4BE5
:1023E000632218002EF0CAFD019B1B682B4A934202
:1023F00005D028492A4B642218002EF0BFFD019B0E
:102400001A69FA235B001900100033F0C7F80300C3
:102410000593059B002B31D0059B02332ED01D491F
:10242000204B682218002EF0A9FD019BD968019B62
:102430005B681A6813005B009B189B00CA1802AB0C
:1024400013CA13C3019B5B681B685A1C019B5B6822
:1024500003210A401A60019B9B681B680233032218
:102460001A40019B5B681B689A4201D1FFF75BFD34
:1024700002AB186859689A68FFF75AFD019B5B68C0
:102480001A68019B9B681B689A42CED1C04606B071
:1024900010BDC046886F0410D46F041042658BA62F
:1024A000E0700410A870041000B58BB00291019286
:1024B0000F236B44021C1A70364B1B68012B01D191
:1024C000002364E0344B0893089B1B88334A9342F3
:1024D00001D001235BE0089B5B881A002E4BD318C8
:1024E00007932D4B04330993019B032B01D8012340
:1024F0004DE0029B0693069B284A1A80069B042205
:102500005A80029B0433029337E0099B0593059B95
:102510001B881B0B9AB20F236B441B789BB29A4209
:1025200021D1069B5B881A00059B5B88D3181A0093
:10253000019B934201D2012329E0059B5B881A008D
:102540000599029B18003DF0B3F9059B5B881A00C2
:10255000029B9B180293069B5A88059B5B88D318A5
:102560009AB2069B5A80059B5B88002B0AD0059B7C
:102570005B881A00099B9B180993099A079B9A424A
:10258000C3D300E0C046034B01221A6000231800A9
:102590000BB000BD8C1D00084C710410162000000B
:1025A00082B00190019B073301D1402300E040231A
:1025B000180002B07047000070B58EB00790069109
:1025C00004A90A604B6037236B4400221A70079BF2
:1025D0001800FFF7E5FF03000C9311230B9326234C
:1025E0006B4400221A8012AB5B680C9A9A4201D9A4
:1025F000062340E026226A440B9B1900012003F0C9
:10260000EBFA03000A930A9B002B01D00B2332E064
:1026100026236B44188804AB1C6804AB5D6812ABBE
:102620001A6812AB5B6814990431144E029101933D
:1026300000922B002200310003F028FA03000A93D5
:102640000A9B002B0AD026236B441B88180003F03A
:102650000FFB37236B4401221A7003E012AB1A6898
:10266000149B1A6026236B441B88180003F000FBA0
:1026700037236B441B7818000EB070BD090007109B
:1026800000B5A5B0039001A80160426000931CABA7
:10269000180018231A0000213DF09CF904AB180023
:1026A00060231A0000213DF095F98B236B441CAA8E
:1026B00004A8602100F07CF903002393239B002BE6
:1026C00007D11CAB9B68002B03D01CAB1B69002BF4
:1026D00001D107234FE08B236B441B781A00009B2A
:1026E0001A6026AB5A681CABDB689A4201D20723FA
:1026F00041E026AB18681CAB99681CABDB681A007C
:102700003DF0D6F81CABDA6826AB5A60082326AA3F
:10271000944663445A681CAB5B699A4201D2072312
:1027200029E0082326AA9446634418681CAB19695B
:102730001CAB5B691A003DF0BBF81CAB5A6908235F
:1027400026A98C4663445A6026AB1A682A9B1A60F5
:1027500026AB5A682A9B5A60082326AA94466344EB
:102760001A682B9B1A60082326AA944663445A6869
:102770002B9B5A600023180025B000BD00231800D1
:102780007047000084B00190019B064A934202D139
:10279000054B039302E0054B0393C046039B1800CF
:1027A00004B07047C0E6FEFF09000001020000010E
:1027B00010B586B00190009117236B4400221A7067
:1027C00017246C44FFF7DAFF0300237017236B44D0
:1027D0001B78002B03D017236B441B782FE0019B41
:1027E0000493049B04330422002118003DF0F2F806
:1027F000049B1C1D009B1800FFF7C4FF0300190079
:10280000200003F08DF803000393039B002B07D1F6
:10281000049B00221A6017236B4400221A700BE0FD
:10282000039B863304D117236B4403221A7003E001
:1028300017236B4404221A7017236B441B7818006B
:1028400006B010BD00B587B0039001AB19605A60A7
:10285000039B0593059B1B68002B0FD101AB1B68E5
:10286000002B0BD0059B181D01AB196801AB5B68F1
:102870001A0003F08FF80200059B1A60C04607B0EB
:1028800000BD00B589B0039001A8016042600093CB
:102890001F236B4400221A70039B0693069B1B6840
:1028A000002B24D1069B181D01AB196801AB5A6897
:1028B000009B043303F0A1F803000593059B002B54
:1028C00008D101AB1A68009B1A601F236B440022D9
:1028D0001A7010E0059B8A3304D11F236B44052234
:1028E0001A7008E01F236B4404221A7003E01F23B0
:1028F0006B4404221A701F236B441B78180009B024
:1029000000BD86B0039002910192019B05930CE0FB
:10291000029B1A78039B1A70029B01330293039B5C
:1029200001330393059B013B0593059B002BEFD1DE
:10293000C04606B07047000084B001900091019B32
:10294000184A1340184A934202D1019B9AB200E000
:1029500000220E236B441A800E236B441B88173B06
:10296000072B18D89A00114BD3181B689F46009B61
:1029700001221A7012E0009B02221A700EE0009BE6
:1029800003221A700AE0009B04221A7006E0009BE2
:1029900005221A7002E086235B4200E00023180043
:1029A00004B070470000FFEF000003600C710410DA
:1029B00010B592B0039002910192009300231193FD
:1029C00000230F9300230E930023059300230D9300
:1029D00000230C9311230B9312236B4400221A80C3
:1029E00012226A440B9B1900012003F0F5F8030042
:1029F0000A930A9B002B01D0012328E112236B4488
:102A00001B8806AA07A9180003F012FA03000A930C
:102A10000A9B002B07D012236B441B88180003F07D
:102A200027F9012313E1079B8A4A13408A4A9342FC
:102A300007D012236B441B88180003F019F90123F7
:102A400005E1079B854A13400993099AC023DB05DA
:102A50001A408023DB059A4203D1069B0733DB082B
:102A600041E0099B7E4A934208D1069B5B080133F3
:102A7000DA081300DB009B183B3334E0099B794AEA
:102A8000934203D1069BDB0810332CE0099B764A66
:102A9000934206D1069BDA0813005B009B185A3359
:102AA00021E0099B714A934206D1069BDA08130084
:102AB0005B009B184A3316E0099B1B0C1B046C4AF5
:102AC000934203D1069B0733DB080CE0099B1B0CE8
:102AD0001B04614A934205D1069B0733DB085B0068
:102AE000013300E000230E930E9B18003CF0A6FB80
:102AF00003000F930F9B002B07D112236B441B88FD
:102B0000180003F0B5F80123A1E012236B441888E4
:102B100005AB0E9A0F9903F033FA03000A930A9B50
:102B2000002B0BD00F9B18003CF092FB12236B4440
:102B30001B88180003F09CF8012388E0079B009A8B
:102B400011001800FFF7F8FE03000A930A9B002B00
:102B50000BD00F9B18003CF07BFB12236B441B88AF
:102B6000180003F085F8012371E00F9B1093039B7D
:102B70001193059B013B5B08180043F0E5F8030047
:102B80000C00180021003BF039FF03000C00180076
:102B9000210041F08DFA03000D93059B013B5B087A
:102BA000180043F0D1F803000C00180021003BF09E
:102BB00025FF03000C001800210041F079FA030002
:102BC0000C930D9B002B15D0109B013310930D9B84
:102BD0000893089A1099119B1800FFF792FE019B29
:102BE000119A9A60019B089ADA60119A089BD3188F
:102BF000119305E0019B00229A60019B0022DA609C
:102C00000C9B002B12D0109A0D9BD31810930C9B89
:102C10000893089A1099119B1800FFF772FE019B08
:102C2000119A1A61019B089A5A6105E0019B0022E2
:102C30001A61019B00225A610F9B18003CF008FBAF
:102C400012236B441B88180003F012F800231800AD
:102C500012B010BD0000FFEF00000360FFFFFFEFA8
:102C600000000170000001600000027000000260BE
:102C70000000037000B583B005F0D5FB030001939D
:102C8000019BC0229201934223D0C0229201934221
:102C90000AD880225201934215D080229201934299
:102CA00014D0002B0DD020E0A022D201934216D0E8
:102CB000C022D201934215D08022D20193420BD080
:102CC00013E0002312E080235B010FE080239B01CF
:102CD0000CE0C0239B0109E08023DB0106E0A02378
:102CE000DB0103E0C023DB0100E00023180003B098
:102CF00000BD000000B58FB00190009111230B932F
:102D00001E236B4400221A8000230D9300230A9394
:102D10000023049300230C93002303931E226A4490
:102D20000B9B1900012002F057FF03000993099B38
:102D3000002B01D00123B8E01E236B441B8805AA99
:102D400006A9180003F074F803000993099B002BEF
:102D500002D001230C939AE0069B554A1340554A32
:102D6000934202D001230C9391E0069B524A1340F8
:102D70000893089AC023DB051A408023DB059A429A
:102D800003D1059B0733DB0841E0089B4B4A934284
:102D900008D1059B5B080133DA081300DB009B18A0
:102DA0003B3334E0089B464A934203D1059BDB0842
:102DB00010332CE0089B434A934206D1059BDA0866
:102DC00013005B009B185A3321E0089B3E4A934254
:102DD00006D1059BDA0813005B009B184A3316E006
:102DE000089B1B0C1B04394A934203D1059B0733F4
:102DF000DB080CE0089B1B0C1B042E4A934205D1F8
:102E0000059B0733DB085B00013300E000230A93D6
:102E10000A9B18003CF012FA03000D930D9B002B47
:102E200002D101230C9332E01E236B44188804ABBB
:102E30000A9A0D9903F0A4F803000993099B002B4B
:102E400002D001230C9322E0214A03AB11001800A9
:102E500002F066FD03000993099B002B02D00123B9
:102E60000C9314E0049A0D9903AB180002F092FD44
:102E7000019B009903A8202202F0BFFD03000993E3
:102E8000099B002B02D001230C9300E0C0460D9B50
:102E9000002B03D00D9B18003CF0DAF91E236B4485
:102EA0001B88180002F0E4FE0C9B18000FB000BD58
:102EB0000000FFEF00000360FFFFFFEF0000017064
:102EC000000001600000027000000260000003705A
:102ED0000900000182B00190034B1A68019B1A603F
:102EE0000023180002B07047F03F000882B0019044
:102EF00000910323180002B0704700B585B001901F
:102F00000091009B01221A70009B5A1C019B11002A
:102F10001800FFF7EFFE03000393019B1B685A1C88
:102F2000019B1A60039B180005B000BD82B00190A0
:102F300000910323180002B07047000000B583B071
:102F400001900091019B1A680449009B18003CF015
:102F5000AFFC0023180003B000BDC046F871041098
:102F600010B5FFF787FE0300180010BD82B0019076
:102F7000019B0C221A60024B180002B07047C04639
:102F80002C71041082B00190019B0D221A60024B3B
:102F9000180002B07047C0463C71041084B0039022
:102FA00002916B4607331A70029B002B01D1042358
:102FB00000E00023180004B0704784B0019002AB19
:102FC00000221A6002AB00225A60019B02AA03CAC7
:102FD00003C3019804B0704700B595B007900691FF
:102FE00005920493002313930023129332236B441E
:102FF00001221A8011231193012310930AAB00229E
:103000001A600AAB00225A60734B0F9300230E9391
:1030100032226A441199109B180002F091FD0300BE
:103020001393139B002B01D0139BD1E002AB18002C
:10303000FFF7C3FF694A0F990AAB180002F056FE6A
:1030400032236B441B880AAA1100180002F05CFEB0
:1030500003001393139B002B01D0139BB8E0059B37
:103060001B0C1B045E4A934202D087235B42AFE0F5
:10307000079B002B14D0069B202B03D087235B4299
:1030800013939EE032236B441888069B079A059998
:1030900002F084FE03001393139B002B13D090E0E7
:1030A00080235B00129332236B441888129A05998F
:1030B00000230093002302F07DFF03001393139B72
:1030C000002B00D076E032236B441B8809AA08A9A4
:1030D000180002F0ADFE03001393139B002B00D0E9
:1030E0006AE0089B3F4A13400D930D9AC023DB050D
:1030F0001A408023DB059A4203D1099B0733DB0882
:1031000041E00D9B384A934208D1099B5B0801338B
:10311000DA081300DB009B183B3334E00D9B334A85
:10312000934203D1099BDB0810332CE00D9B304AFE
:10313000934206D1099BDA0813005B009B185A33AF
:1031400021E00D9B2B4A934206D1099BDA0813001C
:103150005B009B184A3316E00D9B1B0C1B04204A96
:10316000934203D1099B0733DB080CE00D9B1B0C3A
:103170001B04214A934205D1099B0733DB085B00FE
:10318000013300E000230E9332236B441888179B11
:10319000169A049902F0F4FE03001393139B002B7C
:1031A0000CD1179B1B680E9A9A4209D287235B4267
:1031B000139306E0C04604E0C04602E0C04600E0CB
:1031C000C04632236B441B88180002F051FD139B4C
:1031D000180015B000BDC046010C00000900071022
:1031E00000000370FFFFFFEF0000017000000160AE
:1031F00000000270000002600000036010B584B09F
:10320000039000920193009B019C03991A002300F4
:10321000080002F026FA069B079C03991A00230077
:10322000080002F01EFAC04604B010BD00B585B01B
:10323000039001AB19605A6001AB03981A685B6890
:10324000032102F043FAC04605B000BD10B584B0BA
:10325000039000920193009B019C03991A002300A4
:10326000080002F0FEF906AB039819685A68FFF7E8
:10327000DDFFC04604B010BD00B585B0039001ABC2
:1032800019605A6001AB03981A685B68022102F06A
:103290001DFAC04605B000BD10B584B00390009281
:1032A0000193009B019C03991A002300080002F07F
:1032B000D8F906AB039819685A68FFF7DDFFC046D6
:1032C00004B010BD00B583B00190019B052118002A
:1032D00002F03FFAC04603B000BD00B583B00190D4
:1032E000019B00220521180002F065FAC04603B0D8
:1032F00000BD00B583B00190019B0221180002F0CF
:1033000028FAC04603B000BD00B583B0019000911B
:10331000009A019B0221180002F04DFAC04603B04A
:1033200000BD82B002006B4607331A706B4607334C
:103330001B78002B02D0032B02D003E0002302E015
:10334000042300E00323180002B0704730B589B0B1
:103350000590049103920293059B9821049A5A5078
:10336000059B9C21039A5A5005980C9B19685A6832
:1033700002F0BDF8059BA0331800049BDB0FDB07B0
:103380005A1E9341D9B2059B1E246C44039D029A98
:1033900000932B0001F036F9030023701E236B44C9
:1033A0001B78002B0AD01F246C441E236B441B780F
:1033B0001800FFF7B6FF030023700BE0059B180011
:1033C000FFF797FF059B1800FFF77CFF1F236B4457
:1033D00000221A701F236B441B78180009B030BDFF
:1033E00082B00190019B180002B0704770B586B0A2
:1033F00005900491029203930599049B1D00DB172D
:103400001E00029B039C009301942A0033000800D5
:10341000FFF7F4FEC04606B070BD70B586B00590EB
:10342000049103920599049B1C00DB171D00039A6D
:103430006B4641CA41C322002B000800FFF72CFF56
:10344000C04606B070BD70B586B005900491039279
:103450000599049B1C00DB171D00039A6B4641CAAB
:1034600041C322002B000800FFF7F0FEC04606B063
:1034700070BD10B588B0019000911F236B440022ED
:103480001A70019B1800FFF728FF019B05AA110085
:103490001800FFF739FF019BA03318001E246C446D
:1034A00005AB19685A6801F03BF9030023701E232D
:1034B0006B441B78002B0AD01F246C441E236B44E2
:1034C0001B781800FFF72DFF0300237021E0019BFC
:1034D0001D246C4403AA1100180002F0E8F903004F
:1034E00023701D236B441B78012B04D11F236B44D5
:1034F00001221A700DE01D236B441B78002B04D0B1
:103500001F236B4402221A7003E0009B03AA03CA24
:1035100003C31F236B441B78180008B010BD00B50F
:1035200083B00190019B0421180002F012F9C046FB
:1035300003B000BD10B584B0039000920193009BCE
:10354000019C03991A002300080002F08AF8039BEB
:103550001800FFF7E4FFC04604B010BD00B583B00B
:103560000190019B00220421180002F024F9C046BA
:1035700003B000BD00B583B00190019B0521180088
:1035800002F0E7F8C04603B000BD10B584B0039068
:1035900000920193009B019C03991A0023000800EC
:1035A00002F05FF8039B1800FFF7E4FFC04604B089
:1035B00010BD00B583B00190019B002205211800C9
:1035C00002F0F9F8C04603B000BD00B585B0039025
:1035D00002910192019A0299039B18003CF068F94C
:1035E0000300180005B000BD00B583B080239A0029
:1035F000054B19000120FEF757FF03000193019BC3
:10360000180003B000BDC046901D000882B0020043
:103610006B4607331A706B4607331B78002B02D0BA
:10362000012B02D003E0002302E0022300E0052387
:10363000180002B0704700B587B003900291019264
:10364000029B022B09D0042B15D0012B1AD1039B0E
:103650001B781A00019B1A6017E0039916236B442C
:1036600002221800FFF7B1FF16236B441B881A00D3
:10367000019B1A6009E00399019B04221800FFF7DF
:10368000A4FF02E001235B4200E00023180007B022
:1036900000BD000000B589B00291019200930F2394
:1036A0006B44021C1A702A4B0693069B1B88294AFE
:1036B000934202D001235B4246E0069B5B881A00DE
:1036C000234BD3180593009B1B68002B02D1224B80
:1036D000079334E0009B196804AB04221800FFF73D
:1036E00074FF009B1B6804AA52889B18079326E06E
:1036F000079904AB04221800FFF767FF04AB1B888F
:103700009B113F221A400F236B441B789A4210D121
:1037100004AB1B88DBB23F221340DAB2029B1A7063
:10372000009B079A1A6004AB5A88019B1A800123F8
:103730000AE004AB5B881A00079B9B180793079A63
:10374000059B9A42D4D30023180009B000BDC0469F
:10375000901D000816200000941D000810B588B0C8
:10376000029101920F236B44021C1A701F236B44B9
:1037700000221A70019B00221A60019C029A1721F4
:1037800069441F236B4418782300FFF783FF03006D
:103790000693069B012B0BD117236B441B780F223A
:1037A0006A4412789A4205D0069B012BE5D002E0CC
:1037B000C04600E0C046069B180008B010BD0000DF
:1037C00030B587B0039001920B236B440A1C1A702A
:1037D0000B236B441B78092B41D89A00234BD31839
:1037E0001B689F46019A039B02211800FFF715FEF4
:1037F00037E0019A039B06211800FFF724FE30E012
:10380000019A039B04211800FFF71DFE29E0019A8D
:10381000039B05211800FFF700FE22E0019B1868BA
:10382000019B5B6804AA1900FFF705FF03000593DD
:10383000059B002B01D0052314E0049B1C000023F2
:103840001D00039822002B000321FFF7CFFD08E0A5
:10385000019A039B01211800FFF7F5FD01E0052304
:1038600000E00023180007B030BDC04618720410F5
:1038700000B58DB00390029101920093019B0693D5
:1038800001230B93019908AB04221800FFF79DFE5A
:1038900008AB5A881E236B441A8008AB1B88DBB226
:1038A0003F221340DAB21D236B441A70039B1800A9
:1038B000FFF796FD03000A93009B002B36D00A9970
:1038C000022200230800FFF760FE2FE01D236B4457
:1038D0001B78DB08DBB2002B18D0069B1A1D04AB4B
:1038E0001A601E236B441B881A1F04AB5A601D23E9
:1038F0006B44197804AA039B1800FFF761FF0300CB
:103900000993099B002B01D0099B1AE0029BD8B2B6
:1039100006AB1E226A441D216944FFF7BBFE03006B
:103920000B930B9B013301D103230AE00B9B002B6C
:10393000CCD1009B002B03D00A9B1800FFF739FE67
:10394000002318000DB000BD00B58DB003900291AA
:103950000192019B069301230B9300230A93019983
:1039600008AB04221800FFF730FE08AB5A881E236C
:103970006B441A8008AB1B88DBB23F221340DAB2DB
:103980001D236B441A70039B1800FFF729FD0300E9
:103990000993099B1800FFF7EDFD35E01D236B44EB
:1039A0001B78DB08DBB2002B0CD00A9B002B1BD151
:1039B0000A9B01330A93069A029903980023FFF7A2
:1039C00057FF11E0069B1A1D04AB1A601E236B44BF
:1039D0001B881A1F04AB5A601D236B44197804AA74
:1039E000039B1800FFF7ECFE029BD8B206AB1E2229
:1039F0006A441D216944FFF74DFE03000B930B9BA6
:103A0000013301D1032307E00B9B002BC6D1099B97
:103A10001800FFF7CEFD002318000DB000BD000018
:103A200010B58AB00190002309930123089332E076
:103A300000230493089BD8B204AB16226A440F21DA
:103A40006944FFF727FE03000693069B013301D16B
:103A5000032332E0069B012B1AD1099B0133099302
:103A6000099B012B0ED1019B1800FFF7B9FC030045
:103A70000793134B0124644207991A00230008009E
:103A8000FFF758FD049A0899019B1800FFF75CFFA7
:103A9000089B01330893089B062BC9D9099B002B6F
:103AA00004D0079B1800FFF759FD05E00549019870
:103AB00001220023FFF79AFC002318000AB010BD72
:103AC00002DBFEFF01DBFEFF00B591B0019004AB0D
:103AD000180008231A0000213BF07CFF002302930A
:103AE00000230F9302AA0E236B4419000020FFF756
:103AF00035FE03000F930F9B012B0AD1029B1A1D69
:103B000004AB1A600E236B441B881A1F04AB5A6067
:103B100011E006AB19002020FFF7E8F903000E932F
:103B20000E9B002B01D003230CE004AB06AA1A6005
:103B300004AB20225A6004AA0449019B1800FFF735
:103B40006CFC0023180011B000BDC04604DBFEFF72
:103B500000B591B001902123059306AA05AB110091
:103B60001800FFF7CAF903000F930F9B002B01D039
:103B700003230CE003AB06AA1A60059A03AB5A6054
:103B800003AA0449019B1800FFF747FC0023180013
:103B900011B000BDFFDAFEFF00B58FB00190202309
:103BA000049305AA04AB11001800FFF7C7F903003E
:103BB0000D930D9B002B01D003230CE002AB05AA53
:103BC0001A60049A02AB5A6002AA0449019B1800C9
:103BD000FFF723FC002318000FB000BD05DBFEFF3C
:103BE00000B58FB001901223069304AB1800082390
:103BF0001A0000213BF0EEFE0023029300230D93F8
:103C000002AA0E236B4419000120FFF7A7FD030051
:103C10000D930D9B012B0AD1029B1A1D04AB1A6058
:103C20000E236B441B881A1F04AB5A6012E007AACC
:103C300006AB11001800FFF779F903000C930C9BF9
:103C4000002B01D003230CE004AB07AA1A60069AEC
:103C500004AB5A6004AA0449019B1800FFF7F3FB68
:103C6000002318000FB000BD03DBFEFF30B585B0A8
:103C7000019002AB1800FFF72DF903000393039B9B
:103C8000002B01D0039B0AE0029B1C00DB171D00E8
:103C90000449019822002B00FFF7A8FB002318001D
:103CA00005B030BD07DBFEFF70B58AB0019004ABF4
:103CB000180008231A0000213BF08CFE0023029319
:103CC0000023089302AA0E236B4419000220FFF779
:103CD00045FD03000893089B012B1DD1029B1A1D73
:103CE00004AB1A600E236B441B881A1F04AB5A6086
:103CF00004AB186804AB5B6806AA1900FFF79BFCCD
:103D000003000793079B002B01D0052321E0069AAF
:103D100026236B441A8005E026246C44FFF720F923
:103D20000300238026236B441A88C023DB019A42B8
:103D300001D905230DE026236B441B889BB21D008F
:103D400000231E00044901982A003300FFF74EFBB0
:103D5000002318000AB070BD06DBFEFF00B583B07B
:103D600001900091009A0449019B1800FFF755FB50
:103D70000023180003B000BD00DBFEFF00B587B0D4
:103D8000019003AB1800FFF7F1F8020004AB1A60D2
:103D900004AB1B68002B08D0039A04AB5A6004AA3A
:103DA0000449019B1800FFF74EFB0023180007B0E1
:103DB00000BDC046FEDAFEFF00B587B0019003AB40
:103DC0001800FFF7DFF8020004AB1A6004AB1B68B1
:103DD000002B08D0039A04AB5A6004AA0449019B43
:103DE0001800FFF730FB0023180007B000BDC046E5
:103DF00008DBFEFF82B00190019B242B07D002D884
:103E0000202B04D005E0302B01D0402B01D1002322
:103E100000E00423180002B0704730B5BFB0059031
:103E20000491039200233D9300233C93059B5B6820
:103E3000242B06D1059B1B681B6A3C93059B202203
:103E40005A603C9B072213403B9307235B423A9303
:103E5000E7246C4407235D423B9A3C9907A8049BE6
:103E600000932B00FFF772FA03002370E7236B44E3
:103E70001B78002B08D0E7236B441B781800FFF752
:103E8000C5FB03003D938EE0059A07AB11001800B7
:103E9000FFF764FF03003D933D9B002B00D06DE0D6
:103EA0003C9A8023DB05134050D107AB1800FFF785
:103EB0000BFE03003D933D9B002B61D107AB180027
:103EC000FFF75CFF03003D933D9B002B5AD107ABEE
:103ED0001800FFF771FF03003D933D9B002B53D16A
:103EE00007AB1800FFF734FE03003D933D9B002B0A
:103EF0004CD107AB1800FFF773FE03003D933D9BC9
:103F0000002B45D107AB1800FFF746FE03003D9399
:103F10003D9B002B3ED107AB1800FFF7A7FE030027
:103F20003D933D9B002B37D107AB1800FFF7BCFE3C
:103F300003003D933D9B002B30D107AB1800FFF7EA
:103F40006FFD03003D933D9B002B29D1E7246C447A
:103F5000039A07AB11001800FFF78BFA03002370D8
:103F6000E7236B441B78002B1CD0E7236B441B78A2
:103F70001800FFF74BFB03003D9314E0C04612E02E
:103F8000C04610E0C0460EE0C0460CE0C0460AE065
:103F9000C04608E0C04606E0C04604E0C04602E075
:103FA000C04600E0C0463D9B18003FB030BD00B5A4
:103FB0008DB0039002910192009300230B93039B19
:103FC0001A6809AB1A60039B5A6809AB5A60019BD7
:103FD0001A6807AB1A60019B5A6807AB5A6009ABB5
:103FE0005B681800FFF706FF03000B930B9B002B89
:103FF0002DD109AB186809AB5B6801221900FEF7E7
:10400000CDFF03000B930B9B002B22D107AB18684D
:1040100007AB5B6802221900FEF7C0FF03000B9399
:104020000B9B002B17D105AA07A909AB1800FFF7B6
:10403000F4FE03000B930B9B002B0ED105AB1A680B
:10404000019B1A6005AB5A68019B5A6006E0C046A6
:1040500004E0C04602E0C04600E0C0460B9B1800EA
:104060000DB000BD00B58FB0039002910192009396
:1040700000230D93039B1B681B680C93019B1B681B
:104080000B9309AB00221A6009AB0C9A5A6007AB7C
:1040900000221A6007AB144A5A60019B5B68032B2D
:1040A00002D804230D931BE00C9B1800FFF7A2FE1F
:1040B00003000D930D9B002B0FD105AA07A909AB97
:1040C0001800FFF7AAFE03000D930D9B002B06D1ED
:1040D00005AB5A680B9B1A6002E0C04600E0C04680
:1040E0000D9B18000FB000BDFFFFFF7F82B06B4635
:1040F000186059606B461B685A425341DBB2180086
:1041000002B0704710B584B0039000920193009BF9
:10411000019C03991A002300080001F0A2FA069BF3
:10412000079C03991A002300080001F09AFAC04680
:1041300004B010BD00B585B0039001AB19605A60A2
:1041400001AB03981A685B68022101F0BFFAC04610
:1041500005B000BD10B584B0039000920193009BA0
:10416000019C03991A002300080001F07AFA06ABBB
:10417000039819685A68FFF7DDFFC04604B010BD08
:1041800000B583B00190019B0421180001F0E1FA11
:10419000C04603B000BD00B583B00190019B002272
:1041A0000421180001F007FBC04603B000BD00B5B4
:1041B00083B00190019B0521180001F0CAFAC046A6
:1041C00003B000BD00B583B00190019B0022052122
:1041D000180001F0F0FAC04603B000BD00B583B08E
:1041E0006B46186059606B4618685968FFF77EFF88
:1041F0000300180003B000BD82B00190019B07339B
:1042000001D1402300E04023180002B0704782B083
:1042100000B589B0039001A80160426004220AA998
:104220008C4662441360039B1800FFF7E5FF030010
:10423000049304230AAA944663445B68049A9A424E
:1042400004D91F236B4406221A7032E00023069320
:104250001DE0049A069BD31A059301AB5B68059A8F
:104260009A4202D901AB5B68059304230AAA9446DB
:1042700063441A68069BD01801AB1B68059A1900A5
:104280003BF016FB01AB5B68069AD3180693069ABF
:10429000049B9A42DDD304230AAA944663441A6815
:1042A0000D9B1A600D9B049A5A601F236B440022D9
:1042B0001A701F236B441B78180009B008BC02B0A9
:1042C00018470000F0B5D1B00B905D4850ACA44643
:1042D00060440160426008931DAB1FAA1A601DABC9
:1042E00020225A6013AB15AA1A6013AB20225A6021
:1042F0004DAB00221A604DAB00225A603824FF34C7
:1043000002AB9C4664440EAF4DAA0B980FAB0593CD
:1043100011AB049313A908236B4460C960C31DA9A2
:104320006B4660C960C33B0011685268FEF7A8F98C
:10433000030023703823FF3302AA944663441B789A
:10434000002B73D13E4B50AA9446634427A81968AA
:104350005A6801F0CCF827AB1800FFF728FF27A90F
:104360000223002400930194012200230800FFF798
:10437000C9FE0E9B0693DB17079301235B42DC17F4
:1043800027A9069D079E009501961A0023000800A4
:10439000FFF7B8FE02204042C11727AC11AA6B46B6
:1043A00060CA60C302000B002000FFF7D3FE0320A9
:1043B0004042C11727AC234B50AAD2186B4660CAA3
:1043C00060C302000B002000FFF7C4FE27AB1800FB
:1043D000FFF7F8FE9B24640002AB9C4664440CAAE1
:1043E00027AB1100180001F062FA030023709B2331
:1043F0005B0002AA944663441B78002B07D0382345
:10440000FF3302AA9446634402221A700FE008990F
:104410000D4B50AAD2180B0003CA03C33823FF3335
:1044200002AA9446634400221A7000E0C046382372
:10443000FF3302AA944663441B78180051B0F0BDC4
:10444000E4FEFFFFFCFEFFFFF0FEFFFF30B5CDB046
:10445000214C4CADAC466444206061601F494CA8BF
:10446000844661440A604B603023FF336B44002272
:104470001A703024FF346C44194A05AB110018003F
:10448000FEF796F9030023703023FF336B441B784B
:10449000002B18D1104B4CAA9446634405A8196808
:1044A0005A68FEF7CFF93024FF346C4450990B4B17
:1044B0004CAAD21805A80B0011685268FEF7E1F962
:1044C0000300237000E0C0463023FF336B441B78A9
:1044D00018004DB030BDC046D8FEFFFFD0FEFFFF34
:1044E000C0E6FEFF10B59EB0059003A801604260D3
:1044F000029309AB0BAA1A6009AB4B225A607724CE
:104500006C4407AB09AA059811685268FFF7DAFEF8
:104510000300237077236B441B78002B0ED1772484
:104520006C4403AB07A9029A00921A685B6808689A
:104530004968FFF78BFF0300237000E0C046772334
:104540006B441B7818001EB010BD30B5B3B0059099
:10455000049102A90A604B6002AB09A819685A6865
:1045600000F0C5FF09AB1800FFF721FE049B1C00FB
:10457000DB171D0009A90094019501220023080002
:10458000FFF7C0FD09AB1800FFF71CFEC7246C4401
:104590002FAA09AB1100180001F089F9030023705C
:1045A000C7236B441B78002B04D107AB2FAA03CA87
:1045B00003C305E007AB00221A6007AB00225A6074
:1045C000059B07AA03CA03C3059833B030BD10B5D5
:1045D00086B0059003AB19605A60059B1800FFF781
:1045E000E6FD059903AA6B4611CA11C304220023F4
:1045F0000800FFF7AFFD059B1800FFF7E3FDC0467D
:1046000006B010BD10B596B0059003920293132327
:104610006B440A1C1A700AAB0CAA1A600AAB20225F
:104620005A60039B180000F0D3F903001493149B05
:104630003A4A934201D101236CE0059B039A9A61A7
:10464000059B029ADA61059B13226A4420211278A5
:104650005A54059B189A5A6213236B441B78002BFB
:104660000AD057246C4408AA0AAB1868596800F0AD
:1046700071FA030023700AE057246C4408AB0AAABD
:10468000029811685268FFF72DFF0300237057232B
:104690006B441B78002B39D1189912220023080093
:1046A00001F047F8189B1800FFF76AFD059A06AB62
:1046B0001A6006AB10225A60059C684606AB039947
:1046C0001A685B68FFF741FF6A462300103303CA8C
:1046D00003C3059B18695969FFF780FD031E04D0C9
:1046E00057236B4400221A7011E0059B1898196932
:1046F0005A69FFF71FFD08AB189819685A68FFF749
:1047000066FF57236B4400221A7000E0C04657230F
:104710006B441B78180016B010BDC046FFFFFF7F2A
:10472000F0B5ABB0079005AB19605A6013AB15AA92
:104730001A6013AB40225A6009AB0BAA1A6009AB8E
:1047400020225A60079B9869A7246C4427AD09AAC8
:1047500005A908236B44C0C9C0C3079B6946103331
:10476000C0CBC0C12B001168526800F041F90300B2
:104770002370A7236B441B78002B3ED1079B20227C
:104780009B5C002B13D0079B9D69A7246C4413AB43
:1047900027AA25A901916946586808601B68116815
:1047A00052682800FFF733FD0300237013E0079BD6
:1047B0009869079BDD69A7246C4427AB25AA029260
:1047C00013A96A46C0C9C0C21A685B682900FDF710
:1047D000F3FE03002370A7236B441B78002B0ED13C
:1047E000079B586A25AB19685A68FFF7A3FC079B1B
:1047F0005B6A1800FFF7CFFC02E0C04600E0C0464D
:10480000A7236B441B7818002BB0F0BD82B06B4619
:10481000186059606B461B685A425341DBB218005E
:1048200002B0704700B583B001900091009B180062
:104830003BF00CFC0100019B009A1A60019B59603F
:10484000019803B000BD82B030B587B0059003A8D1
:104850000160426004220AA98C46624413600598F4
:1048600003AA04230AA9C9186B4630C930C3002320
:104870001168526800F045FC059807B030BC08BCD0
:1048800002B0184784B0039001A801604260009311
:1048900001AB5B68009A9A4206D9039B00221A601A
:1048A000039B00225A6006E001AB1A68039B1A6062
:1048B000039B009A5A60039804B0704700B583B018
:1048C0006B46186059606B4618685968FFF79EFF81
:1048D0000300180003B000BD82B010B586B005908B
:1048E00003A801604260042208A98C466244136058
:1048F000059C042308AA9446634403AA69465868A1
:1049000008601B68116852682000FFF79CFF05983B
:1049100006B010BC08BC02B0184700B585B00390C3
:1049200001A80160426000930398009B01AA1168EE
:104930005268FFF7A7FF039805B000BD00B585B02A
:10494000039001AB19605A6001AB03981A685B6869
:10495000032100F0BBFEC04605B000BD00B585B028
:104960000190009102AB009A11001800FFF75AFF66
:1049700002AB019819685A68FFF7E0FFC04605B01E
:1049800000BD00B585B0039001AB19605A6001AB62
:1049900003981A685B68022100F098FEC04605B0D3
:1049A00000BD00B583B00190019B0421180000F008
:1049B000D0FEC04603B000BD00B583B00190019B9E
:1049C00000220421180000F0F6FEC04603B000BD2E
:1049D00082B00190019B073301D1034B00E0034BF0
:1049E000180002B07047C046C0E6FEFFFFFFFF7F21
:1049F00010B5534CA5440390524888ACA44660447B
:104A00000160426000934DAB4FAA1A604DAB21226A
:104A10005A604DAB58A819685A6800F068FD58AB49
:104A20001800FFF7BEFF484A58AB11001800FFF707
:104A300095FF8AAB58A819685A68FFF7A2FF7EABAA
:104A400000221A607EAB00225A607EAB58A819681B
:104A50005A68FFF796FF80AB00221A6080AB0022F5
:104A60005A6080AB58A819685A68FFF78AFF82AB72
:104A700000221A6082AB00225A6082AB58A81968E3
:104A80005A68FFF77EFF58AB1800FFF795FF2F4CD1
:104A90006C444BAA58AB1100180000F008FF03004B
:104AA00023702A4B6B441B78002B04D0284B6B449B
:104AB00014221A703CE0039B1800FFF789FF0300E3
:104AC0008693234C6C44869A05AB11001800FDF7C1
:104AD0006FFE030023701E4B6B441B78002B26D106
:104AE0004BAB5B68023B84A84BAA11685268FFF786
:104AF00014FF84AB05A819685A68FDF7A3FE0823C4
:104B00008AAA9446634405A819685A68FDF79AFE74
:104B10000F4C6C4400990B4B88AAD21805A80B00C7
:104B200011685268FDF7ADFE0300237000E0C04637
:104B3000074B6B441B78180088239B009D4410BDD5
:104B4000E0FDFFFFE4FDFFFF407204101E020000C5
:104B50001F02000030B593B006AB18605960059293
:104B600008AB154A13CA13C313CA13C303CA03C33A
:104B700010AB08AA1A6010AB20225A60059C02AD47
:104B800010AB06AA6946586808601B68116852682D
:104B90002800FFF7A1FE02AA230003CA03C3059B56
:104BA00018685968FFF78AFE031E01D0072300E04A
:104BB0000023180013B030BD4C72041000B585B04E
:104BC0000190019B002B05D11F49204B7822180032
:104BD0002CF010FC1E4B180030F0AAF90200019BCB
:104BE0001A62019B1B6A002B05D11749194B7D22C4
:104BF00018002CF0FFFB0023039309E0164A039BE7
:104C00005B01D3180833019A1A60039B01330393A5
:104C1000039B022BF2D9019B0F4A1A610F4A104BDA
:104C20000021180031F0A4FE0200019B5A60019B94
:104C30005B68002B05D104490A4B872218002CF031
:104C4000D9FBC04605B000BD587304108C72041027
:104C500048730410A8720410E0010008BC010008A9
:104C60007D500010E872041000B583B00190019BE4
:104C70005B681800FDF7E2F80200024B1A60C046BC
:104C800003B000BDF03F000800B595B005AB1800BB
:104C90002C231A0000213AF09DFE0023139305AB4C
:104CA00019001020FCF7B6FD05AB1B68022B06D0DF
:104CB000032B00D189E0012B00D186E07EE00023A8
:104CC0001293002311930023109305ABDB681900A6
:104CD000012039F027FF03001293129B002B02D111
:104CE0000523139372E005AB586805ABDB68129A95
:104CF0000021FCF7A3FE0300109305ABDB68109ABC
:104D00009A4209D0129B18003AF0A2FA3449354B66
:104D1000412218002CF06EFB05ABDB691900012065
:104D200039F000FF03001193119B002B06D10523DE
:104D30001393129B18003AF08BFA47E003AB129AD8
:104D40001A6005ABDA6803AB5A6001AB119A1A60BE
:104D500005ABDA6901AB5A60FEF746FC030013931A
:104D6000139B002B08D0129B18003AF071FA119B8C
:104D700018003AF06DFA29E005AB1800FFF774FF50
:104D800001AA03A801230121FFF711F903001393DE
:104D9000139B002B08D105AB586801AB1A6801AB17
:104DA0005B680021FCF786FE129B18003AF050FA6F
:104DB000119B18003AF04CFAC04607E005AB1B689F
:104DC0000749094861222CF015FBC04605AB5B681A
:104DD000139A11001800FCF7F1FEC04615B000BD93
:104DE000AC730410687304108873041000B595B098
:104DF00007AB18002C231A0000213AF0EBFD00232A
:104E0000139307AB19002020FCF704FD07AB1B68C8
:104E1000022B04D0032B4FD0012B4DD045E00023B3
:104E2000129307AB586807ABDB6806AA0021FCF7B2
:104E300005FE0300129307ABDB68129A9A4205D075
:104E40002549264B7C2218002CF0D4FA03AB06AA85
:104E50001A6007ABDA6803AB5A6001AB05AA1A60A7
:104E600007ABDA6901AB5A60FEF7BEFB0300139390
:104E7000139B002B22D107AB1800FFF7F5FE01AA08
:104E800003A801230121FFF7EDF803001393139BFF
:104E9000002B15D107AB586801AB1A6801AB5B68F2
:104EA0000021FCF707FEC0460AE007AB1B680A4971
:104EB0000B4891222CF09EFAC04602E0C04600E06A
:104EC000C04607AB5B68139A11001800FCF776FE2A
:104ED000C04615B000BDC046C4730410687304100A
:104EE0008873041030B595B005AB18002C231A0058
:104EF00000213AF06FFD0023139305AB1900402009
:104F0000FCF788FC05AB1B68022B06D0032B00D1F5
:104F1000A0E0012B00D19DE095E000231193002338
:104F20000493002312930023109305ABDB68042B3A
:104F300003D091235B4213938FE005AB586805AB18
:104F4000DB6803AA0021FCF779FD0300109305AB91
:104F5000DB68109A9A4205D04549464BB2221800A8
:104F60002CF048FA05ABDB691900012039F0DAFDB5
:104F700003001193119B002B03D18D235B421393EC
:104F80006BE005AB1B69002B2FD005AB1B6919002B
:104F9000012039F0C7FD03001293129B002B07D1AB
:104FA0008D235B421393119B18003AF051F954E0A2
:104FB00005AB586805AB1B69129A0121FCF73EFD51
:104FC0000300109305AB1B69109A9A420DD0119BF8
:104FD00018003AF03DF9129B18003AF039F92449CB
:104FE000244BC72218002CF005FA05AB1969039C65
:104FF00005ABDB69119D129804AA019200932B0066
:105000002200FDF7E9FF03001393139B002B06D149
:1050100005AB5868049B119A0021FCF74BFD05ABCA
:10502000586804AA04230121FCF744FD119B1800D1
:105030003AF00EF9129B002B0ED0129B18003AF09A
:1050400007F9C04608E005AB1B6809490A48E02299
:105050002CF0D0F9C04600E0C04605AB5B68139A5F
:1050600011001800FCF7AAFDC04615B030BDC046BF
:10507000E0730410687304108873041000B585B0E1
:10508000019080231B061800FCF7B6FB0300039376
:10509000039B1022134001D0FFF7F6FD039B202253
:1050A000134001D0FFF7A2FE039B40221340E8D03B
:1050B000FFF718FFE5E782B00190019B00229A609C
:1050C000019B00229A73C04602B0704782B00190E3
:1050D000019B5A68019B9B68D31A180002B0704765
:1050E00000B583B001900091019B1800FFF7EEFF1F
:1050F0000100009A002391425B41DBB2180003B02B
:1051000000BD00B585B0039001A801604260009326
:1051100001AB5B68009A9A4207D806AB5A6801ABAC
:105120005968009BCB1A9A4206D9039B00221A6049
:10513000039B00225A6014E001AB1A68009BD01850
:1051400006AB196806AB5B681A003AF0B1FB01AB1D
:10515000196806AB5A68009BD218039B1960039B21
:105160005A60039805B000BD00B585B0039001AB4F
:1051700019605A60039B064A9A81039B1800FFF747
:105180009AFF039B01AA03CA03C3C04605B000BD32
:105190000F0B000000B589B0039001A801604260C8
:1051A0000093039B9B7B002B5DD1039B9B892F4A24
:1051B000934203D0039B01229A7355E0039B9A68A4
:1051C000039B5B689A4203D9039B01229A734BE0CD
:1051D00001AB5A68039B11001800FFF781FF031E03
:1051E00003D1039B01229A733EE0039B9B68009AC4
:1051F0009A4203D9039B01229A7335E0039B1A68F4
:10520000009BD3180793039B9A68009BD31A0693BD
:1052100001AB5B68079AD3180593069B002B09D056
:10522000039B1B68002B05D0069A0799059B180065
:105230003AF082FB039B1A68009BD3180493039BEC
:105240001B68002B07D001AB196801AB5A68049B9F
:1052500018003AF071FB039B9A6801AB5B68D218A7
:10526000039B9A6000E0C04609B000BD0F0B000030
:1052700082B001900091009B9B7B002B06D0019B8C
:1052800000221A60019B00225A6016E0009B9B8955
:105290000B4A934209D0009B01229A73019B002282
:1052A0001A60019B00225A6007E0009B1968009B6E
:1052B0009A68019B1960019B5A60019802B070477F
:1052C0000F0B000086B0039001A8016042600093BC
:1052D00001AB5B68009A9A4206D904AB00221A60BF
:1052E00004AB00225A6019E001AB1B68002B09D106
:1052F00001AB5A68009BD21A04AB0021196004ABC1
:105300005A600BE001AB1A68009BD11801AB5A68D8
:10531000009BD21A04AB196004AB5A60039B04AA29
:1053200003CA03C3039806B0704782B00190019B83
:105330009B68180002B0704700B587B003900291D7
:105340000192009304AB029A1A6004AB019A5A606E
:10535000009B04AA039811685268FFF71BFFC04620
:1053600007B000BD00B585B0039001AB19605A606D
:10537000039B1800FFF7D9FF030001AA03981168E7
:105380005268FFF707FFC04605B000BD82B001902C
:10539000019B9B7B180002B0704782B00190019A7C
:1053A000019B80215A50019B80229B5804229A71B4
:1053B000C04602B0704786B0039001920B236B4445
:1053C0000A1C1A7017236B4400221A70039B802258
:1053D0009A58039B78339A4204D117236B440222D4
:1053E0001A7018E0039B80229B5808331A00039B15
:1053F00080215A50039B80229B5800229A80039B55
:1054000080229B58019A1A60039B80229B580B2292
:105410006A4412789A7117236B441B78180006B0FF
:10542000704782B00190019B80229B58083B1A0074
:10543000019B80215A50C04602B0704782B0019053
:10544000019B80229B589B881A000A4B9B1A012BB8
:1054500001DC03230AE0019B80229B589A88019B70
:1054600080215B58013292B29A800023180002B06A
:105470007047C046FEFF000000B585B00190019B5B
:1054800080229B589B799AB20E236B44033A1A8070
:10549000019B80229B589A880E236B441B8819001D
:1054A00010003EF0E9FB03009BB2180005B000BD00
:1054B00082B00190019B80229B581B68180002B0AB
:1054C000704782B00190019B80229B589B79180005
:1054D00002B0704782B00190019B80229A58019BD4
:1054E000D31A5A1E9341DBB2180002B0704700B5C0
:1054F00085B0039001AB19605A60039B982200218C
:1055000018003AF067FA039801AB19685A68FFF778
:105510002BFE039B14331800FFF73FFFC04605B076
:1055200000BD000010B58AB0039001920B236B44BC
:105530000A1C1A7004AB093309930D9B002B0ED182
:105540000D9B002B02D10C9B172B08D8019B002B25
:1055500005D123226A440C9B0D9C137044E0222346
:105560006B4400221A7031E022236B441A781B230B
:105570006B442C498A5C1A700023079313E0099B43
:10558000013B09930C9B0D9CDAB2099B1A700D9B91
:105590001B060C9A120A13430C930D9B1B0A0D93C6
:1055A000079B013307931B236B441B78079A9A428E
:1055B000E5DB1B236B441B78019AD31A019322234A
:1055C0006B441A7822236B4401321A700C9B0D9A9B
:1055D0001343C9D1019B002BC6DC23236B44222239
:1055E0006A44127817321A700B236B441B785B01E4
:1055F000DAB2099B013B099323236B441B78D31830
:10560000DAB2099B1A70039804AB09331A00099B9C
:10561000D31A1A000E9B0999FFF78EFEC0460AB0F6
:1056200010BDC046F873041010B588B007900492FE
:1056300005931B236B440A1C1A70079B1800FFF785
:1056400074FE02001B236B44197807980292049B96
:10565000059C009301940022FFF764FFC04608B048
:1056600010BD30B589B0039000920193039B1B7C61
:10567000002B28D1019B002B0ADA009BDC43019B05
:10568000DD43049405951F236B4401221A7007E043
:10569000009B019C049305941F236B4400221A7005
:1056A000049B059C1F226A44117803981A0023006A
:1056B000FFF7BAFF039B14331800FFF7BFFE030088
:1056C0001A00039B1A74C04609B030BD30B585B0CE
:1056D0000390080069460A604B600B236B44021C70
:1056E0001A70039B1B7C002B20D10B236B441B786F
:1056F000092B0CD06B465B681C0000231D000B239C
:105700006B441978039822002B00FFF78DFF039854
:105710006B4619685A68FFF725FE039B143318007F
:10572000FFF78CFE03001A00039B1A74C04605B0F5
:1057300030BD10B584B0039000920193009B019C92
:1057400003981A0023000621FFF76EFFC04604B03D
:1057500010BD00B585B001900A006B4603331A7086
:10576000019B14331800FFF769FE03001A00019B28
:105770001A74019B1B7C002B1AD1019B1800FFF7A8
:10578000D4FD03000393039B663303D9019B0722D7
:105790001A740DE0019B14331800039A6B4603330F
:1057A0001B781900FFF707FE03001A00019B1A740B
:1057B000C04605B000BD30B593B0099007922323D1
:1057C0006B440A1C1A70099B1B7C002B6CD1099B33
:1057D00014331800FFF77EFE031E03D1099B042239
:1057E0001A7461E0099B14331800FFF76AFE030086
:1057F0001A0023236B441B78934203D0099B102289
:105800001A7451E0099B14331800FFF751FE03008E
:105810001193099B1800FFF788FD03001093109A5D
:10582000119BD31A0F9323236B441B78022B06D0B2
:10583000099B14331800FFF71FFE030000E00F9BC5
:105840000E930E9B1C0000231D0023236B4419782C
:105850000998119B0293009401950022FFF762FEC4
:10586000079B002B1BD0099A0BAB11001800FFF708
:10587000FFFC099B1800FFF758FD0200109BD31A8C
:105880000D93119A0D9BD318079C04A80BAA1168BD
:105890005268FFF717FD04AA230003CA03C3099B3C
:1058A00014331800FFF7BDFDC04613B030BD10B56E
:1058B00086B00390029117236B44039A127C1A70EE
:1058C00017236B441B78002B22D1039B1433180041
:1058D000FFF700FE031E04D017236B440A221A7040
:1058E00017E0039B1800FFF751FD031E04D0172398
:1058F0006B4401221A700CE0039A029C6B46110063
:105900001800FFF7B5FC6A46230003CA03C300E092
:10591000C04617236B441B78180006B010BD00006A
:1059200000B58BB00390029107AB00221A7007AB51
:1059300000225A8007AB00225A6007AB0E221A7071
:1059400007AB029A5A6005AB07AA1A6005AB08229A
:105950005A600F4B01211800FBF7F0F80200039B7F
:105960001A60039B1B68002B02DC91235B420BE057
:10597000039B186805A90023009300230122FBF76D
:10598000C3F903000993099B18000BB000BDC04682
:10599000020F000000B58FB00590049103920BAB8D
:1059A00000221A700BAB00225A800BAB00225A6007
:1059B0000BAB0F221A7007AB0BAA1A6007AB0822B9
:1059C0005A6007AB049A9A6007AB039ADA60059BAA
:1059D0001B68002B02DC89235B420BE0059B1868E7
:1059E00007A90023009300230222FBF78DF903008F
:1059F0000D930D9B18000FB000BD00B593B005903E
:105A00000491039202930FAB00221A700FAB002295
:105A10005A800FAB00225A600FAB10221A700BABEA
:105A20000FAA1A600BAB08225A600BAB03AA9A604C
:105A30000BAB0422DA6007AB049A1A60039A07AB37
:105A40005A6007AB029A9A6007AB0422DA60059BA2
:105A50001B68002B02DC89235B4214E0059B18685D
:105A600007AA0BA90223009313000222FBF74CF9AB
:105A700003001193059B1B681800FBF70FFA059BA9
:105A800000221A60119B180013B000BD00B595B03C
:105A900004910392029316236B44021C1A80002384
:105AA0001393002312930EAB180010231A00002149
:105AB00039F090FF0EAB24221A700EAB16226A4406
:105AC00012885A800EAB049A5A600AAB0EAA1A606A
:105AD0000AAB10225A600AAB039A9A600AAB029A88
