:020000041000EA
:10000000000001081FC601100D000000B50500101A
:1000100000000000000000000000000000000000E0
:10002000000000000000000000000000D1A5011049
:10003000000000000000000055A6011061A601109C
:1000400079C6011079C6011079C6011079C6011070
:1000500079C6011079C6011079C6011079C6011060
:1000600079C6011079C6011079C6011079C6011050
:1000700079C6011079C6011079C6011079C6011040
:1000800079C6011079C6011079C6011079C6011030
:1000900079C6011079C6011079C6011079C6011020
:1000A00079C6011079C6011079C6011079C6011010
:1000B00079C6011079C6011079C6011079C6011000
:1000C00010B5064C2378002B07D1054B002B02D02E
:1000D000044800E000BF0123237010BD1017000882
:1000E00000000000E4F40210044B10B5002B03D014
:1000F0000349044800E000BF10BDC04600000000F6
:1001000014170008E4F40210164B002B00D1144B16
:100110009D46402292029A1A924600218B460F4633
:100120001348144A121A21F099F90F4B002B00D0F2
:1001300098470E4B002B00D0984700200021040068
:100140000D000D48002802D00C4819F00FFD20F0DA
:100150008DFD200029001AF0AFF819F08FFEC0467F
:1001600000000800000001080000000019A20110B2
:10017000101700081CB500086D9B0110000000005E
:10018000036810B50400022B05D0032B01D0012B0E
:1001900007D1002101E088470100606801F0B8F94B
:1001A00010BDBE220149024819F006FC0E7902106A
:1001B0001E79021010B58C0004192369406801F003
:1001C00025F92369834204D01E220249024819F00E
:1001D000F3FB10BDF0780210417902107FB56B4639
:1001E00005009E1D32000021FFF7E4FF02AA012155
:1001F0002800FFF7DFFF03AA02212800FFF7DAFF3C
:100200000399012020F0D2F9041E11D0020003212D
:100210002800FFF7CFFF3088039B2200029903F0EC
:1002200075F90500200020F057FD280004B070BDCE
:100230008D256D42F9E730B585B06B4600219C1DD8
:100240002200050002910391FFF7B4FF208802A964
:1002500003F02EF9041E0BD10100042302AA6868E2
:1002600001F0FEF8042303AA0121686801F0F8F800
:10027000200005B030BD30B585B06B4600219C1D17
:100280002200050002910391FFF794FF208803AA42
:1002900002A903F093F9041E0BD10100042302AA62
:1002A000686801F0DDF8042303AA0121686801F001
:1002B000D7F8200005B030BD13B56B469C1D220059
:1002C0000021FFF777FF208803F050F916BD30B505
:1002D00087B06B46040000219D1D2A000491059102
:1002E000FFF768FF02AA20000121FFF763FF03AABE
:1002F00020000221FFF75EFF039A029904A803F091
:10030000A7F8288804A903F0A5F807B030BD13B5F5
:100310006B469C1D22000021FFF74CFF208803F054
:100320006FF816BD37B5002101AA0500FFF742FF9F
:100330006B4601999A1C012003F02EF8041E06D189
:1003400002236A460100D218686801F089F820008B
:100350003EBD70B50E250024060086B06D442A000F
:1003600021002C8004940594FFF724FF04AA300098
:100370000121FFF71FFF05AA30000221FFF71AFF36
:10038000288823000094059A049903F053F906B0D5
:1003900070BD73B56B4600219D1C01AA59800600F3
:1003A0000191FFF707FF2A000199012002F0C0FF29
:1003B000041E05D1010002232A00706801F050F8E4
:1003C000200076BD30B58DB03022002168468025F2
:1003D00021F044F82D0629003A4800F05BFE0400A5
:1003E0001020044208D0694600F094FE0028F2D1A3
:1003F00035496846FFF7C4FE2020044208D069460C
:1004000000F088FE0028E6D130496846FFF7B8FEC4
:100410004020044208D0694600F07CFE0028DAD172
:100420002B496846FFF7ACFE8020044208D069469D
:1004300000F070FE0028CED126496846FFF7A0FEE6
:1004400080204000044208D0694600F063FE002886
:10045000C1D121496846FFF793FE80208000044205
:1004600008D0694600F056FE0028B4D11B49684602
:10047000FFF786FE8020C000044208D0694600F0E5
:1004800049FE0028A7D116496846FFF779FE80206B
:100490000001044208D0694600F03CFE00289AD1D1
:1004A00010496846FFF76CFE80204001044292D05C
:1004B000694600F02FFE00288DD10B496846FFF7F2
:1004C0005FFE88E7F01F0000930300105303001045
:1004D000250300100F030010CF020010B902001016
:1004E0007702001037020010DD01001010B5041E65
:1004F00004D1B8221249134819F05EFA12481BF0D1
:10050000F5F80921E061114A002803D1BD220C4908
:100510000F48F1E74B01D31A2933FF3301391C602F
:100520000029F7D1E2600B480B4A1BF047FF6060DF
:10053000002803D1C72202490848DDE710BDC046A4
:10054000617902107C790210287A0210C400000838
:1005500097790210C5030010E4010008DC7902104D
:1005600070B5041E04D16F220B490C4819F024FA0F
:100570000B4D280002F032FC0A4804F04DFA0A48FC
:1005800004F048FB094804F0F9FF0948FFF7AEFF03
:100590002560052070BDC0465E7A02106E7A02109A
:1005A000080200082C02000850020008740200082B
:1005B000980200082C4B05E02C4B03E02C4B01E08B
:1005C0002C4BFFE7EFF308802B4972460A4201D01B
:1005D000EFF309809C46294B196802680A600431D0
:1005E00042680A60043182680A600431C2680A60A5
:1005F0000431F0C147460F6004314F460F600431AB
:1006000057460F6004315F460F60043102690A608B
:10061000083142690A60043182690A600431C269A2
:100620000A60043103462033154E324200D00433B1
:1006300075460D4E354200D148330C46103C2360C0
:10064000EFF309820A600431EFF308820A60043193
:1006500072460A600431EFF314820A60604607496B
:1006600000F05EF8FEE7000010000000200000002F
:100670003000000040000000040000008C7A0210EE
:100680000002000030B5002585B01A4CAB002900EF
:10069000E2581948013518F0F5FF0D2DF5D1A36C7E
:1006A00016480293636C0193236C0093E36BA26B77
:1006B000616B18F0E7FF124B1248196818F0E2FF5F
:1006C000E36C1B0712D5104818F0DCFF236D0F48B0
:1006D000DB0700D40E4818F0D5FFE36C0D485B072C
:1006E00000D40D4818F0CEFF05B030BD0B4818F00F
:1006F000C9FFEFE760A30008207B02102E7B0210E9
:1007000000ED00E07D7B02108B7B02109A7B0210D3
:10071000A77B0210CA7B0210D67B0210BA7B0210A4
:1007200013B50400154818F0ADFF302C17D0402C3D
:100730001AD0202C1DD1124818F0A4FF114C1248D9
:1007400018F0A0FFFFF79EFF104818F09BFF002352
:100750000F4A0093D26B0F49200019F055F90E484B
:1007600018F090FF0D4CEAE70D4818F08BFF0D4C88
:10077000E5E70D4818F086FF0C4CE0E7907A021090
:10078000B97A02103E01FF80E67A0210F17A021077
:1007900060A30008107B0210C87A02103F01FF809E
:1007A000D17A02104001FF80DC7A02103D01FF8007
:1007B000F0B587B005000E000392002804D12C226A
:1007C0001E491F4818F0D8FE002903D12D221B49CD
:1007D0001C48F7E700F084FB00280FD00368019362
:1007E0000121280018F0BDFF071EF9D000246B88F6
:1007F000A34206D8582211491348E3E701235B427C
:10080000EDE70023059323043B4300932301029368
:100810006B682201981805A9009A18F08FFF00282C
:1008200001D10134E3E76B68029A00989B18019AA2
:10083000DE605A60039A9A6007B0F0BD1A7C02101D
:10084000627C02100F7E02107C7C021037B5051E00
:1008500004D161221C491D4818F08EFE002903D1E5
:10086000622219491A48F7E742880B0C9A4205D8C8
:10087000009218496822184819F09EF81C01436834
:100880001B598B4205D00B006C221249134819F0FA
:1008900093F800F025FB00280DD002686B681B1947
:1008A000596891420AD09968914207D07622094945
:1008B0000B4819F081F801225242EFE700225A60FA
:1008C0009A601A6037BDC0461A7C0210627C021022
:1008D000807C0210E27B02109C7C0210EA7C0210F9
:1008E000267D021037B5051E04D181221D491E4800
:1008F00018F042FE002904D184221C491C4819F03A
:100900005BF842880B0C9A4205D8009217498A225C
:10091000184819F051F81C0143681B598B4205D047
:100920000B008E221149144819F046F800F0D8FA4D
:1009300000280CD002686B681C196368934209D0C8
:10094000A368934206D0982208490C48D7E70122B1
:100950005242F0E7E068002803D19D22014908488F
:10096000C6E73EBD1A7C0210627C0210FE7B0210BC
:10097000627D02109C7C0210EA7C02109F7D0210B6
:10098000ED7D0210F0B5002106000D4B5D681B687F
:100990000C338D4201D1002010E000225F68BA4282
:1009A00002D101312433F4E71868540100190468B6
:1009B000A64201D00132F2E70028F2D0F0BDC046D5
:1009C000EC02000870B50D00012183680400494263
:1009D000D8691AF0A1FE5722002820D1E369002B24
:1009E0000DD1A561A368E561616858681BF010FD31
:1009F000002806DA66220C490C4818F0BDFD1D617E
:100A0000F0E76368034203D1672207490848F4E727
:100A1000A368D8691AF096FE002803D06B22024919
:100A20000448EAE770BDC046CF800210248102105E
:100A30004081021012810210F0B5050085B00E1E33
:100A400004D170224249434818F096FDFFF79AFFFF
:100A5000041E05D12B0074223F49404818F0ACFF1A
:100A60000369002B0ED13268C1688A4210D9029303
:100A7000E3687A2201932368374900933848336842
:100A800018F09AFF012B03D13268C1688A42EED177
:100A900000F026FA071E07D1237D002B1ED1236804
:100AA000382230493048D9E7416900290BD000226B
:100AB0008069236882420BD13A682A4900922B4808
:100AC000462218F079FF03683D2226492848C5E7E9
:100AD00095004D599D4201D00132EBE73A000C21BF
:100AE000300000F01FFA002804D181221A49214861
:100AF00018F062FF204B002198691AF075F9051E65
:100B000010D11E4BB0687360002F07D01AF084FF1D
:100B1000002805D08A220E49194895E700F05CFEAE
:100B200005B0F0BDA36801001A681648FFF740FE43
:100B30000023154A706029002F606C60EE60AB6086
:100B40002B61AA82AB752000FFF73CFFE8E7C046A7
:100B5000CF800210627F0210497E0210757F021062
:100B6000937F0210297E0210F07F02105F80021036
:100B7000288002109F800210EC0200080100008013
:100B800012810210F402000801020000F0B51024E6
:100B90008DB004AD0F00220000210600280020F0D7
:100BA0005DFC002108AA0120089109910A950B9487
:100BB000019702911AF0F4FE0390002804D1B722A5
:100BC0000E490F4818F0F8FE01A93000FFF734FF76
:100BD0000121039849421AF0F9FEBD22002805D1EF
:100BE00003981AF04DFF002804D0C022054906489A
:100BF00018F0C2FC02980DB0F0BDC0465B7E02103A
:100C00002A7F0210CF8002101281021070B50D1ED3
:100C100004D1C9221F49204818F0AEFC01001F482A
:100C2000FFF760FE041E03D1CB221A491C48F3E7EC
:100C300002681821280000F075F9002804D1CE229E
:100C40001849194818F0B8FEA37D012B11D1802353
:100C50001B062B6123686869002B02D100F0BCFDE4
:100C600070BD1AF0D9FE0028FAD0D82209490F48E1
:100C7000D2E7200004221530032100F009F90223F5
:100C80002375E5600FCD00F0E9F821006068FFF7FB
:100C900099FEE5E7CF800210627F0210F40200089F
:100CA000D7850210677E0210997E02101281021011
:100CB000F0B5102491B00F001600002122000500AD
:100CC00002A8019320F0CAFB002102AB0893019B0C
:100CD00006AA0C93169B01200691079109940A9786
:100CE0000B960D930E911AF05BFE0F90002805D124
:100CF000832210495200104818F05EFE0AA928000D
:100D0000FFF784FF01210F9849421AF05FFE002887
:100D100005D0862252000949094818F02DFC0F9889
:100D20001AF0AEFE002802D01022FF32F3E70E9830
:100D300011B0F0BD767E02102A7F0210CF80021023
:100D40001281021070B50D1E05D18C221449154870
:100D5000520018F011FC01001348FFF7C3FD041EF8
:100D600004D11C220E49FF321048F2E70268082124
:100D7000280000F0D7F8002805D18F220C49520036
:100D80000C4818F019FE20000321153000F098F8E7
:100D90000323E560237521006068FFF713FE70BD33
:100DA000CF800210627F0210F4020008D785021083
:100DB0007F7E0210FC7E021070B504008AB000280D
:100DC00032D0102502AE2A000021300020F046FB70
:100DD000002106AA01200691079108960995009422
:100DE0001AF0DEFD0190002805D1A1220F49520022
:100DF0000F4818F0E1FD69462000FFF7A3FF01212D
:100E0000019849421AF0E2FD002805D0A4225200C0
:100E10000849094818F0B0FB01981AF031FE002883
:100E200002D04C22FF32F3E70AB070BD8F7E021071
:100E3000C67E0210CF8002101281021010B5FFF79B
:100E4000A1FD041E01D1002010BD00F049F80028CA
:100E500002D1237D002BF6D0E068F5E71FB500280E
:100E600001D1002906D1002A01D1002B02D1CC18D2
:100E7000042C08D902930192009103002622024912
:100E8000024818F099FD1FBD5A8102105E820210BF
:100E900030B50F2485B06C440D002170210018F08E
:100EA00039FC002806D123782F22009502490348F7
:100EB00018F082FD05B030BD6981021093810210E7
:100EC00007B50378DBB2994205D000913822024978
:100ED000024818F071FD07BD7E8102109381021057
:100EE00070B51BF081FA002808D000220A4B5C681C
:100EF0001B68944207D10021080070BD5E2207499B
:100F0000074818F039FB190024331D00203D2D68D7
:100F10008542F1D00132ECE7EC020008FF810210BB
:100F2000DF81021010B5031E1DD0012300291AD045
:100F300041184C1E0023A04215D89A4215D1144ADC
:100F4000904210D9134B984203D8134A012391427F
:100F500009D9124B124AC0180023904203D8114AF3
:100F60008A425B41DBB2180010BDF8230E4A1B0613
:100F7000C318934203D80D4A01239142F3D9F023B9
:100F80000B4A1B06C01800239042ECD8094AE7E739
:100F9000FFFF0008FF740408007504080000F8EF64
:100FA000FF7F070000800F10FFFF00000000010816
:100FB000FFFF07000000081010B51BF085FE0E4A69
:100FC00018210A2019F0FAFE0C4CA061002803D168
:100FD0000B490C4818F0F0FC0B4A28210A2019F0A4
:100FE000EDFEE061002802D105490848F2E7200043
:100FF000FFF7B6FA606010BDD4020008EC020008EA
:10100000B2820210BF820210BC020008EB82021002
:1010100010B5024B186800F001FDFAE70C03000858
:10102000F7B50C000100184817000193FFF75AFCB0
:101030000600006805211530FFF742FF032C05D993
:1010400034221249FF32124818F0B6FC731DDB7FC0
:101050000025A34215D9E4003619B568019B9D42CD
:1010600000D91D00002D0CD0002F04D02A0071687B
:10107000380020F061F973685B197360B3685B1B1B
:10108000B3602800FEBDC046FC0200088C8302103D
:101090002E88021073B505000E00FFF721FF00280F
:1010A00004D1D3221649174818F066FA082480683C
:1010B00004436B1C09D02B00A34307D000942B00E2
:1010C000DB221149114818F077FC2500F2170221A4
:1010D00028001BF0F7F903002000184098420AD0BE
:1010E00080221206964202D00020023306D0E72268
:1010F00003490748D8E7831C00D1002076BDC046CD
:10110000BE860210018702107B8302101F87021027
:1011100059870210F0B593B004000391FFF7E0FE89
:10112000061E04D1EF22A349A34818F025FA0200B5
:1011300030210398FFF7F6FE002804D1F2229F49E0
:101140009F4818F039FC30220021039820F086F9DE
:10115000B268002C04D0651E254001D1224206D180
:1011600000922300FE229549964818F025FC1BF0BA
:1011700099F920420AD02B00326993420BD1842284
:1011800023008E499048520018F016FC04228B4927
:10119000FF328E48D5E7F1685D014D1969688C42D0
:1011A00001D00133E9E7002DE9D00121AB684942C4
:1011B000D8691AF0B1FA002803D0B3227D498448D7
:1011C000B3E7AC69002C03D1B92282498248B8E761
:1011D0002369AB612061002B10D1EB6168681BF0C3
:1011E0004BF9002803DAC52272497C489DE76B68F9
:1011F000034203D1C6226F49794896E7AB68D869A4
:101200001AF0A0FACB220028D8D12000237D153077
:10121000022B09D0032B21D00221012B1FD09222B7
:10122000664952006F48AFE705220421FFF730FE00
:101230002822002108A820F011F90022237D07921E
:10124000022B00D080E022681821E068FFF76AFED8
:10125000002807D15B226449644872E71900FFF750
:101260002FFEE5E7E3685F681D689A68DB68390070
:10127000280004930592FFF7F1FDFBB20793002FBE
:101280002AD1049B002B5FD0049B2268D9000598CB
:10129000FFF748FE00284DD0FF0012ABDF193D00DC
:1012A0000027059E243D73689C46002B46D02B00EA
:1012B000320003CA03C3039ABB00D31862466146D7
:1012C0001A6228682268FFF72DFE002836D13B00FD
:1012D00094224549464857E7F90022682800FFF75D
:1012E00021FE0026002807D16B223F49414828E70C
:1012F00001360835B742C4D06B689C46002BF7D046
:10130000280008AAF300D31806931A1D0AC80AC2B7
:1013100063460398B20082181361069B22686146F7
:101320005868FFF7FFFD0028E2D133007C222E49E8
:10133000314829E783222C49304802E7049B0137D2
:1013400008360835BB42AED101252D4B6D42290030
:10135000D86919F049FD011E03D19D22224929486F
:10136000EFE60D2306AA9B18079A0894DA77020085
:1013700008ABC1CBC1C2C1CBC1C2C1CBC1C21B680A
:10138000214813600022FFF713FA237D039A1360AC
:101390001300A2685860DA602368002B04D1039B15
:1013A0009D60002013B0F0BD1B680493049A039B5A
:1013B0009A60F6E7BE86021001870210848302104D
:1013C000B6830210D28302103A8402101E840210E7
:1013D000128102105D8302108984021024810210A0
:1013E00040810210A984021049830210DB8402109C
:1013F00063850210008502101F85021043850210CC
:10140000EC02000888850210FC020008F8B5140000
:1014100006000F001D00FFF763FD021E05D14F32CD
:10142000FF320B490B4818F0A7F829002000FFF7FE
:1014300079FD002805D152220749FF32074818F0EC
:10144000BBFA2B00390030002200FFF7E9FDF8BDA0
:10145000BE8602100187021099830210B185021026
:10146000F7B507000C0016001D1E41D0FFF738FD30
:10147000021E05D164221F49FF321F4818F07CF874
:1014800029003000FFF74EFD002805D1B3221B498B
:101490001B48520018F090FA39001A48FFF722FA58
:1014A0000700006805211530FFF70AFD7B1DD97F75
:1014B0000C19032C04D970221049FF321248E9E7B5
:1014C000E4003C19A368AB4207D2BA220093520051
:1014D0002B000A490D4818F06FFA2A0031006068A5
:1014E0001FF02AFF63685B196360A3685D1BA5603A
:1014F000F7BDC046BE86021001870210A28302100B
:10150000B1850210FC020008D4870210EF87021098
:10151000F7B507000D0001005248FFF7E3F9046832
:101520000600002C05D1C1224F495048520018F046
:1015300023F8E368002B04D184224B49FF324C4846
:10154000F5E739004748FFF781F9282200213000EC
:101550001FF084FF474F3100F86919F065FC8E22B7
:10156000061E00D07CE02000236815300193237D07
:10157000022B37D0032B4ED0012B67D13E4B002DD1
:1015800008D09D4206D0CB222B003C493C4852005B
:1015900018F012FAE668B26800929D421AD1022150
:1015A000FFF78EFC71683748FFF750F918220021C9
:1015B00020001FF053FF2100B86919F035FCAA2262
:1015C00000284DD17560019B0098002B43D100F09D
:1015D00003F9F7BD03220221FFF75AFC0023E36061
:1015E0002375F0E7284BEB187E2B05D8B8222B008B
:1015F000FF3222492548CBE703220521FFF748FCAB
:1016000080231B069D4201D10123A375E3681D6160
:101610005B690093E2E7E56819006A6800920122BD
:10162000FFF736FC29681748FFF710F93100182238
:1016300020001FF013FF2100B86919F0F5FB002806
:10164000C1D0EC2252000849114870E7F0220B4942
:10165000520010489CE71AF0DFF90028B9D0EE22BA
:10166000FF32F0E7FC020008BE860210D0850210AF
:10167000EE850210EC02000801000080AC8302102D
:1016800015860210F4020008FFFFFF7F508602104B
:10169000128102108886021010B50C000100034868
:1016A000FFF720F903689C6010BDC046FC020008EB
:1016B0000C4B10B51B6858691AF0AEF9002802D01F
:1016C0004422C31C09D1084B1B6818691AF0A4F9FD
:1016D000002806D0C31C04D047220449044817F050
:1016E0004BFF10BD100300080C030008D288021045
:1016F0003089021010B51BF007FC10BD10B51BF0AF
:1017000003FC10BDF0B5264B95B0264C264D382273
:10171000002106A80293039404951FF09FFE234B1B
:101720003C2205A9200005931FF006FE3C2205A9D6
:1017300028001FF001FE0C2202A91D481FF0FCFD2D
:101740001C4819F0D3FF061E04D19F221A491B48DA
:1017500017F012FF1A4A002101201AF021F9071E82
:1017600003D1A22214491748F2E7174A00210120A9
:101770001AF016F90190002803D1A5220E4913484A
:10178000E6E713483B0032002900006800F072F8D9
:10179000104B019A2100186800F0AAF815B0F0BDAE
:1017A000779A333D0C750408487504080C4A286381
:1017B0000075040870880210D28802109088021008
:1017C00058880210A488021080880210BB8802107A
:1017D000100300080C0300081FB504000C220021B0
:1017E00001A81FF03BFE0021034822000B00006807
:1017F000029400F0B1F81FBD1003000830B585B0A9
:10180000019001380C00029115000392032824D89E
:1018100023F080FF02070B0F1000FFF70DF905B052
:1018200030BD1000FFF7F2F9F9E71000FFF78AFA70
:10183000F5E7002208212000FFF774FB002804D1FF
:101840006C220849084818F0B7F82800FFF7F6FAA4
:1018500020606068FFF7C0FFE1E775220349044894
:1018600017F08AFE48880210DB840210D28802102A
:101870006888021070B5002804D124221449154844
:1018800017F07AFE002903D1252211491248F7E703
:10189000124C0D68A54203D026220D491048EFE7EF
:1018A000002A03D127320A490E48E9E7002B03D169
:1018B000282207490C48E3E70C4C026104600C1D28
:1018C00044600C3104348460C160436170BDC04623
:1018D0007C890210C6890210D48902100C4A286340
:1018E000EB89021096880210A4880210FFD948A242
:1018F00010B5002804D137221049114817F03CFEDA
:10190000002903D138220D490E48F7E70E4B0C6829
:101910009C4203D0392209490C48EFE7002A03D141
:101920003A3206490A48E9E70A4B026103600B1D97
:1019300043600C3104338360C16010BD7C890210A8
:10194000C6890210D48902100C4A2863EB89021060
:10195000C188021042658BA6F0B585B001AD041EAA
:1019600001916A60AB6004D147222649264817F0EE
:1019700003FE264B02689A4203D04822214924489C
:10198000F5E701210069494219F0C6FE002826D179
:10199000FA2703267F00A26861681368086801338C
:1019A0008C46334083421ED00C2310684343E068CA
:1019B000C31883CD83C31368013333401360634678
:1019C0001B68126801333340934201D1FFF792FE46
:1019D000206919F0B7FE002811D05D2200E04B22EB
:1019E00008490C48C3E73900606919F0EFFF02238A
:1019F00002309843CFD0502202490748B7E705B0DC
:101A0000F0BDC0467C890210C6890210FFD948A2E9
:101A1000428A0210128102106B8A0210F0B5050092
:101A200085B0002804D163221D491E4817F0A4FD8B
:101A30001D4B02689A4203D0642219491B48F5E7FE
:101A4000FA210069490019F0C1FF022302309843CE
:101A50001DD0682212491648E8E70C211368E8688F
:101A60004B4301ACC3182000C2CBC2C00321136892
:101A700001330B40136063461B68126802330B404E
:101A8000934201D1FFF73AFE07CCFFF7B7FEAB68F0
:101A90006A689C4610681B689842DED105B0F0BDAC
:101AA0007C890210C689021042658BA6198A021031
:101AB0006B8A0210F0B5214B85B01B6803900E00B5
:101AC00001920020012B08D01D4D1E4A6B78297809
:101AD0001B020B43934202D0012005B0F0BD019AD6
:101AE000032AF9D933800423E978AA78090211433B
:101AF00002912C1D7380F718029BEB189C4216D2A2
:101B00002388039A1B0B93420ED162887388019934
:101B10009B188B42E0D8380021001FF00DFC638831
:101B20007288FF189B1873806388002B04D10122F0
:101B3000024B00201A60D0E7E418DDE7001E000821
:101B4000DC8A021016200000F0B51E2589B005932E
:101B500000230F9F6D4404920E9E2B8006243F2F7E
:101B60001BD92A001121012001F016FC05340028A0
:101B700013D1109B28880433029301970096059B8C
:101B8000049A094901F09CFB002809D0288801F03B
:101B900037FC0A3C288801F033FC200009B0F0BD76
:101BA000109B04001E60F5E709000710F0B50F2632
:101BB000A7B01F002D9B182201932E9B002100939C
:101BC0002F9B08A802932C9D1FF048FC6022002147
:101BD0000EA81FF043FC04ABF618330008AA6021DE
:101BE0000EA800F06FF8041E02D0072027B0F0BD49
:101BF0000A990029F9D00C9B0393002BF5D0337878
:101C00000B9A3B60019B9A42EFD828001FF094FB8F
:101C10000D9A029B9A42E8D80C9900980B9E1FF0EF
:101C20008BFB309A0D9B60C20099319A20000AC24A
:101C3000DCE7000070B50C00061D00210500042241
:101C400030001FF00BFC0A4B3000E4186142614188
:101C5000072349421940074BC91801F0CDFA002863
:101C600001D1286070BD8630431E98410330F9E7EA
:101C7000401901000200000113B50368040000913F
:101C80000192002B05D1002903D0043001F0D4FAD1
:101C9000206013BD37B51C00036800910192002B32
:101CA0000DD1231D04300D0001F0E0FA002803D10E
:101CB0000300256018003EBD05238A30FAD00423B6
:101CC000F8E70000F0B589B002930023160004AADB
:101CD000971C01903A001121012007933B8001F0ED
:101CE0005BFB0123002822D1388806AA05A901F050
:101CF00065FC002801D0388816E0059B484A190089
:101D000003921140474A9142F5D1474A069C13403D
:101D1000464A93420ED1E408103420001EF0D2FF50
:101D200005003888002D12D101F06AFB012318004C
:101D300009B0F0BD3E4A934204D10323E4085C435A
:101D40004A34EAE70734E40864000134E5E707AB06
:101D50002200290001F068FC002803D028001EF0B2
:101D6000BBFFC8E70598039B2E4A034093424BD123
:101D700080B21738072847D823F0CCFC043E4046F1
:101D8000464642440123029A1370079B581E40089E
:101D900025F054FD1EF076FB23F004FF079B0400A2
:101DA000581E400825F04AFD1EF06CFB23F0FAFE99
:101DB000002C2FD000236A1CE9184978019FF954A0
:101DC0000133A342F8D13B19B760F46001930028B6
:101DD00024D000231419E25C0199CA5401339842BB
:101DE000F9D13161706128001EF076FF04AB58888C
:101DF00001F006FB00239AE70223C4E70323C2E7AE
:101E00000423C0E70523BEE728001EF065FF04ABEE
:101E1000588889E7B460F4602A00D8E73061E1E7C8
:101E20000000FFEF00000360FFFFFFEF0000016014
:101E300000000260024B1B68036000207047C04630
:101E40000420000803207047F0B589B002AB0124DC
:101E50009D1D0023070001910C702A001121200014
:101E60002B800693079301F097FA00284BD128881E
:101E700005AA04A901F0A2FB002840D1049B264A30
:101E800026491A408A423AD1254A059C1340254AE0
:101E9000934227D1E408103420001EF013FF061EE1
:101EA0002DD0288806AB2200310001F0BDFB0028B0
:101EB0002FD11D4907A801F09FF9002829D1069AC2
:101EC000310007A801F0B8F901993B000131202247
:101ED00007A801F0CBF90400601E844130001EF019
:101EE000FBFE0DE0114A934204D10323E4085C4356
:101EF0004A34D1E70734E40864000134CCE7012414
:101F0000288801F07DFA20003B6801333B6009B06E
:101F1000F0BD0124E2E7C0460000FFEF00000360CF
:101F2000FFFFFFEF000001600900000100000260F8
:101F3000032070470B0010B50268034918001FF01A
:101F4000FBF9002010BDC046BB8A021010B502F09C
:101F5000BDFDC02203009201904209D00AD8802220
:101F60005201904204D080229201934200D000237B
:101F7000180010BDA022D2019042F9D0C022D20197
:101F80009042F5D08022D201EFE700000C230360DD
:101F900000487047AE8A02100D2303600048704766
:101FA000A08A02104842484180007047F0B50E25D3
:101FB0008BB0039302ABED180290002301200F00B9
:101FC000160011212A0028800893099301F0B0F926
:101FD000041E3FD1354A364908A801F039FA28884D
:101FE00008A901F037FA041E34D1324A330C1B041D
:101FF000934258D1029B2888002B2ED0202F24D129
:102000003B00029A310001F081FA041E1FD128889A
:1020100006AA07A901F0D2FA041E18D1C022802115
:10202000079BD2051A40C9058A421ED1069BDE1DB8
:10203000F6082888119B109A039901F0F5FA041EFE
:1020400005D1119B1B68B34201D9872464422888BB
:1020500001F0D6F920000BB0F0BD802200942300DF
:102060005200310001F0E6FACFE7134A13491A4053
:102070008A4203D1069BDE081036DAE710498A420D
:1020800005D10326069BDB085E434A36D1E70D4A9D
:10209000060013400C4A9342CBD1069BDE1DF60886
:1020A00076000136C5E787246442D3E709000710AC
:1020B000010C000000000370FFFFFFEF0000016053
:1020C000000002600000FFEF00000360F7B516009B
:1020D000020005001F00089B98320C00116056603A
:1020E00006CB00F07BFF2800E10FA0300095330005
:1020F0003A0000F025FB041E04D0033C604244413A
:10210000E01CFEBD0221280000F0B6FF28000521DA
:1021100000F0B2FF2000F4E77047D0B516001F00B2
:102120000400CB170A0000F06EFF32003B002000D5
:1021300000F069FFD0BD73B5050016685468CB1771
:102140000A0000F060FF320028002300022100F0A6
:102150006EFF73BD73B5050016685468CB170A008F
:1021600000F051FF320028002300032100F05FFF40
:1021700073BD7FB5060000220D00052100F09DFF14
:102180006A460221300000F098FF30000099A0302C
:10219000019A00F0E1FB002805D003384342584182
:1021A000033004B070BD02AC2100300000F0D2FF5B
:1021B00003000128F5D00220002BF2D106CC06C581
:1021C0001800EEE7242808D003D8202805D00420E2
:1021D0007047302801D04028F9D10020F8E710B529
:1021E0001FF0AAF810BD0000F0B51D001C4B87B011
:1021F0000291039219881B4A019091422CD15A886E
:102200002968D3180093184C002907D005AC20008A
:102210000422FFF7E4FF64882B681C193F27009B0A
:102220009C4201D3002013E005AE042221003000BF
:10223000FFF7D5FF338801989A113A40718882429E
:1022400008D101201F40029B1F70039B2C60198046
:1022500007B0F0BD6418E2E701204042F8E7C0464D
:10226000041E000816200000081E00080023F7B511
:1022700006000F00150013606B46DC1D3A002B00B2
:1022800021000020FFF7B0FF012802D12378B342DC
:10229000F2D1FEBD37B51400022907D004290ED0B3
:1022A000012912D10378236000203EBD6B469D1D9D
:1022B0000A0001002800FFF792FF2B88F3E70A00CD
:1022C00001002000FFF78BFFEEE701204042ECE722
:1022D00037B513000400092927D8080023F01AFA9B
:1022E0001012142325252525050B02212000FFF7B8
:1022F00022FF00203EBD06212000FFF72BFFF8E75C
:102300000421F9E70521F1E701AA03CBFFF7C2FF9A
:1023100005000520002DEDD1019A2B00032120009E
:10232000FFF7FBFEE5E70121E6E70520E2E7000015
:10233000F0B54368CFB0060007920024242B03D1E8
:1023400003681C6A20234360072207230091224070
:102350005B4221001CA8FFF7B9FE002806D002242A
:10236000012800D0052420004FB0F0BD3200BD4947
:102370001CA8FFF7E0FE8023DB051C4000D02BE10A
:102380000822210011A80FAE1FF068F810AA310032
:1023900020001094FFF76AFF012800D025E1109B70
:1023A000043311933388043B11AAAF491CA812933C
:1023B000FFF7C1FE11A8FFF7E9FD13AE1390002847
:1023C00006D0119B3200A9491CA87360FFF7C2FE1A
:1023D00011A8FFF7E1FD1390002806D0119B3200F1
:1023E000A3491CA87360FFF7B5FE2123310010A894
:1023F0001093FFF729FD0324071EB4D1109B11AAE7
:102400009C491CA812931196FFF795FE12233900E0
:10241000082211A80F931FF021F810970EAF10AAF1
:1024200039000120FFF722FF012800D0E9E0109BCE
:10243000043311933B88043B11AA8F491CA81293C3
:10244000FFF788FE202313AE10AF31003800109341
:10245000FFF770FD0324002800D084E7109B11AA29
:1024600086491CA812931196FFF765FE3000FFF70E
:10247000E1FC041E00D076E7139B139A80491CA848
:10248000DB17FFF74AFE3200390002201394FFF7F2
:10249000EDFE012800D0BEE03988139B0439181DD9
:1024A00011AAFFF7F7FE002800D05BE7119B9AB254
:1024B000C023DB019A4200D954E7002371491CA8CC
:1024C000FFF72BFE012300250393002312220C9318
:1024D0006B4606A952180F211B7B06A80493091806
:1024E0000CAB0498FFF780FE431C00D184E0012868
:1024F00065D10135012D0CD11CA8FFF70DFE01237C
:10250000614A5B42059000F07EFD0421059800F0D1
:10251000B3FD0C9B0DAE1900042230000E93FFF7A3
:102520005EFE3F2273880BAC238033880AAF1340D2
:102530001CA83B70FFF7F0FD05210690002600F077
:102540009BFD3978CB087AD0002E29D10E9B0FAE97
:102550001900042230001093FFF741FE1623728801
:1025600006A95B181A803F2233881CA813402E3A14
:1025700052181370FFF7D0FD112306AA9B18197883
:10258000CB084CD1162206A95218112106A8091809
:1025900010AB0498FFF728FE01300128ECD8012683
:1025A00022000EAB39000498FFF71EFE0200431C08
:1025B00005D00028C5D10521069800F07EFD039BBB
:1025C00001330393072B00D07FE7002D42D0002278
:1025D0000421059800F071FD07991CA8FFF7C9FDBB
:1025E0000024A04200D0BAE6BDE613AC21002020B2
:1025F000FFF728FC002801D00324B4E6119420231F
:10260000D2E631000FA8FFF793FC002800D0AAE61D
:1026100011960F9B10E7FFF799FC020048E7109B0B
:1026200006AA0433139316239B181B8813AA043B92
:102630001CA81493FFF74CFE0028A3D0AFE70E9B15
:1026400011AA0433119323881CA8043B1293FFF7AB
:102650003FFEA5E7012200230C491CA8FFF75DFD02
:10266000BAE7C04600DBFEFF04DBFEFFFEDAFEFF3A
:1026700008DBFEFFFFDAFEFF03DBFEFF05DBFEFFEC
:1026800007DBFEFF06DBFEFF02DBFEFF01DBFEFFDA
:10269000802210B5920002490120FFF70BFA10BD0D
:1026A000041E000870B5136886B04568066802937A
:1026B000536828001400009601950393FFF782FDEC
:1026C000002818D1012229003000FFF76BFC0028F8
:1026D00011D1022203990298FFF764FC00280AD165
:1026E00004AA02A96846FFF723FE002803D1049B31
:1026F0002360059B636006B070BD0000002110B52B
:10270000036886B01B6814680091029152680B49F7
:10271000019303910420032A0DD91800FFF752FDFD
:10272000002808D104AA02A96846FFF701FE002884
:1027300001D1059B236006B010BDC046FFFFFF7F9F
:10274000F0B5824C0500A54410001F000E00079252
:1027500000F066F97E4B0124984266D0079BEF613A
:10276000AB612B19DE778A9B6B62002E62D0202131
:1027700023A80FAA0D900E9100F0D0F9041E54D199
:10278000002312228A9800F072FC04218A9800F03B
:1027900073FC102229003EA81C921B9500F01EFC21
:1027A00005213EA800F068FC012200233EA800F0AD
:1027B0002AFC079B079ADB173EA800F024FC2BAEEF
:1027C00005213EA8220000F078FC31003EA800F070
:1027D000C1FC002800D0B6E02B9B2C9A2B616A61CB
:1027E000002B22D02B003200103303CB03C2022176
:1027F00073682B9A8A9800F01AFC0F9E109D052191
:102800008A9800F039FC042200238A9800F0FBFB30
:10281000320002218A982B003E963F9500F007FC7B
:10282000002205218A9800F048FC200085239B00A7
:102830009D44F0BD20212BAB09934B230C910E91AD
:1028400017A923A805911BAA0FA90A930B920D9013
:102850000491119612960DAA02A911CA11C16A46D5
:102860000BAB03CB03C208AB310032003800FFF7DB
:102870009DF9041ED9D10A9A09993EA800F0AEFB31
:1028800005213EA800F0F8FB012200233EA800F03D
:10289000BAFB022200233EA800F0B5FB089E0122ED
:1028A0005242D317F7173EA800F0ADFB32003B00B1
:1028B0003EA800F0A8FB0F9E109F02225242D317A1
:1028C0003EA800F0A0FB3B00320002213EA8139678
:1028D000149700F0ACFB179E189F03225242D317A7
:1028E0003EA800F090FB3B00320002213EA8159666
:1028F000169700F09CFB220005213EA800F0DDFBAE
:1029000019A93EA800F026FC0234002800D08CE76C
:10291000199B104917931A9B3EA8189323AB199340
:1029200020231A93FFF786F9041E00D07DE717993C
:10293000189A3EA8FFF7A0F90FAB19991A9A3EA86A
:10294000FFF7A8F91AE72200230047E7ECFDFFFF95
:10295000FFFFFF7FC0E6FEFFF0B5ADB00992402259
:1029600004000EAD08916A6014A9203A1CAE1192C1
:102970000E96109108AB02A8944684CB84C0230025
:102980006846103384CB84C00AAB6246A06900F06D
:1029900055F8059000282ED1631CDB7F002B2FD02B
:1029A00040270A9B0B9D0693731B049507933A00DF
:1029B000AF4200D92A00079B04997F1B581806993B
:1029C0001EF0BAFC049B049A5B193F2A16D94023D7
:1029D0000C960D93656A08220CA912A81EF0ACFC97
:1029E000129A02212800139B00F021FB00220421EF
:1029F000606A00F062FB05982DB0F0BD0493D6E745
:102A00000CAB02936B4606CD06C30A9A0B9BE16999
:102A1000A069FFF799F80028DCD00590EBE70000EB
:102A2000073043425841034B40421840024BC01804
:102A30007047C046C1E6FE7FFFFFFF7FF0B5354C13
:102A40000700A5440091019213A921221CA81D0092
:102A500000F0C4FA04211CA800F00EFB2E4C8EAE30
:102A600020001FF037F822000024030003211CA8D7
:102A700000F0DDFA0FAB06CE06C31CA80F9A8F9BA1
:102A8000022100F0D4FA2200230002211CA800F049
:102A9000CEFA2200230002211CA800F0C8FA23006D
:102AA000220002211CA800F0C2FA220004211CA866
:102AB00000F003FB05A91CA800F04CFB0300142048
:102AC000A3421ED13800FFF7ABFF010042A8FFF779
:102AD000B1F8A04215D106998A1E914215D20790ED
:102AE00008900799089A42A8FFF7C6F8909972686B
:102AF00042A8FFF7C1F82B000099019A42A8FFF7FE
:102B0000C9F889239B009D44F0BD059B089207935B
:102B1000E7E7C046DCFDFFFFA88B021070B520245C
:102B200092B00AAE0290039115000E4922003000C7
:102B30001EF002FC6A460994089608AB03CB03C258
:102B400004AC039A02992000002300F07BF92300D3
:102B500006CB06C5236807205A4253415B42184002
:102B600012B070BD888B0210F0B597B08021702034
:102B70000906FEF78FFA1023070018424BD03022C7
:102B800000210AA81EF06AFC0AA91020FEF7C2FA6A
:102B9000041E40D10A9B022B05D0032B01D0012B30
:102BA00062D1002433E00E9901201DF0FFFC051EC8
:102BB0001AD00E9B020021000B98FEF727FC0E9BFB
:102BC0000393984207D028001EF086F843227D49DF
:102BD0007D4816F0F1FE129901201DF0E7FC061E5B
:102BE00004D128001EF078F8052410E00E9B06950D
:102BF0000793129B089003930993FFF749FD041E66
:102C000020D028001EF068F830001EF065F8210082
:102C10000B98FEF77DFC2024274257D0302200215C
:102C20000AA81EF01BFC0AA92000FEF773FA011E79
:102C30004CD10A9B022B1CD0032B01D0012B5ED15F
:102C400000243FE0614B0C9A06A81A60012308AAF1
:102C50001900FFF727FD041ED3D10100099B089A34
:102C60000B98FEF7FDFBCCE763225649584816F057
:102C7000A3FE04AC0E9B22000B98FEF7C7FB0E9B35
:102C80000393984202D080225249A1E705AB0893F2
:102C9000129B0694079003930993FFF7F9FC041E17
:102CA00010D14A4B0C9A06A81A60012308AA1900F1
:102CB000FFF724FD041E05D10100099B089A0B981B
:102CC000FEF7CEFB21000B98FEF722FC40242742A2
:102CD00000D14BE7302200210AA81EF0BFFB0AA951
:102CE0002000FEF717FA011E00D03FE70A9B022BD7
:102CF00008D0032B01D0012B61D100255AE0952289
:102D00003449B3E70E9B06909125042B1CD108AAE9
:102D10000B98FEF77BFB0E9B0393984202D0B822E0
:102D20002D4955E7129901201DF040FC061E0AD0DE
:102D30000F9900291CD001201DF038FC041E05D17C
:102D400030001DF0C9FF8D256D4233E00F9B02005E
:102D500001210B98FEF75AFB0F9B0393984208D072
:102D600030001DF0B9FF20001DF0B6FFCD22D7E7DF
:102D70000C00129B06AF0393009301973300089A4F
:102D80000F992000FFF712F9051E05D10100069BDF
:102D900032000B98FEF764FB0B9804233A000121E4
:102DA000FEF75EFB30001DF097FF002C02D02000E4
:102DB0001DF092FF29000B98FEF7AAFBD6E6E6224B
:102DC000054953E7B38B0210417902100420000833
:102DD0001E790210C88B0210E28B021010B5041E7F
:102DE00004D176220F49104816F0E6FD0F4818F07E
:102DF0007DFCE061002810D00D4B0E4A9C629C6463
:102E00009C60E36000210C4819F0D8FA606000284B
:102E100007D1852203490948E6E77B220149084892
:102E2000E2E710BDF88B02107C790210A88C02102A
:102E30001403000874030008692B0010648C02104E
:102E4000248C0210F7B5050000911C00934203D8B2
:102E5000099ED21AB24204D200232B606B60280074
:102E6000FEBD009F3200F8180899A4191EF064FAFC
:102E70002F606C60F3E7000082B06B465A60054A31
:102E80000091828100228260827306CB06C002B06C
:102E90007047C0460F0B000073B5009101921E00F1
:102EA000837B0400002B05D1124B82899A4202D009
:102EB0000123A37373BD826843689A42F8D8019DC9
:102EC0009B1AAB42F4D3B242F2D3921B06D00168F4
:102ED000002903D0891948191EF072FA20680028C9
:102EE00004D080192A0000991EF06AFAA3685D19BF
:102EF000A560DFE70F0B00008B7B10B5002B03D024
:102F000000230360436010BD054A8C89944202D0BF
:102F100001228A73F5E78B6843600B680360F2E770
:102F20000F0B0000F0B515248BB0119D04AB02907F
:102F3000039100921098E418002D30D117282ED854
:102F4000002A2FD12100C0B2039B01395B01C018B8
:102F50000870621A129B0298FFF79EFF0BB0F0BD3B
:102F6000114EF75CFE438E1901960E00019A013E48
:102F700096420ED1009A0133D21BC91B0092DBB2DC
:102F800006002E43ECD1009A002AE9DC1733D8B2B0
:102F9000DAE72A063070000A10432D0AE6E700231C
:102FA0002100EDE72B00FBE7D48C02101FB58468ED
:102FB0000092019302940022FFF7B4FF1FBD0000AE
:102FC0008388054A0321D21A012A02DD0021013338
:102FD000838008007047C046FEFF000013B5040060
:102FE00000910192002198221EF038FA019A00996E
:102FF0002000FFF741FF22002300143294331A60AF
:103000000423A37613BD10B5017C040000290DD163
:10301000002B02DAD243DB4301312000FFF7C6FF69
:10302000230094331868FFF7CBFF207410BD30B530
:1030300085B06D4600926B60037C0400002B14D1B8
:10304000092902D0019AFFF7B1FF2A0002AB03CA97
:1030500003C32000A36802996A68FFF71DFF2300DD
:1030600094331868FFF7ACFF207405B030BD10B57D
:103070000621FFF79BFF10BDF8B50500943504004D
:1030800028680E00FFF79CFF2074002805D1A76870
:103090003B00663302D907232374F8BD22002B6856
:1030A0008C320221934206D01A00010008322A60B5
:1030B00098819F609E732174EFE7F0B5037C89B01F
:1030C00004000D001700002B08D106000200943602
:1030D00033681432934203D10423237409B0F0BD42
:1030E0009A798A4201D01023F7E71A68049282681D
:1030F0000592022924D11300049A981A049B009087
:1031000002930023290001931A002000FFF70AFF11
:10311000002F11D0210006A8FFF7EEFE059A049BB0
:1031200006999B1AA2689B18079A93420FD8D21A45
:10313000002900D0C91806C73368083B3360CDE7C3
:103140000339988889B222F0F9FA80B2D6E70022D2
:103150001100F0E773B5057C0E00002D0FD10300C0
:1031600094331A68803B9A420BD1837B002B0AD19F
:103170006C4601002000FFF7BFFE0CCC0CC62800F7
:1031800076BD0A25FBE70125F9E70000F0B5070049
:1031900012208FB0039314AB1E7802AB0D00029285
:1031A00000210E22C0181EF059F910230593029B2E
:1031B00006AC0B93039B01210C9304230D4827803D
:1031C000267304940A950D93FDF7E0FC041E0DDDB3
:1031D00002230122009304A90AABFDF769FD050053
:1031E0002000FDF7E9FD28000FB0F0BD91256D42EC
:1031F000F9E7C046060F000030B50E22002487B064
:1032000002AB5C801A7004930823050003910948FF
:1032100001210593FDF7BAFC2860A04207DD009468
:103220002300012204A9FDF743FD07B030BD912022
:103230004042FAE7020F000030B500230F2589B0A5
:1032400002AC6380257004940824006803930594FD
:1032500006910792984206DD0093022204A9FDF729
:1032600027FD09B030BD89204042FAE770B500253E
:1032700010268EB004000392100004AA5580167028
:1032800006920822079203AA089204220B90206853
:10329000059509920A910C930D92A8420DDD023A10
:1032A00000920AAB06A9FDF703FD06002068FDF7B2
:1032B00083FD256030000EB070BD89267642F9E7A7
:1032C000F0B5102591B004AC07000E000292002169
:1032D0002A00200003931EF0C1F824232370029BD0
:1032E00001210A93039B11480B93169B67800C9353
:1032F000179B66600D93189B08940E930423099501
:103300000F93FDF743FC041E0CDD02220CAB009270
:1033100008A9FDF7CDFC05002000FDF74DFD2800B4
:1033200011B0F0BD91256D42F9E7C046030F0000D2
:1033300070B506001A2015008EB003910E220021F0
:1033400068441EF08BF82B8806AC1022238004956D
:10335000042302250B92012103AA0E486660237301
:103360000A940C920D930595FDF710FC041E0DDDDB
:1033700001232A0000930AA904ABFDF799FC05007C
:103380002000FDF719FD28000EB070BD91256D429B
:10339000F9E7C046060F000070B506001A201500B8
:1033A0008EB003910E22002168441EF057F82B883E
:1033B00006AC2380052323730B330B9303AB0C93D1
:1033C00004950423022501210C4866600A940D939C
:1033D0000595FDF7DBFB041E0DDD01232A0000939C
:1033E0000AA904ABFDF764FC05002000FDF7E4FC2E
:1033F00028000EB070BD91256D42F9E7060F000060
:1034000030B50500122089B00E22002168441EF05C
:1034100025F8062304AC237301210A330B482580C9
:1034200002940393FDF7B2FB041E0CDD002301227E
:10343000009302A9FDF73CFC05002000FDF7BCFC51
:10344000280009B030BD91256D42F9E7060F000054
:1034500006C0704770B506000A208AB00C000E2224
:10346000002168441DF0FAFF0B2302AD2B730533D6
:1034700007930894631E9C410121E4000B480994C2
:103480002E800695FDF782FB041E0CDD0023022230
:10349000009306A9FDF70CFC05002000FDF78CFC4D
:1034A00028000AB070BD91256D42F9E7060F0000B3
:1034B00070B506001A208AB00C000E220021684464
:1034C0001DF0CCFF0C2306AD2B730433039304943F
:1034D000631E9C410121E4000B4805942E80029557
:1034E000FDF754FB041E0CDD012204AB009202A97F
:1034F000FDF7DEFB05002000FDF75EFC28000AB0AA
:1035000070BD91256D42F9E7060F0000F0B5070088
:103510000A200E008DB0039302AB150000210E228D
:10352000C0181DF09BFF102304ACA660022609936F
:10353000039B01210C482780267308940A950B935E
:10354000FDF724FB041E0CDD00233200009308A9C4
:10355000FDF7AEFB05002000FDF72EFC28000DB0A6
:10356000F0BD91256D42F9E7060F000030B505006A
:10357000122089B00E22002168441DF06FFF07233E
:1035800004AC2373012109330B4825800294039373
:10359000FDF7FCFA041E0CDD00230122009302A9B2
:1035A000FDF786FB05002000FDF706FC280009B0AA
:1035B00030BD91256D42F9E7060F0000F0B5070018
:1035C00012208DB00D00140000210E2268441DF061
:1035D00045FF082304AE3373DB18039308950A9460
:1035E0006B1E9D41631E9C41AD00A40001210D484E
:1035F0000B94378002960995FDF7C8FA041E0DDD7D
:1036000002230122009302A908ABFDF751FB05003C
:103610002000FDF7D1FB28000DB0F0BD91256D42D3
:10362000F9E7C046060F000013B50A240094FFF71F
:10363000ADFD16BDF0B5070012208FB00E0003924D
:1036400000210E2268441D001DF008FF292304AC50
:103650002373193B099303AB0A93042327800B932D
:10366000A6600894149B002D04D1002B04D087245D
:10367000644214E0002BFAD0149B01210A480C95F7
:103680000D93FDF783FA051E0CDD00230322009342
:1036900008A9FDF70DFB04002800FDF78DFB2000B5
:1036A0000FB0F0BD9124E3E7060F0000802210B5B3
:1036B0005200002101481DF0D1FE10BD68400008F5
:1036C000802210B55200002101481DF0C7FE10BD38
:1036D00068400008002370B5094CDD002A191688DF
:1036E000002E05D15668002E02D12853516070BDBE
:1036F0000133202BF1D13B220249034816F05CF93B
:1037000068400008D88C02102E8D0210002370B57E
:10371000084ADC00A1180D88854203D10023A3527A
:103720004B6070BD0133202BF3D14822024903487E
:1037300016F042F968400008028D0210668D0210F2
:1037400070B580240023084D64005A1916888642FB
:1037500002D152688A4204D00833A342F5D1002036
:1037600070BD0120FCE7C04668400008084B5A685D
:10377000904204D01A690121904201D07047002183
:103780000C224A43002199509B1859601972F5E7A1
:103790006841000870B598B0302200210CA81DF0D7
:1037A0005DFE80200CA98001FDF7B4FC041E16D13B
:1037B0000C9B022B15D0032B00D1E5E0012B00D090
:1037C000EAE0FC21180049001CF0F0FE011E40D088
:1037D0000D98FDF761FF21000D98FDF799FE18B0D7
:1037E00070BD09AD01000C2228001DF037FE109BB2
:1037F0000C2B00D0C4E02A0021000D98FDF706FE36
:10380000109B0593834204D0664A6749674816F0C7
:10381000D3F828782A38052800D9B3E021F07AFFB8
:1038200003122C4E5290002308A90F98089304F01D
:10383000FBFE041ECFD10100042308AA0D98FDF75A
:103840000FFEC8E7149E012031001CF0AFFE051EDC
:1038500001D18D243DE0010032000F9804F0EEFE0E
:10386000041E05D1010033002A000D98FDF7F8FD74
:1038700028001DF031FAAEE768880E99FFF760FF67
:10388000002825D0119B07AA01210D98FDF7BEFD48
:10389000042801D0464AB8E7129B08AA02210D98D5
:1038A000FDF7B4FD042801D0424AAEE768880F9BBB
:1038B000089A079905F032F804008CE70F9804F095
:1038C00069FEF9E768880E99FFF73AFF002802D1F0
:1038D000882464427FE7119901201CF067FE041ED2
:1038E000B7D0119B020001210D98FDF78FFD119BB0
:1038F0000593834201D0304A87E7129901201CF0DA
:1039000055FE061E03D120001DF0E6F9A1E7129B2B
:10391000020002210D98FDF779FD129B834201D030
:10392000264A72E76988AA680293119B0392009362
:10393000019605936A6823000F9805F01CF8BBE711
:1039400068880E99FFF7FCFE0028C1D0119901206C
:103950001CF02CFE041E00D17BE7119B020001210C
:103960000D98FDF753FD119B834201D0144A4CE79B
:103970006A6869880F980092220005F036F89BE784
:103980009124A6E78624A4E70F9804F003FE0F987D
:10399000002800D06DE71EE70A4A03490A4816F0DE
:1039A0000BF8C046FB050000828E02104179021020
:1039B0002C06000032060000510600005E060000E2
:1039C0007E0600009B0600001E790210F0B5A5B02F
:1039D0008021C3480906FDF75DFB102209901042C3
:1039E00029D00021203218A81DF038FD18A9102078
:1039F000FDF790FB00281ED1189B022B06D0032B4D
:103A000002D0012B00D0AAE0002410E005F056F906
:103A1000041E0CD1B34A136801331360012B06D185
:103A200001001822B0481DF019FDFFF73FFE2100EC
:103A30001998FDF76DFD2024099B234223D03022E5
:103A4000002118A81DF00AFD200018A9FDF762FB4F
:103A5000041E18D1189B022B00D185E0032B00D146
:103A60005DE1012B00D062E1B421180049001CF097
:103A70009DFD011E00D15EE11998FDF70DFE2100AC
:103A80001998FDF745FD4024099B234222D030229E
:103A9000002118A81DF0E2FC200018A9FDF73AFB50
:103AA000041E17D1189B022B00D146E1032B00D135
:103AB00061E2012B00D069E2E02118001CF076FDE4
:103AC000011E00D165E21998FDF7E6FD2100199865
:103AD000FDF71EFD8024099B6400234222D0302282
:103AE000002118A81DF0BAFC18A92000FDF712FB50
:103AF000061E17D1189B022B00D14CE2032B00D1DC
:103B00002BE3012B00D02FE34C2118001CF04EFDBD
:103B1000011E00D12BE31998FDF7BEFD3100199865
:103B2000FDF7F6FC8024099B234200D18BE3302271
:103B3000002118A81DF092FC18A92000FDF7EAFA50
:103B4000051E00D07FE3189B022B00D111E3032B4D
:103B500003D0012B01D000F01AFC00276FE3922262
:103B60006249634815F028FF0FAD010008222800C4
:103B70001DF074FC1C9B082B00D0CAE02A00210019
:103B80001998FDF743FC1C9B0A93984204D0E1224C
:103B90005849594800F048FE28781538052800D9BA
:103BA000B9E021F0B7FD03131F4D78B268881A9968
:103BB000FFF7C6FD002802D1882464425FE76988C8
:103BC0006A681B9803F0EAFE040058E768881A99AF
:103BD000FFF7B6FD0028EFD069886A681B9803F0EC
:103BE000E2FEF1E7C8231D9D5B0029009D4200D93C
:103BF000190001201CF0DAFC071E00D18DE0002D19
:103C000004D12C0038001DF067F838E7C8232E00D7
:103C10005B009D4200D91E0033003A000121199833
:103C2000FDF7F4FB864202D089225200B0E7320051
:103C300039001B9803F0BCFE041EE3D1AD1BDEE788
:103C400000241D9B0CAA012119980C94FDF7DEFBA2
:103C50001D9B0A93984201D09522E6E70C9901201A
:103C60000D941CF0A3FC051E57D001000DAB0C9A5F
:103C70001B9803F0CDFE041E0BD101000D9B2A0002
:103C80001998FDF7EDFB04230DAA01211998FDF702
:103C9000E7FB2800B7E700230DAA0D9301211D9B28
:103CA0001998FDF7B3FB1D9B0A93984203D11E9907
:103CB0000D9B994201D0A322B7E701201CF076FCAE
:103CC000051E2AD01E9B020002211998FDF79EFBBB
:103CD0001E9B0A93984211D05222FF3258E7C046E9
:103CE000F07F00008041000868410008A08D0210AC
:103CF0001E790210D48D0210417902100D9A29000C
:103D00001B9803F0B4FE0400C3E71B9803F024FDE6
:103D10005AE7912451E786244FE78D244DE71B98FD
:103D200003F01AFD1B98002800D06CE7A7E6742268
:103D3000B749FF3215E7B74CA1E60FAD01000822E5
:103D400028001DF08BFB1C9B082B00D00DE12A00E6
:103D500021001998FDF75AFB1C9B0A93984203D047
:103D6000CD225200AC4914E728780E38062800D935
:103D7000FDE021F0CFFC040A37689398CE00696813
:103D80001B9803F001F80400A0E6C8231D9D5B000A
:103D900029009D4200D9190001201CF007FC071ED4
:103DA00000D1E6E0002D04D12C0038001CF094FF77
:103DB0008CE6C8232E005B009D4200D91E00330014
:103DC0003A0001211998FDF721FB864201D0DB2240
:103DD000C7E7320039001B9803F01AF8041EE4D13B
:103DE000AD1BDFE700241D9B0CAA012119980C9440
:103DF000FDF70CFB1D9B0A93984201D0E722B0E728
:103E00000C9901200D941CF0D1FB051E00D1B0E0EF
:103E100001000DAB0C9A1B9803F004F8041E0BD1A3
:103E200001000D9B2A001998FDF71AFB04230DAA27
:103E300001211998FDF714FB28001CF04DFF1B9879
:103E4000FFF794FC42E600230DAA0D9301211D9B70
:103E50001998FDF7DBFA1D9B0A93984203D11E992E
:103E60000D9B994202D0EC22FF327BE701201CF02F
:103E70009DFB051E7DD01E9B020002211998FDF7B7
:103E8000C5FA1E9B0A93984201D0FB2269E70D9A5E
:103E900029001B9803F012FC0400CDE71B9802F0E8
:103EA00025FF0400CBE700255C4B1A981A680D9596
:103EB0001B99904202D15E68B14214D0DD68A842DD
:103EC00013D11E69B14210D101220D920C214A4337
:103ED0009B181A7A002101321A72199804230DAA2C
:103EE000FDF7BEFAF2E52A00F0E700260D96B24291
:103EF00002D15E68002E06D0002D33D11A69002A47
:103F000030D101320D920C256A4398509B185960AC
:103F1000DFE71D9B0DAA01211998FDF777FA1D9B7C
:103F20000A93984202D0852292001BE70D9B1A9AB1
:103F3000012B17D80C255D43384FEB599A4211D10C
:103F40007E19706800280DD01B9903F0D7FB337AD7
:103F50000400013BDBB23372002B00D0B6E5EB511D
:103F60007360B3E589246442B0E59124FBE78624BD
:103F7000F9E78D24F7E71B9802F0B8FE1B9800289C
:103F800000D1A3E5FFF7F2FB1B980FE7244A224973
:103F9000E7E5204C9AE50DAC0100082220001DF059
:103FA0005DFA1C9B082B00D0D3E022003100199849
:103FB000FDF72CFA1C9B0A93984202D0194A1A4921
:103FC000E7E520781B38062800D9C4E021F0A2FBE1
:103FD00004142E4B619EBD0060881A99FFF7B0FB58
:103FE000002802D18826764298E5618862681B988D
:103FF00004F0D6F8060091E560881A99FFF7A0FB57
:104000000028EFD0618862681B9804F0CEF8F1E7D1
:10401000D48D021001000080E68D02106841000876
:104020003302000093030000258E02100021209C23
:1040300010220FA80C911DF011FA0CAB22000FA951
:104040001B9804F0D9F8061E00D067E50C9B0FAA58
:1040500001001998FDF704FA04230CAA012119980C
:10406000FDF7FEF95AE51D9C102200210FA81DF056
:10407000F5F923000FAA01211998FDF7C7F9844229
:1040800001D0C54A9BE722000FA91B9804F092F8C3
:10409000B0E700231D9E01203100209F0F931CF0EC
:1040A00085FA041E12D00200330001211998FDF791
:1040B000ADF9864201D0B94A81E7390001201CF0F0
:1040C00075FA051E04D120001CF006FE8D268AE735
:1040D0000FAB019332000300009721001B9804F0FE
:1040E000B7F8061E0BD101000F9B2A001998FDF7A7
:1040F000B7F904230FAA01211998FDF7B1F920009F
:104100001CF0EAFD28001CF0E7FD07E50023209DD8
:10411000012029000F931CF049FA041ED6D001009B
:104120000FAB2A001B9804F0C7F8061E0BD1010044
:104130000F9B22001998FDF793F904230FAA012180
:104140001998FDF78DF92000DDE71B9803F054FF67
:1041500050E7912647E7862645E71B9803F04CFF7A
:104160001B980028CFD1D9E48D4A8E49F9E48E4EB0
:10417000D4E41C9B91270A93102B00D087E0199E52
:104180000FAC0100102220001DF068F9102322005E
:1041900029003000FDF73AF91C9B0A93984202D09F
:1041A000952292002CE060881A99FFF7C9FA00283E
:1041B00000D1E8E020782438032800D9E5E021F098
:1041C000A9FA025F95950023209901200D931CF018
:1041D000EDF9041E5AD01D9901201CF0E7F90600E4
:1041E0002000002E00D19FE01D9B32000121199874
:1041F000FDF70CF91D9A03000A92904202D06B4A17
:104200006B49C6E4209A0FA90DAD48880A92019225
:10421000029500943200109903F060FC071E05D14E
:1042200001000D9B22001998FDF71AF91998042333
:104230002A000121FDF714F920001CF04DFD390082
:104240001998FDF765F98024099BA400234200D149
:104250002EE13022002118A81DF000F918A9200035
:10426000FCF758FF051E00D022E1189B022B00D15D
:10427000A4E0032B02D0012B00D043E1002413E182
:104280001D9901201CF092F9061E02D18D277F4254
:10429000D5E71D9B020001211998FDF7B7F81D9B7A
:1042A0000A93984201D0A5227BE71E9901201CF0B9
:1042B0007DF9051EEAD002001E9B02211998FDF728
:1042C000A5F81E9A03000A92904201D0A82268E73E
:1042D0001D9A6088019200962A00616803F0FAFC3A
:1042E000070030001CF0F8FC2800A6E700231D9909
:1042F00001200D931CF05AF9051EC7D01D9B02002A
:1043000001211998FDF782F81D9B0A93984201D06C
:10431000284A75E7A3682099EB1801200A931CF03E
:1043200045F9061E03D128001CF0D6FCAEE7A368B1
:1043300060886168E26824780B93A4466346209FF6
:104340000DAC0494039702960192262B14D10A9B7C
:104350002A0000930B9B03F073FD071E05D101009B
:104360000D9B32001998FDF77BF8042322000121F0
:104370001998FDF775F8B4E70A9B2A0000930B9B88
:1043800003F0D2FDE9E7882781E786277FE70A4A1D
:104390000749FFF7E6FBC046C6030000DD03000047
:1043A00022040000258E021001000080730200002C
:1043B000F98D0210BE020000F50200001C9E91243F
:1043C000242E41D1199F0FAC0100320020001DF0B6
:1043D00045F83300220029003800FDF717F81C9B30
:1043E0000A93984203D0B14AB149FFF7D2FB6088E3
:1043F0001A99FFF7A5F9002800D17FE02378223B26
:10440000012B00D97CE01D9901200D951CF0CEF800
:10441000051E18D01D9B020001211998FCF7F6FF1C
:104420001D9B0A93984202D0CC229200DCE7E368FD
:104430002099EB1801200A931CF0B8F8061E05D14C
:1044400028001CF049FC8D2464422DE0E268238999
:1044500060886168944622692478209F0B9323002A
:104460000DAC0694059704960392222B3CD10A9B2F
:1044700000950293634614AA01930B9B03F09AFFE5
:10448000041E0BD101000D9B32001998FCF7E8FFC8
:1044900004230DAA01211998FCF7E2FF28001CF063
:1044A0001BFC30001CF018FC21001998FDF730F8B7
:1044B0008024099BE400234200D19CE030220021AB
:1044C00018A81CF0CBFF200018A9FCF723FE041E3F
:1044D00000D090E0189B022B18D0032B02D0012BA8
:1044E00000D0D3E1002482E00A9B0095029363464A
:1044F00014AA01930B9B03F0CFFFC1E78824A3E725
:104500008624A1E76B4A6A49FFF72BFB1C9B0A93A1
:10451000102B00D0B4E1199E0FAD0100102228002D
:104520001CF09CFF10232A0021003000FCF76EFFD6
:104530001C9B0A93984203D05F4A6049FFF729FB0E
:10454000287B1A9E0238272800D99BE121F0ECF83D
:104550007C004D015A0175018D019F00BC00DE00F9
:1045600004013900700028009A019A019A019A0109
:104570009A019A019A019A019A019A019A019A0163
:104580009A019A019A019A019A019A019A019A0153
:104590009A019A019A019A019A019A019A011A01C3
:1045A00028883100209FFFF7CBF8002853D02888B7
:1045B0000DA903F0F3FE041E19D13B000DAA210042
:1045C000A0E0288831001D9CFFF7BAF8002842D0EF
:1045D00023000DAA01211998FCF718FF844201D08D
:1045E000374AAAE728880DA903F0B2FE040021008B
:1045F0001998FCF78DFF8024099B2401234200D1E8
:1046000061E10021302218A81CF028FF18A9200021
:10461000FCF780FD002800D055E1189B022B00D14B
:1046200038E1032B02D0012B00D089E1002446E1C0
:1046300028883100209FFFF783F800280BD02888B6
:104640000DA903F09BFEB6E7288831001D9CFFF7FB
:1046500077F8002802D188246442C8E721000120AD
:104660001BF0A4FF061E00D10EE102002300012171
:104670001998FCF7CBFE844201D0124A5DE72888E6
:1046800023003200A96802F0A1FA040060E0288843
:104690003100FFF755F80028DDD0288802F0C2FA73
:1046A000041EA4D12888FFF731F8A0E71603000004
:1046B000128E02106A030000470400003D8E0210B3
:1046C0006E0400009904000028883100FFF738F8D4
:1046D0000028C0D028880DAA0CA902F0BAFA209BA5
:1046E00004000A93032B05D904230CAA002119986E
:1046F000FCF7B6FE219B0A93032B00D877E704232F
:1047000001210DAA1998FCF7ABFE70E7288831004B
:10471000209CFFF715F800289DD0210001201BF0F8
:1047200045FF061E00D1AFE028880DAB2200310006
:1047300002F0B0FA041E05D101000D9B3200199859
:10474000FCF78EFE04230DAA01211998FCF788FEC0
:1047500030001CF0C1FA4AE728883100209CFEF79F
:10476000EFFF002800D176E7210001201BF01EFF9B
:10477000061E00D188E028880DAB2200310002F02F
:104780009EFAD7E7288831001D9F1E9CFEF7D8FFB0
:10479000002800D15FE73B000DAA01211998FCF722
:1047A00035FE874202D0A222D200C6E68A4BAA6812
:1047B00000269A4211D1B4420FD0210001201BF0F3
:1047C000F5FE061E60D00200230002211998FCF7B6
:1047D0001DFE844201D0814AAFE628880094330050
:1047E0000D9AA96804F06CF94FE7280004F054FB17
:1047F000041E00D0FBE628883100FEF76BFF022381
:104800002A00DCE61D9B0DAA012119980E96FCF7E3
:10481000FDFD1D9B0A93984201D0A722C4E70428FE
:1048200004D06F4A6F49704815F0C6F82B000D99F7
:104830000E9A686804F05BFBDAE71D9B0DAA012164
:1048400019980E96FCF7E2FD1D9B0A93984201D041
:10485000664A72E6042801D0654AE3E72B000D9909
:104860000E9A686804F01EFBC2E728883100FEF744
:1048700067FF002800D1EEE6288804F065FB0FE70B
:104880009124E9E68624E7E68D24E5E6594A554970
:10489000FFF767F9209E012031001BF087FE051EFF
:1048A00052D0310004F0CAF8041E05D101003300D3
:1048B0002A001998FCF7D4FD28001CF00DFA2100FD
:1048C0001998FCF725FE8024099B6401234215D02A
:1048D0000021302218A81CF0C1FD18A92000FCF707
:1048E00019FC00280AD1189B022B30D0032B01D0D1
:1048F000012B3ED100211998FCF70AFE099B9B046D
:1049000001D5FEF747FF8024099BE401234201D132
:10491000FFF75EF83022002118A81CF09FFD18A9AF
:104920002000FCF7F7FB061E01D0FFF751F8189B9B
:10493000022B22D0032B01D0012B43D100243BE0DA
:104940002D4A2E49FFF70DF98D246442B7E72C4A12
:104950001368002B01DD013B136011680029C9D1E8
:10496000182228481CF07AFDFEF7AAFE04F08AF906
:10497000C0E7BA222449FFF7F4F880231C9CDB002F
:104980009C4223D8210001201BF010FE051E20D0E0
:104990000200230031001998FCF738FD844203D04F
:1049A0001A4A1B49FFF7F5F82100280004F05CF8CB
:1049B000040028001CF090F921001998FCF7A8FDCC
:1049C000FFF706F8134A1249FFF7CBF88724644231
:1049D000F2E78D24FBE7C046000001701D050000D2
:1049E0003C0500003D8E0210A28E02104D05000015
:1049F0005105000075050000D2050000708E021000
:104A00008041000868410008BA8D02109D05000031
:104A10005A8E0210A905000010B5041E04D1D3223D
:104A20001249134814F0C8FF124816F05FFE0B211C
:104A3000E061114A002803D1D8220C490F48F1E760
:104A40004B01D31A6933FF3301391C600029F7D1B8
:104A5000E2600B480B4A17F0B1FC6060002803D1FC
:104A6000E22202490848DDE710BDC046DB8E021095
:104A70007C790210808F021098030008FC8E0210CF
:104A8000CD390010F80400083C8F021080235B0130
:104A90000360002070470000802310B55B0198423E
:104AA00002D100F0F1FB10BD0048FCE7E8030080F4
:104AB000BFF34F8F034B044ADA60BFF34F8FC046FA
:104AC000FDE7C04600ED00E00400FA05882030B59F
:104AD000012187B04002FCF759F8002405002000AE
:104AE000A54215DD03AB049304230593033B009318
:104AF000220004AB210028000394FCF7D9F880239E
:104B00001B06984200D103942800FCF755F903983E
:104B100007B030BD10B5FFF7CBFF10BD036907B577
:104B2000042B02D0802000060EBD01AA002140689F
:104B3000FCF76CFC0428F5D10198FFF7ADFFF3E713
:104B400073B5066A0500042E0CD101A8FFF79EFF7D
:104B5000041E05D10100330001AA6868FCF780FC3F
:104B6000200076BD80242406FAE70000036810B513
:104B70000400022B05D0032B01D0012B07D100210B
:104B800001E0884701006068FCF7C2FC10BD4A22C2
:104B90000149024814F010FFAC8F0210BC8F0210C4
:104BA00070B58CB030220021684680261CF056FC7F
:104BB0001025360631007020FCF76CFA04002842FC
:104BC00009D069462800FCF7A5FA0028F2D10E4961
:104BD0006846FFF7CBFF2020044208D06946FCF767
:104BE00099FA0028E6D109496846FFF7BFFF40203F
:104BF0000442DFD06946FCF78DFA0028DAD1044977
:104C00006846FFF7B3FFD5E7414B00101D4B00107E
:104C1000154B001010B5041E04D170220F49104826
:104C200014F0CAFE0F4816F061FDE061002810D0B4
:104C30000D4B0E4A9C629C649C60E36000210C4812
:104C400017F0BCFB6060002807D17F2203490948A8
:104C5000E6E7752201490848E2E710BDE08F02103F
:104C60007C790210749002101C0500087C05000875
:104C7000A14B001032900210F48F0210184B984292
:104C800023D010DC174B984223D004DC164B9842FB
:104C900021D0842312E0154B984218D0144B98422F
:104CA000F7D18E230AE0134B984209DC124B98424D
:104CB00013DA124BC01892230128EAD85B4202E0B3
:104CC00000239842E5D1180070478523F6E78C232E
:104CD000F4E79823F2E78723F0E79523EEE7C04651
:104CE0001201FF800201FF800101FF800701FF80A8
:104CF0000B01FF804601FF804501FF80E5FE007F3C
:104D0000F8B53F240021A446069E154D674637405E
:104D1000EF5D4C1CE4B24754B6091BD13F2702316A
:104D20002336C9B2065516003E40AE5D9209465480
:104D30009E06324316004C1C9B09E4B21E430BD165
:104D40000231C9B20655132908D9B72205490648C8
:104D500014F012FC2100D9E72100E4E7F8BDC046B9
:104D60009C900210DC90021028910210F0B589B0DE
:104D7000039300231500069302680793019305939C
:104D800005AB00939769082306AA04000E00B847F4
:104D900000280FD1059B01001848082B0FD1069A57
:104DA0002B689A4204D80CD1079A6B689A4208D9AA
:104DB000134804E0134B01219842F0D0124814F03C
:104DC000FBFD9A4215D22A0006A92000039B9847B2
:104DD00000280CD10022236800925F692A00082372
:104DE00031002000B847002805D00848E7E7084808
:104DF000E5E70029EED109B0F0BDC046529102109E
:104E00009E9102100701FF8076910210EA91021034
:104E1000CD910210F0B51D00012389B00F0010994B
:104E200004001600994319D113002B4319D0132203
:104E300003A81CF013FB2B00320003A80097FFF718
:104E40005FFF109A236800925D690F9A0E9B03A979
:104E50002000A847FFF712FF09B0F0BD86204042AE
:104E6000FAE78720FBE7F0B51D0013008BB00400C4
:104E70000F0016002B4335D00021132205A81CF08B
:104E8000EDFA32002B0005A80097FFF739FF2368E1
:104E900003AADB6905A92000984700281ED1039AC0
:104EA000109B9A421ED311995B188B421AD39A42D7
:104EB00002D28A20404213E0109A2368019202AA8B
:104EC000009202909D69129A119B05A92000A847A3
:104ED000002803D1029B119A9342EAD3FFF7CEFE3A
:104EE0000BB0F0BD8720E5E7F0B51E0013008DB0D4
:104EF000050003911700129C33431FD00021132299
:104F000007A81CF0ABFA039B3A00009307A83300F4
:104F1000FFF7F6FE2B6805AADB6907A9280098476A
:104F2000002807D10123069A60601A4200D063600E
:104F3000059B2360FFF7A2FE0DB0F0BD8720404225
:104F4000FAE7F0B51D00130089B004000F00160049
:104F50002B4313D00021132203A81CF07FFA320048
:104F60002B0003A80097FFF7CBFE236803A91B6A59
:104F700020009847FFF782FE09B0F0BD872040422D
:104F8000FAE710B503681B699847FFF777FE10BD75
:104F90000020704770B50B4C2378BFF35B8F0A4D30
:104FA000DB070CD4200014F0EBFD002807D0200014
:104FB00014F00AFE054A0649280014F0D5FD280021
:104FC00070BDC0464886000850860008C000000832
:104FD000C176011037B5FFF7DDFF0A4912F076FB05
:104FE0006A461100084B1860084B30CB30C10028CE
:104FF00002D1074814F0E0FC064B0749FFF7B6FE64
:1050000037BDC04618920210A08600081092021008
:1050100035920210914F001056920210F0B50C4CD0
:105020001F00236885B005001600002B01D1FFF793
:10503000D1FF0C9B320002930B9B290001930A9B2A
:10504000009320683B00FFF7E5FE05B0F0BDC046C9
:10505000A0860008F0B50C4C1F00236885B0050041
:105060001600002B01D1FFF7B5FF0C9B3200029315
:105070000B9B290001930A9B009320683B00FFF7DC
:10508000F2FE05B0F0BDC046A0860008F7B5094C99
:105090001F00236805001600002B01D1FFF79AFFBF
:1050A000089B3200009329003B002068FFF71CFF9B
:1050B000FEBDC046A0860008F8B5084C1F00236856
:1050C00005001600002B01D1FFF784FF32003B00E2
:1050D00029002068FFF735FFF8BDC046A08600080C
:1050E00010B5FFF757FF064912F0F0FA054B1860AC
:1050F000002802D1044814F05FFCFFF742FF10BD06
:1051000018920210A08600083592021030B58BB0BC
:1051100002900391002B01D1002A22D102A904910F
:10512000069308210EAB0893042305910F48073915
:1051300007920993FBF72AFD051E15DD00230322C4
:10514000009304A9FBF7B4FD802304001B069842DA
:1051500001D1922464422800FBF72EFE20000BB000
:1051600030BD87246442F9E79224FBE7011A01006D
:1051700030B58DB00392109A04900591002A01D1A8
:10518000002B24D104A908910821099103A90A91AF
:105190008D20042140020B91033906920793FBF7FF
:1051A000F5FC051E16DD01230222009308A906ABBB
:1051B000FBF77EFD802304001B06984201D1922458
:1051C00064422800FBF7F8FD20000DB030BD8724B5
:1051D0006442F9E79224FBE7F0B58BB002900391AB
:1051E000161E24D000230493059302AB06930823D4
:1051F00004AC01211048079308940993FBF7C6FCFF
:10520000071E17DD012208AB009206A9FBF750FD2F
:105210000CCC0CC6802305001B06984201D19225B8
:105220006D423800FBF7C8FD28000BB0F0BD8725A4
:105230006D42F9E79225FBE7021A010030B587B00D
:1052400002AB049308230290039101210D480593BA
:10525000FBF79CFC051E12DD00230122009304A92C
:10526000FBF726FD802304001B06984201D19224FF
:1052700064422800FBF7A0FD200007B030BD922457
:105280006442F9E7031A010037B501210C48FBF726
:105290007DFC051E11DD00210B0000910A00FBF7CB
:1052A00007FD802304001B06984201D1922464422A
:1052B0002800FBF781FD20003EBD92246442FAE7FE
:1052C000041A010010B5FFF70BFF10BD00230022E8
:1052D00013B50092019303690400082B02D08020CB
:1052E000000616BD6A4600214068FCF78FF80828C2
:1052F000F5D1009A019BA068FFF7DEFEF1E770B5DB
:1053000086B004AE04000822002130001CF0A6F88C
:1053100000230022029203932369082B04D08025E6
:105320002D06280006B070BD236A082BF7D102AA0B
:1053300000216068FCF76AF80828F0D1029A039B04
:105340000096A068FFF7A2FE051EEAD10100236ABD
:1053500032006068FCF784F8E3E7002300220021B4
:1053600070B588B006920793036904000591082B75
:1053700004D080252D06280008B070BD4569042D95
:10538000F7D106AA4068FCF741F80828F1D12B00B4
:1053900005AA01216068FCF739F80428E9D1206AE0
:1053A0001BF090FC061E1AD0236A02900193059B05
:1053B000A0680093069A079BFFF74CFE051E05D1D7
:1053C0000100236A32006068FCF74AF8226A002173
:1053D00030001CF043F830001BF07EFCCBE7922538
:1053E0006D42C8E700230022F0B5002689B006927E
:1053F00007930369040047690596082B04D08024AD
:105400002406200009B0F0BD8569042DF7D106AA55
:1054100031004068FBF7FAFF0828F0D12B0005AAFD
:1054200002216068FBF7F2FF0428E8D138001BF086
:1054300049FC051E0BD06369020001216068FBF77F
:10544000E5FF6369984205D028001BF045FC9224D3
:105450006442D6E7059B019502930097069A079B45
:10546000A068FFF7DBFD3A000400310028001BF0C4
:10547000F5FF28001BF030FCC3E70000036810B5FF
:105480000400022B05D0032B01D0012B07D10021F2
:1054900001E0884701006068FCF73AF810BDA022DF
:1054A0000149024814F088FA66920210BC8F02107B
:1054B00070B58CB03022002168468025F8261BF09C
:1054C000CDFF2D06760029003000FBF7E3FD040038
:1054D00011F0E2FF031E04D0B3222149214814F049
:1054E0006BFA2020044208D06946FBF713FE00281F
:1054F000E9D11D496846FFF7C1FF1020044208D0DA
:105500006946FBF707FE0028DDD118496846FFF71A
:10551000B5FF4020044208D06946FBF7FBFD002898
:10552000D1D113496846FFF7A9FF8020044208D073
:105530006946FBF7EFFD0028C5D10E496846FFF725
:105540009DFF802040000442BDD06946FBF7E2FD8C
:105550000028B8D108496846FFF790FFB3E7C04676
:105560007692021080920210E55300105B530010F7
:10557000FF520010CD520010C552001010B5041E8D
:1055800004D184221149124814F016FA114816F079
:10559000ADF8E061002814D00F4B00211A008832CA
:1055A00014609C629C649C669C60E3600B4A0C489F
:1055B00016F004FF6060002807D1932203490948D0
:1055C000E2E7892201490848DEE710BDB1920210E6
:1055D0007C79021030930210A005000840060008F4
:1055E000B1540010F3920210BA92021000207047DA
:1055F00000207047012000217047C1698069704711
:1056000000487047BE930210F0B5431C87B0059365
:10561000DB7F0500002B00D143622E0024360121E0
:10562000300014F0ABF800230490019301280AD154
:105630002F1D380000F0EAF90190002806D00499E7
:10564000300014F0B4F8019807B0F0BD29696A6918
:10565000AB69EC695B18544138000293039400F085
:10566000A1F90400380000F099F9039B2418002BDD
:1056700002D1029BA34206D90121300014F097F811
:10568000194B0193DFE76B69380002932C6900F036
:1056900085F9019B029A934201D1A042ECD82C6972
:1056A0006B691C4304D1380000F078F96C61286103
:1056B000AC69EB691C4312D1380000F073F90600A5
:1056C000380000F06BF9270032002300060028693B
:1056D000696992197B41121A8B41AA61EB6101231E
:1056E000059AD377AFE7C0465FF0FFFF421C030087
:1056F000002010B5D27F824202D0181D00F046F97A
:10570000002110BD10B5431CDB7F002B03D00430FB
:1057100000F04CF910BD01204042FBE770B5451C7C
:105720000400E87F002801D1606270BD20000121E3
:10573000243014F03CF8030000208342F5D1E877D0
:10574000201D00F081F9F0E710B50400044B083388
:105750000360FFF7E3FF201D00F017F9200010BDE4
:10576000C893021010B50400FFF7EEFF200014F0FC
:10577000ADFB200010BD421C0300002010B5D27FFD
:10578000824203D0181D196900F004F9002110BDF0
:10579000411C0300002010B5C97F814204D0196963
:1057A000181D891800F0F6F8002110BDF7B51F008C
:1057B000431CDB7F04000D001600002B01D11B48A9
:1057C000FEBD03689B6A984702000B003000390059
:1057D00020F09EF91A43F2D1236820009B6A984773
:1057E00002000B000898099920F092F91A43E6D1BB
:1057F000089A099B92197B4100920193236820002B
:105800009B6B9847019B8B42D9D802D1009B834266
:10581000D5D82269636992197B411100201D0A00C5
:10582000089B290000F048F9CAE7C0465FF0FFFF77
:10583000D3B51F00431CDB7F04001600002B01D1F1
:105840001D48D6BD0368196B3B00884702000B005A
:105850003000390020F05CF91A43F1D1069A079B19
:1058600092197B41009201930098019901225242C2
:10587000D31712184B4121682000096B884702009A
:105880000B000098019920F043F91A43D8D12368FE
:1058900020009B6B9847019B8B42D1D802D1009B83
:1058A0008342CDD822696369B6185F41201D069AEC
:1058B000310000F087F9C4E75FF0FFFFF7B51F0084
:1058C000431CDB7F04000D001600002B01D11B4898
:1058D000FEBD03685B6A984702000B003000390088
:1058E00020F016F91A43F2D1236820005B6A98472A
:1058F00002000B000898099920F00AF91A43E6D132
:10590000089A099B92197B41009201932368200019
:105910009B6B9847019B8B42D9D802D1009B834255
:10592000D5D82269636992197B411100201D0A00B4
:10593000089B290000F0A4F8CAE7C0465FF0FFFF0B
:105940000E4B73B50833040008C015000E0000F0BC
:105950001BF80023621C26616361A561E361D377B4
:105960006362721C01D09D4206D10093002304495A
:105970001A00044814F048F8200076BDC8930210BD
:105980004E9302100101FF807047704710B517F069
:1059900097FB10BD10B517F083FB10BD10B517F0C5
:1059A00092FB10BD10B517F091FB10BD10B517F0AC
:1059B00090FB10BDF8B50600056804000834002D02
:1059C00015D10F4F3868002803D00121494215F046
:1059D000A3FE3568002D05D1251E02D0200014F04D
:1059E00011FB34603868002801D015F0ABFEAC42E2
:1059F00004D06C220349044813F0BEFD2000F8BD1A
:105A000008A40008109402102A94021070B5050032
:105A10000C4E3000FFF7CEFF14F0FCFA280017F010
:105A200029FB0400280017F04BFB14F03DFA6860D6
:105A30003000FFF7BFFF14F005FB601E8441604299
:105A400070BDC046088F000870B506000B4D2800D9
:105A5000FFF7B0FF14F0DEFA300017F00DFB441E24
:105A6000A04144427068002801D014F033FA2800A5
:105A7000FFF7A0FF14F0E6FA200070BD088F0008C1
:105A8000F7B50F00160005000A4C01932000FFF740
:105A900091FF14F0BFFA3A003100019B280013F087
:105AA00079FA05002000FFF785FF14F0CBFA2800F3
:105AB000FEBDC046088F0008F0B587B00191009286
:105AC0000293050017F0FCFA0700280017F0FEFA11
:105AD0000600280017F0F7FA3900039000981FF02D
