:020000041000EA
:10000000000001084BB901100D0000008101001033
:1000100000000000000000000000000000000000E0
:10002000000000000000000000000000F198011036
:100030000000000000000000759901108199011076
:10004000A5B90110A5B90110A5B90110A5B90110F4
:10005000A5B90110A5B90110A5B90110A5B90110E4
:10006000A5B90110A5B90110A5B90110A5B90110D4
:10007000A5B90110A5B90110A5B90110A5B90110C4
:10008000A5B90110A5B90110A5B90110A5B90110B4
:10009000A5B90110A5B90110A5B90110A5B90110A4
:1000A000A5B90110A5B90110A5B90110A5B9011094
:1000B000A5B90110A5B90110A5B90110A5B9011084
:1000C00010B5064C2378002B07D1054B002B02D02E
:1000D000044800E000BF0123237010BD881500080C
:1000E0000000000024C60210044B10B5002B03D002
:1000F0000349044800E000BF10BDC04600000000F6
:100100008C15000824C60210164B002B00D1144B8E
:100110009D46402292029A1A924600218B460F4633
:100120001348144A121A1FF099FD0F4B002B00D0F0
:1001300098470E4B002B00D0984700200021040068
:100140000D000D48002802D00C4818F085FF1FF064
:100150008DF92000290019F0B3FA19F0B7F8C0465C
:1001600000000800000001080000000021960110B6
:100170008815000834B300085990011000000000F1
:100180002C4B05E02C4B03E02C4B01E02C4BFFE704
:10019000EFF308802B4972460A4201D0EFF3098041
:1001A0009C46294B196802680A60043142680A605B
:1001B000043182680A600431C2680A600431F0C107
:1001C00047460F6004314F460F60043157460F60B9
:1001D00004315F460F60043102690A6008314269E8
:1001E0000A60043182690A600431C2690A6004311C
:1001F00003462033154E324200D0043375460D4E6F
:10020000354200D148330C46103C2360EFF309829D
:100210000A600431EFF308820A60043172460A6012
:100220000431EFF314820A606046074900F05EF87B
:10023000FEE7000010000000200000003000000079
:100240004000000004000000F06002100002000006
:1002500030B5002585B01A4CAB002900E25819488A
:10026000013518F03DFD0D2DF5D1A36C1648029314
:10027000636C0193236C0093E36BA26B616B18F0CA
:100280002FFD124B1248196818F02AFDE36C1B076A
:1002900012D5104818F024FD236D0F48DB0700D459
:1002A0000E4818F01DFDE36C0D485B0700D40D48A7
:1002B00018F016FD05B030BD0B4818F011FDEFE742
:1002C0007CA10008846102109261021000ED00E040
:1002D000E1610210EF610210FE6102100B62021078
:1002E0002E6202103A6202101E62021013B5040060
:1002F000154818F0F5FC302C17D0402C1AD0202CC3
:100300001DD1124818F0ECFC114C124818F0E8FC12
:10031000FFF79EFF104818F0E3FC00230F4A0093FC
:10032000D26B0F49200018F0EDFD0E4818F0D8FCF4
:100330000D4CEAE70D4818F0D3FC0D4CE5E70D48ED
:1003400018F0CEFC0C4CE0E7F46002101D610210C6
:100350003E01FF804A610210556102107CA1000835
:10036000746102102C6102103F01FF8035610210A0
:100370004001FF80406102103D01FF80F0B587B071
:1003800006000291039200F0EFFA002826D00368DD
:1003900000930121300018F006FD071EF9D000255A
:1003A00073880020AB4217D92B012C04019373688A
:1003B0002A013C43059005A99818220018F0E0FC9A
:1003C00000280ED020007368019A9B18029ADA6008
:1003D000009A5A60039A9A6007B0F0BD01235B420D
:1003E000D6E70135DCE7000037B5428805000B0C85
:1003F0009A4205D8009215496822154818F068FD00
:100400001C0143681B598B4205D00B006C220F491D
:10041000104818F05DFD00F0A7FA00280DD0026822
:100420006B681B19596891420AD09968914207D0AC
:1004300076220649084818F04BFD01225242EFE7A8
:1004400000225A609A601A6037BDC04646620210A8
:100450007E620210CC6202100863021037B50500FC
:10046000002904D184221749174818F031FD428829
:100470000B0C9A4205D8009212498A22134818F0B0
:1004800027FD1C0143681B598B4205D00B008E22AF
:100490000C490F4818F01CFD00F066FA00280CD03B
:1004A00002686B681C196368934209D0A368934281
:1004B00006D0982203490748D7E701225242F0E7C5
:1004C000E0683EBD62620210446302107E62021068
:1004D000CC6202108163021070B5041E04D1662242
:1004E00009490A4818F0F4FC094D280002F05CF8AC
:1004F000084803F035FE084803F030FF074804F0D1
:10050000D1FB2560042070BDCF630210DF630210B1
:10051000C4000008E80000080C01000830010008D1
:10052000F0B5002106000D4B5D681B680C338D4251
:1005300001D1002010E000225F68BA4202D10131EF
:100540002433F4E71868540100190468A64201D066
:100550000132F2E70028F2D0F0BDC0468401000865
:1005600070B50D000121040083684942D8691AF072
:1005700069FAE369002B0BD1A561A368E5616168A5
:1005800058681BF0DBF8A368D8691AF071FA70BDDF
:100590001D61F2E7F0B585B005000E00FFF7C0FF62
:1005A000041E05D12B0074223A493B4818F090FCF8
:1005B0000369002B0ED13268C1688A4210D90293B8
:1005C000E3687A2201932368324900933348336801
:1005D00018F07EFC012B03D13268C1688A42EED14B
:1005E00000F0C2F9071E07D1237D002B1ED123681E
:1005F00038222B492B48D9E7416900290BD000222A
:100600008069236882420BD13A68254900922648C6
:10061000462218F05DFC03683D2221492348C5E7C6
:1006200095004D599D4201D00132EBE73A000C2173
:10063000300000F0B1F9002804D1812215491C488E
:1006400018F046FC1B4B0021986919F063FD051E4C
:100650000BD1194BB0687360002F03D01AF072FBF6
:1006600005B0F0BD00F04AFDFAE7A36801001A6882
:100670001248FFF783FE0023114A706029002F60A3
:100680006C60EE60AB602B61AA82AB752000FFF757
:1006900067FFE5E71B640210346502105265021023
:1006A000FB630210AF6502101E660210E7650210C0
:1006B0005E66021084010008010000808C010008C1
:1006C00001020000F0B510248DB004AD0F0022002F
:1006D0000021060028001FF0C1FA002108AA01200D
:1006E000089109910A950B94019702911AF0EEFA7C
:1006F0000390002804D1B72209490A4818F0E8FB02
:1007000001A93000FFF746FF0121039849421AF082
:10071000F3FA03981AF04AFB02980DB0F0BDC046F8
:100720002D640210FC64021070B50D000100184821
:10073000FFF794FE182104000268280000F02CF94D
:10074000002804D1CE221349134818F0C1FBA37D21
:10075000012B0CD180231B062B6123686869002BB9
:1007600002D100F0CBFC70BD1AF0ECFAFBE72000E0
:1007700004221530032100F0CFF802232375E56031
:100780000FCD00F0AFF821006068FFF7E9FEEAE75F
:100790008C010008396402106B640210F0B510245B
:1007A00091B00F00160000212200050002A801935D
:1007B0001FF054FA002102AB0893019B06AA0C9388
:1007C000169B01200691079109940A970B960D93A9
:1007D0000E911AF07BFA0F90002805D183220A4966
:1007E00052000A4818F074FB0AA92800FFF79CFF82
:1007F00001210F9849421AF07FFA0F981AF0D6FAA1
:100800000E9811B0F0BDC04648640210FC6402109E
:1008100070B50D0001000F48FFF720FE082104000D
:100820000268280000F0B8F8002805D18F220A4994
:1008300052000A4818F04CFB20000321153000F04C
:1008400083F80323E560237521006068FFF788FEC5
:1008500070BDC0468C01000851640210CE640210C5
:1008600070B504008AB0002825D0102502AE2A00F9
:10087000002130001FF0F2F9002106AA01200691A4
:1008800007910896099500941AF020FA0190002823
:1008900005D1A12209495200094818F019FB6946FF
:1008A0002000FFF7B5FF0121019849421AF024FA10
:1008B00001981AF07BFA0AB070BDC046616402105C
:1008C0009864021010B5FFF72BFE041E01D1002022
:1008D00010BD00F049F8002802D1237D002BF6D08E
:1008E000E068F5E71FB5002801D1002906D1002AEC
:1008F00001D1002B02D1CC18042C08D9029301920B
:100900000091030026220249024818F0E1FA1FBDB7
:100910008E6602101367021030B50F2485B06C4448
:100920000D002170210018F017FA002806D1237855
:100930002F2200950249034818F0CAFA05B030BDCD
:100940009D660210C766021007B50378DBB29942B4
:1009500005D0009138220249024818F0B9FA07BDC3
:10096000B2660210C766021070B51AF0D3FE0022FC
:10097000084B5C681B68944202D10021080070BDDE
:10098000190024331D00203D2D688542F6D0013228
:10099000F1E7C0468401000810B5031E1DD00123F5
:1009A00000291AD041184C1E0023A04215D89A42A3
:1009B00015D1144A904210D9134B984203D8134AC8
:1009C0000123914209D9124B124AC01800239042C8
:1009D00003D8114A8A425B41DBB2180010BDF823EC
:1009E0000E4A1B06C318934203D80D4A01239142B5
:1009F000F3D9F0230B4A1B06C01800239042ECD811
:100A0000094AE7E7FFFF0008FF74040800750408BF
:100A10000000F8EFFF7F070000800F10FFFF0000CD
:100A200000000108FFFF07000000081010B51BF0D0
:100A3000DDFA0E4A18210A2019F056FB0C4CA06171
:100A4000002803D10B490C4818F042FA0B4A282120
:100A50000A2019F049FBE061002802D10549084845
:100A6000F2E72000FFF738FD606010BD6C01000860
:100A700084010008676702107467021054010008BF
:100A8000A067021010B5024B186800F0CDFBFAE722
:100A9000A4010008F7B50C000100184817000193E5
:100AA000FFF7DCFC0600006805211530FFF74CFF5E
:100AB000032C05D934221249FF32124818F008FAE3
:100AC000731DDB7F0025A34215D9E4003619B568F4
:100AD000019B9D4200D91D00002D0CD0002F04D099
:100AE0002A00716838001FF027F873685B1973607B
:100AF000B3685B1BB3602800FEBDC04694010008CC
:100B000041680210C26B021037B504000D00FFF7F8
:100B10002BFF836808201843631C0AD023008343FB
:100B200006D000902300DB220649074818F0D0F9D0
:100B30002000EA1702211AF05BFE831C00D100207E
:100B40003EBDC046306802102E6B0210F0B593B067
:100B500003910400FFF708FF30210600020003980C
:100B6000FFF71AFF002804D1F2229349934818F0A6
:100B7000AFF93022002103981FF070F8B268002C02
:100B800004D0651E254001D1224206D100922300E7
:100B9000FE2289498A4818F09BF91AF019FE204272
:100BA0000AD02B00326993420BD184222300824960
:100BB0008448520018F08CF904227F49FF328248A1
:100BC000D5E7F1685D014D1969688C4201D00133A8
:100BD000E9E7002DE9D00121AB684942D86919F055
:100BE00031FFAC69002C03D1B92278497848BEE7BF
:100BF00000222369AB612261934203D1EB616868F3
:100C00001AF0D0FDAB68D86919F032FF2000237DBF
:100C10001530022B09D0032B21D00221012B1FD02C
:100C20009222654952006B48C4E705220421FFF770
:100C300073FE2822002108A81FF010F80022237D4F
:100C40000692022B00D080E022681821E068FFF7AE
:100C5000A3FE002807D15B225F49604887E719009F
:100C6000FFF772FEE5E7E3685F681D689A68DB6876
:100C70003900280004930592FFF734FEFBB2069377
:100C8000002F2AD1049B002B5FD0049B2268D9003F
:100C90000598FFF781FE00284DD0FF0012ABDF1949
:100CA0003D000027059E243D73689C46002B46D0DE
:100CB0002B00320003CA03C3039ABB00D318624659
:100CC00061461A6228682268FFF766FE002836D15E
:100CD0003B009422404942486CE7F9002268280012
:100CE000FFF75AFE0026002807D16B223A493D48FB
:100CF0003DE701360835B742C4D06B689C46002BEF
:100D0000F7D0280008AAF300D31807931A1D0AC8C1
:100D10000AC263460398B20082181361079B2268D7
:100D200061465868FFF738FE0028E2D133007C2284
:100D300029492D483EE7832227492C4817E7049B81
:100D4000013708360835BB42AED10125284B6D422C
:100D50002900D86919F0DEF9011E03D19D221E4930
:100D6000244804E70D2306AA9B18069A0894DA770C
:100D7000020008ABC1CBC1C2C1CBC1C2C1CBC1C291
:100D80001B681D4813600022FFF7F8FA237D039AC1
:100D900013601300A2685860DA602368002B04D146
:100DA000039B9D60002013B0F0BD1B680493049A60
:100DB000039B9A60F6E7C046396802106B68021020
:100DC00087680210EF680210D368021012680210E0
:100DD0003E6902105E690210FE67021090690210FF
:100DE000186A0210B5690210D4690210F86902107D
:100DF000840100083D6A021094010008F8B514004F
:100E00000F001D000600FFF7AFFD290002002000C3
:100E1000FFF7C2FD002805D152220649FF320648DD
:100E200018F056F82B00390030002200FFF732FE90
:100E3000F8BDC0464E680210666A0210F7B507009A
:100E40000C0016001D1E3AD0FFF78EFD290002008F
:100E50003000FFF7A1FD002805D1B3221849194839
:100E6000520018F035F839001748FFF7F7FA070075
:100E7000006805211530FFF767FD7B1DD97F0C1930
:100E8000032C04D970220E49FF321048E9E7E40030
:100E90003C19A368AB4207D2BA22009352002B0040
:100EA00007490B4818F014F82A00310060681EF05A
:100EB00043FE63685B196360A3685D1BA560F7BDB3
:100EC00057680210666A021094010008686B0210ED
:100ED000836B0210F7B507000D0001004348FFF7D0
:100EE000BDFA0600046839004048FFF77DFA282261
:100EF000002130001EF0B2FE3D4F3100F86919F0BC
:100F000029F92000236815300193237D022B36D068
:100F1000032B4DD0012B60D1364B002D08D09D42C4
:100F200006D0CB222B0034493448520017F0D0FFB2
:100F3000E668B26800929D4217D10221FFF704FDD6
:100F400071682F48FFF750FA1822002120001EF088
:100F500085FE2100B86919F0FDF87560019B0098C5
:100F6000002B3FD100F0CAF8F7BD03220221FFF7A2
:100F7000D3FC002CF2D00023E3602375EEE7214B75
:100F8000EB187E2B05D8B8222B00FF321A491E48D9
:100F9000CCE703220521FFF7BFFC80231B069D42FF
:100FA00001D10123A375E3681D615B690093E0E74C
:100FB000E56819006A6800920122FFF7ADFC296814
:100FC0000F48FFF711FA1822002120001EF046FEFC
:100FD0002100B86919F0BEF8C0E7F02206495200B6
:100FE0000A48A3E719F0AEFEBEE7C0469401000828
:100FF000840100080100008061680210856A021007
:101000008C010008FFFFFF7FC06A0210F86A02101F
:1010100010B50C0001000348FFF720FA03689C603C
:1010200010BDC04694010008054B10B51B685869F7
:1010300019F088FE034B1B68186919F083FE10BD78
:10104000A8010008A401000810B51BF06FF810BD3E
:1010500010B51BF06BF810BDF0B51E4B95B01E4CD3
:101060001E4D3822002106A80293039404951EF019
:10107000F5FD1B4B05A93C22200005931EF05CFDED
:1010800005A93C2228001EF057FD02A90C22154894
:101090001EF052FD144819F0BFFC144A060000214E
:1010A000012019F013FE124A07000021012019F057
:1010B0000DFE01900F483B0032002900006800F04F
:1010C00063F80D4B019A2100186800F06BF815B019
:1010D000F0BDC046779A333D0C7504084875040886
:1010E0000C4A286300750408FC6B0210EC6B0210BC
:1010F0000C6C0210A8010008A40100081FB5040030
:101100000C22002101A81EF0A9FD002103482200A5
:101110000B000068029400F051F81FBDA801000800
:1011200030B585B0019001380C0002911500039292
:10113000032806D822F0EEFE02070B0F1000FFF77F
:1011400029FA05B030BD1000FFF7EEFAF9E71000FC
:10115000FFF75EFBF5E7002208212000FFF71CFCEB
:10116000002804D16C220649064817F0B1FE280079
:10117000FFF7A8FB20606068FFF7C0FFE1E7C0460B
:10118000DC6B02109069021010B5054C026104601E
:101190000C1D44600C3104348460C160436110BD97
:1011A000FFD948A2044B026103600B1D43600C3160
:1011B00004338360C160704742658BA6F0B585B08B
:1011C0000191012101AC050049420069FA276260E2
:1011D000A360032619F036FC7F00AA6869681368CB
:1011E000086801338C463340834218D00C231068C2
:1011F0004343E868C31883CC83C313680133334087
:10120000136063461B68126801333340934201D177
:10121000FFF71AFF286919F02BFC05B0F0BD390063
:10122000686919F069FDD8E7FA21F0B549000500B1
:1012300085B0006919F060FDAB686A689C4610686B
:101240001B68984201D105B0F0BD0C211368E86815
:101250004B4301ACC3182000C2CBC2C003211368AA
:1012600001330B40136063461B68126802330B4066
:10127000934201D1FFF7ECFE07CCFFF751FFDBE70C
:10128000F0B5214B85B01B6803900E000192002041
:10129000012B08D01D4D1E4A6B7829781B020B4389
:1012A000934202D0012005B0F0BD019A032AF9D97A
:1012B00033800423E978AA780902114302912C1D96
:1012C0007380F718029BEB189C4216D22388039A6E
:1012D0001B0B93420ED16288738801999B188B4235
:1012E000E0D8380021001EF027FC63887288FF18C0
:1012F0009B1873806388002B04D10122024B0020CD
:101300001A60D0E7E418DDE7141A0008706C0210C8
:1013100016200000F0B51E2589B0059300230F9F0D
:101320006D4404920E9E2B8006243F2F1BD92A0069
:101330001121012001F016FC0534002813D1109B67
:1013400028880433029301970096059B049A094963
:1013500001F09CFB002809D0288801F037FC0A3CEA
:10136000288801F033FC200009B0F0BD109B040078
:101370001E60F5E709000710F0B50F26A7B01F00A3
:101380002D9B182201932E9B002100932F9B08A8D0
:1013900002932C9D1EF062FC602200210EA81EF01C
:1013A0005DFC04ABF618330008AA60210EA800F01B
:1013B0006FF8041E02D0072027B0F0BD0A9900295B
:1013C000F9D00C9B0393002BF5D033780B9A3B603C
:1013D000019B9A42EFD828001EF0AEFB0D9A029BAB
:1013E0009A42E8D80C9900980B9E1EF0A5FB309A03
:1013F0000D9B60C20099319A20000AC2DCE7000010
:1014000070B50C00061D00210500042230001EF0FE
:1014100025FC0A4B3000E418614261410723494230
:101420001940074BC91801F0CDFA002801D12860F6
:1014300070BD8630431E98410330F9E74019010022
:101440000200000113B50368040000910192002B13
:1014500005D1002903D0043001F0D4FA206013BD77
:1014600037B51C00036800910192002B0DD1231D9C
:1014700004300D0001F0E0FA002803D103002560DC
:1014800018003EBD05238A30FAD00423F8E7000097
:10149000F0B589B002930023160004AA971C0190AE
:1014A0003A001121012007933B8001F05BFB0123EF
:1014B000002822D1388806AA05A901F00FFC0028CF
:1014C00001D0388816E0059B484A19000392114064
:1014D000474A9142F5D1474A069C1340464A9342F7
:1014E0000ED1E408103420001DF0ECFF0500388810
:1014F000002D12D101F06AFB0123180009B0F0BDE4
:101500003E4A934204D10323E4085C434A34EAE7A9
:101510000734E40864000134E5E707AB2200290042
:1015200001F012FC002803D028001DF0D5FFC8E709
:101530000598039B2E4A034093424BD180B2173843
:10154000072847D822F0E6FC043E4046464642447F
:101550000123029A1370079B581E400824F06EFD69
:101560001DF090FB22F01EFF079B0400581E400850
:1015700024F064FD1DF086FB22F014FF002C2FD018
:1015800000236A1CE9184978019FF9540133A342EA
:10159000F8D13B19B760F4600193002824D00023F0
:1015A0001419E25C0199CA5401339842F9D13161AE
:1015B000706128001DF090FF04AB588801F006FB15
:1015C00000239AE70223C4E70323C2E70423C0E70A
:1015D0000523BEE728001DF07FFF04AB588889E78C
:1015E000B460F4602A00D8E73061E1E70000FFEF63
:1015F00000000360FFFFFFEF0000016000000260D9
:10160000024B1B68036000207047C046181C00088E
:1016100003207047F0B589B002AB01249D1D002363
:10162000070001910C702A00112120002B800693E5
:10163000079301F097FA00284BD1288805AA04A93E
:1016400001F04CFB002840D1049B264A26491A4051
:101650008A423AD1254A059C1340254A934227D114
:10166000E408103420001DF02DFF061E2DD0288820
:1016700006AB2200310001F067FB00282FD11D4985
:1016800007A801F09FF9002829D1069A310007A880
:1016900001F0B8F901993B000131202207A801F0BF
:1016A000CBF90400601E844130001DF015FF0DE0F1
:1016B000114A934204D10323E4085C434A34D1E73E
:1016C0000734E40864000134CCE70124288801F0E1
:1016D0007DFA20003B6801333B6009B0F0BD012476
:1016E000E2E7C0460000FFEF00000360FFFFFFEFEE
:1016F0000000016009000001000002600320704743
:101700000B0010B50268034918001EF015FA0020FE
:1017100010BDC0464D6C021010B502F07BFDC0221A
:1017200003009201904209D00AD8802252019042CF
:1017300004D080229201934200D00023180010BDF3
:10174000A022D2019042F9D0C022D2019042F5D01D
:101750008022D201EFE700000C23036000487047AD
:10176000406C02100D23036000487047326C021079
:101770004842484180007047F0B50E258BB0039376
:1017800002ABED180290002301200F00160011217A
:101790002A0028800893099301F0B0F9041E3FD174
:1017A000354A364908A801F039FA288808A901F015
:1017B00037FA041E34D1324A330C1B04934258D1F9
:1017C000029B2888002B2ED0202F24D13B00029A88
:1017D000310001F053FA041E1FD1288806AA07A978
:1017E00001F07CFA041E18D1C0228021079BD2058B
:1017F0001A40C9058A421ED1069BDE1DF6082888BC
:10180000119B109A039901F09FFA041E05D1119BB8
:101810001B68B34201D987246442288801F0D6F9B5
:1018200020000BB0F0BD8022009423005200310054
:1018300001F090FACFE7134A13491A408A4203D1C4
:10184000069BDE081036DAE710498A4205D10326E6
:10185000069BDB085E434A36D1E70D4A060013407B
:101860000C4A9342CBD1069BDE1DF608760001366A
:10187000C5E787246442D3E709000710010C000084
:1018800000000370FFFFFFEF000001600000026036
:101890000000FFEF00000360F7B51600020005002E
:1018A0001F00089B98320C001160566006CB00F0B8
:1018B0007BFF2800E10FA030009533003A0000F0D4
:1018C00025FB041E04D0033C60424441E01CFEBDE5
:1018D0000221280000F0B6FF2800052100F0B2FF29
:1018E0002000F4E77047D0B516001F000400CB17A6
:1018F0000A0000F06EFF32003B00200000F069FF9C
:10190000D0BD73B5050016685468CB170A0000F007
:1019100060FF320028002300022100F06EFF73BD3B
:1019200073B5050016685468CB170A0000F051FF24
:10193000320028002300032100F05FFF73BD7FB554
:10194000060000220D00052100F09DFF6A460221DD
:10195000300000F098FF30000099A030019A00F0AC
:10196000E1FB002805D0033843425841033004B05E
:1019700070BD02AC2100300000F0D2FF030001284E
:10198000F5D00220002BF2D106CC06C51800EEE7F8
:10199000242808D003D8202805D0042070473028F8
:1019A00001D04028F9D10020F8E710B51EF0C4F8A6
:1019B00010BD0000F0B51D001C4B87B002910392D2
:1019C00019881B4A019091422CD15A882968D31852
:1019D0000093184C002907D005AC20000422FFF723
:1019E000E4FF64882B681C193F27009B9C4201D3AD
:1019F000002013E005AE042221003000FFF7D5FFE0
:101A0000338801989A113A407188824208D10120A6
:101A10001F40029B1F70039B2C60198007B0F0BD14
:101A20006418E2E701204042F8E7C046181A0008AF
:101A3000162000001C1A00080023F7B506000F004E
:101A4000150013606B46DC1D3A002B0021000020BE
:101A5000FFF7B0FF012802D12378B342F2D1FEBDD7
:101A600037B51400022907D004290ED0012912D15C
:101A70000378236000203EBD6B469D1D0A000100D7
:101A80002800FFF792FF2B88F3E70A0001002000EF
:101A9000FFF78BFFEEE701204042ECE737B513007C
:101AA0000400092927D8080022F034FA1012142360
:101AB00025252525050B02212000FFF722FF002008
:101AC0003EBD06212000FFF72BFFF8E70421F9E7D0
:101AD0000521F1E701AA03CBFFF7C2FF05000520AE
:101AE000002DEDD1019A2B0003212000FFF7FBFE12
:101AF000E5E70121E6E70520E2E70000F0B54368ED
:101B0000CFB0060007920024242B03D103681C6A7F
:101B10002023436007220723009122405B422100DB
:101B20001CA8FFF7B9FE002806D00224012800D027
:101B3000052420004FB0F0BD3200BD491CA8FFF7BE
:101B4000E0FE8023DB051C4000D02BE108222100B1
:101B500011A80FAE1EF082F810AA310020001094D8
:101B6000FFF76AFF012800D025E1109B0433119391
:101B70003388043B11AAAF491CA81293FFF7C1FE9A
:101B800011A8FFF7E9FD13AE1390002806D0119BB2
:101B90003200A9491CA87360FFF7C2FE11A8FFF725
:101BA000E1FD1390002806D0119B3200A3491CA828
:101BB0007360FFF7B5FE2123310010A81093FFF7E3
:101BC00029FD0324071EB4D1109B11AA9C491CA80F
:101BD00012931196FFF795FE12233900082211A8DF
:101BE0000F931EF03BF810970EAF10AA390001209A
:101BF000FFF722FF012800D0E9E0109B0433119386
:101C00003B88043B11AA8F491CA81293FFF788FE5A
:101C1000202313AE10AF310038001093FFF770FD92
:101C20000324002800D084E7109B11AA86491CA831
:101C300012931196FFF765FE3000FFF7E1FC041EDA
:101C400000D076E7139B139A80491CA8DB17FFF797
:101C50004AFE3200390002201394FFF7EDFE0128FE
:101C600000D0BEE03988139B0439181D11AAFFF774
:101C7000F7FE002800D05BE7119B9AB2C023DB017E
:101C80009A4200D954E7002371491CA8FFF72BFEA4
:101C9000012300250393002312220C936B4606A90F
:101CA00052180F211B7B06A8049309180CAB04984B
:101CB000FFF780FE431C00D184E0012865D1013587
:101CC000012D0CD11CA8FFF70DFE0123614A5B42D8
:101CD000059000F07EFD0421059800F0B3FD0C9BFB
:101CE0000DAE1900042230000E93FFF75EFE3F2276
:101CF00073880BAC238033880AAF13401CA83B7059
:101D0000FFF7F0FD05210690002600F09BFD3978D5
:101D1000CB087AD0002E29D10E9B0FAE19000422D9
:101D200030001093FFF741FE1623728806A95B1856
:101D30001A803F2233881CA813402E3A5218137081
:101D4000FFF7D0FD112306AA9B181978CB084CD1B8
:101D5000162206A95218112106A8091810AB0498DA
:101D6000FFF728FE01300128ECD8012622000EAB37
:101D700039000498FFF71EFE0200431C05D000281E
:101D8000C5D10521069800F07EFD039B0133039326
:101D9000072B00D07FE7002D42D0002204210598B8
:101DA00000F071FD07991CA8FFF7C9FD0024A042AF
:101DB00000D0BAE6BDE613AC21002020FFF728FCD6
:101DC000002801D00324B4E611942023D2E6310088
:101DD0000FA8FFF793FC002800D0AAE611960F9BEE
:101DE00010E7FFF799FC020048E7109B06AA0433AE
:101DF000139316239B181B8813AA043B1CA8149347
:101E0000FFF74CFE0028A3D0AFE70E9B11AA0433C6
:101E1000119323881CA8043B1293FFF73FFEA5E70C
:101E2000012200230C491CA8FFF75DFDBAE7C0465C
:101E300000DBFEFF04DBFEFFFEDAFEFF08DBFEFF39
:101E4000FFDAFEFF03DBFEFF05DBFEFF07DBFEFF25
:101E500006DBFEFF02DBFEFF01DBFEFF802210B58A
:101E6000920002490120FFF70BFA10BD181A000872
:101E700070B5136886B045680668029353682800F9
:101E80001400009601950393FFF782FD002818D1F6
:101E9000012229003000FFF76BFC002811D102223B
:101EA00003990298FFF764FC00280AD104AA02A94A
:101EB0006846FFF723FE002803D1049B2360059B9F
:101EC000636006B070BD0000002110B5036886B0E5
:101ED0001B6814680091029152680B4901930391A9
:101EE0000420032A0DD91800FFF752FD002808D15D
:101EF00004AA02A96846FFF701FE002801D1059B4C
:101F0000236006B010BDC046FFFFFF7FF0B5824CD6
:101F10000500A54410001F000E00079200F066F9AE
:101F20007E4B0124984266D0079BEF61AB612B1971
:101F3000DE778A9B6B62002E62D0202123A80FAA35
:101F40000D900E9100F0D0F9041E54D100231222FE
:101F50008A9800F072FC04218A9800F073FC102229
:101F600029003EA81C921B9500F01EFC05213EA8EE
:101F700000F068FC012200233EA800F02AFC079B29
:101F8000079ADB173EA800F024FC2BAE05213EA8E3
:101F9000220000F078FC31003EA800F0C1FC0028CF
:101FA00000D0B6E02B9B2C9A2B616A61002B22D0CB
:101FB0002B003200103303CB03C2022173682B9A2B
:101FC0008A9800F01AFC0F9E109D05218A9800F057
:101FD00039FC042200238A9800F0FBFB3200022126
:101FE0008A982B003E963F9500F007FC00220521C1
:101FF0008A9800F048FC200085239B009D44F0BD9A
:1020000020212BAB09934B230C910E9117A923A8E8
:1020100005911BAA0FA90A930B920D90049111969A
:1020200012960DAA02A911CA11C16A460BAB03CBC5
:1020300003C208AB310032003800FFF79DF9041EDF
:10204000D9D10A9A09993EA800F0AEFB05213EA815
:1020500000F0F8FB012200233EA800F0BAFB0222A8
:1020600000233EA800F0B5FB089E01225242D31780
:10207000F7173EA800F0ADFB32003B003EA800F091
:10208000A8FB0F9E109F02225242D3173EA800F0D9
:10209000A0FB3B00320002213EA81396149700F0EB
:1020A000ACFB179E189F03225242D3173EA800F0A4
:1020B00090FB3B00320002213EA81596169700F0D7
:1020C0009CFB220005213EA800F0DDFB19A93EA8DB
:1020D00000F026FC0234002800D08CE7199B104940
:1020E00017931A9B3EA8189323AB199320231A9396
:1020F000FFF786F9041E00D07DE71799189A3EA8CD
:10210000FFF7A0F90FAB19991A9A3EA8FFF7A8F9A3
:102110001AE72200230047E7ECFDFFFFFFFFFF7FE8
:10212000C0E6FEFFF0B5ADB00992402204000EAD4E
:1021300008916A6014A9203A1CAE11920E96109173
:1021400008AB02A8944684CB84C0230068461033B1
:1021500084CB84C00AAB6246A06900F055F80590B4
:1021600000282ED1631CDB7F002B2FD040270A9B39
:102170000B9D0693731B049507933A00AF4200D959
:102180002A00079B04997F1B581806991DF0D4FC60
:10219000049B049A5B193F2A16D940230C960D9391
:1021A000656A08220CA912A81DF0C6FC129A022129
:1021B0002800139B00F021FB00220421606A00F03C
:1021C00062FB05982DB0F0BD0493D6E70CAB0293EB
:1021D0006B4606CD06C30A9A0B9BE169A069FFF71F
:1021E00099F80028DCD00590EBE700000730434267
:1021F0005841034B40421840024BC0187047C0463C
:10220000C1E6FE7FFFFFFF7FF0B5354C0700A54418
:102210000091019213A921221CA81D0000F0C4FA0C
:1022200004211CA800F00EFB2E4C8EAE20001EF0E8
:1022300051F822000024030003211CA800F0DDFA5D
:102240000FAB06CE06C31CA80F9A8F9B022100F08D
:10225000D4FA2200230002211CA800F0CEFA2200AA
:10226000230002211CA800F0C8FA2300220002214A
:102270001CA800F0C2FA220004211CA800F003FBF5
:1022800005A91CA800F04CFB03001420A3421ED19A
:102290003800FFF7ABFF010042A8FFF7B1F8A042FA
:1022A00015D106998A1E914215D207900890079978
:1022B000089A42A8FFF7C6F89099726842A8FFF7FB
:1022C000C1F82B000099019A42A8FFF7C9F88923A9
:1022D0009B009D44F0BD059B08920793E7E7C0462D
:1022E000DCFDFFFF3C6D021070B5202492B00AAEF9
:1022F0000290039115000E49220030001DF01CFCD5
:102300006A460994089608AB03CB03C204AC039A4F
:1023100002992000002300F07BF9230006CB06C5BC
:10232000236807205A4253415B42184012B070BDE7
:102330001C6D0210F0B597B0802170200906FEF7E1
:10234000E3FB1023070018424BD0302200210AA8DB
:102350001DF084FC0AA91020FEF7F8FB041E40D1F2
:102360000A9B022B05D0032B01D0012B62D1002444
:1023700033E00E9901201CF019FD051E1AD00E9BAA
:10238000020021000B98FEF739FD0E9B0393984243
:1023900007D028001DF0A0F843227D497D4816F0A3
:1023A00097FD129901201CF001FD061E04D12800A2
:1023B0001DF092F8052410E00E9B06950793129BE2
:1023C000089003930993FFF749FD041E20D02800CD
:1023D0001DF082F830001DF07FF821000B98FEF709
:1023E00079FD2024274257D0302200210AA81DF071
:1023F00035FC0AA92000FEF7A9FB011E4CD10A9B5F
:10240000022B1CD0032B01D0012B5ED100243FE016
:10241000614B0C9A06A81A60012308AA1900FFF75D
:1024200027FD041ED3D10100099B089A0B98FEF7E3
:1024300005FDCCE763225649584816F049FD04AC27
:102440000E9B22000B98FEF7D9FC0E9B039398423B
:1024500002D080225249A1E705AB0893129B069453
:10246000079003930993FFF7F9FC041E10D14A4B20
:102470000C9A06A81A60012308AA1900FFF724FD88
:10248000041E05D10100099B089A0B98FEF7D6FCA3
:1024900021000B98FEF71EFD4024274200D14BE798
:1024A000302200210AA81DF0D9FB0AA92000FEF75E
:1024B0004DFB011E00D03FE70A9B022B08D0032BE7
:1024C00001D0012B61D100255AE095223449B3E7B0
:1024D0000E9B06909125042B1CD108AA0B98FEF7A1
:1024E0008DFC0E9B0393984202D0B8222D4955E7EC
:1024F000129901201CF05AFC061E0AD00F990029DF
:102500001CD001201CF052FC041E05D130001CF030
:10251000E3FF8D256D4233E00F9B020001210B98F4
:10252000FEF76CFC0F9B0393984208D030001CF020
:10253000D3FF20001CF0D0FFCD22D7E70C00129B68
:1025400006AF0393009301973300089A0F99200078
:10255000FFF712F9051E05D10100069B32000B980A
:10256000FEF76CFC0B9804233A000121FEF766FC91
:1025700030001CF0B1FF002C02D020001CF0ACFF9A
:1025800029000B98FEF7A6FCD6E6E622054953E79C
:10259000476D02108C6D0210181C0008AC6D021003
:1025A0005C6D0210766D021010B5041E04D1762207
:1025B0000F49104816F08CFC0F4818F02DFAE06116
:1025C000002810D00D4B0E4A9C629C649C60E36016
:1025D00000210C4819F088F86060002807D1852296
:1025E00003490948E6E77B2201490848E2E710BDB4
:1025F000CF6D0210FC6D02109C6E0210AC01000841
:102600000C02000835230010576E0210176E0210DE
:10261000F7B5050000911C00934203D8099ED21A19
:10262000B24204D200232B606B602800FEBD009FE5
:102630003200F8180899A4191DF07EFA2F606C601A
:10264000F3E7000082B06B465A60054A0091828130
:1026500000228260827306CB06C002B07047C0467B
:102660000F0B000073B5009101921E00837B0400E4
:10267000002B05D1124B82899A4202D00123A37309
:1026800073BD826843689A42F8D8019D9B1AAB4299
:10269000F4D3B242F2D3921B06D00168002903D0D2
:1026A000891948191DF08CFA2068002804D0801977
:1026B0002A0000991DF084FAA3685D19A560DFE780
:1026C0000F0B00008B7B10B5002B03D000230360A1
:1026D000436010BD054A8C89944202D001228A735E
:1026E000F5E78B6843600B680360F2E70F0B0000AF
:1026F000F0B515248BB0119D04AB029003910092AC
:102700001098E418002D30D117282ED8002A2FD188
:102710002100C0B2039B01395B01C0180870621A26
:10272000129B0298FFF79EFF0BB0F0BD114EF75CB5
:10273000FE438E1901960E00019A013E96420ED17B
:10274000009A0133D21BC91B0092DBB206002E4354
:10275000ECD1009A002AE9DC1733D8B2DAE72A066E
:102760003070000A10432D0AE6E700232100EDE750
:102770002B00FBE7C86E02101FB58468009201931E
:1027800002940022FFF7B4FF1FBD00008388054AB2
:102790000321D21A012A02DD0021013383800800BF
:1027A0007047C046FEFF000013B50400009101927F
:1027B000002198221DF052FA019A00992000FFF79B
:1027C00041FF22002300143294331A600423A376BD
:1027D00013BD10B5017C040000290DD1002B02DAD5
:1027E000D243DB4301312000FFF7C6FF23009433BF
:1027F0001868FFF7CBFF207410BD30B585B06D466B
:1028000000926B60037C0400002B14D1092902D0D4
:10281000019AFFF7B1FF2A0002AB03CA03C32000ED
:10282000A36802996A68FFF71DFF230094331868B4
:10283000FFF7ACFF207405B030BD10B50621FFF7DF
:102840009BFF10BDF8B505009435040028680E0004
:10285000FFF79CFF2074002805D1A7683B00663372
:1028600002D907232374F8BD22002B688C32022181
:10287000934206D01A00010008322A6098819F60B6
:102880009E732174EFE7F0B5037C89B004000D005E
:102890001700002B08D1060002009436336814326A
:1028A000934203D10423237409B0F0BD9A798A427C
:1028B00001D01023F7E71A68049282680592022972
:1028C00024D11300049A981A049B009002930023C9
:1028D000290001931A002000FFF70AFF002F11D0F2
:1028E000210006A8FFF7EEFE059A049B06999B1AA5
:1028F000A2689B18079A93420FD8D21A002900D0D9
:10290000C91806C73368083B3360CDE70339988898
:1029100089B221F013FB80B2D6E700221100F0E764
:1029200073B5057C0E00002D0FD1030094331A6897
:10293000803B9A420BD1837B002B0AD16C4601006D
:102940002000FFF7BFFE0CCC0CC6280076BD0A2580
:10295000FBE70125F9E70000F0B5070012208FB072
:10296000039314AB1E7802AB0D00029200210E22DD
:10297000C0181DF073F910230593029B06AC0B934E
:10298000039B01210C9304230D4827802673049494
:102990000A950D93FDF796FE041E0DDD022301221C
:1029A000009304A90AABFDF7F9FE05002000FDF72E
:1029B00057FF28000FB0F0BD91256D42F9E7C046E2
:1029C000060F000030B50E22002487B002AB5C80F9
:1029D0001A70049308230500039109480121059307
:1029E000FDF770FE2860A04207DD0094230001225D
:1029F00004A9FDF7D3FE07B030BD91204042FAE7AD
:102A0000020F000030B500230F2589B002AC6380AF
:102A10002570049408240068039305940691079296
:102A2000984206DD0093022204A9FDF7B7FE09B023
:102A300030BD89204042FAE770B5002510268EB0DF
:102A400004000392100004AA558016700692082212
:102A5000079203AA089204220B9020680595099218
:102A60000A910C930D92A8420DDD023A00920AAB36
:102A700006A9FDF793FE06002068FDF7F1FE25602C
:102A800030000EB070BD89267642F9E7F0B510250A
:102A900091B004AC07000E00029200212A00200031
:102AA00003931DF0DBF824232370029B01210A937A
:102AB000039B11480B93169B67800C93179B6660D2
:102AC0000D93189B08940E93042309950F93FDF71B
:102AD000F9FD041E0CDD02220CAB009208A9FDF7E3
:102AE0005DFE05002000FDF7BBFE280011B0F0BD23
:102AF00091256D42F9E7C046030F000070B506004E
:102B00001A2015008EB003910E22002168441DF09A
:102B1000A5F82B8806AC10222380049504230225F7
:102B20000B92012103AA0E48666023730A940C924B
:102B30000D930595FDF7C6FD041E0DDD01232A004A
:102B400000930AA904ABFDF729FE05002000FDF75C
:102B500087FE28000EB070BD91256D42F9E7C04692
:102B6000060F000070B506001A2015008EB0039104
:102B70000E22002168441DF071F82B8806AC2380DA
:102B8000052323730B330B9303AB0C93049504239E
:102B9000022501210C4866600A940D930595FDF706
:102BA00091FD041E0DDD01232A0000930AA904AB48
:102BB000FDF7F4FD05002000FDF752FE28000EB0E1
:102BC00070BD91256D42F9E7060F000030B5050094
:102BD000122089B00E22002168441DF03FF8062320
:102BE00004AC237301210A330B482580029403931C
:102BF000FDF768FD041E0CDD00230122009302A9ED
:102C0000FDF7CCFD05002000FDF72AFE280009B0E5
:102C100030BD91256D42F9E7060F000006C07047F0
:102C200070B506000A208AB00C000E22002168440C
:102C30001DF014F80B2302AD2B7305330793089492
:102C4000631E9C410121E4000B4809942E800695E7
:102C5000FDF738FD041E0CDD00230222009306A9B7
:102C6000FDF79CFD05002000FDF7FAFD28000AB0E5
:102C700070BD91256D42F9E7060F0000F0B5070021
:102C80000A200E008DB0039302AB150000210E2226
:102C9000C0181CF0E3FF102304ACA66002260993C1
:102CA000039B01210C482780267308940A950B93F7
:102CB000FDF708FD041E0CDD00233200009308A977
:102CC000FDF76CFD05002000FDF7CAFD28000DB0E2
:102CD000F0BD91256D42F9E7060F0000F0B5070041
:102CE00012208DB00D00140000210E2268441CF04B
:102CF000B5FF082304AE3373DB18039308950A94D9
:102D00006B1E9D41631E9C41AD00A40001210D4836
:102D10000B94378002960995FDF7D4FC041E0DDD57
:102D200002230122009302A908ABFDF737FD05003D
:102D30002000FDF795FD28000DB0F0BD91256D42F6
:102D4000F9E7C046060F000013B50A240094FFF708
:102D500003FE16BDF0B5070012208FB00E000392DF
:102D600000210E2268441D001CF078FF292304ACCA
:102D70002373193B099303AB0A93042327800B9316
:102D8000A6600894149B002D04D1002B04D0872446
:102D9000644214E0002BFAD0149B01210A480C95E0
:102DA0000D93FDF78FFC051E0CDD0023032200931D
:102DB00008A9FDF7F3FC04002800FDF751FD2000F1
:102DC0000FB0F0BD9124E3E7060F0000802210B59C
:102DD0005200002101481CF041FF10BD803C00085A
:102DE000802210B55200002101481CF037FF10BDB1
:102DF000803C0008002370B5094CDD002A191688B4
:102E0000002E05D15668002E02D12853516070BDA6
:102E10000133202BF1D13B220249034816F058F828
:102E2000803C0008CC6E0210226F0210002370B5A7
:102E3000084ADC00A1180D88854203D10023A35263
:102E40004B6070BD0133202BF3D148220249034867
:102E500016F03EF8803C0008F66E02105A6F021021
:102E600070B580240023084D64005A1916888642E4
:102E700002D152688A4204D00833A342F5D100201F
:102E800070BD0120FCE7C046803C0008084B5A6832
:102E9000904204D01A690121904201D0704700216C
:102EA0000C224A43002199509B1859601972F5E78A
:102EB000803D0008F0B599B0302200210CA81CF02C
:102EC000CDFE80200CA98001FDF740FE041E16D126
:102ED0000C9B022B15D0032B00D1EBE0012B00D073
:102EE000F0E0FC21180049001BF060FF011E40D0FB
:102EF0000D98FEF78DF821000D98FDF7EBFF19B046
:102F0000F0BD09AD01000C2228001CF0A7FE109BAB
:102F10000C2B00D0CAE02A0021000D98FDF76EFFAF
:102F2000109B0593834204D0694A6A496A4815F0A8
:102F3000CFFF28782A38052800D9B9E020F0EAFF29
:102F400003122C4E5295002308A90F98089304F001
:102F5000F3FE041ECFD10100042308AA0D98FDF74B
:102F60006DFFC8E7149E012031001BF01FFF051EF6
:102F700001D18D243DE0010032000F9804F0E6FEFF
:102F8000041E05D1010033002A000D98FDF756FFFD
:102F900028001CF0A1FAAEE768880E99FFF760FFE1
:102FA000002825D0119B07AA01210D98FDF726FFC7
:102FB000042801D0494AB8E7129B08AA02210D98BB
:102FC000FDF71CFF042801D0454AAEE768880F9B37
:102FD000089A079905F02AF804008CE70F9804F086
:102FE00061FEF9E768880E99FFF73AFF002802D1E1
:102FF000882464427FE7119901201BF0D7FE061E4A
:10300000B7D0119B020001210D98FDF7F7FE119B2F
:103010000593834201D0334A87E7129901201BF0C0
:10302000C5FE071E03D130001CF056FAA1E7129B23
:10303000020002210D98FDF7E1FE129B834201D0B0
:10304000294A72E76988AA680293119B0392009348
:10305000019705936A6833000F9805F014F804008F
:1030600038001CF039FA300093E768880E99FFF7B2
:10307000F7FE0028BCD0119901201BF097FE061E18
:1030800000D176E7119B020001210D98FDF7B6FEF5
:10309000119B834201D0154A47E76A6869880F98F7
:1030A0000092320005F029F80400DCE79124A0E743
:1030B00086249EE70F9804F0F5FD0F98002800D0B5
:1030C00067E718E70A4A03490A4815F001FFC046B6
:1030D000FC050000767002108C6D02102D060000B9
:1030E00033060000520600005F0600008106000063
:1030F0009E060000AC6D0210F0B5A5B08021C3485B
:103100000906FDF701FD10220990104229D0002187
:10311000203218A81CF0A2FD18A91020FDF716FDFA
:1031200000281ED1189B022B06D0032B02D0012BA6
:1031300000D0AAE0002410E005F048F9041E0CD1EC
:10314000B34A136801331360012B06D10100182222
:10315000B0481CF083FDFFF739FE21001998FDF7F8
:10316000B9FE2024099B234223D03022002118A835
:103170001CF074FD200018A9FDF7E8FC041E18D10E
:10318000189B022B00D185E0032B00D15DE1012BC0
:1031900000D062E1B421180049001BF007FE011EB7
:1031A00000D15EE11998FDF733FF21001998FDF772
:1031B00091FE4024099B234222D03022002118A8EE
:1031C0001CF04CFD200018A9FDF7C0FC041E17D10F
:1031D000189B022B00D146E1032B00D161E2012BA9
:1031E00000D069E2E02118001BF0E0FD011E00D1D3
:1031F00065E21998FDF70CFF21001998FDF76AFEAA
:103200008024099B6400234222D03022002118A888
:103210001CF024FD18A92000FDF798FC061E17D10C
:10322000189B022B00D14CE2032B00D12CE3012B85
:1032300000D030E34C2118001BF0B8FD011E00D176
:103240002CE31998FDF7E4FE31001998FDF742FED2
:103250008024099B234200D18EE33022002118A84C
:103260001CF0FCFC18A92000FDF770FC051E00D026
:1032700082E3189B022B00D112E3032B03D0012B16
:1032800001D000F020FC002772E3922262496348DB
:1032900015F01EFE0FAD0100082228001CF0DEFC18
:1032A0001C9B082B00D0CAE02A0021001998FDF7CA
:1032B000A5FD1C9B0A93984204D0E1225849594825
:1032C00000F053FE28781538052800D9B9E020F021
:1032D00021FE03131F4D78B268881A99FFF7C0FDCD
:1032E000002802D1882464425FE769886A681B98D5
:1032F00003F0DCFE040058E768881A99FFF7B0FD78
:103300000028EFD069886A681B9803F0D4FEF1E7C3
:10331000C8231D9D5B0029009D4200D91900012092
:103320001BF044FD071E00D18DE0002D04D12C00C0
:1033300038001CF0D1F838E7C8232E005B009D420E
:1033400000D91E0033003A0001211998FDF756FDFF
:10335000864202D089225200B0E7320039001B9821
:1033600003F0AEFE041EE3D1AD1BDEE700241D9B7F
:103370000CAA012119980C94FDF740FD1D9B0A939E
:10338000984201D09522E6E70C9901200D941BF09C
:103390000DFD051E57D001000DAB0C9A1B9803F0D4
:1033A000BFFE041E0BD101000D9B2A001998FDF7EA
:1033B00045FD04230DAA01211998FDF73FFD2800C2
:1033C000B7E700230DAA0D9301211D9B1998FDF766
:1033D00015FD1D9B0A93984203D11E990D9B99429E
:1033E00001D0A322B7E701201BF0E0FC051E2AD084
:1033F0001E9B020002211998FDF700FD1E9B0A93F7
:10340000984211D05222FF3258E7C046F07F0000A8
:10341000983D0008803D0008946F0210AC6D0210CA
:10342000C86F02108C6D02100D9A29001B9803F0D2
:10343000A6FE0400C3E71B9803F016FD5AE791248B
:1034400051E786244FE78D244DE71B9803F00CFDD0
:103450001B98002800D06CE7A7E67422B749FF321A
:1034600015E7B74CA1E60FAD0100082228001CF0BB
:10347000F5FB1C9B082B00D00DE12A0021001998B8
:10348000FDF7BCFC1C9B0A93984203D0CD2252004E
:10349000AC4914E728780E38062800D9FDE020F062
:1034A00039FD040A37689398CE0069681B9802F0CA
:1034B000F3FF0400A0E6C8231D9D5B0029009D4288
:1034C00000D9190001201BF071FC071E00D1E6E0B5
:1034D000002D04D12C0038001BF0FEFF8CE6C82321
:1034E0002E005B009D4200D91E0033003A000121EE
:1034F0001998FDF783FC864201D0DB22C7E7320032
:1035000039001B9803F00CF8041EE4D1AD1BDFE773
:1035100000241D9B0CAA012119980C94FDF76EFC48
:103520001D9B0A93984201D0E722B0E70C99012035
:103530000D941BF03BFC051E00D1B0E001000DAB6B
:103540000C9A1B9802F0F6FF041E0BD101000D9B94
:103550002A001998FDF772FC04230DAA012119987D
:10356000FDF76CFC28001BF0B7FF1B98FFF78EFCE3
:1035700042E600230DAA0D9301211D9B1998FDF72A
:103580003DFC1D9B0A93984203D11E990D9B9942C5
:1035900002D0EC22FF327BE701201BF007FC051E66
:1035A0007DD01E9B020002211998FDF727FC1E9B6F
:1035B0000A93984201D0FB2269E70D9A29001B98D3
:1035C00003F004FC0400CDE71B9802F017FF040091
:1035D000CBE700255C4B1A981A680D951B99904211
:1035E00002D15E68B14214D0DD68A84213D11E69D1
:1035F000B14210D101220D920C214A439B181A7A34
:10360000002101321A72199804230DAAFDF716FC45
:10361000F2E52A00F0E700260D96B24202D15E687C
:10362000002E06D0002D33D11A69002A30D1013284
:103630000D920C256A4398509B185960DFE71D9B3B
:103640000DAA01211998FDF7D9FB1D9B0A939842F9
:1036500002D0852292001BE70D9B1A9A012B17D8E6
:103660000C255D43384FEB599A4211D17E19706891
:1036700000280DD01B9903F0C9FB337A0400013BED
:10368000DBB23372002B00D0B6E5EB517360B3E5CB
:1036900089246442B0E59124FBE78624F9E78D2470
:1036A000F7E71B9802F0AAFE1B98002800D1A3E5BB
:1036B000FFF7ECFB1B980FE7244A2249E7E5204C73
:1036C0009AE50DAC0100082220001CF0C7FA1C9BF3
:1036D000082B00D0D4E0220031001998FDF78EFBB2
:1036E0001C9B0A93984202D0194A1A49E7E52078B0
:1036F0001B38062800D9C5E020F00CFC04142E4B22
:10370000629FBE0060881A99FFF7AAFB002802D1C9
:103710008826764298E5618862681B9804F0C8F8AC
:10372000060091E560881A99FFF79AFB0028EFD010
:10373000618862681B9804F0C0F8F1E7C86F021056
:1037400001000080DA6F0210803D000833020000A3
:1037500095030000197002100021209C10220FA870
:103760000C911CF07BFA0CAB22000FA91B9804F003
:10377000CBF8061E00D067E50C9B0FAA0100199834
:10378000FDF75CFB04230CAA01211998FDF756FBF9
:103790005AE51D9C102200210FA81CF05FFA23009F
:1037A0000FAA01211998FDF729FB844202D0F222C9
:1037B00092009AE722000FA91B9804F083F8AFE764
:1037C00000231D9E01203100209F0F931BF0EEFA75
:1037D000041E12D00200330001211998FDF70EFBE0
:1037E000864201D0C74A80E7390001201BF0DEFA8B
:1037F000051E04D120001BF06FFE8D2689E70FAB5C
:10380000019332000300009721001B9804F0A8F8F0
:10381000061E0BD101000F9B2A001998FDF70EFB25
:1038200004230FAA01211998FDF708FB20001BF0C3
:1038300053FE28001BF050FE06E50023209D0120CA
:1038400029000F931BF0B2FA041ED6D001000FAB73
:103850002A001B9804F0B8F8061E0BD101000F9B3C
:1038600022001998FDF7EAFA04230FAA01211998FA
:10387000FDF7E4FA2000DDE71B9803F045FF4FE772
:10388000912646E7862644E71B9803F03DFF1B98E8
:103890000028CFD1D8E49C4A9C49F8E49C4ED3E45C
:1038A0001C9B91270A93102B00D008E1199E0FACA6
:1038B0000100102220001CF0D1F910232200290061
:1038C0003000FDF79BFA1C9B0A93984202D0952288
:1038D00092002BE060881A99FFF7C2FA002800D105
:1038E000ECE020782438032800D9EAE020F012FB2D
:1038F000026199990023209901200D931BF056FA3B
:10390000041E71D01D9901201BF050FA0500200003
:10391000002D67D01D9B2A0001211998FDF76EFA32
:103920001D9A03000A92904202D07A4A7A49C6E46C
:103930000FA90DAA48880292209A00940A92019237
:1039400010992A0003F052FC071E05D101000D9BBF
:1039500022001998FDF772FA04230DAA0121199883
:10396000FDF76CFA28001BF0B7FD20001BF0B4FD3A
:1039700039001998FDF7AEFA8024099BA400234270
:1039800000D133E13022002118A81CF067F918A9F2
:103990002000FDF7DBF8051E00D027E1189B022B65
:1039A00000D194E0032B02D0012B00D048E1002489
:1039B00018E11D9901201BF0F9F9051E14D01D9B7B
:1039C000020001211998FDF719FA1D9B0A939842EC
:1039D00001D0524AAAE71E9901201BF0E7F9061E02
:1039E00004D128001BF078FD8D2768E002001E9BA3
:1039F00002211998FDF702FA1E9A03000A929042DA
:103A000001D0474A92E71D9A6088019200953200E2
:103A1000616803F0E7FC070028001BF05DFD300043
:103A2000A4E700231D9901200D931BF0BFF9051E8B
:103A3000DAD01D9B020001211998FDF7DFF91D9BCB
:103A40000A93984201D0B02242E7A3682099EB186C
:103A500001200A931BF0AAF9061EC2D0A368608851
:103A60006168E26824780B93A4466346209F0DACFE
:103A70000494039702960192262B18D10A9B2A00E0
:103A800000930B9B03F064FD071E05D101000D9B05
:103A900032001998FDF7D2F9042322000121199868
:103AA000FDF7CCF930001BF017FD28005EE70A9BFC
:103AB0002A0000930B9B03F0BFFDE5E788277F42B8
:103AC00056E78627FBE7174A1349FFF7E0FB1C9EE2
:103AD0009124242E56D1199F0FAC010032002000F2
:103AE0001CF0BCF83300220029003800FDF786F9ED
:103AF0001C9B0A93984219D0C62292000A49FFF7EC
:103B0000DEFBC046DF030000240400001970021031
:103B10000100008073020000ED6F021095020000AA
:103B2000A2020000F70200000670021060881A99D5
:103B3000FFF796F9002800D17EE02378223B012B85
:103B400000D97BE01D9901200D951BF02FF9051E72
:103B500017D01D9B020001211998FDF74FF91D9BFD
:103B60000A93984201D0B54AC8E7E3682099EB1858
:103B700001200A931BF01AF9061E05D128001BF03C
:103B8000ABFC8D2464422DE0E26823896088616883
:103B9000944622692478209F0B9323000DAC069451
:103BA000059704960392222B3CD10A9B0095029321
:103BB000634614AA01930B9B03F084FF041E0BD1F0
:103BC00001000D9B32001998FDF738F904230DAA66
:103BD00001211998FDF732F928001BF07DFC300017
:103BE0001BF07AFC21001998FDF774F98024099BD9
:103BF000E400234200D19EE03022002118A81CF0EE
:103C00002DF8200018A9FCF7A1FF041E00D092E0B7
:103C1000189B022B19D0032B02D0012B00D0D6E128
:103C2000002484E00A9B00950293634614AA019342
:103C30000B9B03F0B9FFC1E78824A3E78624A1E723
:103C4000DB227F499200FFF722FB1C9B0A93102B7B
:103C500000D0B6E1199E0FAD0100102228001BF024
:103C6000FDFF10232A0021003000FDF7C7F81C9B40
:103C70000A93984203D0734A7349FFF720FB287BCD
:103C80001A9E0238272800D99DE120F04DF97D00C9
:103C90004F015C0177018F01A000AF00E100070137
:103CA0003900710028009C019C019C019C019C0131
:103CB0009C019C019C019C019C019C019C019C011C
:103CC0009C019C019C019C019C019C019C019C010C
:103CD0009C019C019C019C019C019C011D01288868
:103CE0003100209FFFF7BCF8002854D028880DA988
:103CF00003F0DCFE041E1AD13B000DAA210096E061
:103D0000288831001D9CFFF7ABF8002843D0230022
:103D10000DAA01211998FDF771F8844202D08E2274
:103D2000D200A9E728880DA903F09AFE040021001B
:103D30001998FDF7CFF88024099B2401234200D174
:103D400062E10021302218A81BF088FF18A920008A
:103D5000FCF7FCFE002800D056E1189B022B00D196
:103D600039E1032B02D0012B00D08AE1002447E186
:103D700028883100209FFFF773F800280BD028888F
:103D80000DA903F083FEB5E7288831001D9CFFF7DD
:103D900067F8002802D188246442C8E72100012086
:103DA0001BF004F8061E00D10FE1020023000121E0
:103DB0001998FDF723F8844201D0244A5CE728884B
:103DC00023003200A96802F089FA040062E0288822
:103DD0003100FFF745F80028DDD0288802F0AAFA64
:103DE000041EA4D12888FFF721F8A0E70023288823
:103DF00031000C930D93FFF733F800281BD028886F
:103E00000DAA0CA902F0ADFA0400209B0A93032B23
:103E100005D904230CAA00211998FDF70FF8219B5E
:103E20000A93032B00D882E7042301210DAA1998D5
:103E3000FDF704F87BE788246442E6E732030000DC
:103E40000670021049040000317002109B0400004B
:103E500028883100209CFFF703F800289BD0210020
:103E600001201AF0A3FF061E00D1AEE028880DAB9A
:103E70002200310002F096FA041E05D101000D9BCC
:103E800032001998FCF7DAFF04230DAA01211998D2
:103E9000FCF7D4FF30001BF01FFB48E728883100F7
:103EA000209CFEF7DDFF002800D174E721000120EF
:103EB0001AF07CFF061E00D187E028880DAB220097
:103EC000310002F084FAD7E7288831001D9F1E9C3C
:103ED000FEF7C6FF002800D15DE73B000DAA0121D7
:103EE0001998FCF78BFF874201D08B4AC4E68B4BB5
:103EF000AA6800269A4211D1B4420FD021000120B5
:103F00001AF054FF061E60D0020023000221199807
:103F1000FCF774FF844201D0814AADE62888009402
:103F200033000D9AA96804F053F94EE7280004F015
:103F30003BFB041E00D0FAE628883100FEF75AFF4A
:103F400002232A00DAE61D9B0DAA012119980E967C
:103F5000FCF754FF1D9B0A93984201D0714A8BE6EF
:103F6000042804D0704A7149714814F0B1FF2B0045
:103F70000D990E9A686804F042FBDAE71D9B0DAAC2
:103F8000012119980E96FCF739FF1D9B0A93984260
:103F900001D0684A70E6042801D0674AE3E72B00A5
:103FA0000D990E9A686804F005FBC2E72888310075
:103FB000FEF756FF002800D1EDE6288804F04CFB00
:103FC0000EE79124E8E68624E6E68D24E4E65B4AE3
:103FD0005649FFF75CF9209E012031001AF0E6FEF9
:103FE000051E52D0310004F0B1F8041E05D10100C5
:103FF00033002A001998FCF721FF28001BF06CFA07
:1040000021001998FCF766FF8024099B6401234274
:1040100015D00021302218A81BF020FE18A920007E
:10402000FCF794FD00280AD1189B022B30D0032BFB
:1040300001D0012B3ED100211998FCF74BFF099BC1
:104040009B0401D5FEF736FF8024099BE40123423F
:1040500001D1FFF753F83022002118A81BF0FEFD14
:1040600018A92000FCF772FD061E01D0FFF746F8E4
:10407000189B022B22D0032B01D0012B43D100240B
:104080003BE02F4A2F49FFF702F98D246442B7E73E
:104090002D4A1368002B01DD013B136011680029D4
:1040A000C9D1182229481BF0D9FDFEF799FE04F06A
:1040B00071F9C0E7BA222649FFF7E9F880231C9C72
:1040C000DB009C4223D8210001201AF06FFE051E60
:1040D00020D00200230031001998FCF78FFE8442A3
:1040E00003D01C4A1C49FFF7EAF82100280004F01D
:1040F00043F8040028001BF0EFF921001998FCF7A1
:10410000E9FEFEF7FBFF154A1349FFF7C0F88724C5
:104110006442F2E78D24FBE7110500000000017006
:104120001E050000390500003D0500003170021039
:10413000967002104E050000520500007605000042
:10414000D305000064700210983D0008803D00080F
:10415000AE6F02109E0500004E700210AA0500000E
:1041600010B5041E04D1D3221249134814F0B0FE36
:10417000124816F051FC0B21E061114A002803D1CE
:10418000D8220C490F48F1E74B01D31A6933FF33AA
:1041900001391C600029F7D1E2600B480B4A17F087
:1041A000A3FA6060002803D1E22202490848DDE753
:1041B00010BDC046CF700210FC6D02107471021069
:1041C00030020008F0700210F9300010900300086F
:1041D0003071021080235B010360002070470000F3
:1041E000802310B55B01984202D100F0E1FB10BDC5
:1041F0000048FCE7E8030080BFF34F8F034B044AFD
:10420000DA60BFF34F8FC046FDE7C04600ED00E027
:104210000400FA05882030B5012187B04002FCF780
:1042200051FA002405002000A54215DD03AB0493DC
:1042300004230593033B0093220004AB21002800D4
:104240000394FCF7ABFA80231B06984200D1039439
:104250002800FCF705FB039807B030BD10B5FFF749
:10426000CBFF10BD036907B5042B02D080200006E8
:104270000EBD01AA00214068FCF7C0FD0428F5D15D
:104280000198FFF7ADFFF3E773B5066A0500042E4A
:104290000CD101A8FFF79EFF041E05D101003300D9
:1042A00001AA6868FCF7CAFD200076BD80242406B8
:1042B000FAE70000036810B50400022B05D0032BB9
:1042C00001D0012B07D1002101E08847010060687F
:1042D000FCF700FE10BD4A220149024814F0F8FD27
:1042E000A0710210B071021070B58CB030220021A4
:1042F000684680261BF0B2FC10253606310070207F
:10430000FCF702FC0400284209D069462800FCF7AB
:104310001DFC0028F2D10E496846FFF7CBFF202094
:10432000044208D06946FCF711FC0028E6D109498F
:104330006846FFF7BFFF40200442DFD06946FCF724
:1043400005FC0028DAD104496846FFF7B3FFD5E73A
:1043500089420010654200105D42001010B5041E35
:1043600004D170220F49104814F0B2FD0F4816F026
:1043700053FBE061002810D00D4B0E4A9C629C64F8
:104380009C60E36000210C4817F0AEF960600028E3
:1043900007D17F2203490948E6E775220149084809
:1043A000E2E710BDD4710210FC6D021068720210B9
:1043B000B403000814040008E94200102672021039
:1043C000E8710210184B984223D010DC174B98422A
:1043D00023D004DC164B984221D0842312E0154BE5
:1043E000984218D0144B9842F7D18E230AE0134B11
:1043F000984209DC124B984213DA124BC0189223F0
:104400000128EAD85B4202E000239842E5D1180077
:1044100070478523F6E78C23F4E79823F2E7872398
:10442000F0E79523EEE7C0461201FF800201FF800E
:104430000101FF800701FF800B01FF804601FF8023
:104440004501FF80E5FE007FF0B53F240021A44632
:10445000059D0F4E67462F40F75D4C1CE4B2475454
:10446000AD0913D1233502310555C9B21C351700EA
:104470002F40F75D4C1C4754920999060A43E1B25C
:1044800014009B091C43F2D14454F0BD2100E1E724
:1044900090720210F0B589B00393002315000693C3
:1044A000026807930193059305AB0093976908236E
:1044B00006AA04000E00B84700280FD1059B010092
:1044C0001848082B0FD1069A2B689A4204D80CD1B1
:1044D000079A6B689A4208D9134804E0134B0121EC
:1044E0009842F0D0124814F0F3FC9A4215D22A00F8
:1044F00006A92000039B984700280CD100222368BE
:1045000000925F692A00082331002000B847002884
:1045100005D00848E7E70848E5E70029EED109B0EB
:10452000F0BDC046D07202101C7302100701FF805C
:10453000F4720210687302104B730210F0B51D0084
:10454000012389B00F00109904001600994319D176
:1045500013002B4319D0132203A81BF07FFB2B0061
:10456000320003A80097FFF76FFF109A23680092AC
:104570005D690F9A0E9B03A92000A847FFF722FF51
:1045800009B0F0BD86204042FAE78720FBE7F0B58E
:104590001D0013008BB004000F0016002B4335D014
:1045A0000021132205A81BF059FB32002B0005A89F
:1045B0000097FFF749FF236803AADB6905A92000DC
:1045C000984700281ED1039A109B9A421ED3119936
:1045D0005B188B421AD39A4202D28A20404213E0DF
:1045E000109A2368019202AA009202909D69129A81
:1045F000119B05A92000A847002803D1029B119A0E
:104600009342EAD3FFF7DEFE0BB0F0BD8720E5E76B
:10461000F0B51E0013008DB0050003911700129C29
:1046200033431FD00021132207A81BF017FB039B65
:104630003A00009307A83300FFF706FF2B6805AA8E
:10464000DB6907A928009847002807D10123069AAB
:1046500060601A4200D06360059B2360FFF7B2FEE2
:104660000DB0F0BD87204042FAE7F0B51D00130001
:1046700089B004000F0016002B4313D00021132231
:1046800003A81BF0EBFA32002B0003A80097FFF7FA
:10469000DBFE236803A91B6A20009847FFF792FE00
:1046A00009B0F0BD87204042FAE710B503681B69E6
:1046B0009847FFF787FE10BD0020704770B50B4C80
:1046C0002378BFF35B8F0A4DDB070CD4200014F076
:1046D000CDFC002807D0200014F0E0FC054A064974
:1046E000280014F0B7FC280070BDC04660820008A6
:1046F00068820008C0000008CD6D011037B5FFF7D3
:10470000DDFF0A4912F068FB6A461100084B186089
:10471000084B30CB30C1002802D1074814F0D8FB39
:10472000064B0749FFF7B6FE37BDC046947302102B
:10473000B88200088C730210B1730210B9460010E1
:10474000D2730210F0B50C4C1F00236885B0050031
:104750001600002B01D1FFF7D1FF0C9B3200029312
:104760000B9B290001930A9B009320683B00FFF7F5
:10477000E5FE05B0F0BDC046B8820008F0B50C4CAF
:104780001F00236885B005001600002B01D1FFF73C
:10479000B5FF0C9B320002930B9B290001930A9BEF
:1047A000009320683B00FFF7F2FE05B0F0BDC04665
:1047B000B8820008F7B5094C1F00236805001600F1
:1047C000002B01D1FFF79AFF089B320000932900CC
:1047D0003B002068FFF71CFFFEBDC046B882000802
:1047E000F8B5084C1F00236805001600002B01D106
:1047F000FFF784FF32003B0029002068FFF735FFF8
:10480000F8BDC046B882000810B5FFF757FF06494B
:1048100012F0E2FA054B1860002802D1044814F0A7
:1048200057FBFFF742FF10BD94730210B8820008D7
:10483000B173021030B58BB002900391002B01D1FF
:10484000002A22D102A90491069308210EAB0893F5
:10485000042305910F48073907920993FBF732FFAC
:10486000051E15DD00230322009304A9FBF796FF24
:10487000802304001B06984201D192246442280040
:10488000FBF7EEFF20000BB030BD87246442F9E750
:104890009224FBE7011A010030B58DB00392109A03
:1048A00004900591002A01D1002B24D104A908917C
:1048B0000821099103A90A918D20042140020B913E
:1048C000033906920793FBF7FDFE051E16DD012353
:1048D0000222009308A906ABFBF760FF80230400C7
:1048E0001B06984201D1922464422800FBF7B8FFCE
:1048F00020000DB030BD87246442F9E79224FBE725
:10490000F0B58BB002900391161E24D000230493BF
:10491000059302AB0693082304AC012110480793CA
:1049200008940993FBF7CEFE071E17DD012208ABA2
:10493000009206A9FBF732FF0CCC0CC680230500C1
:104940001B06984201D192256D423800FBF788FF83
:1049500028000BB0F0BD87256D42F9E79225FBE7F3
:10496000021A010030B587B002AB0493082302900D
:10497000039101210D480593FBF7A4FE051E12DDEE
:1049800000230122009304A9FBF708FF8023040001
:104990001B06984201D1922464422800FBF760FF75
:1049A000200007B030BD92246442F9E7031A0100E9
:1049B00037B501210C48FBF785FE051E11DD0021EE
:1049C0000B0000910A00FBF7E9FE802304001B06A0
:1049D000984201D1922464422800FBF741FF200055
:1049E0003EBD92246442FAE7041A010010B5FFF7B5
:1049F0000BFF10BD0023002213B500920193036941
:104A00000400082B02D08020000616BD6A46002153
:104A10004068FCF7F3F90828F5D1009A019BA068DB
:104A2000FFF7DEFEF1E770B586B004AE04000822A1
:104A3000002130001BF012F90023002202920393A0
:104A40002369082B04D080252D06280006B070BDF0
:104A5000236A082BF7D102AA00216068FCF7CEF97F
:104A60000828F0D1029A039B0096A068FFF7A2FEE7
:104A7000051EEAD10100236A32006068FCF7DEF906
:104A8000E3E700230022002170B588B00692079367
:104A9000036904000591082B04D080252D06280009
:104AA00008B070BD4569042DF7D106AA4068FCF72F
:104AB000A5F90828F1D12B0005AA01216068FCF7AF
:104AC0009DF90428E9D1206A1AF0FCFC061E1AD0D0
:104AD000236A02900193059BA0680093069A079BA6
:104AE000FFF74CFE051E05D10100236A3200606805
:104AF000FCF7A4F9226A002130001BF0AFF8300067
:104B00001AF0EAFCCBE792256D42C8E700230022A9
:104B1000F0B5002689B0069207930369040047693F
:104B20000596082B04D080242406200009B0F0BD8F
:104B30008569042DF7D106AA31004068FCF75EF9BB
:104B40000828F0D12B0005AA02216068FCF756F96D
:104B50000428E8D138001AF0B5FC051E0BD06369B3
:104B6000020001216068FCF749F96369984205D0A9
:104B700028001AF0B1FC92246442D6E7059B019507
:104B800002930097069A079BA068FFF7DBFD3A00A7
:104B90000400310028001BF061F828001AF09CFC8A
:104BA000C3E70000036810B50400022B05D0032BF7
:104BB00001D0012B07D1002101E088470100606886
:104BC000FCF788F910BDA0220149024814F080F9D1
:104BD000E2730210B071021070B58CB03022002167
:104BE00068468025F8261BF039F82D067600290046
:104BF0003000FBF789FF040011F0CEFF031E04D044
:104C0000B3222149214814F063F92020044208D03E
:104C10006946FBF79BFF0028E9D11D496846FFF76D
:104C2000C1FF1020044208D06946FBF78FFF00281F
:104C3000DDD118496846FFF7B5FF4020044208D08F
:104C40006946FBF783FF0028D1D113496846FFF777
:104C5000A9FF8020044208D06946FBF777FF0028AF
:104C6000C5D10E496846FFF79DFF802040000442F1
:104C7000BDD06946FBF76AFF0028B8D108496846ED
:104C8000FFF790FFB3E7C046F2730210FC73021007
:104C90000D4B0010834A0010274A0010F549001000
:104CA000ED49001010B5041E04D1842211491248A8
:104CB00014F00EF9114815F0AFFEE061002814D091
:104CC0000F4B00211A00883214609C629C649C6621
:104CD0009C60E3600B4A0C4816F006FD60600028FB
:104CE00007D1932203490948E2E78922014908488C
:104CF000DEE710BD2D740210FC6D0210AC740210C2
:104D000038040008D8040008D94B00106F74021052
:104D100036740210002070470020704701200021E7
:104D20007047C1698069704700487047CA740210B3
:104D3000F0B5431C87B00593DB7F0500002B00D145
:104D400043622E0024360121300014F039F800238C
:104D50000490019301280AD12F1D380000F0DEF9DC
:104D60000190002806D00499300014F042F8019810
:104D700007B0F0BD29696A69AB69EC695B185441F9
:104D800038000293039400F09FF90400380000F00B
:104D900097F9039B2418002B02D1029BA34206D94A
:104DA0000121300014F025F8194B0193DFE76B69FE
:104DB000380002932C6900F083F9019B029A934218
:104DC00001D1A042ECD82C696B691C4304D1380096
:104DD00000F076F96C612861AC69EB691C4312D173
:104DE000380000F071F90600380000F069F927007A
:104DF0003200230006002869696992197B41121A62
:104E00008B41AA61EB610123059AD377AFE7C046D6
:104E10005FF0FFFF421C0300002010B5D27F8242EA
:104E200002D0181D00F044F9002110BD10B5431C3C
:104E3000DB7F002B03D0043000F04AF910BD0120C5
:104E40004042FBE770B5451C0400E87F002801D113
:104E5000606270BD20000121243013F0CAFF0300FE
:104E600000208342F5D1E877201D00F075F9F0E7C6
:104E700010B50400044B08330360FFF7E3FF201D67
:104E800000F015F9200010BDD474021010B5040014
:104E9000FFF7EEFF200014F031FA200010BD421C95
:104EA0000300002010B5D27F824203D0181D19697B
:104EB00000F002F9002110BD411C0300002010B5D4
:104EC000C97F814204D01969181D891800F0F4F8CF
:104ED000002110BDF7B51F00431CDB7F04000D004F
:104EE0001600002B01D11B48FEBD03689B6A984742
:104EF00002000B00300039001FF00AFA1A43F2D109
:104F0000236820009B6A984702000B0008980999C3
:104F10001FF0FEF91A43E6D1089A099B92197B41CA
:104F200000920193236820009B6B9847019B8B4262
:104F3000D9D802D1009B8342D5D8226963699219DE
:104F40007B411100201D0A00089B290000F03CF95C
:104F5000CAE7C0465FF0FFFFD3B51F00431CDB7FED
:104F600004001600002B01D11D48D6BD0368196B43
:104F70003B00884702000B00300039001FF0C8F9E1
:104F80001A43F1D1069A079B92197B410092019333
:104F90000098019901225242D31712184B412168FF
:104FA0002000096B884702000B00009801991FF050
:104FB000AFF91A43D8D1236820009B6B9847019B17
:104FC0008B42D1D802D1009B8342CDD8226963693C
:104FD000B6185F41201D069A310000F07BF9C4E746
:104FE0005FF0FFFFF7B51F00431CDB7F04000D00DF
:104FF0001600002B01D11B48FEBD03685B6A984771
:1050000002000B00300039001FF082F91A43F2D180
:10501000236820005B6A984702000B0008980999F2
:105020001FF076F91A43E6D1089A099B92197B4141
:1050300000920193236820009B6B9847019B8B4251
:10504000D9D802D1009B8342D5D8226963699219CD
:105050007B411100201D0A00089B290000F098F8F0
:10506000CAE7C0465FF0FFFF0E4B73B5083304007C
:1050700008C015000E0000F019F80023621C26611C
:105080006361A561E361D3776362721C01D09D42C5
:1050900006D10093002304481A00190013F032FFD0
:1050A000200076BDD47402100101FF807047704764
:1050B00010B517F037F910BD10B517F023F910BD72
:1050C00010B517F031F910BD10B517F030F910BD5B
:1050D00010B517F02FF910BD70B505000468002C4D
:1050E00017D10D4E3068002803D00121494215F038
:1050F000A9FC2C68002C07D12C000834002C02D00D
:10510000200014F087F92C603068002801D015F0D9
:10511000AFFC200070BDC04620A2000870B505009D
:105120000C4E3000FFF7D8FF14F07CF9280017F080
:10513000A9F80400280017F0F5F814F0DBF868600F
:105140003000FFF7C9FF14F083F9601E844160420C
:1051500070BDC046208B000870B506000B4D2800BE
:10516000FFF7BAFF14F05EF9300017F08DF8441E17
:10517000A04144427068002801D014F0C3F8280010
:10518000FFF7AAFF14F064F9200070BD208B00081F
:10519000F7B50F00160005000A4C01932000FFF739
:1051A0009BFF14F03FF93A003100019B280013F0F7
:1051B0006DFA05002000FFF78FFF14F049F9280071
:1051C000FEBDC046208B0008F0B587B0019100926B
:1051D0000293050017F0A6F80700280017F0A7F8BB
:1051E0000600280017F0A0F83900039000981EF080
:1051F0002BFF0C1E69D1019B002B66D0029A009BED
:105200009B18039AB618B3425FD83148FFF764FF82
:1052100014F008F9029B002B4FD0002C4BD10099C1
:10522000280017F06FF80400010000981EF00CFF32
:10523000029B601A984200D918000322019B134276
:1052400001D1B8422ED20600B84200D93E00320049
:10525000019968681AF070FCBE4205D26B68BA1BEF
:105260009819FF211AF0FAFC6B6804970593102334
:105270000393049B059A0099280017F00FF8041E69
:1052800006D0039B013B0393002BF2D1012464421F
:10529000029B9B1B0293009B9B190093019B9B19F4
:1052A0000193B7E739001EF049FE7843019B049053
:1052B00006000593DBE7012464420548FFF70CFF75
:1052C00014F0C6F8200007B0F0BD01246442F9E7ED
:1052D000208B0008F7B50D001700060017F027F81F
:1052E0000400300017F020F82018EC19A04203D277
:1052F000012464422000FEBDA0421FD81948FFF7D8
:10530000EBFE14F08FF80024002F24D0002C20D1C5
:10531000102301932900300016F0B8FF041E06D0B8
:10532000019B013B0193002BF4D10124644229002D
:10533000300016F0E7FF3F1A2D18E5E72100300096
:1053400016F0E0FF010020001EF07EFE0029D5D0FF
:10535000CEE7012464420348FFF7BEFE14F078F85C
:10536000C8E7C046208B0008704710B5040013F052
:10537000C5FF200010BD000010B5037D002B04D137
:105380000248FFF7A9FE14F063F810BD508B000827
:1053900016204042704710B503681B69984710BD3E
:1053A00010B503689B69984710BD10B503689B6AE8
:1053B000984710BD0020814200D119387047012064
:1053C0007047162040427047162040427047704791
:1053D00010B503689B68984710BD000010B5040025
:1053E000084B0022083323600023A260E3600023FF
:1053F0000800A16123616361034913F04BFB2000A6
:1054000010BDC04630790210D153001007B501001D
:1054100000900831806913F07EFB07BD010010B5D4
:105420000831806913F0A0FB10BD000010B5040026
:10543000034B08330360FFF7F1FF200010BDC046A7
:105440003079021010B5036801221B6900219847CA
:1054500010BD002210B5036811001B69984710BDEC
:10546000030000B57F3304DAFF234042DB0118401C
:10547000404203006C3300D1FDE103006C3300DDDA
:10548000B5E0924B984234D05EDC914B984241D0CB
:1054900031DC904B98422CD016DC8F4B984241D097
:1054A0000BDC8E4B984200D1DEE097238C4A5B42A6
:1054B000904200D1CCE1842312E08A4B984200D183
:1054C000D1E1894A9623F2E7884B984200D1CBE09C
:1054D00008DC874B98421DD0864B9842EBD186233F
:1054E0005B42B5E1844B984200D1BEE1834B9842C8
:1054F000E1D18D23F4E7824B9842FAD014DC814B42
:10550000984200D1B7E107DC7F4B9842E7D07F4B50
:105510009842D0D18723E3E77D4B9842DFD07D4B83
:105520009842C8D19523DBE77B4B984200D19BE0A2
:1055300004DC7A4B9842EDD0794BF1E7794B9842F5
:1055400000D191E0784BC8E7784B984200D18CE1CC
:1055500024DC774B984200D186E010DC754B9842F2
:1055600000D186E105DC744B984200D183E1734B96
:10557000D6E7734B984200D17BE1724BC8E7724B80
:105580009842B6D005DC714B984200D16FE1704B68
:10559000BEE7704B9842BDD06F4BB9E76F4B984256
:1055A000B8D011DC6E4B984299D004DC6D4B984218
:1055B000B0D06D4BACE76D4B984203D06C4B98422A
:1055C00000D078E785238BE76A4B984200D186E7C5
:1055D00005DC694B984200D181E7684B7DE7684B59
:1055E000984241D003007A333ED0664B98E70300DF
:1055F000273339D00300273300DDC5E003003833FB
:1056000000D16CE70300383330DC0300603300D195
:1056100080E70300603316DC0300663300D179E7CE
:105620000300663307DC03006A3300D161E76830AA
:1056300000D16FE73FE70300643300D16AE76230CF
:1056400000D167E737E703003C3307DC03003D3355
:1056500002DA403000D02EE7942341E703003A33CA
:10566000FAD0393000D026E7932339E703003233EC
:1056700000D134E70300323312DC03003533F3D0BA
:105680000300353306DC03003733EDD0363000D16C
:1056900025E710E703003433DED03330E4D00AE7E7
:1056A00003002D33E0D003002D3305DC030031333C
:1056B000DAD02F30D8D0FEE603002933D4D003004F
:1056C000293300DD26E72B30CED0F4E680BBFFFF88
:1056D00000AFFFFF809EFFFF009DFFFF009CFFFFCC
:1056E000809CFFFF809DFFFF009EFFFF80ADFFFFBE
:1056F000009FFFFF809FFFFF00AEFFFF80AEFFFF18
:1057000080B2FFFF00B1FFFF80AFFFFF80B0FFFF5F
:1057100080B1FFFF00B2FFFF80B4FFFF80B3FFFF47
:1057200000B4FFFF80BAFFFF00BBFFFF00C2FFFF16
:1057300080BEFFFF00BDFFFF00BCFFFF80BCFFFF7E
:1057400080BDFFFF00BEFFFF80C0FFFF00BFFFFF67
:1057500080BFFFFF00C1FFFF80C1FFFF00C5FFFF4B
:1057600080C3FFFF80C2FFFF00C3FFFF00C4FFFF35
:1057700080C4FFFF80C6FFFF80C5FFFF00C6FFFF9C
:1057800080C7FFFF00C7FFFF0300123300D1C9E647
:105790000300123330DC0300193300D164E7030047
:1057A000193312DC030022330BDC0300243300DB4B
:1057B00095E60300263300D191E6253000D153E76A
:1057C00079E6203000D18AE675E60300163300D171
:1057D00085E60300163307DC0300183300D17EE6AC
:1057E000173000D140E766E60300143300D191E69C
:1057F000133000D138E75EE603000C3300D189E6B0
:1058000003000C3316DC03000F3300D18AE60300DB
:105810000F3307DC0300113300D125E7103000D12E
:1058200067E648E603000E3300D173E60D3000D181
:1058300070E640E6831D00D16CE6831D0ADC0300A0
:105840000A3300D166E68A235B42083000D032E694
:10585000180000BD831C08D000239842F8D0031D17
:1058600000D028E656E689233AE6922338E69623C6
:1058700036E6972334E68A2332E6C046F7B580241D
:1058800017006404DBB23A4A23439A1806000191D8
:105890001024022A2DD9374A04349A18012A28D90B
:1058A000354A0834934224D0344A0434934220D0F9
:1058B000334A103493421CD0324A1034934218D0E9
:1058C000314A243C934214D0304A0434934210D0DD
:1058D0002F4A043C93420CD02E4A0434934208D001
:1058E0002D4A1034934204D02C4A9B185C425C41F0
:1058F000A4010B9A099B944639006344012000934C
:10590000E51819F053FA3060002802D18D2040428A
:105910002BE03A00776001991AF00EF9099B009A82
:10592000934223D8AC4221D82900012019F03EFA35
:10593000B0600028EAD00B9BF560002B04D0001962
:105940001A000A991AF0F8F8099B002B07D00B9B54
:10595000099AE518B368089958191AF0EDF8330058
:10596000002051331870013B1C70FEBD8720CEE72C
:10597000FFFFFFFEFCFFFFFE080000010900000121
:105980000A0000010B0000010C0000010D000001E5
:10599000100000011100000112000001EDFFFFFEE8
:1059A000002313B50C000B6001A9019302F07EFDEA
:1059B000002804D1019B1A68002A01D1236016BD7A
:1059C0008B204042FBE7F0B5C9B004900F001500F2
:1059D0000593802A2BD81620002102AB07ACC018F3
:1059E000217062701AF03AF92378AE1CA3556278E0
:1059F0006319281DDA7039002A0020181AF09CF863
:105A0000519B21000393509B720002934F9B04987B
:105A100001934E9B0093059BFFF730FF8221050009
:105A2000490020000CF046FD280049B0F0BD872554
:105A30006D42F9E770B51500FE22D2050400024060
:105A4000C020C004824201D1294A1440FA22802099
:105A5000D2052240C00482422BD1264A944217D05C
:105A60000CD8254A944207D324480222844210D9F4
:105A70002348053284420CD000202CE0214A944275
:105A800013D010D3204A944211D020480622F1E7C7
:105A900005221F480918002003291CD808001EF001
:105AA00039FA251B13230322F3E70422F1E7082226
:105AB000EFE7184A944205D0174A002094420AD1D1
:105AC0000622E6E70122E4E70520002B00D018704B
:105AD000290006F081FB70BD0320402DF5D0013078
