:020000041000EA
:10000000000001082BD001100D000000850F00102A
:1000100000000000000000000000000000000000E0
:10002000000000000000000000000000A1AF01106F
:10003000000000000000000025B0011031B00110E8
:1000400085D0011085D0011085D0011085D0011018
:1000500085D0011085D0011085D0011085D0011008
:1000600085D0011085D0011085D0011085D00110F8
:1000700085D0011085D0011085D0011085D00110E8
:1000800085D0011085D0011085D0011085D00110D8
:1000900085D0011085D0011085D0011085D00110C8
:1000A00085D0011085D0011085D0011085D00110B8
:1000B00085D0011085D0011085D0011085D00110A8
:1000C00010B5064C2378002B07D1054B002B02D02E
:1000D000044800E000BF0123237010BDE8160008AB
:1000E00000000000B4050310044B10B5002B03D032
:1000F0000349044800E000BF10BDC04600000000F6
:10010000EC160008B4050310164B002B00D1144B5D
:100110009D46402292029A1A924600218B460F4633
:100120001348144A121A21F0A1FE0F4B002B00D0E5
:1001300098470E4B002B00D0984700200021040068
:100140000D000D48002802D00C481AF0F7F921F0F4
:1001500095FA200029001AF097FD1AF077FBC046A7
:10016000000008000000010800000000E9AB0110D9
:10017000E816000854BB00083DA50110000000006F
:10018000F0B591B00021302204A821F06FFE0023C9
:10019000384903939A008C58002C10D12700364A16
:1001A000136080211020090601F05CFC102203007E
:1001B000104206D13149324822321AF0E5F80133B3
:1001C000E8E704A9102001F08DFC051E04D03622BA
:1001D0002A492C481AF0D8F8049B022B05D0032B8F
:1001E00001D0012B42D100213CE0089B0193002B60
:1001F00003D13B2221492448ECE702ABDE1C01007D
:1002000001233200059801F0E9FD012803D03F22C7
:100210001A491E48DEE73378012B05D0022B19D08E
:10022000512216491A48D5E7134B1B68A34204D93B
:10023000104EA700BB59002B03D145220F4915488A
:10024000C8E72900059801F051FEBB5903A898475B
:100250000700A6E72900042303AA059801F0EEFD94
:1002600039000134059801F041FE9AE75A2203490A
:100270000948A2E7C4000008041700080083021020
:1002800012830210618302107A830210C08302106D
:100290001B840210F983021043840210F0B58FB062
:1002A0003022002102A821F0E1FD3026802130001B
:1002B000090601F0D7FB304204D126223A493B48D7
:1002C0001AF062F8102302A918424BD0180001F06E
:1002D00009FC071E03D02B2233493548F0E7029B67
:1002E000022B08D0032B01D0012B36D1002103981B
:1002F00001F0FCFDDAE7069D079B089AEB189B18B6
:100300000192002B03D1302227492A48D8E7280040
:1003100021F0E0F9041E03D1362223492648CFE715
:1003200002002B003900039801F058FD23006908F2
:1003300062190919013A8B4209D103982B00220056
:10034000002101F07BFD200021F0CEF9CEE71878E6
:1003500017781F7010700133ECE7492212491748D3
:100360001AF012F8202001F0BDFB011E01D050222E
:10037000B2E7029B022B05D0032BB7D0012BB5D0DF
:100380006822EBE7049C002C03DA572206490C484C
:1003900096E7039801F0AAFD14201AF05BFE2000F6
:1003A00001F068FE82E7C04667840210798402107B
:1003B00061830210D184021004850210438402106C
:1003C00026850210F0B593B007003022002106A860
:1003D00021F04CFD00231D0001930093802120207B
:1003E000090601F03FFB2023184205D1DA224B49D0
:1003F0004B48FF3219F0C8FF06A9202001F072FB1C
:10040000002804D0DE224549FF324648F2E7069E26
:10041000022E31D0032E61D0012E00D075E0099C50
:10042000002C04D0E4223D49FF323F48E2E7082097
:1004300021F050F9051E04D1F422384952003B48FE
:10044000D8E7046046600100079801F063FE009B56
:10045000013300930021079801F048FD002CBDD026
:10046000009B012B02D1019B052B55D001235B4240
:100470003B60386813B0F0BD0A9B02930B9B03935B
:10048000039A029B944663441C000C9BE41802935D
:10049000002C04D0F922214952002548AAE7099BE3
:1004A000002B04D1FB221D4952002248A2E7AB4297
:1004B00004D0FD22520019491F489BE72B686A6847
:1004C00001332B60534321006B602A1D04230798DE
:1004D00001F0B4FC019B01330193BBE7099B002BA6
:1004E00003D1164A0D49164884E7AB4201D0154A9C
:1004F000E1E704ABD91D0A2307980B7001F00AFE4F
:10050000099821F0F1F80124A4E785223300920034
:1005100002490D4819F038FF0023A9E7E4860210CC
:1005200064870210618302109B8702100485021009
:10053000C2870210FE870210278802100502000001
:1005400053880210090200004384021010B58CB0D9
:1005500030220021684621F089FC802120200906F4
:1005600001F080FA69460400202001F0BBFA00285F
:1005700004D0412209490A4819F006FF009B032BC9
:100580000AD1630901249C4301986442002101F0CF
:10059000ADFC20000CB010BD0124F5E7658502100C
:1005A0006183021070B58EB030220021050002A8D0
:1005B00021F05CFC80212020090601F053FA02A9F9
:1005C0000600202001F08EFA002804D05A220F499C
:1005D0000F4819F0D9FE029C012C15D17609B443BD
:1005E000049B6442019301335A1E93415B422B608A
:1005F0000021039801F07AFCFFF7A8FF002C01D03E
:10060000012040420EB070BD0124E9E78085021050
:100610006183021030B58DB030220021684621F090
:1006200025FC80212020090601F01CFA69460500FE
:10063000202001F057FA002804D0272209490A484F
:1006400019F0A2FE009C012C09D16D09AC43644253
:100650000198210001F04AFC20000DB030BD0124BA
:10066000F5E7C0464D8502106183021030B58FB0AA
:1006700005003022002102A821F0F8FBFFF7CAFF95
:10068000002829D180212030090601F0EBF902A9C8
:100690000400202001F026FA002804D07F2210490F
:1006A000104819F071FE029B0193022B16D16309C9
:1006B00001249C43049B6442019301335A1E9341DD
:1006C0005B422B600021039801F010FCFFF73EFF16
:1006D000002C01D0012040420FB030BD0124E9E7D9
:1006E000AD8502106183021030B591B00500302253
:1006F000002104A821F0BAFB34230393FFF78AFFFB
:10070000002830D180212030090601F0ABF904A97E
:100710000400202001F0E6F9002804D0ED2215495C
:10072000154819F031FE049B0193022B1DD163097A
:1007300001249C43042303AA01210598644201F08B
:100740004DFB002802D1039B342B10D001235B42C8
:100750002B602100059801F0C9FBFFF7F7FE002C84
:1007600001D00120404211B030BD0124E2E72860F1
:10077000EFE7C0462686021061830210F0B591B003
:1007800030220021070004A821F070FB0B2020F08C
:10079000A1FF041E04D19B223349344819F0F4FD13
:1007A0000B22002121F062FBFFF734FF051E05D06C
:1007B000200020F099FF280011B0F0BD80212020FA
:1007C000090601F04FF904A90500202001F08AF97B
:1007D000002803D0AB2224492548DFE7049B022BE5
:1007E00035D16D09013BAB4300252E005B420193DF
:1007F000AB0004AA9B182900A2191B69059801F0F7
:10080000EDFA01353618042DF2D1089B0293099BAD
:100810000393039A029B94460A9A63449B180B9A8B
:100820009B1802920B2B14D001235B423B60019971
:10083000059801F05BFB200020F056FFFFF786FED5
:10084000019B0500002BB6D001256D42B3E70123C3
:10085000CAE70B2EE8D132000649200021F074FED1
:100860000028E1D13860E2E7D78502100485021044
:100870006183021058870210F0B58FB0302200213A
:10088000060002A821F0F2FA0B2020F023FF051E3B
:1008900005D10C222D492E48FF3219F075FD0B228F
:1008A000002121F0E3FAFFF7B5FE071E05D028006E
:1008B00020F01AFF38000FB0F0BD8021202009067B
:1008C00001F0D0F802A90400202001F00BF9002863
:1008D00004D01C221D49FF321E48DEE7029B019313
:1008E000022B1ED1630901249C430B232A00012102
:1008F000039801F073FA079B6442834213D00123EB
:100900005B4233602100039801F0F0FAFFF71EFE0E
:100910000700280020F0E8FE002CCBD001277F4202
:10092000C8E70124E1E7069A9B18089A9B180192F0
:100930000B2BE4D1AB79002BE1D10622064928002C
:1009400021F002FE0028DAD13060DBE75486021085
:10095000048502106183021099880210F0B58FB0EF
:1009600030220021070002A821F080FA0B2020F09D
:10097000B1FE051E05D13E222A492B48FF3219F04F
:1009800003FDFFF747FE061E05D0280020F0ACFE51
:1009900030000FB0F0BD80212020090601F062F880
:1009A00002A90400202001F09DF8002804D0A6220E
:1009B0001C4952001D48E2E7029B0193022B24D1FF
:1009C000630901249C4300220398110001F030FACE
:1009D0002A0006000B230021039801F0FFF964426E
:1009E0000200002E13D001235B423B6021000398DC
:1009F00001F07CFAFFF7AAFD0600280020F074FE43
:100A0000002CC5D001267642C2E70124DBE70B2883
:100A1000E9D10749280021F097FD0028E3D138608B
:100A2000E4E7C0467D86021004850210618302104F
:100A300094880210F0B58FB030220021060002A881
:100A400021F014FA0B2020F045FE051E05D170227E
:100A50002F493048FF3219F097FCFFF7DBFD071EE6
:100A600005D0280020F040FE38000FB0F0BD8021F6
:100A70002020090600F0F6FF02A90400202001F062
:100A800031F8002804D0BF22214952002248E2E771
:100A9000029B0193022B2AD1630901249C43032367
:100AA0002A000021039801F099F90522070000218E
:100AB000039801F0BDF9EA1C019008230021039876
:100AC000644201F08BF9032F13D001235B423360A2
:100AD0002100039801F00AFAFFF738FD070028000B
:100AE00020F002FE002CBFD001277F42BCE701248A
:100AF000D5E7019B052BE8D10828E6D10B22074951
:100B0000280021F021FD0028DFD13060E0E7C04659
:100B10009C860210048502106183021088880210EE
:100B2000F0B58FB030220021060002A821F09EF916
:100B3000082020F0CFFD051E05D1A4222F49304802
:100B4000FF3219F021FCFFF765FD071E05D02800D4
:100B500020F0CAFD38000FB0F0BD8021202009062A
:100B600000F080FF02A90400202000F0BBFF002855
:100B700004D0D922214952002248E2E7029B019386
:100B8000022B2AD1630901249C4305232A0000215A
:100B9000039801F023F9042207000021039801F0D3
:100BA00047F96A1D0190022300210398644201F075
:100BB00015F9052F13D001235B4233602100039800
:100BC00001F094F9FFF7C2FC0700280020F08CFD2B
:100BD000002CBFD001277F42BCE70124D5E7019B51
:100BE000032BE8D10028E6D13A000749280021F07C
:100BF000ABFC0028DFD13060E0E7C046BB860210C6
:100C0000048502106183021082880210F0B595B04D
:100C100030220021070008A821F028F93C2020F00C
:100C200059FD041E04D13B4A3B493C4819F0ACFB3A
:100C30003C22002121F01AF9FFF7ECFC051E05D03B
:100C4000200020F051FD280015B0F0BD80212020AB
:100C5000090600F007FF08A90600202000F042FF67
:100C6000002803D02E4A2C492E48DFE70C9D0D9B0F
:100C70000E9AEB189B180292002B34D001237609B0
:100C8000B3435B42029322002B000021099801F03C
:100C9000A5F80600152802D001235B4202932A0022
:100CA0002100601921F050F8760005211E480494B7
:100CB00005960694079600F051FC0390002814DC7A
:100CC00001256D423D602900099801F00FF92000CF
:100CD00020F00AFDFFF73AFC029B0500002BB2D082
:100CE00001256D42AFE70123CBE7012206AB00925D
:100CF00004A9039800F0C4FC051E3860E3D10398F2
:100D000000F042FD330022002900099801F096F816
:100D1000D9E7C046350200000B8702100485021097
:100D20004602000061830210031A0000F0B591B082
:100D300005003022002104A821F098F8FFF76AFC92
:100D4000002838D180212030090600F08BFE04A94C
:100D50000400202000F0C6FE002804D0224A2349C7
:100D6000234819F011FB089B0293099B0393039AF4
:100D7000029B94460A9A63449B180292002B1CD152
:100D80000C9B0293002B18D1630901249C4305217D
:100D9000184800F0E3FB6442071E10DC012676428F
:100DA000310005982E6001F0A1F8FFF7CFFB002C71
:100DB00001D00120404211B0F0BD0124E7E700213D
:100DC00000910B000A0000F05BFC061EE8D18021B8
:100DD0000820090600F046FE0307DFD501F07AF986
:100DE000380000F0D1FCDBE78702000035870210F5
:100DF00061830210041A000070B58CB0302200210B
:100E00000500684621F032F880212020090600F014
:100E100029FE69460600202000F064FE002804D068
:100E2000CE220A490A4819F0AFFA009C012C0AD1D7
:100E30007609B44364420198064901F057F820004E
:100E40002C600CB070BD0124F4E7C046FF85021091
:100E5000618302100100008010B5041E04D16522D8
:100E60000F49104819F090FA0F481BF045F9E0615E
:100E700000280FD00D4B0E4A9C629C60E36000215D
:100E80000C481BF0A1FF6060002807D174220449C0
:100E90000948E7E76A2202490848E3E710BDC0466F
:100EA000A0880210C088021070890210F8000008A3
:100EB000380100088101001023890210DB8802102C
:100EC00010B5041E04D160220F49104819F05CFAD5
:100ED0000F481BF011F9E06100280FD00D4B0E4AAE
:100EE0009C629C60E36000210C481BF06DFF606019
:100EF000002807D16F2204490948E7E76522024923
:100F00000848E3E710BDC046AC890210C088021053
:100F1000588A02105C0100089C0100089D02001024
:100F20000C8A0210C489021070B5041E04D17B2201
:100F30000C490D4819F028FA0C4D280002F08CFCE1
:100F40000B4804F051FA0B4804F04CFB0A4804F03B
:100F5000FDFF0A48FFF780FF0948FFF7B1FF256052
:100F6000062070BD948A0210A48A0210C0010008F5
:100F7000E4010008080200082C02000850020008E2
:100F8000740200082C4B05E02C4B03E02C4B01E0D5
:100F90002C4BFFE7EFF308802B4972460A4201D041
:100FA000EFF309809C46294B196802680A600431F6
:100FB00042680A60043182680A600431C2680A60CB
:100FC0000431F0C147460F6004314F460F600431D1
:100FD00057460F6004315F460F60043102690A60B2
:100FE000083142690A60043182690A600431C269C9
:100FF0000A60043103462033154E324200D00433D8
:1010000075460D4E354200D148330C46103C2360E6
:10101000EFF309820A600431EFF308820A600431B9
:1010200072460A600431EFF314820A606046074991
:1010300000F05EF8FEE70000100000002000000055
:10104000300000004000000004000000C08A0210D0
:101050000002000030B5002585B01A4CAB00290015
:10106000E2581948013518F0F5FF0D2DF5D1A36CA4
:1010700016480293636C0193236C0093E36BA26B9D
:10108000616B18F0E7FF124B1248196818F0E2FF85
:10109000E36C1B0712D5104818F0DCFF236D0F48D6
:1010A000DB0700D40E4818F0D5FFE36C0D485B0752
:1010B00000D40D4818F0CEFF05B030BD0B4818F035
:1010C000C9FFEFE798A90008548B0210628B021049
:1010D00000ED00E0B18B0210BF8B0210CE8B02102E
:1010E000DB8B0210FE8B02100A8C0210EE8B0210BA
:1010F00013B50400154818F0ADFF302C17D0402C64
:101100001AD0202C1DD1124818F0A4FF114C1248FF
:1011100018F0A0FFFFF79EFF104818F09BFF002378
:101120000F4A0093D26B0F49200019F055F90E4871
:1011300018F090FF0D4CEAE70D4818F08BFF0D4CAE
:10114000E5E70D4818F086FF0C4CE0E7C48A021072
:10115000ED8A02103E01FF801A8B0210258B0210CF
:1011600098A90008448B0210FC8A02103F01FF80FE
:10117000058B02104001FF80108B02103D01FF80A3
:10118000F0B587B005000E000392002804D12C2290
:101190001E491F4818F0D8FE002903D12D221B49F3
:1011A0001C48F7E700F084FB00280FD00368019388
:1011B0000121280018F0BDFF071EF9D000246B881C
:1011C000A34206D8582211491348E3E701235B42A2
:1011D000EDE70023059323043B430093230102938F
:1011E0006B682201981805A9009A18F08FFF002853
:1011F00001D10134E3E76B68029A00989B18019AC9
:10120000DE605A60039A9A6007B0F0BD4E8C0210FF
:10121000968C0210438E0210B08C021037B5051E5A
:1012200004D161221C491D4818F08EFE002903D10B
:10123000622219491A48F7E742880B0C9A4205D8EE
:10124000009218496822184819F09EF81C0143685A
:101250001B598B4205D00B006C221249134819F020
:1012600093F800F025FB00280DD002686B681B196D
:10127000596891420AD09968914207D0762209496B
:101280000B4819F081F801225242EFE700225A6020
:101290009A601A6037BDC0464E8C0210968C0210C0
:1012A000B48C0210168C0210D08C02101E8D02100D
:1012B0005A8D021037B5051E04D181221D491E48E2
:1012C00018F042FE002904D184221C491C4819F060
:1012D0005BF842880B0C9A4205D8009217498A2283
:1012E000184819F051F81C0143681B598B4205D06E
:1012F0000B008E221149144819F046F800F0D8FA74
:1013000000280CD002686B681C196368934209D0EE
:10131000A368934206D0982208490C48D7E70122D7
:101320005242F0E7E068002803D19D2201490848B5
:10133000C6E73EBD4E8C0210968C0210328C021015
:10134000968D0210D08C02101E8D0210D38D0210CB
:10135000218E0210F0B5002106000D4B5D681B6860
:101360000C338D4201D1002010E000225F68BA42A8
:1013700002D101312433F4E71868540100190468DC
:10138000A64201D00132F2E70028F2D0F0BDC046FB
:10139000C802000870B50D000121836804004942AD
:1013A000D8691AF0BFFE5722002820D1E369002B2C
:1013B0000DD1A561A368E561616858681BF02EFD39
:1013C000002806DA66220C490C4818F0BDFD1D61A4
:1013D000F0E76368034203D1672207490848F4E74E
:1013E000A368D8691AF0B4FE002803D06B22024922
:1013F0000448EAE770BDC0460391021058910210FC
:101400007491021046910210F0B5050085B00E1ED1
:1014100004D170224249434818F096FDFFF79AFF25
:10142000041E05D12B0074223F49404818F0ACFF40
:101430000369002B0ED13268C1688A4210D9029329
:10144000E3687A2201932368374900933848336868
:1014500018F09AFF012B03D13268C1688A42EED19D
:1014600000F026FA071E07D1237D002B1ED123682A
:10147000382230493048D9E7416900290BD0002291
:101480008069236882420BD13A682A4900922B482E
:10149000462218F079FF03683D2226492848C5E70F
:1014A00095004D599D4201D00132EBE73A000C21E5
:1014B000300000F01FFA002804D181221A49214887
:1014C00018F062FF204B002198691AF093F9051E6D
:1014D00010D11E4BB0687360002F07D01AF0A2FF26
:1014E000002805D08A220E49194895E700F0B2FE7F
:1014F00005B0F0BDA36801001A681648FFF740FE6A
:101500000023154A706029002F606C60EE60AB60AC
:101510002B61AA82AB752000FFF73CFFE8E7C046CD
:1015200003910210968F02107D8E0210A98F021077
:10153000C78F02105D8E021024900210939002104B
:101540005C900210D3900210C802000801000080D5
:1015500046910210D002000801020000F0B51024EC
:101560008DB004AD0F00220000210600280020F0FD
:101570007DFC002108AA0120089109910A950B948D
:10158000019702911AF012FF0390002804D1B722AC
:101590000E490F4818F0F8FE01A93000FFF734FF9C
:1015A0000121039849421AF017FFBD22002805D1F6
:1015B00003981AF06BFF002804D0C02205490648A2
:1015C00018F0C2FC02980DB0F0BDC0468F8E02101C
:1015D0005E8F0210039102104691021070B50D1E2D
:1015E00004D1C9221F49204818F0AEFC01001F4851
:1015F000FFF760FE041E03D1CB221A491C48F3E713
:1016000002681821280000F075F9002804D1CE22C4
:101610001849194818F0B8FEA37D012B11D1802379
:101620001B062B6123686869002B02D100F012FEB3
:1016300070BD1AF0F7FE0028FAD0D82209490F48E9
:10164000D2E7200004221530032100F009F902231B
:101650002375E5600FCD00F0E9F821006068FFF721
:1016600099FEE5E703910210968F0210D002000860
:101670008A9602109B8E0210CD8E021046910210A7
:10168000F0B5102491B00F001600002122000500D3
:1016900002A8019320F0EAFB002102AB0893019B12
:1016A00006AA0C93169B01200691079109940A97AC
:1016B0000B960D930E911AF079FE0F90002805D12C
:1016C000832210495200104818F05EFE0AA9280033
:1016D000FFF784FF01210F9849421AF07DFE002890
:1016E00005D0862252000949094818F02DFC0F98B0
:1016F0001AF0CCFE002802D01022FF32F3E70E9839
:1017000011B0F0BDAA8E02105E8F0210039102107C
:101710004691021070B50D1E05D18C221449154852
:10172000520018F011FC01001348FFF7C3FD041E1E
:1017300004D11C220E49FF321048F2E7026808214A
:10174000280000F0D7F8002805D18F220C4952005C
:101750000C4818F019FE20000321153000F098F80D
:101760000323E560237521006068FFF713FE70BD59
:1017700003910210968F0210D00200088A96021080
:10178000B38E0210308F021070B504008AB00028AA
:1017900032D0102502AE2A000021300020F066FB76
:1017A000002106AA01200691079108960995009448
:1017B0001AF0FCFD0190002805D1A1220F4952002A
:1017C0000F4818F0E1FD69462000FFF7A3FF012153
:1017D000019849421AF000FE002805D0A4225200C8
:1017E0000849094818F0B0FB01981AF04FFE00288C
:1017F00002D04C22FF32F3E70AB070BDC38E021054
:10180000FA8E0210039102104691021010B5FFF7F4
:10181000A1FD041E01D1002010BD00F049F80028F0
:1018200002D1237D002BF6D0E068F5E71FB5002834
:1018300001D1002906D1002A01D1002B02D1CC18F8
:10184000042C08D902930192009103002622024938
:10185000024818F099FD1FBD8E910210929202105D
:1018600030B50F2485B06C440D002170210018F0B4
:1018700039FC002806D123782F220095024903481D
:1018800018F082FD05B030BD9D910210C791021085
:1018900007B50378DBB2994205D00091382202499E
:1018A000024818F071FD07BDB2910210C7910210F5
:1018B00070B51BF09FFA002808D000220A4B5C6824
:1018C0001B68944207D10021080070BD5E220749C1
:1018D000074818F039FB190024331D00203D2D68FE
:1018E0008542F1D00132ECE7C802000833920210C1
:1018F0001392021010B5031E1DD0012300291AD027
:1019000041184C1E0023A04215D89A4215D1144A02
:10191000904210D9134B984203D8134A01239142A5
:1019200009D9124B124AC0180023904203D8114A19
:101930008A425B41DBB2180010BDF8230E4A1B0639
:10194000C318934203D80D4A01239142F3D9F023DF
:101950000B4A1B06C01800239042ECD8094AE7E75F
:10196000FFFF0008FF740408007504080000F8EF8A
:10197000FF7F070000800F10FFFF0000000001083C
:10198000FFFF07000000081010B51BF0A3FE0E4A71
:1019900018210A2019F018FF0C4CA061002803D16F
:1019A0000B490C4818F0F0FC0B4A28210A2019F0CA
:1019B0000BFFE061002802D105490848F2E720004A
:1019C000FFF7B2FA606010BDB0020008C80200085C
:1019D000E6920210F3920210980200081F93021080
:1019E00010B5024B186800F057FDFAE7E80200084E
:1019F000F7B50C000100184817000193FFF75AFCD7
:101A00000600006805211530FFF742FF032C05D9B9
:101A100034221249FF32124818F0B6FC731DDB7FE6
:101A20000025A34215D9E4003619B568019B9D42F3
:101A300000D91D00002D0CD0002F04D02A007168A1
:101A4000380020F081F973685B197360B3685B1B21
:101A5000B3602800FEBDC046D8020008C093021043
:101A6000E198021073B505000E00FFF721FF002872
:101A700004D1D3221649174818F066FA0824806862
:101A800004436B1C09D02B00A34307D000942B0008
:101A9000DB221149114818F077FC2500F2170221CA
:101AA00028001BF015FA03002000184098420AD0C5
:101AB00080221206964202D00020023306D0E7228E
:101AC00003490748D8E7831C00D1002076BDC046F3
:101AD00071970210B4970210AF930210D2970210C0
:101AE0000C980210F0B593B004000391FFF7E0FEEC
:101AF000061E04D1EF22A349A34818F025FA0200DC
:101B000030210398FFF7F6FE002804D1F2229F4906
:101B10009F4818F039FC30220021039820F0A6F9E4
:101B2000B268002C04D0651E254001D1224206D1A6
:101B300000922300FE229549964818F025FC1BF0E0
:101B4000B7F920420AD02B00326993420BD184228C
:101B500023008E499048520018F016FC04228B494D
:101B6000FF328E48D5E7F1685D014D1969688C42F6
:101B700001D00133E9E7002DE9D00121AB684942EA
:101B8000D8691AF0CFFA002803D0B3227D498448DF
:101B9000B3E7AC69002C03D1B92282498248B8E787
:101BA0002369AB612061002B10D1EB6168681BF0E9
:101BB00069F9002803DAC52272497C489DE76B6801
:101BC000034203D1C6226F49794896E7AB68D869CA
:101BD0001AF0BEFACB220028D8D12000237D153080
:101BE000022B09D0032B21D00221012B1FD09222DE
:101BF000664952006F48AFE705220421FFF730FE27
:101C00002822002108A820F031F90022237D079224
:101C1000022B00D080E022681821E068FFF76AFEFE
:101C2000002807D15B226449644872E71900FFF776
:101C30002FFEE5E7E3685F681D689A68DB68390096
:101C4000280004930592FFF7F1FDFBB20793002FE4
:101C50002AD1049B002B5FD0049B2268D9000598F1
:101C6000FFF748FE00284DD0FF0012ABDF193D0002
:101C70000027059E243D73689C46002B46D02B0010
:101C8000320003CA03C3039ABB00D31862466146FD
:101C90001A6228682268FFF72DFE002836D13B0023
:101CA00094224549464857E7F90022682800FFF783
:101CB00021FE0026002807D16B223F49414828E732
:101CC00001360835B742C4D06B689C46002BF7D06C
:101CD000280008AAF300D31806931A1D0AC80AC2DE
:101CE00063460398B20082181361069B226861461E
:101CF0005868FFF7FFFD0028E2D133007C222E490F
:101D0000314829E783222C49304802E7049B0137F8
:101D100008360835BB42AED101252D4B6D42290056
:101D2000D86919F067FD011E03D19D222249294877
:101D3000EFE60D2306AA9B18079A0894DA770200AB
:101D400008ABC1CBC1C2C1CBC1C2C1CBC1C21B6830
:101D5000214813600022FFF713FA237D039A1360D2
:101D60001300A2685860DA602368002B04D1039B3B
:101D70009D60002013B0F0BD1B680493049A039B80
:101D80009A60F6E771970210B4970210B8930210A8
:101D9000339402104F940210B79402109B940210D7
:101DA000469102109193021006950210589102106C
:101DB00074910210269502107D930210589502101E
:101DC000E09502107D9502109C950210C0950210BE
:101DD000C802000805960210D8020008F8B51400E1
:101DE00006000F001D00FFF763FD021E05D14F32F4
:101DF000FF320B490B4818F0A7F829002000FFF725
:101E000079FD002805D152220749FF32074818F012
:101E1000BBFA2B00390030002200FFF7E9FDF8BDC6
:101E200071970210B4970210CD93021064960210BD
:101E300010B513000022FFF7DBFD10BDF7B507005A
:101E40000C0016001D1E41D0FFF732FD021E05D109
:101E500064221F49FF321F4818F076F8290030002D
:101E6000FFF748FD002805D1B3221B491B4852004B
:101E700018F08AFA39001A48FFF71CFA07000068C0
:101E800005211530FFF704FD7B1DD97F0C19032CAC
:101E900004D970221049FF321248E9E7E4003C19E6
:101EA000A368AB4207D2BA22009352002B000A4922
:101EB0000D4818F069FA2A00310060681FF044FFED
:101EC00063685B196360A3685D1BA560F7BDC046CE
:101ED00071970210B4970210D69302106496021004
:101EE000D802000887980210A2980210F7B50700E0
:101EF0000D0001005248FFF7DDF904680600002CD0
:101F000005D1C1224F495048520018F01DF8E3682E
:101F1000002B04D184224B49FF324C48F5E73900AD
:101F20004748FFF77BF92822002130001FF09EFF71
:101F3000474F3100F86919F07DFC8E22061E00D053
:101F40007CE02000236815300193237D022B37D0DD
:101F5000032B4ED0012B67D13E4B002D08D09D4264
:101F600006D0CB222B003C493C48520018F00CFA1A
:101F7000E668B26800929D421AD10221FFF788FC00
:101F800071683748FFF74AF91822002120001FF036
:101F90006DFF2100B86919F04DFCAA2200284DD12F
:101FA0007560019B0098002B43D100F053F9F7BDF9
:101FB00003220221FFF754FC0023E3602375F0E7BE
:101FC000284BEB187E2B05D8B8222B00FF32224974
:101FD0002548CBE703220521FFF742FC80231B069F
:101FE0009D4201D10123A375E3681D615B690093E4
:101FF000E2E7E56819006A6800920122FFF730FC09
:1020000029681748FFF70AF93100182220001FF04D
:102010002DFF2100B86919F00DFC0028C1D0EC2279
:1020200052000849114870E7F0220B49520010484D
:102030009CE71AF0F7F90028B9D0EE22FF32F0E75A
:10204000D80200087197021083960210A196021020
:10205000C802000801000080E0930210C896021038
:10206000D0020008FFFFFF7F039702104691021085
:102070003B970210002170B5104A030050681268A7
:10208000814205D1FD220E4952000E4818F07CF91C
:10209000140015682434AB4202D001312200EFE76E
:1020A000002AEFD0082150681AF0B8FE002804DAA0
:1020B000054A0649064817F047FF70BDC8020008E8
:1020C000EA9302102E96021001020000719702108E
:1020D0005891021010B508201AF0D4FE002804DA36
:1020E000064A0749074817F02FFF030704D4064A9A
:1020F0000649074818F048F910BDC0460A0200001A
:1021000071970210589102100E020000F593021010
:10211000FF93021010B50C0001000348FFF7CAF846
:1021200003689C6010BDC046D80200080C4B10B577
:102130001B6858691AF076F9002802D04422C31CA3
:1021400009D1084B1B6818691AF06CF9002806D0F1
:10215000C31C04D047220449044817F0F5FE10BD03
:10216000EC020008E802000886990210E4990210C7
:1021700010B51BF0CFFB10BD10B51BF0CBFB10BD95
:10218000F0B5264B95B0264C264D3822002106A8E6
:102190000293039404951FF069FE234B3C2205A98A
:1021A000200005931FF0D0FD3C2205A928001FF058
:1021B000CBFD0C2202A91D481FF0C6FD1C4819F0DA
:1021C0009BFF061E04D19F221A491B4817F0BCFE34
:1021D0001A4A002101201AF0E9F8071E03D1A222B1
:1021E00014491748F2E7174A002101201AF0DEF8D7
:1021F0000190002803D1A5220E491348E6E71348B1
:102200003B0032002900006800F072F8104B019A80
:102210002100186800F0AAF815B0F0BD779A333D98
:102220000C750408487504080C4A286300750408F6
:102230002499021086990210449902100C990210F8
:1022400058990210349902106F990210EC0200089C
:10225000E80200081FB504000C22002101A81FF0AD
:1022600005FE0021034822000B000068029400F0E4
:10227000B1F81FBDEC02000830B585B001900138FF
:102280000C00029115000392032824D823F04AFF82
:1022900002070B0F1000FFF7B7F805B030BD1000B4
:1022A000FFF79CF9F9E71000FFF734FAF5E7002291
:1022B00008212000FFF71EFB002804D16C220849EA
:1022C000084818F061F82800FFF7A0FA206060685D
:1022D000FFF7C0FFE1E775220349044817F034FE19
:1022E000FB98021058950210869902101C99021052
:1022F00070B5002804D124221449154817F024FE93
:10230000002903D1252211491248F7E7124C0D6824
:10231000A54203D026220D491048EFE7002A03D139
:1023200027320A490E48E9E7002B03D12822074942
:102330000C48E3E70C4C026104600C1D44600C3156
:1023400004348460C160436170BDC046309A02109D
:102350007A9A0210889A02100C4A28639F9A0210F7
:102360004A99021058990210FFD948A210B50028C6
:1023700004D137221049114817F0E6FD002903D196
:1023800038220D490E48F7E70E4B0C689C4203D0EB
:10239000392209490C48EFE7002A03D13A320649AD
:1023A0000A48E9E70A4B026103600B1D43600C31E8
:1023B00004338360C16010BD309A02107A9A021013
:1023C000889A02100C4A28639F9A0210759902108D
:1023D00042658BA6F0B585B001AD041E01916A601F
:1023E000AB6004D147222649264817F0ADFD264BA5
:1023F00002689A4203D0482221492448F5E7012186
:102400000069494219F08EFE002826D1FA270326DA
:102410007F00A26861681368086801338C46334006
:1024200083421ED00C2310684343E068C31883CD59
:1024300083C3136801333340136063461B6812681B
:1024400001333340934201D1FFF792FE206919F026
:102450007FFE002811D05D2200E04B2208490C4885
:10246000C3E73900606919F0B7FF022302309843CF
:10247000CFD0502202490748B7E705B0F0BDC046AB
:10248000309A02107A9A0210FFD948A2F69A0210E6
:10249000469102101F9B0210F0B5050085B0002880
:1024A00004D163221D491E4817F04EFD1D4B0268E2
:1024B0009A4203D0642219491B48F5E7FA210069C2
:1024C000490019F089FF0223023098431DD0682289
:1024D00012491648E8E70C211368E8684B4301AC41
:1024E000C3182000C2CBC2C00321136801330B40C4
:1024F000136063461B68126802330B40934201D19C
:10250000FFF73AFE07CCFFF7B7FEAB686A689C4658
:1025100010681B689842DED105B0F0BD309A0210F9
:102520007A9A021042658BA6CD9A02101F9B021068
:10253000F0B5214B85B01B6803900E00019200207E
:10254000012B08D01D4D1E4A6B7829781B020B43C6
:10255000934202D0012005B0F0BD019A032AF9D9B7
:1025600033800423E978AA780902114302912C1DD3
:102570007380F718029BEB189C4216D22388039AAB
:102580001B0B93420ED16288738801999B188B4272
:10259000E0D8380021001FF0D7FB63887288FF184D
:1025A0009B1873806388002B04D10122024B00200A
:1025B0001A60D0E7E418DDE738240008909B021089
:1025C00016200000F0B51E2589B0059300230F9F4B
:1025D0006D4404920E9E2B8006243F2F1BD92A00A7
:1025E0001121012001F016FC0534002813D1109BA5
:1025F00028880433029301970096059B049A0949A1
:1026000001F09CFB002809D0288801F037FC0A3C27
:10261000288801F033FC200009B0F0BD109B0400B5
:102620001E60F5E709000710F0B50F26A7B01F00E0
:102630002D9B182201932E9B002100932F9B08A80D
:1026400002932C9D1FF012FC602200210EA81FF0A7
:102650000DFC04ABF618330008AA60210EA800F0A8
:102660006FF8041E02D0072027B0F0BD0A99002998
:10267000F9D00C9B0393002BF5D033780B9A3B6079
:10268000019B9A42EFD828001FF05EFB0D9A029B37
:102690009A42E8D80C9900980B9E1FF055FB309A8F
:1026A0000D9B60C20099319A20000AC2DCE700004D
:1026B00070B50C00061D00210500042230001FF03B
:1026C000D5FB0A4B3000E4186142614107234942BF
:1026D0001940074BC91801F0CDFA002801D1286034
:1026E00070BD8630431E98410330F9E74019010060
:1026F0000200000113B50368040000910192002B51
:1027000005D1002903D0043001F0D4FA206013BDB4
:1027100037B51C00036800910192002B0DD1231DD9
:1027200004300D0001F0E0FA002803D10300256019
:1027300018003EBD05238A30FAD00423F8E70000D4
:10274000F0B589B002930023160004AA971C0190EB
:102750003A001121012007933B8001F05BFB01232C
:10276000002822D1388806AA05A901F00FFC00280C
:1027700001D0388816E0059B484A190003921140A1
:10278000474A9142F5D1474A069C1340464A934234
:102790000ED1E408103420001EF09CFF050038889C
:1027A000002D12D101F06AFB0123180009B0F0BD21
:1027B0003E4A934204D10323E4085C434A34EAE7E7
:1027C0000734E40864000134E5E707AB2200290080
:1027D00001F012FC002803D028001EF085FFC8E796
:1027E0000598039B2E4A034093424BD180B2173881
:1027F000072847D823F096FC043E4046464642440C
:102800000123029A1370079B581E400825F01EFDF5
:102810001EF040FB23F0CEFE079B0400581E40082C
:1028200025F014FD1EF036FB23F0C4FE002C2FD043
:1028300000236A1CE9184978019FF9540133A34227
:10284000F8D13B19B760F4600193002824D000232D
:102850001419E25C0199CA5401339842F9D13161EB
:10286000706128001EF040FF04AB588801F006FBA1
:1028700000239AE70223C4E70323C2E70423C0E747
:102880000523BEE728001EF02FFF04AB588889E718
:10289000B460F4602A00D8E73061E1E70000FFEFA0
:1028A00000000360FFFFFFEF000001600000026016
:1028B000024B1B68036000207047C0463C2600089E
:1028C00003207047F0B589B002AB01249D1D0023A1
:1028D000070001910C702A00112120002B80069323
:1028E000079301F097FA00284BD1288805AA04A97C
:1028F00001F04CFB002840D1049B264A26491A408F
:102900008A423AD1254A059C1340254A934227D151
:10291000E408103420001EF0DDFE061E2DD02888AD
:1029200006AB2200310001F067FB00282FD11D49C2
:1029300007A801F09FF9002829D1069A310007A8BD
:1029400001F0B8F901993B000131202207A801F0FC
:10295000CBF90400601E844130001EF0C5FE0DE07E
:10296000114A934204D10323E4085C434A34D1E77B
:102970000734E40864000134CCE70124288801F01E
:102980007DFA20003B6801333B6009B0F0BD0124B3
:10299000E2E7C0460000FFEF00000360FFFFFFEF2B
:1029A0000000016009000001000002600320704780
:1029B0000B0010B50268034918001FF0C5F900208C
:1029C00010BDC0466F9B021010B502F067FDC0221B
:1029D00003009201904209D00AD88022520190420D
:1029E00004D080229201934200D00023180010BD31
:1029F000A022D2019042F9D0C022D2019042F5D05B
:102A00008022D201EFE700000C23036000487047EA
:102A1000629B02100D23036000487047549B021014
:102A20004842484180007047F0B50E258BB00393B3
:102A300002ABED180290002301200F0016001121B7
:102A40002A0028800893099301F0B0F9041E3FD1B1
:102A5000354A364908A801F039FA288808A901F052
:102A600037FA041E34D1324A330C1B04934258D136
:102A7000029B2888002B2ED0202F24D13B00029AC5
:102A8000310001F053FA041E1FD1288806AA07A9B5
:102A900001F07CFA041E18D1C0228021079BD205C8
:102AA0001A40C9058A421ED1069BDE1DF6082888F9
:102AB000119B109A039901F09FFA041E05D1119BF6
:102AC0001B68B34201D987246442288801F0D6F9F3
:102AD00020000BB0F0BD8022009423005200310092
:102AE00001F090FACFE7134A13491A408A4203D102
:102AF000069BDE081036DAE710498A4205D1032624
:102B0000069BDB085E434A36D1E70D4A06001340B8
:102B10000C4A9342CBD1069BDE1DF60876000136A7
:102B2000C5E787246442D3E709000710010C0000C1
:102B300000000370FFFFFFEF000001600000026073
:102B40000000FFEF00000360F7B51600020005006B
:102B50001F00089B98320C001160566006CB00F0F5
:102B60007BFF2800E10FA030009533003A0000F011
:102B700025FB041E04D0033C60424441E01CFEBD22
:102B80000221280000F0B6FF2800052100F0B2FF66
:102B90002000F4E77047D0B516001F000400CB17E3
:102BA0000A0000F06EFF32003B00200000F069FFD9
:102BB000D0BD73B5050016685468CB170A0000F045
:102BC00060FF320028002300022100F06EFF73BD79
:102BD00073B5050016685468CB170A0000F051FF62
:102BE000320028002300032100F05FFF73BD7FB592
:102BF000060000220D00052100F09DFF6A4602211B
:102C0000300000F098FF30000099A030019A00F0E9
:102C1000E1FB002805D0033843425841033004B09B
:102C200070BD02AC2100300000F0D2FF030001288B
:102C3000F5D00220002BF2D106CC06C51800EEE735
:102C4000242808D003D8202805D004207047302835
:102C500001D04028F9D10020F8E710B51FF074F832
:102C600010BD0000F0B51D001C4B87B0029103920F
:102C700019881B4A019091422CD15A882968D3188F
:102C80000093184C002907D005AC20000422FFF760
:102C9000E4FF64882B681C193F27009B9C4201D3EA
:102CA000002013E005AE042221003000FFF7D5FF1D
:102CB000338801989A113A407188824208D10120E4
:102CC0001F40029B1F70039B2C60198007B0F0BD52
:102CD0006418E2E701204042F8E7C0463C240008BF
:102CE00016200000402400080023F7B506000F005E
:102CF000150013606B46DC1D3A002B0021000020FC
:102D0000FFF7B0FF012802D12378B342F2D1FEBD14
:102D100037B51400022907D004290ED0012912D199
:102D20000378236000203EBD6B469D1D0A00010014
:102D30002800FFF792FF2B88F3E70A00010020002C
:102D4000FFF78BFFEEE701204042ECE737B51300B9
:102D50000400092927D8080023F0E4F910121423ED
:102D600025252525050B02212000FFF722FF002045
:102D70003EBD06212000FFF72BFFF8E70421F9E70D
:102D80000521F1E701AA03CBFFF7C2FF05000520EB
:102D9000002DEDD1019A2B0003212000FFF7FBFE4F
:102DA000E5E70121E6E70520E2E70000F0B543682A
:102DB000CFB0060007920024242B03D103681C6ABD
:102DC0002023436007220723009122405B42210019
:102DD0001CA8FFF7B9FE002806D00224012800D065
:102DE000052420004FB0F0BD3200BD491CA8FFF7FC
:102DF000E0FE8023DB051C4000D02BE108222100EF
:102E000011A80FAE1FF032F810AA31002000109464
:102E1000FFF76AFF012800D025E1109B04331193CE
:102E20003388043B11AAAF491CA81293FFF7C1FED7
:102E300011A8FFF7E9FD13AE1390002806D0119BEF
:102E40003200A9491CA87360FFF7C2FE11A8FFF762
:102E5000E1FD1390002806D0119B3200A3491CA865
:102E60007360FFF7B5FE2123310010A81093FFF720
:102E700029FD0324071EB4D1109B11AA9C491CA84C
:102E800012931196FFF795FE12233900082211A81C
:102E90000F931EF0EBFF10970EAF10AA3900012020
:102EA000FFF722FF012800D0E9E0109B04331193C3
:102EB0003B88043B11AA8F491CA81293FFF788FE98
:102EC000202313AE10AF310038001093FFF770FDD0
:102ED0000324002800D084E7109B11AA86491CA86F
:102EE00012931196FFF765FE3000FFF7E1FC041E18
:102EF00000D076E7139B139A80491CA8DB17FFF7D5
:102F00004AFE3200390002201394FFF7EDFE01283B
:102F100000D0BEE03988139B0439181D11AAFFF7B1
:102F2000F7FE002800D05BE7119B9AB2C023DB01BB
:102F30009A4200D954E7002371491CA8FFF72BFEE1
:102F4000012300250393002312220C936B4606A94C
:102F500052180F211B7B06A8049309180CAB049888
:102F6000FFF780FE431C00D184E0012865D10135C4
:102F7000012D0CD11CA8FFF70DFE0123614A5B4215
:102F8000059000F07EFD0421059800F0B3FD0C9B38
:102F90000DAE1900042230000E93FFF75EFE3F22B3
:102FA00073880BAC238033880AAF13401CA83B7096
:102FB000FFF7F0FD05210690002600F09BFD397813
:102FC000CB087AD0002E29D10E9B0FAE1900042217
:102FD00030001093FFF741FE1623728806A95B1894
:102FE0001A803F2233881CA813402E3A52181370BF
:102FF000FFF7D0FD112306AA9B181978CB084CD1F6
:10300000162206A95218112106A8091810AB049817
:10301000FFF728FE01300128ECD8012622000EAB74
:1030200039000498FFF71EFE0200431C05D000285B
:10303000C5D10521069800F07EFD039B0133039363
:10304000072B00D07FE7002D42D0002204210598F5
:1030500000F071FD07991CA8FFF7C9FD0024A042EC
:1030600000D0BAE6BDE613AC21002020FFF728FC13
:10307000002801D00324B4E611942023D2E63100C5
:103080000FA8FFF793FC002800D0AAE611960F9B2B
:1030900010E7FFF799FC020048E7109B06AA0433EB
:1030A000139316239B181B8813AA043B1CA8149384
:1030B000FFF74CFE0028A3D0AFE70E9B11AA043304
:1030C000119323881CA8043B1293FFF73FFEA5E74A
:1030D000012200230C491CA8FFF75DFDBAE7C0469A
:1030E00000DBFEFF04DBFEFFFEDAFEFF08DBFEFF77
:1030F000FFDAFEFF03DBFEFF05DBFEFF07DBFEFF63
:1031000006DBFEFF02DBFEFF01DBFEFF802210B5C7
:10311000920002490120FFF70BFA10BD3C24000881
:1031200070B5136886B04568066802935368280036
:103130001400009601950393FFF782FD002818D133
:10314000012229003000FFF76BFC002811D1022278
:1031500003990298FFF764FC00280AD104AA02A987
:103160006846FFF723FE002803D1049B2360059BDC
:10317000636006B070BD0000002110B5036886B022
:103180001B6814680091029152680B4901930391E6
:103190000420032A0DD91800FFF752FD002808D19A
:1031A00004AA02A96846FFF701FE002801D1059B89
:1031B000236006B010BDC046FFFFFF7FF0B5824C14
:1031C0000500A54410001F000E00079200F066F9EC
:1031D0007E4B0124984266D0079BEF61AB612B19AF
:1031E000DE778A9B6B62002E62D0202123A80FAA73
:1031F0000D900E9100F0D0F9041E54D1002312223C
:103200008A9800F072FC04218A9800F073FC102266
:1032100029003EA81C921B9500F01EFC05213EA82B
:1032200000F068FC012200233EA800F02AFC079B66
:10323000079ADB173EA800F024FC2BAE05213EA820
:10324000220000F078FC31003EA800F0C1FC00280C
:1032500000D0B6E02B9B2C9A2B616A61002B22D008
:103260002B003200103303CB03C2022173682B9A68
:103270008A9800F01AFC0F9E109D05218A9800F094
:1032800039FC042200238A9800F0FBFB3200022163
:103290008A982B003E963F9500F007FC00220521FE
:1032A0008A9800F048FC200085239B009D44F0BDD7
:1032B00020212BAB09934B230C910E9117A923A826
:1032C00005911BAA0FA90A930B920D9004911196D8
:1032D00012960DAA02A911CA11C16A460BAB03CB03
:1032E00003C208AB310032003800FFF79DF9041E1D
:1032F000D9D10A9A09993EA800F0AEFB05213EA853
:1033000000F0F8FB012200233EA800F0BAFB0222E5
:1033100000233EA800F0B5FB089E01225242D317BD
:10332000F7173EA800F0ADFB32003B003EA800F0CE
:10333000A8FB0F9E109F02225242D3173EA800F016
:10334000A0FB3B00320002213EA81396149700F028
:10335000ACFB179E189F03225242D3173EA800F0E1
:1033600090FB3B00320002213EA81596169700F014
:103370009CFB220005213EA800F0DDFB19A93EA818
:1033800000F026FC0234002800D08CE7199B10497D
:1033900017931A9B3EA8189323AB199320231A93D3
:1033A000FFF786F9041E00D07DE71799189A3EA80A
:1033B000FFF7A0F90FAB19991A9A3EA8FFF7A8F9E1
:1033C0001AE72200230047E7ECFDFFFFFFFFFF7F26
:1033D000C0E6FEFFF0B5ADB00992402204000EAD8C
:1033E00008916A6014A9203A1CAE11920E961091B1
:1033F00008AB02A8944684CB84C0230068461033EF
:1034000084CB84C00AAB6246A06900F055F80590F1
:1034100000282ED1631CDB7F002B2FD040270A9B76
:103420000B9D0693731B049507933A00AF4200D996
:103430002A00079B04997F1B581806991EF084FCEC
:10344000049B049A5B193F2A16D940230C960D93CE
:10345000656A08220CA912A81EF076FC129A0221B5
:103460002800139B00F021FB00220421606A00F079
:1034700062FB05982DB0F0BD0493D6E70CAB029328
:103480006B4606CD06C30A9A0B9BE169A069FFF75C
:1034900099F80028DCD00590EBE7000007304342A4
:1034A0005841034B40421840024BC0187047C04679
:1034B000C1E6FE7FFFFFFF7FF0B5354C0700A54456
:1034C0000091019213A921221CA81D0000F0C4FA4A
:1034D00004211CA800F00EFB2E4C8EAE20001FF025
:1034E00001F822000024030003211CA800F0DDFAEB
:1034F0000FAB06CE06C31CA80F9A8F9B022100F0CB
:10350000D4FA2200230002211CA800F0CEFA2200E7
:10351000230002211CA800F0C8FA23002200022187
:103520001CA800F0C2FA220004211CA800F003FB32
:1035300005A91CA800F04CFB03001420A3421ED1D7
:103540003800FFF7ABFF010042A8FFF7B1F8A04237
:1035500015D106998A1E914215D2079008900799B5
:10356000089A42A8FFF7C6F89099726842A8FFF738
:10357000C1F82B000099019A42A8FFF7C9F88923E6
:103580009B009D44F0BD059B08920793E7E7C0466A
:10359000DCFDFFFF5C9C021070B5202492B00AAEE7
:1035A0000290039115000E49220030001EF0CCFB62
:1035B0006A460994089608AB03CB03C204AC039A8D
:1035C00002992000002300F07BF9230006CB06C5FA
:1035D000236807205A4253415B42184012B070BD25
:1035E0003C9C0210F0B597B0802170200906FEF7D0
:1035F00039FA1023070018424BD0302200210AA8C4
:103600001EF034FC0AA91020FEF76CFA041E40D10B
:103610000A9B022B05D0032B01D0012B62D1002481
:1036200033E00E9901201DF0C9FC051E1AD00E9B37
:10363000020021000B98FEF7D1FB0E9B03939842EA
:1036400007D028001EF050F843227D497D4816F02F
:103650009BFE129901201DF0B1FC061E04D128002A
:103660001EF042F8052410E00E9B06950793129B6E
:10367000089003930993FFF749FD041E20D028000A
:103680001EF032F830001EF02FF821000B98FEF7E4
:103690002DFC2024274257D0302200210AA81EF0FA
:1036A000E5FB0AA92000FEF71DFA011E4CD10A9B7A
:1036B000022B1CD0032B01D0012B5ED100243FE054
:1036C000614B0C9A06A81A60012308AA1900FFF79B
:1036D00027FD041ED3D10100099B089A0B98FEF721
:1036E000ADFBCCE763225649584816F04DFE04ACBA
:1036F0000E9B22000B98FEF771FB0E9B03939842E2
:1037000002D080225249A1E705AB0893129B069490
:10371000079003930993FFF7F9FC041E10D14A4B5D
:103720000C9A06A81A60012308AA1900FFF724FDC5
:10373000041E05D10100099B089A0B98FEF77EFB39
:1037400021000B98FEF7D2FB4024274200D14BE723
:10375000302200210AA81EF089FB0AA92000FEF7EA
:10376000C1F9011E00D03FE70A9B022B08D0032BB2
:1037700001D0012B61D100255AE095223449B3E7ED
:103780000E9B06909125042B1CD108AA0B98FEF7DE
:1037900025FB0E9B0393984202D0B8222D4955E792
:1037A000129901201DF00AFC061E0AD00F9900296B
:1037B0001CD001201DF002FC041E05D130001DF0BC
:1037C00093FF8D256D4233E00F9B020001210B9882
:1037D000FEF704FB0F9B0393984208D030001DF0C6
:1037E00083FF20001DF080FFCD22D7E70C00129B45
:1037F00006AF0393009301973300089A0F992000B6
:10380000FFF712F9051E05D10100069B32000B9847
:10381000FEF714FB0B9804233A000121FEF70EFB80
:1038200030001DF061FF002C02D020001DF05CFF75
:1038300029000B98FEF75AFBD6E6E622054953E726
:10384000679C0210AC9C02103C260008CC9C021025
:103850007C9C0210969C021010B5041E04D17622A6
:103860000F49104816F090FD0F4818F045FCE06134
:10387000002810D00D4B0E4A9C629C649C60E36053
:1038800000210C4819F0A0FA6060002807D18522B9
:1038900003490948E6E77B2201490848E2E710BDF1
:1038A000EF9C0210C0880210A09D0210F0020008D8
:1038B00050030008E53500105C9D02101C9D0210AD
:1038C000F7B5050000911C00934203D8099ED21A57
:1038D000B24204D200232B606B602800FEBD009F23
:1038E0003200F8180899A4191EF02EFA2F606C60A7
:1038F000F3E7000082B06B465A60054A009182816E
:1039000000228260827306CB06C002B07047C046B8
:103910000F0B000073B5009101921E00837B040021
:10392000002B05D1124B82899A4202D00123A37346
:1039300073BD826843689A42F8D8019D9B1AAB42D6
:10394000F4D3B242F2D3921B06D00168002903D00F
:10395000891948191EF03CFA2068002804D0801903
:103960002A0000991EF034FAA3685D19A560DFE70C
:103970000F0B00008B7B10B5002B03D000230360DE
:10398000436010BD054A8C89944202D001228A739B
:10399000F5E78B6843600B680360F2E70F0B0000EC
:1039A000F0B515248BB0119D04AB029003910092E9
:1039B0001098E418002D30D117282ED8002A2FD1C6
:1039C0002100C0B2039B01395B01C0180870621A64
:1039D000129B0298FFF79EFF0BB0F0BD114EF75CF3
:1039E000FE438E1901960E00019A013E96420ED1B9
:1039F000009A0133D21BC91B0092DBB206002E4392
:103A0000ECD1009A002AE9DC1733D8B2DAE72A06AB
:103A10003070000A10432D0AE6E700232100EDE78D
:103A20002B00FBE7CC9D02101FB584680092019328
:103A300002940022FFF7B4FF1FBD00008388054AEF
:103A40000321D21A012A02DD0021013383800800FC
:103A50007047C046FEFF000013B5040000910192BC
:103A6000002198221EF002FA019A00992000FFF727
:103A700041FF22002300143294331A600423A376FA
:103A800013BD10B5017C040000290DD1002B02DA12
:103A9000D243DB4301312000FFF7C6FF23009433FC
:103AA0001868FFF7CBFF207410BD30B585B06D46A8
:103AB00000926B60037C0400002B14D1092902D012
:103AC000019AFFF7B1FF2A0002AB03CA03C320002B
:103AD000A36802996A68FFF71DFF230094331868F2
:103AE000FFF7ACFF207405B030BD10B50621FFF71D
:103AF0009BFF10BDF8B505009435040028680E0042
:103B0000FFF79CFF2074002805D1A7683B006633AF
:103B100002D907232374F8BD22002B688C320221BE
:103B2000934206D01A00010008322A6098819F60F3
:103B30009E732174EFE7F0B5037C89B004000D009B
:103B40001700002B08D106000200943633681432A7
:103B5000934203D10423237409B0F0BD9A798A42B9
:103B600001D01023F7E71A680492826805920229AF
:103B700024D11300049A981A049B00900293002306
:103B8000290001931A002000FFF70AFF002F11D02F
:103B9000210006A8FFF7EEFE059A049B06999B1AE2
:103BA000A2689B18079A93420FD8D21A002900D016
:103BB000C91806C73368083B3360CDE703399888D6
:103BC00089B222F0C3FA80B2D6E700221100F0E7F2
:103BD00073B5057C0E00002D0FD1030094331A68D5
:103BE000803B9A420BD1837B002B0AD16C460100AB
:103BF0002000FFF7BFFE0CCC0CC6280076BD0A25BE
:103C0000FBE70125F9E70000F0B5070012208FB0AF
:103C1000039314AB1E7802AB0D00029200210E221A
:103C2000C0181EF023F910230593029B06AC0B93DA
:103C3000039B01210C9304230D48278026730494D1
:103C40000A950D93FDF78AFC041E0DDD0223012267
:103C5000009304A90AABFDF713FD05002000FDF752
:103C600093FD28000FB0F0BD91256D42F9E7C046E5
:103C7000060F000030B50E22002487B002AB5C8036
:103C80001A70049308230500039109480121059344
:103C9000FDF764FC2860A04207DD009423000122A8
:103CA00004A9FDF7EDFC07B030BD91204042FAE7D2
:103CB000020F000030B500230F2589B002AC6380ED
:103CC00025700494082400680393059406910792D4
:103CD000984206DD0093022204A9FDF7D1FC09B049
:103CE00030BD89204042FAE770B5002510268EB01D
:103CF00004000392100004AA558016700692082250
:103D0000079203AA089204220B9020680595099255
:103D10000A910C930D92A8420DDD023A00920AAB73
:103D200006A9FDF7ADFC06002068FDF72DFD256016
:103D300030000EB070BD89267642F9E7F0B5102547
:103D400091B004AC07000E00029200212A0020006E
:103D500003931EF08BF824232370029B01210A9306
:103D6000039B11480B93169B67800C93179B66600F
:103D70000D93189B08940E93042309950F93FDF758
:103D8000EDFB041E0CDD02220CAB009208A9FDF72E
:103D900077FC05002000FDF7F7FC280011B0F0BD0E
:103DA00091256D42F9E7C046030F000070B506008B
:103DB0001A2015008EB003910E22002168441EF0D7
:103DC00055F82B8806AC1022238004950423022585
:103DD0000B92012103AA0E48666023730A940C9289
:103DE0000D930595FDF7BAFB041E0DDD01232A0096
:103DF00000930AA904ABFDF743FC05002000FDF782
:103E0000C3FC28000EB070BD91256D42F9E7C04695
:103E1000060F000070B506001A2015008EB0039141
:103E20000E22002168441EF021F82B8806AC238066
:103E3000052323730B330B9303AB0C9304950423DB
:103E4000022501210C4866600A940D930595FDF743
:103E500085FB041E0DDD01232A0000930AA904AB93
:103E6000FDF70EFC05002000FDF78EFC28000EB0CB
:103E700070BD91256D42F9E7060F000030B50500D1
:103E8000122089B00E22002168441DF0EFFF0623A6
:103E900004AC237301210A330B4825800294039359
:103EA000FDF75CFB041E0CDD00230122009302A938
:103EB000FDF7E6FB05002000FDF766FC280009B0D1
:103EC00030BD91256D42F9E7060F000006C070472E
:103ED00070B506000A208AB00C000E22002168444A
:103EE0001DF0C4FF0B2302AD2B7305330793089419
:103EF000631E9C410121E4000B4809942E80069525
:103F0000FDF72CFB041E0CDD00230222009306A902
:103F1000FDF7B6FB05002000FDF736FC28000AB0CF
:103F200070BD91256D42F9E7060F0000F0B507005E
:103F30000A200E008DB0039302AB150000210E2263
:103F4000C0181DF093FF102304ACA660022609934D
:103F5000039B01210C482780267308940A950B9334
:103F6000FDF7FCFA041E0CDD00233200009308A9C3
:103F7000FDF786FB05002000FDF706FC28000DB0CC
:103F8000F0BD91256D42F9E7060F0000F0B507007E
:103F900012208DB00D00140000210E2268441DF087
:103FA00065FF082304AE3373DB18039308950A9466
:103FB0006B1E9D41631E9C41AD00A40001210D4874
:103FC0000B94378002960995FDF7C8FA041E0DDDA3
:103FD00002230122009302A908ABFDF751FB050063
:103FE0002000FDF7D1FB28000DB0F0BD91256D42FA
:103FF000F9E7C046060F000013B50A240094FFF746
:1040000003FE16BDF0B5070012208FB00E0003921C
:1040100000210E2268441D001DF028FF292304AC56
:104020002373193B099303AB0A93042327800B9353
:10403000A6600894149B002D04D1002B04D0872483
:10404000644214E0002BFAD0149B01210A480C951D
:104050000D93FDF783FA051E0CDD00230322009368
:1040600008A9FDF70DFB04002800FDF78DFB2000DB
:104070000FB0F0BD9124E3E7060F0000802210B5D9
:104080005200002101481DF0F1FE10BDA0460008BD
:10409000802210B55200002101481DF0E7FE10BD3E
:1040A000A0460008002370B5094CDD002A191688C7
:1040B000002E05D15668002E02D12853516070BDE4
:1040C0000133202BF1D13B220249034816F05CF961
:1040D000A0460008D09D0210269E0210002370B555
:1040E000084ADC00A1180D88854203D10023A352A1
:1040F0004B6070BD0133202BF3D1482202490348A5
:1041000016F042F9A0460008FA9D02105E9E0210C9
:1041100070B580240023084D64005A191688864221
:1041200002D152688A4204D00833A342F5D100205C
:1041300070BD0120FCE7C046A0460008084B5A6845
:10414000904204D01A690121904201D070470021A9
:104150000C224A43002199509B1859601972F5E7C7
:10416000A047000870B598B0302200210CA81DF0BF
:104170007DFE80200CA98001FDF7B4FC041E16D141
:104180000C9B022B15D0032B00D1E5E0012B00D0B6
:10419000EAE0FC21180049001CF010FF011E40D08D
:1041A0000D98FDF7B7FF21000D98FDF79FFE18B0A1
:1041B00070BD09AD01000C2228001DF057FE109BB8
:1041C0000C2B00D0C4E02A0021000D98FDF706FE5C
:1041D000109B0593834204D0664A6749674816F0EE
:1041E000D3F828782A38052800D9B3E021F09AFFBF
:1041F00003122C4E5290002308A90F98089304F044
:10420000FBFE041ECFD10100042308AA0D98FDF780
:1042100015FEC8E7149E012031001CF0CFFE051EDC
:1042200001D18D243DE0010032000F9804F0EEFE34
:10423000041E05D1010033002A000D98FDF7FEFD94
:1042400028001DF051FAAEE768880E99FFF760FF6D
:10425000002825D0119B07AA01210D98FDF7BEFD6E
:10426000042801D0464AB8E7129B08AA02210D98FB
:10427000FDF7B4FD042801D0424AAEE768880F9BE1
:10428000089A079905F032F804008CE70F9804F0BB
:1042900069FEF9E768880E99FFF73AFF002802D116
:1042A000882464427FE7119901201CF087FE041ED8
:1042B000B7D0119B020001210D98FDF78FFD119BD6
:1042C0000593834201D0304A87E7129901201CF000
:1042D00075FE061E03D120001DF006FAA1E7129B11
:1042E000020002210D98FDF779FD129B834201D057
:1042F000264A72E76988AA680293119B0392009389
:10430000019605936A6823000F9805F01CF8BBE737
:1043100068880E99FFF7FCFE0028C1D01199012092
:104320001CF04CFE041E00D17BE7119B0200012112
:104330000D98FDF753FD119B834201D0144A4CE7C1
:104340006A6869880F980092220005F036F89BE7AA
:104350009124A6E78624A4E70F9804F003FE0F98A3
:10436000002800D06DE71EE70A4A03490A4816F004
:104370000BF8C046FB0500007A9F0210AC9C0210AF
:104380002C06000032060000510600005E06000008
:104390007E0600009B060000CC9C0210F0B5A5B084
:1043A0008021C3480906FDF75DFB102209901042E9
:1043B00029D00021203218A81DF058FD18A910207E
:1043C000FDF790FB00281ED1189B022B06D0032B73
:1043D00002D0012B00D0AAE0002410E005F056F92D
:1043E000041E0CD1B34A136801331360012B06D1AC
:1043F00001001822B0481DF039FDFFF73FFE2100F3
:104400001998FDF773FD2024099B234223D0302205
:10441000002118A81DF02AFD200018A9FDF762FB55
:10442000041E18D1189B022B00D185E0032B00D16C
:104430005DE1012B00D062E1B421180049001CF0BD
:10444000BDFD011E00D15EE11998FDF763FE21005C
:104450001998FDF74BFD4024099B234222D03022BE
:10446000002118A81DF002FD200018A9FDF73AFB55
:10447000041E17D1189B022B00D146E1032B00D15B
:1044800061E2012B00D069E2E02118001CF096FDEA
:10449000011E00D165E21998FDF73CFE2100199834
:1044A000FDF724FD8024099B6400234222D03022A2
:1044B000002118A81DF0DAFC18A92000FDF712FB56
:1044C000061E17D1189B022B00D14CE2032B00D102
:1044D0002BE3012B00D02FE34C2118001CF06EFDC4
:1044E000011E00D12BE31998FDF714FE3100199835
:1044F000FDF7FCFC8024099B234200D18BE3302292
:10450000002118A81DF0B2FC18A92000FDF7EAFA56
:10451000051E00D07FE3189B022B00D111E3032B73
:1045200003D0012B01D000F01AFC00276FE3922288
:104530006249634815F028FF0FAD010008222800EA
:104540001DF094FC1C9B082B00D0CAE02A0021001F
:104550001998FDF743FC1C9B0A93984204D0E12272
:104560005849594800F048FE28781538052800D9E0
:10457000B9E021F0D7FD03131F4D78B268881A996E
:10458000FFF7C6FD002802D1882464425FE76988EE
:104590006A681B9803F0EAFE040058E768881A99D5
:1045A000FFF7B6FD0028EFD069886A681B9803F012
:1045B000E2FEF1E7C8231D9D5B0029009D4200D962
:1045C000190001201CF0FAFC071E00D18DE0002D1F
:1045D00004D12C0038001DF087F838E7C8232E00DE
:1045E0005B009D4200D91E0033003A00012119985A
:1045F000FDF7F4FB864202D089225200B0E7320078
:1046000039001B9803F0BCFE041EE3D1AD1BDEE7AE
:1046100000241D9B0CAA012119980C94FDF7DEFBC8
:104620001D9B0A93984201D09522E6E70C99012040
:104630000D941CF0C3FC051E57D001000DAB0C9A65
:104640001B9803F0CDFE041E0BD101000D9B2A0028
:104650001998FDF7F3FB04230DAA01211998FDF722
:10466000EDFB2800B7E700230DAA0D9301211D9B48
:104670001998FDF7B3FB1D9B0A93984203D11E992D
:104680000D9B994201D0A322B7E701201CF096FCB4
:10469000051E2AD01E9B020002211998FDF79EFBE1
:1046A0001E9B0A93984211D05222FF3258E7C0460F
:1046B000F07F0000B8470008A0470008989E02104D
:1046C000CC9C0210CC9E0210AC9C02100D9A2900CA
:1046D0001B9803F0B4FE0400C3E71B9803F024FD0D
:1046E0005AE7912451E786244FE78D244DE71B9824
:1046F00003F01AFD1B98002800D06CE7A7E674228F
:10470000B749FF3215E7B74CA1E60FAD010008220B
:1047100028001DF0ABFB1C9B082B00D00DE12A00EC
:1047200021001998FDF75AFB1C9B0A93984203D06D
:10473000CD225200AC4914E728780E38062800D95B
:10474000FDE021F0EFFC040A37689398CE00696819
:104750001B9803F001F80400A0E6C8231D9D5B0030
:1047600029009D4200D9190001201CF027FC071EDA
:1047700000D1E6E0002D04D12C0038001CF0B4FF7D
:104780008CE6C8232E005B009D4200D91E0033003A
:104790003A0001211998FDF721FB864201D0DB2266
:1047A000C7E7320039001B9803F01AF8041EE4D161
:1047B000AD1BDFE700241D9B0CAA012119980C9466
:1047C000FDF70CFB1D9B0A93984201D0E722B0E74E
:1047D0000C9901200D941CF0F1FB051E00D1B0E0F6
:1047E00001000DAB0C9A1B9803F004F8041E0BD1CA
:1047F00001000D9B2A001998FDF720FB04230DAA48
:1048000001211998FDF71AFB28001CF06DFF1B9879
:10481000FFF794FC42E600230DAA0D9301211D9B96
:104820001998FDF7DBFA1D9B0A93984203D11E9954
:104830000D9B994202D0EC22FF327BE701201CF055
:10484000BDFB051E7DD01E9B020002211998FDF7BD
:10485000C5FA1E9B0A93984201D0FB2269E70D9A84
:1048600029001B9803F012FC0400CDE71B9802F00E
:1048700025FF0400CBE700255C4B1A981A680D95BC
:104880001B99904202D15E68B14214D0DD68A84203
:1048900013D11E69B14210D101220D920C214A435D
:1048A0009B181A7A002101321A72199804230DAA52
:1048B000FDF7C4FAF2E52A00F0E700260D96B242B1
:1048C00002D15E68002E06D0002D33D11A69002A6D
:1048D00030D101320D920C256A4398509B185960D3
:1048E000DFE71D9B0DAA01211998FDF777FA1D9BA3
:1048F0000A93984202D0852292001BE70D9B1A9AD8
:10490000012B17D80C255D43384FEB599A4211D132
:104910007E19706800280DD01B9903F0D7FB337AFD
:104920000400013BDBB23372002B00D0B6E5EB5143
:104930007360B3E589246442B0E59124FBE78624E3
:10494000F9E78D24F7E71B9802F0B8FE1B980028C2
:1049500000D1A3E5FFF7F2FB1B980FE7244A224999
:10496000E7E5204C9AE50DAC0100082220001DF07F
:104970007DFA1C9B082B00D0D3E02200310019984F
:10498000FDF72CFA1C9B0A93984202D0194A1A4947
:10499000E7E520781B38062800D9C4E021F0C2FBE7
:1049A00004142E4B619EBD0060881A99FFF7B0FB7E
:1049B000002802D18826764298E5618862681B98B3
:1049C00004F0D6F8060091E560881A99FFF7A0FB7D
:1049D0000028EFD0618862681B9804F0CEF8F1E7F8
:1049E000CC9E021001000080DE9E0210A04700084D
:1049F00033020000930300001D9F02100021209C41
:104A000010220FA80C911DF031FA0CAB22000FA957
:104A10001B9804F0D9F8061E00D067E50C9B0FAA7E
:104A200001001998FDF70AFA04230CAA012119982C
:104A3000FDF704FA5AE51D9C102200210FA81DF075
:104A400015FA23000FAA01211998FDF7C7F984422E
:104A500001D0C54A9BE722000FA91B9804F092F8E9
:104A6000B0E700231D9E01203100209F0F931CF012
:104A7000A5FA041E12D00200330001211998FDF797
:104A8000ADF9864201D0B94A81E7390001201CF016
:104A900095FA051E04D120001CF026FE8D268AE71B
:104AA0000FAB019332000300009721001B9804F024
:104AB000B7F8061E0BD101000F9B2A001998FDF7CD
:104AC000BDF904230FAA01211998FDF7B7F92000B9
:104AD0001CF00AFE28001CF007FE07E50023209DBD
:104AE000012029000F931CF069FA041ED6D00100A2
:104AF0000FAB2A001B9804F0C7F8061E0BD101006B
:104B00000F9B22001998FDF799F904230FAA0121A0
:104B10001998FDF793F92000DDE71B9803F054FF87
:104B200050E7912647E7862645E71B9803F04CFFA0
:104B30001B980028CFD1D9E48D4A8E49F9E48E4ED6
:104B4000D4E41C9B91270A93102B00D087E0199E78
:104B50000FAC0100102220001DF088F91023220064
:104B600029003000FDF73AF91C9B0A93984202D0C5
:104B7000952292002CE060881A99FFF7C9FA002864
:104B800000D1E8E020782438032800D9E5E021F0BE
:104B9000C9FA025F95950023209901200D931CF01E
:104BA0000DFA041E5AD01D9901201CF007FA0600C8
:104BB0002000002E00D19FE01D9B3200012119989A
:104BC000FDF70CF91D9A03000A92904202D06B4A3D
:104BD0006B49C6E4209A0FA90DAD48880A9201924C
:104BE000029500943200109903F060FC071E05D175
:104BF00001000D9B22001998FDF720F91998042354
:104C00002A000121FDF71AF920001CF06DFD390082
:104C10001998FDF76BF98024099BA400234200D169
:104C20002EE13022002118A81DF020F918A920003B
:104C3000FCF758FF051E00D022E1189B022B00D183
:104C4000A4E0032B02D0012B00D043E1002413E1A8
:104C50001D9901201CF0B2F9061E02D18D277F425A
:104C6000D5E71D9B020001211998FDF7B7F81D9BA0
:104C70000A93984201D0A5227BE71E9901201CF0DF
:104C80009DF9051EEAD002001E9B02211998FDF72E
:104C9000A5F81E9A03000A92904201D0A82268E764
:104CA0001D9A6088019200962A00616803F0FAFC60
:104CB000070030001CF018FD2800A6E700231D990E
:104CC00001200D931CF07AF9051EC7D01D9B020030
:104CD00001211998FDF782F81D9B0A93984201D093
:104CE000284A75E7A3682099EB1801200A931CF065
:104CF00065F9061E03D128001CF0F6FCAEE7A36898
:104D000060886168E26824780B93A4466346209F1C
:104D10000DAC0494039702960192262B14D10A9BA2
:104D20002A0000930B9B03F073FD071E05D10100C1
:104D30000D9B32001998FDF781F804232200012110
:104D40001998FDF77BF8B4E70A9B2A0000930B9BA8
:104D500003F0D2FDE9E7882781E786277FE70A4A43
:104D60000749FFF7E6FBC046C6030000DD0300006D
:104D7000220400001D9F0210010000807302000049
:104D8000F19E0210BE020000F50200001C9E91245C
:104D9000242E41D1199F0FAC0100320020001DF0DC
:104DA00065F83300220029003800FDF717F81C9B36
:104DB0000A93984203D0B14AB149FFF7D2FB608809
:104DC0001A99FFF7A5F9002800D17FE02378223B4C
:104DD000012B00D97CE01D9901200D951CF0EEF807
:104DE000051E18D01D9B020001211998FCF7F6FF43
:104DF0001D9B0A93984202D0CC229200DCE7E36824
:104E00002099EB1801200A931CF0D8F8061E05D152
:104E100028001CF069FC8D2464422DE0E26823899F
:104E200060886168944622692478209F0B93230050
:104E30000DAC0694059704960392222B3CD10A9B55
:104E400000950293634614AA01930B9B03F09AFF0B
:104E5000041E0BD101000D9B32001998FCF7EEFFE8
:104E600004230DAA01211998FCF7E8FF28001CF083
:104E70003BFC30001CF038FC21001998FDF736F897
:104E80008024099BE400234200D19CE030220021D1
:104E900018A81CF0EBFF200018A9FCF723FE041E45
:104EA00000D090E0189B022B18D0032B02D0012BCE
:104EB00000D0D3E1002482E00A9B00950293634670
:104EC00014AA01930B9B03F0CFFFC1E78824A3E74B
:104ED0008624A1E76B4A6A49FFF72BFB1C9B0A93C8
:104EE000102B00D0B4E1199E0FAD01001022280054
:104EF0001CF0BCFF10232A0021003000FCF76EFFDD
:104F00001C9B0A93984203D05F4A6049FFF729FB34
:104F1000287B1A9E0238272800D99BE121F00CF942
:104F20007C004D015A0175018D019F00BC00DE001F
:104F300004013900700028009A019A019A019A012F
:104F40009A019A019A019A019A019A019A019A0189
:104F50009A019A019A019A019A019A019A019A0179
:104F60009A019A019A019A019A019A019A011A01E9
:104F700028883100209FFFF7CBF8002853D02888DD
:104F80000DA903F0F3FE041E19D13B000DAA210068
:104F9000A0E0288831001D9CFFF7BAF8002842D015
:104FA00023000DAA01211998FCF718FF844201D0B3
:104FB000374AAAE728880DA903F0B2FE04002100B1
:104FC0001998FCF793FF8024099B2401234200D108
:104FD00061E10021302218A81CF048FF18A9200028
:104FE000FCF780FD002800D055E1189B022B00D172
:104FF00038E1032B02D0012B00D089E1002446E1E7
:1050000028883100209FFFF783F800280BD02888DC
:105010000DA903F09BFEB6E7288831001D9CFFF721
:1050200077F8002802D188246442C8E721000120D3
:105030001BF0C4FF061E00D10EE102002300012177
:105040001998FCF7CBFE844201D0124A5DE728880C
:1050500023003200A96802F0A1FA040060E0288869
:105060003100FFF755F80028DDD0288802F0C2FA99
:10507000041EA4D12888FFF731F8A0E7160300002A
:105080000A9F02106A03000047040000359F0210C7
:105090006E0400009904000028883100FFF738F8FA
:1050A0000028C0D028880DAA0CA902F0BAFA209BCB
:1050B00004000A93032B05D904230CAA0021199894
:1050C000FCF7BCFE219B0A93032B00D877E704234F
:1050D00001210DAA1998FCF7B1FE70E7288831006C
:1050E000209CFFF715F800289DD0210001201BF01F
:1050F00065FF061E00D1AFE028880DAB220031000D
:1051000002F0B0FA041E05D101000D9B320019987F
:10511000FCF794FE04230DAA01211998FCF78EFEDA
:1051200030001CF0E1FA4AE728883100209CFEF7A5
:10513000EFFF002800D176E7210001201BF03EFFA1
:10514000061E00D188E028880DAB2200310002F055
:105150009EFAD7E7288831001D9F1E9CFEF7D8FFD6
:10516000002800D15FE73B000DAA01211998FCF748
:1051700035FE874202D0A222D200C6E68A4BAA6838
:1051800000269A4211D1B4420FD0210001201BF019
:1051900015FF061E60D00200230002211998FCF7BB
:1051A0001DFE844201D0814AAFE628880094330076
:1051B0000D9AA96804F06CF94FE7280004F054FB3D
:1051C000041E00D0FBE628883100FEF76BFF0223A7
:1051D0002A00DCE61D9B0DAA012119980E96FCF70A
:1051E000FDFD1D9B0A93984201D0A722C4E7042825
:1051F00004D06F4A6F49704815F0C6F82B000D991E
:105200000E9A686804F05BFBDAE71D9B0DAA01218A
:1052100019980E96FCF7E2FD1D9B0A93984201D067
:10522000664A72E6042801D0654AE3E72B000D992F
:105230000E9A686804F01EFBC2E728883100FEF76A
:1052400067FF002800D1EEE6288804F065FB0FE731
:105250009124E9E68624E7E68D24E5E6594A554996
:10526000FFF767F9209E012031001BF0A7FE051E05
:1052700052D0310004F0CAF8041E05D101003300F9
:105280002A001998FCF7DAFD28001CF02DFA2100FD
:105290001998FCF72BFE8024099B6401234215D04A
:1052A0000021302218A81CF0E1FD18A92000FCF70D
:1052B00019FC00280AD1189B022B30D0032B01D0F7
:1052C000012B3ED100211998FCF710FE099B9B048D
:1052D00001D5FEF747FF8024099BE401234201D159
:1052E000FFF75EF83022002118A81CF0BFFD18A9B6
:1052F0002000FCF7F7FB061E01D0FFF751F8189BC2
:10530000022B22D0032B01D0012B43D100243BE000
:105310002D4A2E49FFF70DF98D246442B7E72C4A38
:105320001368002B01DD013B136011680029C9D10E
:10533000182228481CF09AFDFEF7AAFE04F08AF90C
:10534000C0E7BA222449FFF7F4F880231C9CDB0055
:105350009C4223D8210001201BF030FE051E20D0E6
:105360000200230031001998FCF738FD844203D075
:105370001A4A1B49FFF7F5F82100280004F05CF8F1
:10538000040028001CF0B0F921001998FCF7AEFDCC
:10539000FFF706F8134A1249FFF7CBF88724644257
:1053A000F2E78D24FBE7C046000001701D050000F8
:1053B0003C050000359F02109A9F02104D05000029
:1053C0005105000075050000D2050000689F02101D
:1053D000B8470008A0470008B29E02109D050000D3
:1053E000529F0210A905000010B5041E04D1D3225B
:1053F0001249134814F0C8FF124816F07DFE0B2125
:10540000E061114A002803D1D8220C490F48F1E786
:105410004B01D31A6933FF3301391C600029F7D1DE
:10542000E2600B480B4A17F0CFFC6060002803D104
:10543000E22202490848DDE710BDC046D39F0210B2
:10544000C088021078A0021074030008F49F0210B4
:105450009D430010D404000834A0021080235B0197
:105460000360002070470000802310B55B01984264
:1054700002D100F0F1FB10BD0048FCE7E80300801A
:10548000BFF34F8F034B044ADA60BFF34F8FC04620
:10549000FDE7C04600ED00E00400FA05882030B5C5
:1054A000012187B04002FCF759F8002405002000D4
:1054B000A54215DD03AB049304230593033B00933E
:1054C000220004AB210028000394FCF7D9F88023C4
:1054D0001B06984200D103942800FCF755F9039865
:1054E00007B030BD10B5FFF7CBFF10BD036907B59E
:1054F000042B02D0802000060EBD01AA00214068C6
:10550000FCF76CFC0428F5D10198FFF7ADFFF3E739
:1055100073B5066A0500042E0CD101A8FFF79EFFA3
:10552000041E05D10100330001AA6868FCF786FC5F
:10553000200076BD80242406FAE70000036810B539
:105540000400022B05D0032B01D0012B07D1002131
:1055500001E0884701006068FCF7C8FC10BD4A22E2
:105560000149024814F010FFA4A002104384021065
:1055700070B58CB030220021684680261CF076FC85
:105580001025360631007020FCF76CFA0400284222
:1055900009D069462800FCF7A5FA0028F2D10E4987
:1055A0006846FFF7CBFF2020044208D06946FCF78D
:1055B00099FA0028E6D109496846FFF7BFFF402065
:1055C0000442DFD06946FCF78DFA0028DAD104499D
:1055D0006846FFF7B3FFD5E711550010ED540010F2
:1055E000E554001010B5041E04D170220F49104874
:1055F00014F0CAFE0F4816F07FFDE061002810D0BD
:105600000D4B0E4A9C629C649C60E36000210C4838
:1056100017F0DAFB6060002807D17F2203490948B0
:10562000E6E7752201490848E2E710BDB4A0021080
:10563000C088021048A10210F804000858050008AC
:105640007155001006A10210C8A00210184B984214
:1056500023D010DC174B984223D004DC164B984221
:1056600021D0842312E0154B984218D0144B984255
:10567000F7D18E230AE0134B984209DC124B984273
:1056800013DA124BC01892230128EAD85B4202E0D9
:1056900000239842E5D1180070478523F6E78C2354
:1056A000F4E79823F2E78723F0E79523EEE7C04677
:1056B0001201FF800201FF800101FF800701FF80CE
:1056C0000B01FF804601FF804501FF80E5FE007F62
:1056D000F8B53F240021A446069E154D6746374085
:1056E000EF5D4C1CE4B24754B6091BD13F27023191
:1056F0002336C9B2065516003E40AE5D92094654A7
:105700009E06324316004C1C9B09E4B21E430BD18B
:105710000231C9B20655132908D9B72205490648EE
:1057200014F012FC2100D9E72100E4E7F8BDC046DF
:1057300070A10210B0A10210FCA10210F0B589B056
:1057400003930023150006930268079301930593C2
:1057500005AB00939769082306AA04000E00B8471A
:1057600000280FD1059B01001848082B0FD1069A7D
:105770002B689A4204D80CD1079A6B689A4208D9D0
:10578000134804E0134B01219842F0D0124814F062
:10579000FBFD9A4215D22A0006A92000039B9847D8
:1057A00000280CD10022236800925F692A00082398
:1057B00031002000B847002805D00848E7E708482E
:1057C000E5E70029EED109B0F0BDC04626A20210DF
:1057D00072A202100701FF804AA20210BEA20210AC
:1057E000A1A20210F0B51D00012389B00F0010998D
:1057F00004001600994319D113002B4319D013222A
:1058000003A81CF033FB2B00320003A80097FFF71E
:105810005FFF109A236800925D690F9A0E9B03A99F
:105820002000A847FFF712FF09B0F0BD86204042D4
:10583000FAE78720FBE7F0B51D0013008BB00400EA
:105840000F0016002B4335D00021132205A81CF0B1
:105850000DFB32002B0005A80097FFF739FF2368E6
:1058600003AADB6905A92000984700281ED1039AE6
:10587000109B9A421ED311995B188B421AD39A42FD
:1058800002D28A20404213E0109A2368019202AAB1
:10589000009202909D69129A119B05A92000A847C9
:1058A000002803D1029B119A9342EAD3FFF7CEFE60
:1058B0000BB0F0BD8720E5E7F0B51E0013008DB0FA
:1058C000050003911700129C33431FD000211322BF
:1058D00007A81CF0CBFA039B3A00009307A83300FB
:1058E000FFF7F6FE2B6805AADB6907A92800984791
:1058F000002807D10123069A60601A4200D0636035
:10590000059B2360FFF7A2FE0DB0F0BD872040424B
:10591000FAE7F0B51D00130089B004000F0016006F
:105920002B4313D00021132203A81CF09FFA32004E
:105930002B0003A80097FFF7CBFE236803A91B6A7F
:1059400020009847FFF782FE09B0F0BD8720404253
:10595000FAE710B503681B699847FFF777FE10BD9B
:105960000020704770B50B4C2378BFF35B8F0A4D56
:10597000DB070CD4200014F0EBFD002807D020003A
:1059800014F00AFE054A0649280014F0D5FD280047
:1059900070BDC046808C0008888C0008C0000008DC
:1059A0009180011037B5FFF7DDFF0A4912F076FB51
:1059B0006A461100084B1860084B30CB30C10028F4
:1059C00002D1074814F0E0FC064B0749FFF7B6FE8A
:1059D00037BDC046ECA20210D88C0008E4A2021029
:1059E00009A30210615900102AA30210F0B50C4C53
:1059F0001F00236885B005001600002B01D1FFF7BA
:105A0000D1FF0C9B320002930B9B290001930A9B50
:105A1000009320683B00FFF7E5FE05B0F0BDC046EF
:105A2000D88C0008F0B50C4C1F00236885B0050029
:105A30001600002B01D1FFF7B5FF0C9B320002933B
:105A40000B9B290001930A9B009320683B00FFF702
:105A5000F2FE05B0F0BDC046D88C0008F7B5094C81
:105A60001F00236805001600002B01D1FFF79AFFE5
:105A7000089B3200009329003B002068FFF71CFFC1
:105A8000FEBDC046D88C0008F8B5084C1F0023683E
:105A900005001600002B01D1FFF784FF32003B0008
:105AA00029002068FFF735FFF8BDC046D88C0008F4
:105AB00010B5FFF757FF064912F0F0FA054B1860D2
:105AC000002802D1044814F05FFCFFF742FF10BD2C
:105AD000ECA20210D88C000809A3021030B58BB0DC
