:020000041000EA
:10000000000001085BCF01100D000000410E001040
:1000100000000000000000000000000000000000E0
:10002000000000000000000000000000D1AE011040
:10003000000000000000000055AF011061AF01108A
:10004000B5CF0110B5CF0110B5CF0110B5CF01105C
:10005000B5CF0110B5CF0110B5CF0110B5CF01104C
:10006000B5CF0110B5CF0110B5CF0110B5CF01103C
:10007000B5CF0110B5CF0110B5CF0110B5CF01102C
:10008000B5CF0110B5CF0110B5CF0110B5CF01101C
:10009000B5CF0110B5CF0110B5CF0110B5CF01100C
:1000A000B5CF0110B5CF0110B5CF0110B5CF0110FC
:1000B000B5CF0110B5CF0110B5CF0110B5CF0110EC
:1000C00010B5064C2378002B07D1054B002B02D02E
:1000D000044800E000BF0123237010BD081700088A
:1000E000000000009C030310044B10B5002B03D04C
:1000F0000349044800E000BF10BDC04600000000F6
:100100000C1700089C030310164B002B00D1144B56
:100110009D46402292029A1A924600218B460F4633
:100120001348144A121A21F039FE0F4B002B00D04D
:1001300098470E4B002B00D0984700200021040068
:100140000D000D48002802D00C481AF08FF921F05C
:100150002DFA200029001AF02FFD1AF00FFBC046DF
:1001600000000800000001080000000019AB0110A9
:1001700008170008D4BB00086DA40110000000009F
:1001800010B5041E04D166220F4910481AF094F8E5
:100190000F481BF049FF206200280FD00D4B0E4A7C
:1001A0009C629C60236100210C481CF0A5FD6060EE
:1001B000002807D1752204490948E7E76B22024964
:1001C0000848E3E710BDC04630820210508202109A
:1001D00000830210C400000804010008510200104E
:1001E000B28202106B82021010B5041E04D160228C
:1001F0000F4910481AF060F80F481BF015FF2062F5
:1002000000280FD00D4B0E4A9C629C602361002198
:100210000C481CF071FD6060002807D16F22044972
:100220000948E7E7652202490848E3E710BDC046F0
:100230003A83021050820210E48302102801000861
:1002400068010008550300109883021051830210C2
:100250000023F0B5354E85B003939A00B558002DB4
:100260000FD1334A019513608020000601F0A2FBF4
:1002700010220300104206D12E492F4821321AF0D5
:100280001BF80133E9E72D4C1020210001F0A0FB01
:100290002368022B05D0032B01D0012B41D1002173
:1002A0003BE0E368002B04D13822224924481AF0AD
:1002B00003F802ABDF1C3A0001230021606801F063
:1002C000F9FC012803D03C221A491E48EFE73B788D
:1002D000012B05D0022B18D04E2216491A48E6E70A
:1002E000134B1B68AB4203D9AF00F359002B03D16A
:1002F000422210491548DAE70021606801F062FDEA
:10030000F35903A898470190AEE70021042303AAFC
:10031000606801F0FFFC01990135606801F052FD51
:10032000A2E7572203490A48A9E7C0467C02000811
:10033000142000081E84021029840210E81F0008FF
:100340007C840210AF8402100A850210E884021037
:1003500032850210F8B58020000601F02BFB302317
:10036000184204D123223849384819F0A5FF102338
:10037000374C184005002100002844D0180001F037
:1003800027FB2368022B08D0032B01D0012B35D18A
:100390000021606801F016FDDDE7E6682369626907
:1003A000F3189B18002B03D12A2227492948DCE7A0
:1003B000300021F027F9051E03D1302222492648BA
:1003C000D3E7020033000021606801F073FC2B00CA
:1003D0007108AA194919013A8B4209D160683300A2
:1003E0002A00002101F096FC280021F015F9CFE742
:1003F000187817781F7010700133ECE74222124909
:10040000164819F059FF202001F0E2FA2368022B68
:1004100005D0032BBCD0012BBAD05E22EFE7606879
:1004200001F0E6FD0600431C03D14F2206490C48AB
:100430009BE72900606801F0C5FC14201AF0A2FDBA
:10044000300001F083FD86E75585021060850210BB
:1004500018200008BC850210EF85021032850210BA
:100460001186021070B5041E04D181220C490D487A
:1004700019F022FF0C4D2800FFF782FE0B48FFF712
:10048000B3FE0B4803F03AF80A4803F081FD0A482E
:1004900004F0D0FF094805F09FFB2560062070BDE1
:1004A00038860210488602108C010008B40100084A
:1004B000DC010008040200082C02000854020008B5
:1004C00030B58DB02C22002101A821F067FC8020DE
:1004D000000601F06FFA01A90500202001F078FA6A
:1004E000019C012C09D16D09AC43644202982100A2
:1004F00001F068FC20000DB030BD0124F5E710B517
:100500008CB02C22002101A821F048FC802000069C
:1005100001F050FA01A90400202001F059FA019BD2
:10052000032B0AD1630901249C43029864420021F1
:1005300001F048FC20000CB010BD0124F5E770B5B7
:100540000500072001F036FA8406E4172C60FFF757
:10055000B7FF002804D1FFF7D2FF002800D1200008
:1005600070BD000070B58CB02C220021050001A8E0
:1005700021F014FC8020000601F01CFA01A90600FD
:10058000202001F025FA019C012C0AD17609B44300
:1005900064420298044901F015FC20002C600CB064
:1005A00070BD0124F4E7C0460100008070B58CB036
:1005B0002C220021050001A821F0F0FB802000067C
:1005C00001F0F8F901A90600202001F001FA019CD0
:1005D000012C16D17609B443029801F009FD0130CF
:1005E000431E98414042644228600021029801F075
:1005F000E9FBFFF784FF002C01D0012040420CB042
:1006000070BD0124E8E730B58DB005002C22002133
:1006100001A821F0C3FBFFF753FF002821D1802060
:10062000000601F0C7F901A90400202001F0D0F96B
:10063000019B022B17D1630901249C43029801F00E
:10064000D7FC0130431E984140426442286000219B
:10065000029801F0B7FBFFF752FF002C01D00120F8
:1006600040420DB030BD0124E8E730B58DB0050043
:100670002C22002101A821F091FB34230093FFF7E5
:100680001FFF002827D18020000601F093F901A95F
:100690000400202001F09CF9019B022B1DD163096D
:1006A00001249C4304236A4601210298644201F01C
:1006B00001FB002802D1009B342B10D001235B42A8
:1006C0002B602100029801F07DFBFFF718FF002C42
:1006D00001D0012040420DB030BD0124E2E7286086
:1006E000EFE70000F0B591B02C220021070005A82B
:1006F00021F054FB0B2020F085FF041E04D1A22220
:100700003049314819F0D8FD0B22002121F046FB79
:10071000FFF7D6FE051E05D0200020F07DFF280043
:1007200011B0F0BD8020000601F044F905A90500D4
:10073000202001F04DF9059B022B35D16D09013BBD
:10074000AB4300252E005B420193AB0005AAD318F2
:100750002900A219DB68069801F0ACFA01353618B9
:10076000042DF2D1089B0293099B0393039A029BE9
:1007700094460A9A63449B180B9A9B1802920B2B7F
:1007800014D001235B423B600199069801F01AFBEB
:10079000200020F041FFFFF7B2FE019B0500002B77
:1007A000BDD001256D42BAE70123CAE70B2EE8D17F
:1007B00032000649200021F05FFE0028E1D13860B8
:1007C000E2E7C04664860210EF8502106D870210D2
:1007D000F0B58FB02C220021060003A821F0DEFA2C
:1007E0000B2020F00FFF051E05D10A222949FF32F8
:1007F000294819F061FD0B22002121F0CFFAFFF703
:100800005FFE071E05D0280020F006FF38000FB05D
:10081000F0BD8020000601F0CDF803A904002020DF
:1008200001F0D6F8039B0193022B1ED1630901242A
:100830009C430B232A000121049801F03BFA079BFB
:100840006442834213D001235B4233602100049849
:1008500001F0B8FAFFF753FE0700280020F0DCFE95
:10086000002CD3D001277F42D0E70124E1E7069A8C
:100870009B18089A9B1801920B2BE4D1AB79002BA3
:10088000E1D106220549280021F0F6FD0028DAD141
:100890003060DBE78C860210EF850210BB88021007
:1008A000F0B58FB02C220021070003A821F076FAC2
:1008B0000B2020F0A7FE051E05D19C2226495200E0
:1008C000264819F0F9FCFFF7FBFD061E05D02800AD
:1008D00020F0A2FE30000FB0F0BD8020000601F035
:1008E00069F803A90400202001F072F8039B01932A
:1008F000022B24D1630901249C4300220498110097
:1009000001F002FA2A0006000B230021049801F0EE
:10091000D1F964420200002E13D001235B423B60F8
:100920002100049801F04EFAFFF7E9FD06002800C7
:1009300020F072FE002CCDD001267642CAE70124B9
:10094000DBE70B28E9D10649280021F095FD0028B6
:10095000E3D13860E4E7C046B5860210EF850210A7
:10096000B6880210F0B58FB02C220021060003A833
:1009700021F014FA0B2020F045FE051E05D1682257
:100980002B49FF322B4819F097FCFFF799FD071E02
:1009900005D0280020F040FE38000FB0F0BD8020C8
:1009A000000601F007F803A90400202001F010F868
:1009B000039B0193022B2AD1630901249C43032347
:1009C0002A000021049801F075F905220700002192
:1009D000049801F099F9EA1C019008230021049879
:1009E000644201F067F9032F13D001235B423360A7
:1009F0002100049801F0E6F9FFF781FD07002800C7
:100A000020F00AFE002CC7D001277F42C4E7012452
:100A1000D5E7019B052BE8D10828E6D10B22064932
:100A2000280021F029FD0028DFD13060E0E7C04632
:100A3000D4860210EF850210AA880210F0B58FB09C
:100A40002C220021060003A821F0A8F9082020F09C
:100A5000D9FD051E05D1CC222B4952002B4819F097
:100A60002BFCFFF72DFD071E05D0280020F0D4FD3C
:100A700038000FB0F0BD8020000600F09BFF03A9F6
:100A80000400202000F0A4FF039B0193022B2AD135
:100A9000630901249C4305232A000021049801F0E6
:100AA00009F9042207000021049801F02DF96A1DBC
:100AB0000190022300210498644201F0FBF8052F05
:100AC00013D001235B4233602100049801F07AF9CE
:100AD000FFF715FD0700280020F09EFD002CC7D071
:100AE00001277F42C4E70124D5E7019B032BE8D10E
:100AF0000028E6D13A000649280021F0BDFC002874
:100B0000DFD13060E0E7C046F3860210EF850210C7
:100B1000A4880210F0B591B007002C22002105A88E
:100B200021F03CF900231D00019300938020000672
:100B300000F040FF2023184205D1CC224849494803
:100B4000FF3219F0B9FB05A9202000F041FF059EF6
:100B5000022E31D0032E61D0012E00D077E0079C09
:100B6000002C04D0E9223E4952003F48E9E7082022
:100B700020F048FD051E04D1D8223949FF323B48F8
:100B8000DFE7046046600100069801F04FFA009B21
:100B9000013300930021069801F014F9002CC5D010
:100BA000009B012B02D1019B052B56D001235B42F8
:100BB0003B60386811B0F0BD089B0293099B03931A
:100BC000039A029B944663441C000A9BE418029318
:100BD000002C04D0E2222249FF322548B1E7079BCE
:100BE000002B04D1E6221E49FF322248A9E7AB427E
:100BF00004D0EA22FF321A491F48A2E72B686A682C
:100C000001332B60534321006B602A1D0423069897
:100C100001F080F8019B01330193BBE7079B002B98
:100C200004D1FA220E49520014488AE7AB4202D09E
:100C3000FC225200DFE704ABD91C0A2306980B7094
:100C400001F0F4F9079820F0E7FC0124A2E7330053
:100C50000B4A03490B4819F02FFB0023A8E7C046B5
:100C60001C87021079870210BD870210EF850210E1
:100C7000E48702102088021049880210758802104B
:100C80000302000032850210F0B595B02C2200213D
:100C9000070009A821F082F83C2020F0B3FC041ED4
:100CA00005D1892237499200374819F005FB3C22CB
:100CB000002121F073F8FFF703FC051E05D020008A
:100CC00020F0AAFC280015B0F0BD8020000600F03E
:100CD00071FE09A90600202000F07AFE0C9D0D9BF4
:100CE0000E9AEB189B180292002B34D00123760940
:100CF000B3435B42029322002B0000210A9800F0CC
:100D0000D9FF0600152802D001235B4202932A0076
:100D10002100601920F0B0FF760005211B480594E2
:100D200006960794089600F077FB0390002814DCE1
:100D300001256D423D6029000A9801F043F820002A
:100D400020F06AFCFFF7DBFB029B0500002BB9D00B
:100D500001256D42B6E70123CBE7012207AB0092E4
:100D600005A9039800F0EAFB051E3860E3D103985B
:100D700000F068FC3300220029000A9800F0CAFF46
:100D8000D9E7C04643870210EF850210031A00001E
:100D9000F0B591B005002C22002105A820F0FEFF3F
:100DA000FFF78EFB002830D18020000600F002FE05
:100DB00005A90400202000F00BFE089B0293099B6C
:100DC0000393039A029B94460A9A63449B180292E7
:100DD000002B1CD10C9B0293002B18D1630901241A
:100DE0009C430521154800F017FB6442071E10DCE8
:100DF00001267642310006982E6000F0E3FFFFF7EF
:100E00007EFB002C01D00120404211B0F0BD012436
:100E1000E7E7002100910B000A0000F08FFB061E9F
:100E2000E8D180210820090600F0CBFD0307DFD5BB
:100E300001F0BEF8380000F005FCDBE7041A000002
:100E40002C4B05E02C4B03E02C4B01E02C4BFFE737
:100E5000EFF308802B4972460A4201D0EFF3098074
:100E60009C46294B196802680A60043142680A608E
:100E7000043182680A600431C2680A600431F0C13A
:100E800047460F6004314F460F60043157460F60EC
:100E900004315F460F60043102690A60083142691B
:100EA0000A60043182690A600431C2690A6004314F
:100EB00003462033154E324200D0043375460D4EA2
:100EC000354200D148330C46103C2360EFF30982D1
:100ED0000A600431EFF308820A60043172460A6046
:100EE0000431EFF314820A606046074900F05EF8AF
:100EF000FEE70000100000002000000030000000AD
:100F00004000000004000000C4880210000200003D
:100F100030B5002585B01A4CAB002900E2581948BD
:100F2000013519F02FF80D2DF5D1A36C1648029359
:100F3000636C0193236C0093E36BA26B616B19F0FC
:100F400021F8124B1248196819F01CF8E36C1B07C2
:100F500012D5104819F016F8236D0F48DB0700D49E
:100F60000E4819F00FF8E36C0D485B0700D40D48EC
:100F700019F008F805B030BD0B4819F003F8EFE799
:100F800018AA0008588902106689021000ED00E0D6
:100F9000B5890210C3890210D2890210DF890210BC
:100FA000028A02100E8A0210F289021013B50400A0
:100FB000154818F0E7FF302C17D0402C1AD0202C01
:100FC0001DD1124818F0DEFF114C124818F0DAFF5C
:100FD000FFF79EFF104818F0D5FF00230F4A00933B
:100FE000D26B0F49200019F08FF90E4818F0CAFF94
:100FF0000D4CEAE70D4818F0C5FF0D4CE5E70D482C
:1010000018F0C0FF0C4CE0E7C8880210F18802100D
:101010003E01FF801E8902102989021018AA0008CB
:1010200048890210008902103F01FF8009890210DF
:101030004001FF80148902103D01FF80F0B587B0A8
:1010400005000E000392002804D12C221E491F48DF
:1010500018F012FF002903D12D221B491C48F7E785
:1010600000F084FB00280FD00368019301212800C1
:1010700018F0F7FF071EF9D000246B88A34206D8AA
:10108000582211491348E3E701235B42EDE70023AF
:10109000059323043B430093230102936B682201D1
:1010A000981805A9009A18F0C9FF002801D1013449
:1010B000E3E76B68029A00989B18019ADE605A6019
:1010C000039A9A6007B0F0BD528A02109A8A021001
:1010D000448C0210B48A021037B5051E04D1612277
:1010E0001C491D4818F0C8FE002903D16222194985
:1010F0001A48F7E742880B0C9A4205D80092184923
:101100006822184819F0D8F81C0143681B598B4213
:1011100005D00B006C221249134819F0CDF800F0ED
:1011200025FB00280DD002686B681B195968914295
:101130000AD09968914207D0762209490B4819F0E4
:10114000BBF801225242EFE700225A609A601A600F
:1011500037BDC046528A02109A8A0210B88A02101D
:101160001A8A0210D48A0210208B02105B8B0210A4
:1011700037B5051E04D181221D491E4818F07CFE9A
:10118000002904D184221C491C4819F095F8428892
:101190000B0C9A4205D8009217498A22184819F078
:1011A0008BF81C0143681B598B4205D00B008E2223
:1011B0001149144819F080F800F0D8FA00280CD032
:1011C00002686B681C196368934209D0A368934254
:1011D00006D0982208490C48D7E701225242F0E78E
:1011E000E068002803D19D2201490848C6E73EBDBA
:1011F000528A02109A8A0210368A0210978B0210C5
:10120000D48A0210208B0210D48B0210228C021080
:10121000F0B5002106000D4B5D681B6810338D4250
:1012200001D1002010E000225F68BA4202D10131F2
:101230002833F4E71868540100190468A64201D065
:101240000132F2E70028F2D0F0BDC046E402000807
:1012500070B50D000121836804004942186A1AF034
:10126000F9FE5722002820D1E369002B0DD1A5619A
:10127000A368E561616858681BF068FD002806DA1C
:1012800066220C490C4818F0F7FD1D61F0E7636811
:10129000034203D1672207490848F4E7A368186AA4
:1012A0001AF0EEFE002803D06B2202490448EAE758
:1012B00070BDC046FB8E0210508F02106C8F021062
:1012C0003E8F0210F0B5050085B00E1E04D17022CD
:1012D0004249434818F0D0FDFFF79AFF041E05D19C
:1012E0002B0074223F49404818F0E6FF0369002BA9
:1012F0000ED13268C1688A4210D90293E3687A221B
:1013000001932368374900933848336818F0D4FFB5
:10131000012B03D13268C1688A42EED100F026FA6F
:10132000071E07D1237D002B1ED1236838223049A8
:101330003048D9E7816900290BD00022C0692368B1
:1013400082420BD13A682A4900922B48462218F073
:10135000B3FF03683D2226492848C5E795004D594B
:101360009D4201D00132EBE73A000C21300000F041
:101370001FFA002804D181221A49214818F09CFF45
:10138000204B002198691AF0CDF9051E10D11E4B93
:10139000B0687360002F07D01AF0DCFF002805D07A
:1013A0008A220E49194895E700F0E0FE05B0F0BD2D
:1013B000A36801001A681648FFF740FE0023154A8B
:1013C000706029002F606C60EE60AB602B61AA82B8
:1013D000AB752000FFF73CFFE8E7C046FB8E02102C
:1013E000978D02107E8C0210AA8D0210C78D0210FC
:1013F0005E8C0210208E02108D8E0210578E02100D
:10140000CB8E0210E4020008010000803E8F021023
:10141000EC02000801020000F0B510248DB004AD0C
:101420000F00220000210600280020F0B7FC002158
:1014300008AA0120089109910A950B94019702913D
:101440001AF04CFF0390002804D1B7220E490F4830
:1014500018F032FF01A93000FFF734FF0121039893
:1014600049421AF051FFBD22002805D103981AF015
:10147000A5FF002804D0C0220549064818F0FCFC4E
:1014800002980DB0F0BDC046908C02105F8D021026
:10149000FB8E02103E8F021070B50D1E04D1C922C2
:1014A0001F49204818F0E8FC01001F48FFF760FEC4
:1014B000041E03D1CB221A491C48F3E70268182105
:1014C000280000F075F9002804D1CE2218491948E7
:1014D00018F0F2FEA37D012B11D180231B062B6196
:1014E00023686869002B02D100F040FE70BD1AF03D
:1014F00031FF0028FAD0D82209490F48D2E720004E
:1015000004221530032100F009F902232375E56058
:101510000FCD00F0E9F821006068FFF799FEE5E7DC
:10152000FB8E0210978D0210EC0200082594021029
:101530009C8C0210CE8C02103E8F0210F0B510244D
:1015400091B00F00160000212200050002A80193AF
:1015500020F024FC002102AB0893019B06AA0C9307
:10156000169B01200691079109940A970B960D93FB
:101570000E911AF0B3FE0F90002805D18322104976
:101580005200104818F098FE0AA92800FFF784FFBF
:1015900001210F9849421AF0B7FE002805D0862293
:1015A00052000949094818F067FC0F981AF006FF25
:1015B000002802D01022FF32F3E70E9811B0F0BDE0
:1015C000AB8C02105F8D0210FB8E02103E8F02105A
:1015D00070B50D1E05D18C2214491548520018F023
:1015E0004BFC01001348FFF7C3FD041E04D11C226D
:1015F0000E49FF321048F2E702680821280000F087
:10160000D7F8002805D18F220C4952000C4818F059
:1016100053FE20000321153000F098F80323E56005
:10162000237521006068FFF713FE70BDFB8E02106A
:10163000978D0210EC02000825940210B48C021061
:10164000318D021070B504008AB0002832D0102508
:1016500002AE2A000021300020F0A0FB002106AAE3
:101660000120069107910896099500941AF036FE1C
:101670000190002805D1A1220F4952000F4818F00F
:101680001BFE69462000FFF7A3FF01210198494294
:101690001AF03AFE002805D0A42252000849094851
:1016A00018F0EAFB01981AF089FE002802D04C22BB
:1016B000FF32F3E70AB070BDC48C0210FB8C02103D
:1016C000FB8E02103E8F021010B5FFF7A1FD041E25
:1016D00001D1002010BD00F049F8002802D1237D7F
:1016E000002BF6D0E068F5E71FB5002801D10029EE
:1016F00006D1002A01D1002B02D1CC18042C08D924
:10170000029301920091030026220249024818F038
:10171000D3FD1FBD868F02108690021030B50F24B6
:1017200085B06C440D002170210018F073FC002876
:1017300006D123782F2200950249034818F0BCFDFA
:1017400005B030BD958F0210BF8F021007B503782A
:10175000DBB2994205D0009138220249024818F0C4
:10176000ABFD07BDAA8F0210BF8F021070B51BF032
:10177000D9FA002808D000220A4B5C681B68944202
:1017800007D10021080070BD5E220749074818F004
:1017900073FB190028331D00243D2D688542F1D0CC
:1017A0000132ECE7E40200082790021007900210D3
:1017B00010B5031E1DD0012300291AD041184C1E5C
:1017C0000023A04215D89A4215D1144A904210D94C
:1017D000134B984203D8134A0123914209D9124B63
:1017E000124AC0180023904203D8114A8A425B4132
:1017F000DBB2180010BDF8230E4A1B06C318934233
:1018000003D80D4A01239142F3D9F0230B4A1B065A
:10181000C01800239042ECD8094AE7E7FFFF000810
:10182000FF740408007504080000F8EFFF7F07004C
:1018300000800F10FFFF000000000108FFFF0700FD
:101840000000081010B51BF0DDFE0E4A18210A201A
:1018500019F052FF0C4CA061002803D10B490C4831
:1018600018F02AFD0B4A28210A2019F045FFE061F3
:10187000002802D105490848F2E72000FEF7F2FDF2
:10188000606010BDCC020008E4020008D89002108D
:10189000E5900210B40200081191021010B5024B3D
:1018A000186800F085FDFAE704030008F7B50700A3
:1018B0000D001600FFF75AFF002804D1CE221B4965
:1018C0001B4818F0D9FA0823C268846813431C43E4
:1018D000002F0AD12A001A40AA4207D00093DB2227
:1018E0002B001449144818F0E7FC2500802332002F
:1018F0001B069E4201D101225242022128001BF008
:101900007FFA03002000184098420AD08022120675
:10191000964202D00020023306D0E722034907484E
:10192000CFE7831C00D10020FEBDC0467A9502108F
:10193000BD950210A1910210DB95021016960210BF
:10194000F7B50C000100184817000193FFF710FCD1
:101950000600006805211530FFF7F8FE032C05D9B5
:101960009E2212495200124818F0A6FC731DDB7F1C
:101970000025A34215D9E4003619B568019B9D42A4
:1019800000D91D00002D0CD0002F04D02A00716852
:10199000380020F071F973685B197360B3685B1BE2
:1019A000B3602800FEBDC046F4020008B2910210E8
:1019B000E996021010B5020000210120FFF776FF22
:1019C00010BD10B50A0001000020FFF76FFF10BD29
:1019D000F0B593B005000391FFF7C8FE061E04D1D1
:1019E000F9229E499E4818F047FA02002C210398DC
:1019F000FFF7DEFE002804D1FC229A499A4818F02D
:101A00005BFC2C220021039820F0C8F9B268002D5D
:101A100004D06C1E2C4001D12A4207D100928422AE
:101A20002B0052008F49914818F046FC1BF0D8F962
:101A300028420AD02300726993420BD189222B00DD
:101A400088498B48520018F037FC0E228549FF3236
:101A50008848D4E731695C010C1961688D4201D076
:101A60000133E9E7002CE9D00121A3684942186A53
:101A70001AF0F0FA002803D0AD2278497E48B2E788
:101A8000A569002D03D1B3227C497D48B7E72B69B6
:101A9000A3612861002B10D1E36160681BF08AF913
:101AA000002803DABF226D4976489CE76368034249
:101AB00003D1C0226949744895E7A368186A1AF0EF
:101AC000DFFAC5220028D8D128002B7D1530022B43
:101AD00009D0032B21D00221012B1FD0972261496D
:101AE00052006A48AFE705220421FFF717FE2822BB
:101AF000002108A820F052F900222B7D0692022B2B
:101B000000D080E02A681821E868FFF751FE00281D
:101B100007D15B225E495F4871E71900FFF716FEA7
:101B2000E5E7EB685F681C689A68DB6839002000AD
:101B300004930592FFF7D8FDFBB20693002F2AD13C
:101B4000049B002B5FD0049B2A68D9000598FFF7FF
:101B50002FFE00284DD0FF0012ABDF193C000027FC
:101B6000059E243C73689C46002B46D0230032001F
:101B700003CA03C3039ABB00D31862466146DA6105
:101B800020682A68FFF714FE002836D13B00942213
:101B90003F49414857E7F9002A682000FFF708FE4F
:101BA0000026002807D16B2239493C4827E7013637
:101BB0000834B742C4D063689C46002BF7D020009D
:101BC00008AAF300D31807931A1D0AC80AC263466D
:101BD0000398B2008218D360079B2A686146586850
:101BE000FFF7E6FD0028E2D133007C2228492C488B
:101BF00029E7832226492B4801E7049B0137083651
:101C00000834BB42AED10121274B4942D86919F0B3
:101C100089FD011E03D19D221D492448EFE60D23B5
:101C200006AA9B18069A0895DA77020008AB51CBF2
:101C300051C251CB51C251CB51C21B681C481360D9
:101C40000022FFF7FBF92B7D039A1360AB68049326
:101C50001300049A58609A6013B0F0BD7A95021090
:101C6000BD950210AA910210259202104192021015
:101C7000A79202108B9202103E8F021083910210E5
:101C8000F5920210508F02106C8F02101593021003
:101C90006F91021045930210CC9302106A930210C8
:101CA00089930210AC930210E4020008F093021032
:101CB000F4020008F8B5140006000F001D00FFF73D
:101CC00055FD021E05D158220B49FF320B4818F072
:101CD000D3F829002000FFF76BFD002805D1AD22C5
:101CE00007495200074818F0E7FA2B003900300086
:101CF0002200FFF725FEF8BD7A950210BD9502106F
:101D0000BF9102107194021010B513000022FFF76A
:101D100017FE10BDF7B507000C0016001D1E41D0C0
:101D2000FFF724FD021E05D16D32FF321E491F4808
:101D300018F0A2F829003000FFF73AFD002805D17D
:101D400070221B491B48FF3218F0B6FA39001A48B6
:101D5000FFF70EFA0700006805211530FFF7F6FCC3
:101D60007B1DD97F0C19032C04D9BC2210495200C9
:101D70001248E9E7E4003C19A368AB4207D27E228F
:101D80000093FF322B000A490D4818F095FA2A00FB
:101D9000310060681FF070FF63685B196360A368BF
:101DA0005D1BA560F7BDC0467A950210BD95021077
:101DB000C891021071940210F4020008919602106A
:101DC000AC960210F7B507000D0001005248FFF76E
:101DD000CFF904680600002C05D18C224F495048E9
:101DE000FF3218F049F8E368002B04D1C6224B49B2
:101DF00052004C48F5E739004748FFF76DF92822B3
:101E0000002130001FF0CAFF474F3100F86919F078
:101E1000A9FCCB22061E00D07CE0200023681530F0
:101E20000193237D022B37D0032B4ED0012B67D19A
:101E30003E4B002D08D09D4206D0A0222B003C49ED
:101E40003C48FF3218F038FAE668B26800929D42CA
:101E50001AD10221FFF77AFC71683748FFF73CF985
:101E60001822002120001FF099FF2100B86919F005
:101E700079FCD92200284DD17560019B0098002B78
:101E800043D100F073F9F7BD03220221FFF746FCAE
:101E90000023E3602375F0E7284BEB187E2B05D871
:101EA000E0222B00520022492548CBE703220521DE
:101EB000FFF734FC80231B069D4201D10123A3754B
:101EC000E3681D615B690093E2E7E56819006A68F1
:101ED00000920122FFF722FC29681748FFF7FCF85F
:101EE0003100182220001FF059FF2100B86919F0B5
:101EF00039FC0028C1D0E222FF320849114870E7BE
:101F0000EA220B49FF3210489CE71AF023FA002816
:101F1000B9D0FB225200F0E7F40200087A950210D3
:101F200090940210AE940210E402000801000080B8
:101F3000D2910210D5940210EC020008FFFFFF7F3F
:101F40000F9502103E8F021046950210002170B5C9
:101F5000104A030050681268814204D10E4A0F49AA
:101F60000F4818F0A9F9140015682834AB4202D0C4
:101F700001312200F0E7002AF0D0082150681AF061
:101F8000E5FE002804DA074A0749084817F074FFFD
:101F900070BDC046E402000803020000DC9102109C
:101FA0003C9402100A0200007A950210508F021031
:101FB00010B508201AF0FEFE002804DA064A074988
:101FC000074817F059FF030704D4064A0649074893
:101FD00018F072F910BDC046130200007A95021085
:101FE000508F021017020000E7910210F1910210C9
:101FF000010010B50948FFF7BBF80368002B04D1B6
:10200000074A0849084817F037FF1B68002B01D022
:10201000186810BD01204042FBE7C046F4020008EA
:102020001E0200007A9502101994021010B50C00DF
:1020300001000348FFF79CF803689C6010BDC04690
:10204000F40200080C4B10B51B6858691AF082F9AD
:10205000002802D04422C31C09D1084B1B68186910
:102060001AF078F9002806D0C31C04D0472204498E
:10207000044817F001FF10BD08030008040300081E
:102080008E970210EC97021010B51BF0DBFB10BD11
:1020900010B51BF0D7FB10BDF0B5264B95B0264C04
:1020A000264D3822002106A80293039404951FF0C0
:1020B00075FE234B3C2205A9200005931FF0DCFD93
:1020C0003C2205A928001FF0D7FD0C2202A91D48BB
:1020D0001FF0D2FD1C4819F0A7FF061E04D19F2255
:1020E0001A491B4817F0C8FE1A4A002101201AF0AD
:1020F000F5F8071E03D1A22214491748F2E7174A40
:10210000002101201AF0EAF80190002803D1A5224D
:102110000E491348E6E713483B00320029000068E7
:1021200000F072F8104B019A2100186800F0AAF82C
:1021300015B0F0BD779A333D0C7504084875040856
:102140000C4A2863007504082C9702108E97021021
:102150004C97021014970210609702103C970210DF
:102160007797021008030008040300081FB5040055
:102170000C22002101A81FF011FE002103482200BB
:102180000B000068029400F0B1F81FBD08030008BE
:1021900030B585B0019001380C0002911500039212
:1021A000032824D823F056FF02070B0F1000FFF777
:1021B00089F805B030BD1000FFF76EF9F9E710009F
:1021C000FFF706FAF5E7002208212000FFF7F0FAF2
:1021D000002804D16C220849084818F06DF828003E
:1021E000FFF772FA20606068FFF7C0FFE1E7752231
:1021F0000349044817F040FE03970210459302106C
:102200008E9702102497021070B5002804D1242262
:102210001449154817F030FE002903D12522114931
:102220001248F7E7124C0D68A54203D026220D494B
:102230001048EFE7002A03D127320A490E48E9E7A0
:10224000002B03D1282207490C48E3E70C4C02611C
:1022500004600C1D44600C3104348460C16043612F
:1022600070BDC046389802108298021090980210F3
:102270000C4A2863A7980210529702106097021028
:10228000FFD948A210B5002804D1372210491148BF
:1022900017F0F2FD002903D138220D490E48F7E767
:1022A0000E4B0C689C4203D0392209490C48EFE7D9
:1022B000002A03D13A3206490A48E9E70A4B02618B
:1022C00003600B1D43600C3104338360C16010BD9B
:1022D0003898021082980210909802100C4A2863D5
:1022E000A79802107D97021042658BA6F0B585B0C5
:1022F00001AD041E01916A60AB6004D147222649FA
:10230000264817F0B9FD264B02689A4203D04822AE
:1023100021492448F5E701210069494219F09AFE54
:10232000002826D1FA2703267F00A2686168136877
:10233000086801338C46334083421ED00C2310685A
:102340004343E068C31883CD83C31368013333402C
:10235000136063461B68126801333340934201D116
:10236000FFF792FE206919F08BFE002811D05D2244
:1023700000E04B2208490C48C3E73900606919F0B6
:10238000C3FF022302309843CFD0502202490748AE
:10239000B7E705B0F0BDC046389802108298021029
:1023A000FFD948A2FE9802103E8F02102799021012
:1023B000F0B5050085B0002804D163221D491E48F0
:1023C00017F05AFD1D4B02689A4203D06422194946
:1023D0001B48F5E7FA210069490019F095FF02232F
:1023E000023098431DD0682212491648E8E70C21B4
:1023F0001368E8684B4301ACC3182000C2CBC2C0CD
:102400000321136801330B40136063461B68126895
:1024100002330B40934201D1FFF73AFE07CCFFF79E
:10242000B7FEAB686A689C4610681B689842DED1AC
:1024300005B0F0BD389802108298021042658BA654
:10244000D598021027990210F0B5214B85B01B6872
:1024500003900E0001920020012B08D01D4D1E4A52
:102460006B7829781B020B43934202D0012005B000
:10247000F0BD019A032AF9D933800423E978AA78B8
:102480000902114302912C1D7380F718029BEB186F
:102490009C4216D22388039A1B0B93420ED162886A
:1024A000738801999B188B42E0D8380021001FF0F7
:1024B000E3FB63887288FF189B1873806388002B86
:1024C00004D10122024B00201A60D0E7E418DDE7B6
:1024D000B42400089899021016200000F0B51E25BB
:1024E00089B0059300230F9F6D4404920E9E2B80AC
:1024F00006243F2F1BD92A001121012001F014FCD2
:102500000534002813D1109B2888043302930197C7
:102510000096059B049A094901F09AFB002809D00E
:10252000288801F035FC0A3C288801F031FC2000A5
:1025300009B0F0BD109B04001E60F5E7090007100C
:10254000F0B50F26A7B01F002D9B182201932E9BDC
:10255000002100932F9B08A802932C9D1FF01EFCC6
:10256000602200210EA81FF019FC04ABF6183300FE
:1025700008AA60210EA800F06FF8041E02D0072000
:1025800027B0F0BD0A990029F9D00C9B0393002BCA
:10259000F5D033780B9A3B60019B9A42EFD8280024
:1025A0001FF06AFB0D9A029B9A42E8D80C9900989A
:1025B0000B9E1FF061FB309A0D9B60C20099319A0F
:1025C00020000AC2DCE7000070B50C00061D0021E7
:1025D0000500042230001FF0E1FB0A4B3000E41834
:1025E00061426141072349421940074BC91801F074
:1025F000CBFA002801D1286070BD8630431E984177
:102600000330F9E7401901000200000113B5036827
:10261000040000910192002B05D1002903D0043061
:1026200001F0D2FA206013BD37B51C000368009199
:102630000192002B0DD1231D04300D0001F0DEFAB4
:10264000002803D10300256018003EBD05238A3011
:10265000FAD00423F8E70000F0B589B00293002314
:10266000160004AA971C01903A001121012007933B
:102670003B8001F059FB0123002822D1388806AAAB
:1026800005A901F00DFC002801D0388816E0059B53
:10269000484A190003921140474A9142F5D1474AEE
:1026A000069C1340464A93420ED1E40810342000A1
:1026B0001EF0A8FF05003888002D12D101F068FB3C
:1026C0000123180009B0F0BD3E4A934204D1032310
:1026D000E4085C434A34EAE70734E4086400013460
:1026E000E5E707AB2200290001F010FC002803D029
:1026F00028001EF091FFC8E70598039B2E4A03406F
:1027000093424BD180B21738072847D823F0A2FC58
:10271000043E4046464642440123029A1370079BFA
:10272000581E400825F02AFD1EF04CFB23F0DAFE6F
:10273000079B0400581E400825F020FD1EF042FBB8
:1027400023F0D0FE002C2FD000236A1CE918497812
:10275000019FF9540133A342F8D13B19B760F460EB
:102760000193002824D000231419E25C0199CA5473
:1027700001339842F9D13161706128001EF04CFF9D
:1027800004AB588801F004FB00239AE70223C4E756
:102790000323C2E70423C0E70523BEE728001EF099
:1027A0003BFF04AB588889E7B460F4602A00D8E79F
:1027B0003061E1E70000FFEF00000360FFFFFFEF83
:1027C0000000016000000260024B1B6803600020F3
:1027D0007047C0461847000803207047F0B589B01D
:1027E00002AB01249D1D0023070001910C702A00FB
:1027F000112120002B800693079301F095FA002801
:102800004BD1288805AA04A901F04AFB002840D131
:10281000049B264A26491A408A423AD1254A059CF9
:102820001340254A934227D1E408103420001EF0BB
:10283000E9FE061E2DD0288806AB2200310001F0EB
:1028400065FB00282FD11D4907A801F09DF900283C
:1028500029D1069A310007A801F0B6F901993B0089
:102860000131202207A801F0C9F90400601E84414B
:1028700030001EF0D1FE0DE0114A934204D1032333
:10288000E4085C434A34D1E70734E40864000134C7
:10289000CCE70124288801F07BFA20003B68013353
:1028A0003B6009B0F0BD0124E2E7C0460000FFEF45
:1028B00000000360FFFFFFEF00000160090000015E
:1028C00000000260032070470B0010B50268034946
:1028D00018001FF0D1F9002010BDC04677990210F2
:1028E00010B502F083FDC02203009201904209D08E
:1028F0000AD880225201904204D080229201934251
:1029000000D00023180010BDA022D2019042F9D0BF
:10291000C022D2019042F5D08022D201EFE7000020
:102920000C230360004870476A9902100D2303606E
:10293000004870475C990210484248418000704747
:10294000F0B50E258BB0039302ABED180290002377
:1029500001200F00160011212A00288008930993F6
:1029600001F0AEF9041E3FD1354A364908A801F0FE
:1029700037FA288808A901F035FA041E34D1324A02
:10298000330C1B04934258D1029B2888002B2ED075
:10299000202F24D13B00029A310001F051FA041E8D
:1029A0001FD1288806AA07A901F07AFA041E18D1B7
:1029B000C0228021079BD2051A40C9058A421ED138
:1029C000069BDE1DF6082888119B109A039901F0DA
:1029D0009DFA041E05D1119B1B68B34201D98724BF
:1029E0006442288801F0D4F920000BB0F0BD8022A9
:1029F000009423005200310001F08EFACFE7134A11
:102A000013491A408A4203D1069BDE081036DAE7E2
:102A100010498A4205D10326069BDB085E434A36ED
:102A2000D1E70D4A060013400C4A9342CBD1069BD6
:102A3000DE1DF60876000136C5E787246442D3E739
:102A400009000710010C000000000370FFFFFFEFFA
:102A500000000160000002600000FFEF0000036062
:102A6000F7B51600020005001F00089B98320C0005
:102A70001160566006CB00F079FF2800E10FA0300E
:102A8000009533003A0000F025FB041E04D0033CFF
:102A900060424441E01CFEBD0221280000F0B4FF6A
:102AA0002800052100F0B0FF2000F4E77047D0B502
:102AB00016001F000400CB170A0000F06CFF320064
:102AC0003B00200000F067FFD0BD73B5050016681D
:102AD0005468CB170A0000F05EFF32002800230084
:102AE000022100F06CFF73BD73B5050016685468D1
:102AF000CB170A0000F04FFF32002800230003210B
:102B000000F05DFF73BD7FB5060000220D000521BA
:102B100000F09BFF6A460221300000F096FF300073
:102B20000099A030019A00F0E1FB002805D003389D
:102B300043425841033004B070BD02AC2100300064
:102B400000F0D0FF03000128F5D00220002BF2D1C5
:102B500006CC06C51800EEE7242808D003D82028A4
:102B600005D004207047302801D04028F9D100203A
:102B7000F8E710B51FF080F810BD0000F0B51D009B
:102B80001C4B87B00291039219881B4A0190914215
:102B90002CD15A882968D3180093184C002907D0E3
:102BA00005AC20000422FFF7E4FF64882B681C19A1
:102BB0003F27009B9C4201D3002013E005AE042276
:102BC00021003000FFF7D5FF338801989A113A4071
:102BD0007188824208D101201F40029B1F70039B15
:102BE0002C60198007B0F0BD6418E2E70120404274
:102BF000F8E7C046B824000816200000BC240008EE
:102C00000023F7B506000F00150013606B46DC1DAE
:102C10003A002B0021000020FFF7B0FF012802D16D
:102C20002378B342F2D1FEBD37B51400022907D094
:102C300004290ED0012912D10378236000203EBD63
:102C40006B469D1D0A0001002800FFF792FF2B88AC
:102C5000F3E70A0001002000FFF78BFFEEE70120F9
:102C60004042ECE737B513000400092927D80800D3
:102C700023F0F0F91012142325252525050B022138
:102C80002000FFF722FF00203EBD06212000FFF7B5
:102C90002BFFF8E70421F9E70521F1E701AA03CBAF
:102CA000FFF7C2FF05000520002DEDD1019A2B0092
:102CB00003212000FFF7FBFEE5E70121E6E7052001
:102CC000E2E70000F0B54368CFB0060007920024A9
:102CD000242B03D103681C6A2023436007220723A7
:102CE000009122405B4221001CA8FFF7B9FE00289A
:102CF00006D00224012800D0052420004FB0F0BDEA
:102D00003200BD491CA8FFF7E0FE8023DB051C4014
:102D100000D02BE10822210011A80FAE1FF03EF8D1
:102D200010AA310020001094FFF76AFF012800D09C
:102D300025E1109B043311933388043B11AAAF495A
:102D40001CA81293FFF7C1FE11A8FFF7E9FD13AE0F
:102D50001390002806D0119B3200A9491CA873606B
:102D6000FFF7C2FE11A8FFF7E1FD1390002806D07F
:102D7000119B3200A3491CA87360FFF7B5FE212305
:102D8000310010A81093FFF729FD0324071EB4D1CA
:102D9000109B11AA9C491CA812931196FFF795FE4F
:102DA00012233900082211A80F931EF0F7FF109785
:102DB0000EAF10AA39000120FFF722FF012800D032
:102DC000E9E0109B043311933B88043B11AA8F491F
:102DD0001CA81293FFF788FE202313AE10AF31001A
:102DE00038001093FFF770FD0324002800D084E71B
:102DF000109B11AA86491CA812931196FFF765FE35
:102E00003000FFF7E1FC041E00D076E7139B139A15
:102E100080491CA8DB17FFF74AFE32003900022068
:102E20001394FFF7EDFE012800D0BEE03988139B14
:102E30000439181D11AAFFF7F7FE002800D05BE740
:102E4000119B9AB2C023DB019A4200D954E70023B8
:102E500071491CA8FFF72BFE0123002503930023D3
:102E600012220C936B4606A952180F211B7B06A851
:102E7000049309180CAB0498FFF780FE431C00D1A3
:102E800084E0012865D10135012D0CD11CA8FFF784
:102E90000DFE0123614A5B42059000F07CFD042198
:102EA000059800F0B1FD0C9B0DAE19000422300016
:102EB0000E93FFF75EFE3F2273880BAC23803388AE
:102EC0000AAF13401CA83B70FFF7F0FD05210690E8
:102ED000002600F099FD3978CB087AD0002E29D150
:102EE0000E9B0FAE1900042230001093FFF741FE35
:102EF0001623728806A95B181A803F2233881CA803
:102F000013402E3A52181370FFF7D0FD112306AA72
:102F10009B181978CB084CD1162206A952181121FA
:102F200006A8091810AB0498FFF728FE0130012805
:102F3000ECD8012622000EAB39000498FFF71EFEE4
:102F40000200431C05D00028C5D10521069800F0D9
:102F50007CFD039B01330393072B00D07FE7002DFB
:102F600042D000220421059800F06FFD07991CA8AB
:102F7000FFF7C9FD0024A04200D0BAE6BDE613ACBD
:102F800021002020FFF728FC002801D00324B4E60C
:102F900011942023D2E631000FA8FFF793FC0028FC
:102FA00000D0AAE611960F9B10E7FFF799FC0200EC
:102FB00048E7109B06AA0433139316239B181B881B
:102FC00013AA043B1CA81493FFF74CFE0028A3D0BF
:102FD000AFE70E9B11AA0433119323881CA8043B6E
:102FE0001293FFF73FFEA5E7012200230C491CA81E
:102FF000FFF75DFDBAE7C04600DBFEFF04DBFEFF26
:10300000FEDAFEFF08DBFEFFFFDAFEFF03DBFEFF5A
:1030100005DBFEFF07DBFEFF06DBFEFF02DBFEFF3C
:1030200001DBFEFF802210B5920002490120FFF76C
:103030000BFA10BDB824000870B5136886B0456857
:1030400006680293536828001400009601950393C4
:10305000FFF782FD002818D1012229003000FFF778
:103060006BFC002811D1022203990298FFF764FC3F
:1030700000280AD104AA02A96846FFF723FE002807
:1030800003D1049B2360059B636006B070BD000004
:10309000002110B5036886B01B6814680091029186
:1030A00052680B49019303910420032A0DD918009B
:1030B000FFF752FD002808D104AA02A96846FFF7CD
:1030C00001FE002801D1059B236006B010BDC0465B
:1030D000FFFFFF7FF0B5824C0500A54410001F00E4
:1030E0000E00079200F066F97E4B0124984266D0EC
:1030F000079BEF61AB612B19DE778A9B6B62002E19
:1031000062D0202123A80FAA0D900E9100F0D0F9D3
:10311000041E54D1002312228A9800F070FC04216E
:103120008A9800F071FC102229003EA81C921B9581
:1031300000F01CFC05213EA800F066FC01220023E3
:103140003EA800F028FC079B079ADB173EA800F07A
:1031500022FC2BAE05213EA8220000F076FC3100B7
:103160003EA800F0BFFC002800D0B6E02B9B2C9AB4
:103170002B616A61002B22D02B003200103303CB6D
:1031800003C2022173682B9A8A9800F018FC0F9EE4
:10319000109D05218A9800F037FC042200238A98AC
:1031A00000F0F9FB320002218A982B003E963F95F1
:1031B00000F005FC002205218A9800F046FC200062
:1031C00085239B009D44F0BD20212BAB09934B230D
:1031D0000C910E9117A923A805911BAA0FA90A9378
:1031E0000B920D900491119612960DAA02A911CA84
:1031F00011C16A460BAB03CB03C208AB31003200EE
:103200003800FFF79DF9041ED9D10A9A09993EA802
:1032100000F0ACFB05213EA800F0F6FB01220023E4
:103220003EA800F0B8FB022200233EA800F0B3FB4A
:10323000089E01225242D317F7173EA800F0ABFBBD
:1032400032003B003EA800F0A6FB0F9E109F02221A
:103250005242D3173EA800F09EFB3B0032000221F1
:103260003EA81396149700F0AAFB179E189F0322FE
:103270005242D3173EA800F08EFB3B0032000221E1
:103280003EA81596169700F09AFB220005213EA84D
:1032900000F0DBFB19A93EA800F024FC0234002852
:1032A00000D08CE7199B104917931A9B3EA81893DE
:1032B00023AB199320231A93FFF786F9041E00D03D
:1032C0007DE71799189A3EA8FFF7A0F90FAB199957
:1032D0001A9A3EA8FFF7A8F91AE72200230047E749
:1032E000ECFDFFFFFFFFFF7FC0E6FEFFF0B5ADB0D6
:1032F0000992402204000EAD08916A6014A9203A98
:103300001CAE11920E96109108AB02A8944684CB85
:1033100084C023006846103384CB84C00AAB624665
:10332000A06900F055F8059000282ED1631CDB7FC2
:10333000002B2FD040270A9B0B9D0693731B0495EF
:1033400007933A00AF4200D92A00079B04997F1BDC
:10335000581806991EF090FC049B049A5B193F2AAA
:1033600016D940230C960D93656A08220CA912A861
:103370001EF082FC129A02212800139B00F01FFB12
:1033800000220421606A00F060FB05982DB0F0BDBA
:103390000493D6E70CAB02936B4606CD06C30A9A9C
:1033A0000B9BE169A069FFF799F80028DCD0059034
:1033B000EBE70000073043425841034B40421840BE
:1033C000024BC0187047C046C1E6FE7FFFFFFF7F7B
:1033D000F0B5354C0700A5440091019213A92122B4
:1033E0001CA81D0000F0C2FA04211CA800F00CFB70
:1033F0002E4C8EAE20001FF00DF82200002403009A
:1034000003211CA800F0DBFA0FAB06CE06C31CA8F4
:103410000F9A8F9B022100F0D2FA22002300022192
:103420001CA800F0CCFA2200230002211CA800F006
:10343000C6FA2300220002211CA800F0C0FA2200D4
:1034400004211CA800F001FB05A91CA800F04AFB00
:1034500003001420A3421ED13800FFF7ABFF010088
:1034600042A8FFF7B1F8A04215D106998A1E9142F1
:1034700015D2079008900799089A42A8FFF7C6F856
:103480009099726842A8FFF7C1F82B000099019A41
:1034900042A8FFF7C9F889239B009D44F0BD059B16
:1034A00008920793E7E7C046DCFDFFFF649A02102D
:1034B00070B5202492B00AAE0290039115000E4917
:1034C000220030001EF0D8FB6A460994089608AB2B
:1034D00003CB03C204AC039A02992000002300F03E
:1034E00079F9230006CB06C5236807205A425341C9
:1034F0005B42184012B070BD449A021010B5041E11
:1035000004D178220F49104816F0D6FE0F4818F063
:103510008BFD2062002810D00D4B0E4A9C629C64EB
:103520009C60236100210C4819F0E6FB60600028D4
:1035300007D1872203490948E6E77D220149084867
:10354000E2E710BD6F9A021050820210209B021019
:103550000C0300086C03000865350010DC9A0210AB
:103560009C9A0210F0B597B080200006FEF722FA70
:1035700010230700184249D02C2200210BA81EF06E
:103580000DFC0BA91020FEF723FA0B9B022B05D094
:10359000032B01D0012B62D1002433E00E990120CE
:1035A0001DF0A4FC051E1AD00E9B020000210C98F1
:1035B000FEF780FB0E9B0393984207D028001EF075
:1035C0002BF841227D497E4816F076FE12990120A3
:1035D0001DF08CFC061E04D128001EF01DF80524E9
:1035E00010E00E9B07950893129B099003930A9392
:1035F000FFF718FD041E1ED028001EF00DF8300045
:103600001EF00AF821000C98FEF7DCFB202427426C
:103610005AD02C2200210BA81EF0C0FB0BA92000C1
:10362000FEF7D6F90B9B022B1ED0032B01D0012BEA
:1036300061D1002444E00C98FEF7DAFC614B09AA42
:103640001860012307A81900FFF7F6FC041ED3D168
:1036500001000A9B099A0C98FEF75CFBCCE76122FB
:103660005649594816F028FE05AC0E9B2200002151
:103670000C98FEF71FFB0E9B0393984202D07C220E
:103680005249A0E706AB0993129B07940890039355
:103690000A93FFF7C7FC041E12D10C98FEF7A8FC92
:1036A000484B09AA1860012307A81900FFF7F0FC8E
:1036B000041E05D101000A9B099A0C98FEF72AFB0B
:1036C00021000C98FEF77EFB4024274200D14BE7F7
:1036D0002C2200210BA81EF061FB0BA92000FEF795
:1036E00077F90B9B0021022B08D0032B01D0012B73
:1036F00061D100255AE091223449B2E70E9B07912F
:103700009125042B1CD109AA0C98FEF7D3FA0E9B25
:103710000393984202D0B2222D4954E71299012016
:103720001DF0E4FB061E0AD00F9900291CD00120D1
:103730001DF0DCFB041E05D130001DF06DFF8D2552
:103740006D4233E00F9B020001210C98FEF7B2FAA4
:103750000F9B0393984208D030001DF05DFF2000BE
:103760001DF05AFFC722D7E70C00129B07AF039347
:10377000009301973300099A0F992000FFF7E0F8B2
:10378000051E05D10100079B32000C98FEF7C2FA16
:103790000C9804233A000121FEF7BCFA30001DF01A
:1037A0003BFF002C02D020001DF036FF29000C98B2
:1037B000FEF708FBD8E6E022054952E74C9B0210D1
:1037C000919B02101847000832850210619B02107D
:1037D0007B9B0210F7B5050000911C00934203D8B3
:1037E000099ED21AB24204D200232B606B602800DB
:1037F000FEBD009F3200F8180899A4191EF03CFA8B
:103800002F606C60F3E7000082B06B465A60054A97
:103810000091828100228260827306CB06C002B0D2
:103820007047C0460F0B000073B5009101921E0057
:10383000837B0400002B05D1124B82899A4202D06F
:103840000123A37373BD826843689A42F8D8019D2F
:103850009B1AAB42F4D3B242F2D3921B06D001685A
:10386000002903D0891948191EF04AFA2068002857
:1038700004D080192A0000991EF042FAA3685D194D
:10388000A560DFE70F0B00008B7B10B5002B03D08A
:1038900000230360436010BD054A8C89944202D026
:1038A00001228A73F5E78B6843600B680360F2E7D7
:1038B0000F0B0000F0B515248BB0119D04AB0290E6
:1038C000039100921098E418002D30D117282ED8BB
:1038D000002A2FD12100C0B2039B01395B01C0181F
:1038E0000870621A129B0298FFF79EFF0BB0F0BDA2
:1038F000114EF75CFE438E1901960E00019A013EAF
:1039000096420ED1009A0133D21BC91B0092DBB242
:1039100006002E43ECD1009A002AE9DC1733D8B216
:10392000DAE72A063070000A10432D0AE6E7002382
:103930002100EDE72B00FBE7B19B02101FB5846867
:103940000092019302940022FFF7B4FF1FBD000014
:103950008388054A0321D21A012A02DD002101339E
:10396000838008007047C046FEFF000013B50400C6
:1039700000910192002198221EF010FA019A0099FC
:103980002000FFF741FF22002300143294331A6015
:103990000423A37613BD10B5017C040000290DD1CA
:1039A000002B02DAD243DB4301312000FFF7C6FFD0
:1039B000230094331868FFF7CBFF207410BD30B597
:1039C00085B06D4600926B60037C0400002B14D11F
:1039D000092902D0019AFFF7B1FF2A0002AB03CAFE
:1039E00003C32000A36802996A68FFF71DFF230044
:1039F00094331868FFF7ACFF207405B030BD10B5E4
:103A00000621FFF79BFF10BDF8B5050094350400B3
:103A100028680E00FFF79CFF2074002805D1A768D6
:103A20003B00663302D907232374F8BD22002B68BC
:103A30008C320221934206D01A00010008322A601B
:103A400098819F609E732174EFE7F0B5037C89B085
:103A500004000D001700002B08D106000200943668
:103A600033681432934203D10423237409B0F0BDA8
:103A70009A798A4201D01023F7E71A680492826883
:103A80000592022924D11300049A981A049B0090ED
:103A900002930023290001931A002000FFF70AFF78
:103AA000002F11D0210006A8FFF7EEFE059A049B17
:103AB00006999B1AA2689B18079A93420FD8D21AAC
:103AC000002900D0C91806C73368083B3360CDE72A
:103AD0000339988889B222F0D1FA80B2D6E7002261
:103AE0001100F0E773B5057C0E00002D0FD1030027
:103AF00094331A68803B9A420BD1837B002B0AD106
:103B00006C4601002000FFF7BFFE0CCC0CC628005D
:103B100076BD0A25FBE70125F9E70000F0B50700AF
:103B200012208FB0039314AB1E7802AB0D000292EB
:103B300000210E22C0181EF031F910230593029BBC
:103B400006AC0B93039B01210C9304230D482780A3
:103B5000267304940A950D93FDF75EFC041E0DDD9B
:103B600002230122009304A90AABFDF7E7FC05003C
:103B70002000FDF767FD28000FB0F0BD91256D42D4
:103B8000F9E7C046060F000030B50E22002487B0CA
:103B900002AB5C801A700493082305000391094866
:103BA00001210593FDF738FC2860A04207DD009451
:103BB0002300012204A9FDF7C1FC07B030BD91200C
:103BC0004042FAE7020F000030B500230F2589B00C
:103BD00002AC638025700494082400680393059464
:103BE00006910792984206DD0093022204A9FDF790
:103BF000A5FC09B030BD89204042FAE770B5002528
:103C000010268EB004000392100004AA558016708E
:103C100006920822079203AA089204220B902068B9
:103C2000059509920A910C930D92A8420DDD023A76
:103C300000920AAB06A9FDF781FC06002068FDF79B
:103C400001FD256030000EB070BD89267642F9E78F
:103C5000F0B5102591B004AC07000E0002920021CF
:103C60002A00200003931EF099F824232370029B5E
:103C700001210A93039B11480B93169B67800C93B9
:103C8000179B66600D93189B08940E930423099567
:103C90000F93FDF7C1FB041E0CDD02220CAB00925A
:103CA00008A9FDF74BFC05002000FDF7CBFC280020
:103CB00011B0F0BD91256D42F9E7C046030F000039
:103CC00070B506001A2015008EB003910E22002157
:103CD00068441EF063F82B8806AC102223800495FC
:103CE000042302250B92012103AA0E486660237368
:103CF0000A940C920D930595FDF78EFB041E0DDDC5
:103D000001232A0000930AA904ABFDF717FC050064
:103D10002000FDF797FC28000EB070BD91256D4284
:103D2000F9E7C046060F000070B506001A2015001E
:103D30008EB003910E22002168441EF02FF82B88CC
:103D400006AC2380052323730B330B9303AB0C9337
:103D500004950423022501210C4866600A940D9302
:103D60000595FDF759FB041E0DDD01232A00009384
:103D70000AA904ABFDF7E2FB05002000FDF762FC99
:103D800028000EB070BD91256D42F9E7060F0000C6
:103D900030B50500122089B00E22002168441DF0C4
:103DA000FDFF062304AC237301210A330B48258051
:103DB00002940393FDF730FB041E0CDD0023012267
:103DC000009302A9FDF7BAFB05002000FDF73AFCBD
:103DD000280009B030BD91256D42F9E7060F0000BB
:103DE00006C0704770B506000A208AB00C000E228B
:103DF000002168441DF0D2FF0B2302AD2B73053365
:103E000007930894631E9C410121E4000B48099428
:103E10002E800695FDF700FB041E0CDD0023022218
:103E2000009306A9FDF78AFB05002000FDF70AFCB8
:103E300028000AB070BD91256D42F9E7060F000019
:103E4000F0B507000A200E008DB0039302AB1500F9
:103E500000210E22C0181DF0A1FF102304ACA660A3
:103E600002260993039B01210C482780267308949E
:103E70000A950B93FDF7D0FA041E0CDD00233200E7
:103E8000009308A9FDF75AFB05002000FDF7DAFBB7
:103E900028000DB0F0BD91256D42F9E7060F000036
:103EA000F0B5070012208DB00D00140000210E2285
:103EB00068441DF073FF082304AE3373DB180393CB
:103EC00008950A946B1E9D41631E9C41AD00A400A1
:103ED00001210D480B94378002960995FDF79CFA55
:103EE000041E0DDD02230122009302A908ABFDF799
:103EF00025FB05002000FDF7A5FB28000DB0F0BD57
:103F000091256D42F9E7C046060F000013B50A245B
:103F10000094FFF703FE16BDF0B5070012208FB026
:103F20000E00039200210E2268441D001DF036FF92
:103F3000292304AC2373193B099303AB0A9304238D
:103F400027800B93A6600894149B002D04D1002BAE
:103F500004D08724644214E0002BFAD0149B012182
:103F60000A480C950D93FDF757FA051E0CDD00234A
:103F70000322009308A9FDF7E1FA04002800FDF7E9
:103F800061FB20000FB0F0BD9124E3E7060F0000B5
:103F900010B5041E04D1D4221249134816F08CF92E
:103FA000124818F041F80B212062114A002803D171
:103FB000D9220C490F48F1E74B01D31A6933FF337B
:103FC00001391C600029F7D122610B480B4A18F017
:103FD00093FE6060002803D1E32202490848DDE730
:103FE00010BDC046B59B0210508202105C9C0210AE
:103FF00090030008D89B02103D430010F004000815
:10400000189C0210802210B55200002101481DF0BA
:10401000C5FE10BD80870008802210B55200002127
:1040200001481DF0BBFE10BD80870008002370B55D
:10403000094CDD002A191688002E05D15668002E7D
:1040400002D12853516070BD0133202BF1D142229F
:104050000249034816F030F980870008889C021056
:10406000DE9C0210002370B5084ADC00A1180D8800
:10407000854203D10023A3524B6070BD0133202B36
:10408000F3D14F220249034816F016F98087000841
:10409000B29C0210169D021070B580240023084DBA
:1040A00064005A191688864202D152688A4204D0A6
:1040B0000833A342F5D1002070BD0120FCE7C046C3
:1040C00080870008084B5A68904204D01A69012181
:1040D000904201D0704700210C224A4300219950A0
:1040E0009B1859601972F5E78088000870B596B082
:1040F0002C2200210BA81DF051FE80200BA980016D
:10410000FDF766FC0B9B022B16D0032B00D1F2E0CF
:10411000012B00D0F8E0FC21180049001CF0E6FE5D
:10412000011E41D00C98FDF781FF002421000C985E
:10413000FDF748FE16B070BD08AC0C22002120002F
:104140001DF02CFE0E9B0C2B00D0D0E02200002195
:104150000C98FDF7AFFD0E9B0593834204D06D4A8A
:104160006D496E4816F0A8F820782A38052800D93D
:10417000BFE021F06FFF03122C525698002307A9CD
:104180000D98079304F0D0FE041ECFD10100042344
:1041900007AA0C98FDF7BEFDC8E7129E012031006A
:1041A0001CF0A4FE051E01D18D2445E00100320063
:1041B0000D9804F0C3FE041E05D1010033002A004F
:1041C0000C98FDF7A7FD28001DF026FAAEE70C9825
:1041D0006588FDF70DFF01002800FFF75DFF00284F
:1041E00029D00F9B06AA01210C98FDF763FD042836
:1041F00001D04B4AB4E7109B07AA02210C98FDF7A7
:1042000059FD042801D0474AAAE760880D9B079A08
:10421000069905F003F8040088E70D9804F03AFECB
:10422000F9E70C986588FDF7E3FE01002800FFF729
:1042300033FF002802D18824644277E70F990120D8
:104240001CF054FE051EAFD00F9B020001210C98FC
:10425000FDF730FD0F9B0593834201D0324A7FE783
:10426000109901201CF042FE061E03D128001DF00B
:10427000D3F999E7109B020002210C98FDF71AFD73
:10428000109B834201D0294A6AE76188A2680293A1
:104290000F9B039200930196059362682B000D9883
:1042A00004F0E9FFB7E70C986588FDF7A1FE01006F
:1042B0002800FFF7F1FE0028BDD00F9901201CF067
:1042C00015FE051E00D16FE70F9B020001210C981F
:1042D000FDF7F0FC0F9B834201D0154A40E762686E
:1042E00061880D9800922A0004F0FFFF93E7912463
:1042F000A2E78624A0E700240D9804F0CBFD0D98DA
:10430000A04200D060E711E70A4A03490A4815F0C5
:10431000D3FFC046F6050000329E0210919B0210AA
:10432000270600002D0600004C060000590600007C
:10433000790600009606000032850210F0B5A5B09F
:1043400080200006FDF736FB10220990104226D08F
:104350001C32002119A81DF021FD19A91020FDF71C
:1043600037FB199B022B05D0032B01D0012B60D109
:10437000002410E005F022F9041E0CD1B34A1368A2
:1043800001331360012B06D101001822B0481DF043
:1043900005FDFFF737FE21001A98FDF713FD2024D5
:1043A000099B234221D02C22002119A81DF0F6FCE4
:1043B00019A92000FDF70CFB199B022B3ED0032B03
:1043C00000D10FE1012B00D015E1B4211800490004
:1043D0001CF08CFD011E00D111E11A98FDF726FE9C
:1043E000002421001A98FDF7EDFC4024099B23428C
:1043F00000D144E12C22002119A81DF0CFFC19A9FD
:104400002000FDF7E5FA199B022B00D1F9E0032B00
:1044100000D170E2012B00D079E2E02118001CF0FD
:1044200065FD011E00D175E21A98FDF7FFFD00241D
:1044300021E197228749884815F03EFF10AC0822F9
:10444000002120001DF0AAFC1C9B082B00D0C3E01B
:10445000220000211A98FDF72DFC1C9B0A9398421C
:1044600004D0E2227D497E4800F0A7FE207815386E
:10447000052800D9B2E021F0EDFD0317275580ABE8
:104480001A986588FDF7B4FD01002800FFF704FEC7
:10449000002802D188246442A3E7618862681B98DF
:1044A00003F0FCFE04009CE71A986588FDF7A0FD68
:1044B00001002800FFF7F0FD0028EBD0618862685A
:1044C0001B9803F0F0FEEDE7C8231D9D5B0029005B
:1044D0009D4200D9190001201CF008FD071E00D1E3
:1044E0007EE0002D04D12C0038001DF095F878E70F
:1044F000C8232E005B009D4200D91E0033003A0005
:1045000001211A98FDF7D6FB864202D01422FF3211
:10451000A8E7320039001B9803F0CAFE041EE3D15D
:10452000AD1BDEE700241D9B0DAA01211A980D94F6
:10453000FDF7C0FB1D9B0A93984201D02C22E6E7B1
:104540000D9901200E941CF0D1FC051E48D00100ED
:104550000EAB0D9A1B9803F0DBFE041E0BD101007D
:104560000E9B2A001A98FDF7D5FB04230EAA012101
:104570001A98FDF7CFFB2800B7E700230EAA0E9389
:1045800001211D9B1A98FDF795FB1D9B0A939842EC
:1045900003D11E990E9B994201D04822B7E7012012
:1045A0001CF0A4FC051E1BD01E9B020002211A98C1
:1045B000FDF780FB1E9B0A93984202D0A92252006D
:1045C00050E70E9A29001B9803F0D1FE0400D2E7B1
:1045D0001B9803F041FD65E791245CE786245AE7C8
:1045E0008D2458E700241B9803F036FD1B98A04249
:1045F00000D07AE7F5E6BA22184952001BE7194CB9
:10460000EFE610AC0822002120001DF0C7FB1C9B28
:10461000082B00D069E1220000211A98FDF74AFB1F
:104620001C9B0A93984203D09A22FF320E491AE744
:1046300020780E38062800D959E121F015FD170021
:1046400060008D00BE00EA00EF0028019888000895
:1046500080880008509D021032850210849D02104F
:10466000919B021001000080969D021061681B98CA
:1046700003F00AF8040021001A98FDF7A3FB802438
:10468000099B6400234221D02C22002119A81DF08F
:1046900085FB19A92000FDF79BF9199B022B00D17E
:1046A0003AE1032B00D112E2012B00D017E24C219A
:1046B00018001CF01BFC011E00D113E21A98FDF734
:1046C000B5FC002631001A98FDF77CFB8024099B7D
:1046D000234200D189E22C22002119A81DF05EFBA3
:1046E00019A92000FDF774F9199B022B00D1FBE1F9
:1046F000032B02D0012B00D019E3002771E2C8235D
:104700001D9D5B0029009D4200D9190001201CF06D
:10471000EDFB071E00D1ECE0002D04D12C00380089
:104720001CF07AFFA7E7C8232E005B009D4200D94A
:104730001E0033003A0001211A98FDF7BBFA8642A9
:1047400001D0B62271E7320039001B9802F0E0FF79
:10475000041EE4D1AD1BDFE700241D9B0DAA01213F
:104760001A980D94FDF7A6FA1D9B0A93984201D062
:10477000CE225AE70D9901200E941CF0B7FB051EBE
:1047800000D1B6E001000EAB0D9A1B9802F0CAFFF3
:10479000041E0BD101000E9B2A001A98FDF7BAFAED
:1047A00004230EAA01211A98FDF7B4FA28001CF080
:1047B00033FF1B98FFF786FC5DE700230EAA0E93DC
:1047C00001211D9B1A98FDF775FA1D9B0A939842CB
:1047D00003D11E990E9B994202D0F522520025E783
:1047E00001201CF083FB051E00D182E01E9B02000D
:1047F00002211A98FDF75EFA1E9B0A93984201D097
:10480000F62212E70E9A29001B9803F0D7FB04004A
:10481000CCE71B9802F0EAFE0400CAE700241A98CD
:104820000E94FDF7E5FBBD4B1B991A680E94904260
:1048300002D15D68A94207D0DC68A04211D11D6990
:10484000A9420ED101240E940C2254431B191A7A4A
:10485000002101321A721A9804230EAAFDF75AFA9F
:10486000E5E500250E95AA4202D15D68002D08D02D
:10487000002C37D11A69893C002A00D0FBE60132AE
:104880000E920C24624398509B185960DFE71D9BE1
:104890000EAA01211A98FDF70DFA1D9B0A93984262
:1048A00002D086229200C1E60E9C1A98FDF7A0FB6A
:1048B000012C17D80C256543984FEB59984211D11C
:1048C0007E19706800280DD01B9903F097FB337A8E
:1048D0000400013BDBB23372002B00D0CBE6EB517E
:1048E0007360C8E689246442C5E69124FBE7862408
:1048F000F9E78D24F7E700241B9802F077FE1B9858
:10490000A04200D1B7E6FFF7DDFB1B9808E7844A19
:10491000844990E5844CAEE60EAC082200212000CC
:104920001DF03CFA1C9B9126082B21D1220000216E
:104930001A98FDF7BFF91C9B0A93984202D07B4A54
:104940007B4990E520781B38062800D9BDE021F08E
:1049500081FB041828455C99B8001A986588FDF712
:1049600047FB01002800FFF797FB002802D18826AB
:104970007642A7E6618862681B9804F091F8060009
:10498000A0E61A986588FDF733FB01002800FFF7C1
:1049900083FB0028EBD0618862681B9804F085F8DF
:1049A000EDE70021209C102210A80D911DF0F6F9D2
:1049B0000DAB220010A91B9804F09EF8061E00D033
:1049C00080E60D9B10AA01001A98FDF7A3F90423B5
:1049D0000DAA01211A98FDF79DF973E61D9C10227E
:1049E000002110A81DF0DAF9230010AA01211A985D
:1049F000FDF760F9844202D0F2229200A0E7220083
:104A000010A91B9804F056F8B9E700231D9E012059
:104A10003100209F10931CF069FA041E12D002008E
:104A2000330001211A98FDF745F9864201D0414A29
:104A300086E7390001201CF059FA051E04D1200038
:104A40001CF0EAFD8D2693E710AB019332000300C2
:104A5000009721001B9804F07BF8061E0BD1010083
:104A6000109B2A001A98FDF755F9042310AA01217A
:104A70001A98FDF74FF920001CF0CEFD28001CF01D
:104A8000CBFD1FE60023209D0120290010931CF080
:104A90002DFA041ED6D0010010AB2A001B9804F09A
:104AA0008BF8061E0BD10100109B22001A98FDF70F
:104AB00031F9042310AA01211A98FDF72BF92000DF
:104AC000DDE71B9803F018FF59E7862650E700261C
:104AD0001B9803F011FF1B98B042D0D1F2E5164AA3
:104AE0001349A8E4104EEDE51C9B91270A93102B67
:104AF00000D09BE01A9D10AC1022002120001DF078
:104B00004DF91023220000212800FDF7D3F81C9B4B
:104B10000A93984216D0094A0949A4E480880008FB
:104B20003B020000969D02100100008095030000EA
:104B3000D59D0210DF030000240400005A0200008B
:104B4000A99D02101A986588FDF752FA0100280005
:104B5000FFF7A2FA002800D1E5E0207824380328E6
:104B600000D9E2E021F076FA025B919100232099CE
:104B700001200E931CF0BAF9041E56D01D99012095
:104B80001CF0B4F906002000002E00D19CE01D9B13
:104B9000320001211A98FDF78DF81D9A03000A9240
:104BA000904201D0C64AB7E7209A10A90EAD4888B6
:104BB0000A920192029500943200119903F00EFCC2
:104BC000071E05D101000E9B22001A98FDF7A2F8DE
:104BD0001A9804232A000121FDF79CF820001CF0FC
:104BE0001BFD39001A98FDF7EDF88024099BA400FD
:104BF000234200D11DE12C22002119A81DF0CEF87E
:104C000019A92000FCF7E4FE199B022B00D192E0C9
:104C1000032B02D0012B00D032E1002405E11D99C5
:104C200001201CF063F9061E02D18D277F42D8E7D0
:104C30001D9B020001211A98FDF73CF81D9B0A9369
:104C4000984201D09F4A67E71E9901201CF04EF957
:104C5000051EEAD002001E9B02211A98FDF72AF8D1
:104C60001E9A03000A92904201D0974A54E71D9A77
:104C70006088019200962A00616803F0ABFC07008F
:104C800030001CF0C9FC2800A9E700231D99012071
:104C90000E931CF02BF9051EC7D01D9B02000121AD
:104CA0001A98FDF707F81D9B0A93984202D0B1228B
:104CB000920031E7A3682099EB1801200A931CF0B9
:104CC00015F9061E03D128001CF0A6FCADE7A36869
:104CD00060886168E26824780B93A4466346209F4D
:104CE0000EAC0494039702960192262B14D10A9BD2
:104CF0002A0000930B9B03F023FD071E05D1010042
:104D00000E9B32001A98FDF705F8042322000121BA
:104D10001A98FCF7FFFFB3E70A9B2A0000930B9B4E
:104D200003F082FDE9E7882780E786277EE7674A68
:104D30006749FFF780FB1C9D9124242D45D11A9EC5
:104D400010AC2A00002120001DF028F82B002200C2
:104D500000213000FCF7AEFF1C9B0A93984203D061
:104D60005C4A5D49FFF77FFB1A986588FDF740F9BB
:104D700001002800FFF790F9002800D17CE023789B
:104D8000223B012B7AD800231D9901200E931CF0A1
:104D9000ADF8051E18D01D9B020001211A98FCF7E2
:104DA00089FF1D9B0A93984202D0CD229200D8E73A
:104DB000E3682099EB1801200A931CF097F8061E6F
:104DC00005D128001CF028FC8D2464422DE0E26807
:104DD000238960886168944622692478209F0B9318
:104DE00023000EAC0694059704960392222B39D12A
:104DF0000A9B00950293634615AA01930B9B03F04F
:104E000059FF041E0BD101000E9B32001A98FCF7CB
:104E100081FF04230EAA01211A98FCF77BFF2800CA
:104E20001CF0FAFB30001CF0F7FB21001A98FCF78D
:104E3000C9FF8024099BE400234200D1B2E02C2268
:104E4000002119A81CF0AAFF19A92000FCF7C0FD39
:104E5000199B022B18D0032B02D0012B00D0E1E1CB
:104E600000249BE00A9B00950293634615AA0193D8
:104E70000B9B03F091FFC4E78824A6E78624A4E7F0
:104E8000164A1549FFF7D7FA1C9B91240A93102B59
:104E900000D0B5E01A9C10AD1022002128001CF0B3
:104EA0007DFF10232A0000212000FCF703FF1C9B3C
:104EB0000A93984218D00A4A0A49FFF7D4FAC04622
:104EC000790200009A020000A6020000FB02000026
:104ED000A99D02101A030000C29D02106E0300007B
:104EE00047040000ED9D02101A98FDF781F80600B6
:104EF000287B0238272800D990E121F0B5F8790005
:104F00003C014901680184019C00AB00CD00F30025
:104F100039006D0028008F018F018F018F018F01F3
:104F20008F018F018F018F018F018F018F018F0101
:104F30008F018F018F018F018F018F018F018F01F1
:104F40008F018F018F018F018F018F010901288847
:104F50003100209FFFF7A0F8002850D028880EA924
:104F600003F09CFE041E19D13B000EAA21008FE025
:104F7000288831001D9CFFF78FF800283FD02300C0
:104F80000EAA01211A98FCF795FE844201D0A74A87
:104F900092E728880EA903F05BFE040021001A980E
:104FA000FCF710FF8024099B2401234200D16AE111
:104FB0002C22002119A81CF0F1FE19A92000FCF7F1
:104FC00007FD199B022B00D144E1032B02D0012BDA
:104FD00000D08FE1002452E128883100209FFFF7A4
:104FE0005BF800280BD028880EA903F047FEB9E72C
:104FF000288831001D9CFFF74FF8002802D1882433
:105000006442CBE7210001201BF070FF061E00D197
:1050100006E10200230001211A98FCF74BFE8442AE
:1050200001D0834A48E7288823003200A96802F0AB
:105030004DFA040052E028883100FFF72DF80028CF
:10504000DDD0288802F06EFA041EA7D12888FFF769
:1050500009F8A3E728883100FFF71EF80028CED012
:1050600028880EAA0DA902F074FA209B04000A9366
:10507000032B05D904230DAA00211A98FCF74AFE38
:10508000219B0A93032B00D888E7042301210EAA51
:105090001A98FCF73FFE81E728883100209CFEF734
:1050A000FBFF0028ABD0210001201BF01FFF061ED4
:1050B00000D1B5E028880EAB2200310002F06AFA78
:1050C000041E05D101000E9B32001A98FCF722FE47
:1050D00004230EAA01211A98FCF71CFE30001CF0D4
:1050E0009BFA5BE728883100209CFEF7D5FF00285B
:1050F00000D184E7210001201BF0F8FE061E00D13C
:105100008EE028880EAB2200310002F058FAD7E773
:10511000288831001D9F1E9CFEF7BEFF002800D18D
:105120006DE73B000EAA01211A98FCF7C3FD8742E8
:1051300002D0A222D200BFE63E4BAA6800269A42C5
:1051400011D1B4420FD0210001201BF0CFFE061E6A
:1051500066D00200230002211A98FCF7ABFD8442BE
:1051600001D0354AA8E62888009433000E9AA96831
:1051700004F026F95DE7280004F00EFB041E00D0C1
:105180000CE728883100FEF751FF02232A00EDE6E4
:105190001A98FCF72DFF1D9B0F900EAA01211A985B
:1051A000FCF788FD1D9B0A93984201D0A722C1E716
:1051B000042804D0214A2249224815F07DF810AD78
:1051C0002B000E990F9A119804F011FBD6E71A984C
:1051D000FCF70EFF1D9B0F900EAA01211A98FCF7F9
:1051E00069FD1D9B0A93984201D0174A64E6042882
:1051F00001D0164ADFE710AD2B000E990F9A1198D7
:1052000004F0D0FABAE728883100FEF745FF0028FD
:1052100000D1F4E6288804F017FB15E78624EFE6B2
:105220008D24EDE60A4A0649FFF705F96E040000F1
:1052300099040000000001701D0500003C050000FD
:10524000ED9D0210529E02104D0500005105000018
:1052500075050000209E012031001BF047FE051E51
:105260004CD0310004F06AF8041E05D1010033006F
:105270002A001A98FCF74EFD28001CF0CDF92100F9
:105280001A98FCF79FFD8024099B6401234213D0E8
:105290002C22002119A81CF081FD19A92000FCF77F
:1052A00097FB199B022B2CD0032B01D0012B3AD159
:1052B00000211A98FCF786FD099B9B0401D5FEF797
:1052C00015FF8024099BE401234201D1FFF738F840
:1052D0002C22002119A81CF061FD19A92000FCF75F
:1052E00077FB199B022B22D0032B01D0012B43D13A
:1052F00000243BE0254A2649FFF79DF88D246442AF
:10530000BDE7244A1368002B01DD013B13601168DF
:105310000029CDD1182220481CF040FDFEF77CFE6C
:1053200004F030F9C4E7BD221C49FFF784F880235C
:105330001C9CDB009C4223D8210001201BF0D6FDE1
:10534000051E20D00200230000211A98FCF7B2FCB1
:10535000844203D0124A1349FFF785F82100280040
:1053600004F002F8040028001CF056F921001A98F5
:10537000FCF728FDFEF7E4FF0B4A0A49FFF75BF84C
:1053800087246442F2E78D24FBE7C046CE05000087
:10539000209E021098880008808800086A9D0210EC
:1053A0009B0500000A9E0210A705000080235B01F8
:1053B0000360002070470000802310B55B01984215
:1053C00002D100F0EBFB10BD0048FCE7E8030080D1
:1053D000BFF34F8F034B044ADA60BFF34F8FC046D1
:1053E000FDE7C04600ED00E00400FA05882030B576
:1053F000012187B04002FCF70FF8002405002000CF
:10540000A54215DD03AB049304230593033B0093EE
:10541000220004AB210028000394FCF78FF88023BE
:105420001B06984200D103942800FCF70BF903985F
:1054300007B030BD10B5041E04D171220F491048C9
:1054400014F03AFF0F4816F0EFFD2062002810D04C
:105450000D4B0E4A9C629C649C60236100210C48A9
:1054600017F04AFC6060002807D1802203490948F0
:10547000E6E7762201490848E2E710BD8B9E02105C
:1054800050820210209F02101405000874050008C5
:1054900029550010DE9E0210A09E021010B5FFF7E5
:1054A00097FF10BDC36807B5042B02D0802000060B
:1054B0000EBD01AA00214068FCF7FCFB0428F5D1D1
:1054C0000198FFF779FFF3E773B5C6690500042E6D
:1054D0000CD101A8FFF76AFF041E05D101003300BB
:1054E00001AA6868FCF716FC200076BD802424061B
:1054F000FAE70000036810B50400022B05D0032B67
:1055000001D0012B07D1002101E08847010060682C
:10551000FCF758FC10BD51220149024814F0CCFEA2
:10552000489F021032850210F0B58DB02C22002168
:1055300001A880271CF032FC40253F0610263800C9
:10554000FCF738FA0400304207D001A93000FCF71C
:105550003FFA0C4901A8FFF7CDFF2020044206D0F6
:1055600001A9FCF735FA084901A8FFF7C3FF2C424F
:10557000E5D001A92800FCF72BFA044901A8FFF7A0
:10558000B9FFDBE7C9540010A55400109D5400106A
:10559000184B984223D010DC174B984223D004DCE0
:1055A000164B984221D0842312E0154B984218D014
:1055B000144B9842F7D18E230AE0134B984209DC32
:1055C000124B984213DA124BC01892230128EAD8E2
:1055D0005B4202E000239842E5D118007047852322
:1055E000F6E78C23F4E79823F2E78723F0E7952387
:1055F000EEE7C0461201FF800201FF800101FF803B
:105600000701FF800B01FF804601FF804501FF80FD
:10561000E5FE007FF8B53F240021A446069E154D07
:1056200067463740EF5D4C1CE4B24754B6091BD1C6
:105630003F2702312336C9B2065516003E40AE5D03
:10564000920946549E06324316004C1C9B09E4B254
:105650001E430BD10231C9B20655132908D9B7220E
:105660000549064814F008FC2100D9E72100E4E7C9
:10567000F8BDC046589F0210989F0210E49F021088
:10568000F0B589B0039300231500069302680793D1
:105690000193059305AB00939769082306AA0400BC
:1056A0000E00B84700280FD1059B01001848082BB1
:1056B0000FD1069A2B689A4204D80CD1079A6B68CE
:1056C0009A4208D9134804E0134B01219842F0D0C4
:1056D000124814F0F1FD9A4215D22A0006A92000C2
:1056E000039B984700280CD10022236800925F6931
:1056F0002A00082331002000B847002805D00848B8
:10570000E7E70848E5E70029EED109B0F0BDC0465B
:105710000EA002105AA002100701FF8032A0021052
:10572000A6A0021089A00210F0B51D00012389B0C7
:105730000F00109904001600994319D113002B4350
:1057400019D0132203A81CF029FB2B00320003A858
:105750000097FFF75FFF109A236800925D690F9A28
:105760000E9B03A92000A847FFF712FF09B0F0BD68
:1057700086204042FAE78720FBE7F0B51D001300C2
:105780008BB004000F0016002B4335D000211322EC
:1057900005A81CF003FB32002B0005A80097FFF7BB
:1057A00039FF236803AADB6905A920009847002870
:1057B0001ED1039A109B9A421ED311995B188B42FB
:1057C0001AD39A4202D28A20404213E0109A2368E8
:1057D000019202AA009202909D69129A119B05A95A
:1057E0002000A847002803D1029B119A9342EAD3D4
:1057F000FFF7CEFE0BB0F0BD8720E5E7F0B51E0049
:1058000013008DB0050003911700129C33431FD085
:105810000021132207A81CF0C1FA039B3A00009351
:1058200007A83300FFF7F6FE2B6805AADB6907A976
:1058300028009847002807D10123069A60601A4281
:1058400000D06360059B2360FFF7A2FE0DB0F0BDA2
:1058500087204042FAE7F0B51D00130089B004002C
:105860000F0016002B4313D00021132203A81CF0B5
:1058700095FA32002B0003A80097FFF7CBFE2368B0
:1058800003A91B6A20009847FFF782FE09B0F0BD0C
:1058900087204042FAE710B503681B699847FFF775
:1058A00077FE10BD0020704770B50B4C2378BFF316
:1058B0005B8F0A4DDB070CD4200014F0E1FD0028BB
:1058C00007D0200014F000FE054A0649280014F015
:1058D000CBFD280070BDC046008D0008088D000873
:1058E000C0000008C17F011037B5FFF7DDFF0A498E
:1058F00012F06CFB6A461100084B1860084B30CB65
:1059000030C1002802D1074814F0D6FC064B0749E5
:10591000FFF7B6FE37BDC046D4A00210588D000870
:10592000CCA00210F1A00210A558001012A1021084
:10593000F0B50C4C1F00236885B005001600002B45
:1059400001D1FFF7D1FF0C9B320002930B9B290082
:1059500001930A9B009320683B00FFF7E5FE05B02A
:10596000F0BDC046588D0008F0B50C4C1F002368F0
:1059700085B005001600002B01D1FFF7B5FF0C9B89
:10598000320002930B9B290001930A9B009320682D
:105990003B00FFF7F2FE05B0F0BDC046588D000891
:1059A000F7B5094C1F00236805001600002B01D134
:1059B000FFF79AFF089B3200009329003B00206804
:1059C000FFF71CFFFEBDC046588D0008F8B5084C17
:1059D0001F00236805001600002B01D1FFF784FF8C
:1059E00032003B0029002068FFF735FFF8BDC046B4
:1059F000588D000810B5FFF757FF064912F0E6FA78
:105A0000054B1860002802D1044814F055FCFFF73C
:105A100042FF10BDD4A00210588D0008F1A0021062
:105A200030B58BB002900391002B01D1002A22D116
:105A300002A90491069308210EAB08930423059153
:105A40000F48073907920993FBF7E6FC051E15DDA1
:105A500000230322009304A9FBF770FD80230400B8
:105A60001B06984201D1922464422800FBF7EAFD0C
:105A700020000BB030BD87246442F9E79224FBE795
:105A8000011A010030B58DB00392109A049005916F
:105A9000002A01D1002B24D104A9089108210991E1
:105AA00003A90A918D20042140020B91033906922B
:105AB0000793FBF7B1FC051E16DD012302220093BC
:105AC00008A906ABFBF73AFD802304001B069842A9
:105AD00001D1922464422800FBF7B4FD20000DB0F0
